{"abi":[{"type":"function","name":"ZERO_VALUE","inputs":[],"outputs":[{"name":"","type":"bytes32","internalType":"bytes32"}],"stateMutability":"view"},{"type":"function","name":"getInsertionTreeNumberAndStartingIndex","inputs":[{"name":"_newCommitments","type":"uint256","internalType":"uint256"}],"outputs":[{"name":"","type":"uint256","internalType":"uint256"},{"name":"","type":"uint256","internalType":"uint256"}],"stateMutability":"view"},{"type":"function","name":"hashLeftRight","inputs":[{"name":"_left","type":"bytes32","internalType":"bytes32"},{"name":"_right","type":"bytes32","internalType":"bytes32"}],"outputs":[{"name":"","type":"bytes32","internalType":"bytes32"}],"stateMutability":"pure"},{"type":"function","name":"merkleRoot","inputs":[],"outputs":[{"name":"","type":"bytes32","internalType":"bytes32"}],"stateMutability":"view"},{"type":"function","name":"nextLeafIndex","inputs":[],"outputs":[{"name":"","type":"uint256","internalType":"uint256"}],"stateMutability":"view"},{"type":"function","name":"nullifiers","inputs":[{"name":"","type":"uint256","internalType":"uint256"},{"name":"","type":"bytes32","internalType":"bytes32"}],"outputs":[{"name":"","type":"bool","internalType":"bool"}],"stateMutability":"view"},{"type":"function","name":"rootHistory","inputs":[{"name":"","type":"uint256","internalType":"uint256"},{"name":"","type":"bytes32","internalType":"bytes32"}],"outputs":[{"name":"","type":"bool","internalType":"bool"}],"stateMutability":"view"},{"type":"function","name":"treeNumber","inputs":[],"outputs":[{"name":"","type":"uint256","internalType":"uint256"}],"stateMutability":"view"},{"type":"function","name":"zeros","inputs":[{"name":"","type":"uint256","internalType":"uint256"}],"outputs":[{"name":"","type":"bytes32","internalType":"bytes32"}],"stateMutability":"view"},{"type":"event","name":"Initialized","inputs":[{"name":"version","type":"uint8","indexed":false,"internalType":"uint8"}],"anonymous":false}],"bytecode":{"object":"0x608060405234801561001057600080fd5b50610916806100206000396000f3fe608060405234801561001057600080fd5b50600436106100935760003560e01c806366503315116100665780636650331514610135578063c718dbda14610153578063e829558814610183578063ec732959146101b3578063f19ea903146101d157610093565b80630be4f422146100985780630c9c0c8d146100b65780632eb4a7ab146100e757806338bf282e14610105575b600080fd5b6100a0610201565b6040516100ad91906103df565b60405180910390f35b6100d060048036038101906100cb919061042b565b610207565b6040516100de929190610458565b60405180910390f35b6100ef610256565b6040516100fc919061049a565b60405180910390f35b61011f600480360381019061011a91906104e1565b61025c565b60405161012c919061049a565b60405180910390f35b61013d6102f2565b60405161014a91906103df565b60405180910390f35b61016d60048036038101906101689190610521565b6102f8565b60405161017a919061057c565b60405180910390f35b61019d6004803603810190610198919061042b565b610327565b6040516101aa919061049a565b60405180910390f35b6101bb610342565b6040516101c8919061049a565b60405180910390f35b6101eb60048036038101906101e69190610521565b610397565b6040516101f8919061057c565b60405180910390f35b60025481565b6000806010600261021891906106f9565b836002546102269190610744565b111561024657600160055461023b9190610744565b600091509150610251565b600554600254915091505b915091565b60035481565b600073__$e4b2a9d8f07fa6f22863c7e426f7b84603$__63299e56606040518060400160405280868152602001858152506040518263ffffffff1660e01b81526004016102a99190610823565b602060405180830381865af41580156102c6573d6000803e3d6000fd5b505050506040513d601f19601f820116820180604052508101906102ea9190610853565b905092915050565b60055481565b60266020528160005260406000206020528060005260406000206000915091509054906101000a900460ff1681565b6006816010811061033757600080fd5b016000915090505481565b7f30644e72e131a029b85045b68181585d2833e84879b9709143e1f593f00000017f95b5e3f3c951508f13e7771152f5b7c7329a294917685c10a571c9247e3b9fff60001c61039191906108af565b60001b81565b60016020528160005260406000206020528060005260406000206000915091509054906101000a900460ff1681565b6000819050919050565b6103d9816103c6565b82525050565b60006020820190506103f460008301846103d0565b92915050565b600080fd5b610408816103c6565b811461041357600080fd5b50565b600081359050610425816103ff565b92915050565b600060208284031215610441576104406103fa565b5b600061044f84828501610416565b91505092915050565b600060408201905061046d60008301856103d0565b61047a60208301846103d0565b9392505050565b6000819050919050565b61049481610481565b82525050565b60006020820190506104af600083018461048b565b92915050565b6104be81610481565b81146104c957600080fd5b50565b6000813590506104db816104b5565b92915050565b600080604083850312156104f8576104f76103fa565b5b6000610506858286016104cc565b9250506020610517858286016104cc565b9150509250929050565b60008060408385031215610538576105376103fa565b5b600061054685828601610416565b9250506020610557858286016104cc565b9150509250929050565b60008115159050919050565b61057681610561565b82525050565b6000602082019050610591600083018461056d565b92915050565b7f4e487b7100000000000000000000000000000000000000000000000000000000600052601160045260246000fd5b60008160011c9050919050565b6000808291508390505b600185111561061d578086048111156105f9576105f8610597565b5b60018516156106085780820291505b8081029050610616856105c6565b94506105dd565b94509492505050565b60008261063657600190506106f2565b8161064457600090506106f2565b816001811461065a576002811461066457610693565b60019150506106f2565b60ff84111561067657610675610597565b5b8360020a91508482111561068d5761068c610597565b5b506106f2565b5060208310610133831016604e8410600b84101617156106c85782820a9050838111156106c3576106c2610597565b5b6106f2565b6106d584848460016105d3565b925090508184048111156106ec576106eb610597565b5b81810290505b9392505050565b6000610704826103c6565b915061070f836103c6565b925061073c7fffffffffffffffffffffffffffffffffffffffffffffffffffffffffffffffff8484610626565b905092915050565b600061074f826103c6565b915061075a836103c6565b925082820190508082111561077257610771610597565b5b92915050565b600060029050919050565b600081905092915050565b6000819050919050565b6107a181610481565b82525050565b60006107b38383610798565b60208301905092915050565b6000602082019050919050565b6107d581610778565b6107df8184610783565b92506107ea8261078e565b8060005b8381101561081b57815161080287826107a7565b965061080d836107bf565b9250506001810190506107ee565b505050505050565b600060408201905061083860008301846107cc565b92915050565b60008151905061084d816104b5565b92915050565b600060208284031215610869576108686103fa565b5b60006108778482850161083e565b91505092915050565b7f4e487b7100000000000000000000000000000000000000000000000000000000600052601260045260246000fd5b60006108ba826103c6565b91506108c5836103c6565b9250826108d5576108d4610880565b5b82820690509291505056fea264697066735822122063c195e5779673fa8899ed4fd47004affe0258046dd4bad467dae421cf4f1b2464736f6c63430008110033","linkReferences":{"contracts/railgun/logic/Poseidon.sol":{"PoseidonT3":[{"start":640,"length":20}]}}},"methodIdentifiers":{"ZERO_VALUE()":"ec732959","getInsertionTreeNumberAndStartingIndex(uint256)":"0c9c0c8d","hashLeftRight(bytes32,bytes32)":"38bf282e","merkleRoot()":"2eb4a7ab","nextLeafIndex()":"0be4f422","nullifiers(uint256,bytes32)":"f19ea903","rootHistory(uint256,bytes32)":"c718dbda","treeNumber()":"66503315","zeros(uint256)":"e8295588"},"id":30}