{
  "_format": "hh-sol-artifact-1",
  "contractName": "PoseidonT4",
  "sourceName": "contracts/railgun/logic/Poseidon.sol",
  "abi": [
    {
      "inputs": [
        {
          "internalType": "bytes32[3]",
          "name": "input",
          "type": "bytes32[3]"
        }
      ],
      "name": "poseidon",
      "outputs": [
        {
          "internalType": "bytes32",
          "name": "",
          "type": "bytes32"
        }
      ],
      "stateMutability": "pure",
      "type": "function"
    }
  ],
  "bytecode": "0x61011761003a600b82828239805160001a60731461002d57634e487b7160e01b600052600060045260246000fd5b30600052607381538281f3fe730000000000000000000000000000000000000000301460806040526004361060335760003560e01c80635a53025d146038575b600080fd5b60496043366004605b565b50600090565b60405190815260200160405180910390f35b600060608284031215606c57600080fd5b82601f830112607a57600080fd5b6040516060810181811067ffffffffffffffff8211171560aa57634e487b7160e01b600052604160045260246000fd5b60405280606084018581111560be57600080fd5b845b8181101560d657803583526020928301920160c0565b50919594505050505056fea264697066735822122066efae14a3045d5bdfe45cf82d41bae53dbfa46acb91ae30d207ae6f047000e964736f6c63430008110033",
  "linkReferences": {},
  "deployedLinkReferences": {}
}