{
  "_format": "hh-sol-artifact-1",
  "contractName": "PoseidonT3",
  "sourceName": "contracts/railgun/logic/Poseidon.sol",
  "abi": [
    {
      "inputs": [
        {
          "internalType": "bytes32[2]",
          "name": "input",
          "type": "bytes32[2]"
        }
      ],
      "name": "poseidon",
      "outputs": [
        {
          "internalType": "bytes32",
          "name": "",
          "type": "bytes32"
        }
      ],
      "stateMutability": "pure",
      "type": "function"
    }
  ],
  "bytecode": "0x61011961003a600b82828239805160001a60731461002d57634e487b7160e01b600052600060045260246000fd5b30600052607381538281f3fe730000000000000000000000000000000000000000301460806040526004361060335760003560e01c8063299e5660146038575b600080fd5b60496043366004605b565b50600090565b60405190815260200160405180910390f35b600060408284031215606c57600080fd5b82601f830112607a57600080fd5b6040516040810181811067ffffffffffffffff8211171560aa57634e487b7160e01b600052604160045260246000fd5b806040525080604084018581111560c057600080fd5b845b8181101560d857803583526020928301920160c2565b50919594505050505056fea2646970667358221220c00393d9324de6af3f8fdf97419e752b6f738c700c75fe7a85d5296b81a883d064736f6c63430008110033",
  "linkReferences": {},
  "deployedLinkReferences": {}
}