{
  "_format": "hh-sol-artifact-1",
  "contractName": "MockTokenMessengerV2",
  "sourceName": "contracts/cctp/MockCCTPV2.sol",
  "abi": [
    {
      "inputs": [
        {
          "internalType": "address",
          "name": "_messageTransmitter",
          "type": "address"
        },
        {
          "internalType": "address",
          "name": "_usdc",
          "type": "address"
        },
        {
          "internalType": "uint32",
          "name": "_localDomain",
          "type": "uint32"
        }
      ],
      "stateMutability": "nonpayable",
      "type": "constructor"
    },
    {
      "inputs": [
        {
          "internalType": "uint256",
          "name": "amount",
          "type": "uint256"
        },
        {
          "internalType": "uint32",
          "name": "destinationDomain",
          "type": "uint32"
        },
        {
          "internalType": "bytes32",
          "name": "mintRecipient",
          "type": "bytes32"
        },
        {
          "internalType": "address",
          "name": "burnToken",
          "type": "address"
        },
        {
          "internalType": "bytes32",
          "name": "destinationCaller",
          "type": "bytes32"
        },
        {
          "internalType": "uint256",
          "name": "maxFee",
          "type": "uint256"
        },
        {
          "internalType": "uint32",
          "name": "minFinalityThreshold",
          "type": "uint32"
        }
      ],
      "name": "depositForBurn",
      "outputs": [
        {
          "internalType": "uint64",
          "name": "nonce",
          "type": "uint64"
        }
      ],
      "stateMutability": "nonpayable",
      "type": "function"
    },
    {
      "inputs": [
        {
          "internalType": "uint256",
          "name": "amount",
          "type": "uint256"
        },
        {
          "internalType": "uint32",
          "name": "destinationDomain",
          "type": "uint32"
        },
        {
          "internalType": "bytes32",
          "name": "mintRecipient",
          "type": "bytes32"
        },
        {
          "internalType": "address",
          "name": "burnToken",
          "type": "address"
        },
        {
          "internalType": "bytes32",
          "name": "destinationCaller",
          "type": "bytes32"
        },
        {
          "internalType": "uint256",
          "name": "maxFee",
          "type": "uint256"
        },
        {
          "internalType": "uint32",
          "name": "minFinalityThreshold",
          "type": "uint32"
        },
        {
          "internalType": "bytes",
          "name": "hookData",
          "type": "bytes"
        }
      ],
      "name": "depositForBurnWithHook",
      "outputs": [
        {
          "internalType": "uint64",
          "name": "nonce",
          "type": "uint64"
        }
      ],
      "stateMutability": "nonpayable",
      "type": "function"
    },
    {
      "inputs": [
        {
          "internalType": "uint32",
          "name": "sourceDomain",
          "type": "uint32"
        },
        {
          "internalType": "bytes32",
          "name": "sender",
          "type": "bytes32"
        },
        {
          "internalType": "uint32",
          "name": "finalityThresholdExecuted",
          "type": "uint32"
        },
        {
          "internalType": "bytes",
          "name": "messageBody",
          "type": "bytes"
        }
      ],
      "name": "handleReceiveMessage",
      "outputs": [
        {
          "internalType": "bool",
          "name": "",
          "type": "bool"
        }
      ],
      "stateMutability": "nonpayable",
      "type": "function"
    },
    {
      "inputs": [],
      "name": "localDomain",
      "outputs": [
        {
          "internalType": "uint32",
          "name": "",
          "type": "uint32"
        }
      ],
      "stateMutability": "view",
      "type": "function"
    },
    {
      "inputs": [],
      "name": "messageTransmitter",
      "outputs": [
        {
          "internalType": "address",
          "name": "",
          "type": "address"
        }
      ],
      "stateMutability": "view",
      "type": "function"
    },
    {
      "inputs": [],
      "name": "nextNonce",
      "outputs": [
        {
          "internalType": "uint64",
          "name": "",
          "type": "uint64"
        }
      ],
      "stateMutability": "view",
      "type": "function"
    },
    {
      "inputs": [
        {
          "internalType": "uint32",
          "name": "",
          "type": "uint32"
        }
      ],
      "name": "remoteTokenMessengers",
      "outputs": [
        {
          "internalType": "bytes32",
          "name": "",
          "type": "bytes32"
        }
      ],
      "stateMutability": "view",
      "type": "function"
    },
    {
      "inputs": [
        {
          "internalType": "uint32",
          "name": "domain",
          "type": "uint32"
        },
        {
          "internalType": "bytes32",
          "name": "tokenMessenger",
          "type": "bytes32"
        }
      ],
      "name": "setRemoteTokenMessenger",
      "outputs": [],
      "stateMutability": "nonpayable",
      "type": "function"
    },
    {
      "inputs": [],
      "name": "usdc",
      "outputs": [
        {
          "internalType": "address",
          "name": "",
          "type": "address"
        }
      ],
      "stateMutability": "view",
      "type": "function"
    }
  ],
  "bytecode": "0x60e060405234801561001057600080fd5b506040516113ba3803806113ba83398101604081905261002f9161006c565b6001600160a01b03928316608052911660a05263ffffffff1660c0526100bc565b80516001600160a01b038116811461006757600080fd5b919050565b60008060006060848603121561008157600080fd5b61008a84610050565b925061009860208501610050565b9150604084015163ffffffff811681146100b157600080fd5b809150509250925092565b60805160a05160c051611291610129600039600061018a015260008181609d0152818161020e0152818161035b01528181610399015281816104940152818161059a015281816105d8015261077e015260008181610135015281816106b3015261099701526112916000f3fe608060405234801561001057600080fd5b50600436106100935760003560e01c806382a5e6651161006657806382a5e665146101575780638d3638f4146101855780638e0250ee146101c1578063b93184db146101d4578063d69c3d30146101f757600080fd5b80633e413bee146100985780636b51d203146100dc578063779b432d146101055780637b04c18114610130575b600080fd5b6100bf7f000000000000000000000000000000000000000000000000000000000000000081565b6040516001600160a01b0390911681526020015b60405180910390f35b6101036100ea366004610e1e565b63ffffffff909116600090815260016020526040902055565b005b610118610113366004610ea7565b61020a565b6040516001600160401b0390911681526020016100d3565b6100bf7f000000000000000000000000000000000000000000000000000000000000000081565b610177610165366004610f45565b60016020526000908152604090205481565b6040519081526020016100d3565b6101ac7f000000000000000000000000000000000000000000000000000000000000000081565b60405163ffffffff90911681526020016100d3565b6101186101cf366004610f60565b610490565b6101e76101e2366004610fca565b6106a6565b60405190151581526020016100d3565b600054610118906001600160401b031681565b60007f00000000000000000000000000000000000000000000000000000000000000006001600160a01b0316876001600160a01b0316146102865760405162461bcd60e51b81526020600482015260116024820152702ab739bab83837b93a32b2103a37b5b2b760791b60448201526064015b60405180910390fd5b60008a116102cb5760405162461bcd60e51b81526020600482015260126024820152710416d6f756e74206d757374206265203e20360741b604482015260640161027d565b8761030c5760405162461bcd60e51b8152602060048201526011602482015270125b9d985b1a59081c9958da5c1a595b9d607a1b604482015260640161027d565b8161034e5760405162461bcd60e51b8152602060048201526012602482015271121bdbdac819185d18481c995c5d5a5c995960721b604482015260640161027d565b6103836001600160a01b037f00000000000000000000000000000000000000000000000000000000000000001633308d610909565b604051630852cd8d60e31b8152600481018b90527f00000000000000000000000000000000000000000000000000000000000000006001600160a01b0316906342966c6890602401600060405180830381600087803b1580156103e557600080fd5b505af11580156103f9573d6000803e3d6000fd5b5050600080546001600160401b031692509050806104168361104e565b91906101000a8154816001600160401b0302191690836001600160401b0316021790555090506104838987838a8c8f8b8b8b8b8080601f01602080910402602001604051908101604052809392919081815260200183838082843760009201919091525061096992505050565b9998505050505050505050565b60007f00000000000000000000000000000000000000000000000000000000000000006001600160a01b0316856001600160a01b0316146105075760405162461bcd60e51b81526020600482015260116024820152702ab739bab83837b93a32b2103a37b5b2b760791b604482015260640161027d565b6000881161054c5760405162461bcd60e51b81526020600482015260126024820152710416d6f756e74206d757374206265203e20360741b604482015260640161027d565b8561058d5760405162461bcd60e51b8152602060048201526011602482015270125b9d985b1a59081c9958da5c1a595b9d607a1b604482015260640161027d565b6105c26001600160a01b037f00000000000000000000000000000000000000000000000000000000000000001633308b610909565b604051630852cd8d60e31b8152600481018990527f00000000000000000000000000000000000000000000000000000000000000006001600160a01b0316906342966c6890602401600060405180830381600087803b15801561062457600080fd5b505af1158015610638573d6000803e3d6000fd5b5050600080546001600160401b031692509050806106558361104e565b91906101000a8154816001600160401b0302191690836001600160401b03160217905550905061069b878583888a8d898960405180602001604052806000815250610969565b979650505050505050565b6000336001600160a01b037f000000000000000000000000000000000000000000000000000000000000000016146107205760405162461bcd60e51b815260206004820152601760248201527f4f6e6c79204d6573736167655472616e736d6974746572000000000000000000604482015260640161027d565b600080600061072f8686610a1b565b9194509250905060006107428385611074565b905060006107508888610b2a565b90506000816040516340c10f1960e01b81526001600160a01b038083166004830152602482018690529192507f0000000000000000000000000000000000000000000000000000000000000000909116906340c10f1990604401600060405180830381600087803b1580156107c457600080fd5b505af11580156107d8573d6000803e3d6000fd5b50505050803b151580156107ed575060008451115b156108f7576107d063ffffffff8b161061087e576040516311cffb6760e01b81526001600160a01b038216906311cffb6790610835908f908f908f908f908f90600401611087565b6020604051808303816000875af1158015610854573d6000803e3d6000fd5b505050506040513d601f19601f8201168201806040525081019061087891906110d8565b506108f7565b604051637c92f21960e01b81526001600160a01b03821690637c92f219906108b2908f908f908f908f908f90600401611087565b6020604051808303816000875af11580156108d1573d6000803e3d6000fd5b505050506040513d601f19601f820116820180604052508101906108f591906110d8565b505b5060019b9a5050505050505050505050565b604080516001600160a01b0385811660248301528416604482015260648082018490528251808303909101815260849091019091526020810180516001600160e01b03166323b872dd60e01b179052610963908590610bab565b50505050565b63ffffffff8916600090815260016020526040908190205490516328cd598b60e01b81526001600160a01b037f000000000000000000000000000000000000000000000000000000000000000016916328cd598b916109de918d918d908d908d908d908d9033908e908e908e90600401611151565b600060405180830381600087803b1580156109f857600080fd5b505af1158015610a0c573d6000803e3d6000fd5b50505050505050505050505050565b600080606060e4841015610a715760405162461bcd60e51b815260206004820181905260248201527f4275726e4d65737361676556323a206d65737361676520746f6f2073686f7274604482015260640161027d565b84604485610a808260206111d1565b92610a8d939291906111e4565b610a969161120e565b92508460a485610aa78260206111d1565b92610ab4939291906111e4565b610abd9161120e565b915060e4841115610b1257610ad58460e481886111e4565b8080601f016020809104026020016040519081016040528093929190818152602001838380828437600092019190915250929350610b2392505050565b506040805160208101909152600081525b9250925092565b600060e4821015610b7d5760405162461bcd60e51b815260206004820181905260248201527f4275726e4d65737361676556323a206d65737361676520746f6f2073686f7274604482015260640161027d565b82602483610b8c8260206111d1565b92610b99939291906111e4565b610ba29161120e565b90505b92915050565b6000610c00826040518060400160405280602081526020017f5361666545524332303a206c6f772d6c6576656c2063616c6c206661696c6564815250856001600160a01b0316610c859092919063ffffffff16565b9050805160001480610c21575080806020019051810190610c2191906110d8565b610c805760405162461bcd60e51b815260206004820152602a60248201527f5361666545524332303a204552433230206f7065726174696f6e20646964206e6044820152691bdd081cdd58d8d9595960b21b606482015260840161027d565b505050565b6060610c948484600085610c9c565b949350505050565b606082471015610cfd5760405162461bcd60e51b815260206004820152602660248201527f416464726573733a20696e73756666696369656e742062616c616e636520666f6044820152651c8818d85b1b60d21b606482015260840161027d565b600080866001600160a01b03168587604051610d19919061122c565b60006040518083038185875af1925050503d8060008114610d56576040519150601f19603f3d011682016040523d82523d6000602084013e610d5b565b606091505b509150915061069b8783838760608315610dd6578251600003610dcf576001600160a01b0385163b610dcf5760405162461bcd60e51b815260206004820152601d60248201527f416464726573733a2063616c6c20746f206e6f6e2d636f6e7472616374000000604482015260640161027d565b5081610c94565b610c948383815115610deb5781518083602001fd5b8060405162461bcd60e51b815260040161027d9190611248565b803563ffffffff81168114610e1957600080fd5b919050565b60008060408385031215610e3157600080fd5b610e3a83610e05565b946020939093013593505050565b80356001600160a01b0381168114610e1957600080fd5b60008083601f840112610e7157600080fd5b5081356001600160401b03811115610e8857600080fd5b602083019150836020828501011115610ea057600080fd5b9250929050565b60008060008060008060008060006101008a8c031215610ec657600080fd5b89359850610ed660208b01610e05565b975060408a01359650610eeb60608b01610e48565b955060808a0135945060a08a01359350610f0760c08b01610e05565b925060e08a01356001600160401b03811115610f2257600080fd5b610f2e8c828d01610e5f565b915080935050809150509295985092959850929598565b600060208284031215610f5757600080fd5b610ba282610e05565b600080600080600080600060e0888a031215610f7b57600080fd5b87359650610f8b60208901610e05565b955060408801359450610fa060608901610e48565b93506080880135925060a08801359150610fbc60c08901610e05565b905092959891949750929550565b600080600080600060808688031215610fe257600080fd5b610feb86610e05565b94506020860135935061100060408701610e05565b925060608601356001600160401b0381111561101b57600080fd5b61102788828901610e5f565b969995985093965092949392505050565b634e487b7160e01b600052601160045260246000fd5b60006001600160401b0380831681810361106a5761106a611038565b6001019392505050565b81810381811115610ba557610ba5611038565b600063ffffffff808816835286602084015280861660408401525060806060830152826080830152828460a0840137600060a0848401015260a0601f19601f85011683010190509695505050505050565b6000602082840312156110ea57600080fd5b815180151581146110fa57600080fd5b9392505050565b60005b8381101561111c578181015183820152602001611104565b50506000910152565b6000815180845261113d816020860160208601611101565b601f01601f19169290920160200192915050565b600061016063ffffffff808f1684528d60208501528c60408501526001600160401b038c16606085015260018060a01b038b1660808501528960a08501528860c08501528760e08501528661010085015280861661012085015250806101408401526111bf81840185611125565b9e9d5050505050505050505050505050565b80820180821115610ba557610ba5611038565b600080858511156111f457600080fd5b8386111561120157600080fd5b5050820193919092039150565b80356020831015610ba557600019602084900360031b1b1692915050565b6000825161123e818460208701611101565b9190910192915050565b602081526000610ba2602083018461112556fea2646970667358221220c8119911889adb75c4a7b43719893ccb8ebcc5aac7fbb95fa1111c15e3296ff264736f6c63430008110033",
  "linkReferences": {},
  "deployedLinkReferences": {}
}