{
  "_format": "hh-sol-artifact-1",
  "contractName": "MockMessageTransmitterV2",
  "sourceName": "contracts/cctp/MockCCTPV2.sol",
  "abi": [
    {
      "inputs": [
        {
          "internalType": "uint32",
          "name": "_localDomain",
          "type": "uint32"
        },
        {
          "internalType": "address",
          "name": "_relayer",
          "type": "address"
        }
      ],
      "stateMutability": "nonpayable",
      "type": "constructor"
    },
    {
      "anonymous": false,
      "inputs": [
        {
          "indexed": true,
          "internalType": "uint64",
          "name": "nonce",
          "type": "uint64"
        },
        {
          "indexed": true,
          "internalType": "uint32",
          "name": "sourceDomain",
          "type": "uint32"
        },
        {
          "indexed": true,
          "internalType": "bytes32",
          "name": "sender",
          "type": "bytes32"
        },
        {
          "indexed": false,
          "internalType": "uint32",
          "name": "finalityThresholdExecuted",
          "type": "uint32"
        }
      ],
      "name": "MessageReceived",
      "type": "event"
    },
    {
      "anonymous": false,
      "inputs": [
        {
          "indexed": true,
          "internalType": "uint64",
          "name": "nonce",
          "type": "uint64"
        },
        {
          "indexed": true,
          "internalType": "uint32",
          "name": "sourceDomain",
          "type": "uint32"
        },
        {
          "indexed": true,
          "internalType": "uint32",
          "name": "destinationDomain",
          "type": "uint32"
        },
        {
          "indexed": false,
          "internalType": "bytes32",
          "name": "sender",
          "type": "bytes32"
        },
        {
          "indexed": false,
          "internalType": "bytes32",
          "name": "recipient",
          "type": "bytes32"
        },
        {
          "indexed": false,
          "internalType": "bytes32",
          "name": "destinationCaller",
          "type": "bytes32"
        },
        {
          "indexed": false,
          "internalType": "uint32",
          "name": "minFinalityThreshold",
          "type": "uint32"
        },
        {
          "indexed": false,
          "internalType": "bytes",
          "name": "messageBody",
          "type": "bytes"
        }
      ],
      "name": "MessageSent",
      "type": "event"
    },
    {
      "inputs": [],
      "name": "localDomain",
      "outputs": [
        {
          "internalType": "uint32",
          "name": "",
          "type": "uint32"
        }
      ],
      "stateMutability": "view",
      "type": "function"
    },
    {
      "inputs": [],
      "name": "nextMessageNonce",
      "outputs": [
        {
          "internalType": "uint64",
          "name": "",
          "type": "uint64"
        }
      ],
      "stateMutability": "view",
      "type": "function"
    },
    {
      "inputs": [
        {
          "internalType": "bytes",
          "name": "message",
          "type": "bytes"
        },
        {
          "internalType": "bytes",
          "name": "attestation",
          "type": "bytes"
        }
      ],
      "name": "receiveMessage",
      "outputs": [
        {
          "internalType": "bool",
          "name": "success",
          "type": "bool"
        }
      ],
      "stateMutability": "nonpayable",
      "type": "function"
    },
    {
      "inputs": [],
      "name": "relayer",
      "outputs": [
        {
          "internalType": "address",
          "name": "",
          "type": "address"
        }
      ],
      "stateMutability": "view",
      "type": "function"
    },
    {
      "inputs": [
        {
          "internalType": "uint32",
          "name": "destinationDomain",
          "type": "uint32"
        },
        {
          "internalType": "bytes32",
          "name": "destinationTokenMessenger",
          "type": "bytes32"
        },
        {
          "internalType": "bytes32",
          "name": "destinationCaller",
          "type": "bytes32"
        },
        {
          "internalType": "uint64",
          "name": "burnNonce",
          "type": "uint64"
        },
        {
          "internalType": "address",
          "name": "burnToken",
          "type": "address"
        },
        {
          "internalType": "bytes32",
          "name": "mintRecipient",
          "type": "bytes32"
        },
        {
          "internalType": "uint256",
          "name": "amount",
          "type": "uint256"
        },
        {
          "internalType": "bytes32",
          "name": "messageSender",
          "type": "bytes32"
        },
        {
          "internalType": "uint256",
          "name": "maxFee",
          "type": "uint256"
        },
        {
          "internalType": "uint32",
          "name": "minFinalityThreshold",
          "type": "uint32"
        },
        {
          "internalType": "bytes",
          "name": "hookData",
          "type": "bytes"
        }
      ],
      "name": "sendMessageForBurn",
      "outputs": [],
      "stateMutability": "nonpayable",
      "type": "function"
    },
    {
      "inputs": [
        {
          "internalType": "address",
          "name": "_relayer",
          "type": "address"
        }
      ],
      "name": "setRelayer",
      "outputs": [],
      "stateMutability": "nonpayable",
      "type": "function"
    },
    {
      "inputs": [
        {
          "internalType": "address",
          "name": "_tokenMessenger",
          "type": "address"
        }
      ],
      "name": "setTokenMessenger",
      "outputs": [],
      "stateMutability": "nonpayable",
      "type": "function"
    },
    {
      "inputs": [],
      "name": "tokenMessenger",
      "outputs": [
        {
          "internalType": "address",
          "name": "",
          "type": "address"
        }
      ],
      "stateMutability": "view",
      "type": "function"
    },
    {
      "inputs": [
        {
          "internalType": "bytes32",
          "name": "",
          "type": "bytes32"
        }
      ],
      "name": "usedNonces",
      "outputs": [
        {
          "internalType": "bool",
          "name": "",
          "type": "bool"
        }
      ],
      "stateMutability": "view",
      "type": "function"
    }
  ],
  "bytecode": "0x60a060405234801561001057600080fd5b5060405161103e38038061103e83398101604081905261002f9161005f565b63ffffffff91909116608052600180546001600160a01b0319166001600160a01b039092169190911790556100ae565b6000806040838503121561007257600080fd5b825163ffffffff8116811461008657600080fd5b60208401519092506001600160a01b03811681146100a357600080fd5b809150509250929050565b608051610f676100d76000396000818161012b01528181610460015261054a0152610f676000f3fe608060405234801561001057600080fd5b50600436106100935760003560e01c80638406c079116100665780638406c079146101135780638d3638f414610126578063cb3bcaec14610162578063f586384f1461018d578063feb61724146101a057600080fd5b806328cd598b1461009857806346117830146100ad57806357ecfd28146100dd5780636548e9bc14610100575b600080fd5b6100ab6100a6366004610b0e565b6101c3565b005b6000546100c0906001600160a01b031681565b6040516001600160a01b0390911681526020015b60405180910390f35b6100f06100eb366004610c17565b610298565b60405190151581526020016100d4565b6100ab61010e366004610c82565b6102ff565b6001546100c0906001600160a01b031681565b61014d7f000000000000000000000000000000000000000000000000000000000000000081565b60405163ffffffff90911681526020016100d4565b600354610175906001600160401b031681565b6040516001600160401b0390911681526020016100d4565b6100ab61019b366004610c82565b61036a565b6100f06101ae366004610c9d565b60026020526000908152604090205460ff1681565b6000546001600160a01b031633146102185760405162461bcd60e51b815260206004820152601360248201527227b7363c902a37b5b2b726b2b9b9b2b733b2b960691b60448201526064015b60405180910390fd5b60006040518061014001604052808d63ffffffff1681526020018c81526020018b81526020018a6001600160401b03168152602001896001600160a01b031681526020018881526020018781526020018681526020018581526020018463ffffffff16815250905061028a81836103d3565b505050505050505050505050565b6001546000906001600160a01b031633146102ea5760405162461bcd60e51b815260206004820152601260248201527126b7b1b59d1027b7363c903932b630bcb2b960711b604482015260640161020f565b6102f485856104e9565b506001949350505050565b6001546001600160a01b031633146103485760405162461bcd60e51b815260206004820152600c60248201526b27b7363c903932b630bcb2b960a11b604482015260640161020f565b600180546001600160a01b0319166001600160a01b0392909216919091179055565b6000546001600160a01b0316156103b15760405162461bcd60e51b815260206004820152600b60248201526a105b1c9958591e481cd95d60aa1b604482015260640161020f565b600080546001600160a01b0319166001600160a01b0392909216919091179055565b600380546000916001600160401b0390911690826103f083610ccc565b91906101000a8154816001600160401b0302191690836001600160401b031602179055509050600061044d61042f85608001516001600160a01b031690565b8560a001518660c001518760e001518861010001516000808a610802565b845160005491925063ffffffff908116917f0000000000000000000000000000000000000000000000000000000000000000909116906001600160401b038516907f7b521b3a13d6ecf7dadd0f3a3aea563b98897c0f765d5823264f3ae38ac0a541906001600160a01b0316886020015189604001518a6101200151886040516104db959493929190610d16565b60405180910390a450505050565b60016104f58383610843565b63ffffffff16146105485760405162461bcd60e51b815260206004820152601760248201527f496e76616c6964206d6573736167652076657273696f6e000000000000000000604482015260640161020f565b7f000000000000000000000000000000000000000000000000000000000000000063ffffffff166105798383610897565b63ffffffff16146105cc5760405162461bcd60e51b815260206004820152601860248201527f57726f6e672064657374696e6174696f6e20646f6d61696e0000000000000000604482015260640161020f565b60006105d883836108c9565b90508015806105e657503381145b6106325760405162461bcd60e51b815260206004820152601a60248201527f496e76616c69642064657374696e6174696f6e2063616c6c6572000000000000604482015260640161020f565b600061063e8484610918565b9050600061064c8585610949565b6040516001600160e01b031960e085901b1660208201526001600160c01b031960c083901b166024820152909150600090602c0160408051601f1981840301815291815281516020928301206000818152600290935291205490915060ff16156106f85760405162461bcd60e51b815260206004820152601960248201527f4d65737361676520616c72656164792070726f63657373656400000000000000604482015260640161020f565b6000818152600260205260408120805460ff1916600117905561071b878761099b565b9050600061072988886109cd565b60405163ffffffff808316825291925083918716906001600160401b038716907f752b5f3a74a9b23fe6e7af249612df01a4cee70dd7951382f441220b622c931c9060200160405180910390a46000546001600160a01b031663b93184db8684846107948d8d6109ff565b6040518663ffffffff1660e01b81526004016107b4959493929190610d6b565b6020604051808303816000875af11580156107d3573d6000803e3d6000fd5b505050506040513d601f19601f820116820180604052508101906107f79190610dbc565b505050505050505050565b60606001898989898989898960405160200161082699989796959493929190610dde565b604051602081830303815290604052905098975050505050505050565b6000607c8210156108665760405162461bcd60e51b815260040161020f90610e41565b82600083610875826004610e78565b9261088293929190610e8b565b61088b91610eb5565b60e01c90505b92915050565b6000607c8210156108ba5760405162461bcd60e51b815260040161020f90610e41565b82600883610875826004610e78565b6000607c8210156108ec5760405162461bcd60e51b815260040161020f90610e41565b826054836108fb826020610e78565b9261090893929190610e8b565b61091191610ee5565b9392505050565b6000607c82101561093b5760405162461bcd60e51b815260040161020f90610e41565b826004836108758280610e78565b6000607c82101561096c5760405162461bcd60e51b815260040161020f90610e41565b82600c8361097b826008610e78565b9261098893929190610e8b565b61099191610f03565b60c01c9392505050565b6000607c8210156109be5760405162461bcd60e51b815260040161020f90610e41565b826014836108fb826020610e78565b6000607c8210156109f05760405162461bcd60e51b815260040161020f90610e41565b82607883610875826004610e78565b366000607c831015610a235760405162461bcd60e51b815260040161020f90610e41565b610a3083607c8187610e8b565b915091505b9250929050565b803563ffffffff81168114610a5057600080fd5b919050565b80356001600160a01b0381168114610a5057600080fd5b634e487b7160e01b600052604160045260246000fd5b600082601f830112610a9357600080fd5b81356001600160401b0380821115610aad57610aad610a6c565b604051601f8301601f19908116603f01168101908282118183101715610ad557610ad5610a6c565b81604052838152866020858801011115610aee57600080fd5b836020870160208301376000602085830101528094505050505092915050565b60008060008060008060008060008060006101608c8e031215610b3057600080fd5b610b398c610a3c565b9a5060208c0135995060408c0135985060608c01356001600160401b038082168214610b6457600080fd5b819950610b7360808f01610a55565b985060a08e0135975060c08e0135965060e08e013595506101008e01359450610b9f6101208f01610a3c565b93506101408e0135915080821115610bb657600080fd5b50610bc38e828f01610a82565b9150509295989b509295989b9093969950565b60008083601f840112610be857600080fd5b5081356001600160401b03811115610bff57600080fd5b602083019150836020828501011115610a3557600080fd5b60008060008060408587031215610c2d57600080fd5b84356001600160401b0380821115610c4457600080fd5b610c5088838901610bd6565b90965094506020870135915080821115610c6957600080fd5b50610c7687828801610bd6565b95989497509550505050565b600060208284031215610c9457600080fd5b61091182610a55565b600060208284031215610caf57600080fd5b5035919050565b634e487b7160e01b600052601160045260246000fd5b60006001600160401b03808316818103610ce857610ce8610cb6565b6001019392505050565b60005b83811015610d0d578181015183820152602001610cf5565b50506000910152565b85815284602082015283604082015263ffffffff8316606082015260a06080820152600082518060a0840152610d538160c0850160208701610cf2565b601f01601f19169190910160c0019695505050505050565b600063ffffffff808816835286602084015280861660408401525060806060830152826080830152828460a0840137600060a0848401015260a0601f19601f85011683010190509695505050505050565b600060208284031215610dce57600080fd5b8151801515811461091157600080fd5b63ffffffff60e01b8a60e01b1681528860048201528760248201528660448201528560648201528460848201528360a48201528260c482015260008251610e2c8160e4850160208701610cf2565b9190910160e4019a9950505050505050505050565b6020808252601c908201527f4d65737361676556323a206d65737361676520746f6f2073686f727400000000604082015260600190565b8082018082111561089157610891610cb6565b60008085851115610e9b57600080fd5b83861115610ea857600080fd5b5050820193919092039150565b6001600160e01b03198135818116916004851015610edd5780818660040360031b1b83161692505b505092915050565b8035602083101561089157600019602084900360031b1b1692915050565b6001600160c01b03198135818116916008851015610edd5760089490940360031b84901b169092169291505056fea26469706673582212204e89c6a29c16efd7023ad11887b2e2131f01363e13d2e0f707623ec7a1c33e6364736f6c63430008110033",
  "linkReferences": {},
  "deployedLinkReferences": {}
}