{
  "_format": "hh-sol-artifact-1",
  "contractName": "MockTokenMessengerV2",
  "sourceName": "contracts/cctp/MockCCTPV2.sol",
  "abi": [
    {
      "inputs": [
        {
          "internalType": "address",
          "name": "_messageTransmitter",
          "type": "address"
        },
        {
          "internalType": "address",
          "name": "_usdc",
          "type": "address"
        },
        {
          "internalType": "uint32",
          "name": "_localDomain",
          "type": "uint32"
        }
      ],
      "stateMutability": "nonpayable",
      "type": "constructor"
    },
    {
      "inputs": [
        {
          "internalType": "uint256",
          "name": "amount",
          "type": "uint256"
        },
        {
          "internalType": "uint32",
          "name": "destinationDomain",
          "type": "uint32"
        },
        {
          "internalType": "bytes32",
          "name": "mintRecipient",
          "type": "bytes32"
        },
        {
          "internalType": "address",
          "name": "burnToken",
          "type": "address"
        },
        {
          "internalType": "bytes32",
          "name": "destinationCaller",
          "type": "bytes32"
        },
        {
          "internalType": "uint256",
          "name": "maxFee",
          "type": "uint256"
        },
        {
          "internalType": "uint32",
          "name": "minFinalityThreshold",
          "type": "uint32"
        }
      ],
      "name": "depositForBurn",
      "outputs": [
        {
          "internalType": "uint64",
          "name": "nonce",
          "type": "uint64"
        }
      ],
      "stateMutability": "nonpayable",
      "type": "function"
    },
    {
      "inputs": [
        {
          "internalType": "uint256",
          "name": "amount",
          "type": "uint256"
        },
        {
          "internalType": "uint32",
          "name": "destinationDomain",
          "type": "uint32"
        },
        {
          "internalType": "bytes32",
          "name": "mintRecipient",
          "type": "bytes32"
        },
        {
          "internalType": "address",
          "name": "burnToken",
          "type": "address"
        },
        {
          "internalType": "bytes32",
          "name": "destinationCaller",
          "type": "bytes32"
        },
        {
          "internalType": "uint256",
          "name": "maxFee",
          "type": "uint256"
        },
        {
          "internalType": "uint32",
          "name": "minFinalityThreshold",
          "type": "uint32"
        },
        {
          "internalType": "bytes",
          "name": "hookData",
          "type": "bytes"
        }
      ],
      "name": "depositForBurnWithHook",
      "outputs": [
        {
          "internalType": "uint64",
          "name": "nonce",
          "type": "uint64"
        }
      ],
      "stateMutability": "nonpayable",
      "type": "function"
    },
    {
      "inputs": [
        {
          "internalType": "uint32",
          "name": "sourceDomain",
          "type": "uint32"
        },
        {
          "internalType": "bytes32",
          "name": "sender",
          "type": "bytes32"
        },
        {
          "internalType": "uint32",
          "name": "finalityThresholdExecuted",
          "type": "uint32"
        },
        {
          "internalType": "bytes",
          "name": "messageBody",
          "type": "bytes"
        },
        {
          "internalType": "address",
          "name": "relayerAddress",
          "type": "address"
        }
      ],
      "name": "handleReceiveMessage",
      "outputs": [
        {
          "internalType": "bool",
          "name": "",
          "type": "bool"
        }
      ],
      "stateMutability": "nonpayable",
      "type": "function"
    },
    {
      "inputs": [],
      "name": "localDomain",
      "outputs": [
        {
          "internalType": "uint32",
          "name": "",
          "type": "uint32"
        }
      ],
      "stateMutability": "view",
      "type": "function"
    },
    {
      "inputs": [],
      "name": "messageTransmitter",
      "outputs": [
        {
          "internalType": "address",
          "name": "",
          "type": "address"
        }
      ],
      "stateMutability": "view",
      "type": "function"
    },
    {
      "inputs": [],
      "name": "nextNonce",
      "outputs": [
        {
          "internalType": "uint64",
          "name": "",
          "type": "uint64"
        }
      ],
      "stateMutability": "view",
      "type": "function"
    },
    {
      "inputs": [
        {
          "internalType": "uint32",
          "name": "",
          "type": "uint32"
        }
      ],
      "name": "remoteTokenMessengers",
      "outputs": [
        {
          "internalType": "bytes32",
          "name": "",
          "type": "bytes32"
        }
      ],
      "stateMutability": "view",
      "type": "function"
    },
    {
      "inputs": [
        {
          "internalType": "uint32",
          "name": "domain",
          "type": "uint32"
        },
        {
          "internalType": "bytes32",
          "name": "tokenMessenger",
          "type": "bytes32"
        }
      ],
      "name": "setRemoteTokenMessenger",
      "outputs": [],
      "stateMutability": "nonpayable",
      "type": "function"
    },
    {
      "inputs": [],
      "name": "usdc",
      "outputs": [
        {
          "internalType": "address",
          "name": "",
          "type": "address"
        }
      ],
      "stateMutability": "view",
      "type": "function"
    }
  ],
  "bytecode": "0x60e060405234801561001057600080fd5b5060405161147038038061147083398101604081905261002f9161006c565b6001600160a01b03928316608052911660a05263ffffffff1660c0526100bc565b80516001600160a01b038116811461006757600080fd5b919050565b60008060006060848603121561008157600080fd5b61008a84610050565b925061009860208501610050565b9150604084015163ffffffff811681146100b157600080fd5b809150509250925092565b60805160a05160c05161134061013060003960006101ac01526000818160c4015281816102e601528181610387015281816105160152818161065e0152818161069c015281816107970152818161089d01526108db015260008181610157015281816102160152610bc701526113406000f3fe608060405234801561001057600080fd5b50600436106100925760003560e01c80637b04c181116100665780637b04c1811461015257806382a5e665146101795780638d3638f4146101a75780638e0250ee146101e3578063d69c3d30146101f657600080fd5b80620430db146100975780633e413bee146100bf5780636b51d203146100fe578063779b432d14610127575b600080fd5b6100aa6100a5366004610f1d565b610209565b60405190151581526020015b60405180910390f35b6100e67f000000000000000000000000000000000000000000000000000000000000000081565b6040516001600160a01b0390911681526020016100b6565b61012561010c366004610f9a565b63ffffffff909116600090815260016020526040902055565b005b61013a610135366004610fc4565b610512565b6040516001600160401b0390911681526020016100b6565b6100e67f000000000000000000000000000000000000000000000000000000000000000081565b610199610187366004611062565b60016020526000908152604090205481565b6040519081526020016100b6565b6101ce7f000000000000000000000000000000000000000000000000000000000000000081565b60405163ffffffff90911681526020016100b6565b61013a6101f136600461107d565b610793565b60005461013a906001600160401b031681565b6000336001600160a01b037f000000000000000000000000000000000000000000000000000000000000000016146102885760405162461bcd60e51b815260206004820152601760248201527f4f6e6c79204d6573736167655472616e736d697474657200000000000000000060448201526064015b60405180910390fd5b600080600061029787876109a9565b9194509250905060006102aa83856110fd565b905060006102b88989610ab8565b90506000816040516340c10f1960e01b81526001600160a01b038083166004830152602482018690529192507f0000000000000000000000000000000000000000000000000000000000000000909116906340c10f1990604401600060405180830381600087803b15801561032c57600080fd5b505af1158015610340573d6000803e3d6000fd5b5050505060008511801561035c57506001600160a01b03881615155b156103e4576040516340c10f1960e01b81526001600160a01b038981166004830152602482018790527f000000000000000000000000000000000000000000000000000000000000000016906340c10f1990604401600060405180830381600087803b1580156103cb57600080fd5b505af11580156103df573d6000803e3d6000fd5b505050505b803b151580156103f5575060008451115b156104ff576107d063ffffffff8c161061048657806001600160a01b03166311cffb678e8e8e8e8e6040518663ffffffff1660e01b815260040161043d959493929190611110565b6020604051808303816000875af115801561045c573d6000803e3d6000fd5b505050506040513d601f19601f820116820180604052508101906104809190611161565b506104ff565b806001600160a01b0316637c92f2198e8e8e8e8e6040518663ffffffff1660e01b81526004016104ba959493929190611110565b6020604051808303816000875af11580156104d9573d6000803e3d6000fd5b505050506040513d601f19601f820116820180604052508101906104fd9190611161565b505b5060019c9b505050505050505050505050565b60007f00000000000000000000000000000000000000000000000000000000000000006001600160a01b0316876001600160a01b0316146105895760405162461bcd60e51b81526020600482015260116024820152702ab739bab83837b93a32b2103a37b5b2b760791b604482015260640161027f565b60008a116105ce5760405162461bcd60e51b81526020600482015260126024820152710416d6f756e74206d757374206265203e20360741b604482015260640161027f565b8761060f5760405162461bcd60e51b8152602060048201526011602482015270125b9d985b1a59081c9958da5c1a595b9d607a1b604482015260640161027f565b816106515760405162461bcd60e51b8152602060048201526012602482015271121bdbdac819185d18481c995c5d5a5c995960721b604482015260640161027f565b6106866001600160a01b037f00000000000000000000000000000000000000000000000000000000000000001633308d610b39565b604051630852cd8d60e31b8152600481018b90527f00000000000000000000000000000000000000000000000000000000000000006001600160a01b0316906342966c6890602401600060405180830381600087803b1580156106e857600080fd5b505af11580156106fc573d6000803e3d6000fd5b5050600080546001600160401b031692509050806107198361118a565b91906101000a8154816001600160401b0302191690836001600160401b0316021790555090506107868987838a8c8f8b8b8b8b8080601f016020809104026020016040519081016040528093929190818152602001838380828437600092019190915250610b9992505050565b9998505050505050505050565b60007f00000000000000000000000000000000000000000000000000000000000000006001600160a01b0316856001600160a01b03161461080a5760405162461bcd60e51b81526020600482015260116024820152702ab739bab83837b93a32b2103a37b5b2b760791b604482015260640161027f565b6000881161084f5760405162461bcd60e51b81526020600482015260126024820152710416d6f756e74206d757374206265203e20360741b604482015260640161027f565b856108905760405162461bcd60e51b8152602060048201526011602482015270125b9d985b1a59081c9958da5c1a595b9d607a1b604482015260640161027f565b6108c56001600160a01b037f00000000000000000000000000000000000000000000000000000000000000001633308b610b39565b604051630852cd8d60e31b8152600481018990527f00000000000000000000000000000000000000000000000000000000000000006001600160a01b0316906342966c6890602401600060405180830381600087803b15801561092757600080fd5b505af115801561093b573d6000803e3d6000fd5b5050600080546001600160401b031692509050806109588361118a565b91906101000a8154816001600160401b0302191690836001600160401b03160217905550905061099e878583888a8d898960405180602001604052806000815250610b99565b979650505050505050565b600080606060e48410156109ff5760405162461bcd60e51b815260206004820181905260248201527f4275726e4d65737361676556323a206d65737361676520746f6f2073686f7274604482015260640161027f565b84604485610a0e8260206111b0565b92610a1b939291906111c3565b610a24916111ed565b92508460a485610a358260206111b0565b92610a42939291906111c3565b610a4b916111ed565b915060e4841115610aa057610a638460e481886111c3565b8080601f016020809104026020016040519081016040528093929190818152602001838380828437600092019190915250929350610ab192505050565b506040805160208101909152600081525b9250925092565b600060e4821015610b0b5760405162461bcd60e51b815260206004820181905260248201527f4275726e4d65737361676556323a206d65737361676520746f6f2073686f7274604482015260640161027f565b82602483610b1a8260206111b0565b92610b27939291906111c3565b610b30916111ed565b90505b92915050565b604080516001600160a01b0385811660248301528416604482015260648082018490528251808303909101815260849091019091526020810180516001600160e01b03166323b872dd60e01b179052610b93908590610c4b565b50505050565b63ffffffff8916600090815260016020526040908190205490516328cd598b60e01b81526001600160a01b037f000000000000000000000000000000000000000000000000000000000000000016916328cd598b91610c0e918d918d908d908d908d908d9033908e908e908e9060040161125b565b600060405180830381600087803b158015610c2857600080fd5b505af1158015610c3c573d6000803e3d6000fd5b50505050505050505050505050565b6000610ca0826040518060400160405280602081526020017f5361666545524332303a206c6f772d6c6576656c2063616c6c206661696c6564815250856001600160a01b0316610d259092919063ffffffff16565b9050805160001480610cc1575080806020019051810190610cc19190611161565b610d205760405162461bcd60e51b815260206004820152602a60248201527f5361666545524332303a204552433230206f7065726174696f6e20646964206e6044820152691bdd081cdd58d8d9595960b21b606482015260840161027f565b505050565b6060610d348484600085610d3c565b949350505050565b606082471015610d9d5760405162461bcd60e51b815260206004820152602660248201527f416464726573733a20696e73756666696369656e742062616c616e636520666f6044820152651c8818d85b1b60d21b606482015260840161027f565b600080866001600160a01b03168587604051610db991906112db565b60006040518083038185875af1925050503d8060008114610df6576040519150601f19603f3d011682016040523d82523d6000602084013e610dfb565b606091505b509150915061099e8783838760608315610e76578251600003610e6f576001600160a01b0385163b610e6f5760405162461bcd60e51b815260206004820152601d60248201527f416464726573733a2063616c6c20746f206e6f6e2d636f6e7472616374000000604482015260640161027f565b5081610d34565b610d348383815115610e8b5781518083602001fd5b8060405162461bcd60e51b815260040161027f91906112f7565b803563ffffffff81168114610eb957600080fd5b919050565b60008083601f840112610ed057600080fd5b5081356001600160401b03811115610ee757600080fd5b602083019150836020828501011115610eff57600080fd5b9250929050565b80356001600160a01b0381168114610eb957600080fd5b60008060008060008060a08789031215610f3657600080fd5b610f3f87610ea5565b955060208701359450610f5460408801610ea5565b935060608701356001600160401b03811115610f6f57600080fd5b610f7b89828a01610ebe565b9094509250610f8e905060808801610f06565b90509295509295509295565b60008060408385031215610fad57600080fd5b610fb683610ea5565b946020939093013593505050565b60008060008060008060008060006101008a8c031215610fe357600080fd5b89359850610ff360208b01610ea5565b975060408a0135965061100860608b01610f06565b955060808a0135945060a08a0135935061102460c08b01610ea5565b925060e08a01356001600160401b0381111561103f57600080fd5b61104b8c828d01610ebe565b915080935050809150509295985092959850929598565b60006020828403121561107457600080fd5b610b3082610ea5565b600080600080600080600060e0888a03121561109857600080fd5b873596506110a860208901610ea5565b9550604088013594506110bd60608901610f06565b93506080880135925060a088013591506110d960c08901610ea5565b905092959891949750929550565b634e487b7160e01b600052601160045260246000fd5b81810381811115610b3357610b336110e7565b600063ffffffff808816835286602084015280861660408401525060806060830152826080830152828460a0840137600060a0848401015260a0601f19601f85011683010190509695505050505050565b60006020828403121561117357600080fd5b8151801515811461118357600080fd5b9392505050565b60006001600160401b038083168181036111a6576111a66110e7565b6001019392505050565b80820180821115610b3357610b336110e7565b600080858511156111d357600080fd5b838611156111e057600080fd5b5050820193919092039150565b80356020831015610b3357600019602084900360031b1b1692915050565b60005b8381101561122657818101518382015260200161120e565b50506000910152565b6000815180845261124781602086016020860161120b565b601f01601f19169290920160200192915050565b600061016063ffffffff808f1684528d60208501528c60408501526001600160401b038c16606085015260018060a01b038b1660808501528960a08501528860c08501528760e08501528661010085015280861661012085015250806101408401526112c98184018561122f565b9e9d5050505050505050505050505050565b600082516112ed81846020870161120b565b9190910192915050565b602081526000610b30602083018461122f56fea2646970667358221220db74ea832ff27a57a22452eb554f81ed62421dd1e57a8ab7d62e1e864c30dc1164736f6c63430008110033",
  "linkReferences": {},
  "deployedLinkReferences": {}
}