{"abi":[{"type":"function","name":"ZERO_VALUE","inputs":[],"outputs":[{"name":"","type":"bytes32","internalType":"bytes32"}],"stateMutability":"view"},{"type":"function","name":"getVerificationKey","inputs":[{"name":"_nullifiers","type":"uint256","internalType":"uint256"},{"name":"_commitments","type":"uint256","internalType":"uint256"}],"outputs":[{"name":"","type":"tuple","internalType":"struct VerifyingKey","components":[{"name":"artifactsIPFSHash","type":"string","internalType":"string"},{"name":"alpha1","type":"tuple","internalType":"struct G1Point","components":[{"name":"x","type":"uint256","internalType":"uint256"},{"name":"y","type":"uint256","internalType":"uint256"}]},{"name":"beta2","type":"tuple","internalType":"struct G2Point","components":[{"name":"x","type":"uint256[2]","internalType":"uint256[2]"},{"name":"y","type":"uint256[2]","internalType":"uint256[2]"}]},{"name":"gamma2","type":"tuple","internalType":"struct G2Point","components":[{"name":"x","type":"uint256[2]","internalType":"uint256[2]"},{"name":"y","type":"uint256[2]","internalType":"uint256[2]"}]},{"name":"delta2","type":"tuple","internalType":"struct G2Point","components":[{"name":"x","type":"uint256[2]","internalType":"uint256[2]"},{"name":"y","type":"uint256[2]","internalType":"uint256[2]"}]},{"name":"ic","type":"tuple[]","internalType":"struct G1Point[]","components":[{"name":"x","type":"uint256","internalType":"uint256"},{"name":"y","type":"uint256","internalType":"uint256"}]}]}],"stateMutability":"view"},{"type":"function","name":"hashBoundParams","inputs":[{"name":"_boundParams","type":"tuple","internalType":"struct BoundParams","components":[{"name":"treeNumber","type":"uint16","internalType":"uint16"},{"name":"minGasPrice","type":"uint72","internalType":"uint72"},{"name":"unshield","type":"uint8","internalType":"enum UnshieldType"},{"name":"chainID","type":"uint64","internalType":"uint64"},{"name":"adaptContract","type":"address","internalType":"address"},{"name":"adaptParams","type":"bytes32","internalType":"bytes32"},{"name":"commitmentCiphertext","type":"tuple[]","internalType":"struct CommitmentCiphertext[]","components":[{"name":"ciphertext","type":"bytes32[4]","internalType":"bytes32[4]"},{"name":"blindedSenderViewingKey","type":"bytes32","internalType":"bytes32"},{"name":"blindedReceiverViewingKey","type":"bytes32","internalType":"bytes32"},{"name":"annotationData","type":"bytes","internalType":"bytes"},{"name":"memo","type":"bytes","internalType":"bytes"}]}]}],"outputs":[{"name":"","type":"uint256","internalType":"uint256"}],"stateMutability":"pure"},{"type":"function","name":"initialized","inputs":[],"outputs":[{"name":"","type":"bool","internalType":"bool"}],"stateMutability":"view"},{"type":"function","name":"lastEventBlock","inputs":[],"outputs":[{"name":"","type":"uint256","internalType":"uint256"}],"stateMutability":"view"},{"type":"function","name":"localDomain","inputs":[],"outputs":[{"name":"","type":"uint32","internalType":"uint32"}],"stateMutability":"view"},{"type":"function","name":"merkleModule","inputs":[],"outputs":[{"name":"","type":"address","internalType":"address"}],"stateMutability":"view"},{"type":"function","name":"merkleRoot","inputs":[],"outputs":[{"name":"","type":"bytes32","internalType":"bytes32"}],"stateMutability":"view"},{"type":"function","name":"messageTransmitter","inputs":[],"outputs":[{"name":"","type":"address","internalType":"address"}],"stateMutability":"view"},{"type":"function","name":"nextLeafIndex","inputs":[],"outputs":[{"name":"","type":"uint256","internalType":"uint256"}],"stateMutability":"view"},{"type":"function","name":"nftFee","inputs":[],"outputs":[{"name":"","type":"uint120","internalType":"uint120"}],"stateMutability":"view"},{"type":"function","name":"nullifiers","inputs":[{"name":"","type":"uint256","internalType":"uint256"},{"name":"","type":"bytes32","internalType":"bytes32"}],"outputs":[{"name":"","type":"bool","internalType":"bool"}],"stateMutability":"view"},{"type":"function","name":"owner","inputs":[],"outputs":[{"name":"","type":"address","internalType":"address"}],"stateMutability":"view"},{"type":"function","name":"privilegedShieldCallers","inputs":[{"name":"","type":"address","internalType":"address"}],"outputs":[{"name":"","type":"bool","internalType":"bool"}],"stateMutability":"view"},{"type":"function","name":"remotePools","inputs":[{"name":"","type":"uint32","internalType":"uint32"}],"outputs":[{"name":"","type":"bytes32","internalType":"bytes32"}],"stateMutability":"view"},{"type":"function","name":"rootHistory","inputs":[{"name":"","type":"uint256","internalType":"uint256"},{"name":"","type":"bytes32","internalType":"bytes32"}],"outputs":[{"name":"","type":"bool","internalType":"bool"}],"stateMutability":"view"},{"type":"function","name":"setTestingMode","inputs":[{"name":"_enabled","type":"bool","internalType":"bool"}],"outputs":[],"stateMutability":"nonpayable"},{"type":"function","name":"setVerificationKey","inputs":[{"name":"_nullifiers","type":"uint256","internalType":"uint256"},{"name":"_commitments","type":"uint256","internalType":"uint256"},{"name":"_verifyingKey","type":"tuple","internalType":"struct VerifyingKey","components":[{"name":"artifactsIPFSHash","type":"string","internalType":"string"},{"name":"alpha1","type":"tuple","internalType":"struct G1Point","components":[{"name":"x","type":"uint256","internalType":"uint256"},{"name":"y","type":"uint256","internalType":"uint256"}]},{"name":"beta2","type":"tuple","internalType":"struct G2Point","components":[{"name":"x","type":"uint256[2]","internalType":"uint256[2]"},{"name":"y","type":"uint256[2]","internalType":"uint256[2]"}]},{"name":"gamma2","type":"tuple","internalType":"struct G2Point","components":[{"name":"x","type":"uint256[2]","internalType":"uint256[2]"},{"name":"y","type":"uint256[2]","internalType":"uint256[2]"}]},{"name":"delta2","type":"tuple","internalType":"struct G2Point","components":[{"name":"x","type":"uint256[2]","internalType":"uint256[2]"},{"name":"y","type":"uint256[2]","internalType":"uint256[2]"}]},{"name":"ic","type":"tuple[]","internalType":"struct G1Point[]","components":[{"name":"x","type":"uint256","internalType":"uint256"},{"name":"y","type":"uint256","internalType":"uint256"}]}]}],"outputs":[],"stateMutability":"nonpayable"},{"type":"function","name":"shieldFee","inputs":[],"outputs":[{"name":"","type":"uint120","internalType":"uint120"}],"stateMutability":"view"},{"type":"function","name":"shieldModule","inputs":[],"outputs":[{"name":"","type":"address","internalType":"address"}],"stateMutability":"view"},{"type":"function","name":"snarkSafetyVector","inputs":[{"name":"","type":"uint256","internalType":"uint256"}],"outputs":[{"name":"","type":"bool","internalType":"bool"}],"stateMutability":"view"},{"type":"function","name":"testingMode","inputs":[],"outputs":[{"name":"","type":"bool","internalType":"bool"}],"stateMutability":"view"},{"type":"function","name":"tokenBlocklist","inputs":[{"name":"","type":"address","internalType":"address"}],"outputs":[{"name":"","type":"bool","internalType":"bool"}],"stateMutability":"view"},{"type":"function","name":"tokenIDMapping","inputs":[{"name":"","type":"bytes32","internalType":"bytes32"}],"outputs":[{"name":"tokenType","type":"uint8","internalType":"enum TokenType"},{"name":"tokenAddress","type":"address","internalType":"address"},{"name":"tokenSubID","type":"uint256","internalType":"uint256"}],"stateMutability":"view"},{"type":"function","name":"tokenMessenger","inputs":[],"outputs":[{"name":"","type":"address","internalType":"address"}],"stateMutability":"view"},{"type":"function","name":"transactModule","inputs":[],"outputs":[{"name":"","type":"address","internalType":"address"}],"stateMutability":"view"},{"type":"function","name":"treasury","inputs":[],"outputs":[{"name":"","type":"address","internalType":"address payable"}],"stateMutability":"view"},{"type":"function","name":"treeNumber","inputs":[],"outputs":[{"name":"","type":"uint256","internalType":"uint256"}],"stateMutability":"view"},{"type":"function","name":"unshieldFee","inputs":[],"outputs":[{"name":"","type":"uint120","internalType":"uint120"}],"stateMutability":"view"},{"type":"function","name":"usdc","inputs":[],"outputs":[{"name":"","type":"address","internalType":"address"}],"stateMutability":"view"},{"type":"function","name":"verifierModule","inputs":[],"outputs":[{"name":"","type":"address","internalType":"address"}],"stateMutability":"view"},{"type":"function","name":"verify","inputs":[{"name":"_transaction","type":"tuple","internalType":"struct Transaction","components":[{"name":"proof","type":"tuple","internalType":"struct SnarkProof","components":[{"name":"a","type":"tuple","internalType":"struct G1Point","components":[{"name":"x","type":"uint256","internalType":"uint256"},{"name":"y","type":"uint256","internalType":"uint256"}]},{"name":"b","type":"tuple","internalType":"struct G2Point","components":[{"name":"x","type":"uint256[2]","internalType":"uint256[2]"},{"name":"y","type":"uint256[2]","internalType":"uint256[2]"}]},{"name":"c","type":"tuple","internalType":"struct G1Point","components":[{"name":"x","type":"uint256","internalType":"uint256"},{"name":"y","type":"uint256","internalType":"uint256"}]}]},{"name":"merkleRoot","type":"bytes32","internalType":"bytes32"},{"name":"nullifiers","type":"bytes32[]","internalType":"bytes32[]"},{"name":"commitments","type":"bytes32[]","internalType":"bytes32[]"},{"name":"boundParams","type":"tuple","internalType":"struct BoundParams","components":[{"name":"treeNumber","type":"uint16","internalType":"uint16"},{"name":"minGasPrice","type":"uint72","internalType":"uint72"},{"name":"unshield","type":"uint8","internalType":"enum UnshieldType"},{"name":"chainID","type":"uint64","internalType":"uint64"},{"name":"adaptContract","type":"address","internalType":"address"},{"name":"adaptParams","type":"bytes32","internalType":"bytes32"},{"name":"commitmentCiphertext","type":"tuple[]","internalType":"struct CommitmentCiphertext[]","components":[{"name":"ciphertext","type":"bytes32[4]","internalType":"bytes32[4]"},{"name":"blindedSenderViewingKey","type":"bytes32","internalType":"bytes32"},{"name":"blindedReceiverViewingKey","type":"bytes32","internalType":"bytes32"},{"name":"annotationData","type":"bytes","internalType":"bytes"},{"name":"memo","type":"bytes","internalType":"bytes"}]}]},{"name":"unshieldPreimage","type":"tuple","internalType":"struct CommitmentPreimage","components":[{"name":"npk","type":"bytes32","internalType":"bytes32"},{"name":"token","type":"tuple","internalType":"struct TokenData","components":[{"name":"tokenType","type":"uint8","internalType":"enum TokenType"},{"name":"tokenAddress","type":"address","internalType":"address"},{"name":"tokenSubID","type":"uint256","internalType":"uint256"}]},{"name":"value","type":"uint120","internalType":"uint120"}]}]}],"outputs":[{"name":"","type":"bool","internalType":"bool"}],"stateMutability":"view"},{"type":"function","name":"zeros","inputs":[{"name":"","type":"uint256","internalType":"uint256"}],"outputs":[{"name":"","type":"bytes32","internalType":"bytes32"}],"stateMutability":"view"},{"type":"event","name":"TestingModeSet","inputs":[{"name":"enabled","type":"bool","indexed":false,"internalType":"bool"}],"anonymous":false},{"type":"event","name":"VerifyingKeySet","inputs":[{"name":"nullifiers","type":"uint256","indexed":false,"internalType":"uint256"},{"name":"commitments","type":"uint256","indexed":false,"internalType":"uint256"},{"name":"verifyingKey","type":"tuple","indexed":false,"internalType":"struct VerifyingKey","components":[{"name":"artifactsIPFSHash","type":"string","internalType":"string"},{"name":"alpha1","type":"tuple","internalType":"struct G1Point","components":[{"name":"x","type":"uint256","internalType":"uint256"},{"name":"y","type":"uint256","internalType":"uint256"}]},{"name":"beta2","type":"tuple","internalType":"struct G2Point","components":[{"name":"x","type":"uint256[2]","internalType":"uint256[2]"},{"name":"y","type":"uint256[2]","internalType":"uint256[2]"}]},{"name":"gamma2","type":"tuple","internalType":"struct G2Point","components":[{"name":"x","type":"uint256[2]","internalType":"uint256[2]"},{"name":"y","type":"uint256[2]","internalType":"uint256[2]"}]},{"name":"delta2","type":"tuple","internalType":"struct G2Point","components":[{"name":"x","type":"uint256[2]","internalType":"uint256[2]"},{"name":"y","type":"uint256[2]","internalType":"uint256[2]"}]},{"name":"ic","type":"tuple[]","internalType":"struct G1Point[]","components":[{"name":"x","type":"uint256","internalType":"uint256"},{"name":"y","type":"uint256","internalType":"uint256"}]}]}],"anonymous":false}],"bytecode":{"object":"0x608060405234801561001057600080fd5b5061425f806100206000396000f3fe608060405234801561001057600080fd5b50600436106101fb5760003560e01c8063665033151161011a578063b069b70f116100ad578063cd3efe061161007c578063cd3efe06146105d6578063e8295588146105f4578063ec73295914610624578063ee99078314610642578063f19ea90314610672576101fb565b8063b069b70f14610526578063b8ceaef214610556578063c718dbda14610588578063c8f35b5d146105b8576101fb565b80638d3638f4116100e95780638d3638f4146104ae5780638da5cb5b146104cc5780639071adc0146104ea57806390de3f6e14610508576101fb565b806366503315146104125780637b04c181146104305780637b12ae831461044e578063815b534f1461047e576101fb565b80632ec0f3591161019257806341506fc11161016157806341506fc11461039c57806346117830146103ba578063596d7a68146103d857806361d027b3146103f4576101fb565b80632ec0f3591461031457806330ed93c31461033057806335db307c146103605780633e413bee1461037e576101fb565b8063129458f4116101ce578063129458f414610278578063158ef93e146102a857806328f89c3a146102c65780632eb4a7ab146102f6576101fb565b806301c3779014610200578063048e09901461021e578063053ed12a1461023c5780630be4f4221461025a575b600080fd5b6102086106a2565b6040516102159190611f67565b60405180910390f35b6102266106c3565b6040516102339190611fc3565b60405180910390f35b6102446106e9565b6040516102519190611f67565b60405180910390f35b61026261070a565b60405161026f9190611ff7565b60405180910390f35b610292600480360381019061028d9190612052565b610710565b60405161029f919061209a565b60405180910390f35b6102b0610730565b6040516102bd919061209a565b60405180910390f35b6102e060048036038101906102db91906120d9565b610743565b6040516102ed9190611ff7565b60405180910390f35b6102fe6107a1565b60405161030b919061213b565b60405180910390f35b61032e60048036038101906103299190612176565b6107a7565b005b61034a60048036038101906103459190612221565b6108ab565b604051610357919061213b565b60405180910390f35b6103686108c3565b6040516103759190611fc3565b60405180910390f35b6103866108e7565b6040516103939190611fc3565b60405180910390f35b6103a461090d565b6040516103b19190611fc3565b60405180910390f35b6103c2610933565b6040516103cf9190611fc3565b60405180910390f35b6103f260048036038101906103ed919061227a565b610959565b005b6103fc610a3d565b60405161040991906122c8565b60405180910390f35b61041a610a63565b6040516104279190611ff7565b60405180910390f35b610438610a69565b6040516104459190611fc3565b60405180910390f35b610468600480360381019061046391906122e3565b610a8f565b60405161047591906125fe565b60405180910390f35b6104986004803603810190610493919061264c565b610dd5565b6040516104a5919061209a565b60405180910390f35b6104b6610df5565b6040516104c39190612688565b60405180910390f35b6104d4610e0b565b6040516104e19190611fc3565b60405180910390f35b6104f2610e31565b6040516104ff9190611f67565b60405180910390f35b610510610e52565b60405161051d9190611fc3565b60405180910390f35b610540600480360381019061053b919061264c565b610e78565b60405161054d919061209a565b60405180910390f35b610570600480360381019061056b91906126cf565b610e98565b60405161057f93929190612773565b60405180910390f35b6105a2600480360381019061059d91906127aa565b610eef565b6040516105af919061209a565b60405180910390f35b6105c0610f1e565b6040516105cd919061209a565b60405180910390f35b6105de610f31565b6040516105eb9190611ff7565b60405180910390f35b61060e60048036038101906106099190612052565b610f37565b60405161061b919061213b565b60405180910390f35b61062c610f52565b604051610639919061213b565b60405180910390f35b61065c6004803603810190610657919061280a565b610fa7565b604051610669919061209a565b60405180910390f35b61068c600480360381019061068791906127aa565b61159a565b604051610699919061209a565b60405180910390f35b600960009054906101000a90046effffffffffffffffffffffffffffff1681565b600160009054906101000a900473ffffffffffffffffffffffffffffffffffffffff1681565b6009600f9054906101000a90046effffffffffffffffffffffffffffff1681565b600e5481565b60366020528060005260406000206000915054906101000a900460ff1681565b603860149054906101000a900460ff1681565b60007f30644e72e131a029b85045b68181585d2833e84879b9709143e1f593f0000001826040516020016107779190612def565b6040516020818303038152906040528051906020012060001c61079a9190612e40565b9050919050565b600f5481565b603860009054906101000a900473ffffffffffffffffffffffffffffffffffffffff1673ffffffffffffffffffffffffffffffffffffffff163373ffffffffffffffffffffffffffffffffffffffff1614610837576040517f08c379a000000000000000000000000000000000000000000000000000000000815260040161082e90612ece565b60405180910390fd5b8060346000858152602001908152602001600020600084815260200190815260200160002081816108689190613836565b9050507f3d09e10d1c966d01c4a2c14d0ac9af253486aa5e99b6cffe9019c4d43eb1fb2383838360405161089e93929190613b48565b60405180910390a1505050565b60076020528060005260406000206000915090505481565b60008054906101000a900473ffffffffffffffffffffffffffffffffffffffff1681565b600660009054906101000a900473ffffffffffffffffffffffffffffffffffffffff1681565b600360009054906101000a900473ffffffffffffffffffffffffffffffffffffffff1681565b600460009054906101000a900473ffffffffffffffffffffffffffffffffffffffff1681565b603860009054906101000a900473ffffffffffffffffffffffffffffffffffffffff1673ffffffffffffffffffffffffffffffffffffffff163373ffffffffffffffffffffffffffffffffffffffff16146109e9576040517f08c379a00000000000000000000000000000000000000000000000000000000081526004016109e090612ece565b60405180910390fd5b80603560006101000a81548160ff0219169083151502179055507f21f67800fb06e35b87566708fd49f2a7cc96bf3a74ca56e175b23e6f35b1024881604051610a32919061209a565b60405180910390a150565b600860009054906101000a900473ffffffffffffffffffffffffffffffffffffffff1681565b60115481565b600560009054906101000a900473ffffffffffffffffffffffffffffffffffffffff1681565b610a97611e27565b6034600084815260200190815260200160002060008381526020019081526020016000206040518060c0016040529081600082018054610ad690612ff8565b80601f0160208091040260200160405190810160405280929190818152602001828054610b0290612ff8565b8015610b4f5780601f10610b2457610100808354040283529160200191610b4f565b820191906000526020600020905b815481529060010190602001808311610b3257829003601f168201915b50505050508152602001600182016040518060400160405290816000820154815260200160018201548152505081526020016003820160405180604001604052908160008201600280602002604051908101604052809291908260028015610bcc576020028201915b815481526020019060010190808311610bb8575b5050505050815260200160028201600280602002604051908101604052809291908260028015610c11576020028201915b815481526020019060010190808311610bfd575b50505050508152505081526020016007820160405180604001604052908160008201600280602002604051908101604052809291908260028015610c6a576020028201915b815481526020019060010190808311610c56575b5050505050815260200160028201600280602002604051908101604052809291908260028015610caf576020028201915b815481526020019060010190808311610c9b575b5050505050815250508152602001600b820160405180604001604052908160008201600280602002604051908101604052809291908260028015610d08576020028201915b815481526020019060010190808311610cf4575b5050505050815260200160028201600280602002604051908101604052809291908260028015610d4d576020028201915b815481526020019060010190808311610d39575b5050505050815250508152602001600f8201805480602002602001604051908101604052809291908181526020016000905b82821015610dc557838290600052602060002090600202016040518060400160405290816000820154815260200160018201548152505081526020019060010190610d7f565b5050505081525050905092915050565b600c6020528060005260406000206000915054906101000a900460ff1681565b600660149054906101000a900463ffffffff1681565b603860009054906101000a900473ffffffffffffffffffffffffffffffffffffffff1681565b600a60009054906101000a90046effffffffffffffffffffffffffffff1681565b600260009054906101000a900473ffffffffffffffffffffffffffffffffffffffff1681565b600b6020528060005260406000206000915054906101000a900460ff1681565b600d6020528060005260406000206000915090508060000160009054906101000a900460ff16908060000160019054906101000a900473ffffffffffffffffffffffffffffffffffffffff16908060010154905083565b60326020528160005260406000206020528060005260406000206000915091509054906101000a900460ff1681565b603560009054906101000a900460ff1681565b60375481565b60128160108110610f4757600080fd5b016000915090505481565b7f30644e72e131a029b85045b68181585d2833e84879b9709143e1f593f00000017f95b5e3f3c951508f13e7771152f5b7c7329a294917685c10a571c9247e3b9fff60001c610fa19190612e40565b60001b81565b6000603560009054906101000a900460ff1615610fc75760019050611595565b600082806101200190610fda9190613b86565b90509050600083806101400190610ff19190613b86565b9050905060006034600084815260200190815260200160002060008381526020019081526020016000206040518060c001604052908160008201805461103690612ff8565b80601f016020809104026020016040519081016040528092919081815260200182805461106290612ff8565b80156110af5780601f10611084576101008083540402835291602001916110af565b820191906000526020600020905b81548152906001019060200180831161109257829003601f168201915b5050505050815260200160018201604051806040016040529081600082015481526020016001820154815250508152602001600382016040518060400160405290816000820160028060200260405190810160405280929190826002801561112c576020028201915b815481526020019060010190808311611118575b5050505050815260200160028201600280602002604051908101604052809291908260028015611171576020028201915b81548152602001906001019080831161115d575b505050505081525050815260200160078201604051806040016040529081600082016002806020026040519081016040528092919082600280156111ca576020028201915b8154815260200190600101908083116111b6575b505050505081526020016002820160028060200260405190810160405280929190826002801561120f576020028201915b8154815260200190600101908083116111fb575b5050505050815250508152602001600b820160405180604001604052908160008201600280602002604051908101604052809291908260028015611268576020028201915b815481526020019060010190808311611254575b50505050508152602001600282016002806020026040519081016040528092919082600280156112ad576020028201915b815481526020019060010190808311611299575b5050505050815250508152602001600f8201805480602002602001604051908101604052809291908181526020016000905b82821015611325578382906000526020600020906002020160405180604001604052908160008201548152602001600182015481525050815260200190600101906112df565b5050505081525050905060008160200151600001510361137a576040517f08c379a000000000000000000000000000000000000000000000000000000000815260040161137190613c35565b60405180910390fd5b60008284600261138a9190613c55565b6113949190613c55565b67ffffffffffffffff8111156113ad576113ac612f9a565b5b6040519080825280602002602001820160405280156113db5781602001602082028036833780820191505090505b50905085610100013560001c816000815181106113fb576113fa613c89565b5b6020026020010181815250506114208680610160019061141b9190613cb8565b610743565b8160018151811061143457611433613c89565b5b60200260200101818152505060005b848110156114b5578680610120019061145c9190613b86565b8281811061146d5761146c613c89565b5b9050602002013560001c828260026114859190613c55565b8151811061149657611495613c89565b5b60200260200101818152505080806114ad90613ce0565b915050611443565b5060005b8381101561153657868061014001906114d29190613b86565b828181106114e3576114e2613c89565b5b9050602002013560001c82828760026114fc9190613c55565b6115069190613c55565b8151811061151757611516613c89565b5b602002602001018181525050808061152e90613ce0565b9150506114b9565b5060006115478388600001846115c9565b905061dead73ffffffffffffffffffffffffffffffffffffffff163273ffffffffffffffffffffffffffffffffffffffff160361158c57600195505050505050611595565b80955050505050505b919050565b60336020528160005260406000206020528060005260406000206000915091509054906101000a900460ff1681565b60006115e684848036038101906115e09190613f39565b846115ef565b90509392505050565b6000806040518060400160405280600081526020016000815250905060005b8351811015611700577f30644e72e131a029b85045b68181585d2833e84879b9709143e1f593f000000184828151811061164b5761164a613c89565b5b602002602001015110611693576040517f08c379a000000000000000000000000000000000000000000000000000000000815260040161168a90613fd9565b60405180910390fd5b6116ea826116e58860a001516001856116ac9190613c55565b815181106116bd576116bc613c89565b5b60200260200101518785815181106116d8576116d7613c89565b5b602002602001015161176a565b611836565b91506001816116f99190613c55565b905061160e565b5061172a818660a0015160008151811061171d5761171c613c89565b5b6020026020010151611836565b905061176061173c8560000151611934565b856020015187602001518860400151858a606001518a604001518c60800151611b1f565b9150509392505050565b611772611e75565b61177a611e8f565b83600001518160006003811061179357611792613c89565b5b6020020181815250508360200151816001600381106117b5576117b4613c89565b5b60200201818152505082816002600381106117d3576117d2613c89565b5b602002018181525050600060408360608460076107d05a03fa90508061182e576040517f08c379a00000000000000000000000000000000000000000000000000000000081526004016118259061406b565b60405180910390fd5b505092915050565b61183e611e75565b611846611eb1565b83600001518160006004811061185f5761185e613c89565b5b60200201818152505083602001518160016004811061188157611880613c89565b5b6020020181815250508260000151816002600481106118a3576118a2613c89565b5b6020020181815250508260200151816003600481106118c5576118c4613c89565b5b60200201818152505060006118d8611e75565b60408160808560066107d05a03fa915081611928576040517f08c379a000000000000000000000000000000000000000000000000000000000815260040161191f906140d7565b60405180910390fd5b80935050505092915050565b61193c611e75565b60008260000151148015611954575060008260200151145b156119775760405180604001604052806000815260200160008152509050611b1a565b60007f30644e72e131a029b85045b68181585d97816a916871ca8d3c208c16d87cfd47806119a8576119a7612e11565b5b836000015184600001510990507f30644e72e131a029b85045b68181585d97816a916871ca8d3c208c16d87cfd47806119e4576119e3612e11565b5b8360000151820990507f30644e72e131a029b85045b68181585d97816a916871ca8d3c208c16d87cfd4780611a1c57611a1b612e11565b5b60038208905060007f30644e72e131a029b85045b68181585d97816a916871ca8d3c208c16d87cfd4780611a5357611a52612e11565b5b84602001518560200151099050818114611aa2576040517f08c379a0000000000000000000000000000000000000000000000000000000008152600401611a9990614143565b60405180910390fd5b6040518060400160405280856000015181526020017f30644e72e131a029b85045b68181585d97816a916871ca8d3c208c16d87cfd478660200151611ae79190612e40565b7f30644e72e131a029b85045b68181585d97816a916871ca8d3c208c16d87cfd47611b129190614163565b815250925050505b919050565b6000806040518061030001604052808b6000015181526020018b6020015181526020018a60000151600060028110611b5a57611b59613c89565b5b602002015181526020018a60000151600160028110611b7c57611b7b613c89565b5b602002015181526020018a60200151600060028110611b9e57611b9d613c89565b5b602002015181526020018a60200151600160028110611bc057611bbf613c89565b5b6020020151815260200189600001518152602001896020015181526020018860000151600060028110611bf657611bf5613c89565b5b602002015181526020018860000151600160028110611c1857611c17613c89565b5b602002015181526020018860200151600060028110611c3a57611c39613c89565b5b602002015181526020018860200151600160028110611c5c57611c5b613c89565b5b6020020151815260200187600001518152602001876020015181526020018660000151600060028110611c9257611c91613c89565b5b602002015181526020018660000151600160028110611cb457611cb3613c89565b5b602002015181526020018660200151600060028110611cd657611cd5613c89565b5b602002015181526020018660200151600160028110611cf857611cf7613c89565b5b6020020151815260200185600001518152602001856020015181526020018460000151600060028110611d2e57611d2d613c89565b5b602002015181526020018460000151600160028110611d5057611d4f613c89565b5b602002015181526020018460200151600060028110611d7257611d71613c89565b5b602002015181526020018460200151600160028110611d9457611d93613c89565b5b60200201518152509050611da6611ed3565b60006020826103008560086107d05a03fa905080611df9576040517f08c379a0000000000000000000000000000000000000000000000000000000008152600401611df090614209565b60405180910390fd5b600082600060018110611e0f57611e0e613c89565b5b60200201511415935050505098975050505050505050565b6040518060c0016040528060608152602001611e41611e75565b8152602001611e4e611ef5565b8152602001611e5b611ef5565b8152602001611e68611ef5565b8152602001606081525090565b604051806040016040528060008152602001600081525090565b6040518060600160405280600390602082028036833780820191505090505090565b6040518060800160405280600490602082028036833780820191505090505090565b6040518060200160405280600190602082028036833780820191505090505090565b6040518060400160405280611f08611f1b565b8152602001611f15611f1b565b81525090565b6040518060400160405280600290602082028036833780820191505090505090565b60006effffffffffffffffffffffffffffff82169050919050565b611f6181611f3d565b82525050565b6000602082019050611f7c6000830184611f58565b92915050565b600073ffffffffffffffffffffffffffffffffffffffff82169050919050565b6000611fad82611f82565b9050919050565b611fbd81611fa2565b82525050565b6000602082019050611fd86000830184611fb4565b92915050565b6000819050919050565b611ff181611fde565b82525050565b600060208201905061200c6000830184611fe8565b92915050565b6000604051905090565b600080fd5b600080fd5b61202f81611fde565b811461203a57600080fd5b50565b60008135905061204c81612026565b92915050565b6000602082840312156120685761206761201c565b5b60006120768482850161203d565b91505092915050565b60008115159050919050565b6120948161207f565b82525050565b60006020820190506120af600083018461208b565b92915050565b600080fd5b600060e082840312156120d0576120cf6120b5565b5b81905092915050565b6000602082840312156120ef576120ee61201c565b5b600082013567ffffffffffffffff81111561210d5761210c612021565b5b612119848285016120ba565b91505092915050565b6000819050919050565b61213581612122565b82525050565b6000602082019050612150600083018461212c565b92915050565b6000610200828403121561216d5761216c6120b5565b5b81905092915050565b60008060006060848603121561218f5761218e61201c565b5b600061219d8682870161203d565b93505060206121ae8682870161203d565b925050604084013567ffffffffffffffff8111156121cf576121ce612021565b5b6121db86828701612156565b9150509250925092565b600063ffffffff82169050919050565b6121fe816121e5565b811461220957600080fd5b50565b60008135905061221b816121f5565b92915050565b6000602082840312156122375761223661201c565b5b60006122458482850161220c565b91505092915050565b6122578161207f565b811461226257600080fd5b50565b6000813590506122748161224e565b92915050565b6000602082840312156122905761228f61201c565b5b600061229e84828501612265565b91505092915050565b60006122b282611f82565b9050919050565b6122c2816122a7565b82525050565b60006020820190506122dd60008301846122b9565b92915050565b600080604083850312156122fa576122f961201c565b5b60006123088582860161203d565b92505060206123198582860161203d565b9150509250929050565b600081519050919050565b600082825260208201905092915050565b60005b8381101561235d578082015181840152602081019050612342565b60008484015250505050565b6000601f19601f8301169050919050565b600061238582612323565b61238f818561232e565b935061239f81856020860161233f565b6123a881612369565b840191505092915050565b6123bc81611fde565b82525050565b6040820160008201516123d860008501826123b3565b5060208201516123eb60208501826123b3565b50505050565b600060029050919050565b600081905092915050565b6000819050919050565b600061241d83836123b3565b60208301905092915050565b6000602082019050919050565b61243f816123f1565b61244981846123fc565b925061245482612407565b8060005b8381101561248557815161246c8782612411565b965061247783612429565b925050600181019050612458565b505050505050565b6080820160008201516124a36000850182612436565b5060208201516124b66040850182612436565b50505050565b600081519050919050565b600082825260208201905092915050565b6000819050602082019050919050565b60006124f483836123c2565b60408301905092915050565b6000602082019050919050565b6000612518826124bc565b61252281856124c7565b935061252d836124d8565b8060005b8381101561255e57815161254588826124e8565b975061255083612500565b925050600181019050612531565b5085935050505092915050565b6000610200830160008301518482036000860152612589828261237a565b915050602083015161259e60208601826123c2565b5060408301516125b1606086018261248d565b5060608301516125c460e086018261248d565b5060808301516125d861016086018261248d565b5060a08301518482036101e08601526125f1828261250d565b9150508091505092915050565b60006020820190508181036000830152612618818461256b565b905092915050565b61262981611fa2565b811461263457600080fd5b50565b60008135905061264681612620565b92915050565b6000602082840312156126625761266161201c565b5b600061267084828501612637565b91505092915050565b612682816121e5565b82525050565b600060208201905061269d6000830184612679565b92915050565b6126ac81612122565b81146126b757600080fd5b50565b6000813590506126c9816126a3565b92915050565b6000602082840312156126e5576126e461201c565b5b60006126f3848285016126ba565b91505092915050565b7f4e487b7100000000000000000000000000000000000000000000000000000000600052602160045260246000fd5b6003811061273c5761273b6126fc565b5b50565b600081905061274d8261272b565b919050565b600061275d8261273f565b9050919050565b61276d81612752565b82525050565b60006060820190506127886000830186612764565b6127956020830185611fb4565b6127a26040830184611fe8565b949350505050565b600080604083850312156127c1576127c061201c565b5b60006127cf8582860161203d565b92505060206127e0858286016126ba565b9150509250929050565b60006102208284031215612801576128006120b5565b5b81905092915050565b6000602082840312156128205761281f61201c565b5b600082013567ffffffffffffffff81111561283e5761283d612021565b5b61284a848285016127ea565b91505092915050565b600061ffff82169050919050565b61286a81612853565b811461287557600080fd5b50565b60008135905061288781612861565b92915050565b600061289c6020840184612878565b905092915050565b6128ad81612853565b82525050565b600068ffffffffffffffffff82169050919050565b6128d1816128b3565b81146128dc57600080fd5b50565b6000813590506128ee816128c8565b92915050565b600061290360208401846128df565b905092915050565b612914816128b3565b82525050565b6003811061292757600080fd5b50565b6000813590506129398161291a565b92915050565b600061294e602084018461292a565b905092915050565b60038110612967576129666126fc565b5b50565b600081905061297882612956565b919050565b60006129888261296a565b9050919050565b6129988161297d565b82525050565b600067ffffffffffffffff82169050919050565b6129bb8161299e565b81146129c657600080fd5b50565b6000813590506129d8816129b2565b92915050565b60006129ed60208401846129c9565b905092915050565b6129fe8161299e565b82525050565b6000612a136020840184612637565b905092915050565b612a2481611fa2565b82525050565b6000612a3960208401846126ba565b905092915050565b612a4a81612122565b82525050565b600080fd5b600080fd5b600080fd5b60008083356001602003843603038112612a7c57612a7b612a5a565b5b83810192508235915060208301925067ffffffffffffffff821115612aa457612aa3612a50565b5b602082023603831315612aba57612ab9612a55565b5b509250929050565b600082825260208201905092915050565b6000819050919050565b600082905092915050565b82818337505050565b612afd60808383612ae8565b5050565b60008083356001602003843603038112612b1e57612b1d612a5a565b5b83810192508235915060208301925067ffffffffffffffff821115612b4657612b45612a50565b5b600182023603831315612b5c57612b5b612a55565b5b509250929050565b600082825260208201905092915050565b82818337600083830152505050565b6000612b908385612b64565b9350612b9d838584612b75565b612ba683612369565b840190509392505050565b60006101008301612bc56000840184612add565b612bd26000860182612af1565b50612be06080840184612a2a565b612bed6080860182612a41565b50612bfb60a0840184612a2a565b612c0860a0860182612a41565b50612c1660c0840184612b01565b85830360c0870152612c29838284612b84565b92505050612c3a60e0840184612b01565b85830360e0870152612c4d838284612b84565b925050508091505092915050565b6000612c678383612bb1565b905092915050565b60008235600161010003833603038112612c8c57612c8b612a5a565b5b82810191505092915050565b6000602082019050919050565b6000612cb18385612ac2565b935083602084028501612cc384612ad3565b8060005b87811015612d07578484038952612cde8284612c6f565b612ce88582612c5b565b9450612cf383612c98565b925060208a01995050600181019050612cc7565b50829750879450505050509392505050565b600060e08301612d2c600084018461288d565b612d3960008601826128a4565b50612d4760208401846128f4565b612d54602086018261290b565b50612d62604084018461293f565b612d6f604086018261298f565b50612d7d60608401846129de565b612d8a60608601826129f5565b50612d986080840184612a04565b612da56080860182612a1b565b50612db360a0840184612a2a565b612dc060a0860182612a41565b50612dce60c0840184612a5f565b85830360c0870152612de1838284612ca5565b925050508091505092915050565b60006020820190508181036000830152612e098184612d19565b905092915050565b7f4e487b7100000000000000000000000000000000000000000000000000000000600052601260045260246000fd5b6000612e4b82611fde565b9150612e5683611fde565b925082612e6657612e65612e11565b5b828206905092915050565b600082825260208201905092915050565b7f56657269666965724d6f64756c653a204f6e6c79206f776e6572000000000000600082015250565b6000612eb8601a83612e71565b9150612ec382612e82565b602082019050919050565b60006020820190508181036000830152612ee781612eab565b9050919050565b7f4e487b7100000000000000000000000000000000000000000000000000000000600052600060045260246000fd5b600080fd5b600080fd5b600080fd5b60008083356001602003843603038112612f4957612f48612f1d565b5b80840192508235915067ffffffffffffffff821115612f6b57612f6a612f22565b5b602083019250600182023603831315612f8757612f86612f27565b5b509250929050565b600082905092915050565b7f4e487b7100000000000000000000000000000000000000000000000000000000600052604160045260246000fd5b7f4e487b7100000000000000000000000000000000000000000000000000000000600052602260045260246000fd5b6000600282049050600182168061301057607f821691505b60208210810361302357613022612fc9565b5b50919050565b60008190508160005260206000209050919050565b60006020601f8301049050919050565b600082821b905092915050565b60006008830261308b7fffffffffffffffffffffffffffffffffffffffffffffffffffffffffffffffff8261304e565b613095868361304e565b95508019841693508086168417925050509392505050565b6000819050919050565b60006130d26130cd6130c884611fde565b6130ad565b611fde565b9050919050565b6000819050919050565b6130ec836130b7565b6131006130f8826130d9565b84845461305b565b825550505050565b600090565b613115613108565b6131208184846130e3565b505050565b5b818110156131445761313960008261310d565b600181019050613126565b5050565b601f8211156131895761315a81613029565b6131638461303e565b81016020851015613172578190505b61318661317e8561303e565b830182613125565b50505b505050565b600082821c905092915050565b60006131ac6000198460080261318e565b1980831691505092915050565b60006131c5838361319b565b9150826002028217905092915050565b6131df8383612f8f565b67ffffffffffffffff8111156131f8576131f7612f9a565b5b6132028254612ff8565b61320d828285613148565b6000601f83116001811461323c576000841561322a578287013590505b61323485826131b9565b86555061329c565b601f19841661324a86613029565b60005b828110156132725784890135825560018201915060208501945060208101905061324d565b8683101561328f578489013561328b601f89168261319b565b8355505b6001600288020188555050505b50505050505050565b6132b08383836131d5565b505050565b600081356132c281612026565b80915050919050565b60008160001b9050919050565b60007fffffffffffffffffffffffffffffffffffffffffffffffffffffffffffffffff613304846132cb565b9350801983169250808416831791505092915050565b613323826130b7565b61333661332f826130d9565b83546132d8565b8255505050565b60008101600083018061334f816132b5565b905061335b818461331a565b505050600181016020830180613370816132b5565b905061337c818461331a565b5050505050565b61338d828261333d565b5050565b600060029050919050565b7f4e487b7100000000000000000000000000000000000000000000000000000000600052601160045260246000fd5b60006133d682611fde565b91506133e183611fde565b92508282026133ef81611fde565b915082820484148315176134065761340561339c565b5b5092915050565b60008190506001806001038301049050919050565b6000819050919050565b5b8181101561344b5761344060008261310d565b60018101905061342d565b5050565b81831015613488576134608261340d565b6134698461340d565b61347283613422565b818101838201613482818361342c565b50505050505b505050565b680100000000000000008211156134a7576134a6612f9a565b5b6134b081613391565b6134bb83828461344f565b505050565b600060029050919050565b6000819050919050565b6134de826134c0565b67ffffffffffffffff8111156134f7576134f6612f9a565b5b613501818361348d565b61350a836134cb565b61351383613422565b6001830460005b8181101561355257600061352d856132b5565b613536816130d9565b809250602087019650505080828501555060018101905061351a565b50505050505050565b61356582826134d5565b5050565b60008101600083018061357c818461355b565b505050600281016040830180613592818461355b565b5050505050565b6135a38282613569565b5050565b600080833560016020038436030381126135c4576135c3612f1d565b5b80840192508235915067ffffffffffffffff8211156135e6576135e5612f22565b5b60208301925060408202360383131561360257613601612f27565b5b509250929050565b6000819050919050565b600081549050919050565b600081905061362f8260026133cb565b9050919050565b60008190508160005260206000209050919050565b613658600080830161310d565b61366660006001830161310d565b50565b6000821461367a57613679612eee565b5b6136838161364b565b5050565b5b818110156136a65761369b600082613669565b600281019050613688565b5050565b818310156136e3576136bb8261361f565b6136c48461361f565b6136cd83613636565b8181018382016136dd8183613687565b50505050505b505050565b6801000000000000000082111561370257613701612f9a565b5b61370b81613614565b8282556137198382846136aa565b505050565b600082905092915050565b613733838361371e565b61373d81836136e8565b6137468361360a565b61374f83613636565b60005b8381101561377d57826137658184613383565b60408401935060028301925050600181019050613752565b50505050505050565b613791838383613729565b505050565b60008101600083016137a88185612f2c565b6137b38183866132a5565b505050506001810160208301806137ca8184613383565b5050506003810160608301806137e08184613599565b5050506007810160e08301806137f68184613599565b505050600b810161016083018061380d8184613599565b505050600f81016101e0830161382381856135a7565b61382e818386613786565b505050505050565b6138408282613796565b5050565b6000808335600160200384360303811261386157613860612a5a565b5b83810192508235915060208301925067ffffffffffffffff82111561388957613888612a50565b5b60018202360383131561389f5761389e612a55565b5b509250929050565b60006138b3838561232e565b93506138c0838584612b75565b6138c983612369565b840190509392505050565b600082905092915050565b60006138ee602084018461203d565b905092915050565b6040820161390760008301836138df565b61391460008501826123b3565b5061392260208301836138df565b61392f60208501826123b3565b50505050565b600082905092915050565b600082905092915050565b61395760408383612ae8565b5050565b6080820161396c6000830183613940565b613979600085018261394b565b506139876040830183613940565b613994604085018261394b565b50505050565b600080833560016020038436030381126139b7576139b6612a5a565b5b83810192508235915060208301925067ffffffffffffffff8211156139df576139de612a50565b5b6040820236038313156139f5576139f4612a55565b5b509250929050565b6000613a0983836138f6565b60408301905092915050565b6000604082019050919050565b6000613a2e83856124c7565b9350613a398261360a565b8060005b85811015613a7257613a4f82846138d4565b613a5988826139fd565b9750613a6483613a15565b925050600181019050613a3d565b5085925050509392505050565b60006102008301613a936000840184613844565b8583036000870152613aa68382846138a7565b92505050613ab760208401846138d4565b613ac460208601826138f6565b50613ad26060840184613935565b613adf606086018261395b565b50613aed60e0840184613935565b613afa60e086018261395b565b50613b09610160840184613935565b613b1761016086018261395b565b50613b266101e084018461399a565b8583036101e0870152613b3a838284613a22565b925050508091505092915050565b6000606082019050613b5d6000830186611fe8565b613b6a6020830185611fe8565b8181036040830152613b7c8184613a7f565b9050949350505050565b60008083356001602003843603038112613ba357613ba2612f1d565b5b80840192508235915067ffffffffffffffff821115613bc557613bc4612f22565b5b602083019250602082023603831315613be157613be0612f27565b5b509250929050565b7f56657269666965724d6f64756c653a204b6579206e6f74207365740000000000600082015250565b6000613c1f601b83612e71565b9150613c2a82613be9565b602082019050919050565b60006020820190508181036000830152613c4e81613c12565b9050919050565b6000613c6082611fde565b9150613c6b83611fde565b9250828201905080821115613c8357613c8261339c565b5b92915050565b7f4e487b7100000000000000000000000000000000000000000000000000000000600052603260045260246000fd5b60008235600160e003833603038112613cd457613cd3612f1d565b5b80830191505092915050565b6000613ceb82611fde565b91507fffffffffffffffffffffffffffffffffffffffffffffffffffffffffffffffff8203613d1d57613d1c61339c565b5b600182019050919050565b600080fd5b613d3682612369565b810181811067ffffffffffffffff82111715613d5557613d54612f9a565b5b80604052505050565b6000613d68612012565b9050613d748282613d2d565b919050565b600060408284031215613d8f57613d8e613d28565b5b613d996040613d5e565b90506000613da98482850161203d565b6000830152506020613dbd8482850161203d565b60208301525092915050565b600080fd5b600067ffffffffffffffff821115613de957613de8612f9a565b5b602082029050919050565b600080fd5b6000613e0c613e0784613dce565b613d5e565b90508060208402830185811115613e2657613e25613df4565b5b835b81811015613e4f5780613e3b888261203d565b845260208401935050602081019050613e28565b5050509392505050565b600082601f830112613e6e57613e6d613dc9565b5b6002613e7b848285613df9565b91505092915050565b600060808284031215613e9a57613e99613d28565b5b613ea46040613d5e565b90506000613eb484828501613e59565b6000830152506040613ec884828501613e59565b60208301525092915050565b60006101008284031215613eeb57613eea613d28565b5b613ef56060613d5e565b90506000613f0584828501613d79565b6000830152506040613f1984828501613e84565b60208301525060c0613f2d84828501613d79565b60408301525092915050565b60006101008284031215613f5057613f4f61201c565b5b6000613f5e84828501613ed4565b91505092915050565b7f536e61726b3a20496e707574203e20534e41524b5f5343414c41525f4649454c60008201527f4400000000000000000000000000000000000000000000000000000000000000602082015250565b6000613fc3602183612e71565b9150613fce82613f67565b604082019050919050565b60006020820190508181036000830152613ff281613fb6565b9050919050565b7f536e61726b3a205363616c6172204d756c7469706c69636174696f6e2046616960008201527f6c65640000000000000000000000000000000000000000000000000000000000602082015250565b6000614055602383612e71565b915061406082613ff9565b604082019050919050565b6000602082019050818103600083015261408481614048565b9050919050565b7f536e61726b3a20416464204661696c6564000000000000000000000000000000600082015250565b60006140c1601183612e71565b91506140cc8261408b565b602082019050919050565b600060208201905081810360008301526140f0816140b4565b9050919050565b7f536e61726b3a20496e76616c6964206e65676174696f6e000000000000000000600082015250565b600061412d601783612e71565b9150614138826140f7565b602082019050919050565b6000602082019050818103600083015261415c81614120565b9050919050565b600061416e82611fde565b915061417983611fde565b92508282039050818111156141915761419061339c565b5b92915050565b7f536e61726b3a2050616972696e6720566572696669636174696f6e204661696c60008201527f6564000000000000000000000000000000000000000000000000000000000000602082015250565b60006141f3602283612e71565b91506141fe82614197565b604082019050919050565b60006020820190508181036000830152614222816141e6565b905091905056fea2646970667358221220a12b04b568184b15c2ee7243d29ee874e42f6b6b97468fb351f5c93f6619d62364736f6c63430008110033","linkReferences":{}},"methodIdentifiers":{"ZERO_VALUE()":"ec732959","getVerificationKey(uint256,uint256)":"7b12ae83","hashBoundParams((uint16,uint72,uint8,uint64,address,bytes32,(bytes32[4],bytes32,bytes32,bytes,bytes)[]))":"28f89c3a","initialized()":"158ef93e","lastEventBlock()":"cd3efe06","localDomain()":"8d3638f4","merkleModule()":"90de3f6e","merkleRoot()":"2eb4a7ab","messageTransmitter()":"7b04c181","nextLeafIndex()":"0be4f422","nftFee()":"9071adc0","nullifiers(uint256,bytes32)":"f19ea903","owner()":"8da5cb5b","privilegedShieldCallers(address)":"b069b70f","remotePools(uint32)":"30ed93c3","rootHistory(uint256,bytes32)":"c718dbda","setTestingMode(bool)":"596d7a68","setVerificationKey(uint256,uint256,(string,(uint256,uint256),(uint256[2],uint256[2]),(uint256[2],uint256[2]),(uint256[2],uint256[2]),(uint256,uint256)[]))":"2ec0f359","shieldFee()":"01c37790","shieldModule()":"35db307c","snarkSafetyVector(uint256)":"129458f4","testingMode()":"c8f35b5d","tokenBlocklist(address)":"815b534f","tokenIDMapping(bytes32)":"b8ceaef2","tokenMessenger()":"46117830","transactModule()":"048e0990","treasury()":"61d027b3","treeNumber()":"66503315","unshieldFee()":"053ed12a","usdc()":"3e413bee","verifierModule()":"41506fc1","verify((((uint256,uint256),(uint256[2],uint256[2]),(uint256,uint256)),bytes32,bytes32[],bytes32[],(uint16,uint72,uint8,uint64,address,bytes32,(bytes32[4],bytes32,bytes32,bytes,bytes)[]),(bytes32,(uint8,address,uint256),uint120)))":"ee990783","zeros(uint256)":"e8295588"},"id":24}