{"abi":[{"type":"function","name":"ZERO_VALUE","inputs":[],"outputs":[{"name":"","type":"bytes32","internalType":"bytes32"}],"stateMutability":"view"},{"type":"function","name":"getVerificationKey","inputs":[{"name":"_nullifiers","type":"uint256","internalType":"uint256"},{"name":"_commitments","type":"uint256","internalType":"uint256"}],"outputs":[{"name":"","type":"tuple","internalType":"struct VerifyingKey","components":[{"name":"artifactsIPFSHash","type":"string","internalType":"string"},{"name":"alpha1","type":"tuple","internalType":"struct G1Point","components":[{"name":"x","type":"uint256","internalType":"uint256"},{"name":"y","type":"uint256","internalType":"uint256"}]},{"name":"beta2","type":"tuple","internalType":"struct G2Point","components":[{"name":"x","type":"uint256[2]","internalType":"uint256[2]"},{"name":"y","type":"uint256[2]","internalType":"uint256[2]"}]},{"name":"gamma2","type":"tuple","internalType":"struct G2Point","components":[{"name":"x","type":"uint256[2]","internalType":"uint256[2]"},{"name":"y","type":"uint256[2]","internalType":"uint256[2]"}]},{"name":"delta2","type":"tuple","internalType":"struct G2Point","components":[{"name":"x","type":"uint256[2]","internalType":"uint256[2]"},{"name":"y","type":"uint256[2]","internalType":"uint256[2]"}]},{"name":"ic","type":"tuple[]","internalType":"struct G1Point[]","components":[{"name":"x","type":"uint256","internalType":"uint256"},{"name":"y","type":"uint256","internalType":"uint256"}]}]}],"stateMutability":"view"},{"type":"function","name":"hashBoundParams","inputs":[{"name":"_boundParams","type":"tuple","internalType":"struct BoundParams","components":[{"name":"treeNumber","type":"uint16","internalType":"uint16"},{"name":"minGasPrice","type":"uint72","internalType":"uint72"},{"name":"unshield","type":"uint8","internalType":"enum UnshieldType"},{"name":"chainID","type":"uint64","internalType":"uint64"},{"name":"adaptContract","type":"address","internalType":"address"},{"name":"adaptParams","type":"bytes32","internalType":"bytes32"},{"name":"commitmentCiphertext","type":"tuple[]","internalType":"struct CommitmentCiphertext[]","components":[{"name":"ciphertext","type":"bytes32[4]","internalType":"bytes32[4]"},{"name":"blindedSenderViewingKey","type":"bytes32","internalType":"bytes32"},{"name":"blindedReceiverViewingKey","type":"bytes32","internalType":"bytes32"},{"name":"annotationData","type":"bytes","internalType":"bytes"},{"name":"memo","type":"bytes","internalType":"bytes"}]}]}],"outputs":[{"name":"","type":"uint256","internalType":"uint256"}],"stateMutability":"pure"},{"type":"function","name":"initialized","inputs":[],"outputs":[{"name":"","type":"bool","internalType":"bool"}],"stateMutability":"view"},{"type":"function","name":"lastEventBlock","inputs":[],"outputs":[{"name":"","type":"uint256","internalType":"uint256"}],"stateMutability":"view"},{"type":"function","name":"localDomain","inputs":[],"outputs":[{"name":"","type":"uint32","internalType":"uint32"}],"stateMutability":"view"},{"type":"function","name":"merkleModule","inputs":[],"outputs":[{"name":"","type":"address","internalType":"address"}],"stateMutability":"view"},{"type":"function","name":"merkleRoot","inputs":[],"outputs":[{"name":"","type":"bytes32","internalType":"bytes32"}],"stateMutability":"view"},{"type":"function","name":"messageTransmitter","inputs":[],"outputs":[{"name":"","type":"address","internalType":"address"}],"stateMutability":"view"},{"type":"function","name":"nextLeafIndex","inputs":[],"outputs":[{"name":"","type":"uint256","internalType":"uint256"}],"stateMutability":"view"},{"type":"function","name":"nftFee","inputs":[],"outputs":[{"name":"","type":"uint120","internalType":"uint120"}],"stateMutability":"view"},{"type":"function","name":"nullifiers","inputs":[{"name":"","type":"uint256","internalType":"uint256"},{"name":"","type":"bytes32","internalType":"bytes32"}],"outputs":[{"name":"","type":"bool","internalType":"bool"}],"stateMutability":"view"},{"type":"function","name":"owner","inputs":[],"outputs":[{"name":"","type":"address","internalType":"address"}],"stateMutability":"view"},{"type":"function","name":"remotePools","inputs":[{"name":"","type":"uint32","internalType":"uint32"}],"outputs":[{"name":"","type":"bytes32","internalType":"bytes32"}],"stateMutability":"view"},{"type":"function","name":"rootHistory","inputs":[{"name":"","type":"uint256","internalType":"uint256"},{"name":"","type":"bytes32","internalType":"bytes32"}],"outputs":[{"name":"","type":"bool","internalType":"bool"}],"stateMutability":"view"},{"type":"function","name":"setTestingMode","inputs":[{"name":"_enabled","type":"bool","internalType":"bool"}],"outputs":[],"stateMutability":"nonpayable"},{"type":"function","name":"setVerificationKey","inputs":[{"name":"_nullifiers","type":"uint256","internalType":"uint256"},{"name":"_commitments","type":"uint256","internalType":"uint256"},{"name":"_verifyingKey","type":"tuple","internalType":"struct VerifyingKey","components":[{"name":"artifactsIPFSHash","type":"string","internalType":"string"},{"name":"alpha1","type":"tuple","internalType":"struct G1Point","components":[{"name":"x","type":"uint256","internalType":"uint256"},{"name":"y","type":"uint256","internalType":"uint256"}]},{"name":"beta2","type":"tuple","internalType":"struct G2Point","components":[{"name":"x","type":"uint256[2]","internalType":"uint256[2]"},{"name":"y","type":"uint256[2]","internalType":"uint256[2]"}]},{"name":"gamma2","type":"tuple","internalType":"struct G2Point","components":[{"name":"x","type":"uint256[2]","internalType":"uint256[2]"},{"name":"y","type":"uint256[2]","internalType":"uint256[2]"}]},{"name":"delta2","type":"tuple","internalType":"struct G2Point","components":[{"name":"x","type":"uint256[2]","internalType":"uint256[2]"},{"name":"y","type":"uint256[2]","internalType":"uint256[2]"}]},{"name":"ic","type":"tuple[]","internalType":"struct G1Point[]","components":[{"name":"x","type":"uint256","internalType":"uint256"},{"name":"y","type":"uint256","internalType":"uint256"}]}]}],"outputs":[],"stateMutability":"nonpayable"},{"type":"function","name":"shieldFee","inputs":[],"outputs":[{"name":"","type":"uint120","internalType":"uint120"}],"stateMutability":"view"},{"type":"function","name":"shieldModule","inputs":[],"outputs":[{"name":"","type":"address","internalType":"address"}],"stateMutability":"view"},{"type":"function","name":"snarkSafetyVector","inputs":[{"name":"","type":"uint256","internalType":"uint256"}],"outputs":[{"name":"","type":"bool","internalType":"bool"}],"stateMutability":"view"},{"type":"function","name":"testingMode","inputs":[],"outputs":[{"name":"","type":"bool","internalType":"bool"}],"stateMutability":"view"},{"type":"function","name":"tokenBlocklist","inputs":[{"name":"","type":"address","internalType":"address"}],"outputs":[{"name":"","type":"bool","internalType":"bool"}],"stateMutability":"view"},{"type":"function","name":"tokenIDMapping","inputs":[{"name":"","type":"bytes32","internalType":"bytes32"}],"outputs":[{"name":"tokenType","type":"uint8","internalType":"enum TokenType"},{"name":"tokenAddress","type":"address","internalType":"address"},{"name":"tokenSubID","type":"uint256","internalType":"uint256"}],"stateMutability":"view"},{"type":"function","name":"tokenMessenger","inputs":[],"outputs":[{"name":"","type":"address","internalType":"address"}],"stateMutability":"view"},{"type":"function","name":"transactModule","inputs":[],"outputs":[{"name":"","type":"address","internalType":"address"}],"stateMutability":"view"},{"type":"function","name":"treasury","inputs":[],"outputs":[{"name":"","type":"address","internalType":"address payable"}],"stateMutability":"view"},{"type":"function","name":"treeNumber","inputs":[],"outputs":[{"name":"","type":"uint256","internalType":"uint256"}],"stateMutability":"view"},{"type":"function","name":"unshieldFee","inputs":[],"outputs":[{"name":"","type":"uint120","internalType":"uint120"}],"stateMutability":"view"},{"type":"function","name":"usdc","inputs":[],"outputs":[{"name":"","type":"address","internalType":"address"}],"stateMutability":"view"},{"type":"function","name":"verifierModule","inputs":[],"outputs":[{"name":"","type":"address","internalType":"address"}],"stateMutability":"view"},{"type":"function","name":"verify","inputs":[{"name":"_transaction","type":"tuple","internalType":"struct Transaction","components":[{"name":"proof","type":"tuple","internalType":"struct SnarkProof","components":[{"name":"a","type":"tuple","internalType":"struct G1Point","components":[{"name":"x","type":"uint256","internalType":"uint256"},{"name":"y","type":"uint256","internalType":"uint256"}]},{"name":"b","type":"tuple","internalType":"struct G2Point","components":[{"name":"x","type":"uint256[2]","internalType":"uint256[2]"},{"name":"y","type":"uint256[2]","internalType":"uint256[2]"}]},{"name":"c","type":"tuple","internalType":"struct G1Point","components":[{"name":"x","type":"uint256","internalType":"uint256"},{"name":"y","type":"uint256","internalType":"uint256"}]}]},{"name":"merkleRoot","type":"bytes32","internalType":"bytes32"},{"name":"nullifiers","type":"bytes32[]","internalType":"bytes32[]"},{"name":"commitments","type":"bytes32[]","internalType":"bytes32[]"},{"name":"boundParams","type":"tuple","internalType":"struct BoundParams","components":[{"name":"treeNumber","type":"uint16","internalType":"uint16"},{"name":"minGasPrice","type":"uint72","internalType":"uint72"},{"name":"unshield","type":"uint8","internalType":"enum UnshieldType"},{"name":"chainID","type":"uint64","internalType":"uint64"},{"name":"adaptContract","type":"address","internalType":"address"},{"name":"adaptParams","type":"bytes32","internalType":"bytes32"},{"name":"commitmentCiphertext","type":"tuple[]","internalType":"struct CommitmentCiphertext[]","components":[{"name":"ciphertext","type":"bytes32[4]","internalType":"bytes32[4]"},{"name":"blindedSenderViewingKey","type":"bytes32","internalType":"bytes32"},{"name":"blindedReceiverViewingKey","type":"bytes32","internalType":"bytes32"},{"name":"annotationData","type":"bytes","internalType":"bytes"},{"name":"memo","type":"bytes","internalType":"bytes"}]}]},{"name":"unshieldPreimage","type":"tuple","internalType":"struct CommitmentPreimage","components":[{"name":"npk","type":"bytes32","internalType":"bytes32"},{"name":"token","type":"tuple","internalType":"struct TokenData","components":[{"name":"tokenType","type":"uint8","internalType":"enum TokenType"},{"name":"tokenAddress","type":"address","internalType":"address"},{"name":"tokenSubID","type":"uint256","internalType":"uint256"}]},{"name":"value","type":"uint120","internalType":"uint120"}]}]}],"outputs":[{"name":"","type":"bool","internalType":"bool"}],"stateMutability":"view"},{"type":"function","name":"zeros","inputs":[{"name":"","type":"uint256","internalType":"uint256"}],"outputs":[{"name":"","type":"bytes32","internalType":"bytes32"}],"stateMutability":"view"},{"type":"event","name":"TestingModeSet","inputs":[{"name":"enabled","type":"bool","indexed":false,"internalType":"bool"}],"anonymous":false},{"type":"event","name":"VerifyingKeySet","inputs":[{"name":"nullifiers","type":"uint256","indexed":false,"internalType":"uint256"},{"name":"commitments","type":"uint256","indexed":false,"internalType":"uint256"},{"name":"verifyingKey","type":"tuple","indexed":false,"internalType":"struct VerifyingKey","components":[{"name":"artifactsIPFSHash","type":"string","internalType":"string"},{"name":"alpha1","type":"tuple","internalType":"struct G1Point","components":[{"name":"x","type":"uint256","internalType":"uint256"},{"name":"y","type":"uint256","internalType":"uint256"}]},{"name":"beta2","type":"tuple","internalType":"struct G2Point","components":[{"name":"x","type":"uint256[2]","internalType":"uint256[2]"},{"name":"y","type":"uint256[2]","internalType":"uint256[2]"}]},{"name":"gamma2","type":"tuple","internalType":"struct G2Point","components":[{"name":"x","type":"uint256[2]","internalType":"uint256[2]"},{"name":"y","type":"uint256[2]","internalType":"uint256[2]"}]},{"name":"delta2","type":"tuple","internalType":"struct G2Point","components":[{"name":"x","type":"uint256[2]","internalType":"uint256[2]"},{"name":"y","type":"uint256[2]","internalType":"uint256[2]"}]},{"name":"ic","type":"tuple[]","internalType":"struct G1Point[]","components":[{"name":"x","type":"uint256","internalType":"uint256"},{"name":"y","type":"uint256","internalType":"uint256"}]}]}],"anonymous":false}],"bytecode":{"object":"0x608060405234801561001057600080fd5b50614204806100206000396000f3fe608060405234801561001057600080fd5b50600436106101f05760003560e01c8063665033151161010f578063b8ceaef2116100a2578063e829558811610071578063e8295588146105b9578063ec732959146105e9578063ee99078314610607578063f19ea90314610637576101f0565b8063b8ceaef21461051b578063c718dbda1461054d578063c8f35b5d1461057d578063cd3efe061461059b576101f0565b80638d3638f4116100de5780638d3638f4146104a35780638da5cb5b146104c15780639071adc0146104df57806390de3f6e146104fd576101f0565b806366503315146104075780637b04c181146104255780637b12ae8314610443578063815b534f14610473576101f0565b80632ec0f3591161018757806341506fc11161015657806341506fc11461039157806346117830146103af578063596d7a68146103cd57806361d027b3146103e9576101f0565b80632ec0f3591461030957806330ed93c31461032557806335db307c146103555780633e413bee14610373576101f0565b8063129458f4116101c3578063129458f41461026d578063158ef93e1461029d57806328f89c3a146102bb5780632eb4a7ab146102eb576101f0565b806301c37790146101f5578063048e099014610213578063053ed12a146102315780630be4f4221461024f575b600080fd5b6101fd610667565b60405161020a9190611f0c565b60405180910390f35b61021b610688565b6040516102289190611f68565b60405180910390f35b6102396106ae565b6040516102469190611f0c565b60405180910390f35b6102576106cf565b6040516102649190611f9c565b60405180910390f35b61028760048036038101906102829190611ff7565b6106d5565b604051610294919061203f565b60405180910390f35b6102a56106f5565b6040516102b2919061203f565b60405180910390f35b6102d560048036038101906102d0919061207e565b610708565b6040516102e29190611f9c565b60405180910390f35b6102f3610766565b60405161030091906120e0565b60405180910390f35b610323600480360381019061031e919061211b565b61076c565b005b61033f600480360381019061033a91906121c6565b610870565b60405161034c91906120e0565b60405180910390f35b61035d610888565b60405161036a9190611f68565b60405180910390f35b61037b6108ac565b6040516103889190611f68565b60405180910390f35b6103996108d2565b6040516103a69190611f68565b60405180910390f35b6103b76108f8565b6040516103c49190611f68565b60405180910390f35b6103e760048036038101906103e2919061221f565b61091e565b005b6103f1610a02565b6040516103fe919061226d565b60405180910390f35b61040f610a28565b60405161041c9190611f9c565b60405180910390f35b61042d610a2e565b60405161043a9190611f68565b60405180910390f35b61045d60048036038101906104589190612288565b610a54565b60405161046a91906125a3565b60405180910390f35b61048d600480360381019061048891906125f1565b610d9a565b60405161049a919061203f565b60405180910390f35b6104ab610dba565b6040516104b8919061262d565b60405180910390f35b6104c9610dd0565b6040516104d69190611f68565b60405180910390f35b6104e7610df6565b6040516104f49190611f0c565b60405180910390f35b610505610e17565b6040516105129190611f68565b60405180910390f35b61053560048036038101906105309190612674565b610e3d565b60405161054493929190612718565b60405180910390f35b6105676004803603810190610562919061274f565b610e94565b604051610574919061203f565b60405180910390f35b610585610ec3565b604051610592919061203f565b60405180910390f35b6105a3610ed6565b6040516105b09190611f9c565b60405180910390f35b6105d360048036038101906105ce9190611ff7565b610edc565b6040516105e091906120e0565b60405180910390f35b6105f1610ef7565b6040516105fe91906120e0565b60405180910390f35b610621600480360381019061061c91906127af565b610f4c565b60405161062e919061203f565b60405180910390f35b610651600480360381019061064c919061274f565b61153f565b60405161065e919061203f565b60405180910390f35b600960009054906101000a90046effffffffffffffffffffffffffffff1681565b600160009054906101000a900473ffffffffffffffffffffffffffffffffffffffff1681565b6009600f9054906101000a90046effffffffffffffffffffffffffffff1681565b600d5481565b60356020528060005260406000206000915054906101000a900460ff1681565b603760149054906101000a900460ff1681565b60007f30644e72e131a029b85045b68181585d2833e84879b9709143e1f593f00000018260405160200161073c9190612d94565b6040516020818303038152906040528051906020012060001c61075f9190612de5565b9050919050565b600e5481565b603760009054906101000a900473ffffffffffffffffffffffffffffffffffffffff1673ffffffffffffffffffffffffffffffffffffffff163373ffffffffffffffffffffffffffffffffffffffff16146107fc576040517f08c379a00000000000000000000000000000000000000000000000000000000081526004016107f390612e73565b60405180910390fd5b80603360008581526020019081526020016000206000848152602001908152602001600020818161082d91906137db565b9050507f3d09e10d1c966d01c4a2c14d0ac9af253486aa5e99b6cffe9019c4d43eb1fb2383838360405161086393929190613aed565b60405180910390a1505050565b60076020528060005260406000206000915090505481565b60008054906101000a900473ffffffffffffffffffffffffffffffffffffffff1681565b600660009054906101000a900473ffffffffffffffffffffffffffffffffffffffff1681565b600360009054906101000a900473ffffffffffffffffffffffffffffffffffffffff1681565b600460009054906101000a900473ffffffffffffffffffffffffffffffffffffffff1681565b603760009054906101000a900473ffffffffffffffffffffffffffffffffffffffff1673ffffffffffffffffffffffffffffffffffffffff163373ffffffffffffffffffffffffffffffffffffffff16146109ae576040517f08c379a00000000000000000000000000000000000000000000000000000000081526004016109a590612e73565b60405180910390fd5b80603460006101000a81548160ff0219169083151502179055507f21f67800fb06e35b87566708fd49f2a7cc96bf3a74ca56e175b23e6f35b10248816040516109f7919061203f565b60405180910390a150565b600860009054906101000a900473ffffffffffffffffffffffffffffffffffffffff1681565b60105481565b600560009054906101000a900473ffffffffffffffffffffffffffffffffffffffff1681565b610a5c611dcc565b6033600084815260200190815260200160002060008381526020019081526020016000206040518060c0016040529081600082018054610a9b90612f9d565b80601f0160208091040260200160405190810160405280929190818152602001828054610ac790612f9d565b8015610b145780601f10610ae957610100808354040283529160200191610b14565b820191906000526020600020905b815481529060010190602001808311610af757829003601f168201915b50505050508152602001600182016040518060400160405290816000820154815260200160018201548152505081526020016003820160405180604001604052908160008201600280602002604051908101604052809291908260028015610b91576020028201915b815481526020019060010190808311610b7d575b5050505050815260200160028201600280602002604051908101604052809291908260028015610bd6576020028201915b815481526020019060010190808311610bc2575b50505050508152505081526020016007820160405180604001604052908160008201600280602002604051908101604052809291908260028015610c2f576020028201915b815481526020019060010190808311610c1b575b5050505050815260200160028201600280602002604051908101604052809291908260028015610c74576020028201915b815481526020019060010190808311610c60575b5050505050815250508152602001600b820160405180604001604052908160008201600280602002604051908101604052809291908260028015610ccd576020028201915b815481526020019060010190808311610cb9575b5050505050815260200160028201600280602002604051908101604052809291908260028015610d12576020028201915b815481526020019060010190808311610cfe575b5050505050815250508152602001600f8201805480602002602001604051908101604052809291908181526020016000905b82821015610d8a57838290600052602060002090600202016040518060400160405290816000820154815260200160018201548152505081526020019060010190610d44565b5050505081525050905092915050565b600b6020528060005260406000206000915054906101000a900460ff1681565b600660149054906101000a900463ffffffff1681565b603760009054906101000a900473ffffffffffffffffffffffffffffffffffffffff1681565b600a60009054906101000a90046effffffffffffffffffffffffffffff1681565b600260009054906101000a900473ffffffffffffffffffffffffffffffffffffffff1681565b600c6020528060005260406000206000915090508060000160009054906101000a900460ff16908060000160019054906101000a900473ffffffffffffffffffffffffffffffffffffffff16908060010154905083565b60316020528160005260406000206020528060005260406000206000915091509054906101000a900460ff1681565b603460009054906101000a900460ff1681565b60365481565b60118160108110610eec57600080fd5b016000915090505481565b7f30644e72e131a029b85045b68181585d2833e84879b9709143e1f593f00000017f95b5e3f3c951508f13e7771152f5b7c7329a294917685c10a571c9247e3b9fff60001c610f469190612de5565b60001b81565b6000603460009054906101000a900460ff1615610f6c576001905061153a565b600082806101200190610f7f9190613b2b565b90509050600083806101400190610f969190613b2b565b9050905060006033600084815260200190815260200160002060008381526020019081526020016000206040518060c0016040529081600082018054610fdb90612f9d565b80601f016020809104026020016040519081016040528092919081815260200182805461100790612f9d565b80156110545780601f1061102957610100808354040283529160200191611054565b820191906000526020600020905b81548152906001019060200180831161103757829003601f168201915b505050505081526020016001820160405180604001604052908160008201548152602001600182015481525050815260200160038201604051806040016040529081600082016002806020026040519081016040528092919082600280156110d1576020028201915b8154815260200190600101908083116110bd575b5050505050815260200160028201600280602002604051908101604052809291908260028015611116576020028201915b815481526020019060010190808311611102575b5050505050815250508152602001600782016040518060400160405290816000820160028060200260405190810160405280929190826002801561116f576020028201915b81548152602001906001019080831161115b575b50505050508152602001600282016002806020026040519081016040528092919082600280156111b4576020028201915b8154815260200190600101908083116111a0575b5050505050815250508152602001600b82016040518060400160405290816000820160028060200260405190810160405280929190826002801561120d576020028201915b8154815260200190600101908083116111f9575b5050505050815260200160028201600280602002604051908101604052809291908260028015611252576020028201915b81548152602001906001019080831161123e575b5050505050815250508152602001600f8201805480602002602001604051908101604052809291908181526020016000905b828210156112ca57838290600052602060002090600202016040518060400160405290816000820154815260200160018201548152505081526020019060010190611284565b5050505081525050905060008160200151600001510361131f576040517f08c379a000000000000000000000000000000000000000000000000000000000815260040161131690613bda565b60405180910390fd5b60008284600261132f9190613bfa565b6113399190613bfa565b67ffffffffffffffff81111561135257611351612f3f565b5b6040519080825280602002602001820160405280156113805781602001602082028036833780820191505090505b50905085610100013560001c816000815181106113a05761139f613c2e565b5b6020026020010181815250506113c5868061016001906113c09190613c5d565b610708565b816001815181106113d9576113d8613c2e565b5b60200260200101818152505060005b8481101561145a57868061012001906114019190613b2b565b8281811061141257611411613c2e565b5b9050602002013560001c8282600261142a9190613bfa565b8151811061143b5761143a613c2e565b5b602002602001018181525050808061145290613c85565b9150506113e8565b5060005b838110156114db57868061014001906114779190613b2b565b8281811061148857611487613c2e565b5b9050602002013560001c82828760026114a19190613bfa565b6114ab9190613bfa565b815181106114bc576114bb613c2e565b5b60200260200101818152505080806114d390613c85565b91505061145e565b5060006114ec83886000018461156e565b905061dead73ffffffffffffffffffffffffffffffffffffffff163273ffffffffffffffffffffffffffffffffffffffff16036115315760019550505050505061153a565b80955050505050505b919050565b60326020528160005260406000206020528060005260406000206000915091509054906101000a900460ff1681565b600061158b84848036038101906115859190613ede565b84611594565b90509392505050565b6000806040518060400160405280600081526020016000815250905060005b83518110156116a5577f30644e72e131a029b85045b68181585d2833e84879b9709143e1f593f00000018482815181106115f0576115ef613c2e565b5b602002602001015110611638576040517f08c379a000000000000000000000000000000000000000000000000000000000815260040161162f90613f7e565b60405180910390fd5b61168f8261168a8860a001516001856116519190613bfa565b8151811061166257611661613c2e565b5b602002602001015187858151811061167d5761167c613c2e565b5b602002602001015161170f565b6117db565b915060018161169e9190613bfa565b90506115b3565b506116cf818660a001516000815181106116c2576116c1613c2e565b5b60200260200101516117db565b90506117056116e185600001516118d9565b856020015187602001518860400151858a606001518a604001518c60800151611ac4565b9150509392505050565b611717611e1a565b61171f611e34565b83600001518160006003811061173857611737613c2e565b5b60200201818152505083602001518160016003811061175a57611759613c2e565b5b602002018181525050828160026003811061177857611777613c2e565b5b602002018181525050600060408360608460076107d05a03fa9050806117d3576040517f08c379a00000000000000000000000000000000000000000000000000000000081526004016117ca90614010565b60405180910390fd5b505092915050565b6117e3611e1a565b6117eb611e56565b83600001518160006004811061180457611803613c2e565b5b60200201818152505083602001518160016004811061182657611825613c2e565b5b60200201818152505082600001518160026004811061184857611847613c2e565b5b60200201818152505082602001518160036004811061186a57611869613c2e565b5b602002018181525050600061187d611e1a565b60408160808560066107d05a03fa9150816118cd576040517f08c379a00000000000000000000000000000000000000000000000000000000081526004016118c49061407c565b60405180910390fd5b80935050505092915050565b6118e1611e1a565b600082600001511480156118f9575060008260200151145b1561191c5760405180604001604052806000815260200160008152509050611abf565b60007f30644e72e131a029b85045b68181585d97816a916871ca8d3c208c16d87cfd478061194d5761194c612db6565b5b836000015184600001510990507f30644e72e131a029b85045b68181585d97816a916871ca8d3c208c16d87cfd478061198957611988612db6565b5b8360000151820990507f30644e72e131a029b85045b68181585d97816a916871ca8d3c208c16d87cfd47806119c1576119c0612db6565b5b60038208905060007f30644e72e131a029b85045b68181585d97816a916871ca8d3c208c16d87cfd47806119f8576119f7612db6565b5b84602001518560200151099050818114611a47576040517f08c379a0000000000000000000000000000000000000000000000000000000008152600401611a3e906140e8565b60405180910390fd5b6040518060400160405280856000015181526020017f30644e72e131a029b85045b68181585d97816a916871ca8d3c208c16d87cfd478660200151611a8c9190612de5565b7f30644e72e131a029b85045b68181585d97816a916871ca8d3c208c16d87cfd47611ab79190614108565b815250925050505b919050565b6000806040518061030001604052808b6000015181526020018b6020015181526020018a60000151600060028110611aff57611afe613c2e565b5b602002015181526020018a60000151600160028110611b2157611b20613c2e565b5b602002015181526020018a60200151600060028110611b4357611b42613c2e565b5b602002015181526020018a60200151600160028110611b6557611b64613c2e565b5b6020020151815260200189600001518152602001896020015181526020018860000151600060028110611b9b57611b9a613c2e565b5b602002015181526020018860000151600160028110611bbd57611bbc613c2e565b5b602002015181526020018860200151600060028110611bdf57611bde613c2e565b5b602002015181526020018860200151600160028110611c0157611c00613c2e565b5b6020020151815260200187600001518152602001876020015181526020018660000151600060028110611c3757611c36613c2e565b5b602002015181526020018660000151600160028110611c5957611c58613c2e565b5b602002015181526020018660200151600060028110611c7b57611c7a613c2e565b5b602002015181526020018660200151600160028110611c9d57611c9c613c2e565b5b6020020151815260200185600001518152602001856020015181526020018460000151600060028110611cd357611cd2613c2e565b5b602002015181526020018460000151600160028110611cf557611cf4613c2e565b5b602002015181526020018460200151600060028110611d1757611d16613c2e565b5b602002015181526020018460200151600160028110611d3957611d38613c2e565b5b60200201518152509050611d4b611e78565b60006020826103008560086107d05a03fa905080611d9e576040517f08c379a0000000000000000000000000000000000000000000000000000000008152600401611d95906141ae565b60405180910390fd5b600082600060018110611db457611db3613c2e565b5b60200201511415935050505098975050505050505050565b6040518060c0016040528060608152602001611de6611e1a565b8152602001611df3611e9a565b8152602001611e00611e9a565b8152602001611e0d611e9a565b8152602001606081525090565b604051806040016040528060008152602001600081525090565b6040518060600160405280600390602082028036833780820191505090505090565b6040518060800160405280600490602082028036833780820191505090505090565b6040518060200160405280600190602082028036833780820191505090505090565b6040518060400160405280611ead611ec0565b8152602001611eba611ec0565b81525090565b6040518060400160405280600290602082028036833780820191505090505090565b60006effffffffffffffffffffffffffffff82169050919050565b611f0681611ee2565b82525050565b6000602082019050611f216000830184611efd565b92915050565b600073ffffffffffffffffffffffffffffffffffffffff82169050919050565b6000611f5282611f27565b9050919050565b611f6281611f47565b82525050565b6000602082019050611f7d6000830184611f59565b92915050565b6000819050919050565b611f9681611f83565b82525050565b6000602082019050611fb16000830184611f8d565b92915050565b6000604051905090565b600080fd5b600080fd5b611fd481611f83565b8114611fdf57600080fd5b50565b600081359050611ff181611fcb565b92915050565b60006020828403121561200d5761200c611fc1565b5b600061201b84828501611fe2565b91505092915050565b60008115159050919050565b61203981612024565b82525050565b60006020820190506120546000830184612030565b92915050565b600080fd5b600060e082840312156120755761207461205a565b5b81905092915050565b60006020828403121561209457612093611fc1565b5b600082013567ffffffffffffffff8111156120b2576120b1611fc6565b5b6120be8482850161205f565b91505092915050565b6000819050919050565b6120da816120c7565b82525050565b60006020820190506120f560008301846120d1565b92915050565b600061020082840312156121125761211161205a565b5b81905092915050565b60008060006060848603121561213457612133611fc1565b5b600061214286828701611fe2565b935050602061215386828701611fe2565b925050604084013567ffffffffffffffff81111561217457612173611fc6565b5b612180868287016120fb565b9150509250925092565b600063ffffffff82169050919050565b6121a38161218a565b81146121ae57600080fd5b50565b6000813590506121c08161219a565b92915050565b6000602082840312156121dc576121db611fc1565b5b60006121ea848285016121b1565b91505092915050565b6121fc81612024565b811461220757600080fd5b50565b600081359050612219816121f3565b92915050565b60006020828403121561223557612234611fc1565b5b60006122438482850161220a565b91505092915050565b600061225782611f27565b9050919050565b6122678161224c565b82525050565b6000602082019050612282600083018461225e565b92915050565b6000806040838503121561229f5761229e611fc1565b5b60006122ad85828601611fe2565b92505060206122be85828601611fe2565b9150509250929050565b600081519050919050565b600082825260208201905092915050565b60005b838110156123025780820151818401526020810190506122e7565b60008484015250505050565b6000601f19601f8301169050919050565b600061232a826122c8565b61233481856122d3565b93506123448185602086016122e4565b61234d8161230e565b840191505092915050565b61236181611f83565b82525050565b60408201600082015161237d6000850182612358565b5060208201516123906020850182612358565b50505050565b600060029050919050565b600081905092915050565b6000819050919050565b60006123c28383612358565b60208301905092915050565b6000602082019050919050565b6123e481612396565b6123ee81846123a1565b92506123f9826123ac565b8060005b8381101561242a57815161241187826123b6565b965061241c836123ce565b9250506001810190506123fd565b505050505050565b60808201600082015161244860008501826123db565b50602082015161245b60408501826123db565b50505050565b600081519050919050565b600082825260208201905092915050565b6000819050602082019050919050565b60006124998383612367565b60408301905092915050565b6000602082019050919050565b60006124bd82612461565b6124c7818561246c565b93506124d28361247d565b8060005b838110156125035781516124ea888261248d565b97506124f5836124a5565b9250506001810190506124d6565b5085935050505092915050565b600061020083016000830151848203600086015261252e828261231f565b91505060208301516125436020860182612367565b5060408301516125566060860182612432565b50606083015161256960e0860182612432565b50608083015161257d610160860182612432565b5060a08301518482036101e086015261259682826124b2565b9150508091505092915050565b600060208201905081810360008301526125bd8184612510565b905092915050565b6125ce81611f47565b81146125d957600080fd5b50565b6000813590506125eb816125c5565b92915050565b60006020828403121561260757612606611fc1565b5b6000612615848285016125dc565b91505092915050565b6126278161218a565b82525050565b6000602082019050612642600083018461261e565b92915050565b612651816120c7565b811461265c57600080fd5b50565b60008135905061266e81612648565b92915050565b60006020828403121561268a57612689611fc1565b5b60006126988482850161265f565b91505092915050565b7f4e487b7100000000000000000000000000000000000000000000000000000000600052602160045260246000fd5b600381106126e1576126e06126a1565b5b50565b60008190506126f2826126d0565b919050565b6000612702826126e4565b9050919050565b612712816126f7565b82525050565b600060608201905061272d6000830186612709565b61273a6020830185611f59565b6127476040830184611f8d565b949350505050565b6000806040838503121561276657612765611fc1565b5b600061277485828601611fe2565b92505060206127858582860161265f565b9150509250929050565b600061022082840312156127a6576127a561205a565b5b81905092915050565b6000602082840312156127c5576127c4611fc1565b5b600082013567ffffffffffffffff8111156127e3576127e2611fc6565b5b6127ef8482850161278f565b91505092915050565b600061ffff82169050919050565b61280f816127f8565b811461281a57600080fd5b50565b60008135905061282c81612806565b92915050565b6000612841602084018461281d565b905092915050565b612852816127f8565b82525050565b600068ffffffffffffffffff82169050919050565b61287681612858565b811461288157600080fd5b50565b6000813590506128938161286d565b92915050565b60006128a86020840184612884565b905092915050565b6128b981612858565b82525050565b600381106128cc57600080fd5b50565b6000813590506128de816128bf565b92915050565b60006128f360208401846128cf565b905092915050565b6003811061290c5761290b6126a1565b5b50565b600081905061291d826128fb565b919050565b600061292d8261290f565b9050919050565b61293d81612922565b82525050565b600067ffffffffffffffff82169050919050565b61296081612943565b811461296b57600080fd5b50565b60008135905061297d81612957565b92915050565b6000612992602084018461296e565b905092915050565b6129a381612943565b82525050565b60006129b860208401846125dc565b905092915050565b6129c981611f47565b82525050565b60006129de602084018461265f565b905092915050565b6129ef816120c7565b82525050565b600080fd5b600080fd5b600080fd5b60008083356001602003843603038112612a2157612a206129ff565b5b83810192508235915060208301925067ffffffffffffffff821115612a4957612a486129f5565b5b602082023603831315612a5f57612a5e6129fa565b5b509250929050565b600082825260208201905092915050565b6000819050919050565b600082905092915050565b82818337505050565b612aa260808383612a8d565b5050565b60008083356001602003843603038112612ac357612ac26129ff565b5b83810192508235915060208301925067ffffffffffffffff821115612aeb57612aea6129f5565b5b600182023603831315612b0157612b006129fa565b5b509250929050565b600082825260208201905092915050565b82818337600083830152505050565b6000612b358385612b09565b9350612b42838584612b1a565b612b4b8361230e565b840190509392505050565b60006101008301612b6a6000840184612a82565b612b776000860182612a96565b50612b8560808401846129cf565b612b9260808601826129e6565b50612ba060a08401846129cf565b612bad60a08601826129e6565b50612bbb60c0840184612aa6565b85830360c0870152612bce838284612b29565b92505050612bdf60e0840184612aa6565b85830360e0870152612bf2838284612b29565b925050508091505092915050565b6000612c0c8383612b56565b905092915050565b60008235600161010003833603038112612c3157612c306129ff565b5b82810191505092915050565b6000602082019050919050565b6000612c568385612a67565b935083602084028501612c6884612a78565b8060005b87811015612cac578484038952612c838284612c14565b612c8d8582612c00565b9450612c9883612c3d565b925060208a01995050600181019050612c6c565b50829750879450505050509392505050565b600060e08301612cd16000840184612832565b612cde6000860182612849565b50612cec6020840184612899565b612cf960208601826128b0565b50612d0760408401846128e4565b612d146040860182612934565b50612d226060840184612983565b612d2f606086018261299a565b50612d3d60808401846129a9565b612d4a60808601826129c0565b50612d5860a08401846129cf565b612d6560a08601826129e6565b50612d7360c0840184612a04565b85830360c0870152612d86838284612c4a565b925050508091505092915050565b60006020820190508181036000830152612dae8184612cbe565b905092915050565b7f4e487b7100000000000000000000000000000000000000000000000000000000600052601260045260246000fd5b6000612df082611f83565b9150612dfb83611f83565b925082612e0b57612e0a612db6565b5b828206905092915050565b600082825260208201905092915050565b7f56657269666965724d6f64756c653a204f6e6c79206f776e6572000000000000600082015250565b6000612e5d601a83612e16565b9150612e6882612e27565b602082019050919050565b60006020820190508181036000830152612e8c81612e50565b9050919050565b7f4e487b7100000000000000000000000000000000000000000000000000000000600052600060045260246000fd5b600080fd5b600080fd5b600080fd5b60008083356001602003843603038112612eee57612eed612ec2565b5b80840192508235915067ffffffffffffffff821115612f1057612f0f612ec7565b5b602083019250600182023603831315612f2c57612f2b612ecc565b5b509250929050565b600082905092915050565b7f4e487b7100000000000000000000000000000000000000000000000000000000600052604160045260246000fd5b7f4e487b7100000000000000000000000000000000000000000000000000000000600052602260045260246000fd5b60006002820490506001821680612fb557607f821691505b602082108103612fc857612fc7612f6e565b5b50919050565b60008190508160005260206000209050919050565b60006020601f8301049050919050565b600082821b905092915050565b6000600883026130307fffffffffffffffffffffffffffffffffffffffffffffffffffffffffffffffff82612ff3565b61303a8683612ff3565b95508019841693508086168417925050509392505050565b6000819050919050565b600061307761307261306d84611f83565b613052565b611f83565b9050919050565b6000819050919050565b6130918361305c565b6130a561309d8261307e565b848454613000565b825550505050565b600090565b6130ba6130ad565b6130c5818484613088565b505050565b5b818110156130e9576130de6000826130b2565b6001810190506130cb565b5050565b601f82111561312e576130ff81612fce565b61310884612fe3565b81016020851015613117578190505b61312b61312385612fe3565b8301826130ca565b50505b505050565b600082821c905092915050565b600061315160001984600802613133565b1980831691505092915050565b600061316a8383613140565b9150826002028217905092915050565b6131848383612f34565b67ffffffffffffffff81111561319d5761319c612f3f565b5b6131a78254612f9d565b6131b28282856130ed565b6000601f8311600181146131e157600084156131cf578287013590505b6131d9858261315e565b865550613241565b601f1984166131ef86612fce565b60005b82811015613217578489013582556001820191506020850194506020810190506131f2565b868310156132345784890135613230601f891682613140565b8355505b6001600288020188555050505b50505050505050565b61325583838361317a565b505050565b6000813561326781611fcb565b80915050919050565b60008160001b9050919050565b60007fffffffffffffffffffffffffffffffffffffffffffffffffffffffffffffffff6132a984613270565b9350801983169250808416831791505092915050565b6132c88261305c565b6132db6132d48261307e565b835461327d565b8255505050565b6000810160008301806132f48161325a565b905061330081846132bf565b5050506001810160208301806133158161325a565b905061332181846132bf565b5050505050565b61333282826132e2565b5050565b600060029050919050565b7f4e487b7100000000000000000000000000000000000000000000000000000000600052601160045260246000fd5b600061337b82611f83565b915061338683611f83565b925082820261339481611f83565b915082820484148315176133ab576133aa613341565b5b5092915050565b60008190506001806001038301049050919050565b6000819050919050565b5b818110156133f0576133e56000826130b2565b6001810190506133d2565b5050565b8183101561342d57613405826133b2565b61340e846133b2565b613417836133c7565b81810183820161342781836133d1565b50505050505b505050565b6801000000000000000082111561344c5761344b612f3f565b5b61345581613336565b6134608382846133f4565b505050565b600060029050919050565b6000819050919050565b61348382613465565b67ffffffffffffffff81111561349c5761349b612f3f565b5b6134a68183613432565b6134af83613470565b6134b8836133c7565b6001830460005b818110156134f75760006134d28561325a565b6134db8161307e565b80925060208701965050508082850155506001810190506134bf565b50505050505050565b61350a828261347a565b5050565b6000810160008301806135218184613500565b5050506002810160408301806135378184613500565b5050505050565b613548828261350e565b5050565b6000808335600160200384360303811261356957613568612ec2565b5b80840192508235915067ffffffffffffffff82111561358b5761358a612ec7565b5b6020830192506040820236038313156135a7576135a6612ecc565b5b509250929050565b6000819050919050565b600081549050919050565b60008190506135d4826002613370565b9050919050565b60008190508160005260206000209050919050565b6135fd60008083016130b2565b61360b6000600183016130b2565b50565b6000821461361f5761361e612e93565b5b613628816135f0565b5050565b5b8181101561364b5761364060008261360e565b60028101905061362d565b5050565b8183101561368857613660826135c4565b613669846135c4565b613672836135db565b818101838201613682818361362c565b50505050505b505050565b680100000000000000008211156136a7576136a6612f3f565b5b6136b0816135b9565b8282556136be83828461364f565b505050565b600082905092915050565b6136d883836136c3565b6136e2818361368d565b6136eb836135af565b6136f4836135db565b60005b83811015613722578261370a8184613328565b604084019350600283019250506001810190506136f7565b50505050505050565b6137368383836136ce565b505050565b600081016000830161374d8185612ed1565b61375881838661324a565b5050505060018101602083018061376f8184613328565b505050600381016060830180613785818461353e565b5050506007810160e083018061379b818461353e565b505050600b81016101608301806137b2818461353e565b505050600f81016101e083016137c8818561354c565b6137d381838661372b565b505050505050565b6137e5828261373b565b5050565b60008083356001602003843603038112613806576138056129ff565b5b83810192508235915060208301925067ffffffffffffffff82111561382e5761382d6129f5565b5b600182023603831315613844576138436129fa565b5b509250929050565b600061385883856122d3565b9350613865838584612b1a565b61386e8361230e565b840190509392505050565b600082905092915050565b60006138936020840184611fe2565b905092915050565b604082016138ac6000830183613884565b6138b96000850182612358565b506138c76020830183613884565b6138d46020850182612358565b50505050565b600082905092915050565b600082905092915050565b6138fc60408383612a8d565b5050565b6080820161391160008301836138e5565b61391e60008501826138f0565b5061392c60408301836138e5565b61393960408501826138f0565b50505050565b6000808335600160200384360303811261395c5761395b6129ff565b5b83810192508235915060208301925067ffffffffffffffff821115613984576139836129f5565b5b60408202360383131561399a576139996129fa565b5b509250929050565b60006139ae838361389b565b60408301905092915050565b6000604082019050919050565b60006139d3838561246c565b93506139de826135af565b8060005b85811015613a17576139f48284613879565b6139fe88826139a2565b9750613a09836139ba565b9250506001810190506139e2565b5085925050509392505050565b60006102008301613a3860008401846137e9565b8583036000870152613a4b83828461384c565b92505050613a5c6020840184613879565b613a69602086018261389b565b50613a7760608401846138da565b613a846060860182613900565b50613a9260e08401846138da565b613a9f60e0860182613900565b50613aae6101608401846138da565b613abc610160860182613900565b50613acb6101e084018461393f565b8583036101e0870152613adf8382846139c7565b925050508091505092915050565b6000606082019050613b026000830186611f8d565b613b0f6020830185611f8d565b8181036040830152613b218184613a24565b9050949350505050565b60008083356001602003843603038112613b4857613b47612ec2565b5b80840192508235915067ffffffffffffffff821115613b6a57613b69612ec7565b5b602083019250602082023603831315613b8657613b85612ecc565b5b509250929050565b7f56657269666965724d6f64756c653a204b6579206e6f74207365740000000000600082015250565b6000613bc4601b83612e16565b9150613bcf82613b8e565b602082019050919050565b60006020820190508181036000830152613bf381613bb7565b9050919050565b6000613c0582611f83565b9150613c1083611f83565b9250828201905080821115613c2857613c27613341565b5b92915050565b7f4e487b7100000000000000000000000000000000000000000000000000000000600052603260045260246000fd5b60008235600160e003833603038112613c7957613c78612ec2565b5b80830191505092915050565b6000613c9082611f83565b91507fffffffffffffffffffffffffffffffffffffffffffffffffffffffffffffffff8203613cc257613cc1613341565b5b600182019050919050565b600080fd5b613cdb8261230e565b810181811067ffffffffffffffff82111715613cfa57613cf9612f3f565b5b80604052505050565b6000613d0d611fb7565b9050613d198282613cd2565b919050565b600060408284031215613d3457613d33613ccd565b5b613d3e6040613d03565b90506000613d4e84828501611fe2565b6000830152506020613d6284828501611fe2565b60208301525092915050565b600080fd5b600067ffffffffffffffff821115613d8e57613d8d612f3f565b5b602082029050919050565b600080fd5b6000613db1613dac84613d73565b613d03565b90508060208402830185811115613dcb57613dca613d99565b5b835b81811015613df45780613de08882611fe2565b845260208401935050602081019050613dcd565b5050509392505050565b600082601f830112613e1357613e12613d6e565b5b6002613e20848285613d9e565b91505092915050565b600060808284031215613e3f57613e3e613ccd565b5b613e496040613d03565b90506000613e5984828501613dfe565b6000830152506040613e6d84828501613dfe565b60208301525092915050565b60006101008284031215613e9057613e8f613ccd565b5b613e9a6060613d03565b90506000613eaa84828501613d1e565b6000830152506040613ebe84828501613e29565b60208301525060c0613ed284828501613d1e565b60408301525092915050565b60006101008284031215613ef557613ef4611fc1565b5b6000613f0384828501613e79565b91505092915050565b7f536e61726b3a20496e707574203e20534e41524b5f5343414c41525f4649454c60008201527f4400000000000000000000000000000000000000000000000000000000000000602082015250565b6000613f68602183612e16565b9150613f7382613f0c565b604082019050919050565b60006020820190508181036000830152613f9781613f5b565b9050919050565b7f536e61726b3a205363616c6172204d756c7469706c69636174696f6e2046616960008201527f6c65640000000000000000000000000000000000000000000000000000000000602082015250565b6000613ffa602383612e16565b915061400582613f9e565b604082019050919050565b6000602082019050818103600083015261402981613fed565b9050919050565b7f536e61726b3a20416464204661696c6564000000000000000000000000000000600082015250565b6000614066601183612e16565b915061407182614030565b602082019050919050565b6000602082019050818103600083015261409581614059565b9050919050565b7f536e61726b3a20496e76616c6964206e65676174696f6e000000000000000000600082015250565b60006140d2601783612e16565b91506140dd8261409c565b602082019050919050565b60006020820190508181036000830152614101816140c5565b9050919050565b600061411382611f83565b915061411e83611f83565b925082820390508181111561413657614135613341565b5b92915050565b7f536e61726b3a2050616972696e6720566572696669636174696f6e204661696c60008201527f6564000000000000000000000000000000000000000000000000000000000000602082015250565b6000614198602283612e16565b91506141a38261413c565b604082019050919050565b600060208201905081810360008301526141c78161418b565b905091905056fea2646970667358221220ce3cdceac5c5bb5ed8aaf20c07090e43cb7b56a9e1476e22c11bcb2cc396513664736f6c63430008110033","linkReferences":{}},"methodIdentifiers":{"ZERO_VALUE()":"ec732959","getVerificationKey(uint256,uint256)":"7b12ae83","hashBoundParams((uint16,uint72,uint8,uint64,address,bytes32,(bytes32[4],bytes32,bytes32,bytes,bytes)[]))":"28f89c3a","initialized()":"158ef93e","lastEventBlock()":"cd3efe06","localDomain()":"8d3638f4","merkleModule()":"90de3f6e","merkleRoot()":"2eb4a7ab","messageTransmitter()":"7b04c181","nextLeafIndex()":"0be4f422","nftFee()":"9071adc0","nullifiers(uint256,bytes32)":"f19ea903","owner()":"8da5cb5b","remotePools(uint32)":"30ed93c3","rootHistory(uint256,bytes32)":"c718dbda","setTestingMode(bool)":"596d7a68","setVerificationKey(uint256,uint256,(string,(uint256,uint256),(uint256[2],uint256[2]),(uint256[2],uint256[2]),(uint256[2],uint256[2]),(uint256,uint256)[]))":"2ec0f359","shieldFee()":"01c37790","shieldModule()":"35db307c","snarkSafetyVector(uint256)":"129458f4","testingMode()":"c8f35b5d","tokenBlocklist(address)":"815b534f","tokenIDMapping(bytes32)":"b8ceaef2","tokenMessenger()":"46117830","transactModule()":"048e0990","treasury()":"61d027b3","treeNumber()":"66503315","unshieldFee()":"053ed12a","usdc()":"3e413bee","verifierModule()":"41506fc1","verify((((uint256,uint256),(uint256[2],uint256[2]),(uint256,uint256)),bytes32,bytes32[],bytes32[],(uint16,uint72,uint8,uint64,address,bytes32,(bytes32[4],bytes32,bytes32,bytes,bytes)[]),(bytes32,(uint8,address,uint256),uint120)))":"ee990783","zeros(uint256)":"e8295588"},"storageLayout":{"storage":[{"astId":12472,"contract":"contracts/privacy-pool/modules/VerifierModule.sol:VerifierModule","label":"shieldModule","offset":0,"slot":"0","type":"t_address"},{"astId":12475,"contract":"contracts/privacy-pool/modules/VerifierModule.sol:VerifierModule","label":"transactModule","offset":0,"slot":"1","type":"t_address"},{"astId":12478,"contract":"contracts/privacy-pool/modules/VerifierModule.sol:VerifierModule","label":"merkleModule","offset":0,"slot":"2","type":"t_address"},{"astId":12481,"contract":"contracts/privacy-pool/modules/VerifierModule.sol:VerifierModule","label":"verifierModule","offset":0,"slot":"3","type":"t_address"},{"astId":12484,"contract":"contracts/privacy-pool/modules/VerifierModule.sol:VerifierModule","label":"tokenMessenger","offset":0,"slot":"4","type":"t_address"},{"astId":12487,"contract":"contracts/privacy-pool/modules/VerifierModule.sol:VerifierModule","label":"messageTransmitter","offset":0,"slot":"5","type":"t_address"},{"astId":12490,"contract":"contracts/privacy-pool/modules/VerifierModule.sol:VerifierModule","label":"usdc","offset":0,"slot":"6","type":"t_address"},{"astId":12493,"contract":"contracts/privacy-pool/modules/VerifierModule.sol:VerifierModule","label":"localDomain","offset":20,"slot":"6","type":"t_uint32"},{"astId":12498,"contract":"contracts/privacy-pool/modules/VerifierModule.sol:VerifierModule","label":"remotePools","offset":0,"slot":"7","type":"t_mapping(t_uint32,t_bytes32)"},{"astId":12501,"contract":"contracts/privacy-pool/modules/VerifierModule.sol:VerifierModule","label":"treasury","offset":0,"slot":"8","type":"t_address_payable"},{"astId":12504,"contract":"contracts/privacy-pool/modules/VerifierModule.sol:VerifierModule","label":"shieldFee","offset":0,"slot":"9","type":"t_uint120"},{"astId":12507,"contract":"contracts/privacy-pool/modules/VerifierModule.sol:VerifierModule","label":"unshieldFee","offset":15,"slot":"9","type":"t_uint120"},{"astId":12510,"contract":"contracts/privacy-pool/modules/VerifierModule.sol:VerifierModule","label":"nftFee","offset":0,"slot":"10","type":"t_uint120"},{"astId":12515,"contract":"contracts/privacy-pool/modules/VerifierModule.sol:VerifierModule","label":"tokenBlocklist","offset":0,"slot":"11","type":"t_mapping(t_address,t_bool)"},{"astId":12521,"contract":"contracts/privacy-pool/modules/VerifierModule.sol:VerifierModule","label":"tokenIDMapping","offset":0,"slot":"12","type":"t_mapping(t_bytes32,t_struct(TokenData)13493_storage)"},{"astId":12542,"contract":"contracts/privacy-pool/modules/VerifierModule.sol:VerifierModule","label":"nextLeafIndex","offset":0,"slot":"13","type":"t_uint256"},{"astId":12545,"contract":"contracts/privacy-pool/modules/VerifierModule.sol:VerifierModule","label":"merkleRoot","offset":0,"slot":"14","type":"t_bytes32"},{"astId":12548,"contract":"contracts/privacy-pool/modules/VerifierModule.sol:VerifierModule","label":"newTreeRoot","offset":0,"slot":"15","type":"t_bytes32"},{"astId":12551,"contract":"contracts/privacy-pool/modules/VerifierModule.sol:VerifierModule","label":"treeNumber","offset":0,"slot":"16","type":"t_uint256"},{"astId":12556,"contract":"contracts/privacy-pool/modules/VerifierModule.sol:VerifierModule","label":"zeros","offset":0,"slot":"17","type":"t_array(t_bytes32)16_storage"},{"astId":12561,"contract":"contracts/privacy-pool/modules/VerifierModule.sol:VerifierModule","label":"filledSubTrees","offset":0,"slot":"33","type":"t_array(t_bytes32)16_storage"},{"astId":12568,"contract":"contracts/privacy-pool/modules/VerifierModule.sol:VerifierModule","label":"rootHistory","offset":0,"slot":"49","type":"t_mapping(t_uint256,t_mapping(t_bytes32,t_bool))"},{"astId":12575,"contract":"contracts/privacy-pool/modules/VerifierModule.sol:VerifierModule","label":"nullifiers","offset":0,"slot":"50","type":"t_mapping(t_uint256,t_mapping(t_bytes32,t_bool))"},{"astId":12583,"contract":"contracts/privacy-pool/modules/VerifierModule.sol:VerifierModule","label":"verificationKeys","offset":0,"slot":"51","type":"t_mapping(t_uint256,t_mapping(t_uint256,t_struct(VerifyingKey)13594_storage))"},{"astId":12586,"contract":"contracts/privacy-pool/modules/VerifierModule.sol:VerifierModule","label":"testingMode","offset":0,"slot":"52","type":"t_bool"},{"astId":12591,"contract":"contracts/privacy-pool/modules/VerifierModule.sol:VerifierModule","label":"snarkSafetyVector","offset":0,"slot":"53","type":"t_mapping(t_uint256,t_bool)"},{"astId":12594,"contract":"contracts/privacy-pool/modules/VerifierModule.sol:VerifierModule","label":"lastEventBlock","offset":0,"slot":"54","type":"t_uint256"},{"astId":12597,"contract":"contracts/privacy-pool/modules/VerifierModule.sol:VerifierModule","label":"owner","offset":0,"slot":"55","type":"t_address"},{"astId":12600,"contract":"contracts/privacy-pool/modules/VerifierModule.sol:VerifierModule","label":"initialized","offset":20,"slot":"55","type":"t_bool"},{"astId":12605,"contract":"contracts/privacy-pool/modules/VerifierModule.sol:VerifierModule","label":"__gap","offset":0,"slot":"56","type":"t_array(t_uint256)50_storage"}],"types":{"t_address":{"encoding":"inplace","label":"address","numberOfBytes":"20"},"t_address_payable":{"encoding":"inplace","label":"address payable","numberOfBytes":"20"},"t_array(t_bytes32)16_storage":{"encoding":"inplace","label":"bytes32[16]","numberOfBytes":"512","base":"t_bytes32"},"t_array(t_struct(G1Point)13566_storage)dyn_storage":{"encoding":"dynamic_array","label":"struct G1Point[]","numberOfBytes":"32","base":"t_struct(G1Point)13566_storage"},"t_array(t_uint256)2_storage":{"encoding":"inplace","label":"uint256[2]","numberOfBytes":"64","base":"t_uint256"},"t_array(t_uint256)50_storage":{"encoding":"inplace","label":"uint256[50]","numberOfBytes":"1600","base":"t_uint256"},"t_bool":{"encoding":"inplace","label":"bool","numberOfBytes":"1"},"t_bytes32":{"encoding":"inplace","label":"bytes32","numberOfBytes":"32"},"t_enum(TokenType)13485":{"encoding":"inplace","label":"enum TokenType","numberOfBytes":"1"},"t_mapping(t_address,t_bool)":{"encoding":"mapping","key":"t_address","label":"mapping(address => bool)","numberOfBytes":"32","value":"t_bool"},"t_mapping(t_bytes32,t_bool)":{"encoding":"mapping","key":"t_bytes32","label":"mapping(bytes32 => bool)","numberOfBytes":"32","value":"t_bool"},"t_mapping(t_bytes32,t_struct(TokenData)13493_storage)":{"encoding":"mapping","key":"t_bytes32","label":"mapping(bytes32 => struct TokenData)","numberOfBytes":"32","value":"t_struct(TokenData)13493_storage"},"t_mapping(t_uint256,t_bool)":{"encoding":"mapping","key":"t_uint256","label":"mapping(uint256 => bool)","numberOfBytes":"32","value":"t_bool"},"t_mapping(t_uint256,t_mapping(t_bytes32,t_bool))":{"encoding":"mapping","key":"t_uint256","label":"mapping(uint256 => mapping(bytes32 => bool))","numberOfBytes":"32","value":"t_mapping(t_bytes32,t_bool)"},"t_mapping(t_uint256,t_mapping(t_uint256,t_struct(VerifyingKey)13594_storage))":{"encoding":"mapping","key":"t_uint256","label":"mapping(uint256 => mapping(uint256 => struct VerifyingKey))","numberOfBytes":"32","value":"t_mapping(t_uint256,t_struct(VerifyingKey)13594_storage)"},"t_mapping(t_uint256,t_struct(VerifyingKey)13594_storage)":{"encoding":"mapping","key":"t_uint256","label":"mapping(uint256 => struct VerifyingKey)","numberOfBytes":"32","value":"t_struct(VerifyingKey)13594_storage"},"t_mapping(t_uint32,t_bytes32)":{"encoding":"mapping","key":"t_uint32","label":"mapping(uint32 => bytes32)","numberOfBytes":"32","value":"t_bytes32"},"t_string_storage":{"encoding":"bytes","label":"string","numberOfBytes":"32"},"t_struct(G1Point)13566_storage":{"encoding":"inplace","label":"struct G1Point","numberOfBytes":"64","members":[{"astId":13563,"contract":"contracts/privacy-pool/modules/VerifierModule.sol:VerifierModule","label":"x","offset":0,"slot":"0","type":"t_uint256"},{"astId":13565,"contract":"contracts/privacy-pool/modules/VerifierModule.sol:VerifierModule","label":"y","offset":0,"slot":"1","type":"t_uint256"}]},"t_struct(G2Point)13575_storage":{"encoding":"inplace","label":"struct G2Point","numberOfBytes":"128","members":[{"astId":13570,"contract":"contracts/privacy-pool/modules/VerifierModule.sol:VerifierModule","label":"x","offset":0,"slot":"0","type":"t_array(t_uint256)2_storage"},{"astId":13574,"contract":"contracts/privacy-pool/modules/VerifierModule.sol:VerifierModule","label":"y","offset":0,"slot":"2","type":"t_array(t_uint256)2_storage"}]},"t_struct(TokenData)13493_storage":{"encoding":"inplace","label":"struct TokenData","numberOfBytes":"64","members":[{"astId":13488,"contract":"contracts/privacy-pool/modules/VerifierModule.sol:VerifierModule","label":"tokenType","offset":0,"slot":"0","type":"t_enum(TokenType)13485"},{"astId":13490,"contract":"contracts/privacy-pool/modules/VerifierModule.sol:VerifierModule","label":"tokenAddress","offset":1,"slot":"0","type":"t_address"},{"astId":13492,"contract":"contracts/privacy-pool/modules/VerifierModule.sol:VerifierModule","label":"tokenSubID","offset":0,"slot":"1","type":"t_uint256"}]},"t_struct(VerifyingKey)13594_storage":{"encoding":"inplace","label":"struct VerifyingKey","numberOfBytes":"512","members":[{"astId":13577,"contract":"contracts/privacy-pool/modules/VerifierModule.sol:VerifierModule","label":"artifactsIPFSHash","offset":0,"slot":"0","type":"t_string_storage"},{"astId":13580,"contract":"contracts/privacy-pool/modules/VerifierModule.sol:VerifierModule","label":"alpha1","offset":0,"slot":"1","type":"t_struct(G1Point)13566_storage"},{"astId":13583,"contract":"contracts/privacy-pool/modules/VerifierModule.sol:VerifierModule","label":"beta2","offset":0,"slot":"3","type":"t_struct(G2Point)13575_storage"},{"astId":13586,"contract":"contracts/privacy-pool/modules/VerifierModule.sol:VerifierModule","label":"gamma2","offset":0,"slot":"7","type":"t_struct(G2Point)13575_storage"},{"astId":13589,"contract":"contracts/privacy-pool/modules/VerifierModule.sol:VerifierModule","label":"delta2","offset":0,"slot":"11","type":"t_struct(G2Point)13575_storage"},{"astId":13593,"contract":"contracts/privacy-pool/modules/VerifierModule.sol:VerifierModule","label":"ic","offset":0,"slot":"15","type":"t_array(t_struct(G1Point)13566_storage)dyn_storage"}]},"t_uint120":{"encoding":"inplace","label":"uint120","numberOfBytes":"15"},"t_uint256":{"encoding":"inplace","label":"uint256","numberOfBytes":"32"},"t_uint32":{"encoding":"inplace","label":"uint32","numberOfBytes":"4"}}},"id":25}