{"abi":[{"type":"function","name":"ZERO_VALUE","inputs":[],"outputs":[{"name":"","type":"bytes32","internalType":"bytes32"}],"stateMutability":"view"},{"type":"function","name":"getInsertionTreeNumberAndStartingIndex","inputs":[{"name":"_newCommitments","type":"uint256","internalType":"uint256"}],"outputs":[{"name":"treeNum","type":"uint256","internalType":"uint256"},{"name":"startIndex","type":"uint256","internalType":"uint256"}],"stateMutability":"view"},{"type":"function","name":"hashLeftRight","inputs":[{"name":"_left","type":"bytes32","internalType":"bytes32"},{"name":"_right","type":"bytes32","internalType":"bytes32"}],"outputs":[{"name":"","type":"bytes32","internalType":"bytes32"}],"stateMutability":"pure"},{"type":"function","name":"initializeMerkle","inputs":[],"outputs":[],"stateMutability":"nonpayable"},{"type":"function","name":"initialized","inputs":[],"outputs":[{"name":"","type":"bool","internalType":"bool"}],"stateMutability":"view"},{"type":"function","name":"insertLeaves","inputs":[{"name":"_leafHashes","type":"bytes32[]","internalType":"bytes32[]"}],"outputs":[],"stateMutability":"nonpayable"},{"type":"function","name":"lastEventBlock","inputs":[],"outputs":[{"name":"","type":"uint256","internalType":"uint256"}],"stateMutability":"view"},{"type":"function","name":"localDomain","inputs":[],"outputs":[{"name":"","type":"uint32","internalType":"uint32"}],"stateMutability":"view"},{"type":"function","name":"merkleModule","inputs":[],"outputs":[{"name":"","type":"address","internalType":"address"}],"stateMutability":"view"},{"type":"function","name":"merkleRoot","inputs":[],"outputs":[{"name":"","type":"bytes32","internalType":"bytes32"}],"stateMutability":"view"},{"type":"function","name":"messageTransmitter","inputs":[],"outputs":[{"name":"","type":"address","internalType":"address"}],"stateMutability":"view"},{"type":"function","name":"nextLeafIndex","inputs":[],"outputs":[{"name":"","type":"uint256","internalType":"uint256"}],"stateMutability":"view"},{"type":"function","name":"nftFee","inputs":[],"outputs":[{"name":"","type":"uint120","internalType":"uint120"}],"stateMutability":"view"},{"type":"function","name":"nullifiers","inputs":[{"name":"","type":"uint256","internalType":"uint256"},{"name":"","type":"bytes32","internalType":"bytes32"}],"outputs":[{"name":"","type":"bool","internalType":"bool"}],"stateMutability":"view"},{"type":"function","name":"owner","inputs":[],"outputs":[{"name":"","type":"address","internalType":"address"}],"stateMutability":"view"},{"type":"function","name":"remotePools","inputs":[{"name":"","type":"uint32","internalType":"uint32"}],"outputs":[{"name":"","type":"bytes32","internalType":"bytes32"}],"stateMutability":"view"},{"type":"function","name":"rootHistory","inputs":[{"name":"","type":"uint256","internalType":"uint256"},{"name":"","type":"bytes32","internalType":"bytes32"}],"outputs":[{"name":"","type":"bool","internalType":"bool"}],"stateMutability":"view"},{"type":"function","name":"shieldFee","inputs":[],"outputs":[{"name":"","type":"uint120","internalType":"uint120"}],"stateMutability":"view"},{"type":"function","name":"shieldModule","inputs":[],"outputs":[{"name":"","type":"address","internalType":"address"}],"stateMutability":"view"},{"type":"function","name":"snarkSafetyVector","inputs":[{"name":"","type":"uint256","internalType":"uint256"}],"outputs":[{"name":"","type":"bool","internalType":"bool"}],"stateMutability":"view"},{"type":"function","name":"testingMode","inputs":[],"outputs":[{"name":"","type":"bool","internalType":"bool"}],"stateMutability":"view"},{"type":"function","name":"tokenBlocklist","inputs":[{"name":"","type":"address","internalType":"address"}],"outputs":[{"name":"","type":"bool","internalType":"bool"}],"stateMutability":"view"},{"type":"function","name":"tokenIDMapping","inputs":[{"name":"","type":"bytes32","internalType":"bytes32"}],"outputs":[{"name":"tokenType","type":"uint8","internalType":"enum TokenType"},{"name":"tokenAddress","type":"address","internalType":"address"},{"name":"tokenSubID","type":"uint256","internalType":"uint256"}],"stateMutability":"view"},{"type":"function","name":"tokenMessenger","inputs":[],"outputs":[{"name":"","type":"address","internalType":"address"}],"stateMutability":"view"},{"type":"function","name":"transactModule","inputs":[],"outputs":[{"name":"","type":"address","internalType":"address"}],"stateMutability":"view"},{"type":"function","name":"treasury","inputs":[],"outputs":[{"name":"","type":"address","internalType":"address payable"}],"stateMutability":"view"},{"type":"function","name":"treeNumber","inputs":[],"outputs":[{"name":"","type":"uint256","internalType":"uint256"}],"stateMutability":"view"},{"type":"function","name":"unshieldFee","inputs":[],"outputs":[{"name":"","type":"uint120","internalType":"uint120"}],"stateMutability":"view"},{"type":"function","name":"usdc","inputs":[],"outputs":[{"name":"","type":"address","internalType":"address"}],"stateMutability":"view"},{"type":"function","name":"verifierModule","inputs":[],"outputs":[{"name":"","type":"address","internalType":"address"}],"stateMutability":"view"},{"type":"function","name":"zeros","inputs":[{"name":"","type":"uint256","internalType":"uint256"}],"outputs":[{"name":"","type":"bytes32","internalType":"bytes32"}],"stateMutability":"view"}],"bytecode":{"object":"0x608060405234801561001057600080fd5b5061195b806100206000396000f3fe608060405234801561001057600080fd5b50600436106101e55760003560e01c806361d027b31161010f578063b8ceaef2116100a2578063dc52bf9f11610071578063dc52bf9f14610581578063e82955881461059d578063ec732959146105cd578063f19ea903146105eb576101e5565b8063b8ceaef2146104e3578063c718dbda14610515578063c8f35b5d14610545578063cd3efe0614610563576101e5565b80638d3638f4116100de5780638d3638f41461046b5780638da5cb5b146104895780639071adc0146104a757806390de3f6e146104c5576101e5565b806361d027b3146103e157806366503315146103ff5780637b04c1811461041d578063815b534f1461043b576101e5565b80632d974a4c1161018757806338bf282e1161015657806338bf282e146103575780633e413bee1461038757806341506fc1146103a557806346117830146103c3576101e5565b80632d974a4c146102e15780632eb4a7ab146102eb57806330ed93c31461030957806335db307c14610339576101e5565b80630be4f422116101c35780630be4f422146102445780630c9c0c8d14610262578063129458f414610293578063158ef93e146102c3576101e5565b806301c37790146101ea578063048e099014610208578063053ed12a14610226575b600080fd5b6101f261061b565b6040516101ff9190610f35565b60405180910390f35b61021061063c565b60405161021d9190610f91565b60405180910390f35b61022e610662565b60405161023b9190610f35565b60405180910390f35b61024c610683565b6040516102599190610fc5565b60405180910390f35b61027c60048036038101906102779190611020565b610689565b60405161028a92919061104d565b60405180910390f35b6102ad60048036038101906102a89190611020565b6106d8565b6040516102ba9190611091565b60405180910390f35b6102cb6106f8565b6040516102d89190611091565b60405180910390f35b6102e961070b565b005b6102f361087d565b60405161030091906110c5565b60405180910390f35b610323600480360381019061031e919061111c565b610883565b60405161033091906110c5565b60405180910390f35b61034161089b565b60405161034e9190610f91565b60405180910390f35b610371600480360381019061036c9190611175565b6108bf565b60405161037e91906110c5565b60405180910390f35b61038f610955565b60405161039c9190610f91565b60405180910390f35b6103ad61097b565b6040516103ba9190610f91565b60405180910390f35b6103cb6109a1565b6040516103d89190610f91565b60405180910390f35b6103e96109c7565b6040516103f691906111d6565b60405180910390f35b6104076109ed565b6040516104149190610fc5565b60405180910390f35b6104256109f3565b6040516104329190610f91565b60405180910390f35b6104556004803603810190610450919061121d565b610a19565b6040516104629190611091565b60405180910390f35b610473610a39565b6040516104809190611259565b60405180910390f35b610491610a4f565b60405161049e9190610f91565b60405180910390f35b6104af610a75565b6040516104bc9190610f35565b60405180910390f35b6104cd610a96565b6040516104da9190610f91565b60405180910390f35b6104fd60048036038101906104f89190611274565b610abc565b60405161050c93929190611318565b60405180910390f35b61052f600480360381019061052a919061134f565b610b13565b60405161053c9190611091565b60405180910390f35b61054d610b42565b60405161055a9190611091565b60405180910390f35b61056b610b55565b6040516105789190610fc5565b60405180910390f35b61059b600480360381019061059691906114e8565b610b5b565b005b6105b760048036038101906105b29190611020565b610e3f565b6040516105c491906110c5565b60405180910390f35b6105d5610e5a565b6040516105e291906110c5565b60405180910390f35b6106056004803603810190610600919061134f565b610eaf565b6040516106129190611091565b60405180910390f35b600960009054906101000a90046effffffffffffffffffffffffffffff1681565b600160009054906101000a900473ffffffffffffffffffffffffffffffffffffffff1681565b6009600f9054906101000a90046effffffffffffffffffffffffffffff1681565b600d5481565b6000806010600261069a9190611693565b83600d546106a891906116de565b11156106c85760016010546106bd91906116de565b6000915091506106d3565b601054600d54915091505b915091565b60356020528060005260406000206000915054906101000a900460ff1681565b603760149054906101000a900460ff1681565b7f30644e72e131a029b85045b68181585d2833e84879b9709143e1f593f00000017f95b5e3f3c951508f13e7771152f5b7c7329a294917685c10a571c9247e3b9fff60001c61075a9190611741565b60001b601160006010811061077257610771611772565b5b018190555060007f30644e72e131a029b85045b68181585d2833e84879b9709143e1f593f00000017f95b5e3f3c951508f13e7771152f5b7c7329a294917685c10a571c9247e3b9fff60001c6107c89190611741565b60001b905060005b601081101561082c5781601182601081106107ee576107ed611772565b5b0181905550816021826010811061080857610807611772565b5b018190555061081782836108bf565b91508080610824906117a1565b9150506107d0565b5080600f8190555080600e819055506001603160006010548152602001908152602001600020600083815260200190815260200160002060006101000a81548160ff02191690831515021790555050565b600e5481565b60076020528060005260406000206000915090505481565b60008054906101000a900473ffffffffffffffffffffffffffffffffffffffff1681565b600073__$e4b2a9d8f07fa6f22863c7e426f7b84603$__63299e56606040518060400160405280868152602001858152506040518263ffffffff1660e01b815260040161090c9190611894565b602060405180830381865af4158015610929573d6000803e3d6000fd5b505050506040513d601f19601f8201168201806040525081019061094d91906118c4565b905092915050565b600660009054906101000a900473ffffffffffffffffffffffffffffffffffffffff1681565b600360009054906101000a900473ffffffffffffffffffffffffffffffffffffffff1681565b600460009054906101000a900473ffffffffffffffffffffffffffffffffffffffff1681565b600860009054906101000a900473ffffffffffffffffffffffffffffffffffffffff1681565b60105481565b600560009054906101000a900473ffffffffffffffffffffffffffffffffffffffff1681565b600b6020528060005260406000206000915054906101000a900460ff1681565b600660149054906101000a900463ffffffff1681565b603760009054906101000a900473ffffffffffffffffffffffffffffffffffffffff1681565b600a60009054906101000a90046effffffffffffffffffffffffffffff1681565b600260009054906101000a900473ffffffffffffffffffffffffffffffffffffffff1681565b600c6020528060005260406000206000915090508060000160009054906101000a900460ff16908060000160019054906101000a900473ffffffffffffffffffffffffffffffffffffffff16908060010154905083565b60316020528160005260406000206020528060005260406000206000915091509054906101000a900460ff1681565b603460009054906101000a900460ff1681565b60365481565b60008151905060008103610b6f5750610e3c565b60106002610b7d9190611693565b81600d54610b8b91906116de565b1115610b9a57610b99610ede565b5b6000600d54905081600d6000828254610bb391906116de565b9250508190555060008060005b6010811015610dd357600184901c915060006001600286610be19190611741565b03610c6f5782600186901c610bf691906118f1565b9350610c3160218360108110610c0f57610c0e611772565b5b0154888381518110610c2457610c23611772565b5b60200260200101516108bf565b878581518110610c4457610c43611772565b5b602002602001018181525050600181610c5d91906116de565b9050600185610c6c91906116de565b94505b5b85811015610dad576000600187610c8791906118f1565b821015610cbc5787600183610c9c91906116de565b81518110610cad57610cac611772565b5b60200260200101519050610cd5565b60118360108110610cd057610ccf611772565b5b015490505b600187610ce291906118f1565b821480610cfa5750600287610cf791906118f1565b82145b15610d3457878281518110610d1257610d11611772565b5b602002602001015160218460108110610d2e57610d2d611772565b5b01819055505b83600187901c610d4491906118f1565b9450610d6a888381518110610d5c57610d5b611772565b5b6020026020010151826108bf565b888681518110610d7d57610d7c611772565b5b602002602001018181525050600286610d9691906116de565b955050600281610da691906116de565b9050610c70565b829450600184610dbd91906116de565b9550508080610dcb906117a1565b915050610bc0565b5084600081518110610de857610de7611772565b5b6020026020010151600e8190555060016031600060105481526020019081526020016000206000600e54815260200190815260200160002060006101000a81548160ff021916908315150217905550505050505b50565b60118160108110610e4f57600080fd5b016000915090505481565b7f30644e72e131a029b85045b68181585d2833e84879b9709143e1f593f00000017f95b5e3f3c951508f13e7771152f5b7c7329a294917685c10a571c9247e3b9fff60001c610ea99190611741565b60001b81565b60326020528160005260406000206020528060005260406000206000915091509054906101000a900460ff1681565b600f54600e819055506000600d81905550600160106000828254610f0291906116de565b92505081905550565b60006effffffffffffffffffffffffffffff82169050919050565b610f2f81610f0b565b82525050565b6000602082019050610f4a6000830184610f26565b92915050565b600073ffffffffffffffffffffffffffffffffffffffff82169050919050565b6000610f7b82610f50565b9050919050565b610f8b81610f70565b82525050565b6000602082019050610fa66000830184610f82565b92915050565b6000819050919050565b610fbf81610fac565b82525050565b6000602082019050610fda6000830184610fb6565b92915050565b6000604051905090565b600080fd5b600080fd5b610ffd81610fac565b811461100857600080fd5b50565b60008135905061101a81610ff4565b92915050565b60006020828403121561103657611035610fea565b5b60006110448482850161100b565b91505092915050565b60006040820190506110626000830185610fb6565b61106f6020830184610fb6565b9392505050565b60008115159050919050565b61108b81611076565b82525050565b60006020820190506110a66000830184611082565b92915050565b6000819050919050565b6110bf816110ac565b82525050565b60006020820190506110da60008301846110b6565b92915050565b600063ffffffff82169050919050565b6110f9816110e0565b811461110457600080fd5b50565b600081359050611116816110f0565b92915050565b60006020828403121561113257611131610fea565b5b600061114084828501611107565b91505092915050565b611152816110ac565b811461115d57600080fd5b50565b60008135905061116f81611149565b92915050565b6000806040838503121561118c5761118b610fea565b5b600061119a85828601611160565b92505060206111ab85828601611160565b9150509250929050565b60006111c082610f50565b9050919050565b6111d0816111b5565b82525050565b60006020820190506111eb60008301846111c7565b92915050565b6111fa81610f70565b811461120557600080fd5b50565b600081359050611217816111f1565b92915050565b60006020828403121561123357611232610fea565b5b600061124184828501611208565b91505092915050565b611253816110e0565b82525050565b600060208201905061126e600083018461124a565b92915050565b60006020828403121561128a57611289610fea565b5b600061129884828501611160565b91505092915050565b7f4e487b7100000000000000000000000000000000000000000000000000000000600052602160045260246000fd5b600381106112e1576112e06112a1565b5b50565b60008190506112f2826112d0565b919050565b6000611302826112e4565b9050919050565b611312816112f7565b82525050565b600060608201905061132d6000830186611309565b61133a6020830185610f82565b6113476040830184610fb6565b949350505050565b6000806040838503121561136657611365610fea565b5b60006113748582860161100b565b925050602061138585828601611160565b9150509250929050565b600080fd5b6000601f19601f8301169050919050565b7f4e487b7100000000000000000000000000000000000000000000000000000000600052604160045260246000fd5b6113dd82611394565b810181811067ffffffffffffffff821117156113fc576113fb6113a5565b5b80604052505050565b600061140f610fe0565b905061141b82826113d4565b919050565b600067ffffffffffffffff82111561143b5761143a6113a5565b5b602082029050602081019050919050565b600080fd5b600061146461145f84611420565b611405565b905080838252602082019050602084028301858111156114875761148661144c565b5b835b818110156114b0578061149c8882611160565b845260208401935050602081019050611489565b5050509392505050565b600082601f8301126114cf576114ce61138f565b5b81356114df848260208601611451565b91505092915050565b6000602082840312156114fe576114fd610fea565b5b600082013567ffffffffffffffff81111561151c5761151b610fef565b5b611528848285016114ba565b91505092915050565b7f4e487b7100000000000000000000000000000000000000000000000000000000600052601160045260246000fd5b60008160011c9050919050565b6000808291508390505b60018511156115b75780860481111561159357611592611531565b5b60018516156115a25780820291505b80810290506115b085611560565b9450611577565b94509492505050565b6000826115d0576001905061168c565b816115de576000905061168c565b81600181146115f457600281146115fe5761162d565b600191505061168c565b60ff8411156116105761160f611531565b5b8360020a91508482111561162757611626611531565b5b5061168c565b5060208310610133831016604e8410600b84101617156116625782820a90508381111561165d5761165c611531565b5b61168c565b61166f848484600161156d565b9250905081840481111561168657611685611531565b5b81810290505b9392505050565b600061169e82610fac565b91506116a983610fac565b92506116d67fffffffffffffffffffffffffffffffffffffffffffffffffffffffffffffffff84846115c0565b905092915050565b60006116e982610fac565b91506116f483610fac565b925082820190508082111561170c5761170b611531565b5b92915050565b7f4e487b7100000000000000000000000000000000000000000000000000000000600052601260045260246000fd5b600061174c82610fac565b915061175783610fac565b92508261176757611766611712565b5b828206905092915050565b7f4e487b7100000000000000000000000000000000000000000000000000000000600052603260045260246000fd5b60006117ac82610fac565b91507fffffffffffffffffffffffffffffffffffffffffffffffffffffffffffffffff82036117de576117dd611531565b5b600182019050919050565b600060029050919050565b600081905092915050565b6000819050919050565b611812816110ac565b82525050565b60006118248383611809565b60208301905092915050565b6000602082019050919050565b611846816117e9565b61185081846117f4565b925061185b826117ff565b8060005b8381101561188c5781516118738782611818565b965061187e83611830565b92505060018101905061185f565b505050505050565b60006040820190506118a9600083018461183d565b92915050565b6000815190506118be81611149565b92915050565b6000602082840312156118da576118d9610fea565b5b60006118e8848285016118af565b91505092915050565b60006118fc82610fac565b915061190783610fac565b925082820390508181111561191f5761191e611531565b5b9291505056fea264697066735822122036eada9a97f7cc28fe5560b3a255f3b48404c720e0992c4b5537ce787a1d0f6a64736f6c63430008110033","linkReferences":{"contracts/railgun/logic/Poseidon.sol":{"PoseidonT3":[{"start":2275,"length":20}]}}},"methodIdentifiers":{"ZERO_VALUE()":"ec732959","getInsertionTreeNumberAndStartingIndex(uint256)":"0c9c0c8d","hashLeftRight(bytes32,bytes32)":"38bf282e","initializeMerkle()":"2d974a4c","initialized()":"158ef93e","insertLeaves(bytes32[])":"dc52bf9f","lastEventBlock()":"cd3efe06","localDomain()":"8d3638f4","merkleModule()":"90de3f6e","merkleRoot()":"2eb4a7ab","messageTransmitter()":"7b04c181","nextLeafIndex()":"0be4f422","nftFee()":"9071adc0","nullifiers(uint256,bytes32)":"f19ea903","owner()":"8da5cb5b","remotePools(uint32)":"30ed93c3","rootHistory(uint256,bytes32)":"c718dbda","shieldFee()":"01c37790","shieldModule()":"35db307c","snarkSafetyVector(uint256)":"129458f4","testingMode()":"c8f35b5d","tokenBlocklist(address)":"815b534f","tokenIDMapping(bytes32)":"b8ceaef2","tokenMessenger()":"46117830","transactModule()":"048e0990","treasury()":"61d027b3","treeNumber()":"66503315","unshieldFee()":"053ed12a","usdc()":"3e413bee","verifierModule()":"41506fc1","zeros(uint256)":"e8295588"},"storageLayout":{"storage":[{"astId":12472,"contract":"contracts/privacy-pool/modules/MerkleModule.sol:MerkleModule","label":"shieldModule","offset":0,"slot":"0","type":"t_address"},{"astId":12475,"contract":"contracts/privacy-pool/modules/MerkleModule.sol:MerkleModule","label":"transactModule","offset":0,"slot":"1","type":"t_address"},{"astId":12478,"contract":"contracts/privacy-pool/modules/MerkleModule.sol:MerkleModule","label":"merkleModule","offset":0,"slot":"2","type":"t_address"},{"astId":12481,"contract":"contracts/privacy-pool/modules/MerkleModule.sol:MerkleModule","label":"verifierModule","offset":0,"slot":"3","type":"t_address"},{"astId":12484,"contract":"contracts/privacy-pool/modules/MerkleModule.sol:MerkleModule","label":"tokenMessenger","offset":0,"slot":"4","type":"t_address"},{"astId":12487,"contract":"contracts/privacy-pool/modules/MerkleModule.sol:MerkleModule","label":"messageTransmitter","offset":0,"slot":"5","type":"t_address"},{"astId":12490,"contract":"contracts/privacy-pool/modules/MerkleModule.sol:MerkleModule","label":"usdc","offset":0,"slot":"6","type":"t_address"},{"astId":12493,"contract":"contracts/privacy-pool/modules/MerkleModule.sol:MerkleModule","label":"localDomain","offset":20,"slot":"6","type":"t_uint32"},{"astId":12498,"contract":"contracts/privacy-pool/modules/MerkleModule.sol:MerkleModule","label":"remotePools","offset":0,"slot":"7","type":"t_mapping(t_uint32,t_bytes32)"},{"astId":12501,"contract":"contracts/privacy-pool/modules/MerkleModule.sol:MerkleModule","label":"treasury","offset":0,"slot":"8","type":"t_address_payable"},{"astId":12504,"contract":"contracts/privacy-pool/modules/MerkleModule.sol:MerkleModule","label":"shieldFee","offset":0,"slot":"9","type":"t_uint120"},{"astId":12507,"contract":"contracts/privacy-pool/modules/MerkleModule.sol:MerkleModule","label":"unshieldFee","offset":15,"slot":"9","type":"t_uint120"},{"astId":12510,"contract":"contracts/privacy-pool/modules/MerkleModule.sol:MerkleModule","label":"nftFee","offset":0,"slot":"10","type":"t_uint120"},{"astId":12515,"contract":"contracts/privacy-pool/modules/MerkleModule.sol:MerkleModule","label":"tokenBlocklist","offset":0,"slot":"11","type":"t_mapping(t_address,t_bool)"},{"astId":12521,"contract":"contracts/privacy-pool/modules/MerkleModule.sol:MerkleModule","label":"tokenIDMapping","offset":0,"slot":"12","type":"t_mapping(t_bytes32,t_struct(TokenData)13493_storage)"},{"astId":12542,"contract":"contracts/privacy-pool/modules/MerkleModule.sol:MerkleModule","label":"nextLeafIndex","offset":0,"slot":"13","type":"t_uint256"},{"astId":12545,"contract":"contracts/privacy-pool/modules/MerkleModule.sol:MerkleModule","label":"merkleRoot","offset":0,"slot":"14","type":"t_bytes32"},{"astId":12548,"contract":"contracts/privacy-pool/modules/MerkleModule.sol:MerkleModule","label":"newTreeRoot","offset":0,"slot":"15","type":"t_bytes32"},{"astId":12551,"contract":"contracts/privacy-pool/modules/MerkleModule.sol:MerkleModule","label":"treeNumber","offset":0,"slot":"16","type":"t_uint256"},{"astId":12556,"contract":"contracts/privacy-pool/modules/MerkleModule.sol:MerkleModule","label":"zeros","offset":0,"slot":"17","type":"t_array(t_bytes32)16_storage"},{"astId":12561,"contract":"contracts/privacy-pool/modules/MerkleModule.sol:MerkleModule","label":"filledSubTrees","offset":0,"slot":"33","type":"t_array(t_bytes32)16_storage"},{"astId":12568,"contract":"contracts/privacy-pool/modules/MerkleModule.sol:MerkleModule","label":"rootHistory","offset":0,"slot":"49","type":"t_mapping(t_uint256,t_mapping(t_bytes32,t_bool))"},{"astId":12575,"contract":"contracts/privacy-pool/modules/MerkleModule.sol:MerkleModule","label":"nullifiers","offset":0,"slot":"50","type":"t_mapping(t_uint256,t_mapping(t_bytes32,t_bool))"},{"astId":12583,"contract":"contracts/privacy-pool/modules/MerkleModule.sol:MerkleModule","label":"verificationKeys","offset":0,"slot":"51","type":"t_mapping(t_uint256,t_mapping(t_uint256,t_struct(VerifyingKey)13594_storage))"},{"astId":12586,"contract":"contracts/privacy-pool/modules/MerkleModule.sol:MerkleModule","label":"testingMode","offset":0,"slot":"52","type":"t_bool"},{"astId":12591,"contract":"contracts/privacy-pool/modules/MerkleModule.sol:MerkleModule","label":"snarkSafetyVector","offset":0,"slot":"53","type":"t_mapping(t_uint256,t_bool)"},{"astId":12594,"contract":"contracts/privacy-pool/modules/MerkleModule.sol:MerkleModule","label":"lastEventBlock","offset":0,"slot":"54","type":"t_uint256"},{"astId":12597,"contract":"contracts/privacy-pool/modules/MerkleModule.sol:MerkleModule","label":"owner","offset":0,"slot":"55","type":"t_address"},{"astId":12600,"contract":"contracts/privacy-pool/modules/MerkleModule.sol:MerkleModule","label":"initialized","offset":20,"slot":"55","type":"t_bool"},{"astId":12605,"contract":"contracts/privacy-pool/modules/MerkleModule.sol:MerkleModule","label":"__gap","offset":0,"slot":"56","type":"t_array(t_uint256)50_storage"}],"types":{"t_address":{"encoding":"inplace","label":"address","numberOfBytes":"20"},"t_address_payable":{"encoding":"inplace","label":"address payable","numberOfBytes":"20"},"t_array(t_bytes32)16_storage":{"encoding":"inplace","label":"bytes32[16]","numberOfBytes":"512","base":"t_bytes32"},"t_array(t_struct(G1Point)13566_storage)dyn_storage":{"encoding":"dynamic_array","label":"struct G1Point[]","numberOfBytes":"32","base":"t_struct(G1Point)13566_storage"},"t_array(t_uint256)2_storage":{"encoding":"inplace","label":"uint256[2]","numberOfBytes":"64","base":"t_uint256"},"t_array(t_uint256)50_storage":{"encoding":"inplace","label":"uint256[50]","numberOfBytes":"1600","base":"t_uint256"},"t_bool":{"encoding":"inplace","label":"bool","numberOfBytes":"1"},"t_bytes32":{"encoding":"inplace","label":"bytes32","numberOfBytes":"32"},"t_enum(TokenType)13485":{"encoding":"inplace","label":"enum TokenType","numberOfBytes":"1"},"t_mapping(t_address,t_bool)":{"encoding":"mapping","key":"t_address","label":"mapping(address => bool)","numberOfBytes":"32","value":"t_bool"},"t_mapping(t_bytes32,t_bool)":{"encoding":"mapping","key":"t_bytes32","label":"mapping(bytes32 => bool)","numberOfBytes":"32","value":"t_bool"},"t_mapping(t_bytes32,t_struct(TokenData)13493_storage)":{"encoding":"mapping","key":"t_bytes32","label":"mapping(bytes32 => struct TokenData)","numberOfBytes":"32","value":"t_struct(TokenData)13493_storage"},"t_mapping(t_uint256,t_bool)":{"encoding":"mapping","key":"t_uint256","label":"mapping(uint256 => bool)","numberOfBytes":"32","value":"t_bool"},"t_mapping(t_uint256,t_mapping(t_bytes32,t_bool))":{"encoding":"mapping","key":"t_uint256","label":"mapping(uint256 => mapping(bytes32 => bool))","numberOfBytes":"32","value":"t_mapping(t_bytes32,t_bool)"},"t_mapping(t_uint256,t_mapping(t_uint256,t_struct(VerifyingKey)13594_storage))":{"encoding":"mapping","key":"t_uint256","label":"mapping(uint256 => mapping(uint256 => struct VerifyingKey))","numberOfBytes":"32","value":"t_mapping(t_uint256,t_struct(VerifyingKey)13594_storage)"},"t_mapping(t_uint256,t_struct(VerifyingKey)13594_storage)":{"encoding":"mapping","key":"t_uint256","label":"mapping(uint256 => struct VerifyingKey)","numberOfBytes":"32","value":"t_struct(VerifyingKey)13594_storage"},"t_mapping(t_uint32,t_bytes32)":{"encoding":"mapping","key":"t_uint32","label":"mapping(uint32 => bytes32)","numberOfBytes":"32","value":"t_bytes32"},"t_string_storage":{"encoding":"bytes","label":"string","numberOfBytes":"32"},"t_struct(G1Point)13566_storage":{"encoding":"inplace","label":"struct G1Point","numberOfBytes":"64","members":[{"astId":13563,"contract":"contracts/privacy-pool/modules/MerkleModule.sol:MerkleModule","label":"x","offset":0,"slot":"0","type":"t_uint256"},{"astId":13565,"contract":"contracts/privacy-pool/modules/MerkleModule.sol:MerkleModule","label":"y","offset":0,"slot":"1","type":"t_uint256"}]},"t_struct(G2Point)13575_storage":{"encoding":"inplace","label":"struct G2Point","numberOfBytes":"128","members":[{"astId":13570,"contract":"contracts/privacy-pool/modules/MerkleModule.sol:MerkleModule","label":"x","offset":0,"slot":"0","type":"t_array(t_uint256)2_storage"},{"astId":13574,"contract":"contracts/privacy-pool/modules/MerkleModule.sol:MerkleModule","label":"y","offset":0,"slot":"2","type":"t_array(t_uint256)2_storage"}]},"t_struct(TokenData)13493_storage":{"encoding":"inplace","label":"struct TokenData","numberOfBytes":"64","members":[{"astId":13488,"contract":"contracts/privacy-pool/modules/MerkleModule.sol:MerkleModule","label":"tokenType","offset":0,"slot":"0","type":"t_enum(TokenType)13485"},{"astId":13490,"contract":"contracts/privacy-pool/modules/MerkleModule.sol:MerkleModule","label":"tokenAddress","offset":1,"slot":"0","type":"t_address"},{"astId":13492,"contract":"contracts/privacy-pool/modules/MerkleModule.sol:MerkleModule","label":"tokenSubID","offset":0,"slot":"1","type":"t_uint256"}]},"t_struct(VerifyingKey)13594_storage":{"encoding":"inplace","label":"struct VerifyingKey","numberOfBytes":"512","members":[{"astId":13577,"contract":"contracts/privacy-pool/modules/MerkleModule.sol:MerkleModule","label":"artifactsIPFSHash","offset":0,"slot":"0","type":"t_string_storage"},{"astId":13580,"contract":"contracts/privacy-pool/modules/MerkleModule.sol:MerkleModule","label":"alpha1","offset":0,"slot":"1","type":"t_struct(G1Point)13566_storage"},{"astId":13583,"contract":"contracts/privacy-pool/modules/MerkleModule.sol:MerkleModule","label":"beta2","offset":0,"slot":"3","type":"t_struct(G2Point)13575_storage"},{"astId":13586,"contract":"contracts/privacy-pool/modules/MerkleModule.sol:MerkleModule","label":"gamma2","offset":0,"slot":"7","type":"t_struct(G2Point)13575_storage"},{"astId":13589,"contract":"contracts/privacy-pool/modules/MerkleModule.sol:MerkleModule","label":"delta2","offset":0,"slot":"11","type":"t_struct(G2Point)13575_storage"},{"astId":13593,"contract":"contracts/privacy-pool/modules/MerkleModule.sol:MerkleModule","label":"ic","offset":0,"slot":"15","type":"t_array(t_struct(G1Point)13566_storage)dyn_storage"}]},"t_uint120":{"encoding":"inplace","label":"uint120","numberOfBytes":"15"},"t_uint256":{"encoding":"inplace","label":"uint256","numberOfBytes":"32"},"t_uint32":{"encoding":"inplace","label":"uint32","numberOfBytes":"4"}}},"id":22}