{"abi":[{"type":"function","name":"ZERO_VALUE","inputs":[],"outputs":[{"name":"","type":"bytes32","internalType":"bytes32"}],"stateMutability":"view"},{"type":"function","name":"getInsertionTreeNumberAndStartingIndex","inputs":[{"name":"_newCommitments","type":"uint256","internalType":"uint256"}],"outputs":[{"name":"treeNum","type":"uint256","internalType":"uint256"},{"name":"startIndex","type":"uint256","internalType":"uint256"}],"stateMutability":"view"},{"type":"function","name":"hashLeftRight","inputs":[{"name":"_left","type":"bytes32","internalType":"bytes32"},{"name":"_right","type":"bytes32","internalType":"bytes32"}],"outputs":[{"name":"","type":"bytes32","internalType":"bytes32"}],"stateMutability":"pure"},{"type":"function","name":"initializeMerkle","inputs":[],"outputs":[],"stateMutability":"nonpayable"},{"type":"function","name":"initialized","inputs":[],"outputs":[{"name":"","type":"bool","internalType":"bool"}],"stateMutability":"view"},{"type":"function","name":"insertLeaves","inputs":[{"name":"_leafHashes","type":"bytes32[]","internalType":"bytes32[]"}],"outputs":[],"stateMutability":"nonpayable"},{"type":"function","name":"lastEventBlock","inputs":[],"outputs":[{"name":"","type":"uint256","internalType":"uint256"}],"stateMutability":"view"},{"type":"function","name":"localDomain","inputs":[],"outputs":[{"name":"","type":"uint32","internalType":"uint32"}],"stateMutability":"view"},{"type":"function","name":"merkleModule","inputs":[],"outputs":[{"name":"","type":"address","internalType":"address"}],"stateMutability":"view"},{"type":"function","name":"merkleRoot","inputs":[],"outputs":[{"name":"","type":"bytes32","internalType":"bytes32"}],"stateMutability":"view"},{"type":"function","name":"messageTransmitter","inputs":[],"outputs":[{"name":"","type":"address","internalType":"address"}],"stateMutability":"view"},{"type":"function","name":"nextLeafIndex","inputs":[],"outputs":[{"name":"","type":"uint256","internalType":"uint256"}],"stateMutability":"view"},{"type":"function","name":"nftFee","inputs":[],"outputs":[{"name":"","type":"uint120","internalType":"uint120"}],"stateMutability":"view"},{"type":"function","name":"nullifiers","inputs":[{"name":"","type":"uint256","internalType":"uint256"},{"name":"","type":"bytes32","internalType":"bytes32"}],"outputs":[{"name":"","type":"bool","internalType":"bool"}],"stateMutability":"view"},{"type":"function","name":"owner","inputs":[],"outputs":[{"name":"","type":"address","internalType":"address"}],"stateMutability":"view"},{"type":"function","name":"privilegedShieldCallers","inputs":[{"name":"","type":"address","internalType":"address"}],"outputs":[{"name":"","type":"bool","internalType":"bool"}],"stateMutability":"view"},{"type":"function","name":"remotePools","inputs":[{"name":"","type":"uint32","internalType":"uint32"}],"outputs":[{"name":"","type":"bytes32","internalType":"bytes32"}],"stateMutability":"view"},{"type":"function","name":"rootHistory","inputs":[{"name":"","type":"uint256","internalType":"uint256"},{"name":"","type":"bytes32","internalType":"bytes32"}],"outputs":[{"name":"","type":"bool","internalType":"bool"}],"stateMutability":"view"},{"type":"function","name":"shieldFee","inputs":[],"outputs":[{"name":"","type":"uint120","internalType":"uint120"}],"stateMutability":"view"},{"type":"function","name":"shieldModule","inputs":[],"outputs":[{"name":"","type":"address","internalType":"address"}],"stateMutability":"view"},{"type":"function","name":"snarkSafetyVector","inputs":[{"name":"","type":"uint256","internalType":"uint256"}],"outputs":[{"name":"","type":"bool","internalType":"bool"}],"stateMutability":"view"},{"type":"function","name":"testingMode","inputs":[],"outputs":[{"name":"","type":"bool","internalType":"bool"}],"stateMutability":"view"},{"type":"function","name":"tokenBlocklist","inputs":[{"name":"","type":"address","internalType":"address"}],"outputs":[{"name":"","type":"bool","internalType":"bool"}],"stateMutability":"view"},{"type":"function","name":"tokenIDMapping","inputs":[{"name":"","type":"bytes32","internalType":"bytes32"}],"outputs":[{"name":"tokenType","type":"uint8","internalType":"enum TokenType"},{"name":"tokenAddress","type":"address","internalType":"address"},{"name":"tokenSubID","type":"uint256","internalType":"uint256"}],"stateMutability":"view"},{"type":"function","name":"tokenMessenger","inputs":[],"outputs":[{"name":"","type":"address","internalType":"address"}],"stateMutability":"view"},{"type":"function","name":"transactModule","inputs":[],"outputs":[{"name":"","type":"address","internalType":"address"}],"stateMutability":"view"},{"type":"function","name":"treasury","inputs":[],"outputs":[{"name":"","type":"address","internalType":"address payable"}],"stateMutability":"view"},{"type":"function","name":"treeNumber","inputs":[],"outputs":[{"name":"","type":"uint256","internalType":"uint256"}],"stateMutability":"view"},{"type":"function","name":"unshieldFee","inputs":[],"outputs":[{"name":"","type":"uint120","internalType":"uint120"}],"stateMutability":"view"},{"type":"function","name":"usdc","inputs":[],"outputs":[{"name":"","type":"address","internalType":"address"}],"stateMutability":"view"},{"type":"function","name":"verifierModule","inputs":[],"outputs":[{"name":"","type":"address","internalType":"address"}],"stateMutability":"view"},{"type":"function","name":"zeros","inputs":[{"name":"","type":"uint256","internalType":"uint256"}],"outputs":[{"name":"","type":"bytes32","internalType":"bytes32"}],"stateMutability":"view"}],"bytecode":{"object":"0x608060405234801561001057600080fd5b506119b6806100206000396000f3fe608060405234801561001057600080fd5b50600436106101f05760003560e01c8063665033151161010f578063b8ceaef2116100a2578063dc52bf9f11610071578063dc52bf9f146105bc578063e8295588146105d8578063ec73295914610608578063f19ea90314610626576101f0565b8063b8ceaef21461051e578063c718dbda14610550578063c8f35b5d14610580578063cd3efe061461059e576101f0565b80638da5cb5b116100de5780638da5cb5b146104945780639071adc0146104b257806390de3f6e146104d0578063b069b70f146104ee576101f0565b8063665033151461040a5780637b04c18114610428578063815b534f146104465780638d3638f414610476576101f0565b80632eb4a7ab116101875780633e413bee116101565780633e413bee1461039257806341506fc1146103b057806346117830146103ce57806361d027b3146103ec576101f0565b80632eb4a7ab146102f657806330ed93c31461031457806335db307c1461034457806338bf282e14610362576101f0565b80630c9c0c8d116101c35780630c9c0c8d1461026d578063129458f41461029e578063158ef93e146102ce5780632d974a4c146102ec576101f0565b806301c37790146101f5578063048e099014610213578063053ed12a146102315780630be4f4221461024f575b600080fd5b6101fd610656565b60405161020a9190610f90565b60405180910390f35b61021b610677565b6040516102289190610fec565b60405180910390f35b61023961069d565b6040516102469190610f90565b60405180910390f35b6102576106be565b6040516102649190611020565b60405180910390f35b6102876004803603810190610282919061107b565b6106c4565b6040516102959291906110a8565b60405180910390f35b6102b860048036038101906102b3919061107b565b610713565b6040516102c591906110ec565b60405180910390f35b6102d6610733565b6040516102e391906110ec565b60405180910390f35b6102f4610746565b005b6102fe6108b8565b60405161030b9190611120565b60405180910390f35b61032e60048036038101906103299190611177565b6108be565b60405161033b9190611120565b60405180910390f35b61034c6108d6565b6040516103599190610fec565b60405180910390f35b61037c600480360381019061037791906111d0565b6108fa565b6040516103899190611120565b60405180910390f35b61039a610990565b6040516103a79190610fec565b60405180910390f35b6103b86109b6565b6040516103c59190610fec565b60405180910390f35b6103d66109dc565b6040516103e39190610fec565b60405180910390f35b6103f4610a02565b6040516104019190611231565b60405180910390f35b610412610a28565b60405161041f9190611020565b60405180910390f35b610430610a2e565b60405161043d9190610fec565b60405180910390f35b610460600480360381019061045b9190611278565b610a54565b60405161046d91906110ec565b60405180910390f35b61047e610a74565b60405161048b91906112b4565b60405180910390f35b61049c610a8a565b6040516104a99190610fec565b60405180910390f35b6104ba610ab0565b6040516104c79190610f90565b60405180910390f35b6104d8610ad1565b6040516104e59190610fec565b60405180910390f35b61050860048036038101906105039190611278565b610af7565b60405161051591906110ec565b60405180910390f35b610538600480360381019061053391906112cf565b610b17565b60405161054793929190611373565b60405180910390f35b61056a600480360381019061056591906113aa565b610b6e565b60405161057791906110ec565b60405180910390f35b610588610b9d565b60405161059591906110ec565b60405180910390f35b6105a6610bb0565b6040516105b39190611020565b60405180910390f35b6105d660048036038101906105d19190611543565b610bb6565b005b6105f260048036038101906105ed919061107b565b610e9a565b6040516105ff9190611120565b60405180910390f35b610610610eb5565b60405161061d9190611120565b60405180910390f35b610640600480360381019061063b91906113aa565b610f0a565b60405161064d91906110ec565b60405180910390f35b600960009054906101000a90046effffffffffffffffffffffffffffff1681565b600160009054906101000a900473ffffffffffffffffffffffffffffffffffffffff1681565b6009600f9054906101000a90046effffffffffffffffffffffffffffff1681565b600e5481565b600080601060026106d591906116ee565b83600e546106e39190611739565b11156107035760016011546106f89190611739565b60009150915061070e565b601154600e54915091505b915091565b60366020528060005260406000206000915054906101000a900460ff1681565b603860149054906101000a900460ff1681565b7f30644e72e131a029b85045b68181585d2833e84879b9709143e1f593f00000017f95b5e3f3c951508f13e7771152f5b7c7329a294917685c10a571c9247e3b9fff60001c610795919061179c565b60001b60126000601081106107ad576107ac6117cd565b5b018190555060007f30644e72e131a029b85045b68181585d2833e84879b9709143e1f593f00000017f95b5e3f3c951508f13e7771152f5b7c7329a294917685c10a571c9247e3b9fff60001c610803919061179c565b60001b905060005b6010811015610867578160128260108110610829576108286117cd565b5b01819055508160228260108110610843576108426117cd565b5b018190555061085282836108fa565b9150808061085f906117fc565b91505061080b565b508060108190555080600f819055506001603260006011548152602001908152602001600020600083815260200190815260200160002060006101000a81548160ff02191690831515021790555050565b600f5481565b60076020528060005260406000206000915090505481565b60008054906101000a900473ffffffffffffffffffffffffffffffffffffffff1681565b600073__$e4b2a9d8f07fa6f22863c7e426f7b84603$__63299e56606040518060400160405280868152602001858152506040518263ffffffff1660e01b815260040161094791906118ef565b602060405180830381865af4158015610964573d6000803e3d6000fd5b505050506040513d601f19601f82011682018060405250810190610988919061191f565b905092915050565b600660009054906101000a900473ffffffffffffffffffffffffffffffffffffffff1681565b600360009054906101000a900473ffffffffffffffffffffffffffffffffffffffff1681565b600460009054906101000a900473ffffffffffffffffffffffffffffffffffffffff1681565b600860009054906101000a900473ffffffffffffffffffffffffffffffffffffffff1681565b60115481565b600560009054906101000a900473ffffffffffffffffffffffffffffffffffffffff1681565b600c6020528060005260406000206000915054906101000a900460ff1681565b600660149054906101000a900463ffffffff1681565b603860009054906101000a900473ffffffffffffffffffffffffffffffffffffffff1681565b600a60009054906101000a90046effffffffffffffffffffffffffffff1681565b600260009054906101000a900473ffffffffffffffffffffffffffffffffffffffff1681565b600b6020528060005260406000206000915054906101000a900460ff1681565b600d6020528060005260406000206000915090508060000160009054906101000a900460ff16908060000160019054906101000a900473ffffffffffffffffffffffffffffffffffffffff16908060010154905083565b60326020528160005260406000206020528060005260406000206000915091509054906101000a900460ff1681565b603560009054906101000a900460ff1681565b60375481565b60008151905060008103610bca5750610e97565b60106002610bd891906116ee565b81600e54610be69190611739565b1115610bf557610bf4610f39565b5b6000600e54905081600e6000828254610c0e9190611739565b9250508190555060008060005b6010811015610e2e57600184901c915060006001600286610c3c919061179c565b03610cca5782600186901c610c51919061194c565b9350610c8c60228360108110610c6a57610c696117cd565b5b0154888381518110610c7f57610c7e6117cd565b5b60200260200101516108fa565b878581518110610c9f57610c9e6117cd565b5b602002602001018181525050600181610cb89190611739565b9050600185610cc79190611739565b94505b5b85811015610e08576000600187610ce2919061194c565b821015610d175787600183610cf79190611739565b81518110610d0857610d076117cd565b5b60200260200101519050610d30565b60128360108110610d2b57610d2a6117cd565b5b015490505b600187610d3d919061194c565b821480610d555750600287610d52919061194c565b82145b15610d8f57878281518110610d6d57610d6c6117cd565b5b602002602001015160228460108110610d8957610d886117cd565b5b01819055505b83600187901c610d9f919061194c565b9450610dc5888381518110610db757610db66117cd565b5b6020026020010151826108fa565b888681518110610dd857610dd76117cd565b5b602002602001018181525050600286610df19190611739565b955050600281610e019190611739565b9050610ccb565b829450600184610e189190611739565b9550508080610e26906117fc565b915050610c1b565b5084600081518110610e4357610e426117cd565b5b6020026020010151600f8190555060016032600060115481526020019081526020016000206000600f54815260200190815260200160002060006101000a81548160ff021916908315150217905550505050505b50565b60128160108110610eaa57600080fd5b016000915090505481565b7f30644e72e131a029b85045b68181585d2833e84879b9709143e1f593f00000017f95b5e3f3c951508f13e7771152f5b7c7329a294917685c10a571c9247e3b9fff60001c610f04919061179c565b60001b81565b60336020528160005260406000206020528060005260406000206000915091509054906101000a900460ff1681565b601054600f819055506000600e81905550600160116000828254610f5d9190611739565b92505081905550565b60006effffffffffffffffffffffffffffff82169050919050565b610f8a81610f66565b82525050565b6000602082019050610fa56000830184610f81565b92915050565b600073ffffffffffffffffffffffffffffffffffffffff82169050919050565b6000610fd682610fab565b9050919050565b610fe681610fcb565b82525050565b60006020820190506110016000830184610fdd565b92915050565b6000819050919050565b61101a81611007565b82525050565b60006020820190506110356000830184611011565b92915050565b6000604051905090565b600080fd5b600080fd5b61105881611007565b811461106357600080fd5b50565b6000813590506110758161104f565b92915050565b60006020828403121561109157611090611045565b5b600061109f84828501611066565b91505092915050565b60006040820190506110bd6000830185611011565b6110ca6020830184611011565b9392505050565b60008115159050919050565b6110e6816110d1565b82525050565b600060208201905061110160008301846110dd565b92915050565b6000819050919050565b61111a81611107565b82525050565b60006020820190506111356000830184611111565b92915050565b600063ffffffff82169050919050565b6111548161113b565b811461115f57600080fd5b50565b6000813590506111718161114b565b92915050565b60006020828403121561118d5761118c611045565b5b600061119b84828501611162565b91505092915050565b6111ad81611107565b81146111b857600080fd5b50565b6000813590506111ca816111a4565b92915050565b600080604083850312156111e7576111e6611045565b5b60006111f5858286016111bb565b9250506020611206858286016111bb565b9150509250929050565b600061121b82610fab565b9050919050565b61122b81611210565b82525050565b60006020820190506112466000830184611222565b92915050565b61125581610fcb565b811461126057600080fd5b50565b6000813590506112728161124c565b92915050565b60006020828403121561128e5761128d611045565b5b600061129c84828501611263565b91505092915050565b6112ae8161113b565b82525050565b60006020820190506112c960008301846112a5565b92915050565b6000602082840312156112e5576112e4611045565b5b60006112f3848285016111bb565b91505092915050565b7f4e487b7100000000000000000000000000000000000000000000000000000000600052602160045260246000fd5b6003811061133c5761133b6112fc565b5b50565b600081905061134d8261132b565b919050565b600061135d8261133f565b9050919050565b61136d81611352565b82525050565b60006060820190506113886000830186611364565b6113956020830185610fdd565b6113a26040830184611011565b949350505050565b600080604083850312156113c1576113c0611045565b5b60006113cf85828601611066565b92505060206113e0858286016111bb565b9150509250929050565b600080fd5b6000601f19601f8301169050919050565b7f4e487b7100000000000000000000000000000000000000000000000000000000600052604160045260246000fd5b611438826113ef565b810181811067ffffffffffffffff8211171561145757611456611400565b5b80604052505050565b600061146a61103b565b9050611476828261142f565b919050565b600067ffffffffffffffff82111561149657611495611400565b5b602082029050602081019050919050565b600080fd5b60006114bf6114ba8461147b565b611460565b905080838252602082019050602084028301858111156114e2576114e16114a7565b5b835b8181101561150b57806114f788826111bb565b8452602084019350506020810190506114e4565b5050509392505050565b600082601f83011261152a576115296113ea565b5b813561153a8482602086016114ac565b91505092915050565b60006020828403121561155957611558611045565b5b600082013567ffffffffffffffff8111156115775761157661104a565b5b61158384828501611515565b91505092915050565b7f4e487b7100000000000000000000000000000000000000000000000000000000600052601160045260246000fd5b60008160011c9050919050565b6000808291508390505b6001851115611612578086048111156115ee576115ed61158c565b5b60018516156115fd5780820291505b808102905061160b856115bb565b94506115d2565b94509492505050565b60008261162b57600190506116e7565b8161163957600090506116e7565b816001811461164f576002811461165957611688565b60019150506116e7565b60ff84111561166b5761166a61158c565b5b8360020a9150848211156116825761168161158c565b5b506116e7565b5060208310610133831016604e8410600b84101617156116bd5782820a9050838111156116b8576116b761158c565b5b6116e7565b6116ca84848460016115c8565b925090508184048111156116e1576116e061158c565b5b81810290505b9392505050565b60006116f982611007565b915061170483611007565b92506117317fffffffffffffffffffffffffffffffffffffffffffffffffffffffffffffffff848461161b565b905092915050565b600061174482611007565b915061174f83611007565b92508282019050808211156117675761176661158c565b5b92915050565b7f4e487b7100000000000000000000000000000000000000000000000000000000600052601260045260246000fd5b60006117a782611007565b91506117b283611007565b9250826117c2576117c161176d565b5b828206905092915050565b7f4e487b7100000000000000000000000000000000000000000000000000000000600052603260045260246000fd5b600061180782611007565b91507fffffffffffffffffffffffffffffffffffffffffffffffffffffffffffffffff82036118395761183861158c565b5b600182019050919050565b600060029050919050565b600081905092915050565b6000819050919050565b61186d81611107565b82525050565b600061187f8383611864565b60208301905092915050565b6000602082019050919050565b6118a181611844565b6118ab818461184f565b92506118b68261185a565b8060005b838110156118e75781516118ce8782611873565b96506118d98361188b565b9250506001810190506118ba565b505050505050565b60006040820190506119046000830184611898565b92915050565b600081519050611919816111a4565b92915050565b60006020828403121561193557611934611045565b5b60006119438482850161190a565b91505092915050565b600061195782611007565b915061196283611007565b925082820390508181111561197a5761197961158c565b5b9291505056fea2646970667358221220954e072cb3fd1c194a02e6b64e675b175d212240d622ab0c8277b945bac636c664736f6c63430008110033","linkReferences":{"contracts/railgun/logic/Poseidon.sol":{"PoseidonT3":[{"start":2334,"length":20}]}}},"methodIdentifiers":{"ZERO_VALUE()":"ec732959","getInsertionTreeNumberAndStartingIndex(uint256)":"0c9c0c8d","hashLeftRight(bytes32,bytes32)":"38bf282e","initializeMerkle()":"2d974a4c","initialized()":"158ef93e","insertLeaves(bytes32[])":"dc52bf9f","lastEventBlock()":"cd3efe06","localDomain()":"8d3638f4","merkleModule()":"90de3f6e","merkleRoot()":"2eb4a7ab","messageTransmitter()":"7b04c181","nextLeafIndex()":"0be4f422","nftFee()":"9071adc0","nullifiers(uint256,bytes32)":"f19ea903","owner()":"8da5cb5b","privilegedShieldCallers(address)":"b069b70f","remotePools(uint32)":"30ed93c3","rootHistory(uint256,bytes32)":"c718dbda","shieldFee()":"01c37790","shieldModule()":"35db307c","snarkSafetyVector(uint256)":"129458f4","testingMode()":"c8f35b5d","tokenBlocklist(address)":"815b534f","tokenIDMapping(bytes32)":"b8ceaef2","tokenMessenger()":"46117830","transactModule()":"048e0990","treasury()":"61d027b3","treeNumber()":"66503315","unshieldFee()":"053ed12a","usdc()":"3e413bee","verifierModule()":"41506fc1","zeros(uint256)":"e8295588"},"id":21}