{"abi":[{"type":"constructor","inputs":[{"name":"_usdc","type":"address","internalType":"address"}],"stateMutability":"payable"},{"type":"receive","stateMutability":"payable"},{"type":"function","name":"COOLDOWN","inputs":[],"outputs":[{"name":"","type":"uint256","internalType":"uint256"}],"stateMutability":"view"},{"type":"function","name":"ETH_AMOUNT","inputs":[],"outputs":[{"name":"","type":"uint256","internalType":"uint256"}],"stateMutability":"view"},{"type":"function","name":"USDC_AMOUNT","inputs":[],"outputs":[{"name":"","type":"uint256","internalType":"uint256"}],"stateMutability":"view"},{"type":"function","name":"drip","inputs":[],"outputs":[],"stateMutability":"nonpayable"},{"type":"function","name":"dripTo","inputs":[{"name":"recipient","type":"address","internalType":"address"}],"outputs":[],"stateMutability":"nonpayable"},{"type":"function","name":"ethBalance","inputs":[],"outputs":[{"name":"","type":"uint256","internalType":"uint256"}],"stateMutability":"view"},{"type":"function","name":"lastFaucetTime","inputs":[{"name":"","type":"address","internalType":"address"}],"outputs":[{"name":"","type":"uint256","internalType":"uint256"}],"stateMutability":"view"},{"type":"function","name":"usdc","inputs":[],"outputs":[{"name":"","type":"address","internalType":"contract MockUSDCV2"}],"stateMutability":"view"},{"type":"event","name":"Drip","inputs":[{"name":"recipient","type":"address","indexed":true,"internalType":"address"},{"name":"usdcAmount","type":"uint256","indexed":false,"internalType":"uint256"},{"name":"ethAmount","type":"uint256","indexed":false,"internalType":"uint256"}],"anonymous":false}],"bytecode":{"object":"0x60a060405260405161083e38038061083e833981810160405281019061002591906100c2565b8073ffffffffffffffffffffffffffffffffffffffff1660808173ffffffffffffffffffffffffffffffffffffffff1681525050506100ef565b600080fd5b600073ffffffffffffffffffffffffffffffffffffffff82169050919050565b600061008f82610064565b9050919050565b61009f81610084565b81146100aa57600080fd5b50565b6000815190506100bc81610096565b92915050565b6000602082840312156100d8576100d761005f565b5b60006100e6848285016100ad565b91505092915050565b60805161072d610111600039600081816101e90152610325015261072d6000f3fe60806040526004361061007f5760003560e01c80639f678cca1161004e5780639f678cca14610149578063a2724a4d14610160578063c14033ba1461018b578063cabee26e146101b657610086565b80631153ad741461008b5780633e413bee146100b65780634e6630b0146100e15780637bc1f6cc1461010c57610086565b3661008657005b600080fd5b34801561009757600080fd5b506100a06101df565b6040516100ad9190610491565b60405180910390f35b3480156100c257600080fd5b506100cb6101e7565b6040516100d8919061052b565b60405180910390f35b3480156100ed57600080fd5b506100f661020b565b6040516101039190610491565b60405180910390f35b34801561011857600080fd5b50610133600480360381019061012e9190610589565b610213565b6040516101409190610491565b60405180910390f35b34801561015557600080fd5b5061015e61022b565b005b34801561016c57600080fd5b50610175610236565b6040516101829190610491565b60405180910390f35b34801561019757600080fd5b506101a061023b565b6040516101ad9190610491565b60405180910390f35b3480156101c257600080fd5b506101dd60048036038101906101d89190610589565b610247565b005b633b9aca0081565b7f000000000000000000000000000000000000000000000000000000000000000081565b600047905090565b60006020528060005260406000206000915090505481565b61023433610253565b565b600081565b670de0b6b3a764000081565b61025081610253565b50565b60008060008373ffffffffffffffffffffffffffffffffffffffff1673ffffffffffffffffffffffffffffffffffffffff1681526020019081526020016000205461029e91906105e5565b4210156102e0576040517f08c379a00000000000000000000000000000000000000000000000000000000081526004016102d790610676565b60405180910390fd5b426000808373ffffffffffffffffffffffffffffffffffffffff1673ffffffffffffffffffffffffffffffffffffffff168152602001908152602001600020819055507f000000000000000000000000000000000000000000000000000000000000000073ffffffffffffffffffffffffffffffffffffffff166340c10f1982633b9aca006040518363ffffffff1660e01b81526004016103829291906106a5565b600060405180830381600087803b15801561039c57600080fd5b505af11580156103b0573d6000803e3d6000fd5b505050506000670de0b6b3a7640000471061042057670de0b6b3a764000090508173ffffffffffffffffffffffffffffffffffffffff166108fc670de0b6b3a76400009081150290604051600060405180830381858888f1935050505015801561041e573d6000803e3d6000fd5b505b8173ffffffffffffffffffffffffffffffffffffffff167fa4acd6546ca2a791c494afafa902f3ea075e5f5381f061cc8ec601651591a59b633b9aca008360405161046c9291906106ce565b60405180910390a25050565b6000819050919050565b61048b81610478565b82525050565b60006020820190506104a66000830184610482565b92915050565b600073ffffffffffffffffffffffffffffffffffffffff82169050919050565b6000819050919050565b60006104f16104ec6104e7846104ac565b6104cc565b6104ac565b9050919050565b6000610503826104d6565b9050919050565b6000610515826104f8565b9050919050565b6105258161050a565b82525050565b6000602082019050610540600083018461051c565b92915050565b600080fd5b6000610556826104ac565b9050919050565b6105668161054b565b811461057157600080fd5b50565b6000813590506105838161055d565b92915050565b60006020828403121561059f5761059e610546565b5b60006105ad84828501610574565b91505092915050565b7f4e487b7100000000000000000000000000000000000000000000000000000000600052601160045260246000fd5b60006105f082610478565b91506105fb83610478565b9250828201905080821115610613576106126105b6565b5b92915050565b600082825260208201905092915050565b7f436f6f6c646f776e206e6f7420656c6170736564000000000000000000000000600082015250565b6000610660601483610619565b915061066b8261062a565b602082019050919050565b6000602082019050818103600083015261068f81610653565b9050919050565b61069f8161054b565b82525050565b60006040820190506106ba6000830185610696565b6106c76020830184610482565b9392505050565b60006040820190506106e36000830185610482565b6106f06020830184610482565b939250505056fea26469706673582212201c240f44a5b94ab389dacb2b004e506092cebc5db5f7179228b01d9d07b0f2a164736f6c63430008110033","linkReferences":{}},"methodIdentifiers":{"COOLDOWN()":"a2724a4d","ETH_AMOUNT()":"c14033ba","USDC_AMOUNT()":"1153ad74","drip()":"9f678cca","dripTo(address)":"cabee26e","ethBalance()":"4e6630b0","lastFaucetTime(address)":"7bc1f6cc","usdc()":"3e413bee"},"storageLayout":{"storage":[{"astId":21,"contract":"contracts/Faucet.sol:Faucet","label":"lastFaucetTime","offset":0,"slot":"0","type":"t_mapping(t_address,t_uint256)"}],"types":{"t_address":{"encoding":"inplace","label":"address","numberOfBytes":"20"},"t_mapping(t_address,t_uint256)":{"encoding":"mapping","key":"t_address","label":"mapping(address => uint256)","numberOfBytes":"32","value":"t_uint256"},"t_uint256":{"encoding":"inplace","label":"uint256","numberOfBytes":"32"}}},"id":0}