{"abi":[{"type":"constructor","inputs":[{"name":"_timelock","type":"address","internalType":"address"},{"name":"_treasury","type":"address","internalType":"address"},{"name":"_actionDelay","type":"uint256","internalType":"uint256"}],"stateMutability":"nonpayable"},{"type":"function","name":"TERM_DURATION","inputs":[],"outputs":[{"name":"","type":"uint256","internalType":"uint256"}],"stateMutability":"view"},{"type":"function","name":"actionCount","inputs":[],"outputs":[{"name":"","type":"uint256","internalType":"uint256"}],"stateMutability":"view"},{"type":"function","name":"actionDelay","inputs":[],"outputs":[{"name":"","type":"uint256","internalType":"uint256"}],"stateMutability":"view"},{"type":"function","name":"actions","inputs":[{"name":"","type":"uint256","internalType":"uint256"}],"outputs":[{"name":"id","type":"uint256","internalType":"uint256"},{"name":"target","type":"address","internalType":"address"},{"name":"data","type":"bytes","internalType":"bytes"},{"name":"value","type":"uint256","internalType":"uint256"},{"name":"timestamp","type":"uint256","internalType":"uint256"},{"name":"executed","type":"bool","internalType":"bool"},{"name":"vetoed","type":"bool","internalType":"bool"}],"stateMutability":"view"},{"type":"function","name":"currentSteward","inputs":[],"outputs":[{"name":"","type":"address","internalType":"address"}],"stateMutability":"view"},{"type":"function","name":"electSteward","inputs":[{"name":"_steward","type":"address","internalType":"address"}],"outputs":[],"stateMutability":"nonpayable"},{"type":"function","name":"executeAction","inputs":[{"name":"actionId","type":"uint256","internalType":"uint256"}],"outputs":[],"stateMutability":"nonpayable"},{"type":"function","name":"getAction","inputs":[{"name":"actionId","type":"uint256","internalType":"uint256"}],"outputs":[{"name":"target","type":"address","internalType":"address"},{"name":"value","type":"uint256","internalType":"uint256"},{"name":"timestamp","type":"uint256","internalType":"uint256"},{"name":"executed","type":"bool","internalType":"bool"},{"name":"vetoed","type":"bool","internalType":"bool"},{"name":"executeAfter","type":"uint256","internalType":"uint256"}],"stateMutability":"view"},{"type":"function","name":"isStewardActive","inputs":[],"outputs":[{"name":"","type":"bool","internalType":"bool"}],"stateMutability":"view"},{"type":"function","name":"proposeAction","inputs":[{"name":"target","type":"address","internalType":"address"},{"name":"data","type":"bytes","internalType":"bytes"},{"name":"value","type":"uint256","internalType":"uint256"}],"outputs":[{"name":"","type":"uint256","internalType":"uint256"}],"stateMutability":"nonpayable"},{"type":"function","name":"removeSteward","inputs":[],"outputs":[],"stateMutability":"nonpayable"},{"type":"function","name":"setActionDelay","inputs":[{"name":"_actionDelay","type":"uint256","internalType":"uint256"}],"outputs":[],"stateMutability":"nonpayable"},{"type":"function","name":"termEnd","inputs":[],"outputs":[{"name":"","type":"uint256","internalType":"uint256"}],"stateMutability":"view"},{"type":"function","name":"termStart","inputs":[],"outputs":[{"name":"","type":"uint256","internalType":"uint256"}],"stateMutability":"view"},{"type":"function","name":"timelock","inputs":[],"outputs":[{"name":"","type":"address","internalType":"address"}],"stateMutability":"view"},{"type":"function","name":"treasury","inputs":[],"outputs":[{"name":"","type":"address","internalType":"address"}],"stateMutability":"view"},{"type":"function","name":"vetoAction","inputs":[{"name":"actionId","type":"uint256","internalType":"uint256"}],"outputs":[],"stateMutability":"nonpayable"},{"type":"event","name":"ActionDelayUpdated","inputs":[{"name":"oldDelay","type":"uint256","indexed":false,"internalType":"uint256"},{"name":"newDelay","type":"uint256","indexed":false,"internalType":"uint256"}],"anonymous":false},{"type":"event","name":"ActionExecuted","inputs":[{"name":"actionId","type":"uint256","indexed":true,"internalType":"uint256"}],"anonymous":false},{"type":"event","name":"ActionProposed","inputs":[{"name":"actionId","type":"uint256","indexed":true,"internalType":"uint256"},{"name":"target","type":"address","indexed":true,"internalType":"address"},{"name":"value","type":"uint256","indexed":false,"internalType":"uint256"},{"name":"executeAfter","type":"uint256","indexed":false,"internalType":"uint256"}],"anonymous":false},{"type":"event","name":"ActionVetoed","inputs":[{"name":"actionId","type":"uint256","indexed":true,"internalType":"uint256"}],"anonymous":false},{"type":"event","name":"StewardElected","inputs":[{"name":"steward","type":"address","indexed":true,"internalType":"address"},{"name":"termStart","type":"uint256","indexed":false,"internalType":"uint256"},{"name":"termEnd","type":"uint256","indexed":false,"internalType":"uint256"}],"anonymous":false},{"type":"event","name":"StewardRemoved","inputs":[{"name":"steward","type":"address","indexed":true,"internalType":"address"}],"anonymous":false}],"bytecode":{"object":"0x60c06040523480156200001157600080fd5b50604051620024ac380380620024ac833981810160405281019062000037919062000240565b6001600081905550600073ffffffffffffffffffffffffffffffffffffffff168373ffffffffffffffffffffffffffffffffffffffff1603620000b1576040517f08c379a0000000000000000000000000000000000000000000000000000000008152600401620000a890620002fd565b60405180910390fd5b600073ffffffffffffffffffffffffffffffffffffffff168273ffffffffffffffffffffffffffffffffffffffff160362000123576040517f08c379a00000000000000000000000000000000000000000000000000000000081526004016200011a906200036f565b60405180910390fd5b8273ffffffffffffffffffffffffffffffffffffffff1660808173ffffffffffffffffffffffffffffffffffffffff16815250508173ffffffffffffffffffffffffffffffffffffffff1660a08173ffffffffffffffffffffffffffffffffffffffff16815250508060058190555050505062000391565b600080fd5b600073ffffffffffffffffffffffffffffffffffffffff82169050919050565b6000620001cd82620001a0565b9050919050565b620001df81620001c0565b8114620001eb57600080fd5b50565b600081519050620001ff81620001d4565b92915050565b6000819050919050565b6200021a8162000205565b81146200022657600080fd5b50565b6000815190506200023a816200020f565b92915050565b6000806000606084860312156200025c576200025b6200019b565b5b60006200026c86828701620001ee565b93505060206200027f86828701620001ee565b9250506040620002928682870162000229565b9150509250925092565b600082825260208201905092915050565b7f5472656173757279537465776172643a207a65726f2074696d656c6f636b0000600082015250565b6000620002e5601e836200029c565b9150620002f282620002ad565b602082019050919050565b600060208201905081810360008301526200031881620002d6565b9050919050565b7f5472656173757279537465776172643a207a65726f2074726561737572790000600082015250565b600062000357601e836200029c565b915062000364826200031f565b602082019050919050565b600060208201905081810360008301526200038a8162000348565b9050919050565b60805160a0516120d9620003d360003960006106180152600081816103350152818161043401528181610a8501528181610bc3015261121501526120d96000f3fe608060405234801561001057600080fd5b506004361061010b5760003560e01c806383240f83116100a2578063b69ef4b811610071578063b69ef4b81461028a578063b6e76873146102a6578063c0c1cf55146102db578063c3e730c4146102f7578063d33219b4146103155761010b565b806383240f831461020e57806387dc192f146102445780639e7e87c214610262578063a3dbd3291461026c5761010b565b8063334bfd4f116100de578063334bfd4f1461018457806361d027b3146101a257806368d74706146101c057806377da59ec146101f05761010b565b8063022bdff4146101105780630d6cde851461012c57806329da57381461014a5780632d0e784514610168575b600080fd5b61012a600480360381019061012591906112d0565b610333565b005b610134610406565b604051610141919061133e565b60405180910390f35b61015261042c565b60405161015f9190611368565b60405180910390f35b610182600480360381019061017d91906112d0565b610432565b005b61018c610610565b6040516101999190611368565b60405180910390f35b6101aa610616565b6040516101b7919061133e565b60405180910390f35b6101da60048036038101906101d59190611414565b61063a565b6040516101e79190611368565b60405180910390f35b6101f8610905565b60405161020591906114a3565b60405180910390f35b610228600480360381019061022391906112d0565b610979565b60405161023b979695949392919061154e565b60405180910390f35b61024c610a7d565b6040516102599190611368565b60405180910390f35b61026a610a83565b005b610274610bba565b6040516102819190611368565b60405180910390f35b6102a4600480360381019061029f91906115c4565b610bc1565b005b6102c060048036038101906102bb91906112d0565b610d6b565b6040516102d2969594939291906115f1565b60405180910390f35b6102f560048036038101906102f091906112d0565b610e06565b005b6102ff61119c565b60405161030c9190611368565b60405180910390f35b61031d611213565b60405161032a919061133e565b60405180910390f35b7f000000000000000000000000000000000000000000000000000000000000000073ffffffffffffffffffffffffffffffffffffffff163373ffffffffffffffffffffffffffffffffffffffff16146103c1576040517f08c379a00000000000000000000000000000000000000000000000000000000081526004016103b8906116af565b60405180910390fd5b7fe4f2cee03c7e5598bf84ba2c5e3e73b7aef7e9b277ccf5f8f7fa1ba649e7e99a600554826040516103f49291906116cf565b60405180910390a18060058190555050565b600160009054906101000a900473ffffffffffffffffffffffffffffffffffffffff1681565b60035481565b7f000000000000000000000000000000000000000000000000000000000000000073ffffffffffffffffffffffffffffffffffffffff163373ffffffffffffffffffffffffffffffffffffffff16146104c0576040517f08c379a00000000000000000000000000000000000000000000000000000000081526004016104b7906116af565b60405180910390fd5b6000600460008381526020019081526020016000209050600081600001540361051e576040517f08c379a000000000000000000000000000000000000000000000000000000000815260040161051590611744565b60405180910390fd5b8060050160009054906101000a900460ff1615610570576040517f08c379a0000000000000000000000000000000000000000000000000000000008152600401610567906117d6565b60405180910390fd5b8060050160019054906101000a900460ff16156105c2576040517f08c379a00000000000000000000000000000000000000000000000000000000081526004016105b990611842565b60405180910390fd5b60018160050160016101000a81548160ff021916908315150217905550817f676ef01598680ffce6f66f4a20b9ab11af1ae497399f425a90216c8a0f1e8fe160405160405180910390a25050565b60025481565b7f000000000000000000000000000000000000000000000000000000000000000081565b6000600160009054906101000a900473ffffffffffffffffffffffffffffffffffffffff1673ffffffffffffffffffffffffffffffffffffffff163373ffffffffffffffffffffffffffffffffffffffff16146106cc576040517f08c379a00000000000000000000000000000000000000000000000000000000081526004016106c3906118ae565b60405180910390fd5b62ed4e006002546106dd91906118fd565b421061071e576040517f08c379a00000000000000000000000000000000000000000000000000000000081526004016107159061197d565b60405180910390fd5b600060036000815461072f9061199d565b91905081905590506040518060e001604052808281526020018773ffffffffffffffffffffffffffffffffffffffff16815260200186868080601f016020809104026020016040519081016040528093929190818152602001838380828437600081840152601f19601f82011690508083019250505050505050815260200184815260200142815260200160001515815260200160001515815250600460008381526020019081526020016000206000820151816000015560208201518160010160006101000a81548173ffffffffffffffffffffffffffffffffffffffff021916908373ffffffffffffffffffffffffffffffffffffffff16021790555060408201518160020190816108439190611c20565b50606082015181600301556080820151816004015560a08201518160050160006101000a81548160ff02191690831515021790555060c08201518160050160016101000a81548160ff0219169083151502179055509050508573ffffffffffffffffffffffffffffffffffffffff16817f64bfd5d30d6724aba716931b40c93008e6ca1d7c1679c19b8b7e2ba0599b400c85600554426108e391906118fd565b6040516108f19291906116cf565b60405180910390a380915050949350505050565b60008073ffffffffffffffffffffffffffffffffffffffff16600160009054906101000a900473ffffffffffffffffffffffffffffffffffffffff1673ffffffffffffffffffffffffffffffffffffffff1614158015610974575062ed4e0060025461097191906118fd565b42105b905090565b60046020528060005260406000206000915090508060000154908060010160009054906101000a900473ffffffffffffffffffffffffffffffffffffffff16908060020180546109c890611a43565b80601f01602080910402602001604051908101604052809291908181526020018280546109f490611a43565b8015610a415780601f10610a1657610100808354040283529160200191610a41565b820191906000526020600020905b815481529060010190602001808311610a2457829003601f168201915b5050505050908060030154908060040154908060050160009054906101000a900460ff16908060050160019054906101000a900460ff16905087565b60055481565b7f000000000000000000000000000000000000000000000000000000000000000073ffffffffffffffffffffffffffffffffffffffff163373ffffffffffffffffffffffffffffffffffffffff1614610b11576040517f08c379a0000000000000000000000000000000000000000000000000000000008152600401610b08906116af565b60405180910390fd5b600160009054906101000a900473ffffffffffffffffffffffffffffffffffffffff1673ffffffffffffffffffffffffffffffffffffffff167f449cf42d813cc4bb34744e561bc0388a1e1843f67bb96e843f7680ebe99e390160405160405180910390a26000600160006101000a81548173ffffffffffffffffffffffffffffffffffffffff021916908373ffffffffffffffffffffffffffffffffffffffff160217905550565b62ed4e0081565b7f000000000000000000000000000000000000000000000000000000000000000073ffffffffffffffffffffffffffffffffffffffff163373ffffffffffffffffffffffffffffffffffffffff1614610c4f576040517f08c379a0000000000000000000000000000000000000000000000000000000008152600401610c46906116af565b60405180910390fd5b600073ffffffffffffffffffffffffffffffffffffffff168173ffffffffffffffffffffffffffffffffffffffff1603610cbe576040517f08c379a0000000000000000000000000000000000000000000000000000000008152600401610cb590611d3e565b60405180910390fd5b80600160006101000a81548173ffffffffffffffffffffffffffffffffffffffff021916908373ffffffffffffffffffffffffffffffffffffffff160217905550426002819055508073ffffffffffffffffffffffffffffffffffffffff167feb39115a1a3735bd3ab92812d586c89e70d64e331491bc5281b8200b3af13e2b60025462ed4e00600254610d5291906118fd565b604051610d609291906116cf565b60405180910390a250565b60008060008060008060006004600089815260200190815260200160002090508060010160009054906101000a900473ffffffffffffffffffffffffffffffffffffffff16816003015482600401548360050160009054906101000a900460ff168460050160019054906101000a900460ff166005548660040154610df091906118fd565b9650965096509650965096505091939550919395565b600160009054906101000a900473ffffffffffffffffffffffffffffffffffffffff1673ffffffffffffffffffffffffffffffffffffffff163373ffffffffffffffffffffffffffffffffffffffff1614610e96576040517f08c379a0000000000000000000000000000000000000000000000000000000008152600401610e8d906118ae565b60405180910390fd5b62ed4e00600254610ea791906118fd565b4210610ee8576040517f08c379a0000000000000000000000000000000000000000000000000000000008152600401610edf9061197d565b60405180910390fd5b610ef0611237565b60006004600083815260200190815260200160002090506000816000015403610f4e576040517f08c379a0000000000000000000000000000000000000000000000000000000008152600401610f4590611744565b60405180910390fd5b8060050160009054906101000a900460ff1615610fa0576040517f08c379a0000000000000000000000000000000000000000000000000000000008152600401610f97906117d6565b60405180910390fd5b8060050160019054906101000a900460ff1615610ff2576040517f08c379a0000000000000000000000000000000000000000000000000000000008152600401610fe990611daa565b60405180910390fd5b600554816004015461100491906118fd565b421015611046576040517f08c379a000000000000000000000000000000000000000000000000000000000815260040161103d90611e3c565b60405180910390fd5b60018160050160006101000a81548160ff0219169083151502179055506000808260010160009054906101000a900473ffffffffffffffffffffffffffffffffffffffff1673ffffffffffffffffffffffffffffffffffffffff168360030154846002016040516110b79190611eea565b60006040518083038185875af1925050503d80600081146110f4576040519150601f19603f3d011682016040523d82523d6000602084013e6110f9565b606091505b509150915081816040516020016111109190611faf565b60405160208183030381529060405290611160576040517f08c379a00000000000000000000000000000000000000000000000000000000081526004016111579190612015565b60405180910390fd5b50837f7cd79380f59dcb9a2e87db5e49009e2cb7ff8a3175bf8db0137c71bd7abe714360405160405180910390a2505050611199611286565b50565b60008073ffffffffffffffffffffffffffffffffffffffff16600160009054906101000a900473ffffffffffffffffffffffffffffffffffffffff1673ffffffffffffffffffffffffffffffffffffffff16036111fc5760009050611210565b62ed4e0060025461120d91906118fd565b90505b90565b7f000000000000000000000000000000000000000000000000000000000000000081565b60026000540361127c576040517f08c379a000000000000000000000000000000000000000000000000000000000815260040161127390612083565b60405180910390fd5b6002600081905550565b6001600081905550565b600080fd5b600080fd5b6000819050919050565b6112ad8161129a565b81146112b857600080fd5b50565b6000813590506112ca816112a4565b92915050565b6000602082840312156112e6576112e5611290565b5b60006112f4848285016112bb565b91505092915050565b600073ffffffffffffffffffffffffffffffffffffffff82169050919050565b6000611328826112fd565b9050919050565b6113388161131d565b82525050565b6000602082019050611353600083018461132f565b92915050565b6113628161129a565b82525050565b600060208201905061137d6000830184611359565b92915050565b61138c8161131d565b811461139757600080fd5b50565b6000813590506113a981611383565b92915050565b600080fd5b600080fd5b600080fd5b60008083601f8401126113d4576113d36113af565b5b8235905067ffffffffffffffff8111156113f1576113f06113b4565b5b60208301915083600182028301111561140d5761140c6113b9565b5b9250929050565b6000806000806060858703121561142e5761142d611290565b5b600061143c8782880161139a565b945050602085013567ffffffffffffffff81111561145d5761145c611295565b5b611469878288016113be565b9350935050604061147c878288016112bb565b91505092959194509250565b60008115159050919050565b61149d81611488565b82525050565b60006020820190506114b86000830184611494565b92915050565b600081519050919050565b600082825260208201905092915050565b60005b838110156114f85780820151818401526020810190506114dd565b60008484015250505050565b6000601f19601f8301169050919050565b6000611520826114be565b61152a81856114c9565b935061153a8185602086016114da565b61154381611504565b840191505092915050565b600060e082019050611563600083018a611359565b611570602083018961132f565b81810360408301526115828188611515565b90506115916060830187611359565b61159e6080830186611359565b6115ab60a0830185611494565b6115b860c0830184611494565b98975050505050505050565b6000602082840312156115da576115d9611290565b5b60006115e88482850161139a565b91505092915050565b600060c082019050611606600083018961132f565b6116136020830188611359565b6116206040830187611359565b61162d6060830186611494565b61163a6080830185611494565b61164760a0830184611359565b979650505050505050565b600082825260208201905092915050565b7f5472656173757279537465776172643a206e6f742074696d656c6f636b000000600082015250565b6000611699601d83611652565b91506116a482611663565b602082019050919050565b600060208201905081810360008301526116c88161168c565b9050919050565b60006040820190506116e46000830185611359565b6116f16020830184611359565b9392505050565b7f5472656173757279537465776172643a20756e6b6e6f776e20616374696f6e00600082015250565b600061172e601f83611652565b9150611739826116f8565b602082019050919050565b6000602082019050818103600083015261175d81611721565b9050919050565b7f5472656173757279537465776172643a20616c7265616479206578656375746560008201527f6400000000000000000000000000000000000000000000000000000000000000602082015250565b60006117c0602183611652565b91506117cb82611764565b604082019050919050565b600060208201905081810360008301526117ef816117b3565b9050919050565b7f5472656173757279537465776172643a20616c7265616479207665746f656400600082015250565b600061182c601f83611652565b9150611837826117f6565b602082019050919050565b6000602082019050818103600083015261185b8161181f565b9050919050565b7f5472656173757279537465776172643a206e6f74207374657761726400000000600082015250565b6000611898601c83611652565b91506118a382611862565b602082019050919050565b600060208201905081810360008301526118c78161188b565b9050919050565b7f4e487b7100000000000000000000000000000000000000000000000000000000600052601160045260246000fd5b60006119088261129a565b91506119138361129a565b925082820190508082111561192b5761192a6118ce565b5b92915050565b7f5472656173757279537465776172643a207465726d2065787069726564000000600082015250565b6000611967601d83611652565b915061197282611931565b602082019050919050565b600060208201905081810360008301526119968161195a565b9050919050565b60006119a88261129a565b91507fffffffffffffffffffffffffffffffffffffffffffffffffffffffffffffffff82036119da576119d96118ce565b5b600182019050919050565b7f4e487b7100000000000000000000000000000000000000000000000000000000600052604160045260246000fd5b7f4e487b7100000000000000000000000000000000000000000000000000000000600052602260045260246000fd5b60006002820490506001821680611a5b57607f821691505b602082108103611a6e57611a6d611a14565b5b50919050565b60008190508160005260206000209050919050565b60006020601f8301049050919050565b600082821b905092915050565b600060088302611ad67fffffffffffffffffffffffffffffffffffffffffffffffffffffffffffffffff82611a99565b611ae08683611a99565b95508019841693508086168417925050509392505050565b6000819050919050565b6000611b1d611b18611b138461129a565b611af8565b61129a565b9050919050565b6000819050919050565b611b3783611b02565b611b4b611b4382611b24565b848454611aa6565b825550505050565b600090565b611b60611b53565b611b6b818484611b2e565b505050565b5b81811015611b8f57611b84600082611b58565b600181019050611b71565b5050565b601f821115611bd457611ba581611a74565b611bae84611a89565b81016020851015611bbd578190505b611bd1611bc985611a89565b830182611b70565b50505b505050565b600082821c905092915050565b6000611bf760001984600802611bd9565b1980831691505092915050565b6000611c108383611be6565b9150826002028217905092915050565b611c29826114be565b67ffffffffffffffff811115611c4257611c416119e5565b5b611c4c8254611a43565b611c57828285611b93565b600060209050601f831160018114611c8a5760008415611c78578287015190505b611c828582611c04565b865550611cea565b601f198416611c9886611a74565b60005b82811015611cc057848901518255600182019150602085019450602081019050611c9b565b86831015611cdd5784890151611cd9601f891682611be6565b8355505b6001600288020188555050505b505050505050565b7f5472656173757279537465776172643a207a65726f2061646472657373000000600082015250565b6000611d28601d83611652565b9150611d3382611cf2565b602082019050919050565b60006020820190508181036000830152611d5781611d1b565b9050919050565b7f5472656173757279537465776172643a207665746f6564000000000000000000600082015250565b6000611d94601783611652565b9150611d9f82611d5e565b602082019050919050565b60006020820190508181036000830152611dc381611d87565b9050919050565b7f5472656173757279537465776172643a2064656c6179206e6f7420656c61707360008201527f6564000000000000000000000000000000000000000000000000000000000000602082015250565b6000611e26602283611652565b9150611e3182611dca565b604082019050919050565b60006020820190508181036000830152611e5581611e19565b9050919050565b600081905092915050565b60008154611e7481611a43565b611e7e8186611e5c565b94506001821660008114611e995760018114611eae57611ee1565b60ff1983168652811515820286019350611ee1565b611eb785611a74565b60005b83811015611ed957815481890152600182019150602081019050611eba565b838801955050505b50505092915050565b6000611ef68284611e67565b915081905092915050565b600081905092915050565b7f5472656173757279537465776172643a20657865637574696f6e206661696c6560008201527f643a200000000000000000000000000000000000000000000000000000000000602082015250565b6000611f68602383611f01565b9150611f7382611f0c565b602382019050919050565b6000611f89826114be565b611f938185611e5c565b9350611fa38185602086016114da565b80840191505092915050565b6000611fba82611f5b565b9150611fc68284611f7e565b915081905092915050565b600081519050919050565b6000611fe782611fd1565b611ff18185611652565b93506120018185602086016114da565b61200a81611504565b840191505092915050565b6000602082019050818103600083015261202f8184611fdc565b905092915050565b7f5265656e7472616e637947756172643a207265656e7472616e742063616c6c00600082015250565b600061206d601f83611652565b915061207882612037565b602082019050919050565b6000602082019050818103600083015261209c81612060565b905091905056fea26469706673582212202452552eb66bfa45a94b223629ea1c3fd47b209376499ff9bec6477f4357585764736f6c63430008110033","linkReferences":{}},"methodIdentifiers":{"TERM_DURATION()":"a3dbd329","actionCount()":"29da5738","actionDelay()":"87dc192f","actions(uint256)":"83240f83","currentSteward()":"0d6cde85","electSteward(address)":"b69ef4b8","executeAction(uint256)":"c0c1cf55","getAction(uint256)":"b6e76873","isStewardActive()":"77da59ec","proposeAction(address,bytes,uint256)":"68d74706","removeSteward()":"9e7e87c2","setActionDelay(uint256)":"022bdff4","termEnd()":"c3e730c4","termStart()":"334bfd4f","timelock()":"d33219b4","treasury()":"61d027b3","vetoAction(uint256)":"2d0e7845"},"id":11}