{"abi":[{"type":"function","name":"ZERO_VALUE","inputs":[],"outputs":[{"name":"","type":"bytes32","internalType":"bytes32"}],"stateMutability":"view"},{"type":"function","name":"atomicCrossChainUnshield","inputs":[{"name":"_transaction","type":"tuple","internalType":"struct Transaction","components":[{"name":"proof","type":"tuple","internalType":"struct SnarkProof","components":[{"name":"a","type":"tuple","internalType":"struct G1Point","components":[{"name":"x","type":"uint256","internalType":"uint256"},{"name":"y","type":"uint256","internalType":"uint256"}]},{"name":"b","type":"tuple","internalType":"struct G2Point","components":[{"name":"x","type":"uint256[2]","internalType":"uint256[2]"},{"name":"y","type":"uint256[2]","internalType":"uint256[2]"}]},{"name":"c","type":"tuple","internalType":"struct G1Point","components":[{"name":"x","type":"uint256","internalType":"uint256"},{"name":"y","type":"uint256","internalType":"uint256"}]}]},{"name":"merkleRoot","type":"bytes32","internalType":"bytes32"},{"name":"nullifiers","type":"bytes32[]","internalType":"bytes32[]"},{"name":"commitments","type":"bytes32[]","internalType":"bytes32[]"},{"name":"boundParams","type":"tuple","internalType":"struct BoundParams","components":[{"name":"treeNumber","type":"uint16","internalType":"uint16"},{"name":"minGasPrice","type":"uint72","internalType":"uint72"},{"name":"unshield","type":"uint8","internalType":"enum UnshieldType"},{"name":"chainID","type":"uint64","internalType":"uint64"},{"name":"adaptContract","type":"address","internalType":"address"},{"name":"adaptParams","type":"bytes32","internalType":"bytes32"},{"name":"commitmentCiphertext","type":"tuple[]","internalType":"struct CommitmentCiphertext[]","components":[{"name":"ciphertext","type":"bytes32[4]","internalType":"bytes32[4]"},{"name":"blindedSenderViewingKey","type":"bytes32","internalType":"bytes32"},{"name":"blindedReceiverViewingKey","type":"bytes32","internalType":"bytes32"},{"name":"annotationData","type":"bytes","internalType":"bytes"},{"name":"memo","type":"bytes","internalType":"bytes"}]}]},{"name":"unshieldPreimage","type":"tuple","internalType":"struct CommitmentPreimage","components":[{"name":"npk","type":"bytes32","internalType":"bytes32"},{"name":"token","type":"tuple","internalType":"struct TokenData","components":[{"name":"tokenType","type":"uint8","internalType":"enum TokenType"},{"name":"tokenAddress","type":"address","internalType":"address"},{"name":"tokenSubID","type":"uint256","internalType":"uint256"}]},{"name":"value","type":"uint120","internalType":"uint120"}]}]},{"name":"destinationDomain","type":"uint32","internalType":"uint32"},{"name":"finalRecipient","type":"address","internalType":"address"},{"name":"destinationCaller","type":"bytes32","internalType":"bytes32"},{"name":"maxFee","type":"uint256","internalType":"uint256"}],"outputs":[{"name":"","type":"uint64","internalType":"uint64"}],"stateMutability":"nonpayable"},{"type":"function","name":"getInsertionTreeNumberAndStartingIndex","inputs":[{"name":"","type":"uint256","internalType":"uint256"}],"outputs":[{"name":"treeNum","type":"uint256","internalType":"uint256"},{"name":"startIndex","type":"uint256","internalType":"uint256"}],"stateMutability":"view"},{"type":"function","name":"getVerificationKey","inputs":[{"name":"_nullifiers","type":"uint256","internalType":"uint256"},{"name":"_commitments","type":"uint256","internalType":"uint256"}],"outputs":[{"name":"","type":"tuple","internalType":"struct VerifyingKey","components":[{"name":"artifactsIPFSHash","type":"string","internalType":"string"},{"name":"alpha1","type":"tuple","internalType":"struct G1Point","components":[{"name":"x","type":"uint256","internalType":"uint256"},{"name":"y","type":"uint256","internalType":"uint256"}]},{"name":"beta2","type":"tuple","internalType":"struct G2Point","components":[{"name":"x","type":"uint256[2]","internalType":"uint256[2]"},{"name":"y","type":"uint256[2]","internalType":"uint256[2]"}]},{"name":"gamma2","type":"tuple","internalType":"struct G2Point","components":[{"name":"x","type":"uint256[2]","internalType":"uint256[2]"},{"name":"y","type":"uint256[2]","internalType":"uint256[2]"}]},{"name":"delta2","type":"tuple","internalType":"struct G2Point","components":[{"name":"x","type":"uint256[2]","internalType":"uint256[2]"},{"name":"y","type":"uint256[2]","internalType":"uint256[2]"}]},{"name":"ic","type":"tuple[]","internalType":"struct G1Point[]","components":[{"name":"x","type":"uint256","internalType":"uint256"},{"name":"y","type":"uint256","internalType":"uint256"}]}]}],"stateMutability":"view"},{"type":"function","name":"handleReceiveFinalizedMessage","inputs":[{"name":"","type":"uint32","internalType":"uint32"},{"name":"sender","type":"bytes32","internalType":"bytes32"},{"name":"finalityThresholdExecuted","type":"uint32","internalType":"uint32"},{"name":"messageBody","type":"bytes","internalType":"bytes"}],"outputs":[{"name":"","type":"bool","internalType":"bool"}],"stateMutability":"nonpayable"},{"type":"function","name":"handleReceiveUnfinalizedMessage","inputs":[{"name":"","type":"uint32","internalType":"uint32"},{"name":"","type":"bytes32","internalType":"bytes32"},{"name":"","type":"uint32","internalType":"uint32"},{"name":"","type":"bytes","internalType":"bytes"}],"outputs":[{"name":"","type":"bool","internalType":"bool"}],"stateMutability":"pure"},{"type":"function","name":"initialize","inputs":[{"name":"_shieldModule","type":"address","internalType":"address"},{"name":"_transactModule","type":"address","internalType":"address"},{"name":"_merkleModule","type":"address","internalType":"address"},{"name":"_verifierModule","type":"address","internalType":"address"},{"name":"_tokenMessenger","type":"address","internalType":"address"},{"name":"_messageTransmitter","type":"address","internalType":"address"},{"name":"_usdc","type":"address","internalType":"address"},{"name":"_localDomain","type":"uint32","internalType":"uint32"},{"name":"_owner","type":"address","internalType":"address"}],"outputs":[],"stateMutability":"nonpayable"},{"type":"function","name":"initialized","inputs":[],"outputs":[{"name":"","type":"bool","internalType":"bool"}],"stateMutability":"view"},{"type":"function","name":"insertLeaves","inputs":[{"name":"_leafHashes","type":"bytes32[]","internalType":"bytes32[]"}],"outputs":[],"stateMutability":"nonpayable"},{"type":"function","name":"lastEventBlock","inputs":[],"outputs":[{"name":"","type":"uint256","internalType":"uint256"}],"stateMutability":"view"},{"type":"function","name":"localDomain","inputs":[],"outputs":[{"name":"","type":"uint32","internalType":"uint32"}],"stateMutability":"view"},{"type":"function","name":"merkleModule","inputs":[],"outputs":[{"name":"","type":"address","internalType":"address"}],"stateMutability":"view"},{"type":"function","name":"merkleRoot","inputs":[],"outputs":[{"name":"","type":"bytes32","internalType":"bytes32"}],"stateMutability":"view"},{"type":"function","name":"messageTransmitter","inputs":[],"outputs":[{"name":"","type":"address","internalType":"address"}],"stateMutability":"view"},{"type":"function","name":"nextLeafIndex","inputs":[],"outputs":[{"name":"","type":"uint256","internalType":"uint256"}],"stateMutability":"view"},{"type":"function","name":"nftFee","inputs":[],"outputs":[{"name":"","type":"uint120","internalType":"uint120"}],"stateMutability":"view"},{"type":"function","name":"nullifiers","inputs":[{"name":"","type":"uint256","internalType":"uint256"},{"name":"","type":"bytes32","internalType":"bytes32"}],"outputs":[{"name":"","type":"bool","internalType":"bool"}],"stateMutability":"view"},{"type":"function","name":"owner","inputs":[],"outputs":[{"name":"","type":"address","internalType":"address"}],"stateMutability":"view"},{"type":"function","name":"remotePools","inputs":[{"name":"","type":"uint32","internalType":"uint32"}],"outputs":[{"name":"","type":"bytes32","internalType":"bytes32"}],"stateMutability":"view"},{"type":"function","name":"rootHistory","inputs":[{"name":"","type":"uint256","internalType":"uint256"},{"name":"","type":"bytes32","internalType":"bytes32"}],"outputs":[{"name":"","type":"bool","internalType":"bool"}],"stateMutability":"view"},{"type":"function","name":"setRemotePool","inputs":[{"name":"domain","type":"uint32","internalType":"uint32"},{"name":"poolAddress","type":"bytes32","internalType":"bytes32"}],"outputs":[],"stateMutability":"nonpayable"},{"type":"function","name":"setShieldFee","inputs":[{"name":"_feeBps","type":"uint120","internalType":"uint120"}],"outputs":[],"stateMutability":"nonpayable"},{"type":"function","name":"setTestingMode","inputs":[{"name":"_enabled","type":"bool","internalType":"bool"}],"outputs":[],"stateMutability":"nonpayable"},{"type":"function","name":"setTreasury","inputs":[{"name":"_treasury","type":"address","internalType":"address payable"}],"outputs":[],"stateMutability":"nonpayable"},{"type":"function","name":"setVerificationKey","inputs":[{"name":"_nullifiers","type":"uint256","internalType":"uint256"},{"name":"_commitments","type":"uint256","internalType":"uint256"},{"name":"_key","type":"tuple","internalType":"struct VerifyingKey","components":[{"name":"artifactsIPFSHash","type":"string","internalType":"string"},{"name":"alpha1","type":"tuple","internalType":"struct G1Point","components":[{"name":"x","type":"uint256","internalType":"uint256"},{"name":"y","type":"uint256","internalType":"uint256"}]},{"name":"beta2","type":"tuple","internalType":"struct G2Point","components":[{"name":"x","type":"uint256[2]","internalType":"uint256[2]"},{"name":"y","type":"uint256[2]","internalType":"uint256[2]"}]},{"name":"gamma2","type":"tuple","internalType":"struct G2Point","components":[{"name":"x","type":"uint256[2]","internalType":"uint256[2]"},{"name":"y","type":"uint256[2]","internalType":"uint256[2]"}]},{"name":"delta2","type":"tuple","internalType":"struct G2Point","components":[{"name":"x","type":"uint256[2]","internalType":"uint256[2]"},{"name":"y","type":"uint256[2]","internalType":"uint256[2]"}]},{"name":"ic","type":"tuple[]","internalType":"struct G1Point[]","components":[{"name":"x","type":"uint256","internalType":"uint256"},{"name":"y","type":"uint256","internalType":"uint256"}]}]}],"outputs":[],"stateMutability":"nonpayable"},{"type":"function","name":"shield","inputs":[{"name":"_shieldRequests","type":"tuple[]","internalType":"struct ShieldRequest[]","components":[{"name":"preimage","type":"tuple","internalType":"struct CommitmentPreimage","components":[{"name":"npk","type":"bytes32","internalType":"bytes32"},{"name":"token","type":"tuple","internalType":"struct TokenData","components":[{"name":"tokenType","type":"uint8","internalType":"enum TokenType"},{"name":"tokenAddress","type":"address","internalType":"address"},{"name":"tokenSubID","type":"uint256","internalType":"uint256"}]},{"name":"value","type":"uint120","internalType":"uint120"}]},{"name":"ciphertext","type":"tuple","internalType":"struct ShieldCiphertext","components":[{"name":"encryptedBundle","type":"bytes32[3]","internalType":"bytes32[3]"},{"name":"shieldKey","type":"bytes32","internalType":"bytes32"}]}]}],"outputs":[],"stateMutability":"nonpayable"},{"type":"function","name":"shieldFee","inputs":[],"outputs":[{"name":"","type":"uint120","internalType":"uint120"}],"stateMutability":"view"},{"type":"function","name":"shieldModule","inputs":[],"outputs":[{"name":"","type":"address","internalType":"address"}],"stateMutability":"view"},{"type":"function","name":"snarkSafetyVector","inputs":[{"name":"","type":"uint256","internalType":"uint256"}],"outputs":[{"name":"","type":"bool","internalType":"bool"}],"stateMutability":"view"},{"type":"function","name":"testingMode","inputs":[],"outputs":[{"name":"","type":"bool","internalType":"bool"}],"stateMutability":"view"},{"type":"function","name":"tokenBlocklist","inputs":[{"name":"","type":"address","internalType":"address"}],"outputs":[{"name":"","type":"bool","internalType":"bool"}],"stateMutability":"view"},{"type":"function","name":"tokenIDMapping","inputs":[{"name":"","type":"bytes32","internalType":"bytes32"}],"outputs":[{"name":"tokenType","type":"uint8","internalType":"enum TokenType"},{"name":"tokenAddress","type":"address","internalType":"address"},{"name":"tokenSubID","type":"uint256","internalType":"uint256"}],"stateMutability":"view"},{"type":"function","name":"tokenMessenger","inputs":[],"outputs":[{"name":"","type":"address","internalType":"address"}],"stateMutability":"view"},{"type":"function","name":"transact","inputs":[{"name":"_transactions","type":"tuple[]","internalType":"struct Transaction[]","components":[{"name":"proof","type":"tuple","internalType":"struct SnarkProof","components":[{"name":"a","type":"tuple","internalType":"struct G1Point","components":[{"name":"x","type":"uint256","internalType":"uint256"},{"name":"y","type":"uint256","internalType":"uint256"}]},{"name":"b","type":"tuple","internalType":"struct G2Point","components":[{"name":"x","type":"uint256[2]","internalType":"uint256[2]"},{"name":"y","type":"uint256[2]","internalType":"uint256[2]"}]},{"name":"c","type":"tuple","internalType":"struct G1Point","components":[{"name":"x","type":"uint256","internalType":"uint256"},{"name":"y","type":"uint256","internalType":"uint256"}]}]},{"name":"merkleRoot","type":"bytes32","internalType":"bytes32"},{"name":"nullifiers","type":"bytes32[]","internalType":"bytes32[]"},{"name":"commitments","type":"bytes32[]","internalType":"bytes32[]"},{"name":"boundParams","type":"tuple","internalType":"struct BoundParams","components":[{"name":"treeNumber","type":"uint16","internalType":"uint16"},{"name":"minGasPrice","type":"uint72","internalType":"uint72"},{"name":"unshield","type":"uint8","internalType":"enum UnshieldType"},{"name":"chainID","type":"uint64","internalType":"uint64"},{"name":"adaptContract","type":"address","internalType":"address"},{"name":"adaptParams","type":"bytes32","internalType":"bytes32"},{"name":"commitmentCiphertext","type":"tuple[]","internalType":"struct CommitmentCiphertext[]","components":[{"name":"ciphertext","type":"bytes32[4]","internalType":"bytes32[4]"},{"name":"blindedSenderViewingKey","type":"bytes32","internalType":"bytes32"},{"name":"blindedReceiverViewingKey","type":"bytes32","internalType":"bytes32"},{"name":"annotationData","type":"bytes","internalType":"bytes"},{"name":"memo","type":"bytes","internalType":"bytes"}]}]},{"name":"unshieldPreimage","type":"tuple","internalType":"struct CommitmentPreimage","components":[{"name":"npk","type":"bytes32","internalType":"bytes32"},{"name":"token","type":"tuple","internalType":"struct TokenData","components":[{"name":"tokenType","type":"uint8","internalType":"enum TokenType"},{"name":"tokenAddress","type":"address","internalType":"address"},{"name":"tokenSubID","type":"uint256","internalType":"uint256"}]},{"name":"value","type":"uint120","internalType":"uint120"}]}]}],"outputs":[],"stateMutability":"nonpayable"},{"type":"function","name":"transactModule","inputs":[],"outputs":[{"name":"","type":"address","internalType":"address"}],"stateMutability":"view"},{"type":"function","name":"treasury","inputs":[],"outputs":[{"name":"","type":"address","internalType":"address payable"}],"stateMutability":"view"},{"type":"function","name":"treeNumber","inputs":[],"outputs":[{"name":"","type":"uint256","internalType":"uint256"}],"stateMutability":"view"},{"type":"function","name":"unshieldFee","inputs":[],"outputs":[{"name":"","type":"uint120","internalType":"uint120"}],"stateMutability":"view"},{"type":"function","name":"usdc","inputs":[],"outputs":[{"name":"","type":"address","internalType":"address"}],"stateMutability":"view"},{"type":"function","name":"verifierModule","inputs":[],"outputs":[{"name":"","type":"address","internalType":"address"}],"stateMutability":"view"},{"type":"function","name":"verify","inputs":[{"name":"_transaction","type":"tuple","internalType":"struct Transaction","components":[{"name":"proof","type":"tuple","internalType":"struct SnarkProof","components":[{"name":"a","type":"tuple","internalType":"struct G1Point","components":[{"name":"x","type":"uint256","internalType":"uint256"},{"name":"y","type":"uint256","internalType":"uint256"}]},{"name":"b","type":"tuple","internalType":"struct G2Point","components":[{"name":"x","type":"uint256[2]","internalType":"uint256[2]"},{"name":"y","type":"uint256[2]","internalType":"uint256[2]"}]},{"name":"c","type":"tuple","internalType":"struct G1Point","components":[{"name":"x","type":"uint256","internalType":"uint256"},{"name":"y","type":"uint256","internalType":"uint256"}]}]},{"name":"merkleRoot","type":"bytes32","internalType":"bytes32"},{"name":"nullifiers","type":"bytes32[]","internalType":"bytes32[]"},{"name":"commitments","type":"bytes32[]","internalType":"bytes32[]"},{"name":"boundParams","type":"tuple","internalType":"struct BoundParams","components":[{"name":"treeNumber","type":"uint16","internalType":"uint16"},{"name":"minGasPrice","type":"uint72","internalType":"uint72"},{"name":"unshield","type":"uint8","internalType":"enum UnshieldType"},{"name":"chainID","type":"uint64","internalType":"uint64"},{"name":"adaptContract","type":"address","internalType":"address"},{"name":"adaptParams","type":"bytes32","internalType":"bytes32"},{"name":"commitmentCiphertext","type":"tuple[]","internalType":"struct CommitmentCiphertext[]","components":[{"name":"ciphertext","type":"bytes32[4]","internalType":"bytes32[4]"},{"name":"blindedSenderViewingKey","type":"bytes32","internalType":"bytes32"},{"name":"blindedReceiverViewingKey","type":"bytes32","internalType":"bytes32"},{"name":"annotationData","type":"bytes","internalType":"bytes"},{"name":"memo","type":"bytes","internalType":"bytes"}]}]},{"name":"unshieldPreimage","type":"tuple","internalType":"struct CommitmentPreimage","components":[{"name":"npk","type":"bytes32","internalType":"bytes32"},{"name":"token","type":"tuple","internalType":"struct TokenData","components":[{"name":"tokenType","type":"uint8","internalType":"enum TokenType"},{"name":"tokenAddress","type":"address","internalType":"address"},{"name":"tokenSubID","type":"uint256","internalType":"uint256"}]},{"name":"value","type":"uint120","internalType":"uint120"}]}]}],"outputs":[{"name":"","type":"bool","internalType":"bool"}],"stateMutability":"view"},{"type":"function","name":"zeros","inputs":[{"name":"","type":"uint256","internalType":"uint256"}],"outputs":[{"name":"","type":"bytes32","internalType":"bytes32"}],"stateMutability":"view"},{"type":"event","name":"RemotePoolSet","inputs":[{"name":"domain","type":"uint32","indexed":true,"internalType":"uint32"},{"name":"poolAddress","type":"bytes32","indexed":false,"internalType":"bytes32"}],"anonymous":false},{"type":"event","name":"TestingModeSet","inputs":[{"name":"enabled","type":"bool","indexed":false,"internalType":"bool"}],"anonymous":false}],"bytecode":{"object":"0x608060405234801561001057600080fd5b50616a4480620000216000396000f3fe608060405234801561001057600080fd5b506004361061025e5760003560e01c80636650331511610146578063c718dbda116100c3578063e484d40811610087578063e484d40814610730578063e829558814610760578063ec73295914610790578063ee990783146107ae578063f0f44260146107de578063f19ea903146107fa5761025e565b8063c718dbda1461068c578063c8f35b5d146106bc578063cd3efe06146106da578063d8ae136a146106f8578063dc52bf9f146107145761025e565b80638d3638f41161010a5780638d3638f4146105e25780638da5cb5b146106005780639071adc01461061e57806390de3f6e1461063c578063b8ceaef21461065a5761025e565b806366503315146105165780637b04c181146105345780637b12ae83146105525780637c92f21914610582578063815b534f146105b25761025e565b80632ec0f359116101df57806341506fc1116101a357806341506fc114610468578063461178301461048657806347338389146104a457806350d02937146104c0578063596d7a68146104dc57806361d027b3146104f85761025e565b80632ec0f359146103c457806330ed93c3146103e057806335db307c1461041057806337bc03241461042e5780633e413bee1461044a5761025e565b80630c9c0c8d116102265780630c9c0c8d146102f757806311cffb6714610328578063129458f414610358578063158ef93e146103885780632eb4a7ab146103a65761025e565b806301c3779014610263578063044a40c314610281578063048e09901461029d578063053ed12a146102bb5780630be4f422146102d9575b600080fd5b61026b61082a565b6040516102789190613377565b60405180910390f35b61029b6004803603810190610296919061340c565b61084b565b005b6102a56108d1565b6040516102b2919061349a565b60405180910390f35b6102c36108f7565b6040516102d09190613377565b60405180910390f35b6102e1610918565b6040516102ee91906134ce565b60405180910390f35b610311600480360381019061030c9190613515565b61091e565b60405161031f929190613542565b60405180910390f35b610342600480360381019061033d9190613633565b610930565b60405161034f91906136d6565b60405180910390f35b610372600480360381019061036d9190613515565b610b5b565b60405161037f91906136d6565b60405180910390f35b610390610b7b565b60405161039d91906136d6565b60405180910390f35b6103ae610b8e565b6040516103bb9190613700565b60405180910390f35b6103de60048036038101906103d99190613740565b610b94565b005b6103fa60048036038101906103f591906137af565b610caf565b6040516104079190613700565b60405180910390f35b610418610cc7565b604051610425919061349a565b60405180910390f35b610448600480360381019061044391906137dc565b610ceb565b005b610452610de1565b60405161045f919061349a565b60405180910390f35b610470610e07565b60405161047d919061349a565b60405180910390f35b61048e610e2d565b60405161049b919061349a565b60405180910390f35b6104be60048036038101906104b99190613848565b610e53565b005b6104da60048036038101906104d591906138a1565b610f73565b005b6104f660048036038101906104f19190613997565b611600565b005b61050061174c565b60405161050d91906139e5565b60405180910390f35b61051e611772565b60405161052b91906134ce565b60405180910390f35b61053c611778565b604051610549919061349a565b60405180910390f35b61056c60048036038101906105679190613a00565b61179e565b6040516105799190613d1b565b60405180910390f35b61059c60048036038101906105979190613633565b611ae4565b6040516105a991906136d6565b60405180910390f35b6105cc60048036038101906105c79190613d3d565b611b21565b6040516105d991906136d6565b60405180910390f35b6105ea611b41565b6040516105f79190613d79565b60405180910390f35b610608611b57565b604051610615919061349a565b60405180910390f35b610626611b7d565b6040516106339190613377565b60405180910390f35b610644611b9e565b604051610651919061349a565b60405180910390f35b610674600480360381019061066f9190613d94565b611bc4565b60405161068393929190613e38565b60405180910390f35b6106a660048036038101906106a19190613e6f565b611c1b565b6040516106b391906136d6565b60405180910390f35b6106c4611c4a565b6040516106d191906136d6565b60405180910390f35b6106e2611c5d565b6040516106ef91906134ce565b60405180910390f35b610712600480360381019061070d9190613f05565b611c63565b005b61072e60048036038101906107299190614090565b611ceb565b005b61074a600480360381019061074591906140f9565b611dde565b60405161075791906141b3565b60405180910390f35b61077a60048036038101906107759190613515565b611e8c565b6040516107879190613700565b60405180910390f35b610798611ea7565b6040516107a59190613700565b60405180910390f35b6107c860048036038101906107c391906141ce565b611efc565b6040516107d591906136d6565b60405180910390f35b6107f860048036038101906107f39190614243565b61254b565b005b610814600480360381019061080f9190613e6f565b61268e565b60405161082191906136d6565b60405180910390f35b600960009054906101000a90046effffffffffffffffffffffffffffff1681565b6108cc60008054906101000a900473ffffffffffffffffffffffffffffffffffffffff168383604051602401610882929190614566565b60405160208183030381529060405263044a40c360e01b6020820180517bffffffffffffffffffffffffffffffffffffffffffffffffffffffff83818316178352505050506126bd565b505050565b600160009054906101000a900473ffffffffffffffffffffffffffffffffffffffff1681565b6009600f9054906101000a90046effffffffffffffffffffffffffffff1681565b600d5481565b600080601054600d5491509150915091565b6000600460009054906101000a900473ffffffffffffffffffffffffffffffffffffffff1673ffffffffffffffffffffffffffffffffffffffff163373ffffffffffffffffffffffffffffffffffffffff16146109c2576040517f08c379a00000000000000000000000000000000000000000000000000000000081526004016109b9906145e7565b60405180910390fd5b6107d063ffffffff168463ffffffff161015610a13576040517f08c379a0000000000000000000000000000000000000000000000000000000008152600401610a0a90614679565b60405180910390fd5b6000806000610a2286866127f7565b92509250925060008284610a3691906146c8565b90506000610a4383612926565b905060006001811115610a5957610a58613dc1565b5b81600001516001811115610a7057610a6f613dc1565b5b03610b0e576000610a848260200151612949565b9050610b0760008054906101000a900473ffffffffffffffffffffffffffffffffffffffff168483604051602401610abd9291906147ed565b60405160208183030381529060405263c5b2d8c060e01b6020820180517bffffffffffffffffffffffffffffffffffffffffffffffffffffffff83818316178352505050506126bd565b5050610b49565b6040517f08c379a0000000000000000000000000000000000000000000000000000000008152600401610b4090614888565b60405180910390fd5b60019550505050505095945050505050565b60356020528060005260406000206000915054906101000a900460ff1681565b603760149054906101000a900460ff1681565b600e5481565b603760009054906101000a900473ffffffffffffffffffffffffffffffffffffffff1673ffffffffffffffffffffffffffffffffffffffff163373ffffffffffffffffffffffffffffffffffffffff1614610c24576040517f08c379a0000000000000000000000000000000000000000000000000000000008152600401610c1b906148f4565b60405180910390fd5b610ca9600360009054906101000a900473ffffffffffffffffffffffffffffffffffffffff16848484604051602401610c5f93929190614c29565b604051602081830303815290604052632ec0f35960e01b6020820180517bffffffffffffffffffffffffffffffffffffffffffffffffffffffff83818316178352505050506126bd565b50505050565b60076020528060005260406000206000915090505481565b60008054906101000a900473ffffffffffffffffffffffffffffffffffffffff1681565b603760009054906101000a900473ffffffffffffffffffffffffffffffffffffffff1673ffffffffffffffffffffffffffffffffffffffff163373ffffffffffffffffffffffffffffffffffffffff1614610d7b576040517f08c379a0000000000000000000000000000000000000000000000000000000008152600401610d72906148f4565b60405180910390fd5b80600760008463ffffffff1663ffffffff168152602001908152602001600020819055508163ffffffff167f019190ca21b03575fe0ef686ebc94279721ca06510c186ee3a8d26cfa5d7002382604051610dd59190613700565b60405180910390a25050565b600660009054906101000a900473ffffffffffffffffffffffffffffffffffffffff1681565b600360009054906101000a900473ffffffffffffffffffffffffffffffffffffffff1681565b600460009054906101000a900473ffffffffffffffffffffffffffffffffffffffff1681565b603760009054906101000a900473ffffffffffffffffffffffffffffffffffffffff1673ffffffffffffffffffffffffffffffffffffffff163373ffffffffffffffffffffffffffffffffffffffff1614610ee3576040517f08c379a0000000000000000000000000000000000000000000000000000000008152600401610eda906148f4565b60405180910390fd5b612710816effffffffffffffffffffffffffffff161115610f39576040517f08c379a0000000000000000000000000000000000000000000000000000000008152600401610f3090614cb3565b60405180910390fd5b80600960006101000a8154816effffffffffffffffffffffffffffff02191690836effffffffffffffffffffffffffffff16021790555050565b603760149054906101000a900460ff1615610fc3576040517f08c379a0000000000000000000000000000000000000000000000000000000008152600401610fba90614d1f565b60405180910390fd5b600073ffffffffffffffffffffffffffffffffffffffff168973ffffffffffffffffffffffffffffffffffffffff1603611032576040517f08c379a000000000000000000000000000000000000000000000000000000000815260040161102990614d8b565b60405180910390fd5b600073ffffffffffffffffffffffffffffffffffffffff168873ffffffffffffffffffffffffffffffffffffffff16036110a1576040517f08c379a000000000000000000000000000000000000000000000000000000000815260040161109890614df7565b60405180910390fd5b600073ffffffffffffffffffffffffffffffffffffffff168773ffffffffffffffffffffffffffffffffffffffff1603611110576040517f08c379a000000000000000000000000000000000000000000000000000000000815260040161110790614e63565b60405180910390fd5b600073ffffffffffffffffffffffffffffffffffffffff168673ffffffffffffffffffffffffffffffffffffffff160361117f576040517f08c379a000000000000000000000000000000000000000000000000000000000815260040161117690614ecf565b60405180910390fd5b600073ffffffffffffffffffffffffffffffffffffffff168573ffffffffffffffffffffffffffffffffffffffff16036111ee576040517f08c379a00000000000000000000000000000000000000000000000000000000081526004016111e590614f3b565b60405180910390fd5b600073ffffffffffffffffffffffffffffffffffffffff168473ffffffffffffffffffffffffffffffffffffffff160361125d576040517f08c379a000000000000000000000000000000000000000000000000000000000815260040161125490614fcd565b60405180910390fd5b600073ffffffffffffffffffffffffffffffffffffffff168373ffffffffffffffffffffffffffffffffffffffff16036112cc576040517f08c379a00000000000000000000000000000000000000000000000000000000081526004016112c390615039565b60405180910390fd5b600073ffffffffffffffffffffffffffffffffffffffff168173ffffffffffffffffffffffffffffffffffffffff160361133b576040517f08c379a0000000000000000000000000000000000000000000000000000000008152600401611332906150a5565b60405180910390fd5b886000806101000a81548173ffffffffffffffffffffffffffffffffffffffff021916908373ffffffffffffffffffffffffffffffffffffffff16021790555087600160006101000a81548173ffffffffffffffffffffffffffffffffffffffff021916908373ffffffffffffffffffffffffffffffffffffffff16021790555086600260006101000a81548173ffffffffffffffffffffffffffffffffffffffff021916908373ffffffffffffffffffffffffffffffffffffffff16021790555085600360006101000a81548173ffffffffffffffffffffffffffffffffffffffff021916908373ffffffffffffffffffffffffffffffffffffffff16021790555084600460006101000a81548173ffffffffffffffffffffffffffffffffffffffff021916908373ffffffffffffffffffffffffffffffffffffffff16021790555083600560006101000a81548173ffffffffffffffffffffffffffffffffffffffff021916908373ffffffffffffffffffffffffffffffffffffffff16021790555082600660006101000a81548173ffffffffffffffffffffffffffffffffffffffff021916908373ffffffffffffffffffffffffffffffffffffffff16021790555081600660146101000a81548163ffffffff021916908363ffffffff16021790555080603760006101000a81548173ffffffffffffffffffffffffffffffffffffffff021916908373ffffffffffffffffffffffffffffffffffffffff1602179055506115d9600260009054906101000a900473ffffffffffffffffffffffffffffffffffffffff16604051602401604051602081830303815290604052632d974a4c60e01b6020820180517bffffffffffffffffffffffffffffffffffffffffffffffffffffffff83818316178352505050506126bd565b506001603760146101000a81548160ff021916908315150217905550505050505050505050565b603760009054906101000a900473ffffffffffffffffffffffffffffffffffffffff1673ffffffffffffffffffffffffffffffffffffffff163373ffffffffffffffffffffffffffffffffffffffff1614611690576040517f08c379a0000000000000000000000000000000000000000000000000000000008152600401611687906148f4565b60405180910390fd5b611711600360009054906101000a900473ffffffffffffffffffffffffffffffffffffffff16826040516024016116c791906136d6565b60405160208183030381529060405263596d7a6860e01b6020820180517bffffffffffffffffffffffffffffffffffffffffffffffffffffffff83818316178352505050506126bd565b507f21f67800fb06e35b87566708fd49f2a7cc96bf3a74ca56e175b23e6f35b102488160405161174191906136d6565b60405180910390a150565b600860009054906101000a900473ffffffffffffffffffffffffffffffffffffffff1681565b60105481565b600560009054906101000a900473ffffffffffffffffffffffffffffffffffffffff1681565b6117a66131a4565b6033600084815260200190815260200160002060008381526020019081526020016000206040518060c00160405290816000820180546117e5906150f4565b80601f0160208091040260200160405190810160405280929190818152602001828054611811906150f4565b801561185e5780601f106118335761010080835404028352916020019161185e565b820191906000526020600020905b81548152906001019060200180831161184157829003601f168201915b505050505081526020016001820160405180604001604052908160008201548152602001600182015481525050815260200160038201604051806040016040529081600082016002806020026040519081016040528092919082600280156118db576020028201915b8154815260200190600101908083116118c7575b5050505050815260200160028201600280602002604051908101604052809291908260028015611920576020028201915b81548152602001906001019080831161190c575b50505050508152505081526020016007820160405180604001604052908160008201600280602002604051908101604052809291908260028015611979576020028201915b815481526020019060010190808311611965575b50505050508152602001600282016002806020026040519081016040528092919082600280156119be576020028201915b8154815260200190600101908083116119aa575b5050505050815250508152602001600b820160405180604001604052908160008201600280602002604051908101604052809291908260028015611a17576020028201915b815481526020019060010190808311611a03575b5050505050815260200160028201600280602002604051908101604052809291908260028015611a5c576020028201915b815481526020019060010190808311611a48575b5050505050815250508152602001600f8201805480602002602001604051908101604052809291908181526020016000905b82821015611ad457838290600052602060002090600202016040518060400160405290816000820154815260200160018201548152505081526020019060010190611a8e565b5050505081525050905092915050565b60006040517f08c379a0000000000000000000000000000000000000000000000000000000008152600401611b1890615197565b60405180910390fd5b600b6020528060005260406000206000915054906101000a900460ff1681565b600660149054906101000a900463ffffffff1681565b603760009054906101000a900473ffffffffffffffffffffffffffffffffffffffff1681565b600a60009054906101000a90046effffffffffffffffffffffffffffff1681565b600260009054906101000a900473ffffffffffffffffffffffffffffffffffffffff1681565b600c6020528060005260406000206000915090508060000160009054906101000a900460ff16908060000160019054906101000a900473ffffffffffffffffffffffffffffffffffffffff16908060010154905083565b60316020528160005260406000206020528060005260406000206000915091509054906101000a900460ff1681565b603460009054906101000a900460ff1681565b60365481565b611ce6600160009054906101000a900473ffffffffffffffffffffffffffffffffffffffff168383604051602401611c9c9291906159de565b60405160208183030381529060405263d8ae136a60e01b6020820180517bffffffffffffffffffffffffffffffffffffffffffffffffffffffff83818316178352505050506126bd565b505050565b3073ffffffffffffffffffffffffffffffffffffffff163373ffffffffffffffffffffffffffffffffffffffff1614611d59576040517f08c379a0000000000000000000000000000000000000000000000000000000008152600401611d5090615a4e565b60405180910390fd5b611dda600260009054906101000a900473ffffffffffffffffffffffffffffffffffffffff1682604051602401611d909190615b05565b60405160208183030381529060405263dc52bf9f60e01b6020820180517bffffffffffffffffffffffffffffffffffffffffffffffffffffffff83818316178352505050506126bd565b5050565b600080611e6a600160009054906101000a900473ffffffffffffffffffffffffffffffffffffffff168888888888604051602401611e20959493929190615bfd565b60405160208183030381529060405263e484d40860e01b6020820180517bffffffffffffffffffffffffffffffffffffffffffffffffffffffff83818316178352505050506126bd565b905080806020019051810190611e809190615c6c565b91505095945050505050565b60118160108110611e9c57600080fd5b016000915090505481565b7f30644e72e131a029b85045b68181585d2833e84879b9709143e1f593f00000017f95b5e3f3c951508f13e7771152f5b7c7329a294917685c10a571c9247e3b9fff60001c611ef69190615cc8565b60001b81565b6000603460009054906101000a900460ff1615611f1c5760019050612546565b600082806101200190611f2f9190615d08565b90509050600083806101400190611f469190615d08565b9050905060006033600084815260200190815260200160002060008381526020019081526020016000206040518060c0016040529081600082018054611f8b906150f4565b80601f0160208091040260200160405190810160405280929190818152602001828054611fb7906150f4565b80156120045780601f10611fd957610100808354040283529160200191612004565b820191906000526020600020905b815481529060010190602001808311611fe757829003601f168201915b50505050508152602001600182016040518060400160405290816000820154815260200160018201548152505081526020016003820160405180604001604052908160008201600280602002604051908101604052809291908260028015612081576020028201915b81548152602001906001019080831161206d575b50505050508152602001600282016002806020026040519081016040528092919082600280156120c6576020028201915b8154815260200190600101908083116120b2575b5050505050815250508152602001600782016040518060400160405290816000820160028060200260405190810160405280929190826002801561211f576020028201915b81548152602001906001019080831161210b575b5050505050815260200160028201600280602002604051908101604052809291908260028015612164576020028201915b815481526020019060010190808311612150575b5050505050815250508152602001600b8201604051806040016040529081600082016002806020026040519081016040528092919082600280156121bd576020028201915b8154815260200190600101908083116121a9575b5050505050815260200160028201600280602002604051908101604052809291908260028015612202576020028201915b8154815260200190600101908083116121ee575b5050505050815250508152602001600f8201805480602002602001604051908101604052809291908181526020016000905b8282101561227a57838290600052602060002090600202016040518060400160405290816000820154815260200160018201548152505081526020019060010190612234565b505050508152505090506000816020015160000151036122cf576040517f08c379a00000000000000000000000000000000000000000000000000000000081526004016122c690615ddd565b60405180910390fd5b6000828460026122df9190615dfd565b6122e99190615dfd565b67ffffffffffffffff81111561230257612301613f52565b5b6040519080825280602002602001820160405280156123305781602001602082028036833780820191505090505b50905085610100013560001c816000815181106123505761234f615e31565b5b6020026020010181815250507f30644e72e131a029b85045b68181585d2833e84879b9709143e1f593f00000018680610160019061238e9190615e60565b60405160200161239e9190615f5e565b6040516020818303038152906040528051906020012060001c6123c19190615cc8565b816001815181106123d5576123d4615e31565b5b60200260200101818152505060005b8481101561245657868061012001906123fd9190615d08565b8281811061240e5761240d615e31565b5b9050602002013560001c828260026124269190615dfd565b8151811061243757612436615e31565b5b602002602001018181525050808061244e90615f80565b9150506123e4565b5060005b838110156124d757868061014001906124739190615d08565b8281811061248457612483615e31565b5b9050602002013560001c828287600261249d9190615dfd565b6124a79190615dfd565b815181106124b8576124b7615e31565b5b60200260200101818152505080806124cf90615f80565b91505061245a565b5060006124f883886000018036038101906124f29190616188565b8461296c565b905061dead73ffffffffffffffffffffffffffffffffffffffff163273ffffffffffffffffffffffffffffffffffffffff160361253d57600195505050505050612546565b80955050505050505b919050565b603760009054906101000a900473ffffffffffffffffffffffffffffffffffffffff1673ffffffffffffffffffffffffffffffffffffffff163373ffffffffffffffffffffffffffffffffffffffff16146125db576040517f08c379a00000000000000000000000000000000000000000000000000000000081526004016125d2906148f4565b60405180910390fd5b600073ffffffffffffffffffffffffffffffffffffffff168173ffffffffffffffffffffffffffffffffffffffff160361264a576040517f08c379a000000000000000000000000000000000000000000000000000000000815260040161264190616202565b60405180910390fd5b80600860006101000a81548173ffffffffffffffffffffffffffffffffffffffff021916908373ffffffffffffffffffffffffffffffffffffffff16021790555050565b60326020528160005260406000206020528060005260406000206000915091509054906101000a900460ff1681565b6060600073ffffffffffffffffffffffffffffffffffffffff168373ffffffffffffffffffffffffffffffffffffffff160361272e576040517f08c379a00000000000000000000000000000000000000000000000000000000081526004016127259061626e565b60405180910390fd5b60008373ffffffffffffffffffffffffffffffffffffffff168360405161275591906162d5565b600060405180830381855af49150503d8060008114612790576040519150601f19603f3d011682016040523d82523d6000602084013e612795565b606091505b508093508192505050806127f0576000825111156127b557815160208301fd5b6040517f08c379a00000000000000000000000000000000000000000000000000000000081526004016127e790616338565b60405180910390fd5b5092915050565b600080606060e4858590501015612843576040517f08c379a000000000000000000000000000000000000000000000000000000000815260040161283a906163a4565b60405180910390fd5b8484604490602060446128569190615dfd565b92612863939291906163ce565b9061286e9190616421565b60001c9250848460a490602060a46128869190615dfd565b92612893939291906163ce565b9061289e9190616421565b60001c915060e485859050111561290c57848460e49080926128c2939291906163ce565b8080601f016020809104026020016040519081016040528093929190818152602001838380828437600081840152601f19601f82011690508083019250505050505050905061291f565b6040518060200160405280600081525090505b9250925092565b61292e6131f2565b8180602001905181019061294291906165b7565b9050919050565b61295161321e565b818060200190518101906129659190616753565b9050919050565b6000806040518060400160405280600081526020016000815250905060005b8351811015612a7d577f30644e72e131a029b85045b68181585d2833e84879b9709143e1f593f00000018482815181106129c8576129c7615e31565b5b602002602001015110612a10576040517f08c379a0000000000000000000000000000000000000000000000000000000008152600401612a07906167f2565b60405180910390fd5b612a6782612a628860a00151600185612a299190615dfd565b81518110612a3a57612a39615e31565b5b6020026020010151878581518110612a5557612a54615e31565b5b6020026020010151612ae7565b612bb3565b9150600181612a769190615dfd565b905061298b565b50612aa7818660a00151600081518110612a9a57612a99615e31565b5b6020026020010151612bb3565b9050612add612ab98560000151612cb1565b856020015187602001518860400151858a606001518a604001518c60800151612e9c565b9150509392505050565b612aef613263565b612af761327d565b836000015181600060038110612b1057612b0f615e31565b5b602002018181525050836020015181600160038110612b3257612b31615e31565b5b6020020181815250508281600260038110612b5057612b4f615e31565b5b602002018181525050600060408360608460076107d05a03fa905080612bab576040517f08c379a0000000000000000000000000000000000000000000000000000000008152600401612ba290616884565b60405180910390fd5b505092915050565b612bbb613263565b612bc361329f565b836000015181600060048110612bdc57612bdb615e31565b5b602002018181525050836020015181600160048110612bfe57612bfd615e31565b5b602002018181525050826000015181600260048110612c2057612c1f615e31565b5b602002018181525050826020015181600360048110612c4257612c41615e31565b5b6020020181815250506000612c55613263565b60408160808560066107d05a03fa915081612ca5576040517f08c379a0000000000000000000000000000000000000000000000000000000008152600401612c9c906168f0565b60405180910390fd5b80935050505092915050565b612cb9613263565b60008260000151148015612cd1575060008260200151145b15612cf45760405180604001604052806000815260200160008152509050612e97565b60007f30644e72e131a029b85045b68181585d97816a916871ca8d3c208c16d87cfd4780612d2557612d24615c99565b5b836000015184600001510990507f30644e72e131a029b85045b68181585d97816a916871ca8d3c208c16d87cfd4780612d6157612d60615c99565b5b8360000151820990507f30644e72e131a029b85045b68181585d97816a916871ca8d3c208c16d87cfd4780612d9957612d98615c99565b5b60038208905060007f30644e72e131a029b85045b68181585d97816a916871ca8d3c208c16d87cfd4780612dd057612dcf615c99565b5b84602001518560200151099050818114612e1f576040517f08c379a0000000000000000000000000000000000000000000000000000000008152600401612e169061695c565b60405180910390fd5b6040518060400160405280856000015181526020017f30644e72e131a029b85045b68181585d97816a916871ca8d3c208c16d87cfd478660200151612e649190615cc8565b7f30644e72e131a029b85045b68181585d97816a916871ca8d3c208c16d87cfd47612e8f91906146c8565b815250925050505b919050565b6000806040518061030001604052808b6000015181526020018b6020015181526020018a60000151600060028110612ed757612ed6615e31565b5b602002015181526020018a60000151600160028110612ef957612ef8615e31565b5b602002015181526020018a60200151600060028110612f1b57612f1a615e31565b5b602002015181526020018a60200151600160028110612f3d57612f3c615e31565b5b6020020151815260200189600001518152602001896020015181526020018860000151600060028110612f7357612f72615e31565b5b602002015181526020018860000151600160028110612f9557612f94615e31565b5b602002015181526020018860200151600060028110612fb757612fb6615e31565b5b602002015181526020018860200151600160028110612fd957612fd8615e31565b5b602002015181526020018760000151815260200187602001518152602001866000015160006002811061300f5761300e615e31565b5b60200201518152602001866000015160016002811061303157613030615e31565b5b60200201518152602001866020015160006002811061305357613052615e31565b5b60200201518152602001866020015160016002811061307557613074615e31565b5b60200201518152602001856000015181526020018560200151815260200184600001516000600281106130ab576130aa615e31565b5b6020020151815260200184600001516001600281106130cd576130cc615e31565b5b6020020151815260200184602001516000600281106130ef576130ee615e31565b5b60200201518152602001846020015160016002811061311157613110615e31565b5b602002015181525090506131236132c1565b60006020826103008560086107d05a03fa905080613176576040517f08c379a000000000000000000000000000000000000000000000000000000000815260040161316d906169ee565b60405180910390fd5b60008260006001811061318c5761318b615e31565b5b60200201511415935050505098975050505050505050565b6040518060c00160405280606081526020016131be613263565b81526020016131cb6132e3565b81526020016131d86132e3565b81526020016131e56132e3565b8152602001606081525090565b60405180604001604052806000600181111561321157613210613dc1565b5b8152602001606081525090565b60405180608001604052806000801916815260200160006effffffffffffffffffffffffffffff168152602001613253613309565b8152602001600080191681525090565b604051806040016040528060008152602001600081525090565b6040518060600160405280600390602082028036833780820191505090505090565b6040518060800160405280600490602082028036833780820191505090505090565b6040518060200160405280600190602082028036833780820191505090505090565b60405180604001604052806132f661332b565b815260200161330361332b565b81525090565b6040518060600160405280600390602082028036833780820191505090505090565b6040518060400160405280600290602082028036833780820191505090505090565b60006effffffffffffffffffffffffffffff82169050919050565b6133718161334d565b82525050565b600060208201905061338c6000830184613368565b92915050565b6000604051905090565b600080fd5b600080fd5b600080fd5b600080fd5b600080fd5b60008083601f8401126133cb576133ca6133a6565b5b8235905067ffffffffffffffff8111156133e8576133e76133ab565b5b60208301915083610120820283011115613405576134046133b0565b5b9250929050565b600080602083850312156134235761342261339c565b5b600083013567ffffffffffffffff811115613441576134406133a1565b5b61344d858286016133b5565b92509250509250929050565b600073ffffffffffffffffffffffffffffffffffffffff82169050919050565b600061348482613459565b9050919050565b61349481613479565b82525050565b60006020820190506134af600083018461348b565b92915050565b6000819050919050565b6134c8816134b5565b82525050565b60006020820190506134e360008301846134bf565b92915050565b6134f2816134b5565b81146134fd57600080fd5b50565b60008135905061350f816134e9565b92915050565b60006020828403121561352b5761352a61339c565b5b600061353984828501613500565b91505092915050565b600060408201905061355760008301856134bf565b61356460208301846134bf565b9392505050565b600063ffffffff82169050919050565b6135848161356b565b811461358f57600080fd5b50565b6000813590506135a18161357b565b92915050565b6000819050919050565b6135ba816135a7565b81146135c557600080fd5b50565b6000813590506135d7816135b1565b92915050565b60008083601f8401126135f3576135f26133a6565b5b8235905067ffffffffffffffff8111156136105761360f6133ab565b5b60208301915083600182028301111561362c5761362b6133b0565b5b9250929050565b60008060008060006080868803121561364f5761364e61339c565b5b600061365d88828901613592565b955050602061366e888289016135c8565b945050604061367f88828901613592565b935050606086013567ffffffffffffffff8111156136a05761369f6133a1565b5b6136ac888289016135dd565b92509250509295509295909350565b60008115159050919050565b6136d0816136bb565b82525050565b60006020820190506136eb60008301846136c7565b92915050565b6136fa816135a7565b82525050565b600060208201905061371560008301846136f1565b92915050565b600080fd5b600061020082840312156137375761373661371b565b5b81905092915050565b6000806000606084860312156137595761375861339c565b5b600061376786828701613500565b935050602061377886828701613500565b925050604084013567ffffffffffffffff811115613799576137986133a1565b5b6137a586828701613720565b9150509250925092565b6000602082840312156137c5576137c461339c565b5b60006137d384828501613592565b91505092915050565b600080604083850312156137f3576137f261339c565b5b600061380185828601613592565b9250506020613812858286016135c8565b9150509250929050565b6138258161334d565b811461383057600080fd5b50565b6000813590506138428161381c565b92915050565b60006020828403121561385e5761385d61339c565b5b600061386c84828501613833565b91505092915050565b61387e81613479565b811461388957600080fd5b50565b60008135905061389b81613875565b92915050565b60008060008060008060008060006101208a8c0312156138c4576138c361339c565b5b60006138d28c828d0161388c565b99505060206138e38c828d0161388c565b98505060406138f48c828d0161388c565b97505060606139058c828d0161388c565b96505060806139168c828d0161388c565b95505060a06139278c828d0161388c565b94505060c06139388c828d0161388c565b93505060e06139498c828d01613592565b92505061010061395b8c828d0161388c565b9150509295985092959850929598565b613974816136bb565b811461397f57600080fd5b50565b6000813590506139918161396b565b92915050565b6000602082840312156139ad576139ac61339c565b5b60006139bb84828501613982565b91505092915050565b60006139cf82613459565b9050919050565b6139df816139c4565b82525050565b60006020820190506139fa60008301846139d6565b92915050565b60008060408385031215613a1757613a1661339c565b5b6000613a2585828601613500565b9250506020613a3685828601613500565b9150509250929050565b600081519050919050565b600082825260208201905092915050565b60005b83811015613a7a578082015181840152602081019050613a5f565b60008484015250505050565b6000601f19601f8301169050919050565b6000613aa282613a40565b613aac8185613a4b565b9350613abc818560208601613a5c565b613ac581613a86565b840191505092915050565b613ad9816134b5565b82525050565b604082016000820151613af56000850182613ad0565b506020820151613b086020850182613ad0565b50505050565b600060029050919050565b600081905092915050565b6000819050919050565b6000613b3a8383613ad0565b60208301905092915050565b6000602082019050919050565b613b5c81613b0e565b613b668184613b19565b9250613b7182613b24565b8060005b83811015613ba2578151613b898782613b2e565b9650613b9483613b46565b925050600181019050613b75565b505050505050565b608082016000820151613bc06000850182613b53565b506020820151613bd36040850182613b53565b50505050565b600081519050919050565b600082825260208201905092915050565b6000819050602082019050919050565b6000613c118383613adf565b60408301905092915050565b6000602082019050919050565b6000613c3582613bd9565b613c3f8185613be4565b9350613c4a83613bf5565b8060005b83811015613c7b578151613c628882613c05565b9750613c6d83613c1d565b925050600181019050613c4e565b5085935050505092915050565b6000610200830160008301518482036000860152613ca68282613a97565b9150506020830151613cbb6020860182613adf565b506040830151613cce6060860182613baa565b506060830151613ce160e0860182613baa565b506080830151613cf5610160860182613baa565b5060a08301518482036101e0860152613d0e8282613c2a565b9150508091505092915050565b60006020820190508181036000830152613d358184613c88565b905092915050565b600060208284031215613d5357613d5261339c565b5b6000613d618482850161388c565b91505092915050565b613d738161356b565b82525050565b6000602082019050613d8e6000830184613d6a565b92915050565b600060208284031215613daa57613da961339c565b5b6000613db8848285016135c8565b91505092915050565b7f4e487b7100000000000000000000000000000000000000000000000000000000600052602160045260246000fd5b60038110613e0157613e00613dc1565b5b50565b6000819050613e1282613df0565b919050565b6000613e2282613e04565b9050919050565b613e3281613e17565b82525050565b6000606082019050613e4d6000830186613e29565b613e5a602083018561348b565b613e6760408301846134bf565b949350505050565b60008060408385031215613e8657613e8561339c565b5b6000613e9485828601613500565b9250506020613ea5858286016135c8565b9150509250929050565b60008083601f840112613ec557613ec46133a6565b5b8235905067ffffffffffffffff811115613ee257613ee16133ab565b5b602083019150836020820283011115613efe57613efd6133b0565b5b9250929050565b60008060208385031215613f1c57613f1b61339c565b5b600083013567ffffffffffffffff811115613f3a57613f396133a1565b5b613f4685828601613eaf565b92509250509250929050565b7f4e487b7100000000000000000000000000000000000000000000000000000000600052604160045260246000fd5b613f8a82613a86565b810181811067ffffffffffffffff82111715613fa957613fa8613f52565b5b80604052505050565b6000613fbc613392565b9050613fc88282613f81565b919050565b600067ffffffffffffffff821115613fe857613fe7613f52565b5b602082029050602081019050919050565b600061400c61400784613fcd565b613fb2565b9050808382526020820190506020840283018581111561402f5761402e6133b0565b5b835b81811015614058578061404488826135c8565b845260208401935050602081019050614031565b5050509392505050565b600082601f830112614077576140766133a6565b5b8135614087848260208601613ff9565b91505092915050565b6000602082840312156140a6576140a561339c565b5b600082013567ffffffffffffffff8111156140c4576140c36133a1565b5b6140d084828501614062565b91505092915050565b600061022082840312156140f0576140ef61371b565b5b81905092915050565b600080600080600060a086880312156141155761411461339c565b5b600086013567ffffffffffffffff811115614133576141326133a1565b5b61413f888289016140d9565b955050602061415088828901613592565b94505060406141618882890161388c565b9350506060614172888289016135c8565b925050608061418388828901613500565b9150509295509295909350565b600067ffffffffffffffff82169050919050565b6141ad81614190565b82525050565b60006020820190506141c860008301846141a4565b92915050565b6000602082840312156141e4576141e361339c565b5b600082013567ffffffffffffffff811115614202576142016133a1565b5b61420e848285016140d9565b91505092915050565b614220816139c4565b811461422b57600080fd5b50565b60008135905061423d81614217565b92915050565b6000602082840312156142595761425861339c565b5b60006142678482850161422e565b91505092915050565b600082825260208201905092915050565b6000819050919050565b600082905092915050565b60006142a560208401846135c8565b905092915050565b6142b6816135a7565b82525050565b600082905092915050565b600381106142d457600080fd5b50565b6000813590506142e6816142c7565b92915050565b60006142fb60208401846142d7565b905092915050565b61430c81613e17565b82525050565b6000614321602084018461388c565b905092915050565b61433281613479565b82525050565b60006143476020840184613500565b905092915050565b6060820161436060008301836142ec565b61436d6000850182614303565b5061437b6020830183614312565b6143886020850182614329565b506143966040830183614338565b6143a36040850182613ad0565b50505050565b60006143b86020840184613833565b905092915050565b6143c98161334d565b82525050565b60a082016143e06000830183614296565b6143ed60008501826142ad565b506143fb60208301836142bc565b614408602085018261434f565b5061441660808301836143a9565b61442360808501826143c0565b50505050565b600082905092915050565b600082905092915050565b82818337505050565b6144546060838361443f565b5050565b608082016144696000830183614434565b6144766000850182614448565b506144846060830183614296565b61449160608501826142ad565b50505050565b61012082016144a9600083018361428b565b6144b660008501826143cf565b506144c460a0830183614429565b6144d160a0850182614458565b50505050565b60006144e38383614497565b6101208301905092915050565b600082905092915050565b600061012082019050919050565b60006145158385614270565b935061452082614281565b8060005b858110156145595761453682846144f0565b61454088826144d7565b975061454b836144fb565b925050600181019050614524565b5085925050509392505050565b60006020820190508181036000830152614581818486614509565b90509392505050565b600082825260208201905092915050565b7f50726976616379506f6f6c3a204f6e6c7920546f6b656e4d657373656e676572600082015250565b60006145d160208361458a565b91506145dc8261459b565b602082019050919050565b60006020820190508181036000830152614600816145c4565b9050919050565b7f50726976616379506f6f6c3a20496e73756666696369656e742066696e616c6960008201527f7479000000000000000000000000000000000000000000000000000000000000602082015250565b600061466360228361458a565b915061466e82614607565b604082019050919050565b6000602082019050818103600083015261469281614656565b9050919050565b7f4e487b7100000000000000000000000000000000000000000000000000000000600052601160045260246000fd5b60006146d3826134b5565b91506146de836134b5565b92508282039050818111156146f6576146f5614699565b5b92915050565b600060039050919050565b600081905092915050565b6000819050919050565b600061472883836142ad565b60208301905092915050565b6000602082019050919050565b61474a816146fc565b6147548184614707565b925061475f82614712565b8060005b83811015614790578151614777878261471c565b965061478283614734565b925050600181019050614763565b505050505050565b60c0820160008201516147ae60008501826142ad565b5060208201516147c160208501826143c0565b5060408201516147d46040850182614741565b5060608201516147e760a08501826142ad565b50505050565b600060e08201905061480260008301856134bf565b61480f6020830184614798565b9392505050565b7f50726976616379506f6f6c3a20496e76616c6964206d6573736167652074797060008201527f6500000000000000000000000000000000000000000000000000000000000000602082015250565b600061487260218361458a565b915061487d82614816565b604082019050919050565b600060208201905081810360008301526148a181614865565b9050919050565b7f50726976616379506f6f6c3a204f6e6c79206f776e6572000000000000000000600082015250565b60006148de60178361458a565b91506148e9826148a8565b602082019050919050565b6000602082019050818103600083015261490d816148d1565b9050919050565b600080fd5b600080fd5b600080fd5b600080833560016020038436030381126149405761493f61491e565b5b83810192508235915060208301925067ffffffffffffffff82111561496857614967614914565b5b60018202360383131561497e5761497d614919565b5b509250929050565b82818337600083830152505050565b60006149a18385613a4b565b93506149ae838584614986565b6149b783613a86565b840190509392505050565b600082905092915050565b604082016149de6000830183614338565b6149eb6000850182613ad0565b506149f96020830183614338565b614a066020850182613ad0565b50505050565b600082905092915050565b600082905092915050565b614a2e6040838361443f565b5050565b60808201614a436000830183614a17565b614a506000850182614a22565b50614a5e6040830183614a17565b614a6b6040850182614a22565b50505050565b60008083356001602003843603038112614a8e57614a8d61491e565b5b83810192508235915060208301925067ffffffffffffffff821115614ab657614ab5614914565b5b604082023603831315614acc57614acb614919565b5b509250929050565b6000819050919050565b6000614aea83836149cd565b60408301905092915050565b6000604082019050919050565b6000614b0f8385613be4565b9350614b1a82614ad4565b8060005b85811015614b5357614b3082846149c2565b614b3a8882614ade565b9750614b4583614af6565b925050600181019050614b1e565b5085925050509392505050565b60006102008301614b746000840184614923565b8583036000870152614b87838284614995565b92505050614b9860208401846149c2565b614ba560208601826149cd565b50614bb36060840184614a0c565b614bc06060860182614a32565b50614bce60e0840184614a0c565b614bdb60e0860182614a32565b50614bea610160840184614a0c565b614bf8610160860182614a32565b50614c076101e0840184614a71565b8583036101e0870152614c1b838284614b03565b925050508091505092915050565b6000606082019050614c3e60008301866134bf565b614c4b60208301856134bf565b8181036040830152614c5d8184614b60565b9050949350505050565b7f50726976616379506f6f6c3a2046656520746f6f206869676800000000000000600082015250565b6000614c9d60198361458a565b9150614ca882614c67565b602082019050919050565b60006020820190508181036000830152614ccc81614c90565b9050919050565b7f50726976616379506f6f6c3a20416c726561647920696e697469616c697a6564600082015250565b6000614d0960208361458a565b9150614d1482614cd3565b602082019050919050565b60006020820190508181036000830152614d3881614cfc565b9050919050565b7f50726976616379506f6f6c3a207a65726f20736869656c644d6f64756c650000600082015250565b6000614d75601e8361458a565b9150614d8082614d3f565b602082019050919050565b60006020820190508181036000830152614da481614d68565b9050919050565b7f50726976616379506f6f6c3a207a65726f207472616e736163744d6f64756c65600082015250565b6000614de160208361458a565b9150614dec82614dab565b602082019050919050565b60006020820190508181036000830152614e1081614dd4565b9050919050565b7f50726976616379506f6f6c3a207a65726f206d65726b6c654d6f64756c650000600082015250565b6000614e4d601e8361458a565b9150614e5882614e17565b602082019050919050565b60006020820190508181036000830152614e7c81614e40565b9050919050565b7f50726976616379506f6f6c3a207a65726f2076657269666965724d6f64756c65600082015250565b6000614eb960208361458a565b9150614ec482614e83565b602082019050919050565b60006020820190508181036000830152614ee881614eac565b9050919050565b7f50726976616379506f6f6c3a207a65726f20746f6b656e4d657373656e676572600082015250565b6000614f2560208361458a565b9150614f3082614eef565b602082019050919050565b60006020820190508181036000830152614f5481614f18565b9050919050565b7f50726976616379506f6f6c3a207a65726f206d6573736167655472616e736d6960008201527f7474657200000000000000000000000000000000000000000000000000000000602082015250565b6000614fb760248361458a565b9150614fc282614f5b565b604082019050919050565b60006020820190508181036000830152614fe681614faa565b9050919050565b7f50726976616379506f6f6c3a207a65726f207573646300000000000000000000600082015250565b600061502360168361458a565b915061502e82614fed565b602082019050919050565b6000602082019050818103600083015261505281615016565b9050919050565b7f50726976616379506f6f6c3a207a65726f206f776e6572000000000000000000600082015250565b600061508f60178361458a565b915061509a82615059565b602082019050919050565b600060208201905081810360008301526150be81615082565b9050919050565b7f4e487b7100000000000000000000000000000000000000000000000000000000600052602260045260246000fd5b6000600282049050600182168061510c57607f821691505b60208210810361511f5761511e6150c5565b5b50919050565b7f50726976616379506f6f6c3a20466173742066696e616c697479206e6f74207360008201527f7570706f72746564000000000000000000000000000000000000000000000000602082015250565b600061518160288361458a565b915061518c82615125565b604082019050919050565b600060208201905081810360008301526151b081615174565b9050919050565b600082825260208201905092915050565b6000819050919050565b600082905092915050565b61010082016151ef60008301836149c2565b6151fc60008501826149cd565b5061520a6040830183614a0c565b6152176040850182614a32565b5061522560c08301836149c2565b61523260c08501826149cd565b50505050565b600080833560016020038436030381126152555761525461491e565b5b83810192508235915060208301925067ffffffffffffffff82111561527d5761527c614914565b5b60208202360383131561529357615292614919565b5b509250929050565b600082825260208201905092915050565b600080fd5b60006152bd838561529b565b93507f07ffffffffffffffffffffffffffffffffffffffffffffffffffffffffffffff8311156152f0576152ef6152ac565b5b60208302925061530183858461443f565b82840190509392505050565b60008235600160e0038336030381126153295761532861491e565b5b82810191505092915050565b600061ffff82169050919050565b61534c81615335565b811461535757600080fd5b50565b60008135905061536981615343565b92915050565b600061537e602084018461535a565b905092915050565b61538f81615335565b82525050565b600068ffffffffffffffffff82169050919050565b6153b381615395565b81146153be57600080fd5b50565b6000813590506153d0816153aa565b92915050565b60006153e560208401846153c1565b905092915050565b6153f681615395565b82525050565b6003811061540957600080fd5b50565b60008135905061541b816153fc565b92915050565b6000615430602084018461540c565b905092915050565b6003811061544957615448613dc1565b5b50565b600081905061545a82615438565b919050565b600061546a8261544c565b9050919050565b61547a8161545f565b82525050565b61548981614190565b811461549457600080fd5b50565b6000813590506154a681615480565b92915050565b60006154bb6020840184615497565b905092915050565b6154cc81614190565b82525050565b600080833560016020038436030381126154ef576154ee61491e565b5b83810192508235915060208301925067ffffffffffffffff82111561551757615516614914565b5b60208202360383131561552d5761552c614919565b5b509250929050565b600082825260208201905092915050565b6000819050919050565b600082905092915050565b6155676080838361443f565b5050565b600080833560016020038436030381126155885761558761491e565b5b83810192508235915060208301925067ffffffffffffffff8211156155b0576155af614914565b5b6001820236038313156155c6576155c5614919565b5b509250929050565b600082825260208201905092915050565b60006155eb83856155ce565b93506155f8838584614986565b61560183613a86565b840190509392505050565b600061010083016156206000840184615550565b61562d600086018261555b565b5061563b6080840184614296565b61564860808601826142ad565b5061565660a0840184614296565b61566360a08601826142ad565b5061567160c084018461556b565b85830360c08701526156848382846155df565b9250505061569560e084018461556b565b85830360e08701526156a88382846155df565b925050508091505092915050565b60006156c2838361560c565b905092915050565b600082356001610100038336030381126156e7576156e661491e565b5b82810191505092915050565b6000602082019050919050565b600061570c8385615535565b93508360208402850161571e84615546565b8060005b8781101561576257848403895261573982846156ca565b61574385826156b6565b945061574e836156f3565b925060208a01995050600181019050615722565b50829750879450505050509392505050565b600060e08301615787600084018461536f565b6157946000860182615386565b506157a260208401846153d6565b6157af60208601826153ed565b506157bd6040840184615421565b6157ca6040860182615471565b506157d860608401846154ac565b6157e560608601826154c3565b506157f36080840184614312565b6158006080860182614329565b5061580e60a0840184614296565b61581b60a08601826142ad565b5061582960c08401846154d2565b85830360c087015261583c838284615700565b925050508091505092915050565b6000610220830161585e60008401846151d2565b61586b60008601826151dd565b5061587a610100840184614296565b6158886101008601826142ad565b50615897610120840184615238565b8583036101208701526158ab8382846152b1565b925050506158bd610140840184615238565b8583036101408701526158d18382846152b1565b925050506158e361016084018461530d565b8482036101608601526158f68282615774565b91505061590761018084018461428b565b6159156101808601826143cf565b508091505092915050565b600061592c838361584a565b905092915050565b600082356001610220038336030381126159515761595061491e565b5b82810191505092915050565b6000602082019050919050565b600061597683856151b7565b935083602084028501615988846151c8565b8060005b878110156159cc5784840389526159a38284615934565b6159ad8582615920565b94506159b88361595d565b925060208a0199505060018101905061598c565b50829750879450505050509392505050565b600060208201905081810360008301526159f981848661596a565b90509392505050565b7f4f6e6c792073656c660000000000000000000000000000000000000000000000600082015250565b6000615a3860098361458a565b9150615a4382615a02565b602082019050919050565b60006020820190508181036000830152615a6781615a2b565b9050919050565b600081519050919050565b600082825260208201905092915050565b6000819050602082019050919050565b6000602082019050919050565b6000615ab282615a6e565b615abc8185615a79565b9350615ac783615a8a565b8060005b83811015615af8578151615adf888261471c565b9750615aea83615a9a565b925050600181019050615acb565b5085935050505092915050565b60006020820190508181036000830152615b1f8184615aa7565b905092915050565b60006102208301615b3b60008401846151d2565b615b4860008601826151dd565b50615b57610100840184614296565b615b656101008601826142ad565b50615b74610120840184615238565b858303610120870152615b888382846152b1565b92505050615b9a610140840184615238565b858303610140870152615bae8382846152b1565b92505050615bc061016084018461530d565b848203610160860152615bd38282615774565b915050615be461018084018461428b565b615bf26101808601826143cf565b508091505092915050565b600060a0820190508181036000830152615c178188615b27565b9050615c266020830187613d6a565b615c33604083018661348b565b615c4060608301856136f1565b615c4d60808301846134bf565b9695505050505050565b600081519050615c6681615480565b92915050565b600060208284031215615c8257615c8161339c565b5b6000615c9084828501615c57565b91505092915050565b7f4e487b7100000000000000000000000000000000000000000000000000000000600052601260045260246000fd5b6000615cd3826134b5565b9150615cde836134b5565b925082615cee57615ced615c99565b5b828206905092915050565b600080fd5b600080fd5b600080fd5b60008083356001602003843603038112615d2557615d24615cf9565b5b80840192508235915067ffffffffffffffff821115615d4757615d46615cfe565b5b602083019250602082023603831315615d6357615d62615d03565b5b509250929050565b7f50726976616379506f6f6c3a20566572696669636174696f6e206b6579206e6f60008201527f7420736574000000000000000000000000000000000000000000000000000000602082015250565b6000615dc760258361458a565b9150615dd282615d6b565b604082019050919050565b60006020820190508181036000830152615df681615dba565b9050919050565b6000615e08826134b5565b9150615e13836134b5565b9250828201905080821115615e2b57615e2a614699565b5b92915050565b7f4e487b7100000000000000000000000000000000000000000000000000000000600052603260045260246000fd5b60008235600160e003833603038112615e7c57615e7b615cf9565b5b80830191505092915050565b600060e08301615e9b600084018461536f565b615ea86000860182615386565b50615eb660208401846153d6565b615ec360208601826153ed565b50615ed16040840184615421565b615ede6040860182615471565b50615eec60608401846154ac565b615ef960608601826154c3565b50615f076080840184614312565b615f146080860182614329565b50615f2260a0840184614296565b615f2f60a08601826142ad565b50615f3d60c08401846154d2565b85830360c0870152615f50838284615700565b925050508091505092915050565b60006020820190508181036000830152615f788184615e88565b905092915050565b6000615f8b826134b5565b91507fffffffffffffffffffffffffffffffffffffffffffffffffffffffffffffffff8203615fbd57615fbc614699565b5b600182019050919050565b600080fd5b600080fd5b600060408284031215615fe857615fe7615fc8565b5b615ff26040613fb2565b9050600061600284828501613500565b600083015250602061601684828501613500565b60208301525092915050565b600067ffffffffffffffff82111561603d5761603c613f52565b5b602082029050919050565b600061605b61605684616022565b613fb2565b90508060208402830185811115616075576160746133b0565b5b835b8181101561609e578061608a8882613500565b845260208401935050602081019050616077565b5050509392505050565b600082601f8301126160bd576160bc6133a6565b5b60026160ca848285616048565b91505092915050565b6000608082840312156160e9576160e8615fc8565b5b6160f36040613fb2565b90506000616103848285016160a8565b6000830152506040616117848285016160a8565b60208301525092915050565b6000610100828403121561613a57616139615fc8565b5b6161446060613fb2565b9050600061615484828501615fd2565b6000830152506040616168848285016160d3565b60208301525060c061617c84828501615fd2565b60408301525092915050565b6000610100828403121561619f5761619e61339c565b5b60006161ad84828501616123565b91505092915050565b7f50726976616379506f6f6c3a207a65726f207472656173757279000000000000600082015250565b60006161ec601a8361458a565b91506161f7826161b6565b602082019050919050565b6000602082019050818103600083015261621b816161df565b9050919050565b7f50726976616379506f6f6c3a204d6f64756c65206e6f74207365740000000000600082015250565b6000616258601b8361458a565b915061626382616222565b602082019050919050565b600060208201905081810360008301526162878161624b565b9050919050565b600081519050919050565b600081905092915050565b60006162af8261628e565b6162b98185616299565b93506162c9818560208601613a5c565b80840191505092915050565b60006162e182846162a4565b915081905092915050565b7f50726976616379506f6f6c3a2044656c656761746563616c6c206661696c6564600082015250565b600061632260208361458a565b915061632d826162ec565b602082019050919050565b6000602082019050818103600083015261635181616315565b9050919050565b7f4275726e4d65737361676556323a206d65737361676520746f6f2073686f7274600082015250565b600061638e60208361458a565b915061639982616358565b602082019050919050565b600060208201905081810360008301526163bd81616381565b9050919050565b600080fd5b600080fd5b600080858511156163e2576163e16163c4565b5b838611156163f3576163f26163c9565b5b6001850283019150848603905094509492505050565b600082905092915050565b600082821b905092915050565b600061642d8383616409565b8261643881356135a7565b92506020821015616478576164737fffffffffffffffffffffffffffffffffffffffffffffffffffffffffffffffff83602003600802616414565b831692505b505092915050565b6002811061648d57600080fd5b50565b60008151905061649f81616480565b92915050565b600080fd5b600067ffffffffffffffff8211156164c5576164c4613f52565b5b6164ce82613a86565b9050602081019050919050565b60006164ee6164e9846164aa565b613fb2565b90508281526020810184848401111561650a576165096164a5565b5b616515848285613a5c565b509392505050565b600082601f830112616532576165316133a6565b5b81516165428482602086016164db565b91505092915050565b60006040828403121561656157616560615fc8565b5b61656b6040613fb2565b9050600061657b84828501616490565b600083015250602082015167ffffffffffffffff81111561659f5761659e615fcd565b5b6165ab8482850161651d565b60208301525092915050565b6000602082840312156165cd576165cc61339c565b5b600082015167ffffffffffffffff8111156165eb576165ea6133a1565b5b6165f78482850161654b565b91505092915050565b60008151905061660f816135b1565b92915050565b6000815190506166248161381c565b92915050565b600067ffffffffffffffff82111561664557616644613f52565b5b602082029050919050565b600061666361665e8461662a565b613fb2565b9050806020840283018581111561667d5761667c6133b0565b5b835b818110156166a657806166928882616600565b84526020840193505060208101905061667f565b5050509392505050565b600082601f8301126166c5576166c46133a6565b5b60036166d2848285616650565b91505092915050565b600060c082840312156166f1576166f0615fc8565b5b6166fb6080613fb2565b9050600061670b84828501616600565b600083015250602061671f84828501616615565b6020830152506040616733848285016166b0565b60408301525060a061674784828501616600565b60608301525092915050565b600060c082840312156167695761676861339c565b5b6000616777848285016166db565b91505092915050565b7f536e61726b3a20496e707574203e20534e41524b5f5343414c41525f4649454c60008201527f4400000000000000000000000000000000000000000000000000000000000000602082015250565b60006167dc60218361458a565b91506167e782616780565b604082019050919050565b6000602082019050818103600083015261680b816167cf565b9050919050565b7f536e61726b3a205363616c6172204d756c7469706c69636174696f6e2046616960008201527f6c65640000000000000000000000000000000000000000000000000000000000602082015250565b600061686e60238361458a565b915061687982616812565b604082019050919050565b6000602082019050818103600083015261689d81616861565b9050919050565b7f536e61726b3a20416464204661696c6564000000000000000000000000000000600082015250565b60006168da60118361458a565b91506168e5826168a4565b602082019050919050565b60006020820190508181036000830152616909816168cd565b9050919050565b7f536e61726b3a20496e76616c6964206e65676174696f6e000000000000000000600082015250565b600061694660178361458a565b915061695182616910565b602082019050919050565b6000602082019050818103600083015261697581616939565b9050919050565b7f536e61726b3a2050616972696e6720566572696669636174696f6e204661696c60008201527f6564000000000000000000000000000000000000000000000000000000000000602082015250565b60006169d860228361458a565b91506169e38261697c565b604082019050919050565b60006020820190508181036000830152616a07816169cb565b905091905056fea26469706673582212200d36576b063774fce751aa63e2c5ac8869a41e04c367f5b577be8a0941b8d55664736f6c63430008110033","linkReferences":{}},"methodIdentifiers":{"ZERO_VALUE()":"ec732959","atomicCrossChainUnshield((((uint256,uint256),(uint256[2],uint256[2]),(uint256,uint256)),bytes32,bytes32[],bytes32[],(uint16,uint72,uint8,uint64,address,bytes32,(bytes32[4],bytes32,bytes32,bytes,bytes)[]),(bytes32,(uint8,address,uint256),uint120)),uint32,address,bytes32,uint256)":"e484d408","getInsertionTreeNumberAndStartingIndex(uint256)":"0c9c0c8d","getVerificationKey(uint256,uint256)":"7b12ae83","handleReceiveFinalizedMessage(uint32,bytes32,uint32,bytes)":"11cffb67","handleReceiveUnfinalizedMessage(uint32,bytes32,uint32,bytes)":"7c92f219","initialize(address,address,address,address,address,address,address,uint32,address)":"50d02937","initialized()":"158ef93e","insertLeaves(bytes32[])":"dc52bf9f","lastEventBlock()":"cd3efe06","localDomain()":"8d3638f4","merkleModule()":"90de3f6e","merkleRoot()":"2eb4a7ab","messageTransmitter()":"7b04c181","nextLeafIndex()":"0be4f422","nftFee()":"9071adc0","nullifiers(uint256,bytes32)":"f19ea903","owner()":"8da5cb5b","remotePools(uint32)":"30ed93c3","rootHistory(uint256,bytes32)":"c718dbda","setRemotePool(uint32,bytes32)":"37bc0324","setShieldFee(uint120)":"47338389","setTestingMode(bool)":"596d7a68","setTreasury(address)":"f0f44260","setVerificationKey(uint256,uint256,(string,(uint256,uint256),(uint256[2],uint256[2]),(uint256[2],uint256[2]),(uint256[2],uint256[2]),(uint256,uint256)[]))":"2ec0f359","shield(((bytes32,(uint8,address,uint256),uint120),(bytes32[3],bytes32))[])":"044a40c3","shieldFee()":"01c37790","shieldModule()":"35db307c","snarkSafetyVector(uint256)":"129458f4","testingMode()":"c8f35b5d","tokenBlocklist(address)":"815b534f","tokenIDMapping(bytes32)":"b8ceaef2","tokenMessenger()":"46117830","transact((((uint256,uint256),(uint256[2],uint256[2]),(uint256,uint256)),bytes32,bytes32[],bytes32[],(uint16,uint72,uint8,uint64,address,bytes32,(bytes32[4],bytes32,bytes32,bytes,bytes)[]),(bytes32,(uint8,address,uint256),uint120))[])":"d8ae136a","transactModule()":"048e0990","treasury()":"61d027b3","treeNumber()":"66503315","unshieldFee()":"053ed12a","usdc()":"3e413bee","verifierModule()":"41506fc1","verify((((uint256,uint256),(uint256[2],uint256[2]),(uint256,uint256)),bytes32,bytes32[],bytes32[],(uint16,uint72,uint8,uint64,address,bytes32,(bytes32[4],bytes32,bytes32,bytes,bytes)[]),(bytes32,(uint8,address,uint256),uint120)))":"ee990783","zeros(uint256)":"e8295588"},"storageLayout":{"storage":[{"astId":12472,"contract":"contracts/privacy-pool/PrivacyPool.sol:PrivacyPool","label":"shieldModule","offset":0,"slot":"0","type":"t_address"},{"astId":12475,"contract":"contracts/privacy-pool/PrivacyPool.sol:PrivacyPool","label":"transactModule","offset":0,"slot":"1","type":"t_address"},{"astId":12478,"contract":"contracts/privacy-pool/PrivacyPool.sol:PrivacyPool","label":"merkleModule","offset":0,"slot":"2","type":"t_address"},{"astId":12481,"contract":"contracts/privacy-pool/PrivacyPool.sol:PrivacyPool","label":"verifierModule","offset":0,"slot":"3","type":"t_address"},{"astId":12484,"contract":"contracts/privacy-pool/PrivacyPool.sol:PrivacyPool","label":"tokenMessenger","offset":0,"slot":"4","type":"t_address"},{"astId":12487,"contract":"contracts/privacy-pool/PrivacyPool.sol:PrivacyPool","label":"messageTransmitter","offset":0,"slot":"5","type":"t_address"},{"astId":12490,"contract":"contracts/privacy-pool/PrivacyPool.sol:PrivacyPool","label":"usdc","offset":0,"slot":"6","type":"t_address"},{"astId":12493,"contract":"contracts/privacy-pool/PrivacyPool.sol:PrivacyPool","label":"localDomain","offset":20,"slot":"6","type":"t_uint32"},{"astId":12498,"contract":"contracts/privacy-pool/PrivacyPool.sol:PrivacyPool","label":"remotePools","offset":0,"slot":"7","type":"t_mapping(t_uint32,t_bytes32)"},{"astId":12501,"contract":"contracts/privacy-pool/PrivacyPool.sol:PrivacyPool","label":"treasury","offset":0,"slot":"8","type":"t_address_payable"},{"astId":12504,"contract":"contracts/privacy-pool/PrivacyPool.sol:PrivacyPool","label":"shieldFee","offset":0,"slot":"9","type":"t_uint120"},{"astId":12507,"contract":"contracts/privacy-pool/PrivacyPool.sol:PrivacyPool","label":"unshieldFee","offset":15,"slot":"9","type":"t_uint120"},{"astId":12510,"contract":"contracts/privacy-pool/PrivacyPool.sol:PrivacyPool","label":"nftFee","offset":0,"slot":"10","type":"t_uint120"},{"astId":12515,"contract":"contracts/privacy-pool/PrivacyPool.sol:PrivacyPool","label":"tokenBlocklist","offset":0,"slot":"11","type":"t_mapping(t_address,t_bool)"},{"astId":12521,"contract":"contracts/privacy-pool/PrivacyPool.sol:PrivacyPool","label":"tokenIDMapping","offset":0,"slot":"12","type":"t_mapping(t_bytes32,t_struct(TokenData)13493_storage)"},{"astId":12542,"contract":"contracts/privacy-pool/PrivacyPool.sol:PrivacyPool","label":"nextLeafIndex","offset":0,"slot":"13","type":"t_uint256"},{"astId":12545,"contract":"contracts/privacy-pool/PrivacyPool.sol:PrivacyPool","label":"merkleRoot","offset":0,"slot":"14","type":"t_bytes32"},{"astId":12548,"contract":"contracts/privacy-pool/PrivacyPool.sol:PrivacyPool","label":"newTreeRoot","offset":0,"slot":"15","type":"t_bytes32"},{"astId":12551,"contract":"contracts/privacy-pool/PrivacyPool.sol:PrivacyPool","label":"treeNumber","offset":0,"slot":"16","type":"t_uint256"},{"astId":12556,"contract":"contracts/privacy-pool/PrivacyPool.sol:PrivacyPool","label":"zeros","offset":0,"slot":"17","type":"t_array(t_bytes32)16_storage"},{"astId":12561,"contract":"contracts/privacy-pool/PrivacyPool.sol:PrivacyPool","label":"filledSubTrees","offset":0,"slot":"33","type":"t_array(t_bytes32)16_storage"},{"astId":12568,"contract":"contracts/privacy-pool/PrivacyPool.sol:PrivacyPool","label":"rootHistory","offset":0,"slot":"49","type":"t_mapping(t_uint256,t_mapping(t_bytes32,t_bool))"},{"astId":12575,"contract":"contracts/privacy-pool/PrivacyPool.sol:PrivacyPool","label":"nullifiers","offset":0,"slot":"50","type":"t_mapping(t_uint256,t_mapping(t_bytes32,t_bool))"},{"astId":12583,"contract":"contracts/privacy-pool/PrivacyPool.sol:PrivacyPool","label":"verificationKeys","offset":0,"slot":"51","type":"t_mapping(t_uint256,t_mapping(t_uint256,t_struct(VerifyingKey)13594_storage))"},{"astId":12586,"contract":"contracts/privacy-pool/PrivacyPool.sol:PrivacyPool","label":"testingMode","offset":0,"slot":"52","type":"t_bool"},{"astId":12591,"contract":"contracts/privacy-pool/PrivacyPool.sol:PrivacyPool","label":"snarkSafetyVector","offset":0,"slot":"53","type":"t_mapping(t_uint256,t_bool)"},{"astId":12594,"contract":"contracts/privacy-pool/PrivacyPool.sol:PrivacyPool","label":"lastEventBlock","offset":0,"slot":"54","type":"t_uint256"},{"astId":12597,"contract":"contracts/privacy-pool/PrivacyPool.sol:PrivacyPool","label":"owner","offset":0,"slot":"55","type":"t_address"},{"astId":12600,"contract":"contracts/privacy-pool/PrivacyPool.sol:PrivacyPool","label":"initialized","offset":20,"slot":"55","type":"t_bool"},{"astId":12605,"contract":"contracts/privacy-pool/PrivacyPool.sol:PrivacyPool","label":"__gap","offset":0,"slot":"56","type":"t_array(t_uint256)50_storage"}],"types":{"t_address":{"encoding":"inplace","label":"address","numberOfBytes":"20"},"t_address_payable":{"encoding":"inplace","label":"address payable","numberOfBytes":"20"},"t_array(t_bytes32)16_storage":{"encoding":"inplace","label":"bytes32[16]","numberOfBytes":"512","base":"t_bytes32"},"t_array(t_struct(G1Point)13566_storage)dyn_storage":{"encoding":"dynamic_array","label":"struct G1Point[]","numberOfBytes":"32","base":"t_struct(G1Point)13566_storage"},"t_array(t_uint256)2_storage":{"encoding":"inplace","label":"uint256[2]","numberOfBytes":"64","base":"t_uint256"},"t_array(t_uint256)50_storage":{"encoding":"inplace","label":"uint256[50]","numberOfBytes":"1600","base":"t_uint256"},"t_bool":{"encoding":"inplace","label":"bool","numberOfBytes":"1"},"t_bytes32":{"encoding":"inplace","label":"bytes32","numberOfBytes":"32"},"t_enum(TokenType)13485":{"encoding":"inplace","label":"enum TokenType","numberOfBytes":"1"},"t_mapping(t_address,t_bool)":{"encoding":"mapping","key":"t_address","label":"mapping(address => bool)","numberOfBytes":"32","value":"t_bool"},"t_mapping(t_bytes32,t_bool)":{"encoding":"mapping","key":"t_bytes32","label":"mapping(bytes32 => bool)","numberOfBytes":"32","value":"t_bool"},"t_mapping(t_bytes32,t_struct(TokenData)13493_storage)":{"encoding":"mapping","key":"t_bytes32","label":"mapping(bytes32 => struct TokenData)","numberOfBytes":"32","value":"t_struct(TokenData)13493_storage"},"t_mapping(t_uint256,t_bool)":{"encoding":"mapping","key":"t_uint256","label":"mapping(uint256 => bool)","numberOfBytes":"32","value":"t_bool"},"t_mapping(t_uint256,t_mapping(t_bytes32,t_bool))":{"encoding":"mapping","key":"t_uint256","label":"mapping(uint256 => mapping(bytes32 => bool))","numberOfBytes":"32","value":"t_mapping(t_bytes32,t_bool)"},"t_mapping(t_uint256,t_mapping(t_uint256,t_struct(VerifyingKey)13594_storage))":{"encoding":"mapping","key":"t_uint256","label":"mapping(uint256 => mapping(uint256 => struct VerifyingKey))","numberOfBytes":"32","value":"t_mapping(t_uint256,t_struct(VerifyingKey)13594_storage)"},"t_mapping(t_uint256,t_struct(VerifyingKey)13594_storage)":{"encoding":"mapping","key":"t_uint256","label":"mapping(uint256 => struct VerifyingKey)","numberOfBytes":"32","value":"t_struct(VerifyingKey)13594_storage"},"t_mapping(t_uint32,t_bytes32)":{"encoding":"mapping","key":"t_uint32","label":"mapping(uint32 => bytes32)","numberOfBytes":"32","value":"t_bytes32"},"t_string_storage":{"encoding":"bytes","label":"string","numberOfBytes":"32"},"t_struct(G1Point)13566_storage":{"encoding":"inplace","label":"struct G1Point","numberOfBytes":"64","members":[{"astId":13563,"contract":"contracts/privacy-pool/PrivacyPool.sol:PrivacyPool","label":"x","offset":0,"slot":"0","type":"t_uint256"},{"astId":13565,"contract":"contracts/privacy-pool/PrivacyPool.sol:PrivacyPool","label":"y","offset":0,"slot":"1","type":"t_uint256"}]},"t_struct(G2Point)13575_storage":{"encoding":"inplace","label":"struct G2Point","numberOfBytes":"128","members":[{"astId":13570,"contract":"contracts/privacy-pool/PrivacyPool.sol:PrivacyPool","label":"x","offset":0,"slot":"0","type":"t_array(t_uint256)2_storage"},{"astId":13574,"contract":"contracts/privacy-pool/PrivacyPool.sol:PrivacyPool","label":"y","offset":0,"slot":"2","type":"t_array(t_uint256)2_storage"}]},"t_struct(TokenData)13493_storage":{"encoding":"inplace","label":"struct TokenData","numberOfBytes":"64","members":[{"astId":13488,"contract":"contracts/privacy-pool/PrivacyPool.sol:PrivacyPool","label":"tokenType","offset":0,"slot":"0","type":"t_enum(TokenType)13485"},{"astId":13490,"contract":"contracts/privacy-pool/PrivacyPool.sol:PrivacyPool","label":"tokenAddress","offset":1,"slot":"0","type":"t_address"},{"astId":13492,"contract":"contracts/privacy-pool/PrivacyPool.sol:PrivacyPool","label":"tokenSubID","offset":0,"slot":"1","type":"t_uint256"}]},"t_struct(VerifyingKey)13594_storage":{"encoding":"inplace","label":"struct VerifyingKey","numberOfBytes":"512","members":[{"astId":13577,"contract":"contracts/privacy-pool/PrivacyPool.sol:PrivacyPool","label":"artifactsIPFSHash","offset":0,"slot":"0","type":"t_string_storage"},{"astId":13580,"contract":"contracts/privacy-pool/PrivacyPool.sol:PrivacyPool","label":"alpha1","offset":0,"slot":"1","type":"t_struct(G1Point)13566_storage"},{"astId":13583,"contract":"contracts/privacy-pool/PrivacyPool.sol:PrivacyPool","label":"beta2","offset":0,"slot":"3","type":"t_struct(G2Point)13575_storage"},{"astId":13586,"contract":"contracts/privacy-pool/PrivacyPool.sol:PrivacyPool","label":"gamma2","offset":0,"slot":"7","type":"t_struct(G2Point)13575_storage"},{"astId":13589,"contract":"contracts/privacy-pool/PrivacyPool.sol:PrivacyPool","label":"delta2","offset":0,"slot":"11","type":"t_struct(G2Point)13575_storage"},{"astId":13593,"contract":"contracts/privacy-pool/PrivacyPool.sol:PrivacyPool","label":"ic","offset":0,"slot":"15","type":"t_array(t_struct(G1Point)13566_storage)dyn_storage"}]},"t_uint120":{"encoding":"inplace","label":"uint120","numberOfBytes":"15"},"t_uint256":{"encoding":"inplace","label":"uint256","numberOfBytes":"32"},"t_uint32":{"encoding":"inplace","label":"uint32","numberOfBytes":"4"}}},"id":13}