{"abi":[{"type":"function","name":"ZERO_VALUE","inputs":[],"outputs":[{"name":"","type":"bytes32","internalType":"bytes32"}],"stateMutability":"view"},{"type":"function","name":"atomicCrossChainUnshield","inputs":[{"name":"_transaction","type":"tuple","internalType":"struct Transaction","components":[{"name":"proof","type":"tuple","internalType":"struct SnarkProof","components":[{"name":"a","type":"tuple","internalType":"struct G1Point","components":[{"name":"x","type":"uint256","internalType":"uint256"},{"name":"y","type":"uint256","internalType":"uint256"}]},{"name":"b","type":"tuple","internalType":"struct G2Point","components":[{"name":"x","type":"uint256[2]","internalType":"uint256[2]"},{"name":"y","type":"uint256[2]","internalType":"uint256[2]"}]},{"name":"c","type":"tuple","internalType":"struct G1Point","components":[{"name":"x","type":"uint256","internalType":"uint256"},{"name":"y","type":"uint256","internalType":"uint256"}]}]},{"name":"merkleRoot","type":"bytes32","internalType":"bytes32"},{"name":"nullifiers","type":"bytes32[]","internalType":"bytes32[]"},{"name":"commitments","type":"bytes32[]","internalType":"bytes32[]"},{"name":"boundParams","type":"tuple","internalType":"struct BoundParams","components":[{"name":"treeNumber","type":"uint16","internalType":"uint16"},{"name":"minGasPrice","type":"uint72","internalType":"uint72"},{"name":"unshield","type":"uint8","internalType":"enum UnshieldType"},{"name":"chainID","type":"uint64","internalType":"uint64"},{"name":"adaptContract","type":"address","internalType":"address"},{"name":"adaptParams","type":"bytes32","internalType":"bytes32"},{"name":"commitmentCiphertext","type":"tuple[]","internalType":"struct CommitmentCiphertext[]","components":[{"name":"ciphertext","type":"bytes32[4]","internalType":"bytes32[4]"},{"name":"blindedSenderViewingKey","type":"bytes32","internalType":"bytes32"},{"name":"blindedReceiverViewingKey","type":"bytes32","internalType":"bytes32"},{"name":"annotationData","type":"bytes","internalType":"bytes"},{"name":"memo","type":"bytes","internalType":"bytes"}]}]},{"name":"unshieldPreimage","type":"tuple","internalType":"struct CommitmentPreimage","components":[{"name":"npk","type":"bytes32","internalType":"bytes32"},{"name":"token","type":"tuple","internalType":"struct TokenData","components":[{"name":"tokenType","type":"uint8","internalType":"enum TokenType"},{"name":"tokenAddress","type":"address","internalType":"address"},{"name":"tokenSubID","type":"uint256","internalType":"uint256"}]},{"name":"value","type":"uint120","internalType":"uint120"}]}]},{"name":"destinationDomain","type":"uint32","internalType":"uint32"},{"name":"finalRecipient","type":"address","internalType":"address"},{"name":"destinationCaller","type":"bytes32","internalType":"bytes32"},{"name":"maxFee","type":"uint256","internalType":"uint256"}],"outputs":[{"name":"","type":"uint64","internalType":"uint64"}],"stateMutability":"nonpayable"},{"type":"function","name":"getInsertionTreeNumberAndStartingIndex","inputs":[{"name":"_newCommitments","type":"uint256","internalType":"uint256"}],"outputs":[{"name":"treeNum","type":"uint256","internalType":"uint256"},{"name":"startIndex","type":"uint256","internalType":"uint256"}],"stateMutability":"view"},{"type":"function","name":"getVerificationKey","inputs":[{"name":"_nullifiers","type":"uint256","internalType":"uint256"},{"name":"_commitments","type":"uint256","internalType":"uint256"}],"outputs":[{"name":"","type":"tuple","internalType":"struct VerifyingKey","components":[{"name":"artifactsIPFSHash","type":"string","internalType":"string"},{"name":"alpha1","type":"tuple","internalType":"struct G1Point","components":[{"name":"x","type":"uint256","internalType":"uint256"},{"name":"y","type":"uint256","internalType":"uint256"}]},{"name":"beta2","type":"tuple","internalType":"struct G2Point","components":[{"name":"x","type":"uint256[2]","internalType":"uint256[2]"},{"name":"y","type":"uint256[2]","internalType":"uint256[2]"}]},{"name":"gamma2","type":"tuple","internalType":"struct G2Point","components":[{"name":"x","type":"uint256[2]","internalType":"uint256[2]"},{"name":"y","type":"uint256[2]","internalType":"uint256[2]"}]},{"name":"delta2","type":"tuple","internalType":"struct G2Point","components":[{"name":"x","type":"uint256[2]","internalType":"uint256[2]"},{"name":"y","type":"uint256[2]","internalType":"uint256[2]"}]},{"name":"ic","type":"tuple[]","internalType":"struct G1Point[]","components":[{"name":"x","type":"uint256","internalType":"uint256"},{"name":"y","type":"uint256","internalType":"uint256"}]}]}],"stateMutability":"view"},{"type":"function","name":"handleReceiveFinalizedMessage","inputs":[{"name":"remoteDomain","type":"uint32","internalType":"uint32"},{"name":"sender","type":"bytes32","internalType":"bytes32"},{"name":"finalityThresholdExecuted","type":"uint32","internalType":"uint32"},{"name":"messageBody","type":"bytes","internalType":"bytes"}],"outputs":[{"name":"","type":"bool","internalType":"bool"}],"stateMutability":"nonpayable"},{"type":"function","name":"handleReceiveUnfinalizedMessage","inputs":[{"name":"","type":"uint32","internalType":"uint32"},{"name":"","type":"bytes32","internalType":"bytes32"},{"name":"","type":"uint32","internalType":"uint32"},{"name":"","type":"bytes","internalType":"bytes"}],"outputs":[{"name":"","type":"bool","internalType":"bool"}],"stateMutability":"pure"},{"type":"function","name":"initialize","inputs":[{"name":"_shieldModule","type":"address","internalType":"address"},{"name":"_transactModule","type":"address","internalType":"address"},{"name":"_merkleModule","type":"address","internalType":"address"},{"name":"_verifierModule","type":"address","internalType":"address"},{"name":"_tokenMessenger","type":"address","internalType":"address"},{"name":"_messageTransmitter","type":"address","internalType":"address"},{"name":"_usdc","type":"address","internalType":"address"},{"name":"_localDomain","type":"uint32","internalType":"uint32"},{"name":"_owner","type":"address","internalType":"address"}],"outputs":[],"stateMutability":"nonpayable"},{"type":"function","name":"initialized","inputs":[],"outputs":[{"name":"","type":"bool","internalType":"bool"}],"stateMutability":"view"},{"type":"function","name":"insertLeaves","inputs":[{"name":"_leafHashes","type":"bytes32[]","internalType":"bytes32[]"}],"outputs":[],"stateMutability":"nonpayable"},{"type":"function","name":"lastEventBlock","inputs":[],"outputs":[{"name":"","type":"uint256","internalType":"uint256"}],"stateMutability":"view"},{"type":"function","name":"localDomain","inputs":[],"outputs":[{"name":"","type":"uint32","internalType":"uint32"}],"stateMutability":"view"},{"type":"function","name":"merkleModule","inputs":[],"outputs":[{"name":"","type":"address","internalType":"address"}],"stateMutability":"view"},{"type":"function","name":"merkleRoot","inputs":[],"outputs":[{"name":"","type":"bytes32","internalType":"bytes32"}],"stateMutability":"view"},{"type":"function","name":"messageTransmitter","inputs":[],"outputs":[{"name":"","type":"address","internalType":"address"}],"stateMutability":"view"},{"type":"function","name":"nextLeafIndex","inputs":[],"outputs":[{"name":"","type":"uint256","internalType":"uint256"}],"stateMutability":"view"},{"type":"function","name":"nftFee","inputs":[],"outputs":[{"name":"","type":"uint120","internalType":"uint120"}],"stateMutability":"view"},{"type":"function","name":"nullifiers","inputs":[{"name":"","type":"uint256","internalType":"uint256"},{"name":"","type":"bytes32","internalType":"bytes32"}],"outputs":[{"name":"","type":"bool","internalType":"bool"}],"stateMutability":"view"},{"type":"function","name":"owner","inputs":[],"outputs":[{"name":"","type":"address","internalType":"address"}],"stateMutability":"view"},{"type":"function","name":"remotePools","inputs":[{"name":"","type":"uint32","internalType":"uint32"}],"outputs":[{"name":"","type":"bytes32","internalType":"bytes32"}],"stateMutability":"view"},{"type":"function","name":"rootHistory","inputs":[{"name":"","type":"uint256","internalType":"uint256"},{"name":"","type":"bytes32","internalType":"bytes32"}],"outputs":[{"name":"","type":"bool","internalType":"bool"}],"stateMutability":"view"},{"type":"function","name":"setRemotePool","inputs":[{"name":"domain","type":"uint32","internalType":"uint32"},{"name":"poolAddress","type":"bytes32","internalType":"bytes32"}],"outputs":[],"stateMutability":"nonpayable"},{"type":"function","name":"setShieldFee","inputs":[{"name":"_feeBps","type":"uint120","internalType":"uint120"}],"outputs":[],"stateMutability":"nonpayable"},{"type":"function","name":"setTestingMode","inputs":[{"name":"_enabled","type":"bool","internalType":"bool"}],"outputs":[],"stateMutability":"nonpayable"},{"type":"function","name":"setTreasury","inputs":[{"name":"_treasury","type":"address","internalType":"address payable"}],"outputs":[],"stateMutability":"nonpayable"},{"type":"function","name":"setVerificationKey","inputs":[{"name":"_nullifiers","type":"uint256","internalType":"uint256"},{"name":"_commitments","type":"uint256","internalType":"uint256"},{"name":"_key","type":"tuple","internalType":"struct VerifyingKey","components":[{"name":"artifactsIPFSHash","type":"string","internalType":"string"},{"name":"alpha1","type":"tuple","internalType":"struct G1Point","components":[{"name":"x","type":"uint256","internalType":"uint256"},{"name":"y","type":"uint256","internalType":"uint256"}]},{"name":"beta2","type":"tuple","internalType":"struct G2Point","components":[{"name":"x","type":"uint256[2]","internalType":"uint256[2]"},{"name":"y","type":"uint256[2]","internalType":"uint256[2]"}]},{"name":"gamma2","type":"tuple","internalType":"struct G2Point","components":[{"name":"x","type":"uint256[2]","internalType":"uint256[2]"},{"name":"y","type":"uint256[2]","internalType":"uint256[2]"}]},{"name":"delta2","type":"tuple","internalType":"struct G2Point","components":[{"name":"x","type":"uint256[2]","internalType":"uint256[2]"},{"name":"y","type":"uint256[2]","internalType":"uint256[2]"}]},{"name":"ic","type":"tuple[]","internalType":"struct G1Point[]","components":[{"name":"x","type":"uint256","internalType":"uint256"},{"name":"y","type":"uint256","internalType":"uint256"}]}]}],"outputs":[],"stateMutability":"nonpayable"},{"type":"function","name":"shield","inputs":[{"name":"_shieldRequests","type":"tuple[]","internalType":"struct ShieldRequest[]","components":[{"name":"preimage","type":"tuple","internalType":"struct CommitmentPreimage","components":[{"name":"npk","type":"bytes32","internalType":"bytes32"},{"name":"token","type":"tuple","internalType":"struct TokenData","components":[{"name":"tokenType","type":"uint8","internalType":"enum TokenType"},{"name":"tokenAddress","type":"address","internalType":"address"},{"name":"tokenSubID","type":"uint256","internalType":"uint256"}]},{"name":"value","type":"uint120","internalType":"uint120"}]},{"name":"ciphertext","type":"tuple","internalType":"struct ShieldCiphertext","components":[{"name":"encryptedBundle","type":"bytes32[3]","internalType":"bytes32[3]"},{"name":"shieldKey","type":"bytes32","internalType":"bytes32"}]}]}],"outputs":[],"stateMutability":"nonpayable"},{"type":"function","name":"shieldFee","inputs":[],"outputs":[{"name":"","type":"uint120","internalType":"uint120"}],"stateMutability":"view"},{"type":"function","name":"shieldModule","inputs":[],"outputs":[{"name":"","type":"address","internalType":"address"}],"stateMutability":"view"},{"type":"function","name":"snarkSafetyVector","inputs":[{"name":"","type":"uint256","internalType":"uint256"}],"outputs":[{"name":"","type":"bool","internalType":"bool"}],"stateMutability":"view"},{"type":"function","name":"testingMode","inputs":[],"outputs":[{"name":"","type":"bool","internalType":"bool"}],"stateMutability":"view"},{"type":"function","name":"tokenBlocklist","inputs":[{"name":"","type":"address","internalType":"address"}],"outputs":[{"name":"","type":"bool","internalType":"bool"}],"stateMutability":"view"},{"type":"function","name":"tokenIDMapping","inputs":[{"name":"","type":"bytes32","internalType":"bytes32"}],"outputs":[{"name":"tokenType","type":"uint8","internalType":"enum TokenType"},{"name":"tokenAddress","type":"address","internalType":"address"},{"name":"tokenSubID","type":"uint256","internalType":"uint256"}],"stateMutability":"view"},{"type":"function","name":"tokenMessenger","inputs":[],"outputs":[{"name":"","type":"address","internalType":"address"}],"stateMutability":"view"},{"type":"function","name":"transact","inputs":[{"name":"_transactions","type":"tuple[]","internalType":"struct Transaction[]","components":[{"name":"proof","type":"tuple","internalType":"struct SnarkProof","components":[{"name":"a","type":"tuple","internalType":"struct G1Point","components":[{"name":"x","type":"uint256","internalType":"uint256"},{"name":"y","type":"uint256","internalType":"uint256"}]},{"name":"b","type":"tuple","internalType":"struct G2Point","components":[{"name":"x","type":"uint256[2]","internalType":"uint256[2]"},{"name":"y","type":"uint256[2]","internalType":"uint256[2]"}]},{"name":"c","type":"tuple","internalType":"struct G1Point","components":[{"name":"x","type":"uint256","internalType":"uint256"},{"name":"y","type":"uint256","internalType":"uint256"}]}]},{"name":"merkleRoot","type":"bytes32","internalType":"bytes32"},{"name":"nullifiers","type":"bytes32[]","internalType":"bytes32[]"},{"name":"commitments","type":"bytes32[]","internalType":"bytes32[]"},{"name":"boundParams","type":"tuple","internalType":"struct BoundParams","components":[{"name":"treeNumber","type":"uint16","internalType":"uint16"},{"name":"minGasPrice","type":"uint72","internalType":"uint72"},{"name":"unshield","type":"uint8","internalType":"enum UnshieldType"},{"name":"chainID","type":"uint64","internalType":"uint64"},{"name":"adaptContract","type":"address","internalType":"address"},{"name":"adaptParams","type":"bytes32","internalType":"bytes32"},{"name":"commitmentCiphertext","type":"tuple[]","internalType":"struct CommitmentCiphertext[]","components":[{"name":"ciphertext","type":"bytes32[4]","internalType":"bytes32[4]"},{"name":"blindedSenderViewingKey","type":"bytes32","internalType":"bytes32"},{"name":"blindedReceiverViewingKey","type":"bytes32","internalType":"bytes32"},{"name":"annotationData","type":"bytes","internalType":"bytes"},{"name":"memo","type":"bytes","internalType":"bytes"}]}]},{"name":"unshieldPreimage","type":"tuple","internalType":"struct CommitmentPreimage","components":[{"name":"npk","type":"bytes32","internalType":"bytes32"},{"name":"token","type":"tuple","internalType":"struct TokenData","components":[{"name":"tokenType","type":"uint8","internalType":"enum TokenType"},{"name":"tokenAddress","type":"address","internalType":"address"},{"name":"tokenSubID","type":"uint256","internalType":"uint256"}]},{"name":"value","type":"uint120","internalType":"uint120"}]}]}],"outputs":[],"stateMutability":"nonpayable"},{"type":"function","name":"transactModule","inputs":[],"outputs":[{"name":"","type":"address","internalType":"address"}],"stateMutability":"view"},{"type":"function","name":"treasury","inputs":[],"outputs":[{"name":"","type":"address","internalType":"address payable"}],"stateMutability":"view"},{"type":"function","name":"treeNumber","inputs":[],"outputs":[{"name":"","type":"uint256","internalType":"uint256"}],"stateMutability":"view"},{"type":"function","name":"unshieldFee","inputs":[],"outputs":[{"name":"","type":"uint120","internalType":"uint120"}],"stateMutability":"view"},{"type":"function","name":"usdc","inputs":[],"outputs":[{"name":"","type":"address","internalType":"address"}],"stateMutability":"view"},{"type":"function","name":"verifierModule","inputs":[],"outputs":[{"name":"","type":"address","internalType":"address"}],"stateMutability":"view"},{"type":"function","name":"verify","inputs":[{"name":"_transaction","type":"tuple","internalType":"struct Transaction","components":[{"name":"proof","type":"tuple","internalType":"struct SnarkProof","components":[{"name":"a","type":"tuple","internalType":"struct G1Point","components":[{"name":"x","type":"uint256","internalType":"uint256"},{"name":"y","type":"uint256","internalType":"uint256"}]},{"name":"b","type":"tuple","internalType":"struct G2Point","components":[{"name":"x","type":"uint256[2]","internalType":"uint256[2]"},{"name":"y","type":"uint256[2]","internalType":"uint256[2]"}]},{"name":"c","type":"tuple","internalType":"struct G1Point","components":[{"name":"x","type":"uint256","internalType":"uint256"},{"name":"y","type":"uint256","internalType":"uint256"}]}]},{"name":"merkleRoot","type":"bytes32","internalType":"bytes32"},{"name":"nullifiers","type":"bytes32[]","internalType":"bytes32[]"},{"name":"commitments","type":"bytes32[]","internalType":"bytes32[]"},{"name":"boundParams","type":"tuple","internalType":"struct BoundParams","components":[{"name":"treeNumber","type":"uint16","internalType":"uint16"},{"name":"minGasPrice","type":"uint72","internalType":"uint72"},{"name":"unshield","type":"uint8","internalType":"enum UnshieldType"},{"name":"chainID","type":"uint64","internalType":"uint64"},{"name":"adaptContract","type":"address","internalType":"address"},{"name":"adaptParams","type":"bytes32","internalType":"bytes32"},{"name":"commitmentCiphertext","type":"tuple[]","internalType":"struct CommitmentCiphertext[]","components":[{"name":"ciphertext","type":"bytes32[4]","internalType":"bytes32[4]"},{"name":"blindedSenderViewingKey","type":"bytes32","internalType":"bytes32"},{"name":"blindedReceiverViewingKey","type":"bytes32","internalType":"bytes32"},{"name":"annotationData","type":"bytes","internalType":"bytes"},{"name":"memo","type":"bytes","internalType":"bytes"}]}]},{"name":"unshieldPreimage","type":"tuple","internalType":"struct CommitmentPreimage","components":[{"name":"npk","type":"bytes32","internalType":"bytes32"},{"name":"token","type":"tuple","internalType":"struct TokenData","components":[{"name":"tokenType","type":"uint8","internalType":"enum TokenType"},{"name":"tokenAddress","type":"address","internalType":"address"},{"name":"tokenSubID","type":"uint256","internalType":"uint256"}]},{"name":"value","type":"uint120","internalType":"uint120"}]}]}],"outputs":[{"name":"","type":"bool","internalType":"bool"}],"stateMutability":"view"},{"type":"function","name":"zeros","inputs":[{"name":"","type":"uint256","internalType":"uint256"}],"outputs":[{"name":"","type":"bytes32","internalType":"bytes32"}],"stateMutability":"view"},{"type":"event","name":"RemotePoolSet","inputs":[{"name":"domain","type":"uint32","indexed":true,"internalType":"uint32"},{"name":"poolAddress","type":"bytes32","indexed":false,"internalType":"bytes32"}],"anonymous":false},{"type":"event","name":"TestingModeSet","inputs":[{"name":"enabled","type":"bool","indexed":false,"internalType":"bool"}],"anonymous":false}],"bytecode":{"object":"0x608060405234801561001057600080fd5b5061626b80620000216000396000f3fe608060405234801561001057600080fd5b506004361061025e5760003560e01c80636650331511610146578063c718dbda116100c3578063e484d40811610087578063e484d40814610730578063e829558814610760578063ec73295914610790578063ee990783146107ae578063f0f44260146107de578063f19ea903146107fa5761025e565b8063c718dbda1461068c578063c8f35b5d146106bc578063cd3efe06146106da578063d8ae136a146106f8578063dc52bf9f146107145761025e565b80638d3638f41161010a5780638d3638f4146105e25780638da5cb5b146106005780639071adc01461061e57806390de3f6e1461063c578063b8ceaef21461065a5761025e565b806366503315146105165780637b04c181146105345780637b12ae83146105525780637c92f21914610582578063815b534f146105b25761025e565b80632ec0f359116101df57806341506fc1116101a357806341506fc114610468578063461178301461048657806347338389146104a457806350d02937146104c0578063596d7a68146104dc57806361d027b3146104f85761025e565b80632ec0f359146103c457806330ed93c3146103e057806335db307c1461041057806337bc03241461042e5780633e413bee1461044a5761025e565b80630c9c0c8d116102265780630c9c0c8d146102f757806311cffb6714610328578063129458f414610358578063158ef93e146103885780632eb4a7ab146103a65761025e565b806301c3779014610263578063044a40c314610281578063048e09901461029d578063053ed12a146102bb5780630be4f422146102d9575b600080fd5b61026b61082a565b6040516102789190612f90565b60405180910390f35b61029b60048036038101906102969190613025565b61084b565b005b6102a56108d1565b6040516102b291906130b3565b60405180910390f35b6102c36108f7565b6040516102d09190612f90565b60405180910390f35b6102e1610918565b6040516102ee91906130e7565b60405180910390f35b610311600480360381019061030c919061312e565b61091e565b60405161031f92919061315b565b60405180910390f35b610342600480360381019061033d919061324c565b610930565b60405161034f91906132ef565b60405180910390f35b610372600480360381019061036d919061312e565b610b5b565b60405161037f91906132ef565b60405180910390f35b610390610b7b565b60405161039d91906132ef565b60405180910390f35b6103ae610b8e565b6040516103bb9190613319565b60405180910390f35b6103de60048036038101906103d99190613359565b610b94565b005b6103fa60048036038101906103f591906133c8565b610caf565b6040516104079190613319565b60405180910390f35b610418610cc7565b60405161042591906130b3565b60405180910390f35b610448600480360381019061044391906133f5565b610ceb565b005b610452610de1565b60405161045f91906130b3565b60405180910390f35b610470610e07565b60405161047d91906130b3565b60405180910390f35b61048e610e2d565b60405161049b91906130b3565b60405180910390f35b6104be60048036038101906104b99190613461565b610e53565b005b6104da60048036038101906104d591906134ba565b610f73565b005b6104f660048036038101906104f191906135b0565b611288565b005b6105006113d4565b60405161050d91906135fe565b60405180910390f35b61051e6113fa565b60405161052b91906130e7565b60405180910390f35b61053c611400565b60405161054991906130b3565b60405180910390f35b61056c60048036038101906105679190613619565b611426565b6040516105799190613934565b60405180910390f35b61059c6004803603810190610597919061324c565b61176c565b6040516105a991906132ef565b60405180910390f35b6105cc60048036038101906105c79190613956565b6117a9565b6040516105d991906132ef565b60405180910390f35b6105ea6117c9565b6040516105f79190613992565b60405180910390f35b6106086117df565b60405161061591906130b3565b60405180910390f35b610626611805565b6040516106339190612f90565b60405180910390f35b610644611826565b60405161065191906130b3565b60405180910390f35b610674600480360381019061066f91906139ad565b61184c565b60405161068393929190613a51565b60405180910390f35b6106a660048036038101906106a19190613a88565b6118a3565b6040516106b391906132ef565b60405180910390f35b6106c46118d2565b6040516106d191906132ef565b60405180910390f35b6106e26118e5565b6040516106ef91906130e7565b60405180910390f35b610712600480360381019061070d9190613b1e565b6118eb565b005b61072e60048036038101906107299190613ca9565b611973565b005b61074a60048036038101906107459190613d12565b611a66565b6040516107579190613dcc565b60405180910390f35b61077a6004803603810190610775919061312e565b611b14565b6040516107879190613319565b60405180910390f35b610798611b2f565b6040516107a59190613319565b60405180910390f35b6107c860048036038101906107c39190613de7565b611b84565b6040516107d591906132ef565b60405180910390f35b6107f860048036038101906107f39190613e5c565b6121d3565b005b610814600480360381019061080f9190613a88565b6122a7565b60405161082191906132ef565b60405180910390f35b600960009054906101000a90046effffffffffffffffffffffffffffff1681565b6108cc60008054906101000a900473ffffffffffffffffffffffffffffffffffffffff16838360405160240161088292919061417f565b60405160208183030381529060405263044a40c360e01b6020820180517bffffffffffffffffffffffffffffffffffffffffffffffffffffffff83818316178352505050506122d6565b505050565b600160009054906101000a900473ffffffffffffffffffffffffffffffffffffffff1681565b6009600f9054906101000a90046effffffffffffffffffffffffffffff1681565b600d5481565b600080601054600d5491509150915091565b6000600460009054906101000a900473ffffffffffffffffffffffffffffffffffffffff1673ffffffffffffffffffffffffffffffffffffffff163373ffffffffffffffffffffffffffffffffffffffff16146109c2576040517f08c379a00000000000000000000000000000000000000000000000000000000081526004016109b990614200565b60405180910390fd5b6107d063ffffffff168463ffffffff161015610a13576040517f08c379a0000000000000000000000000000000000000000000000000000000008152600401610a0a90614292565b60405180910390fd5b6000806000610a228686612410565b92509250925060008284610a3691906142e1565b90506000610a438361253f565b905060006001811115610a5957610a586139da565b5b81600001516001811115610a7057610a6f6139da565b5b03610b0e576000610a848260200151612562565b9050610b0760008054906101000a900473ffffffffffffffffffffffffffffffffffffffff168483604051602401610abd929190614406565b60405160208183030381529060405263c5b2d8c060e01b6020820180517bffffffffffffffffffffffffffffffffffffffffffffffffffffffff83818316178352505050506122d6565b5050610b49565b6040517f08c379a0000000000000000000000000000000000000000000000000000000008152600401610b40906144a1565b60405180910390fd5b60019550505050505095945050505050565b60356020528060005260406000206000915054906101000a900460ff1681565b603760149054906101000a900460ff1681565b600e5481565b603760009054906101000a900473ffffffffffffffffffffffffffffffffffffffff1673ffffffffffffffffffffffffffffffffffffffff163373ffffffffffffffffffffffffffffffffffffffff1614610c24576040517f08c379a0000000000000000000000000000000000000000000000000000000008152600401610c1b9061450d565b60405180910390fd5b610ca9600360009054906101000a900473ffffffffffffffffffffffffffffffffffffffff16848484604051602401610c5f93929190614842565b604051602081830303815290604052632ec0f35960e01b6020820180517bffffffffffffffffffffffffffffffffffffffffffffffffffffffff83818316178352505050506122d6565b50505050565b60076020528060005260406000206000915090505481565b60008054906101000a900473ffffffffffffffffffffffffffffffffffffffff1681565b603760009054906101000a900473ffffffffffffffffffffffffffffffffffffffff1673ffffffffffffffffffffffffffffffffffffffff163373ffffffffffffffffffffffffffffffffffffffff1614610d7b576040517f08c379a0000000000000000000000000000000000000000000000000000000008152600401610d729061450d565b60405180910390fd5b80600760008463ffffffff1663ffffffff168152602001908152602001600020819055508163ffffffff167f019190ca21b03575fe0ef686ebc94279721ca06510c186ee3a8d26cfa5d7002382604051610dd59190613319565b60405180910390a25050565b600660009054906101000a900473ffffffffffffffffffffffffffffffffffffffff1681565b600360009054906101000a900473ffffffffffffffffffffffffffffffffffffffff1681565b600460009054906101000a900473ffffffffffffffffffffffffffffffffffffffff1681565b603760009054906101000a900473ffffffffffffffffffffffffffffffffffffffff1673ffffffffffffffffffffffffffffffffffffffff163373ffffffffffffffffffffffffffffffffffffffff1614610ee3576040517f08c379a0000000000000000000000000000000000000000000000000000000008152600401610eda9061450d565b60405180910390fd5b612710816effffffffffffffffffffffffffffff161115610f39576040517f08c379a0000000000000000000000000000000000000000000000000000000008152600401610f30906148cc565b60405180910390fd5b80600960006101000a8154816effffffffffffffffffffffffffffff02191690836effffffffffffffffffffffffffffff16021790555050565b603760149054906101000a900460ff1615610fc3576040517f08c379a0000000000000000000000000000000000000000000000000000000008152600401610fba90614938565b60405180910390fd5b886000806101000a81548173ffffffffffffffffffffffffffffffffffffffff021916908373ffffffffffffffffffffffffffffffffffffffff16021790555087600160006101000a81548173ffffffffffffffffffffffffffffffffffffffff021916908373ffffffffffffffffffffffffffffffffffffffff16021790555086600260006101000a81548173ffffffffffffffffffffffffffffffffffffffff021916908373ffffffffffffffffffffffffffffffffffffffff16021790555085600360006101000a81548173ffffffffffffffffffffffffffffffffffffffff021916908373ffffffffffffffffffffffffffffffffffffffff16021790555084600460006101000a81548173ffffffffffffffffffffffffffffffffffffffff021916908373ffffffffffffffffffffffffffffffffffffffff16021790555083600560006101000a81548173ffffffffffffffffffffffffffffffffffffffff021916908373ffffffffffffffffffffffffffffffffffffffff16021790555082600660006101000a81548173ffffffffffffffffffffffffffffffffffffffff021916908373ffffffffffffffffffffffffffffffffffffffff16021790555081600660146101000a81548163ffffffff021916908363ffffffff16021790555080603760006101000a81548173ffffffffffffffffffffffffffffffffffffffff021916908373ffffffffffffffffffffffffffffffffffffffff160217905550611261600260009054906101000a900473ffffffffffffffffffffffffffffffffffffffff16604051602401604051602081830303815290604052632d974a4c60e01b6020820180517bffffffffffffffffffffffffffffffffffffffffffffffffffffffff83818316178352505050506122d6565b506001603760146101000a81548160ff021916908315150217905550505050505050505050565b603760009054906101000a900473ffffffffffffffffffffffffffffffffffffffff1673ffffffffffffffffffffffffffffffffffffffff163373ffffffffffffffffffffffffffffffffffffffff1614611318576040517f08c379a000000000000000000000000000000000000000000000000000000000815260040161130f9061450d565b60405180910390fd5b611399600360009054906101000a900473ffffffffffffffffffffffffffffffffffffffff168260405160240161134f91906132ef565b60405160208183030381529060405263596d7a6860e01b6020820180517bffffffffffffffffffffffffffffffffffffffffffffffffffffffff83818316178352505050506122d6565b507f21f67800fb06e35b87566708fd49f2a7cc96bf3a74ca56e175b23e6f35b10248816040516113c991906132ef565b60405180910390a150565b600860009054906101000a900473ffffffffffffffffffffffffffffffffffffffff1681565b60105481565b600560009054906101000a900473ffffffffffffffffffffffffffffffffffffffff1681565b61142e612dbd565b6033600084815260200190815260200160002060008381526020019081526020016000206040518060c001604052908160008201805461146d90614987565b80601f016020809104026020016040519081016040528092919081815260200182805461149990614987565b80156114e65780601f106114bb576101008083540402835291602001916114e6565b820191906000526020600020905b8154815290600101906020018083116114c957829003601f168201915b50505050508152602001600182016040518060400160405290816000820154815260200160018201548152505081526020016003820160405180604001604052908160008201600280602002604051908101604052809291908260028015611563576020028201915b81548152602001906001019080831161154f575b50505050508152602001600282016002806020026040519081016040528092919082600280156115a8576020028201915b815481526020019060010190808311611594575b50505050508152505081526020016007820160405180604001604052908160008201600280602002604051908101604052809291908260028015611601576020028201915b8154815260200190600101908083116115ed575b5050505050815260200160028201600280602002604051908101604052809291908260028015611646576020028201915b815481526020019060010190808311611632575b5050505050815250508152602001600b82016040518060400160405290816000820160028060200260405190810160405280929190826002801561169f576020028201915b81548152602001906001019080831161168b575b50505050508152602001600282016002806020026040519081016040528092919082600280156116e4576020028201915b8154815260200190600101908083116116d0575b5050505050815250508152602001600f8201805480602002602001604051908101604052809291908181526020016000905b8282101561175c57838290600052602060002090600202016040518060400160405290816000820154815260200160018201548152505081526020019060010190611716565b5050505081525050905092915050565b60006040517f08c379a00000000000000000000000000000000000000000000000000000000081526004016117a090614a2a565b60405180910390fd5b600b6020528060005260406000206000915054906101000a900460ff1681565b600660149054906101000a900463ffffffff1681565b603760009054906101000a900473ffffffffffffffffffffffffffffffffffffffff1681565b600a60009054906101000a90046effffffffffffffffffffffffffffff1681565b600260009054906101000a900473ffffffffffffffffffffffffffffffffffffffff1681565b600c6020528060005260406000206000915090508060000160009054906101000a900460ff16908060000160019054906101000a900473ffffffffffffffffffffffffffffffffffffffff16908060010154905083565b60316020528160005260406000206020528060005260406000206000915091509054906101000a900460ff1681565b603460009054906101000a900460ff1681565b60365481565b61196e600160009054906101000a900473ffffffffffffffffffffffffffffffffffffffff168383604051602401611924929190615271565b60405160208183030381529060405263d8ae136a60e01b6020820180517bffffffffffffffffffffffffffffffffffffffffffffffffffffffff83818316178352505050506122d6565b505050565b3073ffffffffffffffffffffffffffffffffffffffff163373ffffffffffffffffffffffffffffffffffffffff16146119e1576040517f08c379a00000000000000000000000000000000000000000000000000000000081526004016119d8906152e1565b60405180910390fd5b611a62600260009054906101000a900473ffffffffffffffffffffffffffffffffffffffff1682604051602401611a189190615398565b60405160208183030381529060405263dc52bf9f60e01b6020820180517bffffffffffffffffffffffffffffffffffffffffffffffffffffffff83818316178352505050506122d6565b5050565b600080611af2600160009054906101000a900473ffffffffffffffffffffffffffffffffffffffff168888888888604051602401611aa8959493929190615490565b60405160208183030381529060405263e484d40860e01b6020820180517bffffffffffffffffffffffffffffffffffffffffffffffffffffffff83818316178352505050506122d6565b905080806020019051810190611b0891906154ff565b91505095945050505050565b60118160108110611b2457600080fd5b016000915090505481565b7f30644e72e131a029b85045b68181585d2833e84879b9709143e1f593f00000017f95b5e3f3c951508f13e7771152f5b7c7329a294917685c10a571c9247e3b9fff60001c611b7e919061555b565b60001b81565b6000603460009054906101000a900460ff1615611ba457600190506121ce565b600082806101200190611bb7919061559b565b90509050600083806101400190611bce919061559b565b9050905060006033600084815260200190815260200160002060008381526020019081526020016000206040518060c0016040529081600082018054611c1390614987565b80601f0160208091040260200160405190810160405280929190818152602001828054611c3f90614987565b8015611c8c5780601f10611c6157610100808354040283529160200191611c8c565b820191906000526020600020905b815481529060010190602001808311611c6f57829003601f168201915b50505050508152602001600182016040518060400160405290816000820154815260200160018201548152505081526020016003820160405180604001604052908160008201600280602002604051908101604052809291908260028015611d09576020028201915b815481526020019060010190808311611cf5575b5050505050815260200160028201600280602002604051908101604052809291908260028015611d4e576020028201915b815481526020019060010190808311611d3a575b50505050508152505081526020016007820160405180604001604052908160008201600280602002604051908101604052809291908260028015611da7576020028201915b815481526020019060010190808311611d93575b5050505050815260200160028201600280602002604051908101604052809291908260028015611dec576020028201915b815481526020019060010190808311611dd8575b5050505050815250508152602001600b820160405180604001604052908160008201600280602002604051908101604052809291908260028015611e45576020028201915b815481526020019060010190808311611e31575b5050505050815260200160028201600280602002604051908101604052809291908260028015611e8a576020028201915b815481526020019060010190808311611e76575b5050505050815250508152602001600f8201805480602002602001604051908101604052809291908181526020016000905b82821015611f0257838290600052602060002090600202016040518060400160405290816000820154815260200160018201548152505081526020019060010190611ebc565b50505050815250509050600081602001516000015103611f57576040517f08c379a0000000000000000000000000000000000000000000000000000000008152600401611f4e90615670565b60405180910390fd5b600082846002611f679190615690565b611f719190615690565b67ffffffffffffffff811115611f8a57611f89613b6b565b5b604051908082528060200260200182016040528015611fb85781602001602082028036833780820191505090505b50905085610100013560001c81600081518110611fd857611fd76156c4565b5b6020026020010181815250507f30644e72e131a029b85045b68181585d2833e84879b9709143e1f593f00000018680610160019061201691906156f3565b60405160200161202691906157f1565b6040516020818303038152906040528051906020012060001c612049919061555b565b8160018151811061205d5761205c6156c4565b5b60200260200101818152505060005b848110156120de5786806101200190612085919061559b565b82818110612096576120956156c4565b5b9050602002013560001c828260026120ae9190615690565b815181106120bf576120be6156c4565b5b60200260200101818152505080806120d690615813565b91505061206c565b5060005b8381101561215f57868061014001906120fb919061559b565b8281811061210c5761210b6156c4565b5b9050602002013560001c82828760026121259190615690565b61212f9190615690565b815181106121405761213f6156c4565b5b602002602001018181525050808061215790615813565b9150506120e2565b506000612180838860000180360381019061217a9190615a1b565b84612585565b905061dead73ffffffffffffffffffffffffffffffffffffffff163273ffffffffffffffffffffffffffffffffffffffff16036121c5576001955050505050506121ce565b80955050505050505b919050565b603760009054906101000a900473ffffffffffffffffffffffffffffffffffffffff1673ffffffffffffffffffffffffffffffffffffffff163373ffffffffffffffffffffffffffffffffffffffff1614612263576040517f08c379a000000000000000000000000000000000000000000000000000000000815260040161225a9061450d565b60405180910390fd5b80600860006101000a81548173ffffffffffffffffffffffffffffffffffffffff021916908373ffffffffffffffffffffffffffffffffffffffff16021790555050565b60326020528160005260406000206020528060005260406000206000915091509054906101000a900460ff1681565b6060600073ffffffffffffffffffffffffffffffffffffffff168373ffffffffffffffffffffffffffffffffffffffff1603612347576040517f08c379a000000000000000000000000000000000000000000000000000000000815260040161233e90615a95565b60405180910390fd5b60008373ffffffffffffffffffffffffffffffffffffffff168360405161236e9190615afc565b600060405180830381855af49150503d80600081146123a9576040519150601f19603f3d011682016040523d82523d6000602084013e6123ae565b606091505b50809350819250505080612409576000825111156123ce57815160208301fd5b6040517f08c379a000000000000000000000000000000000000000000000000000000000815260040161240090615b5f565b60405180910390fd5b5092915050565b600080606060e485859050101561245c576040517f08c379a000000000000000000000000000000000000000000000000000000000815260040161245390615bcb565b60405180910390fd5b84846044906020604461246f9190615690565b9261247c93929190615bf5565b906124879190615c48565b60001c9250848460a490602060a461249f9190615690565b926124ac93929190615bf5565b906124b79190615c48565b60001c915060e485859050111561252557848460e49080926124db93929190615bf5565b8080601f016020809104026020016040519081016040528093929190818152602001838380828437600081840152601f19601f820116905080830192505050505050509050612538565b6040518060200160405280600081525090505b9250925092565b612547612e0b565b8180602001905181019061255b9190615dde565b9050919050565b61256a612e37565b8180602001905181019061257e9190615f7a565b9050919050565b6000806040518060400160405280600081526020016000815250905060005b8351811015612696577f30644e72e131a029b85045b68181585d2833e84879b9709143e1f593f00000018482815181106125e1576125e06156c4565b5b602002602001015110612629576040517f08c379a000000000000000000000000000000000000000000000000000000000815260040161262090616019565b60405180910390fd5b6126808261267b8860a001516001856126429190615690565b81518110612653576126526156c4565b5b602002602001015187858151811061266e5761266d6156c4565b5b6020026020010151612700565b6127cc565b915060018161268f9190615690565b90506125a4565b506126c0818660a001516000815181106126b3576126b26156c4565b5b60200260200101516127cc565b90506126f66126d285600001516128ca565b856020015187602001518860400151858a606001518a604001518c60800151612ab5565b9150509392505050565b612708612e7c565b612710612e96565b836000015181600060038110612729576127286156c4565b5b60200201818152505083602001518160016003811061274b5761274a6156c4565b5b6020020181815250508281600260038110612769576127686156c4565b5b602002018181525050600060408360608460076107d05a03fa9050806127c4576040517f08c379a00000000000000000000000000000000000000000000000000000000081526004016127bb906160ab565b60405180910390fd5b505092915050565b6127d4612e7c565b6127dc612eb8565b8360000151816000600481106127f5576127f46156c4565b5b602002018181525050836020015181600160048110612817576128166156c4565b5b602002018181525050826000015181600260048110612839576128386156c4565b5b60200201818152505082602001518160036004811061285b5761285a6156c4565b5b602002018181525050600061286e612e7c565b60408160808560066107d05a03fa9150816128be576040517f08c379a00000000000000000000000000000000000000000000000000000000081526004016128b590616117565b60405180910390fd5b80935050505092915050565b6128d2612e7c565b600082600001511480156128ea575060008260200151145b1561290d5760405180604001604052806000815260200160008152509050612ab0565b60007f30644e72e131a029b85045b68181585d97816a916871ca8d3c208c16d87cfd478061293e5761293d61552c565b5b836000015184600001510990507f30644e72e131a029b85045b68181585d97816a916871ca8d3c208c16d87cfd478061297a5761297961552c565b5b8360000151820990507f30644e72e131a029b85045b68181585d97816a916871ca8d3c208c16d87cfd47806129b2576129b161552c565b5b60038208905060007f30644e72e131a029b85045b68181585d97816a916871ca8d3c208c16d87cfd47806129e9576129e861552c565b5b84602001518560200151099050818114612a38576040517f08c379a0000000000000000000000000000000000000000000000000000000008152600401612a2f90616183565b60405180910390fd5b6040518060400160405280856000015181526020017f30644e72e131a029b85045b68181585d97816a916871ca8d3c208c16d87cfd478660200151612a7d919061555b565b7f30644e72e131a029b85045b68181585d97816a916871ca8d3c208c16d87cfd47612aa891906142e1565b815250925050505b919050565b6000806040518061030001604052808b6000015181526020018b6020015181526020018a60000151600060028110612af057612aef6156c4565b5b602002015181526020018a60000151600160028110612b1257612b116156c4565b5b602002015181526020018a60200151600060028110612b3457612b336156c4565b5b602002015181526020018a60200151600160028110612b5657612b556156c4565b5b6020020151815260200189600001518152602001896020015181526020018860000151600060028110612b8c57612b8b6156c4565b5b602002015181526020018860000151600160028110612bae57612bad6156c4565b5b602002015181526020018860200151600060028110612bd057612bcf6156c4565b5b602002015181526020018860200151600160028110612bf257612bf16156c4565b5b6020020151815260200187600001518152602001876020015181526020018660000151600060028110612c2857612c276156c4565b5b602002015181526020018660000151600160028110612c4a57612c496156c4565b5b602002015181526020018660200151600060028110612c6c57612c6b6156c4565b5b602002015181526020018660200151600160028110612c8e57612c8d6156c4565b5b6020020151815260200185600001518152602001856020015181526020018460000151600060028110612cc457612cc36156c4565b5b602002015181526020018460000151600160028110612ce657612ce56156c4565b5b602002015181526020018460200151600060028110612d0857612d076156c4565b5b602002015181526020018460200151600160028110612d2a57612d296156c4565b5b60200201518152509050612d3c612eda565b60006020826103008560086107d05a03fa905080612d8f576040517f08c379a0000000000000000000000000000000000000000000000000000000008152600401612d8690616215565b60405180910390fd5b600082600060018110612da557612da46156c4565b5b60200201511415935050505098975050505050505050565b6040518060c0016040528060608152602001612dd7612e7c565b8152602001612de4612efc565b8152602001612df1612efc565b8152602001612dfe612efc565b8152602001606081525090565b604051806040016040528060006001811115612e2a57612e296139da565b5b8152602001606081525090565b60405180608001604052806000801916815260200160006effffffffffffffffffffffffffffff168152602001612e6c612f22565b8152602001600080191681525090565b604051806040016040528060008152602001600081525090565b6040518060600160405280600390602082028036833780820191505090505090565b6040518060800160405280600490602082028036833780820191505090505090565b6040518060200160405280600190602082028036833780820191505090505090565b6040518060400160405280612f0f612f44565b8152602001612f1c612f44565b81525090565b6040518060600160405280600390602082028036833780820191505090505090565b6040518060400160405280600290602082028036833780820191505090505090565b60006effffffffffffffffffffffffffffff82169050919050565b612f8a81612f66565b82525050565b6000602082019050612fa56000830184612f81565b92915050565b6000604051905090565b600080fd5b600080fd5b600080fd5b600080fd5b600080fd5b60008083601f840112612fe457612fe3612fbf565b5b8235905067ffffffffffffffff81111561300157613000612fc4565b5b6020830191508361012082028301111561301e5761301d612fc9565b5b9250929050565b6000806020838503121561303c5761303b612fb5565b5b600083013567ffffffffffffffff81111561305a57613059612fba565b5b61306685828601612fce565b92509250509250929050565b600073ffffffffffffffffffffffffffffffffffffffff82169050919050565b600061309d82613072565b9050919050565b6130ad81613092565b82525050565b60006020820190506130c860008301846130a4565b92915050565b6000819050919050565b6130e1816130ce565b82525050565b60006020820190506130fc60008301846130d8565b92915050565b61310b816130ce565b811461311657600080fd5b50565b60008135905061312881613102565b92915050565b60006020828403121561314457613143612fb5565b5b600061315284828501613119565b91505092915050565b600060408201905061317060008301856130d8565b61317d60208301846130d8565b9392505050565b600063ffffffff82169050919050565b61319d81613184565b81146131a857600080fd5b50565b6000813590506131ba81613194565b92915050565b6000819050919050565b6131d3816131c0565b81146131de57600080fd5b50565b6000813590506131f0816131ca565b92915050565b60008083601f84011261320c5761320b612fbf565b5b8235905067ffffffffffffffff81111561322957613228612fc4565b5b60208301915083600182028301111561324557613244612fc9565b5b9250929050565b60008060008060006080868803121561326857613267612fb5565b5b6000613276888289016131ab565b9550506020613287888289016131e1565b9450506040613298888289016131ab565b935050606086013567ffffffffffffffff8111156132b9576132b8612fba565b5b6132c5888289016131f6565b92509250509295509295909350565b60008115159050919050565b6132e9816132d4565b82525050565b600060208201905061330460008301846132e0565b92915050565b613313816131c0565b82525050565b600060208201905061332e600083018461330a565b92915050565b600080fd5b600061020082840312156133505761334f613334565b5b81905092915050565b60008060006060848603121561337257613371612fb5565b5b600061338086828701613119565b935050602061339186828701613119565b925050604084013567ffffffffffffffff8111156133b2576133b1612fba565b5b6133be86828701613339565b9150509250925092565b6000602082840312156133de576133dd612fb5565b5b60006133ec848285016131ab565b91505092915050565b6000806040838503121561340c5761340b612fb5565b5b600061341a858286016131ab565b925050602061342b858286016131e1565b9150509250929050565b61343e81612f66565b811461344957600080fd5b50565b60008135905061345b81613435565b92915050565b60006020828403121561347757613476612fb5565b5b60006134858482850161344c565b91505092915050565b61349781613092565b81146134a257600080fd5b50565b6000813590506134b48161348e565b92915050565b60008060008060008060008060006101208a8c0312156134dd576134dc612fb5565b5b60006134eb8c828d016134a5565b99505060206134fc8c828d016134a5565b985050604061350d8c828d016134a5565b975050606061351e8c828d016134a5565b965050608061352f8c828d016134a5565b95505060a06135408c828d016134a5565b94505060c06135518c828d016134a5565b93505060e06135628c828d016131ab565b9250506101006135748c828d016134a5565b9150509295985092959850929598565b61358d816132d4565b811461359857600080fd5b50565b6000813590506135aa81613584565b92915050565b6000602082840312156135c6576135c5612fb5565b5b60006135d48482850161359b565b91505092915050565b60006135e882613072565b9050919050565b6135f8816135dd565b82525050565b600060208201905061361360008301846135ef565b92915050565b600080604083850312156136305761362f612fb5565b5b600061363e85828601613119565b925050602061364f85828601613119565b9150509250929050565b600081519050919050565b600082825260208201905092915050565b60005b83811015613693578082015181840152602081019050613678565b60008484015250505050565b6000601f19601f8301169050919050565b60006136bb82613659565b6136c58185613664565b93506136d5818560208601613675565b6136de8161369f565b840191505092915050565b6136f2816130ce565b82525050565b60408201600082015161370e60008501826136e9565b50602082015161372160208501826136e9565b50505050565b600060029050919050565b600081905092915050565b6000819050919050565b600061375383836136e9565b60208301905092915050565b6000602082019050919050565b61377581613727565b61377f8184613732565b925061378a8261373d565b8060005b838110156137bb5781516137a28782613747565b96506137ad8361375f565b92505060018101905061378e565b505050505050565b6080820160008201516137d9600085018261376c565b5060208201516137ec604085018261376c565b50505050565b600081519050919050565b600082825260208201905092915050565b6000819050602082019050919050565b600061382a83836136f8565b60408301905092915050565b6000602082019050919050565b600061384e826137f2565b61385881856137fd565b93506138638361380e565b8060005b8381101561389457815161387b888261381e565b975061388683613836565b925050600181019050613867565b5085935050505092915050565b60006102008301600083015184820360008601526138bf82826136b0565b91505060208301516138d460208601826136f8565b5060408301516138e760608601826137c3565b5060608301516138fa60e08601826137c3565b50608083015161390e6101608601826137c3565b5060a08301518482036101e08601526139278282613843565b9150508091505092915050565b6000602082019050818103600083015261394e81846138a1565b905092915050565b60006020828403121561396c5761396b612fb5565b5b600061397a848285016134a5565b91505092915050565b61398c81613184565b82525050565b60006020820190506139a76000830184613983565b92915050565b6000602082840312156139c3576139c2612fb5565b5b60006139d1848285016131e1565b91505092915050565b7f4e487b7100000000000000000000000000000000000000000000000000000000600052602160045260246000fd5b60038110613a1a57613a196139da565b5b50565b6000819050613a2b82613a09565b919050565b6000613a3b82613a1d565b9050919050565b613a4b81613a30565b82525050565b6000606082019050613a666000830186613a42565b613a7360208301856130a4565b613a8060408301846130d8565b949350505050565b60008060408385031215613a9f57613a9e612fb5565b5b6000613aad85828601613119565b9250506020613abe858286016131e1565b9150509250929050565b60008083601f840112613ade57613add612fbf565b5b8235905067ffffffffffffffff811115613afb57613afa612fc4565b5b602083019150836020820283011115613b1757613b16612fc9565b5b9250929050565b60008060208385031215613b3557613b34612fb5565b5b600083013567ffffffffffffffff811115613b5357613b52612fba565b5b613b5f85828601613ac8565b92509250509250929050565b7f4e487b7100000000000000000000000000000000000000000000000000000000600052604160045260246000fd5b613ba38261369f565b810181811067ffffffffffffffff82111715613bc257613bc1613b6b565b5b80604052505050565b6000613bd5612fab565b9050613be18282613b9a565b919050565b600067ffffffffffffffff821115613c0157613c00613b6b565b5b602082029050602081019050919050565b6000613c25613c2084613be6565b613bcb565b90508083825260208201905060208402830185811115613c4857613c47612fc9565b5b835b81811015613c715780613c5d88826131e1565b845260208401935050602081019050613c4a565b5050509392505050565b600082601f830112613c9057613c8f612fbf565b5b8135613ca0848260208601613c12565b91505092915050565b600060208284031215613cbf57613cbe612fb5565b5b600082013567ffffffffffffffff811115613cdd57613cdc612fba565b5b613ce984828501613c7b565b91505092915050565b60006102208284031215613d0957613d08613334565b5b81905092915050565b600080600080600060a08688031215613d2e57613d2d612fb5565b5b600086013567ffffffffffffffff811115613d4c57613d4b612fba565b5b613d5888828901613cf2565b9550506020613d69888289016131ab565b9450506040613d7a888289016134a5565b9350506060613d8b888289016131e1565b9250506080613d9c88828901613119565b9150509295509295909350565b600067ffffffffffffffff82169050919050565b613dc681613da9565b82525050565b6000602082019050613de16000830184613dbd565b92915050565b600060208284031215613dfd57613dfc612fb5565b5b600082013567ffffffffffffffff811115613e1b57613e1a612fba565b5b613e2784828501613cf2565b91505092915050565b613e39816135dd565b8114613e4457600080fd5b50565b600081359050613e5681613e30565b92915050565b600060208284031215613e7257613e71612fb5565b5b6000613e8084828501613e47565b91505092915050565b600082825260208201905092915050565b6000819050919050565b600082905092915050565b6000613ebe60208401846131e1565b905092915050565b613ecf816131c0565b82525050565b600082905092915050565b60038110613eed57600080fd5b50565b600081359050613eff81613ee0565b92915050565b6000613f146020840184613ef0565b905092915050565b613f2581613a30565b82525050565b6000613f3a60208401846134a5565b905092915050565b613f4b81613092565b82525050565b6000613f606020840184613119565b905092915050565b60608201613f796000830183613f05565b613f866000850182613f1c565b50613f946020830183613f2b565b613fa16020850182613f42565b50613faf6040830183613f51565b613fbc60408501826136e9565b50505050565b6000613fd1602084018461344c565b905092915050565b613fe281612f66565b82525050565b60a08201613ff96000830183613eaf565b6140066000850182613ec6565b506140146020830183613ed5565b6140216020850182613f68565b5061402f6080830183613fc2565b61403c6080850182613fd9565b50505050565b600082905092915050565b600082905092915050565b82818337505050565b61406d60608383614058565b5050565b60808201614082600083018361404d565b61408f6000850182614061565b5061409d6060830183613eaf565b6140aa6060850182613ec6565b50505050565b61012082016140c26000830183613ea4565b6140cf6000850182613fe8565b506140dd60a0830183614042565b6140ea60a0850182614071565b50505050565b60006140fc83836140b0565b6101208301905092915050565b600082905092915050565b600061012082019050919050565b600061412e8385613e89565b935061413982613e9a565b8060005b858110156141725761414f8284614109565b61415988826140f0565b975061416483614114565b92505060018101905061413d565b5085925050509392505050565b6000602082019050818103600083015261419a818486614122565b90509392505050565b600082825260208201905092915050565b7f50726976616379506f6f6c3a204f6e6c7920546f6b656e4d657373656e676572600082015250565b60006141ea6020836141a3565b91506141f5826141b4565b602082019050919050565b60006020820190508181036000830152614219816141dd565b9050919050565b7f50726976616379506f6f6c3a20496e73756666696369656e742066696e616c6960008201527f7479000000000000000000000000000000000000000000000000000000000000602082015250565b600061427c6022836141a3565b915061428782614220565b604082019050919050565b600060208201905081810360008301526142ab8161426f565b9050919050565b7f4e487b7100000000000000000000000000000000000000000000000000000000600052601160045260246000fd5b60006142ec826130ce565b91506142f7836130ce565b925082820390508181111561430f5761430e6142b2565b5b92915050565b600060039050919050565b600081905092915050565b6000819050919050565b60006143418383613ec6565b60208301905092915050565b6000602082019050919050565b61436381614315565b61436d8184614320565b92506143788261432b565b8060005b838110156143a95781516143908782614335565b965061439b8361434d565b92505060018101905061437c565b505050505050565b60c0820160008201516143c76000850182613ec6565b5060208201516143da6020850182613fd9565b5060408201516143ed604085018261435a565b50606082015161440060a0850182613ec6565b50505050565b600060e08201905061441b60008301856130d8565b61442860208301846143b1565b9392505050565b7f50726976616379506f6f6c3a20496e76616c6964206d6573736167652074797060008201527f6500000000000000000000000000000000000000000000000000000000000000602082015250565b600061448b6021836141a3565b91506144968261442f565b604082019050919050565b600060208201905081810360008301526144ba8161447e565b9050919050565b7f50726976616379506f6f6c3a204f6e6c79206f776e6572000000000000000000600082015250565b60006144f76017836141a3565b9150614502826144c1565b602082019050919050565b60006020820190508181036000830152614526816144ea565b9050919050565b600080fd5b600080fd5b600080fd5b6000808335600160200384360303811261455957614558614537565b5b83810192508235915060208301925067ffffffffffffffff8211156145815761458061452d565b5b60018202360383131561459757614596614532565b5b509250929050565b82818337600083830152505050565b60006145ba8385613664565b93506145c783858461459f565b6145d08361369f565b840190509392505050565b600082905092915050565b604082016145f76000830183613f51565b61460460008501826136e9565b506146126020830183613f51565b61461f60208501826136e9565b50505050565b600082905092915050565b600082905092915050565b61464760408383614058565b5050565b6080820161465c6000830183614630565b614669600085018261463b565b506146776040830183614630565b614684604085018261463b565b50505050565b600080833560016020038436030381126146a7576146a6614537565b5b83810192508235915060208301925067ffffffffffffffff8211156146cf576146ce61452d565b5b6040820236038313156146e5576146e4614532565b5b509250929050565b6000819050919050565b600061470383836145e6565b60408301905092915050565b6000604082019050919050565b600061472883856137fd565b9350614733826146ed565b8060005b8581101561476c5761474982846145db565b61475388826146f7565b975061475e8361470f565b925050600181019050614737565b5085925050509392505050565b6000610200830161478d600084018461453c565b85830360008701526147a08382846145ae565b925050506147b160208401846145db565b6147be60208601826145e6565b506147cc6060840184614625565b6147d9606086018261464b565b506147e760e0840184614625565b6147f460e086018261464b565b50614803610160840184614625565b61481161016086018261464b565b506148206101e084018461468a565b8583036101e087015261483483828461471c565b925050508091505092915050565b600060608201905061485760008301866130d8565b61486460208301856130d8565b81810360408301526148768184614779565b9050949350505050565b7f50726976616379506f6f6c3a2046656520746f6f206869676800000000000000600082015250565b60006148b66019836141a3565b91506148c182614880565b602082019050919050565b600060208201905081810360008301526148e5816148a9565b9050919050565b7f50726976616379506f6f6c3a20416c726561647920696e697469616c697a6564600082015250565b60006149226020836141a3565b915061492d826148ec565b602082019050919050565b6000602082019050818103600083015261495181614915565b9050919050565b7f4e487b7100000000000000000000000000000000000000000000000000000000600052602260045260246000fd5b6000600282049050600182168061499f57607f821691505b6020821081036149b2576149b1614958565b5b50919050565b7f50726976616379506f6f6c3a20466173742066696e616c697479206e6f74207360008201527f7570706f72746564000000000000000000000000000000000000000000000000602082015250565b6000614a146028836141a3565b9150614a1f826149b8565b604082019050919050565b60006020820190508181036000830152614a4381614a07565b9050919050565b600082825260208201905092915050565b6000819050919050565b600082905092915050565b6101008201614a8260008301836145db565b614a8f60008501826145e6565b50614a9d6040830183614625565b614aaa604085018261464b565b50614ab860c08301836145db565b614ac560c08501826145e6565b50505050565b60008083356001602003843603038112614ae857614ae7614537565b5b83810192508235915060208301925067ffffffffffffffff821115614b1057614b0f61452d565b5b602082023603831315614b2657614b25614532565b5b509250929050565b600082825260208201905092915050565b600080fd5b6000614b508385614b2e565b93507f07ffffffffffffffffffffffffffffffffffffffffffffffffffffffffffffff831115614b8357614b82614b3f565b5b602083029250614b94838584614058565b82840190509392505050565b60008235600160e003833603038112614bbc57614bbb614537565b5b82810191505092915050565b600061ffff82169050919050565b614bdf81614bc8565b8114614bea57600080fd5b50565b600081359050614bfc81614bd6565b92915050565b6000614c116020840184614bed565b905092915050565b614c2281614bc8565b82525050565b600068ffffffffffffffffff82169050919050565b614c4681614c28565b8114614c5157600080fd5b50565b600081359050614c6381614c3d565b92915050565b6000614c786020840184614c54565b905092915050565b614c8981614c28565b82525050565b60038110614c9c57600080fd5b50565b600081359050614cae81614c8f565b92915050565b6000614cc36020840184614c9f565b905092915050565b60038110614cdc57614cdb6139da565b5b50565b6000819050614ced82614ccb565b919050565b6000614cfd82614cdf565b9050919050565b614d0d81614cf2565b82525050565b614d1c81613da9565b8114614d2757600080fd5b50565b600081359050614d3981614d13565b92915050565b6000614d4e6020840184614d2a565b905092915050565b614d5f81613da9565b82525050565b60008083356001602003843603038112614d8257614d81614537565b5b83810192508235915060208301925067ffffffffffffffff821115614daa57614da961452d565b5b602082023603831315614dc057614dbf614532565b5b509250929050565b600082825260208201905092915050565b6000819050919050565b600082905092915050565b614dfa60808383614058565b5050565b60008083356001602003843603038112614e1b57614e1a614537565b5b83810192508235915060208301925067ffffffffffffffff821115614e4357614e4261452d565b5b600182023603831315614e5957614e58614532565b5b509250929050565b600082825260208201905092915050565b6000614e7e8385614e61565b9350614e8b83858461459f565b614e948361369f565b840190509392505050565b60006101008301614eb36000840184614de3565b614ec06000860182614dee565b50614ece6080840184613eaf565b614edb6080860182613ec6565b50614ee960a0840184613eaf565b614ef660a0860182613ec6565b50614f0460c0840184614dfe565b85830360c0870152614f17838284614e72565b92505050614f2860e0840184614dfe565b85830360e0870152614f3b838284614e72565b925050508091505092915050565b6000614f558383614e9f565b905092915050565b60008235600161010003833603038112614f7a57614f79614537565b5b82810191505092915050565b6000602082019050919050565b6000614f9f8385614dc8565b935083602084028501614fb184614dd9565b8060005b87811015614ff5578484038952614fcc8284614f5d565b614fd68582614f49565b9450614fe183614f86565b925060208a01995050600181019050614fb5565b50829750879450505050509392505050565b600060e0830161501a6000840184614c02565b6150276000860182614c19565b506150356020840184614c69565b6150426020860182614c80565b506150506040840184614cb4565b61505d6040860182614d04565b5061506b6060840184614d3f565b6150786060860182614d56565b506150866080840184613f2b565b6150936080860182613f42565b506150a160a0840184613eaf565b6150ae60a0860182613ec6565b506150bc60c0840184614d65565b85830360c08701526150cf838284614f93565b925050508091505092915050565b600061022083016150f16000840184614a65565b6150fe6000860182614a70565b5061510d610100840184613eaf565b61511b610100860182613ec6565b5061512a610120840184614acb565b85830361012087015261513e838284614b44565b92505050615150610140840184614acb565b858303610140870152615164838284614b44565b92505050615176610160840184614ba0565b8482036101608601526151898282615007565b91505061519a610180840184613ea4565b6151a8610180860182613fe8565b508091505092915050565b60006151bf83836150dd565b905092915050565b600082356001610220038336030381126151e4576151e3614537565b5b82810191505092915050565b6000602082019050919050565b60006152098385614a4a565b93508360208402850161521b84614a5b565b8060005b8781101561525f57848403895261523682846151c7565b61524085826151b3565b945061524b836151f0565b925060208a0199505060018101905061521f565b50829750879450505050509392505050565b6000602082019050818103600083015261528c8184866151fd565b90509392505050565b7f4f6e6c792073656c660000000000000000000000000000000000000000000000600082015250565b60006152cb6009836141a3565b91506152d682615295565b602082019050919050565b600060208201905081810360008301526152fa816152be565b9050919050565b600081519050919050565b600082825260208201905092915050565b6000819050602082019050919050565b6000602082019050919050565b600061534582615301565b61534f818561530c565b935061535a8361531d565b8060005b8381101561538b5781516153728882614335565b975061537d8361532d565b92505060018101905061535e565b5085935050505092915050565b600060208201905081810360008301526153b2818461533a565b905092915050565b600061022083016153ce6000840184614a65565b6153db6000860182614a70565b506153ea610100840184613eaf565b6153f8610100860182613ec6565b50615407610120840184614acb565b85830361012087015261541b838284614b44565b9250505061542d610140840184614acb565b858303610140870152615441838284614b44565b92505050615453610160840184614ba0565b8482036101608601526154668282615007565b915050615477610180840184613ea4565b615485610180860182613fe8565b508091505092915050565b600060a08201905081810360008301526154aa81886153ba565b90506154b96020830187613983565b6154c660408301866130a4565b6154d3606083018561330a565b6154e060808301846130d8565b9695505050505050565b6000815190506154f981614d13565b92915050565b60006020828403121561551557615514612fb5565b5b6000615523848285016154ea565b91505092915050565b7f4e487b7100000000000000000000000000000000000000000000000000000000600052601260045260246000fd5b6000615566826130ce565b9150615571836130ce565b9250826155815761558061552c565b5b828206905092915050565b600080fd5b600080fd5b600080fd5b600080833560016020038436030381126155b8576155b761558c565b5b80840192508235915067ffffffffffffffff8211156155da576155d9615591565b5b6020830192506020820236038313156155f6576155f5615596565b5b509250929050565b7f50726976616379506f6f6c3a20566572696669636174696f6e206b6579206e6f60008201527f7420736574000000000000000000000000000000000000000000000000000000602082015250565b600061565a6025836141a3565b9150615665826155fe565b604082019050919050565b600060208201905081810360008301526156898161564d565b9050919050565b600061569b826130ce565b91506156a6836130ce565b92508282019050808211156156be576156bd6142b2565b5b92915050565b7f4e487b7100000000000000000000000000000000000000000000000000000000600052603260045260246000fd5b60008235600160e00383360303811261570f5761570e61558c565b5b80830191505092915050565b600060e0830161572e6000840184614c02565b61573b6000860182614c19565b506157496020840184614c69565b6157566020860182614c80565b506157646040840184614cb4565b6157716040860182614d04565b5061577f6060840184614d3f565b61578c6060860182614d56565b5061579a6080840184613f2b565b6157a76080860182613f42565b506157b560a0840184613eaf565b6157c260a0860182613ec6565b506157d060c0840184614d65565b85830360c08701526157e3838284614f93565b925050508091505092915050565b6000602082019050818103600083015261580b818461571b565b905092915050565b600061581e826130ce565b91507fffffffffffffffffffffffffffffffffffffffffffffffffffffffffffffffff82036158505761584f6142b2565b5b600182019050919050565b600080fd5b600080fd5b60006040828403121561587b5761587a61585b565b5b6158856040613bcb565b9050600061589584828501613119565b60008301525060206158a984828501613119565b60208301525092915050565b600067ffffffffffffffff8211156158d0576158cf613b6b565b5b602082029050919050565b60006158ee6158e9846158b5565b613bcb565b9050806020840283018581111561590857615907612fc9565b5b835b81811015615931578061591d8882613119565b84526020840193505060208101905061590a565b5050509392505050565b600082601f8301126159505761594f612fbf565b5b600261595d8482856158db565b91505092915050565b60006080828403121561597c5761597b61585b565b5b6159866040613bcb565b905060006159968482850161593b565b60008301525060406159aa8482850161593b565b60208301525092915050565b600061010082840312156159cd576159cc61585b565b5b6159d76060613bcb565b905060006159e784828501615865565b60008301525060406159fb84828501615966565b60208301525060c0615a0f84828501615865565b60408301525092915050565b60006101008284031215615a3257615a31612fb5565b5b6000615a40848285016159b6565b91505092915050565b7f50726976616379506f6f6c3a204d6f64756c65206e6f74207365740000000000600082015250565b6000615a7f601b836141a3565b9150615a8a82615a49565b602082019050919050565b60006020820190508181036000830152615aae81615a72565b9050919050565b600081519050919050565b600081905092915050565b6000615ad682615ab5565b615ae08185615ac0565b9350615af0818560208601613675565b80840191505092915050565b6000615b088284615acb565b915081905092915050565b7f50726976616379506f6f6c3a2044656c656761746563616c6c206661696c6564600082015250565b6000615b496020836141a3565b9150615b5482615b13565b602082019050919050565b60006020820190508181036000830152615b7881615b3c565b9050919050565b7f4275726e4d65737361676556323a206d65737361676520746f6f2073686f7274600082015250565b6000615bb56020836141a3565b9150615bc082615b7f565b602082019050919050565b60006020820190508181036000830152615be481615ba8565b9050919050565b600080fd5b600080fd5b60008085851115615c0957615c08615beb565b5b83861115615c1a57615c19615bf0565b5b6001850283019150848603905094509492505050565b600082905092915050565b600082821b905092915050565b6000615c548383615c30565b82615c5f81356131c0565b92506020821015615c9f57615c9a7fffffffffffffffffffffffffffffffffffffffffffffffffffffffffffffffff83602003600802615c3b565b831692505b505092915050565b60028110615cb457600080fd5b50565b600081519050615cc681615ca7565b92915050565b600080fd5b600067ffffffffffffffff821115615cec57615ceb613b6b565b5b615cf58261369f565b9050602081019050919050565b6000615d15615d1084615cd1565b613bcb565b905082815260208101848484011115615d3157615d30615ccc565b5b615d3c848285613675565b509392505050565b600082601f830112615d5957615d58612fbf565b5b8151615d69848260208601615d02565b91505092915050565b600060408284031215615d8857615d8761585b565b5b615d926040613bcb565b90506000615da284828501615cb7565b600083015250602082015167ffffffffffffffff811115615dc657615dc5615860565b5b615dd284828501615d44565b60208301525092915050565b600060208284031215615df457615df3612fb5565b5b600082015167ffffffffffffffff811115615e1257615e11612fba565b5b615e1e84828501615d72565b91505092915050565b600081519050615e36816131ca565b92915050565b600081519050615e4b81613435565b92915050565b600067ffffffffffffffff821115615e6c57615e6b613b6b565b5b602082029050919050565b6000615e8a615e8584615e51565b613bcb565b90508060208402830185811115615ea457615ea3612fc9565b5b835b81811015615ecd5780615eb98882615e27565b845260208401935050602081019050615ea6565b5050509392505050565b600082601f830112615eec57615eeb612fbf565b5b6003615ef9848285615e77565b91505092915050565b600060c08284031215615f1857615f1761585b565b5b615f226080613bcb565b90506000615f3284828501615e27565b6000830152506020615f4684828501615e3c565b6020830152506040615f5a84828501615ed7565b60408301525060a0615f6e84828501615e27565b60608301525092915050565b600060c08284031215615f9057615f8f612fb5565b5b6000615f9e84828501615f02565b91505092915050565b7f536e61726b3a20496e707574203e20534e41524b5f5343414c41525f4649454c60008201527f4400000000000000000000000000000000000000000000000000000000000000602082015250565b60006160036021836141a3565b915061600e82615fa7565b604082019050919050565b6000602082019050818103600083015261603281615ff6565b9050919050565b7f536e61726b3a205363616c6172204d756c7469706c69636174696f6e2046616960008201527f6c65640000000000000000000000000000000000000000000000000000000000602082015250565b60006160956023836141a3565b91506160a082616039565b604082019050919050565b600060208201905081810360008301526160c481616088565b9050919050565b7f536e61726b3a20416464204661696c6564000000000000000000000000000000600082015250565b60006161016011836141a3565b915061610c826160cb565b602082019050919050565b60006020820190508181036000830152616130816160f4565b9050919050565b7f536e61726b3a20496e76616c6964206e65676174696f6e000000000000000000600082015250565b600061616d6017836141a3565b915061617882616137565b602082019050919050565b6000602082019050818103600083015261619c81616160565b9050919050565b7f536e61726b3a2050616972696e6720566572696669636174696f6e204661696c60008201527f6564000000000000000000000000000000000000000000000000000000000000602082015250565b60006161ff6022836141a3565b915061620a826161a3565b604082019050919050565b6000602082019050818103600083015261622e816161f2565b905091905056fea26469706673582212204c8e1c5b79bcc0c3053ab8d9ec7475479d307312dbc46352c7d2ffcfc33d209364736f6c63430008110033","linkReferences":{}},"methodIdentifiers":{"ZERO_VALUE()":"ec732959","atomicCrossChainUnshield((((uint256,uint256),(uint256[2],uint256[2]),(uint256,uint256)),bytes32,bytes32[],bytes32[],(uint16,uint72,uint8,uint64,address,bytes32,(bytes32[4],bytes32,bytes32,bytes,bytes)[]),(bytes32,(uint8,address,uint256),uint120)),uint32,address,bytes32,uint256)":"e484d408","getInsertionTreeNumberAndStartingIndex(uint256)":"0c9c0c8d","getVerificationKey(uint256,uint256)":"7b12ae83","handleReceiveFinalizedMessage(uint32,bytes32,uint32,bytes)":"11cffb67","handleReceiveUnfinalizedMessage(uint32,bytes32,uint32,bytes)":"7c92f219","initialize(address,address,address,address,address,address,address,uint32,address)":"50d02937","initialized()":"158ef93e","insertLeaves(bytes32[])":"dc52bf9f","lastEventBlock()":"cd3efe06","localDomain()":"8d3638f4","merkleModule()":"90de3f6e","merkleRoot()":"2eb4a7ab","messageTransmitter()":"7b04c181","nextLeafIndex()":"0be4f422","nftFee()":"9071adc0","nullifiers(uint256,bytes32)":"f19ea903","owner()":"8da5cb5b","remotePools(uint32)":"30ed93c3","rootHistory(uint256,bytes32)":"c718dbda","setRemotePool(uint32,bytes32)":"37bc0324","setShieldFee(uint120)":"47338389","setTestingMode(bool)":"596d7a68","setTreasury(address)":"f0f44260","setVerificationKey(uint256,uint256,(string,(uint256,uint256),(uint256[2],uint256[2]),(uint256[2],uint256[2]),(uint256[2],uint256[2]),(uint256,uint256)[]))":"2ec0f359","shield(((bytes32,(uint8,address,uint256),uint120),(bytes32[3],bytes32))[])":"044a40c3","shieldFee()":"01c37790","shieldModule()":"35db307c","snarkSafetyVector(uint256)":"129458f4","testingMode()":"c8f35b5d","tokenBlocklist(address)":"815b534f","tokenIDMapping(bytes32)":"b8ceaef2","tokenMessenger()":"46117830","transact((((uint256,uint256),(uint256[2],uint256[2]),(uint256,uint256)),bytes32,bytes32[],bytes32[],(uint16,uint72,uint8,uint64,address,bytes32,(bytes32[4],bytes32,bytes32,bytes,bytes)[]),(bytes32,(uint8,address,uint256),uint120))[])":"d8ae136a","transactModule()":"048e0990","treasury()":"61d027b3","treeNumber()":"66503315","unshieldFee()":"053ed12a","usdc()":"3e413bee","verifierModule()":"41506fc1","verify((((uint256,uint256),(uint256[2],uint256[2]),(uint256,uint256)),bytes32,bytes32[],bytes32[],(uint16,uint72,uint8,uint64,address,bytes32,(bytes32[4],bytes32,bytes32,bytes,bytes)[]),(bytes32,(uint8,address,uint256),uint120)))":"ee990783","zeros(uint256)":"e8295588"},"id":13}