{"abi":[{"type":"function","name":"ZERO_VALUE","inputs":[],"outputs":[{"name":"","type":"bytes32","internalType":"bytes32"}],"stateMutability":"view"},{"type":"function","name":"atomicCrossChainUnshield","inputs":[{"name":"_transaction","type":"tuple","internalType":"struct Transaction","components":[{"name":"proof","type":"tuple","internalType":"struct SnarkProof","components":[{"name":"a","type":"tuple","internalType":"struct G1Point","components":[{"name":"x","type":"uint256","internalType":"uint256"},{"name":"y","type":"uint256","internalType":"uint256"}]},{"name":"b","type":"tuple","internalType":"struct G2Point","components":[{"name":"x","type":"uint256[2]","internalType":"uint256[2]"},{"name":"y","type":"uint256[2]","internalType":"uint256[2]"}]},{"name":"c","type":"tuple","internalType":"struct G1Point","components":[{"name":"x","type":"uint256","internalType":"uint256"},{"name":"y","type":"uint256","internalType":"uint256"}]}]},{"name":"merkleRoot","type":"bytes32","internalType":"bytes32"},{"name":"nullifiers","type":"bytes32[]","internalType":"bytes32[]"},{"name":"commitments","type":"bytes32[]","internalType":"bytes32[]"},{"name":"boundParams","type":"tuple","internalType":"struct BoundParams","components":[{"name":"treeNumber","type":"uint16","internalType":"uint16"},{"name":"minGasPrice","type":"uint72","internalType":"uint72"},{"name":"unshield","type":"uint8","internalType":"enum UnshieldType"},{"name":"chainID","type":"uint64","internalType":"uint64"},{"name":"adaptContract","type":"address","internalType":"address"},{"name":"adaptParams","type":"bytes32","internalType":"bytes32"},{"name":"commitmentCiphertext","type":"tuple[]","internalType":"struct CommitmentCiphertext[]","components":[{"name":"ciphertext","type":"bytes32[4]","internalType":"bytes32[4]"},{"name":"blindedSenderViewingKey","type":"bytes32","internalType":"bytes32"},{"name":"blindedReceiverViewingKey","type":"bytes32","internalType":"bytes32"},{"name":"annotationData","type":"bytes","internalType":"bytes"},{"name":"memo","type":"bytes","internalType":"bytes"}]}]},{"name":"unshieldPreimage","type":"tuple","internalType":"struct CommitmentPreimage","components":[{"name":"npk","type":"bytes32","internalType":"bytes32"},{"name":"token","type":"tuple","internalType":"struct TokenData","components":[{"name":"tokenType","type":"uint8","internalType":"enum TokenType"},{"name":"tokenAddress","type":"address","internalType":"address"},{"name":"tokenSubID","type":"uint256","internalType":"uint256"}]},{"name":"value","type":"uint120","internalType":"uint120"}]}]},{"name":"destinationDomain","type":"uint32","internalType":"uint32"},{"name":"finalRecipient","type":"address","internalType":"address"},{"name":"destinationCaller","type":"bytes32","internalType":"bytes32"},{"name":"maxFee","type":"uint256","internalType":"uint256"}],"outputs":[{"name":"","type":"uint64","internalType":"uint64"}],"stateMutability":"nonpayable"},{"type":"function","name":"getInsertionTreeNumberAndStartingIndex","inputs":[{"name":"","type":"uint256","internalType":"uint256"}],"outputs":[{"name":"treeNum","type":"uint256","internalType":"uint256"},{"name":"startIndex","type":"uint256","internalType":"uint256"}],"stateMutability":"view"},{"type":"function","name":"getVerificationKey","inputs":[{"name":"_nullifiers","type":"uint256","internalType":"uint256"},{"name":"_commitments","type":"uint256","internalType":"uint256"}],"outputs":[{"name":"","type":"tuple","internalType":"struct VerifyingKey","components":[{"name":"artifactsIPFSHash","type":"string","internalType":"string"},{"name":"alpha1","type":"tuple","internalType":"struct G1Point","components":[{"name":"x","type":"uint256","internalType":"uint256"},{"name":"y","type":"uint256","internalType":"uint256"}]},{"name":"beta2","type":"tuple","internalType":"struct G2Point","components":[{"name":"x","type":"uint256[2]","internalType":"uint256[2]"},{"name":"y","type":"uint256[2]","internalType":"uint256[2]"}]},{"name":"gamma2","type":"tuple","internalType":"struct G2Point","components":[{"name":"x","type":"uint256[2]","internalType":"uint256[2]"},{"name":"y","type":"uint256[2]","internalType":"uint256[2]"}]},{"name":"delta2","type":"tuple","internalType":"struct G2Point","components":[{"name":"x","type":"uint256[2]","internalType":"uint256[2]"},{"name":"y","type":"uint256[2]","internalType":"uint256[2]"}]},{"name":"ic","type":"tuple[]","internalType":"struct G1Point[]","components":[{"name":"x","type":"uint256","internalType":"uint256"},{"name":"y","type":"uint256","internalType":"uint256"}]}]}],"stateMutability":"view"},{"type":"function","name":"handleReceiveFinalizedMessage","inputs":[{"name":"","type":"uint32","internalType":"uint32"},{"name":"sender","type":"bytes32","internalType":"bytes32"},{"name":"finalityThresholdExecuted","type":"uint32","internalType":"uint32"},{"name":"messageBody","type":"bytes","internalType":"bytes"}],"outputs":[{"name":"","type":"bool","internalType":"bool"}],"stateMutability":"nonpayable"},{"type":"function","name":"handleReceiveUnfinalizedMessage","inputs":[{"name":"","type":"uint32","internalType":"uint32"},{"name":"","type":"bytes32","internalType":"bytes32"},{"name":"","type":"uint32","internalType":"uint32"},{"name":"","type":"bytes","internalType":"bytes"}],"outputs":[{"name":"","type":"bool","internalType":"bool"}],"stateMutability":"pure"},{"type":"function","name":"initialize","inputs":[{"name":"_shieldModule","type":"address","internalType":"address"},{"name":"_transactModule","type":"address","internalType":"address"},{"name":"_merkleModule","type":"address","internalType":"address"},{"name":"_verifierModule","type":"address","internalType":"address"},{"name":"_tokenMessenger","type":"address","internalType":"address"},{"name":"_messageTransmitter","type":"address","internalType":"address"},{"name":"_usdc","type":"address","internalType":"address"},{"name":"_localDomain","type":"uint32","internalType":"uint32"},{"name":"_owner","type":"address","internalType":"address"}],"outputs":[],"stateMutability":"nonpayable"},{"type":"function","name":"initialized","inputs":[],"outputs":[{"name":"","type":"bool","internalType":"bool"}],"stateMutability":"view"},{"type":"function","name":"insertLeaves","inputs":[{"name":"_leafHashes","type":"bytes32[]","internalType":"bytes32[]"}],"outputs":[],"stateMutability":"nonpayable"},{"type":"function","name":"lastEventBlock","inputs":[],"outputs":[{"name":"","type":"uint256","internalType":"uint256"}],"stateMutability":"view"},{"type":"function","name":"localDomain","inputs":[],"outputs":[{"name":"","type":"uint32","internalType":"uint32"}],"stateMutability":"view"},{"type":"function","name":"merkleModule","inputs":[],"outputs":[{"name":"","type":"address","internalType":"address"}],"stateMutability":"view"},{"type":"function","name":"merkleRoot","inputs":[],"outputs":[{"name":"","type":"bytes32","internalType":"bytes32"}],"stateMutability":"view"},{"type":"function","name":"messageTransmitter","inputs":[],"outputs":[{"name":"","type":"address","internalType":"address"}],"stateMutability":"view"},{"type":"function","name":"nextLeafIndex","inputs":[],"outputs":[{"name":"","type":"uint256","internalType":"uint256"}],"stateMutability":"view"},{"type":"function","name":"nftFee","inputs":[],"outputs":[{"name":"","type":"uint120","internalType":"uint120"}],"stateMutability":"view"},{"type":"function","name":"nullifiers","inputs":[{"name":"","type":"uint256","internalType":"uint256"},{"name":"","type":"bytes32","internalType":"bytes32"}],"outputs":[{"name":"","type":"bool","internalType":"bool"}],"stateMutability":"view"},{"type":"function","name":"owner","inputs":[],"outputs":[{"name":"","type":"address","internalType":"address"}],"stateMutability":"view"},{"type":"function","name":"privilegedShieldCallers","inputs":[{"name":"","type":"address","internalType":"address"}],"outputs":[{"name":"","type":"bool","internalType":"bool"}],"stateMutability":"view"},{"type":"function","name":"remotePools","inputs":[{"name":"","type":"uint32","internalType":"uint32"}],"outputs":[{"name":"","type":"bytes32","internalType":"bytes32"}],"stateMutability":"view"},{"type":"function","name":"rootHistory","inputs":[{"name":"","type":"uint256","internalType":"uint256"},{"name":"","type":"bytes32","internalType":"bytes32"}],"outputs":[{"name":"","type":"bool","internalType":"bool"}],"stateMutability":"view"},{"type":"function","name":"setPrivilegedShieldCaller","inputs":[{"name":"caller","type":"address","internalType":"address"},{"name":"privileged","type":"bool","internalType":"bool"}],"outputs":[],"stateMutability":"nonpayable"},{"type":"function","name":"setRemotePool","inputs":[{"name":"domain","type":"uint32","internalType":"uint32"},{"name":"poolAddress","type":"bytes32","internalType":"bytes32"}],"outputs":[],"stateMutability":"nonpayable"},{"type":"function","name":"setShieldFee","inputs":[{"name":"_feeBps","type":"uint120","internalType":"uint120"}],"outputs":[],"stateMutability":"nonpayable"},{"type":"function","name":"setTestingMode","inputs":[{"name":"_enabled","type":"bool","internalType":"bool"}],"outputs":[],"stateMutability":"nonpayable"},{"type":"function","name":"setTreasury","inputs":[{"name":"_treasury","type":"address","internalType":"address payable"}],"outputs":[],"stateMutability":"nonpayable"},{"type":"function","name":"setUnshieldFee","inputs":[{"name":"_feeBps","type":"uint120","internalType":"uint120"}],"outputs":[],"stateMutability":"nonpayable"},{"type":"function","name":"setVerificationKey","inputs":[{"name":"_nullifiers","type":"uint256","internalType":"uint256"},{"name":"_commitments","type":"uint256","internalType":"uint256"},{"name":"_key","type":"tuple","internalType":"struct VerifyingKey","components":[{"name":"artifactsIPFSHash","type":"string","internalType":"string"},{"name":"alpha1","type":"tuple","internalType":"struct G1Point","components":[{"name":"x","type":"uint256","internalType":"uint256"},{"name":"y","type":"uint256","internalType":"uint256"}]},{"name":"beta2","type":"tuple","internalType":"struct G2Point","components":[{"name":"x","type":"uint256[2]","internalType":"uint256[2]"},{"name":"y","type":"uint256[2]","internalType":"uint256[2]"}]},{"name":"gamma2","type":"tuple","internalType":"struct G2Point","components":[{"name":"x","type":"uint256[2]","internalType":"uint256[2]"},{"name":"y","type":"uint256[2]","internalType":"uint256[2]"}]},{"name":"delta2","type":"tuple","internalType":"struct G2Point","components":[{"name":"x","type":"uint256[2]","internalType":"uint256[2]"},{"name":"y","type":"uint256[2]","internalType":"uint256[2]"}]},{"name":"ic","type":"tuple[]","internalType":"struct G1Point[]","components":[{"name":"x","type":"uint256","internalType":"uint256"},{"name":"y","type":"uint256","internalType":"uint256"}]}]}],"outputs":[],"stateMutability":"nonpayable"},{"type":"function","name":"shield","inputs":[{"name":"_shieldRequests","type":"tuple[]","internalType":"struct ShieldRequest[]","components":[{"name":"preimage","type":"tuple","internalType":"struct CommitmentPreimage","components":[{"name":"npk","type":"bytes32","internalType":"bytes32"},{"name":"token","type":"tuple","internalType":"struct TokenData","components":[{"name":"tokenType","type":"uint8","internalType":"enum TokenType"},{"name":"tokenAddress","type":"address","internalType":"address"},{"name":"tokenSubID","type":"uint256","internalType":"uint256"}]},{"name":"value","type":"uint120","internalType":"uint120"}]},{"name":"ciphertext","type":"tuple","internalType":"struct ShieldCiphertext","components":[{"name":"encryptedBundle","type":"bytes32[3]","internalType":"bytes32[3]"},{"name":"shieldKey","type":"bytes32","internalType":"bytes32"}]}]}],"outputs":[],"stateMutability":"nonpayable"},{"type":"function","name":"shieldFee","inputs":[],"outputs":[{"name":"","type":"uint120","internalType":"uint120"}],"stateMutability":"view"},{"type":"function","name":"shieldModule","inputs":[],"outputs":[{"name":"","type":"address","internalType":"address"}],"stateMutability":"view"},{"type":"function","name":"snarkSafetyVector","inputs":[{"name":"","type":"uint256","internalType":"uint256"}],"outputs":[{"name":"","type":"bool","internalType":"bool"}],"stateMutability":"view"},{"type":"function","name":"testingMode","inputs":[],"outputs":[{"name":"","type":"bool","internalType":"bool"}],"stateMutability":"view"},{"type":"function","name":"tokenBlocklist","inputs":[{"name":"","type":"address","internalType":"address"}],"outputs":[{"name":"","type":"bool","internalType":"bool"}],"stateMutability":"view"},{"type":"function","name":"tokenIDMapping","inputs":[{"name":"","type":"bytes32","internalType":"bytes32"}],"outputs":[{"name":"tokenType","type":"uint8","internalType":"enum TokenType"},{"name":"tokenAddress","type":"address","internalType":"address"},{"name":"tokenSubID","type":"uint256","internalType":"uint256"}],"stateMutability":"view"},{"type":"function","name":"tokenMessenger","inputs":[],"outputs":[{"name":"","type":"address","internalType":"address"}],"stateMutability":"view"},{"type":"function","name":"transact","inputs":[{"name":"_transactions","type":"tuple[]","internalType":"struct Transaction[]","components":[{"name":"proof","type":"tuple","internalType":"struct SnarkProof","components":[{"name":"a","type":"tuple","internalType":"struct G1Point","components":[{"name":"x","type":"uint256","internalType":"uint256"},{"name":"y","type":"uint256","internalType":"uint256"}]},{"name":"b","type":"tuple","internalType":"struct G2Point","components":[{"name":"x","type":"uint256[2]","internalType":"uint256[2]"},{"name":"y","type":"uint256[2]","internalType":"uint256[2]"}]},{"name":"c","type":"tuple","internalType":"struct G1Point","components":[{"name":"x","type":"uint256","internalType":"uint256"},{"name":"y","type":"uint256","internalType":"uint256"}]}]},{"name":"merkleRoot","type":"bytes32","internalType":"bytes32"},{"name":"nullifiers","type":"bytes32[]","internalType":"bytes32[]"},{"name":"commitments","type":"bytes32[]","internalType":"bytes32[]"},{"name":"boundParams","type":"tuple","internalType":"struct BoundParams","components":[{"name":"treeNumber","type":"uint16","internalType":"uint16"},{"name":"minGasPrice","type":"uint72","internalType":"uint72"},{"name":"unshield","type":"uint8","internalType":"enum UnshieldType"},{"name":"chainID","type":"uint64","internalType":"uint64"},{"name":"adaptContract","type":"address","internalType":"address"},{"name":"adaptParams","type":"bytes32","internalType":"bytes32"},{"name":"commitmentCiphertext","type":"tuple[]","internalType":"struct CommitmentCiphertext[]","components":[{"name":"ciphertext","type":"bytes32[4]","internalType":"bytes32[4]"},{"name":"blindedSenderViewingKey","type":"bytes32","internalType":"bytes32"},{"name":"blindedReceiverViewingKey","type":"bytes32","internalType":"bytes32"},{"name":"annotationData","type":"bytes","internalType":"bytes"},{"name":"memo","type":"bytes","internalType":"bytes"}]}]},{"name":"unshieldPreimage","type":"tuple","internalType":"struct CommitmentPreimage","components":[{"name":"npk","type":"bytes32","internalType":"bytes32"},{"name":"token","type":"tuple","internalType":"struct TokenData","components":[{"name":"tokenType","type":"uint8","internalType":"enum TokenType"},{"name":"tokenAddress","type":"address","internalType":"address"},{"name":"tokenSubID","type":"uint256","internalType":"uint256"}]},{"name":"value","type":"uint120","internalType":"uint120"}]}]}],"outputs":[],"stateMutability":"nonpayable"},{"type":"function","name":"transactModule","inputs":[],"outputs":[{"name":"","type":"address","internalType":"address"}],"stateMutability":"view"},{"type":"function","name":"treasury","inputs":[],"outputs":[{"name":"","type":"address","internalType":"address payable"}],"stateMutability":"view"},{"type":"function","name":"treeNumber","inputs":[],"outputs":[{"name":"","type":"uint256","internalType":"uint256"}],"stateMutability":"view"},{"type":"function","name":"unshieldFee","inputs":[],"outputs":[{"name":"","type":"uint120","internalType":"uint120"}],"stateMutability":"view"},{"type":"function","name":"usdc","inputs":[],"outputs":[{"name":"","type":"address","internalType":"address"}],"stateMutability":"view"},{"type":"function","name":"verifierModule","inputs":[],"outputs":[{"name":"","type":"address","internalType":"address"}],"stateMutability":"view"},{"type":"function","name":"verify","inputs":[{"name":"_transaction","type":"tuple","internalType":"struct Transaction","components":[{"name":"proof","type":"tuple","internalType":"struct SnarkProof","components":[{"name":"a","type":"tuple","internalType":"struct G1Point","components":[{"name":"x","type":"uint256","internalType":"uint256"},{"name":"y","type":"uint256","internalType":"uint256"}]},{"name":"b","type":"tuple","internalType":"struct G2Point","components":[{"name":"x","type":"uint256[2]","internalType":"uint256[2]"},{"name":"y","type":"uint256[2]","internalType":"uint256[2]"}]},{"name":"c","type":"tuple","internalType":"struct G1Point","components":[{"name":"x","type":"uint256","internalType":"uint256"},{"name":"y","type":"uint256","internalType":"uint256"}]}]},{"name":"merkleRoot","type":"bytes32","internalType":"bytes32"},{"name":"nullifiers","type":"bytes32[]","internalType":"bytes32[]"},{"name":"commitments","type":"bytes32[]","internalType":"bytes32[]"},{"name":"boundParams","type":"tuple","internalType":"struct BoundParams","components":[{"name":"treeNumber","type":"uint16","internalType":"uint16"},{"name":"minGasPrice","type":"uint72","internalType":"uint72"},{"name":"unshield","type":"uint8","internalType":"enum UnshieldType"},{"name":"chainID","type":"uint64","internalType":"uint64"},{"name":"adaptContract","type":"address","internalType":"address"},{"name":"adaptParams","type":"bytes32","internalType":"bytes32"},{"name":"commitmentCiphertext","type":"tuple[]","internalType":"struct CommitmentCiphertext[]","components":[{"name":"ciphertext","type":"bytes32[4]","internalType":"bytes32[4]"},{"name":"blindedSenderViewingKey","type":"bytes32","internalType":"bytes32"},{"name":"blindedReceiverViewingKey","type":"bytes32","internalType":"bytes32"},{"name":"annotationData","type":"bytes","internalType":"bytes"},{"name":"memo","type":"bytes","internalType":"bytes"}]}]},{"name":"unshieldPreimage","type":"tuple","internalType":"struct CommitmentPreimage","components":[{"name":"npk","type":"bytes32","internalType":"bytes32"},{"name":"token","type":"tuple","internalType":"struct TokenData","components":[{"name":"tokenType","type":"uint8","internalType":"enum TokenType"},{"name":"tokenAddress","type":"address","internalType":"address"},{"name":"tokenSubID","type":"uint256","internalType":"uint256"}]},{"name":"value","type":"uint120","internalType":"uint120"}]}]}],"outputs":[{"name":"","type":"bool","internalType":"bool"}],"stateMutability":"view"},{"type":"function","name":"zeros","inputs":[{"name":"","type":"uint256","internalType":"uint256"}],"outputs":[{"name":"","type":"bytes32","internalType":"bytes32"}],"stateMutability":"view"},{"type":"event","name":"RemotePoolSet","inputs":[{"name":"domain","type":"uint32","indexed":true,"internalType":"uint32"},{"name":"poolAddress","type":"bytes32","indexed":false,"internalType":"bytes32"}],"anonymous":false},{"type":"event","name":"TestingModeSet","inputs":[{"name":"enabled","type":"bool","indexed":false,"internalType":"bool"}],"anonymous":false}],"bytecode":{"object":"0x608060405234801561001057600080fd5b50616d3880620000216000396000f3fe608060405234801561001057600080fd5b506004361061027f5760003560e01c80637b04c1811161015c578063c66d0fb9116100ce578063e484d40811610087578063e484d408146107b9578063e8295588146107e9578063ec73295914610819578063ee99078314610837578063f0f4426014610867578063f19ea903146108835761027f565b8063c66d0fb9146106f9578063c718dbda14610715578063c8f35b5d14610745578063cd3efe0614610763578063d8ae136a14610781578063dc52bf9f1461079d5761027f565b80638da5cb5b116101205780638da5cb5b146106215780639071adc01461063f57806390de3f6e1461065d578063b069b70f1461067b578063b8ceaef2146106ab578063c253c4aa146106dd5761027f565b80637b04c181146105555780637b12ae83146105735780637c92f219146105a3578063815b534f146105d35780638d3638f4146106035761027f565b806330ed93c3116101f557806346117830116101b957806346117830146104a757806347338389146104c557806350d02937146104e1578063596d7a68146104fd57806361d027b31461051957806366503315146105375761027f565b806330ed93c31461040157806335db307c1461043157806337bc03241461044f5780633e413bee1461046b57806341506fc1146104895761027f565b80630c9c0c8d116102475780630c9c0c8d1461031857806311cffb6714610349578063129458f414610379578063158ef93e146103a95780632eb4a7ab146103c75780632ec0f359146103e55761027f565b806301c3779014610284578063044a40c3146102a2578063048e0990146102be578063053ed12a146102dc5780630be4f422146102fa575b600080fd5b61028c6108b3565b604051610299919061362b565b60405180910390f35b6102bc60048036038101906102b791906136c0565b6108d4565b005b6102c661095a565b6040516102d3919061374e565b60405180910390f35b6102e4610980565b6040516102f1919061362b565b60405180910390f35b6103026109a1565b60405161030f9190613782565b60405180910390f35b610332600480360381019061032d91906137c9565b6109a7565b6040516103409291906137f6565b60405180910390f35b610363600480360381019061035e91906138e7565b6109b9565b604051610370919061398a565b60405180910390f35b610393600480360381019061038e91906137c9565b610be4565b6040516103a0919061398a565b60405180910390f35b6103b1610c04565b6040516103be919061398a565b60405180910390f35b6103cf610c17565b6040516103dc91906139b4565b60405180910390f35b6103ff60048036038101906103fa91906139f4565b610c1d565b005b61041b60048036038101906104169190613a63565b610d38565b60405161042891906139b4565b60405180910390f35b610439610d50565b604051610446919061374e565b60405180910390f35b61046960048036038101906104649190613a90565b610d74565b005b610473610e6a565b604051610480919061374e565b60405180910390f35b610491610e90565b60405161049e919061374e565b60405180910390f35b6104af610eb6565b6040516104bc919061374e565b60405180910390f35b6104df60048036038101906104da9190613afc565b610edc565b005b6104fb60048036038101906104f69190613b55565b610ffc565b005b61051760048036038101906105129190613c4b565b611689565b005b6105216117d5565b60405161052e9190613c99565b60405180910390f35b61053f6117fb565b60405161054c9190613782565b60405180910390f35b61055d611801565b60405161056a919061374e565b60405180910390f35b61058d60048036038101906105889190613cb4565b611827565b60405161059a9190613fcf565b60405180910390f35b6105bd60048036038101906105b891906138e7565b611b6d565b6040516105ca919061398a565b60405180910390f35b6105ed60048036038101906105e89190613ff1565b611baa565b6040516105fa919061398a565b60405180910390f35b61060b611bca565b604051610618919061402d565b60405180910390f35b610629611be0565b604051610636919061374e565b60405180910390f35b610647611c06565b604051610654919061362b565b60405180910390f35b610665611c27565b604051610672919061374e565b60405180910390f35b61069560048036038101906106909190613ff1565b611c4d565b6040516106a2919061398a565b60405180910390f35b6106c560048036038101906106c09190614048565b611c6d565b6040516106d4939291906140ec565b60405180910390f35b6106f760048036038101906106f29190613afc565b611cc4565b005b610713600480360381019061070e9190614123565b611de4565b005b61072f600480360381019061072a9190614163565b611ecf565b60405161073c919061398a565b60405180910390f35b61074d611efe565b60405161075a919061398a565b60405180910390f35b61076b611f11565b6040516107789190613782565b60405180910390f35b61079b600480360381019061079691906141f9565b611f17565b005b6107b760048036038101906107b29190614384565b611f9f565b005b6107d360048036038101906107ce91906143ed565b612092565b6040516107e091906144a7565b60405180910390f35b61080360048036038101906107fe91906137c9565b612140565b60405161081091906139b4565b60405180910390f35b61082161215b565b60405161082e91906139b4565b60405180910390f35b610851600480360381019061084c91906144c2565b6121b0565b60405161085e919061398a565b60405180910390f35b610881600480360381019061087c9190614537565b6127ff565b005b61089d60048036038101906108989190614163565b612942565b6040516108aa919061398a565b60405180910390f35b600960009054906101000a90046effffffffffffffffffffffffffffff1681565b61095560008054906101000a900473ffffffffffffffffffffffffffffffffffffffff16838360405160240161090b92919061485a565b60405160208183030381529060405263044a40c360e01b6020820180517bffffffffffffffffffffffffffffffffffffffffffffffffffffffff8381831617835250505050612971565b505050565b600160009054906101000a900473ffffffffffffffffffffffffffffffffffffffff1681565b6009600f9054906101000a90046effffffffffffffffffffffffffffff1681565b600e5481565b600080601154600e5491509150915091565b6000600460009054906101000a900473ffffffffffffffffffffffffffffffffffffffff1673ffffffffffffffffffffffffffffffffffffffff163373ffffffffffffffffffffffffffffffffffffffff1614610a4b576040517f08c379a0000000000000000000000000000000000000000000000000000000008152600401610a42906148db565b60405180910390fd5b6107d063ffffffff168463ffffffff161015610a9c576040517f08c379a0000000000000000000000000000000000000000000000000000000008152600401610a939061496d565b60405180910390fd5b6000806000610aab8686612aab565b92509250925060008284610abf91906149bc565b90506000610acc83612bda565b905060006001811115610ae257610ae1614075565b5b81600001516001811115610af957610af8614075565b5b03610b97576000610b0d8260200151612bfd565b9050610b9060008054906101000a900473ffffffffffffffffffffffffffffffffffffffff168483604051602401610b46929190614ae1565b60405160208183030381529060405263c5b2d8c060e01b6020820180517bffffffffffffffffffffffffffffffffffffffffffffffffffffffff8381831617835250505050612971565b5050610bd2565b6040517f08c379a0000000000000000000000000000000000000000000000000000000008152600401610bc990614b7c565b60405180910390fd5b60019550505050505095945050505050565b60366020528060005260406000206000915054906101000a900460ff1681565b603860149054906101000a900460ff1681565b600f5481565b603860009054906101000a900473ffffffffffffffffffffffffffffffffffffffff1673ffffffffffffffffffffffffffffffffffffffff163373ffffffffffffffffffffffffffffffffffffffff1614610cad576040517f08c379a0000000000000000000000000000000000000000000000000000000008152600401610ca490614be8565b60405180910390fd5b610d32600360009054906101000a900473ffffffffffffffffffffffffffffffffffffffff16848484604051602401610ce893929190614f1d565b604051602081830303815290604052632ec0f35960e01b6020820180517bffffffffffffffffffffffffffffffffffffffffffffffffffffffff8381831617835250505050612971565b50505050565b60076020528060005260406000206000915090505481565b60008054906101000a900473ffffffffffffffffffffffffffffffffffffffff1681565b603860009054906101000a900473ffffffffffffffffffffffffffffffffffffffff1673ffffffffffffffffffffffffffffffffffffffff163373ffffffffffffffffffffffffffffffffffffffff1614610e04576040517f08c379a0000000000000000000000000000000000000000000000000000000008152600401610dfb90614be8565b60405180910390fd5b80600760008463ffffffff1663ffffffff168152602001908152602001600020819055508163ffffffff167f019190ca21b03575fe0ef686ebc94279721ca06510c186ee3a8d26cfa5d7002382604051610e5e91906139b4565b60405180910390a25050565b600660009054906101000a900473ffffffffffffffffffffffffffffffffffffffff1681565b600360009054906101000a900473ffffffffffffffffffffffffffffffffffffffff1681565b600460009054906101000a900473ffffffffffffffffffffffffffffffffffffffff1681565b603860009054906101000a900473ffffffffffffffffffffffffffffffffffffffff1673ffffffffffffffffffffffffffffffffffffffff163373ffffffffffffffffffffffffffffffffffffffff1614610f6c576040517f08c379a0000000000000000000000000000000000000000000000000000000008152600401610f6390614be8565b60405180910390fd5b612710816effffffffffffffffffffffffffffff161115610fc2576040517f08c379a0000000000000000000000000000000000000000000000000000000008152600401610fb990614fa7565b60405180910390fd5b80600960006101000a8154816effffffffffffffffffffffffffffff02191690836effffffffffffffffffffffffffffff16021790555050565b603860149054906101000a900460ff161561104c576040517f08c379a000000000000000000000000000000000000000000000000000000000815260040161104390615013565b60405180910390fd5b600073ffffffffffffffffffffffffffffffffffffffff168973ffffffffffffffffffffffffffffffffffffffff16036110bb576040517f08c379a00000000000000000000000000000000000000000000000000000000081526004016110b29061507f565b60405180910390fd5b600073ffffffffffffffffffffffffffffffffffffffff168873ffffffffffffffffffffffffffffffffffffffff160361112a576040517f08c379a0000000000000000000000000000000000000000000000000000000008152600401611121906150eb565b60405180910390fd5b600073ffffffffffffffffffffffffffffffffffffffff168773ffffffffffffffffffffffffffffffffffffffff1603611199576040517f08c379a000000000000000000000000000000000000000000000000000000000815260040161119090615157565b60405180910390fd5b600073ffffffffffffffffffffffffffffffffffffffff168673ffffffffffffffffffffffffffffffffffffffff1603611208576040517f08c379a00000000000000000000000000000000000000000000000000000000081526004016111ff906151c3565b60405180910390fd5b600073ffffffffffffffffffffffffffffffffffffffff168573ffffffffffffffffffffffffffffffffffffffff1603611277576040517f08c379a000000000000000000000000000000000000000000000000000000000815260040161126e9061522f565b60405180910390fd5b600073ffffffffffffffffffffffffffffffffffffffff168473ffffffffffffffffffffffffffffffffffffffff16036112e6576040517f08c379a00000000000000000000000000000000000000000000000000000000081526004016112dd906152c1565b60405180910390fd5b600073ffffffffffffffffffffffffffffffffffffffff168373ffffffffffffffffffffffffffffffffffffffff1603611355576040517f08c379a000000000000000000000000000000000000000000000000000000000815260040161134c9061532d565b60405180910390fd5b600073ffffffffffffffffffffffffffffffffffffffff168173ffffffffffffffffffffffffffffffffffffffff16036113c4576040517f08c379a00000000000000000000000000000000000000000000000000000000081526004016113bb90615399565b60405180910390fd5b886000806101000a81548173ffffffffffffffffffffffffffffffffffffffff021916908373ffffffffffffffffffffffffffffffffffffffff16021790555087600160006101000a81548173ffffffffffffffffffffffffffffffffffffffff021916908373ffffffffffffffffffffffffffffffffffffffff16021790555086600260006101000a81548173ffffffffffffffffffffffffffffffffffffffff021916908373ffffffffffffffffffffffffffffffffffffffff16021790555085600360006101000a81548173ffffffffffffffffffffffffffffffffffffffff021916908373ffffffffffffffffffffffffffffffffffffffff16021790555084600460006101000a81548173ffffffffffffffffffffffffffffffffffffffff021916908373ffffffffffffffffffffffffffffffffffffffff16021790555083600560006101000a81548173ffffffffffffffffffffffffffffffffffffffff021916908373ffffffffffffffffffffffffffffffffffffffff16021790555082600660006101000a81548173ffffffffffffffffffffffffffffffffffffffff021916908373ffffffffffffffffffffffffffffffffffffffff16021790555081600660146101000a81548163ffffffff021916908363ffffffff16021790555080603860006101000a81548173ffffffffffffffffffffffffffffffffffffffff021916908373ffffffffffffffffffffffffffffffffffffffff160217905550611662600260009054906101000a900473ffffffffffffffffffffffffffffffffffffffff16604051602401604051602081830303815290604052632d974a4c60e01b6020820180517bffffffffffffffffffffffffffffffffffffffffffffffffffffffff8381831617835250505050612971565b506001603860146101000a81548160ff021916908315150217905550505050505050505050565b603860009054906101000a900473ffffffffffffffffffffffffffffffffffffffff1673ffffffffffffffffffffffffffffffffffffffff163373ffffffffffffffffffffffffffffffffffffffff1614611719576040517f08c379a000000000000000000000000000000000000000000000000000000000815260040161171090614be8565b60405180910390fd5b61179a600360009054906101000a900473ffffffffffffffffffffffffffffffffffffffff1682604051602401611750919061398a565b60405160208183030381529060405263596d7a6860e01b6020820180517bffffffffffffffffffffffffffffffffffffffffffffffffffffffff8381831617835250505050612971565b507f21f67800fb06e35b87566708fd49f2a7cc96bf3a74ca56e175b23e6f35b10248816040516117ca919061398a565b60405180910390a150565b600860009054906101000a900473ffffffffffffffffffffffffffffffffffffffff1681565b60115481565b600560009054906101000a900473ffffffffffffffffffffffffffffffffffffffff1681565b61182f613458565b6034600084815260200190815260200160002060008381526020019081526020016000206040518060c001604052908160008201805461186e906153e8565b80601f016020809104026020016040519081016040528092919081815260200182805461189a906153e8565b80156118e75780601f106118bc576101008083540402835291602001916118e7565b820191906000526020600020905b8154815290600101906020018083116118ca57829003601f168201915b50505050508152602001600182016040518060400160405290816000820154815260200160018201548152505081526020016003820160405180604001604052908160008201600280602002604051908101604052809291908260028015611964576020028201915b815481526020019060010190808311611950575b50505050508152602001600282016002806020026040519081016040528092919082600280156119a9576020028201915b815481526020019060010190808311611995575b50505050508152505081526020016007820160405180604001604052908160008201600280602002604051908101604052809291908260028015611a02576020028201915b8154815260200190600101908083116119ee575b5050505050815260200160028201600280602002604051908101604052809291908260028015611a47576020028201915b815481526020019060010190808311611a33575b5050505050815250508152602001600b820160405180604001604052908160008201600280602002604051908101604052809291908260028015611aa0576020028201915b815481526020019060010190808311611a8c575b5050505050815260200160028201600280602002604051908101604052809291908260028015611ae5576020028201915b815481526020019060010190808311611ad1575b5050505050815250508152602001600f8201805480602002602001604051908101604052809291908181526020016000905b82821015611b5d57838290600052602060002090600202016040518060400160405290816000820154815260200160018201548152505081526020019060010190611b17565b5050505081525050905092915050565b60006040517f08c379a0000000000000000000000000000000000000000000000000000000008152600401611ba19061548b565b60405180910390fd5b600c6020528060005260406000206000915054906101000a900460ff1681565b600660149054906101000a900463ffffffff1681565b603860009054906101000a900473ffffffffffffffffffffffffffffffffffffffff1681565b600a60009054906101000a90046effffffffffffffffffffffffffffff1681565b600260009054906101000a900473ffffffffffffffffffffffffffffffffffffffff1681565b600b6020528060005260406000206000915054906101000a900460ff1681565b600d6020528060005260406000206000915090508060000160009054906101000a900460ff16908060000160019054906101000a900473ffffffffffffffffffffffffffffffffffffffff16908060010154905083565b603860009054906101000a900473ffffffffffffffffffffffffffffffffffffffff1673ffffffffffffffffffffffffffffffffffffffff163373ffffffffffffffffffffffffffffffffffffffff1614611d54576040517f08c379a0000000000000000000000000000000000000000000000000000000008152600401611d4b90614be8565b60405180910390fd5b612710816effffffffffffffffffffffffffffff161115611daa576040517f08c379a0000000000000000000000000000000000000000000000000000000008152600401611da190614fa7565b60405180910390fd5b806009600f6101000a8154816effffffffffffffffffffffffffffff02191690836effffffffffffffffffffffffffffff16021790555050565b603860009054906101000a900473ffffffffffffffffffffffffffffffffffffffff1673ffffffffffffffffffffffffffffffffffffffff163373ffffffffffffffffffffffffffffffffffffffff1614611e74576040517f08c379a0000000000000000000000000000000000000000000000000000000008152600401611e6b90614be8565b60405180910390fd5b80600b60008473ffffffffffffffffffffffffffffffffffffffff1673ffffffffffffffffffffffffffffffffffffffff16815260200190815260200160002060006101000a81548160ff0219169083151502179055505050565b60326020528160005260406000206020528060005260406000206000915091509054906101000a900460ff1681565b603560009054906101000a900460ff1681565b60375481565b611f9a600160009054906101000a900473ffffffffffffffffffffffffffffffffffffffff168383604051602401611f50929190615cd2565b60405160208183030381529060405263d8ae136a60e01b6020820180517bffffffffffffffffffffffffffffffffffffffffffffffffffffffff8381831617835250505050612971565b505050565b3073ffffffffffffffffffffffffffffffffffffffff163373ffffffffffffffffffffffffffffffffffffffff161461200d576040517f08c379a000000000000000000000000000000000000000000000000000000000815260040161200490615d42565b60405180910390fd5b61208e600260009054906101000a900473ffffffffffffffffffffffffffffffffffffffff16826040516024016120449190615df9565b60405160208183030381529060405263dc52bf9f60e01b6020820180517bffffffffffffffffffffffffffffffffffffffffffffffffffffffff8381831617835250505050612971565b5050565b60008061211e600160009054906101000a900473ffffffffffffffffffffffffffffffffffffffff1688888888886040516024016120d4959493929190615ef1565b60405160208183030381529060405263e484d40860e01b6020820180517bffffffffffffffffffffffffffffffffffffffffffffffffffffffff8381831617835250505050612971565b9050808060200190518101906121349190615f60565b91505095945050505050565b6012816010811061215057600080fd5b016000915090505481565b7f30644e72e131a029b85045b68181585d2833e84879b9709143e1f593f00000017f95b5e3f3c951508f13e7771152f5b7c7329a294917685c10a571c9247e3b9fff60001c6121aa9190615fbc565b60001b81565b6000603560009054906101000a900460ff16156121d057600190506127fa565b6000828061012001906121e39190615ffc565b905090506000838061014001906121fa9190615ffc565b9050905060006034600084815260200190815260200160002060008381526020019081526020016000206040518060c001604052908160008201805461223f906153e8565b80601f016020809104026020016040519081016040528092919081815260200182805461226b906153e8565b80156122b85780601f1061228d576101008083540402835291602001916122b8565b820191906000526020600020905b81548152906001019060200180831161229b57829003601f168201915b50505050508152602001600182016040518060400160405290816000820154815260200160018201548152505081526020016003820160405180604001604052908160008201600280602002604051908101604052809291908260028015612335576020028201915b815481526020019060010190808311612321575b505050505081526020016002820160028060200260405190810160405280929190826002801561237a576020028201915b815481526020019060010190808311612366575b505050505081525050815260200160078201604051806040016040529081600082016002806020026040519081016040528092919082600280156123d3576020028201915b8154815260200190600101908083116123bf575b5050505050815260200160028201600280602002604051908101604052809291908260028015612418576020028201915b815481526020019060010190808311612404575b5050505050815250508152602001600b820160405180604001604052908160008201600280602002604051908101604052809291908260028015612471576020028201915b81548152602001906001019080831161245d575b50505050508152602001600282016002806020026040519081016040528092919082600280156124b6576020028201915b8154815260200190600101908083116124a2575b5050505050815250508152602001600f8201805480602002602001604051908101604052809291908181526020016000905b8282101561252e578382906000526020600020906002020160405180604001604052908160008201548152602001600182015481525050815260200190600101906124e8565b50505050815250509050600081602001516000015103612583576040517f08c379a000000000000000000000000000000000000000000000000000000000815260040161257a906160d1565b60405180910390fd5b60008284600261259391906160f1565b61259d91906160f1565b67ffffffffffffffff8111156125b6576125b5614246565b5b6040519080825280602002602001820160405280156125e45781602001602082028036833780820191505090505b50905085610100013560001c8160008151811061260457612603616125565b5b6020026020010181815250507f30644e72e131a029b85045b68181585d2833e84879b9709143e1f593f0000001868061016001906126429190616154565b6040516020016126529190616252565b6040516020818303038152906040528051906020012060001c6126759190615fbc565b8160018151811061268957612688616125565b5b60200260200101818152505060005b8481101561270a57868061012001906126b19190615ffc565b828181106126c2576126c1616125565b5b9050602002013560001c828260026126da91906160f1565b815181106126eb576126ea616125565b5b602002602001018181525050808061270290616274565b915050612698565b5060005b8381101561278b57868061014001906127279190615ffc565b8281811061273857612737616125565b5b9050602002013560001c828287600261275191906160f1565b61275b91906160f1565b8151811061276c5761276b616125565b5b602002602001018181525050808061278390616274565b91505061270e565b5060006127ac83886000018036038101906127a6919061647c565b84612c20565b905061dead73ffffffffffffffffffffffffffffffffffffffff163273ffffffffffffffffffffffffffffffffffffffff16036127f1576001955050505050506127fa565b80955050505050505b919050565b603860009054906101000a900473ffffffffffffffffffffffffffffffffffffffff1673ffffffffffffffffffffffffffffffffffffffff163373ffffffffffffffffffffffffffffffffffffffff161461288f576040517f08c379a000000000000000000000000000000000000000000000000000000000815260040161288690614be8565b60405180910390fd5b600073ffffffffffffffffffffffffffffffffffffffff168173ffffffffffffffffffffffffffffffffffffffff16036128fe576040517f08c379a00000000000000000000000000000000000000000000000000000000081526004016128f5906164f6565b60405180910390fd5b80600860006101000a81548173ffffffffffffffffffffffffffffffffffffffff021916908373ffffffffffffffffffffffffffffffffffffffff16021790555050565b60336020528160005260406000206020528060005260406000206000915091509054906101000a900460ff1681565b6060600073ffffffffffffffffffffffffffffffffffffffff168373ffffffffffffffffffffffffffffffffffffffff16036129e2576040517f08c379a00000000000000000000000000000000000000000000000000000000081526004016129d990616562565b60405180910390fd5b60008373ffffffffffffffffffffffffffffffffffffffff1683604051612a0991906165c9565b600060405180830381855af49150503d8060008114612a44576040519150601f19603f3d011682016040523d82523d6000602084013e612a49565b606091505b50809350819250505080612aa457600082511115612a6957815160208301fd5b6040517f08c379a0000000000000000000000000000000000000000000000000000000008152600401612a9b9061662c565b60405180910390fd5b5092915050565b600080606060e4858590501015612af7576040517f08c379a0000000000000000000000000000000000000000000000000000000008152600401612aee90616698565b60405180910390fd5b848460449060206044612b0a91906160f1565b92612b17939291906166c2565b90612b229190616715565b60001c9250848460a490602060a4612b3a91906160f1565b92612b47939291906166c2565b90612b529190616715565b60001c915060e4858590501115612bc057848460e4908092612b76939291906166c2565b8080601f016020809104026020016040519081016040528093929190818152602001838380828437600081840152601f19601f820116905080830192505050505050509050612bd3565b6040518060200160405280600081525090505b9250925092565b612be26134a6565b81806020019051810190612bf691906168ab565b9050919050565b612c056134d2565b81806020019051810190612c199190616a47565b9050919050565b6000806040518060400160405280600081526020016000815250905060005b8351811015612d31577f30644e72e131a029b85045b68181585d2833e84879b9709143e1f593f0000001848281518110612c7c57612c7b616125565b5b602002602001015110612cc4576040517f08c379a0000000000000000000000000000000000000000000000000000000008152600401612cbb90616ae6565b60405180910390fd5b612d1b82612d168860a00151600185612cdd91906160f1565b81518110612cee57612ced616125565b5b6020026020010151878581518110612d0957612d08616125565b5b6020026020010151612d9b565b612e67565b9150600181612d2a91906160f1565b9050612c3f565b50612d5b818660a00151600081518110612d4e57612d4d616125565b5b6020026020010151612e67565b9050612d91612d6d8560000151612f65565b856020015187602001518860400151858a606001518a604001518c60800151613150565b9150509392505050565b612da3613517565b612dab613531565b836000015181600060038110612dc457612dc3616125565b5b602002018181525050836020015181600160038110612de657612de5616125565b5b6020020181815250508281600260038110612e0457612e03616125565b5b602002018181525050600060408360608460076107d05a03fa905080612e5f576040517f08c379a0000000000000000000000000000000000000000000000000000000008152600401612e5690616b78565b60405180910390fd5b505092915050565b612e6f613517565b612e77613553565b836000015181600060048110612e9057612e8f616125565b5b602002018181525050836020015181600160048110612eb257612eb1616125565b5b602002018181525050826000015181600260048110612ed457612ed3616125565b5b602002018181525050826020015181600360048110612ef657612ef5616125565b5b6020020181815250506000612f09613517565b60408160808560066107d05a03fa915081612f59576040517f08c379a0000000000000000000000000000000000000000000000000000000008152600401612f5090616be4565b60405180910390fd5b80935050505092915050565b612f6d613517565b60008260000151148015612f85575060008260200151145b15612fa8576040518060400160405280600081526020016000815250905061314b565b60007f30644e72e131a029b85045b68181585d97816a916871ca8d3c208c16d87cfd4780612fd957612fd8615f8d565b5b836000015184600001510990507f30644e72e131a029b85045b68181585d97816a916871ca8d3c208c16d87cfd478061301557613014615f8d565b5b8360000151820990507f30644e72e131a029b85045b68181585d97816a916871ca8d3c208c16d87cfd478061304d5761304c615f8d565b5b60038208905060007f30644e72e131a029b85045b68181585d97816a916871ca8d3c208c16d87cfd478061308457613083615f8d565b5b846020015185602001510990508181146130d3576040517f08c379a00000000000000000000000000000000000000000000000000000000081526004016130ca90616c50565b60405180910390fd5b6040518060400160405280856000015181526020017f30644e72e131a029b85045b68181585d97816a916871ca8d3c208c16d87cfd4786602001516131189190615fbc565b7f30644e72e131a029b85045b68181585d97816a916871ca8d3c208c16d87cfd4761314391906149bc565b815250925050505b919050565b6000806040518061030001604052808b6000015181526020018b6020015181526020018a6000015160006002811061318b5761318a616125565b5b602002015181526020018a600001516001600281106131ad576131ac616125565b5b602002015181526020018a602001516000600281106131cf576131ce616125565b5b602002015181526020018a602001516001600281106131f1576131f0616125565b5b602002015181526020018960000151815260200189602001518152602001886000015160006002811061322757613226616125565b5b60200201518152602001886000015160016002811061324957613248616125565b5b60200201518152602001886020015160006002811061326b5761326a616125565b5b60200201518152602001886020015160016002811061328d5761328c616125565b5b60200201518152602001876000015181526020018760200151815260200186600001516000600281106132c3576132c2616125565b5b6020020151815260200186600001516001600281106132e5576132e4616125565b5b60200201518152602001866020015160006002811061330757613306616125565b5b60200201518152602001866020015160016002811061332957613328616125565b5b602002015181526020018560000151815260200185602001518152602001846000015160006002811061335f5761335e616125565b5b60200201518152602001846000015160016002811061338157613380616125565b5b6020020151815260200184602001516000600281106133a3576133a2616125565b5b6020020151815260200184602001516001600281106133c5576133c4616125565b5b602002015181525090506133d7613575565b60006020826103008560086107d05a03fa90508061342a576040517f08c379a000000000000000000000000000000000000000000000000000000000815260040161342190616ce2565b60405180910390fd5b6000826000600181106134405761343f616125565b5b60200201511415935050505098975050505050505050565b6040518060c0016040528060608152602001613472613517565b815260200161347f613597565b815260200161348c613597565b8152602001613499613597565b8152602001606081525090565b6040518060400160405280600060018111156134c5576134c4614075565b5b8152602001606081525090565b60405180608001604052806000801916815260200160006effffffffffffffffffffffffffffff1681526020016135076135bd565b8152602001600080191681525090565b604051806040016040528060008152602001600081525090565b6040518060600160405280600390602082028036833780820191505090505090565b6040518060800160405280600490602082028036833780820191505090505090565b6040518060200160405280600190602082028036833780820191505090505090565b60405180604001604052806135aa6135df565b81526020016135b76135df565b81525090565b6040518060600160405280600390602082028036833780820191505090505090565b6040518060400160405280600290602082028036833780820191505090505090565b60006effffffffffffffffffffffffffffff82169050919050565b61362581613601565b82525050565b6000602082019050613640600083018461361c565b92915050565b6000604051905090565b600080fd5b600080fd5b600080fd5b600080fd5b600080fd5b60008083601f84011261367f5761367e61365a565b5b8235905067ffffffffffffffff81111561369c5761369b61365f565b5b602083019150836101208202830111156136b9576136b8613664565b5b9250929050565b600080602083850312156136d7576136d6613650565b5b600083013567ffffffffffffffff8111156136f5576136f4613655565b5b61370185828601613669565b92509250509250929050565b600073ffffffffffffffffffffffffffffffffffffffff82169050919050565b60006137388261370d565b9050919050565b6137488161372d565b82525050565b6000602082019050613763600083018461373f565b92915050565b6000819050919050565b61377c81613769565b82525050565b60006020820190506137976000830184613773565b92915050565b6137a681613769565b81146137b157600080fd5b50565b6000813590506137c38161379d565b92915050565b6000602082840312156137df576137de613650565b5b60006137ed848285016137b4565b91505092915050565b600060408201905061380b6000830185613773565b6138186020830184613773565b9392505050565b600063ffffffff82169050919050565b6138388161381f565b811461384357600080fd5b50565b6000813590506138558161382f565b92915050565b6000819050919050565b61386e8161385b565b811461387957600080fd5b50565b60008135905061388b81613865565b92915050565b60008083601f8401126138a7576138a661365a565b5b8235905067ffffffffffffffff8111156138c4576138c361365f565b5b6020830191508360018202830111156138e0576138df613664565b5b9250929050565b60008060008060006080868803121561390357613902613650565b5b600061391188828901613846565b95505060206139228882890161387c565b945050604061393388828901613846565b935050606086013567ffffffffffffffff81111561395457613953613655565b5b61396088828901613891565b92509250509295509295909350565b60008115159050919050565b6139848161396f565b82525050565b600060208201905061399f600083018461397b565b92915050565b6139ae8161385b565b82525050565b60006020820190506139c960008301846139a5565b92915050565b600080fd5b600061020082840312156139eb576139ea6139cf565b5b81905092915050565b600080600060608486031215613a0d57613a0c613650565b5b6000613a1b868287016137b4565b9350506020613a2c868287016137b4565b925050604084013567ffffffffffffffff811115613a4d57613a4c613655565b5b613a59868287016139d4565b9150509250925092565b600060208284031215613a7957613a78613650565b5b6000613a8784828501613846565b91505092915050565b60008060408385031215613aa757613aa6613650565b5b6000613ab585828601613846565b9250506020613ac68582860161387c565b9150509250929050565b613ad981613601565b8114613ae457600080fd5b50565b600081359050613af681613ad0565b92915050565b600060208284031215613b1257613b11613650565b5b6000613b2084828501613ae7565b91505092915050565b613b328161372d565b8114613b3d57600080fd5b50565b600081359050613b4f81613b29565b92915050565b60008060008060008060008060006101208a8c031215613b7857613b77613650565b5b6000613b868c828d01613b40565b9950506020613b978c828d01613b40565b9850506040613ba88c828d01613b40565b9750506060613bb98c828d01613b40565b9650506080613bca8c828d01613b40565b95505060a0613bdb8c828d01613b40565b94505060c0613bec8c828d01613b40565b93505060e0613bfd8c828d01613846565b925050610100613c0f8c828d01613b40565b9150509295985092959850929598565b613c288161396f565b8114613c3357600080fd5b50565b600081359050613c4581613c1f565b92915050565b600060208284031215613c6157613c60613650565b5b6000613c6f84828501613c36565b91505092915050565b6000613c838261370d565b9050919050565b613c9381613c78565b82525050565b6000602082019050613cae6000830184613c8a565b92915050565b60008060408385031215613ccb57613cca613650565b5b6000613cd9858286016137b4565b9250506020613cea858286016137b4565b9150509250929050565b600081519050919050565b600082825260208201905092915050565b60005b83811015613d2e578082015181840152602081019050613d13565b60008484015250505050565b6000601f19601f8301169050919050565b6000613d5682613cf4565b613d608185613cff565b9350613d70818560208601613d10565b613d7981613d3a565b840191505092915050565b613d8d81613769565b82525050565b604082016000820151613da96000850182613d84565b506020820151613dbc6020850182613d84565b50505050565b600060029050919050565b600081905092915050565b6000819050919050565b6000613dee8383613d84565b60208301905092915050565b6000602082019050919050565b613e1081613dc2565b613e1a8184613dcd565b9250613e2582613dd8565b8060005b83811015613e56578151613e3d8782613de2565b9650613e4883613dfa565b925050600181019050613e29565b505050505050565b608082016000820151613e746000850182613e07565b506020820151613e876040850182613e07565b50505050565b600081519050919050565b600082825260208201905092915050565b6000819050602082019050919050565b6000613ec58383613d93565b60408301905092915050565b6000602082019050919050565b6000613ee982613e8d565b613ef38185613e98565b9350613efe83613ea9565b8060005b83811015613f2f578151613f168882613eb9565b9750613f2183613ed1565b925050600181019050613f02565b5085935050505092915050565b6000610200830160008301518482036000860152613f5a8282613d4b565b9150506020830151613f6f6020860182613d93565b506040830151613f826060860182613e5e565b506060830151613f9560e0860182613e5e565b506080830151613fa9610160860182613e5e565b5060a08301518482036101e0860152613fc28282613ede565b9150508091505092915050565b60006020820190508181036000830152613fe98184613f3c565b905092915050565b60006020828403121561400757614006613650565b5b600061401584828501613b40565b91505092915050565b6140278161381f565b82525050565b6000602082019050614042600083018461401e565b92915050565b60006020828403121561405e5761405d613650565b5b600061406c8482850161387c565b91505092915050565b7f4e487b7100000000000000000000000000000000000000000000000000000000600052602160045260246000fd5b600381106140b5576140b4614075565b5b50565b60008190506140c6826140a4565b919050565b60006140d6826140b8565b9050919050565b6140e6816140cb565b82525050565b600060608201905061410160008301866140dd565b61410e602083018561373f565b61411b6040830184613773565b949350505050565b6000806040838503121561413a57614139613650565b5b600061414885828601613b40565b925050602061415985828601613c36565b9150509250929050565b6000806040838503121561417a57614179613650565b5b6000614188858286016137b4565b92505060206141998582860161387c565b9150509250929050565b60008083601f8401126141b9576141b861365a565b5b8235905067ffffffffffffffff8111156141d6576141d561365f565b5b6020830191508360208202830111156141f2576141f1613664565b5b9250929050565b600080602083850312156142105761420f613650565b5b600083013567ffffffffffffffff81111561422e5761422d613655565b5b61423a858286016141a3565b92509250509250929050565b7f4e487b7100000000000000000000000000000000000000000000000000000000600052604160045260246000fd5b61427e82613d3a565b810181811067ffffffffffffffff8211171561429d5761429c614246565b5b80604052505050565b60006142b0613646565b90506142bc8282614275565b919050565b600067ffffffffffffffff8211156142dc576142db614246565b5b602082029050602081019050919050565b60006143006142fb846142c1565b6142a6565b9050808382526020820190506020840283018581111561432357614322613664565b5b835b8181101561434c5780614338888261387c565b845260208401935050602081019050614325565b5050509392505050565b600082601f83011261436b5761436a61365a565b5b813561437b8482602086016142ed565b91505092915050565b60006020828403121561439a57614399613650565b5b600082013567ffffffffffffffff8111156143b8576143b7613655565b5b6143c484828501614356565b91505092915050565b600061022082840312156143e4576143e36139cf565b5b81905092915050565b600080600080600060a0868803121561440957614408613650565b5b600086013567ffffffffffffffff81111561442757614426613655565b5b614433888289016143cd565b955050602061444488828901613846565b945050604061445588828901613b40565b93505060606144668882890161387c565b9250506080614477888289016137b4565b9150509295509295909350565b600067ffffffffffffffff82169050919050565b6144a181614484565b82525050565b60006020820190506144bc6000830184614498565b92915050565b6000602082840312156144d8576144d7613650565b5b600082013567ffffffffffffffff8111156144f6576144f5613655565b5b614502848285016143cd565b91505092915050565b61451481613c78565b811461451f57600080fd5b50565b6000813590506145318161450b565b92915050565b60006020828403121561454d5761454c613650565b5b600061455b84828501614522565b91505092915050565b600082825260208201905092915050565b6000819050919050565b600082905092915050565b6000614599602084018461387c565b905092915050565b6145aa8161385b565b82525050565b600082905092915050565b600381106145c857600080fd5b50565b6000813590506145da816145bb565b92915050565b60006145ef60208401846145cb565b905092915050565b614600816140cb565b82525050565b60006146156020840184613b40565b905092915050565b6146268161372d565b82525050565b600061463b60208401846137b4565b905092915050565b6060820161465460008301836145e0565b61466160008501826145f7565b5061466f6020830183614606565b61467c602085018261461d565b5061468a604083018361462c565b6146976040850182613d84565b50505050565b60006146ac6020840184613ae7565b905092915050565b6146bd81613601565b82525050565b60a082016146d4600083018361458a565b6146e160008501826145a1565b506146ef60208301836145b0565b6146fc6020850182614643565b5061470a608083018361469d565b61471760808501826146b4565b50505050565b600082905092915050565b600082905092915050565b82818337505050565b61474860608383614733565b5050565b6080820161475d6000830183614728565b61476a600085018261473c565b50614778606083018361458a565b61478560608501826145a1565b50505050565b610120820161479d600083018361457f565b6147aa60008501826146c3565b506147b860a083018361471d565b6147c560a085018261474c565b50505050565b60006147d7838361478b565b6101208301905092915050565b600082905092915050565b600061012082019050919050565b60006148098385614564565b935061481482614575565b8060005b8581101561484d5761482a82846147e4565b61483488826147cb565b975061483f836147ef565b925050600181019050614818565b5085925050509392505050565b600060208201905081810360008301526148758184866147fd565b90509392505050565b600082825260208201905092915050565b7f50726976616379506f6f6c3a204f6e6c7920546f6b656e4d657373656e676572600082015250565b60006148c560208361487e565b91506148d08261488f565b602082019050919050565b600060208201905081810360008301526148f4816148b8565b9050919050565b7f50726976616379506f6f6c3a20496e73756666696369656e742066696e616c6960008201527f7479000000000000000000000000000000000000000000000000000000000000602082015250565b600061495760228361487e565b9150614962826148fb565b604082019050919050565b600060208201905081810360008301526149868161494a565b9050919050565b7f4e487b7100000000000000000000000000000000000000000000000000000000600052601160045260246000fd5b60006149c782613769565b91506149d283613769565b92508282039050818111156149ea576149e961498d565b5b92915050565b600060039050919050565b600081905092915050565b6000819050919050565b6000614a1c83836145a1565b60208301905092915050565b6000602082019050919050565b614a3e816149f0565b614a4881846149fb565b9250614a5382614a06565b8060005b83811015614a84578151614a6b8782614a10565b9650614a7683614a28565b925050600181019050614a57565b505050505050565b60c082016000820151614aa260008501826145a1565b506020820151614ab560208501826146b4565b506040820151614ac86040850182614a35565b506060820151614adb60a08501826145a1565b50505050565b600060e082019050614af66000830185613773565b614b036020830184614a8c565b9392505050565b7f50726976616379506f6f6c3a20496e76616c6964206d6573736167652074797060008201527f6500000000000000000000000000000000000000000000000000000000000000602082015250565b6000614b6660218361487e565b9150614b7182614b0a565b604082019050919050565b60006020820190508181036000830152614b9581614b59565b9050919050565b7f50726976616379506f6f6c3a204f6e6c79206f776e6572000000000000000000600082015250565b6000614bd260178361487e565b9150614bdd82614b9c565b602082019050919050565b60006020820190508181036000830152614c0181614bc5565b9050919050565b600080fd5b600080fd5b600080fd5b60008083356001602003843603038112614c3457614c33614c12565b5b83810192508235915060208301925067ffffffffffffffff821115614c5c57614c5b614c08565b5b600182023603831315614c7257614c71614c0d565b5b509250929050565b82818337600083830152505050565b6000614c958385613cff565b9350614ca2838584614c7a565b614cab83613d3a565b840190509392505050565b600082905092915050565b60408201614cd2600083018361462c565b614cdf6000850182613d84565b50614ced602083018361462c565b614cfa6020850182613d84565b50505050565b600082905092915050565b600082905092915050565b614d2260408383614733565b5050565b60808201614d376000830183614d0b565b614d446000850182614d16565b50614d526040830183614d0b565b614d5f6040850182614d16565b50505050565b60008083356001602003843603038112614d8257614d81614c12565b5b83810192508235915060208301925067ffffffffffffffff821115614daa57614da9614c08565b5b604082023603831315614dc057614dbf614c0d565b5b509250929050565b6000819050919050565b6000614dde8383614cc1565b60408301905092915050565b6000604082019050919050565b6000614e038385613e98565b9350614e0e82614dc8565b8060005b85811015614e4757614e248284614cb6565b614e2e8882614dd2565b9750614e3983614dea565b925050600181019050614e12565b5085925050509392505050565b60006102008301614e686000840184614c17565b8583036000870152614e7b838284614c89565b92505050614e8c6020840184614cb6565b614e996020860182614cc1565b50614ea76060840184614d00565b614eb46060860182614d26565b50614ec260e0840184614d00565b614ecf60e0860182614d26565b50614ede610160840184614d00565b614eec610160860182614d26565b50614efb6101e0840184614d65565b8583036101e0870152614f0f838284614df7565b925050508091505092915050565b6000606082019050614f326000830186613773565b614f3f6020830185613773565b8181036040830152614f518184614e54565b9050949350505050565b7f50726976616379506f6f6c3a2046656520746f6f206869676800000000000000600082015250565b6000614f9160198361487e565b9150614f9c82614f5b565b602082019050919050565b60006020820190508181036000830152614fc081614f84565b9050919050565b7f50726976616379506f6f6c3a20416c726561647920696e697469616c697a6564600082015250565b6000614ffd60208361487e565b915061500882614fc7565b602082019050919050565b6000602082019050818103600083015261502c81614ff0565b9050919050565b7f50726976616379506f6f6c3a207a65726f20736869656c644d6f64756c650000600082015250565b6000615069601e8361487e565b915061507482615033565b602082019050919050565b600060208201905081810360008301526150988161505c565b9050919050565b7f50726976616379506f6f6c3a207a65726f207472616e736163744d6f64756c65600082015250565b60006150d560208361487e565b91506150e08261509f565b602082019050919050565b60006020820190508181036000830152615104816150c8565b9050919050565b7f50726976616379506f6f6c3a207a65726f206d65726b6c654d6f64756c650000600082015250565b6000615141601e8361487e565b915061514c8261510b565b602082019050919050565b6000602082019050818103600083015261517081615134565b9050919050565b7f50726976616379506f6f6c3a207a65726f2076657269666965724d6f64756c65600082015250565b60006151ad60208361487e565b91506151b882615177565b602082019050919050565b600060208201905081810360008301526151dc816151a0565b9050919050565b7f50726976616379506f6f6c3a207a65726f20746f6b656e4d657373656e676572600082015250565b600061521960208361487e565b9150615224826151e3565b602082019050919050565b600060208201905081810360008301526152488161520c565b9050919050565b7f50726976616379506f6f6c3a207a65726f206d6573736167655472616e736d6960008201527f7474657200000000000000000000000000000000000000000000000000000000602082015250565b60006152ab60248361487e565b91506152b68261524f565b604082019050919050565b600060208201905081810360008301526152da8161529e565b9050919050565b7f50726976616379506f6f6c3a207a65726f207573646300000000000000000000600082015250565b600061531760168361487e565b9150615322826152e1565b602082019050919050565b600060208201905081810360008301526153468161530a565b9050919050565b7f50726976616379506f6f6c3a207a65726f206f776e6572000000000000000000600082015250565b600061538360178361487e565b915061538e8261534d565b602082019050919050565b600060208201905081810360008301526153b281615376565b9050919050565b7f4e487b7100000000000000000000000000000000000000000000000000000000600052602260045260246000fd5b6000600282049050600182168061540057607f821691505b602082108103615413576154126153b9565b5b50919050565b7f50726976616379506f6f6c3a20466173742066696e616c697479206e6f74207360008201527f7570706f72746564000000000000000000000000000000000000000000000000602082015250565b600061547560288361487e565b915061548082615419565b604082019050919050565b600060208201905081810360008301526154a481615468565b9050919050565b600082825260208201905092915050565b6000819050919050565b600082905092915050565b61010082016154e36000830183614cb6565b6154f06000850182614cc1565b506154fe6040830183614d00565b61550b6040850182614d26565b5061551960c0830183614cb6565b61552660c0850182614cc1565b50505050565b6000808335600160200384360303811261554957615548614c12565b5b83810192508235915060208301925067ffffffffffffffff82111561557157615570614c08565b5b60208202360383131561558757615586614c0d565b5b509250929050565b600082825260208201905092915050565b600080fd5b60006155b1838561558f565b93507f07ffffffffffffffffffffffffffffffffffffffffffffffffffffffffffffff8311156155e4576155e36155a0565b5b6020830292506155f5838584614733565b82840190509392505050565b60008235600160e00383360303811261561d5761561c614c12565b5b82810191505092915050565b600061ffff82169050919050565b61564081615629565b811461564b57600080fd5b50565b60008135905061565d81615637565b92915050565b6000615672602084018461564e565b905092915050565b61568381615629565b82525050565b600068ffffffffffffffffff82169050919050565b6156a781615689565b81146156b257600080fd5b50565b6000813590506156c48161569e565b92915050565b60006156d960208401846156b5565b905092915050565b6156ea81615689565b82525050565b600381106156fd57600080fd5b50565b60008135905061570f816156f0565b92915050565b60006157246020840184615700565b905092915050565b6003811061573d5761573c614075565b5b50565b600081905061574e8261572c565b919050565b600061575e82615740565b9050919050565b61576e81615753565b82525050565b61577d81614484565b811461578857600080fd5b50565b60008135905061579a81615774565b92915050565b60006157af602084018461578b565b905092915050565b6157c081614484565b82525050565b600080833560016020038436030381126157e3576157e2614c12565b5b83810192508235915060208301925067ffffffffffffffff82111561580b5761580a614c08565b5b60208202360383131561582157615820614c0d565b5b509250929050565b600082825260208201905092915050565b6000819050919050565b600082905092915050565b61585b60808383614733565b5050565b6000808335600160200384360303811261587c5761587b614c12565b5b83810192508235915060208301925067ffffffffffffffff8211156158a4576158a3614c08565b5b6001820236038313156158ba576158b9614c0d565b5b509250929050565b600082825260208201905092915050565b60006158df83856158c2565b93506158ec838584614c7a565b6158f583613d3a565b840190509392505050565b600061010083016159146000840184615844565b615921600086018261584f565b5061592f608084018461458a565b61593c60808601826145a1565b5061594a60a084018461458a565b61595760a08601826145a1565b5061596560c084018461585f565b85830360c08701526159788382846158d3565b9250505061598960e084018461585f565b85830360e087015261599c8382846158d3565b925050508091505092915050565b60006159b68383615900565b905092915050565b600082356001610100038336030381126159db576159da614c12565b5b82810191505092915050565b6000602082019050919050565b6000615a008385615829565b935083602084028501615a128461583a565b8060005b87811015615a56578484038952615a2d82846159be565b615a3785826159aa565b9450615a42836159e7565b925060208a01995050600181019050615a16565b50829750879450505050509392505050565b600060e08301615a7b6000840184615663565b615a88600086018261567a565b50615a9660208401846156ca565b615aa360208601826156e1565b50615ab16040840184615715565b615abe6040860182615765565b50615acc60608401846157a0565b615ad960608601826157b7565b50615ae76080840184614606565b615af4608086018261461d565b50615b0260a084018461458a565b615b0f60a08601826145a1565b50615b1d60c08401846157c6565b85830360c0870152615b308382846159f4565b925050508091505092915050565b60006102208301615b5260008401846154c6565b615b5f60008601826154d1565b50615b6e61010084018461458a565b615b7c6101008601826145a1565b50615b8b61012084018461552c565b858303610120870152615b9f8382846155a5565b92505050615bb161014084018461552c565b858303610140870152615bc58382846155a5565b92505050615bd7610160840184615601565b848203610160860152615bea8282615a68565b915050615bfb61018084018461457f565b615c096101808601826146c3565b508091505092915050565b6000615c208383615b3e565b905092915050565b60008235600161022003833603038112615c4557615c44614c12565b5b82810191505092915050565b6000602082019050919050565b6000615c6a83856154ab565b935083602084028501615c7c846154bc565b8060005b87811015615cc0578484038952615c978284615c28565b615ca18582615c14565b9450615cac83615c51565b925060208a01995050600181019050615c80565b50829750879450505050509392505050565b60006020820190508181036000830152615ced818486615c5e565b90509392505050565b7f4f6e6c792073656c660000000000000000000000000000000000000000000000600082015250565b6000615d2c60098361487e565b9150615d3782615cf6565b602082019050919050565b60006020820190508181036000830152615d5b81615d1f565b9050919050565b600081519050919050565b600082825260208201905092915050565b6000819050602082019050919050565b6000602082019050919050565b6000615da682615d62565b615db08185615d6d565b9350615dbb83615d7e565b8060005b83811015615dec578151615dd38882614a10565b9750615dde83615d8e565b925050600181019050615dbf565b5085935050505092915050565b60006020820190508181036000830152615e138184615d9b565b905092915050565b60006102208301615e2f60008401846154c6565b615e3c60008601826154d1565b50615e4b61010084018461458a565b615e596101008601826145a1565b50615e6861012084018461552c565b858303610120870152615e7c8382846155a5565b92505050615e8e61014084018461552c565b858303610140870152615ea28382846155a5565b92505050615eb4610160840184615601565b848203610160860152615ec78282615a68565b915050615ed861018084018461457f565b615ee66101808601826146c3565b508091505092915050565b600060a0820190508181036000830152615f0b8188615e1b565b9050615f1a602083018761401e565b615f27604083018661373f565b615f3460608301856139a5565b615f416080830184613773565b9695505050505050565b600081519050615f5a81615774565b92915050565b600060208284031215615f7657615f75613650565b5b6000615f8484828501615f4b565b91505092915050565b7f4e487b7100000000000000000000000000000000000000000000000000000000600052601260045260246000fd5b6000615fc782613769565b9150615fd283613769565b925082615fe257615fe1615f8d565b5b828206905092915050565b600080fd5b600080fd5b600080fd5b6000808335600160200384360303811261601957616018615fed565b5b80840192508235915067ffffffffffffffff82111561603b5761603a615ff2565b5b60208301925060208202360383131561605757616056615ff7565b5b509250929050565b7f50726976616379506f6f6c3a20566572696669636174696f6e206b6579206e6f60008201527f7420736574000000000000000000000000000000000000000000000000000000602082015250565b60006160bb60258361487e565b91506160c68261605f565b604082019050919050565b600060208201905081810360008301526160ea816160ae565b9050919050565b60006160fc82613769565b915061610783613769565b925082820190508082111561611f5761611e61498d565b5b92915050565b7f4e487b7100000000000000000000000000000000000000000000000000000000600052603260045260246000fd5b60008235600160e0038336030381126161705761616f615fed565b5b80830191505092915050565b600060e0830161618f6000840184615663565b61619c600086018261567a565b506161aa60208401846156ca565b6161b760208601826156e1565b506161c56040840184615715565b6161d26040860182615765565b506161e060608401846157a0565b6161ed60608601826157b7565b506161fb6080840184614606565b616208608086018261461d565b5061621660a084018461458a565b61622360a08601826145a1565b5061623160c08401846157c6565b85830360c08701526162448382846159f4565b925050508091505092915050565b6000602082019050818103600083015261626c818461617c565b905092915050565b600061627f82613769565b91507fffffffffffffffffffffffffffffffffffffffffffffffffffffffffffffffff82036162b1576162b061498d565b5b600182019050919050565b600080fd5b600080fd5b6000604082840312156162dc576162db6162bc565b5b6162e660406142a6565b905060006162f6848285016137b4565b600083015250602061630a848285016137b4565b60208301525092915050565b600067ffffffffffffffff82111561633157616330614246565b5b602082029050919050565b600061634f61634a84616316565b6142a6565b9050806020840283018581111561636957616368613664565b5b835b81811015616392578061637e88826137b4565b84526020840193505060208101905061636b565b5050509392505050565b600082601f8301126163b1576163b061365a565b5b60026163be84828561633c565b91505092915050565b6000608082840312156163dd576163dc6162bc565b5b6163e760406142a6565b905060006163f78482850161639c565b600083015250604061640b8482850161639c565b60208301525092915050565b6000610100828403121561642e5761642d6162bc565b5b61643860606142a6565b90506000616448848285016162c6565b600083015250604061645c848285016163c7565b60208301525060c0616470848285016162c6565b60408301525092915050565b6000610100828403121561649357616492613650565b5b60006164a184828501616417565b91505092915050565b7f50726976616379506f6f6c3a207a65726f207472656173757279000000000000600082015250565b60006164e0601a8361487e565b91506164eb826164aa565b602082019050919050565b6000602082019050818103600083015261650f816164d3565b9050919050565b7f50726976616379506f6f6c3a204d6f64756c65206e6f74207365740000000000600082015250565b600061654c601b8361487e565b915061655782616516565b602082019050919050565b6000602082019050818103600083015261657b8161653f565b9050919050565b600081519050919050565b600081905092915050565b60006165a382616582565b6165ad818561658d565b93506165bd818560208601613d10565b80840191505092915050565b60006165d58284616598565b915081905092915050565b7f50726976616379506f6f6c3a2044656c656761746563616c6c206661696c6564600082015250565b600061661660208361487e565b9150616621826165e0565b602082019050919050565b6000602082019050818103600083015261664581616609565b9050919050565b7f4275726e4d65737361676556323a206d65737361676520746f6f2073686f7274600082015250565b600061668260208361487e565b915061668d8261664c565b602082019050919050565b600060208201905081810360008301526166b181616675565b9050919050565b600080fd5b600080fd5b600080858511156166d6576166d56166b8565b5b838611156166e7576166e66166bd565b5b6001850283019150848603905094509492505050565b600082905092915050565b600082821b905092915050565b600061672183836166fd565b8261672c813561385b565b9250602082101561676c576167677fffffffffffffffffffffffffffffffffffffffffffffffffffffffffffffffff83602003600802616708565b831692505b505092915050565b6002811061678157600080fd5b50565b60008151905061679381616774565b92915050565b600080fd5b600067ffffffffffffffff8211156167b9576167b8614246565b5b6167c282613d3a565b9050602081019050919050565b60006167e26167dd8461679e565b6142a6565b9050828152602081018484840111156167fe576167fd616799565b5b616809848285613d10565b509392505050565b600082601f8301126168265761682561365a565b5b81516168368482602086016167cf565b91505092915050565b600060408284031215616855576168546162bc565b5b61685f60406142a6565b9050600061686f84828501616784565b600083015250602082015167ffffffffffffffff811115616893576168926162c1565b5b61689f84828501616811565b60208301525092915050565b6000602082840312156168c1576168c0613650565b5b600082015167ffffffffffffffff8111156168df576168de613655565b5b6168eb8482850161683f565b91505092915050565b60008151905061690381613865565b92915050565b60008151905061691881613ad0565b92915050565b600067ffffffffffffffff82111561693957616938614246565b5b602082029050919050565b60006169576169528461691e565b6142a6565b9050806020840283018581111561697157616970613664565b5b835b8181101561699a578061698688826168f4565b845260208401935050602081019050616973565b5050509392505050565b600082601f8301126169b9576169b861365a565b5b60036169c6848285616944565b91505092915050565b600060c082840312156169e5576169e46162bc565b5b6169ef60806142a6565b905060006169ff848285016168f4565b6000830152506020616a1384828501616909565b6020830152506040616a27848285016169a4565b60408301525060a0616a3b848285016168f4565b60608301525092915050565b600060c08284031215616a5d57616a5c613650565b5b6000616a6b848285016169cf565b91505092915050565b7f536e61726b3a20496e707574203e20534e41524b5f5343414c41525f4649454c60008201527f4400000000000000000000000000000000000000000000000000000000000000602082015250565b6000616ad060218361487e565b9150616adb82616a74565b604082019050919050565b60006020820190508181036000830152616aff81616ac3565b9050919050565b7f536e61726b3a205363616c6172204d756c7469706c69636174696f6e2046616960008201527f6c65640000000000000000000000000000000000000000000000000000000000602082015250565b6000616b6260238361487e565b9150616b6d82616b06565b604082019050919050565b60006020820190508181036000830152616b9181616b55565b9050919050565b7f536e61726b3a20416464204661696c6564000000000000000000000000000000600082015250565b6000616bce60118361487e565b9150616bd982616b98565b602082019050919050565b60006020820190508181036000830152616bfd81616bc1565b9050919050565b7f536e61726b3a20496e76616c6964206e65676174696f6e000000000000000000600082015250565b6000616c3a60178361487e565b9150616c4582616c04565b602082019050919050565b60006020820190508181036000830152616c6981616c2d565b9050919050565b7f536e61726b3a2050616972696e6720566572696669636174696f6e204661696c60008201527f6564000000000000000000000000000000000000000000000000000000000000602082015250565b6000616ccc60228361487e565b9150616cd782616c70565b604082019050919050565b60006020820190508181036000830152616cfb81616cbf565b905091905056fea2646970667358221220a2e2efab8b0d45256126a5b075b2a7fa68e1ef1f8e23fe5f1ceaec4820ffcaed64736f6c63430008110033","linkReferences":{}},"methodIdentifiers":{"ZERO_VALUE()":"ec732959","atomicCrossChainUnshield((((uint256,uint256),(uint256[2],uint256[2]),(uint256,uint256)),bytes32,bytes32[],bytes32[],(uint16,uint72,uint8,uint64,address,bytes32,(bytes32[4],bytes32,bytes32,bytes,bytes)[]),(bytes32,(uint8,address,uint256),uint120)),uint32,address,bytes32,uint256)":"e484d408","getInsertionTreeNumberAndStartingIndex(uint256)":"0c9c0c8d","getVerificationKey(uint256,uint256)":"7b12ae83","handleReceiveFinalizedMessage(uint32,bytes32,uint32,bytes)":"11cffb67","handleReceiveUnfinalizedMessage(uint32,bytes32,uint32,bytes)":"7c92f219","initialize(address,address,address,address,address,address,address,uint32,address)":"50d02937","initialized()":"158ef93e","insertLeaves(bytes32[])":"dc52bf9f","lastEventBlock()":"cd3efe06","localDomain()":"8d3638f4","merkleModule()":"90de3f6e","merkleRoot()":"2eb4a7ab","messageTransmitter()":"7b04c181","nextLeafIndex()":"0be4f422","nftFee()":"9071adc0","nullifiers(uint256,bytes32)":"f19ea903","owner()":"8da5cb5b","privilegedShieldCallers(address)":"b069b70f","remotePools(uint32)":"30ed93c3","rootHistory(uint256,bytes32)":"c718dbda","setPrivilegedShieldCaller(address,bool)":"c66d0fb9","setRemotePool(uint32,bytes32)":"37bc0324","setShieldFee(uint120)":"47338389","setTestingMode(bool)":"596d7a68","setTreasury(address)":"f0f44260","setUnshieldFee(uint120)":"c253c4aa","setVerificationKey(uint256,uint256,(string,(uint256,uint256),(uint256[2],uint256[2]),(uint256[2],uint256[2]),(uint256[2],uint256[2]),(uint256,uint256)[]))":"2ec0f359","shield(((bytes32,(uint8,address,uint256),uint120),(bytes32[3],bytes32))[])":"044a40c3","shieldFee()":"01c37790","shieldModule()":"35db307c","snarkSafetyVector(uint256)":"129458f4","testingMode()":"c8f35b5d","tokenBlocklist(address)":"815b534f","tokenIDMapping(bytes32)":"b8ceaef2","tokenMessenger()":"46117830","transact((((uint256,uint256),(uint256[2],uint256[2]),(uint256,uint256)),bytes32,bytes32[],bytes32[],(uint16,uint72,uint8,uint64,address,bytes32,(bytes32[4],bytes32,bytes32,bytes,bytes)[]),(bytes32,(uint8,address,uint256),uint120))[])":"d8ae136a","transactModule()":"048e0990","treasury()":"61d027b3","treeNumber()":"66503315","unshieldFee()":"053ed12a","usdc()":"3e413bee","verifierModule()":"41506fc1","verify((((uint256,uint256),(uint256[2],uint256[2]),(uint256,uint256)),bytes32,bytes32[],bytes32[],(uint16,uint72,uint8,uint64,address,bytes32,(bytes32[4],bytes32,bytes32,bytes,bytes)[]),(bytes32,(uint8,address,uint256),uint120)))":"ee990783","zeros(uint256)":"e8295588"},"id":13}