{"abi":[{"type":"constructor","inputs":[{"name":"_usdc","type":"address","internalType":"address"},{"name":"_vault","type":"address","internalType":"address"}],"stateMutability":"nonpayable"},{"type":"function","name":"lendAndShield","inputs":[{"name":"_transaction","type":"tuple","internalType":"struct Transaction","components":[{"name":"proof","type":"tuple","internalType":"struct SnarkProof","components":[{"name":"a","type":"tuple","internalType":"struct G1Point","components":[{"name":"x","type":"uint256","internalType":"uint256"},{"name":"y","type":"uint256","internalType":"uint256"}]},{"name":"b","type":"tuple","internalType":"struct G2Point","components":[{"name":"x","type":"uint256[2]","internalType":"uint256[2]"},{"name":"y","type":"uint256[2]","internalType":"uint256[2]"}]},{"name":"c","type":"tuple","internalType":"struct G1Point","components":[{"name":"x","type":"uint256","internalType":"uint256"},{"name":"y","type":"uint256","internalType":"uint256"}]}]},{"name":"merkleRoot","type":"bytes32","internalType":"bytes32"},{"name":"nullifiers","type":"bytes32[]","internalType":"bytes32[]"},{"name":"commitments","type":"bytes32[]","internalType":"bytes32[]"},{"name":"boundParams","type":"tuple","internalType":"struct BoundParams","components":[{"name":"treeNumber","type":"uint16","internalType":"uint16"},{"name":"minGasPrice","type":"uint72","internalType":"uint72"},{"name":"unshield","type":"uint8","internalType":"enum UnshieldType"},{"name":"chainID","type":"uint64","internalType":"uint64"},{"name":"adaptContract","type":"address","internalType":"address"},{"name":"adaptParams","type":"bytes32","internalType":"bytes32"},{"name":"commitmentCiphertext","type":"tuple[]","internalType":"struct CommitmentCiphertext[]","components":[{"name":"ciphertext","type":"bytes32[4]","internalType":"bytes32[4]"},{"name":"blindedSenderViewingKey","type":"bytes32","internalType":"bytes32"},{"name":"blindedReceiverViewingKey","type":"bytes32","internalType":"bytes32"},{"name":"annotationData","type":"bytes","internalType":"bytes"},{"name":"memo","type":"bytes","internalType":"bytes"}]}]},{"name":"unshieldPreimage","type":"tuple","internalType":"struct CommitmentPreimage","components":[{"name":"npk","type":"bytes32","internalType":"bytes32"},{"name":"token","type":"tuple","internalType":"struct TokenData","components":[{"name":"tokenType","type":"uint8","internalType":"enum TokenType"},{"name":"tokenAddress","type":"address","internalType":"address"},{"name":"tokenSubID","type":"uint256","internalType":"uint256"}]},{"name":"value","type":"uint120","internalType":"uint120"}]}]},{"name":"_npk","type":"bytes32","internalType":"bytes32"},{"name":"_shieldCiphertext","type":"tuple","internalType":"struct ShieldCiphertext","components":[{"name":"encryptedBundle","type":"bytes32[3]","internalType":"bytes32[3]"},{"name":"shieldKey","type":"bytes32","internalType":"bytes32"}]}],"outputs":[{"name":"shares","type":"uint256","internalType":"uint256"}],"stateMutability":"nonpayable"},{"type":"function","name":"owner","inputs":[],"outputs":[{"name":"","type":"address","internalType":"address"}],"stateMutability":"view"},{"type":"function","name":"previewLend","inputs":[{"name":"amount","type":"uint256","internalType":"uint256"}],"outputs":[{"name":"","type":"uint256","internalType":"uint256"}],"stateMutability":"view"},{"type":"function","name":"previewRedeem","inputs":[{"name":"shares","type":"uint256","internalType":"uint256"}],"outputs":[{"name":"","type":"uint256","internalType":"uint256"}],"stateMutability":"view"},{"type":"function","name":"privacyPool","inputs":[],"outputs":[{"name":"","type":"address","internalType":"address"}],"stateMutability":"view"},{"type":"function","name":"redeemAndShield","inputs":[{"name":"_transaction","type":"tuple","internalType":"struct Transaction","components":[{"name":"proof","type":"tuple","internalType":"struct SnarkProof","components":[{"name":"a","type":"tuple","internalType":"struct G1Point","components":[{"name":"x","type":"uint256","internalType":"uint256"},{"name":"y","type":"uint256","internalType":"uint256"}]},{"name":"b","type":"tuple","internalType":"struct G2Point","components":[{"name":"x","type":"uint256[2]","internalType":"uint256[2]"},{"name":"y","type":"uint256[2]","internalType":"uint256[2]"}]},{"name":"c","type":"tuple","internalType":"struct G1Point","components":[{"name":"x","type":"uint256","internalType":"uint256"},{"name":"y","type":"uint256","internalType":"uint256"}]}]},{"name":"merkleRoot","type":"bytes32","internalType":"bytes32"},{"name":"nullifiers","type":"bytes32[]","internalType":"bytes32[]"},{"name":"commitments","type":"bytes32[]","internalType":"bytes32[]"},{"name":"boundParams","type":"tuple","internalType":"struct BoundParams","components":[{"name":"treeNumber","type":"uint16","internalType":"uint16"},{"name":"minGasPrice","type":"uint72","internalType":"uint72"},{"name":"unshield","type":"uint8","internalType":"enum UnshieldType"},{"name":"chainID","type":"uint64","internalType":"uint64"},{"name":"adaptContract","type":"address","internalType":"address"},{"name":"adaptParams","type":"bytes32","internalType":"bytes32"},{"name":"commitmentCiphertext","type":"tuple[]","internalType":"struct CommitmentCiphertext[]","components":[{"name":"ciphertext","type":"bytes32[4]","internalType":"bytes32[4]"},{"name":"blindedSenderViewingKey","type":"bytes32","internalType":"bytes32"},{"name":"blindedReceiverViewingKey","type":"bytes32","internalType":"bytes32"},{"name":"annotationData","type":"bytes","internalType":"bytes"},{"name":"memo","type":"bytes","internalType":"bytes"}]}]},{"name":"unshieldPreimage","type":"tuple","internalType":"struct CommitmentPreimage","components":[{"name":"npk","type":"bytes32","internalType":"bytes32"},{"name":"token","type":"tuple","internalType":"struct TokenData","components":[{"name":"tokenType","type":"uint8","internalType":"enum TokenType"},{"name":"tokenAddress","type":"address","internalType":"address"},{"name":"tokenSubID","type":"uint256","internalType":"uint256"}]},{"name":"value","type":"uint120","internalType":"uint120"}]}]},{"name":"_npk","type":"bytes32","internalType":"bytes32"},{"name":"_shieldCiphertext","type":"tuple","internalType":"struct ShieldCiphertext","components":[{"name":"encryptedBundle","type":"bytes32[3]","internalType":"bytes32[3]"},{"name":"shieldKey","type":"bytes32","internalType":"bytes32"}]}],"outputs":[{"name":"assets","type":"uint256","internalType":"uint256"}],"stateMutability":"nonpayable"},{"type":"function","name":"rescueTokens","inputs":[{"name":"token","type":"address","internalType":"address"},{"name":"to","type":"address","internalType":"address"},{"name":"amount","type":"uint256","internalType":"uint256"}],"outputs":[],"stateMutability":"nonpayable"},{"type":"function","name":"setPrivacyPool","inputs":[{"name":"_privacyPool","type":"address","internalType":"address"}],"outputs":[],"stateMutability":"nonpayable"},{"type":"function","name":"shareToken","inputs":[],"outputs":[{"name":"","type":"address","internalType":"contract IERC20"}],"stateMutability":"view"},{"type":"function","name":"transferOwnership","inputs":[{"name":"newOwner","type":"address","internalType":"address"}],"outputs":[],"stateMutability":"nonpayable"},{"type":"function","name":"usdc","inputs":[],"outputs":[{"name":"","type":"address","internalType":"contract IERC20"}],"stateMutability":"view"},{"type":"function","name":"vault","inputs":[],"outputs":[{"name":"","type":"address","internalType":"contract IArmadaYieldVault"}],"stateMutability":"view"},{"type":"event","name":"LendAndShield","inputs":[{"name":"npk","type":"bytes32","indexed":true,"internalType":"bytes32"},{"name":"usdcAmount","type":"uint256","indexed":false,"internalType":"uint256"},{"name":"sharesMinted","type":"uint256","indexed":false,"internalType":"uint256"}],"anonymous":false},{"type":"event","name":"OwnershipTransferred","inputs":[{"name":"oldOwner","type":"address","indexed":true,"internalType":"address"},{"name":"newOwner","type":"address","indexed":true,"internalType":"address"}],"anonymous":false},{"type":"event","name":"PrivacyPoolUpdated","inputs":[{"name":"oldPool","type":"address","indexed":true,"internalType":"address"},{"name":"newPool","type":"address","indexed":true,"internalType":"address"}],"anonymous":false},{"type":"event","name":"RedeemAndShield","inputs":[{"name":"npk","type":"bytes32","indexed":true,"internalType":"bytes32"},{"name":"sharesBurned","type":"uint256","indexed":false,"internalType":"uint256"},{"name":"usdcRedeemed","type":"uint256","indexed":false,"internalType":"uint256"}],"anonymous":false}],"bytecode":{"object":"0x60e06040523480156200001157600080fd5b506040516200459338038062004593833981810160405281019062000037919062000318565b6001600081905550600073ffffffffffffffffffffffffffffffffffffffff168273ffffffffffffffffffffffffffffffffffffffff1603620000b1576040517f08c379a0000000000000000000000000000000000000000000000000000000008152600401620000a890620003c0565b60405180910390fd5b600073ffffffffffffffffffffffffffffffffffffffff168173ffffffffffffffffffffffffffffffffffffffff160362000123576040517f08c379a00000000000000000000000000000000000000000000000000000000081526004016200011a9062000432565b60405180910390fd5b8173ffffffffffffffffffffffffffffffffffffffff1660808173ffffffffffffffffffffffffffffffffffffffff16815250508073ffffffffffffffffffffffffffffffffffffffff1660a08173ffffffffffffffffffffffffffffffffffffffff16815250508073ffffffffffffffffffffffffffffffffffffffff1660c08173ffffffffffffffffffffffffffffffffffffffff168152505033600160006101000a81548173ffffffffffffffffffffffffffffffffffffffff021916908373ffffffffffffffffffffffffffffffffffffffff16021790555060805173ffffffffffffffffffffffffffffffffffffffff1663095ea7b3827fffffffffffffffffffffffffffffffffffffffffffffffffffffffffffffffff6040518363ffffffff1660e01b81526004016200025f92919062000480565b6020604051808303816000875af11580156200027f573d6000803e3d6000fd5b505050506040513d601f19601f82011682018060405250810190620002a59190620004ea565b5050506200051c565b600080fd5b600073ffffffffffffffffffffffffffffffffffffffff82169050919050565b6000620002e082620002b3565b9050919050565b620002f281620002d3565b8114620002fe57600080fd5b50565b6000815190506200031281620002e7565b92915050565b60008060408385031215620003325762000331620002ae565b5b6000620003428582860162000301565b9250506020620003558582860162000301565b9150509250929050565b600082825260208201905092915050565b7f41726d6164615969656c64416461707465723a207a65726f2075736463000000600082015250565b6000620003a8601d836200035f565b9150620003b58262000370565b602082019050919050565b60006020820190508181036000830152620003db8162000399565b9050919050565b7f41726d6164615969656c64416461707465723a207a65726f207661756c740000600082015250565b60006200041a601e836200035f565b91506200042782620003e2565b602082019050919050565b600060208201905081810360008301526200044d816200040b565b9050919050565b6200045f81620002d3565b82525050565b6000819050919050565b6200047a8162000465565b82525050565b600060408201905062000497600083018562000454565b620004a660208301846200046f565b9392505050565b60008115159050919050565b620004c481620004ad565b8114620004d057600080fd5b50565b600081519050620004e481620004b9565b92915050565b600060208284031215620005035762000502620002ae565b5b60006200051384828501620004d3565b91505092915050565b60805160a05160c051613ff3620005a06000396000818161042d0152818161065201528181610c9001528181611389015261141c01526000818161068e0152818161071101528181610bef01528181610dc201528181611250015261177501526000818161084c015281816108df01528181610bc9015261102b0152613ff36000f3fe608060405234801561001057600080fd5b50600436106100b45760003560e01c8063aa77250e11610071578063aa77250e1461018f578063cea9d26f146101ad578063edc06389146101c9578063f2987ad1146101f9578063f2fde38b14610229578063fbfa77cf14610245576100b4565b80630793b70e146100b95780632f8b34e1146100e95780633e413bee146101055780634cdad506146101235780636c9fa59e146101535780638da5cb5b14610171575b600080fd5b6100d360048036038101906100ce9190611e38565b610263565b6040516100e09190611ec0565b60405180910390f35b61010360048036038101906100fe9190611f39565b610a77565b005b61010d610bc7565b60405161011a9190611fc5565b60405180910390f35b61013d6004803603810190610138919061200c565b610beb565b60405161014a9190611ec0565b60405180910390f35b61015b610c8e565b6040516101689190611fc5565b60405180910390f35b610179610cb2565b6040516101869190612048565b60405180910390f35b610197610cd8565b6040516101a49190612048565b60405180910390f35b6101c760048036038101906101c29190612063565b610cfe565b005b6101e360048036038101906101de919061200c565b610dbe565b6040516101f09190611ec0565b60405180910390f35b610213600480360381019061020e9190611e38565b610e61565b6040516102209190611ec0565b60405180910390f35b610243600480360381019061023e9190611f39565b6115b4565b005b61024d611773565b60405161025a91906120d7565b60405180910390f35b600061026d611797565b600073ffffffffffffffffffffffffffffffffffffffff16600260009054906101000a900473ffffffffffffffffffffffffffffffffffffffff1673ffffffffffffffffffffffffffffffffffffffff16036102fe576040517f08c379a00000000000000000000000000000000000000000000000000000000081526004016102f590612175565b60405180910390fd5b3073ffffffffffffffffffffffffffffffffffffffff1684806101600190610326919061219a565b60800160208101906103389190611f39565b73ffffffffffffffffffffffffffffffffffffffff161461038e576040517f08c379a000000000000000000000000000000000000000000000000000000000815260040161038590612234565b60405180910390fd5b6103ec848061016001906103a2919061219a565b60a0013584846000016003806020026040519081016040528092919082600360200280828437600081840152601f19601f82011690508083019250505050505085606001356117e6565b61042b576040517f08c379a0000000000000000000000000000000000000000000000000000000008152600401610422906122c6565b60405180910390fd5b7f000000000000000000000000000000000000000000000000000000000000000073ffffffffffffffffffffffffffffffffffffffff168461018001602001602001602081019061047c9190611f39565b73ffffffffffffffffffffffffffffffffffffffff16146104d2576040517f08c379a00000000000000000000000000000000000000000000000000000000081526004016104c990612358565b60405180910390fd5b6000600167ffffffffffffffff8111156104ef576104ee612378565b5b60405190808252806020026020018201604052801561052857816020015b610515611b5a565b81526020019060019003908161050d5790505b5090508461053590612d7b565b8160008151811061054957610548612d8e565b5b6020026020010181905250600260009054906101000a900473ffffffffffffffffffffffffffffffffffffffff1673ffffffffffffffffffffffffffffffffffffffff1663d8ae136a826040518263ffffffff1660e01b81526004016105af9190613593565b600060405180830381600087803b1580156105c957600080fd5b505af11580156105dd573d6000803e3d6000fd5b505050506000856101800160800160208101906105fa91906135b5565b6effffffffffffffffffffffffffffff16905060008111610650576040517f08c379a00000000000000000000000000000000000000000000000000000000081526004016106479061362e565b60405180910390fd5b7f000000000000000000000000000000000000000000000000000000000000000073ffffffffffffffffffffffffffffffffffffffff1663095ea7b37f0000000000000000000000000000000000000000000000000000000000000000836040518363ffffffff1660e01b81526004016106cb92919061364e565b6020604051808303816000875af11580156106ea573d6000803e3d6000fd5b505050506040513d601f19601f8201168201806040525081019061070e91906136af565b507f000000000000000000000000000000000000000000000000000000000000000073ffffffffffffffffffffffffffffffffffffffff1663ba0876528230306040518463ffffffff1660e01b815260040161076c939291906136dc565b6020604051808303816000875af115801561078b573d6000803e3d6000fd5b505050506040513d601f19601f820116820180604052508101906107af9190613728565b92506000600167ffffffffffffffff8111156107ce576107cd612378565b5b60405190808252806020026020018201604052801561080757816020015b6107f4611ba5565b8152602001906001900390816107ec5790505b5090506040518060400160405280604051806060016040528089815260200160405180606001604052806000600281111561084557610844613011565b5b81526020017f000000000000000000000000000000000000000000000000000000000000000073ffffffffffffffffffffffffffffffffffffffff16815260200160008152508152602001876effffffffffffffffffffffffffffff168152508152602001868036038101906108bb9190613856565b815250816000815181106108d2576108d1612d8e565b5b60200260200101819052507f000000000000000000000000000000000000000000000000000000000000000073ffffffffffffffffffffffffffffffffffffffff1663095ea7b3600260009054906101000a900473ffffffffffffffffffffffffffffffffffffffff16866040518363ffffffff1660e01b815260040161095a92919061364e565b6020604051808303816000875af1158015610979573d6000803e3d6000fd5b505050506040513d601f19601f8201168201806040525081019061099d91906136af565b50600260009054906101000a900473ffffffffffffffffffffffffffffffffffffffff1673ffffffffffffffffffffffffffffffffffffffff1663044a40c3826040518263ffffffff1660e01b81526004016109f99190613a16565b600060405180830381600087803b158015610a1357600080fd5b505af1158015610a27573d6000803e3d6000fd5b50505050857f38348053c14a8a231cb682249c6b2db1b69546d2ab76277b5f25214904c07af78386604051610a5d929190613a38565b60405180910390a2505050610a706117ff565b9392505050565b600160009054906101000a900473ffffffffffffffffffffffffffffffffffffffff1673ffffffffffffffffffffffffffffffffffffffff163373ffffffffffffffffffffffffffffffffffffffff1614610b07576040517f08c379a0000000000000000000000000000000000000000000000000000000008152600401610afe90613aad565b60405180910390fd5b8073ffffffffffffffffffffffffffffffffffffffff16600260009054906101000a900473ffffffffffffffffffffffffffffffffffffffff1673ffffffffffffffffffffffffffffffffffffffff167fc877467b86b05b4d921f7f3af7eaec98288b4be820938c0b133682a25e1d8e4c60405160405180910390a380600260006101000a81548173ffffffffffffffffffffffffffffffffffffffff021916908373ffffffffffffffffffffffffffffffffffffffff16021790555050565b7f000000000000000000000000000000000000000000000000000000000000000081565b60007f000000000000000000000000000000000000000000000000000000000000000073ffffffffffffffffffffffffffffffffffffffff166307a2d13a836040518263ffffffff1660e01b8152600401610c469190611ec0565b602060405180830381865afa158015610c63573d6000803e3d6000fd5b505050506040513d601f19601f82011682018060405250810190610c879190613728565b9050919050565b7f000000000000000000000000000000000000000000000000000000000000000081565b600160009054906101000a900473ffffffffffffffffffffffffffffffffffffffff1681565b600260009054906101000a900473ffffffffffffffffffffffffffffffffffffffff1681565b600160009054906101000a900473ffffffffffffffffffffffffffffffffffffffff1673ffffffffffffffffffffffffffffffffffffffff163373ffffffffffffffffffffffffffffffffffffffff1614610d8e576040517f08c379a0000000000000000000000000000000000000000000000000000000008152600401610d8590613aad565b60405180910390fd5b610db982828573ffffffffffffffffffffffffffffffffffffffff166118099092919063ffffffff16565b505050565b60007f000000000000000000000000000000000000000000000000000000000000000073ffffffffffffffffffffffffffffffffffffffff1663c6e6f592836040518263ffffffff1660e01b8152600401610e199190611ec0565b602060405180830381865afa158015610e36573d6000803e3d6000fd5b505050506040513d601f19601f82011682018060405250810190610e5a9190613728565b9050919050565b6000610e6b611797565b600073ffffffffffffffffffffffffffffffffffffffff16600260009054906101000a900473ffffffffffffffffffffffffffffffffffffffff1673ffffffffffffffffffffffffffffffffffffffff1603610efc576040517f08c379a0000000000000000000000000000000000000000000000000000000008152600401610ef390612175565b60405180910390fd5b3073ffffffffffffffffffffffffffffffffffffffff1684806101600190610f24919061219a565b6080016020810190610f369190611f39565b73ffffffffffffffffffffffffffffffffffffffff1614610f8c576040517f08c379a0000000000000000000000000000000000000000000000000000000008152600401610f8390612234565b60405180910390fd5b610fea84806101600190610fa0919061219a565b60a0013584846000016003806020026040519081016040528092919082600360200280828437600081840152601f19601f82011690508083019250505050505085606001356117e6565b611029576040517f08c379a0000000000000000000000000000000000000000000000000000000008152600401611020906122c6565b60405180910390fd5b7f000000000000000000000000000000000000000000000000000000000000000073ffffffffffffffffffffffffffffffffffffffff168461018001602001602001602081019061107a9190611f39565b73ffffffffffffffffffffffffffffffffffffffff16146110d0576040517f08c379a00000000000000000000000000000000000000000000000000000000081526004016110c790613b3f565b60405180910390fd5b6000600167ffffffffffffffff8111156110ed576110ec612378565b5b60405190808252806020026020018201604052801561112657816020015b611113611b5a565b81526020019060019003908161110b5790505b5090508461113390612d7b565b8160008151811061114757611146612d8e565b5b6020026020010181905250600260009054906101000a900473ffffffffffffffffffffffffffffffffffffffff1673ffffffffffffffffffffffffffffffffffffffff1663d8ae136a826040518263ffffffff1660e01b81526004016111ad9190613593565b600060405180830381600087803b1580156111c757600080fd5b505af11580156111db573d6000803e3d6000fd5b505050506000856101800160800160208101906111f891906135b5565b6effffffffffffffffffffffffffffff1690506000811161124e576040517f08c379a000000000000000000000000000000000000000000000000000000000815260040161124590613bab565b60405180910390fd5b7f000000000000000000000000000000000000000000000000000000000000000073ffffffffffffffffffffffffffffffffffffffff16636e553f6582306040518363ffffffff1660e01b81526004016112a9929190613bcb565b6020604051808303816000875af11580156112c8573d6000803e3d6000fd5b505050506040513d601f19601f820116820180604052508101906112ec9190613728565b92506000600167ffffffffffffffff81111561130b5761130a612378565b5b60405190808252806020026020018201604052801561134457816020015b611331611ba5565b8152602001906001900390816113295790505b5090506040518060400160405280604051806060016040528089815260200160405180606001604052806000600281111561138257611381613011565b5b81526020017f000000000000000000000000000000000000000000000000000000000000000073ffffffffffffffffffffffffffffffffffffffff16815260200160008152508152602001876effffffffffffffffffffffffffffff168152508152602001868036038101906113f89190613856565b8152508160008151811061140f5761140e612d8e565b5b60200260200101819052507f000000000000000000000000000000000000000000000000000000000000000073ffffffffffffffffffffffffffffffffffffffff1663095ea7b3600260009054906101000a900473ffffffffffffffffffffffffffffffffffffffff16866040518363ffffffff1660e01b815260040161149792919061364e565b6020604051808303816000875af11580156114b6573d6000803e3d6000fd5b505050506040513d601f19601f820116820180604052508101906114da91906136af565b50600260009054906101000a900473ffffffffffffffffffffffffffffffffffffffff1673ffffffffffffffffffffffffffffffffffffffff1663044a40c3826040518263ffffffff1660e01b81526004016115369190613a16565b600060405180830381600087803b15801561155057600080fd5b505af1158015611564573d6000803e3d6000fd5b50505050857f01d8ecbb4f71eb15a38bc60c356da93b32eb7c5e7220d532b4049eedfbc31549838660405161159a929190613a38565b60405180910390a25050506115ad6117ff565b9392505050565b600160009054906101000a900473ffffffffffffffffffffffffffffffffffffffff1673ffffffffffffffffffffffffffffffffffffffff163373ffffffffffffffffffffffffffffffffffffffff1614611644576040517f08c379a000000000000000000000000000000000000000000000000000000000815260040161163b90613aad565b60405180910390fd5b600073ffffffffffffffffffffffffffffffffffffffff168173ffffffffffffffffffffffffffffffffffffffff16036116b3576040517f08c379a00000000000000000000000000000000000000000000000000000000081526004016116aa90613c40565b60405180910390fd5b8073ffffffffffffffffffffffffffffffffffffffff16600160009054906101000a900473ffffffffffffffffffffffffffffffffffffffff1673ffffffffffffffffffffffffffffffffffffffff167f8be0079c531659141344cd1fd0a4f28419497f9722a3daafe3b4186f6b6457e060405160405180910390a380600160006101000a81548173ffffffffffffffffffffffffffffffffffffffff021916908373ffffffffffffffffffffffffffffffffffffffff16021790555050565b7f000000000000000000000000000000000000000000000000000000000000000081565b6002600054036117dc576040517f08c379a00000000000000000000000000000000000000000000000000000000081526004016117d390613cac565b60405180910390fd5b6002600081905550565b60006117f384848461188f565b85149050949350505050565b6001600081905550565b61188a8363a9059cbb60e01b848460405160240161182892919061364e565b604051602081830303815290604052907bffffffffffffffffffffffffffffffffffffffffffffffffffffffff19166020820180517bffffffffffffffffffffffffffffffffffffffffffffffffffffffff83818316178352505050506118c5565b505050565b60008383836040516020016118a693929190613d3d565b6040516020818303038152906040528051906020012090509392505050565b6000611927826040518060400160405280602081526020017f5361666545524332303a206c6f772d6c6576656c2063616c6c206661696c65648152508573ffffffffffffffffffffffffffffffffffffffff1661198d9092919063ffffffff16565b905060008151148061194957508080602001905181019061194891906136af565b5b611988576040517f08c379a000000000000000000000000000000000000000000000000000000000815260040161197f90613de6565b60405180910390fd5b505050565b606061199c84846000856119a5565b90509392505050565b6060824710156119ea576040517f08c379a00000000000000000000000000000000000000000000000000000000081526004016119e190613e78565b60405180910390fd5b6000808673ffffffffffffffffffffffffffffffffffffffff168587604051611a139190613ed4565b60006040518083038185875af1925050503d8060008114611a50576040519150601f19603f3d011682016040523d82523d6000602084013e611a55565b606091505b5091509150611a6687838387611a72565b92505050949350505050565b60608315611ad4576000835103611acc57611a8c85611ae7565b611acb576040517f08c379a0000000000000000000000000000000000000000000000000000000008152600401611ac290613f37565b60405180910390fd5b5b829050611adf565b611ade8383611b0a565b5b949350505050565b6000808273ffffffffffffffffffffffffffffffffffffffff163b119050919050565b600082511115611b1d5781518083602001fd5b806040517f08c379a0000000000000000000000000000000000000000000000000000000008152600401611b519190613f9b565b60405180910390fd5b6040518060c00160405280611b6d611bcb565b8152602001600080191681526020016060815260200160608152602001611b92611bfe565b8152602001611b9f611c7f565b81525090565b6040518060400160405280611bb8611c7f565b8152602001611bc5611cba565b81525090565b6040518060600160405280611bde611cdd565b8152602001611beb611cf7565b8152602001611bf8611cdd565b81525090565b6040518060e00160405280600061ffff168152602001600068ffffffffffffffffff16815260200160006002811115611c3a57611c39613011565b5b8152602001600067ffffffffffffffff168152602001600073ffffffffffffffffffffffffffffffffffffffff16815260200160008019168152602001606081525090565b604051806060016040528060008019168152602001611c9c611d1d565b815260200160006effffffffffffffffffffffffffffff1681525090565b6040518060400160405280611ccd611d66565b8152602001600080191681525090565b604051806040016040528060008152602001600081525090565b6040518060400160405280611d0a611d88565b8152602001611d17611d88565b81525090565b604051806060016040528060006002811115611d3c57611d3b613011565b5b8152602001600073ffffffffffffffffffffffffffffffffffffffff168152602001600081525090565b6040518060600160405280600390602082028036833780820191505090505090565b6040518060400160405280600290602082028036833780820191505090505090565b6000604051905090565b600080fd5b600080fd5b600080fd5b60006102208284031215611dda57611dd9611dbe565b5b81905092915050565b6000819050919050565b611df681611de3565b8114611e0157600080fd5b50565b600081359050611e1381611ded565b92915050565b600060808284031215611e2f57611e2e611dbe565b5b81905092915050565b600080600060c08486031215611e5157611e50611db4565b5b600084013567ffffffffffffffff811115611e6f57611e6e611db9565b5b611e7b86828701611dc3565b9350506020611e8c86828701611e04565b9250506040611e9d86828701611e19565b9150509250925092565b6000819050919050565b611eba81611ea7565b82525050565b6000602082019050611ed56000830184611eb1565b92915050565b600073ffffffffffffffffffffffffffffffffffffffff82169050919050565b6000611f0682611edb565b9050919050565b611f1681611efb565b8114611f2157600080fd5b50565b600081359050611f3381611f0d565b92915050565b600060208284031215611f4f57611f4e611db4565b5b6000611f5d84828501611f24565b91505092915050565b6000819050919050565b6000611f8b611f86611f8184611edb565b611f66565b611edb565b9050919050565b6000611f9d82611f70565b9050919050565b6000611faf82611f92565b9050919050565b611fbf81611fa4565b82525050565b6000602082019050611fda6000830184611fb6565b92915050565b611fe981611ea7565b8114611ff457600080fd5b50565b60008135905061200681611fe0565b92915050565b60006020828403121561202257612021611db4565b5b600061203084828501611ff7565b91505092915050565b61204281611efb565b82525050565b600060208201905061205d6000830184612039565b92915050565b60008060006060848603121561207c5761207b611db4565b5b600061208a86828701611f24565b935050602061209b86828701611f24565b92505060406120ac86828701611ff7565b9150509250925092565b60006120c182611f92565b9050919050565b6120d1816120b6565b82525050565b60006020820190506120ec60008301846120c8565b92915050565b600082825260208201905092915050565b7f41726d6164615969656c64416461707465723a206e6f2070726976616379506f60008201527f6f6c000000000000000000000000000000000000000000000000000000000000602082015250565b600061215f6022836120f2565b915061216a82612103565b604082019050919050565b6000602082019050818103600083015261218e81612152565b9050919050565b600080fd5b60008235600160e0038336030381126121b6576121b5612195565b5b80830191505092915050565b7f41726d6164615969656c64416461707465723a20696e76616c6964206164617060008201527f74436f6e74726163740000000000000000000000000000000000000000000000602082015250565b600061221e6029836120f2565b9150612229826121c2565b604082019050919050565b6000602082019050818103600083015261224d81612211565b9050919050565b7f41726d6164615969656c64416461707465723a206164617074506172616d732060008201527f6d69736d61746368000000000000000000000000000000000000000000000000602082015250565b60006122b06028836120f2565b91506122bb82612254565b604082019050919050565b600060208201905081810360008301526122df816122a3565b9050919050565b7f41726d6164615969656c64416461707465723a206e6f7420736861726520746f60008201527f6b656e20756e736869656c640000000000000000000000000000000000000000602082015250565b6000612342602c836120f2565b915061234d826122e6565b604082019050919050565b6000602082019050818103600083015261237181612335565b9050919050565b7f4e487b7100000000000000000000000000000000000000000000000000000000600052604160045260246000fd5b600080fd5b6000601f19601f8301169050919050565b6123c6826123ac565b810181811067ffffffffffffffff821117156123e5576123e4612378565b5b80604052505050565b60006123f8611daa565b905061240482826123bd565b919050565b600080fd5b600060408284031215612424576124236123a7565b5b61242e60406123ee565b9050600061243e84828501611ff7565b600083015250602061245284828501611ff7565b60208301525092915050565b600080fd5b600067ffffffffffffffff82111561247e5761247d612378565b5b602082029050919050565b600080fd5b60006124a161249c84612463565b6123ee565b905080602084028301858111156124bb576124ba612489565b5b835b818110156124e457806124d08882611ff7565b8452602084019350506020810190506124bd565b5050509392505050565b600082601f8301126125035761250261245e565b5b600261251084828561248e565b91505092915050565b60006080828403121561252f5761252e6123a7565b5b61253960406123ee565b90506000612549848285016124ee565b600083015250604061255d848285016124ee565b60208301525092915050565b600061010082840312156125805761257f6123a7565b5b61258a60606123ee565b9050600061259a8482850161240e565b60008301525060406125ae84828501612519565b60208301525060c06125c28482850161240e565b60408301525092915050565b600067ffffffffffffffff8211156125e9576125e8612378565b5b602082029050602081019050919050565b600061260d612608846125ce565b6123ee565b905080838252602082019050602084028301858111156126305761262f612489565b5b835b8181101561265957806126458882611e04565b845260208401935050602081019050612632565b5050509392505050565b600082601f8301126126785761267761245e565b5b81356126888482602086016125fa565b91505092915050565b600061ffff82169050919050565b6126a881612691565b81146126b357600080fd5b50565b6000813590506126c58161269f565b92915050565b600068ffffffffffffffffff82169050919050565b6126e9816126cb565b81146126f457600080fd5b50565b600081359050612706816126e0565b92915050565b6003811061271957600080fd5b50565b60008135905061272b8161270c565b92915050565b600067ffffffffffffffff82169050919050565b61274e81612731565b811461275957600080fd5b50565b60008135905061276b81612745565b92915050565b600067ffffffffffffffff82111561278c5761278b612378565b5b602082029050602081019050919050565b600067ffffffffffffffff8211156127b8576127b7612378565b5b602082029050919050565b60006127d66127d18461279d565b6123ee565b905080602084028301858111156127f0576127ef612489565b5b835b8181101561281957806128058882611e04565b8452602084019350506020810190506127f2565b5050509392505050565b600082601f8301126128385761283761245e565b5b60046128458482856127c3565b91505092915050565b600080fd5b600067ffffffffffffffff82111561286e5761286d612378565b5b612877826123ac565b9050602081019050919050565b82818337600083830152505050565b60006128a66128a184612853565b6123ee565b9050828152602081018484840111156128c2576128c161284e565b5b6128cd848285612884565b509392505050565b600082601f8301126128ea576128e961245e565b5b81356128fa848260208601612893565b91505092915050565b6000610100828403121561291a576129196123a7565b5b61292460a06123ee565b9050600061293484828501612823565b600083015250608061294884828501611e04565b60208301525060a061295c84828501611e04565b60408301525060c082013567ffffffffffffffff8111156129805761297f612409565b5b61298c848285016128d5565b60608301525060e082013567ffffffffffffffff8111156129b0576129af612409565b5b6129bc848285016128d5565b60808301525092915050565b60006129db6129d684612771565b6123ee565b905080838252602082019050602084028301858111156129fe576129fd612489565b5b835b81811015612a4557803567ffffffffffffffff811115612a2357612a2261245e565b5b808601612a308982612903565b85526020850194505050602081019050612a00565b5050509392505050565b600082601f830112612a6457612a6361245e565b5b8135612a748482602086016129c8565b91505092915050565b600060e08284031215612a9357612a926123a7565b5b612a9d60e06123ee565b90506000612aad848285016126b6565b6000830152506020612ac1848285016126f7565b6020830152506040612ad58482850161271c565b6040830152506060612ae98482850161275c565b6060830152506080612afd84828501611f24565b60808301525060a0612b1184828501611e04565b60a08301525060c082013567ffffffffffffffff811115612b3557612b34612409565b5b612b4184828501612a4f565b60c08301525092915050565b60038110612b5a57600080fd5b50565b600081359050612b6c81612b4d565b92915050565b600060608284031215612b8857612b876123a7565b5b612b9260606123ee565b90506000612ba284828501612b5d565b6000830152506020612bb684828501611f24565b6020830152506040612bca84828501611ff7565b60408301525092915050565b60006effffffffffffffffffffffffffffff82169050919050565b612bfa81612bd6565b8114612c0557600080fd5b50565b600081359050612c1781612bf1565b92915050565b600060a08284031215612c3357612c326123a7565b5b612c3d60606123ee565b90506000612c4d84828501611e04565b6000830152506020612c6184828501612b72565b6020830152506080612c7584828501612c08565b60408301525092915050565b60006102208284031215612c9857612c976123a7565b5b612ca260c06123ee565b90506000612cb284828501612569565b600083015250610100612cc784828501611e04565b60208301525061012082013567ffffffffffffffff811115612cec57612ceb612409565b5b612cf884828501612663565b60408301525061014082013567ffffffffffffffff811115612d1d57612d1c612409565b5b612d2984828501612663565b60608301525061016082013567ffffffffffffffff811115612d4e57612d4d612409565b5b612d5a84828501612a7d565b608083015250610180612d6f84828501612c1d565b60a08301525092915050565b6000612d873683612c81565b9050919050565b7f4e487b7100000000000000000000000000000000000000000000000000000000600052603260045260246000fd5b600081519050919050565b600082825260208201905092915050565b6000819050602082019050919050565b612df281611ea7565b82525050565b604082016000820151612e0e6000850182612de9565b506020820151612e216020850182612de9565b50505050565b600060029050919050565b600081905092915050565b6000819050919050565b6000612e538383612de9565b60208301905092915050565b6000602082019050919050565b612e7581612e27565b612e7f8184612e32565b9250612e8a82612e3d565b8060005b83811015612ebb578151612ea28782612e47565b9650612ead83612e5f565b925050600181019050612e8e565b505050505050565b608082016000820151612ed96000850182612e6c565b506020820151612eec6040850182612e6c565b50505050565b61010082016000820151612f096000850182612df8565b506020820151612f1c6040850182612ec3565b506040820151612f2f60c0850182612df8565b50505050565b612f3e81611de3565b82525050565b600081519050919050565b600082825260208201905092915050565b6000819050602082019050919050565b6000612f7c8383612f35565b60208301905092915050565b6000602082019050919050565b6000612fa082612f44565b612faa8185612f4f565b9350612fb583612f60565b8060005b83811015612fe6578151612fcd8882612f70565b9750612fd883612f88565b925050600181019050612fb9565b5085935050505092915050565b612ffc81612691565b82525050565b61300b816126cb565b82525050565b7f4e487b7100000000000000000000000000000000000000000000000000000000600052602160045260246000fd5b6003811061305157613050613011565b5b50565b600081905061306282613040565b919050565b600061307282613054565b9050919050565b61308281613067565b82525050565b61309181612731565b82525050565b6130a081611efb565b82525050565b600081519050919050565b600082825260208201905092915050565b6000819050602082019050919050565b600060049050919050565b600081905092915050565b6000819050919050565b6000602082019050919050565b613108816130d2565b61311281846130dd565b925061311d826130e8565b8060005b8381101561314e5781516131358782612f70565b9650613140836130f2565b925050600181019050613121565b505050505050565b600081519050919050565b600082825260208201905092915050565b60005b83811015613190578082015181840152602081019050613175565b60008484015250505050565b60006131a782613156565b6131b18185613161565b93506131c1818560208601613172565b6131ca816123ac565b840191505092915050565b6000610100830160008301516131ee60008601826130ff565b5060208301516132016080860182612f35565b50604083015161321460a0860182612f35565b50606083015184820360c086015261322c828261319c565b915050608083015184820360e0860152613246828261319c565b9150508091505092915050565b600061325f83836131d5565b905092915050565b6000602082019050919050565b600061327f826130a6565b61328981856130b1565b93508360208202850161329b856130c2565b8060005b858110156132d757848403895281516132b88582613253565b94506132c383613267565b925060208a0199505060018101905061329f565b50829750879550505050505092915050565b600060e0830160008301516133016000860182612ff3565b5060208301516133146020860182613002565b5060408301516133276040860182613079565b50606083015161333a6060860182613088565b50608083015161334d6080860182613097565b5060a083015161336060a0860182612f35565b5060c083015184820360c08601526133788282613274565b9150508091505092915050565b6003811061339657613395613011565b5b50565b60008190506133a782613385565b919050565b60006133b782613399565b9050919050565b6133c7816133ac565b82525050565b6060820160008201516133e360008501826133be565b5060208201516133f66020850182613097565b5060408201516134096040850182612de9565b50505050565b61341881612bd6565b82525050565b60a0820160008201516134346000850182612f35565b50602082015161344760208501826133cd565b50604082015161345a608085018261340f565b50505050565b6000610220830160008301516134796000860182612ef2565b50602083015161348d610100860182612f35565b5060408301518482036101208601526134a68282612f95565b91505060608301518482036101408601526134c18282612f95565b91505060808301518482036101608601526134dc82826132e9565b91505060a08301516134f261018086018261341e565b508091505092915050565b60006135098383613460565b905092915050565b6000602082019050919050565b600061352982612dbd565b6135338185612dc8565b93508360208202850161354585612dd9565b8060005b85811015613581578484038952815161356285826134fd565b945061356d83613511565b925060208a01995050600181019050613549565b50829750879550505050505092915050565b600060208201905081810360008301526135ad818461351e565b905092915050565b6000602082840312156135cb576135ca611db4565b5b60006135d984828501612c08565b91505092915050565b7f41726d6164615969656c64416461707465723a207a65726f2073686172657300600082015250565b6000613618601f836120f2565b9150613623826135e2565b602082019050919050565b600060208201905081810360008301526136478161360b565b9050919050565b60006040820190506136636000830185612039565b6136706020830184611eb1565b9392505050565b60008115159050919050565b61368c81613677565b811461369757600080fd5b50565b6000815190506136a981613683565b92915050565b6000602082840312156136c5576136c4611db4565b5b60006136d38482850161369a565b91505092915050565b60006060820190506136f16000830186611eb1565b6136fe6020830185612039565b61370b6040830184612039565b949350505050565b60008151905061372281611fe0565b92915050565b60006020828403121561373e5761373d611db4565b5b600061374c84828501613713565b91505092915050565b600067ffffffffffffffff8211156137705761376f612378565b5b602082029050919050565b600061378e61378984613755565b6123ee565b905080602084028301858111156137a8576137a7612489565b5b835b818110156137d157806137bd8882611e04565b8452602084019350506020810190506137aa565b5050509392505050565b600082601f8301126137f0576137ef61245e565b5b60036137fd84828561377b565b91505092915050565b60006080828403121561381c5761381b6123a7565b5b61382660406123ee565b90506000613836848285016137db565b600083015250606061384a84828501611e04565b60208301525092915050565b60006080828403121561386c5761386b611db4565b5b600061387a84828501613806565b91505092915050565b600081519050919050565b600082825260208201905092915050565b6000819050602082019050919050565b600060039050919050565b600081905092915050565b6000819050919050565b6000602082019050919050565b6138e5816138af565b6138ef81846138ba565b92506138fa826138c5565b8060005b8381101561392b5781516139128782612f70565b965061391d836138cf565b9250506001810190506138fe565b505050505050565b60808201600082015161394960008501826138dc565b50602082015161395c6060850182612f35565b50505050565b61012082016000820151613979600085018261341e565b50602082015161398c60a0850182613933565b50505050565b600061399e8383613962565b6101208301905092915050565b6000602082019050919050565b60006139c382613883565b6139cd818561388e565b93506139d88361389f565b8060005b83811015613a095781516139f08882613992565b97506139fb836139ab565b9250506001810190506139dc565b5085935050505092915050565b60006020820190508181036000830152613a3081846139b8565b905092915050565b6000604082019050613a4d6000830185611eb1565b613a5a6020830184611eb1565b9392505050565b7f41726d6164615969656c64416461707465723a206e6f74206f776e6572000000600082015250565b6000613a97601d836120f2565b9150613aa282613a61565b602082019050919050565b60006020820190508181036000830152613ac681613a8a565b9050919050565b7f41726d6164615969656c64416461707465723a206e6f74205553444320756e7360008201527f6869656c64000000000000000000000000000000000000000000000000000000602082015250565b6000613b296025836120f2565b9150613b3482613acd565b604082019050919050565b60006020820190508181036000830152613b5881613b1c565b9050919050565b7f41726d6164615969656c64416461707465723a207a65726f20616d6f756e7400600082015250565b6000613b95601f836120f2565b9150613ba082613b5f565b602082019050919050565b60006020820190508181036000830152613bc481613b88565b9050919050565b6000604082019050613be06000830185611eb1565b613bed6020830184612039565b9392505050565b7f41726d6164615969656c64416461707465723a207a65726f206f776e65720000600082015250565b6000613c2a601e836120f2565b9150613c3582613bf4565b602082019050919050565b60006020820190508181036000830152613c5981613c1d565b9050919050565b7f5265656e7472616e637947756172643a207265656e7472616e742063616c6c00600082015250565b6000613c96601f836120f2565b9150613ca182613c60565b602082019050919050565b60006020820190508181036000830152613cc581613c89565b9050919050565b613cd581611de3565b82525050565b600081905092915050565b613cef816138af565b613cf98184613cdb565b9250613d04826138c5565b8060005b83811015613d35578151613d1c8782612f70565b9650613d27836138cf565b925050600181019050613d08565b505050505050565b600060a082019050613d526000830186613ccc565b613d5f6020830185613ce6565b613d6c6080830184613ccc565b949350505050565b7f5361666545524332303a204552433230206f7065726174696f6e20646964206e60008201527f6f74207375636365656400000000000000000000000000000000000000000000602082015250565b6000613dd0602a836120f2565b9150613ddb82613d74565b604082019050919050565b60006020820190508181036000830152613dff81613dc3565b9050919050565b7f416464726573733a20696e73756666696369656e742062616c616e636520666f60008201527f722063616c6c0000000000000000000000000000000000000000000000000000602082015250565b6000613e626026836120f2565b9150613e6d82613e06565b604082019050919050565b60006020820190508181036000830152613e9181613e55565b9050919050565b600081905092915050565b6000613eae82613156565b613eb88185613e98565b9350613ec8818560208601613172565b80840191505092915050565b6000613ee08284613ea3565b915081905092915050565b7f416464726573733a2063616c6c20746f206e6f6e2d636f6e7472616374000000600082015250565b6000613f21601d836120f2565b9150613f2c82613eeb565b602082019050919050565b60006020820190508181036000830152613f5081613f14565b9050919050565b600081519050919050565b6000613f6d82613f57565b613f7781856120f2565b9350613f87818560208601613172565b613f90816123ac565b840191505092915050565b60006020820190508181036000830152613fb58184613f62565b90509291505056fea2646970667358221220e0075de1e764be83a9d2c08328f9589791af0738753c7f198062768f14a4eff864736f6c63430008110033","linkReferences":{}},"methodIdentifiers":{"lendAndShield((((uint256,uint256),(uint256[2],uint256[2]),(uint256,uint256)),bytes32,bytes32[],bytes32[],(uint16,uint72,uint8,uint64,address,bytes32,(bytes32[4],bytes32,bytes32,bytes,bytes)[]),(bytes32,(uint8,address,uint256),uint120)),bytes32,(bytes32[3],bytes32))":"f2987ad1","owner()":"8da5cb5b","previewLend(uint256)":"edc06389","previewRedeem(uint256)":"4cdad506","privacyPool()":"aa77250e","redeemAndShield((((uint256,uint256),(uint256[2],uint256[2]),(uint256,uint256)),bytes32,bytes32[],bytes32[],(uint16,uint72,uint8,uint64,address,bytes32,(bytes32[4],bytes32,bytes32,bytes,bytes)[]),(bytes32,(uint8,address,uint256),uint120)),bytes32,(bytes32[3],bytes32))":"0793b70e","rescueTokens(address,address,uint256)":"cea9d26f","setPrivacyPool(address)":"2f8b34e1","shareToken()":"6c9fa59e","transferOwnership(address)":"f2fde38b","usdc()":"3e413bee","vault()":"fbfa77cf"},"id":3}