{"abi":[{"type":"constructor","inputs":[{"name":"_usdc","type":"address","internalType":"address"},{"name":"_vault","type":"address","internalType":"address"}],"stateMutability":"nonpayable"},{"type":"function","name":"lend","inputs":[{"name":"amount","type":"uint256","internalType":"uint256"}],"outputs":[{"name":"shares","type":"uint256","internalType":"uint256"}],"stateMutability":"nonpayable"},{"type":"function","name":"lendAndShield","inputs":[{"name":"_transaction","type":"tuple","internalType":"struct Transaction","components":[{"name":"proof","type":"tuple","internalType":"struct SnarkProof","components":[{"name":"a","type":"tuple","internalType":"struct G1Point","components":[{"name":"x","type":"uint256","internalType":"uint256"},{"name":"y","type":"uint256","internalType":"uint256"}]},{"name":"b","type":"tuple","internalType":"struct G2Point","components":[{"name":"x","type":"uint256[2]","internalType":"uint256[2]"},{"name":"y","type":"uint256[2]","internalType":"uint256[2]"}]},{"name":"c","type":"tuple","internalType":"struct G1Point","components":[{"name":"x","type":"uint256","internalType":"uint256"},{"name":"y","type":"uint256","internalType":"uint256"}]}]},{"name":"merkleRoot","type":"bytes32","internalType":"bytes32"},{"name":"nullifiers","type":"bytes32[]","internalType":"bytes32[]"},{"name":"commitments","type":"bytes32[]","internalType":"bytes32[]"},{"name":"boundParams","type":"tuple","internalType":"struct BoundParams","components":[{"name":"treeNumber","type":"uint16","internalType":"uint16"},{"name":"minGasPrice","type":"uint72","internalType":"uint72"},{"name":"unshield","type":"uint8","internalType":"enum UnshieldType"},{"name":"chainID","type":"uint64","internalType":"uint64"},{"name":"adaptContract","type":"address","internalType":"address"},{"name":"adaptParams","type":"bytes32","internalType":"bytes32"},{"name":"commitmentCiphertext","type":"tuple[]","internalType":"struct CommitmentCiphertext[]","components":[{"name":"ciphertext","type":"bytes32[4]","internalType":"bytes32[4]"},{"name":"blindedSenderViewingKey","type":"bytes32","internalType":"bytes32"},{"name":"blindedReceiverViewingKey","type":"bytes32","internalType":"bytes32"},{"name":"annotationData","type":"bytes","internalType":"bytes"},{"name":"memo","type":"bytes","internalType":"bytes"}]}]},{"name":"unshieldPreimage","type":"tuple","internalType":"struct CommitmentPreimage","components":[{"name":"npk","type":"bytes32","internalType":"bytes32"},{"name":"token","type":"tuple","internalType":"struct TokenData","components":[{"name":"tokenType","type":"uint8","internalType":"enum TokenType"},{"name":"tokenAddress","type":"address","internalType":"address"},{"name":"tokenSubID","type":"uint256","internalType":"uint256"}]},{"name":"value","type":"uint120","internalType":"uint120"}]}]},{"name":"_npk","type":"bytes32","internalType":"bytes32"},{"name":"_shieldCiphertext","type":"tuple","internalType":"struct ShieldCiphertext","components":[{"name":"encryptedBundle","type":"bytes32[3]","internalType":"bytes32[3]"},{"name":"shieldKey","type":"bytes32","internalType":"bytes32"}]}],"outputs":[{"name":"shares","type":"uint256","internalType":"uint256"}],"stateMutability":"nonpayable"},{"type":"function","name":"lendPrivate","inputs":[{"name":"amount","type":"uint256","internalType":"uint256"},{"name":"user","type":"address","internalType":"address"}],"outputs":[{"name":"shares","type":"uint256","internalType":"uint256"}],"stateMutability":"nonpayable"},{"type":"function","name":"owner","inputs":[],"outputs":[{"name":"","type":"address","internalType":"address"}],"stateMutability":"view"},{"type":"function","name":"previewLend","inputs":[{"name":"amount","type":"uint256","internalType":"uint256"}],"outputs":[{"name":"","type":"uint256","internalType":"uint256"}],"stateMutability":"view"},{"type":"function","name":"previewRedeem","inputs":[{"name":"shares","type":"uint256","internalType":"uint256"}],"outputs":[{"name":"","type":"uint256","internalType":"uint256"}],"stateMutability":"view"},{"type":"function","name":"privacyPool","inputs":[],"outputs":[{"name":"","type":"address","internalType":"address"}],"stateMutability":"view"},{"type":"function","name":"redeemAndShield","inputs":[{"name":"_transaction","type":"tuple","internalType":"struct Transaction","components":[{"name":"proof","type":"tuple","internalType":"struct SnarkProof","components":[{"name":"a","type":"tuple","internalType":"struct G1Point","components":[{"name":"x","type":"uint256","internalType":"uint256"},{"name":"y","type":"uint256","internalType":"uint256"}]},{"name":"b","type":"tuple","internalType":"struct G2Point","components":[{"name":"x","type":"uint256[2]","internalType":"uint256[2]"},{"name":"y","type":"uint256[2]","internalType":"uint256[2]"}]},{"name":"c","type":"tuple","internalType":"struct G1Point","components":[{"name":"x","type":"uint256","internalType":"uint256"},{"name":"y","type":"uint256","internalType":"uint256"}]}]},{"name":"merkleRoot","type":"bytes32","internalType":"bytes32"},{"name":"nullifiers","type":"bytes32[]","internalType":"bytes32[]"},{"name":"commitments","type":"bytes32[]","internalType":"bytes32[]"},{"name":"boundParams","type":"tuple","internalType":"struct BoundParams","components":[{"name":"treeNumber","type":"uint16","internalType":"uint16"},{"name":"minGasPrice","type":"uint72","internalType":"uint72"},{"name":"unshield","type":"uint8","internalType":"enum UnshieldType"},{"name":"chainID","type":"uint64","internalType":"uint64"},{"name":"adaptContract","type":"address","internalType":"address"},{"name":"adaptParams","type":"bytes32","internalType":"bytes32"},{"name":"commitmentCiphertext","type":"tuple[]","internalType":"struct CommitmentCiphertext[]","components":[{"name":"ciphertext","type":"bytes32[4]","internalType":"bytes32[4]"},{"name":"blindedSenderViewingKey","type":"bytes32","internalType":"bytes32"},{"name":"blindedReceiverViewingKey","type":"bytes32","internalType":"bytes32"},{"name":"annotationData","type":"bytes","internalType":"bytes"},{"name":"memo","type":"bytes","internalType":"bytes"}]}]},{"name":"unshieldPreimage","type":"tuple","internalType":"struct CommitmentPreimage","components":[{"name":"npk","type":"bytes32","internalType":"bytes32"},{"name":"token","type":"tuple","internalType":"struct TokenData","components":[{"name":"tokenType","type":"uint8","internalType":"enum TokenType"},{"name":"tokenAddress","type":"address","internalType":"address"},{"name":"tokenSubID","type":"uint256","internalType":"uint256"}]},{"name":"value","type":"uint120","internalType":"uint120"}]}]},{"name":"_npk","type":"bytes32","internalType":"bytes32"},{"name":"_shieldCiphertext","type":"tuple","internalType":"struct ShieldCiphertext","components":[{"name":"encryptedBundle","type":"bytes32[3]","internalType":"bytes32[3]"},{"name":"shieldKey","type":"bytes32","internalType":"bytes32"}]}],"outputs":[{"name":"assets","type":"uint256","internalType":"uint256"}],"stateMutability":"nonpayable"},{"type":"function","name":"redeemAndUnshield","inputs":[{"name":"shares","type":"uint256","internalType":"uint256"},{"name":"recipient","type":"address","internalType":"address"}],"outputs":[{"name":"assets","type":"uint256","internalType":"uint256"}],"stateMutability":"nonpayable"},{"type":"function","name":"redeemAndUnshieldCCTP","inputs":[{"name":"shares","type":"uint256","internalType":"uint256"},{"name":"destinationDomain","type":"uint32","internalType":"uint32"},{"name":"finalRecipient","type":"address","internalType":"address"},{"name":"destinationCaller","type":"bytes32","internalType":"bytes32"}],"outputs":[{"name":"assets","type":"uint256","internalType":"uint256"},{"name":"nonce","type":"uint64","internalType":"uint64"}],"stateMutability":"nonpayable"},{"type":"function","name":"redeemPrivate","inputs":[{"name":"shares","type":"uint256","internalType":"uint256"},{"name":"user","type":"address","internalType":"address"}],"outputs":[{"name":"assets","type":"uint256","internalType":"uint256"}],"stateMutability":"nonpayable"},{"type":"function","name":"redeemShares","inputs":[{"name":"shares","type":"uint256","internalType":"uint256"}],"outputs":[{"name":"assets","type":"uint256","internalType":"uint256"}],"stateMutability":"nonpayable"},{"type":"function","name":"relayers","inputs":[{"name":"","type":"address","internalType":"address"}],"outputs":[{"name":"","type":"bool","internalType":"bool"}],"stateMutability":"view"},{"type":"function","name":"rescueTokens","inputs":[{"name":"token","type":"address","internalType":"address"},{"name":"to","type":"address","internalType":"address"},{"name":"amount","type":"uint256","internalType":"uint256"}],"outputs":[],"stateMutability":"nonpayable"},{"type":"function","name":"setPrivacyPool","inputs":[{"name":"_privacyPool","type":"address","internalType":"address"}],"outputs":[],"stateMutability":"nonpayable"},{"type":"function","name":"setRelayer","inputs":[{"name":"relayer","type":"address","internalType":"address"},{"name":"authorized","type":"bool","internalType":"bool"}],"outputs":[],"stateMutability":"nonpayable"},{"type":"function","name":"setTokenMessenger","inputs":[{"name":"_tokenMessenger","type":"address","internalType":"address"}],"outputs":[],"stateMutability":"nonpayable"},{"type":"function","name":"shareToken","inputs":[],"outputs":[{"name":"","type":"address","internalType":"contract IERC20"}],"stateMutability":"view"},{"type":"function","name":"tokenMessenger","inputs":[],"outputs":[{"name":"","type":"address","internalType":"address"}],"stateMutability":"view"},{"type":"function","name":"transferOwnership","inputs":[{"name":"newOwner","type":"address","internalType":"address"}],"outputs":[],"stateMutability":"nonpayable"},{"type":"function","name":"usdc","inputs":[],"outputs":[{"name":"","type":"address","internalType":"contract IERC20"}],"stateMutability":"view"},{"type":"function","name":"vault","inputs":[],"outputs":[{"name":"","type":"address","internalType":"contract IArmadaYieldVault"}],"stateMutability":"view"},{"type":"event","name":"Lend","inputs":[{"name":"user","type":"address","indexed":true,"internalType":"address"},{"name":"usdcAmount","type":"uint256","indexed":false,"internalType":"uint256"},{"name":"sharesMinted","type":"uint256","indexed":false,"internalType":"uint256"}],"anonymous":false},{"type":"event","name":"LendAndShield","inputs":[{"name":"npk","type":"bytes32","indexed":true,"internalType":"bytes32"},{"name":"usdcAmount","type":"uint256","indexed":false,"internalType":"uint256"},{"name":"sharesMinted","type":"uint256","indexed":false,"internalType":"uint256"}],"anonymous":false},{"type":"event","name":"OwnershipTransferred","inputs":[{"name":"oldOwner","type":"address","indexed":true,"internalType":"address"},{"name":"newOwner","type":"address","indexed":true,"internalType":"address"}],"anonymous":false},{"type":"event","name":"PrivacyPoolUpdated","inputs":[{"name":"oldPool","type":"address","indexed":true,"internalType":"address"},{"name":"newPool","type":"address","indexed":true,"internalType":"address"}],"anonymous":false},{"type":"event","name":"Redeem","inputs":[{"name":"user","type":"address","indexed":true,"internalType":"address"},{"name":"sharesBurned","type":"uint256","indexed":false,"internalType":"uint256"},{"name":"usdcRedeemed","type":"uint256","indexed":false,"internalType":"uint256"}],"anonymous":false},{"type":"event","name":"RedeemAndShield","inputs":[{"name":"npk","type":"bytes32","indexed":true,"internalType":"bytes32"},{"name":"sharesBurned","type":"uint256","indexed":false,"internalType":"uint256"},{"name":"usdcRedeemed","type":"uint256","indexed":false,"internalType":"uint256"}],"anonymous":false},{"type":"event","name":"RedeemAndUnshield","inputs":[{"name":"user","type":"address","indexed":true,"internalType":"address"},{"name":"sharesBurned","type":"uint256","indexed":false,"internalType":"uint256"},{"name":"usdcRedeemed","type":"uint256","indexed":false,"internalType":"uint256"},{"name":"recipient","type":"address","indexed":false,"internalType":"address"}],"anonymous":false},{"type":"event","name":"RedeemAndUnshieldCCTP","inputs":[{"name":"user","type":"address","indexed":true,"internalType":"address"},{"name":"sharesBurned","type":"uint256","indexed":false,"internalType":"uint256"},{"name":"usdcRedeemed","type":"uint256","indexed":false,"internalType":"uint256"},{"name":"destinationDomain","type":"uint32","indexed":false,"internalType":"uint32"},{"name":"finalRecipient","type":"address","indexed":false,"internalType":"address"},{"name":"cctpNonce","type":"uint64","indexed":false,"internalType":"uint64"}],"anonymous":false},{"type":"event","name":"RelayerUpdated","inputs":[{"name":"relayer","type":"address","indexed":true,"internalType":"address"},{"name":"authorized","type":"bool","indexed":false,"internalType":"bool"}],"anonymous":false},{"type":"event","name":"TokenMessengerUpdated","inputs":[{"name":"oldMessenger","type":"address","indexed":true,"internalType":"address"},{"name":"newMessenger","type":"address","indexed":true,"internalType":"address"}],"anonymous":false}],"bytecode":{"object":"0x60e06040523480156200001157600080fd5b506040516200615238038062006152833981810160405281019062000037919062000318565b6001600081905550600073ffffffffffffffffffffffffffffffffffffffff168273ffffffffffffffffffffffffffffffffffffffff1603620000b1576040517f08c379a0000000000000000000000000000000000000000000000000000000008152600401620000a890620003c0565b60405180910390fd5b600073ffffffffffffffffffffffffffffffffffffffff168173ffffffffffffffffffffffffffffffffffffffff160362000123576040517f08c379a00000000000000000000000000000000000000000000000000000000081526004016200011a9062000432565b60405180910390fd5b8173ffffffffffffffffffffffffffffffffffffffff1660808173ffffffffffffffffffffffffffffffffffffffff16815250508073ffffffffffffffffffffffffffffffffffffffff1660a08173ffffffffffffffffffffffffffffffffffffffff16815250508073ffffffffffffffffffffffffffffffffffffffff1660c08173ffffffffffffffffffffffffffffffffffffffff168152505033600160006101000a81548173ffffffffffffffffffffffffffffffffffffffff021916908373ffffffffffffffffffffffffffffffffffffffff16021790555060805173ffffffffffffffffffffffffffffffffffffffff1663095ea7b3827fffffffffffffffffffffffffffffffffffffffffffffffffffffffffffffffff6040518363ffffffff1660e01b81526004016200025f92919062000480565b6020604051808303816000875af11580156200027f573d6000803e3d6000fd5b505050506040513d601f19601f82011682018060405250810190620002a59190620004ea565b5050506200051c565b600080fd5b600073ffffffffffffffffffffffffffffffffffffffff82169050919050565b6000620002e082620002b3565b9050919050565b620002f281620002d3565b8114620002fe57600080fd5b50565b6000815190506200031281620002e7565b92915050565b60008060408385031215620003325762000331620002ae565b5b6000620003428582860162000301565b9250506020620003558582860162000301565b9150509250929050565b600082825260208201905092915050565b7f41726d6164615969656c64416461707465723a207a65726f2075736463000000600082015250565b6000620003a8601d836200035f565b9150620003b58262000370565b602082019050919050565b60006020820190508181036000830152620003db8162000399565b9050919050565b7f41726d6164615969656c64416461707465723a207a65726f207661756c740000600082015250565b60006200041a601e836200035f565b91506200042782620003e2565b602082019050919050565b600060208201905081810360008301526200044d816200040b565b9050919050565b6200045f81620002d3565b82525050565b6000819050919050565b6200047a8162000465565b82525050565b600060408201905062000497600083018562000454565b620004a660208301846200046f565b9392505050565b60008115159050919050565b620004c481620004ad565b8114620004d057600080fd5b50565b600081519050620004e481620004b9565b92915050565b600060208284031215620005035762000502620002ae565b5b60006200051384828501620004d3565b91505092915050565b60805160a05160c051615b3b62000617600039600081816106620152818161088701528181610df6015281816111910152818161168d0152818161185001528181611d2f015281816126fb015261278e0152600081816108c30152818161094601528181610e3201528181610eb5015281816111cd01528181611250015281816115cc015281816117b0015281816119e701528181611b5701528181611d6b01528181611dee01528181612134015281816125c20152612d2b015260008181610a8101528181610b140152818161133b01528181611580015281816119a001528181611e950152818161239d0152612c680152615b3b6000f3fe608060405234801561001057600080fd5b50600436106101425760003560e01c8063a6aa57ce116100b8578063ecd8dc3a1161007c578063ecd8dc3a146103c6578063edc06389146103e2578063f2987ad114610412578063f2fde38b14610442578063f586384f1461045e578063fbfa77cf1461047a57610142565b8063a6aa57ce146102fc578063aa77250e1461032c578063adba98041461034a578063b423e94e1461037a578063cea9d26f146103aa57610142565b8063461178301161010a57806346117830146102125780634cdad506146102305780635300f841146102605780636c9fa59e146102905780638da5cb5b146102ae578063917c99a6146102cc57610142565b80630793b70e14610147578063249f8d40146101775780632d8b712c146101a75780632f8b34e1146101d85780633e413bee146101f4575b600080fd5b610161600480360381019061015c919061349a565b610498565b60405161016e9190613522565b60405180910390f35b610191600480360381019061018c91906135c7565b610cac565b60405161019e9190613522565b60405180910390f35b6101c160048036038101906101bc9190613643565b610fb5565b6040516101cf9291906136cd565b60405180910390f35b6101f260048036038101906101ed91906136f6565b61142e565b005b6101fc61157e565b6040516102099190613782565b60405180910390f35b61021a6115a2565b60405161022791906137ac565b60405180910390f35b61024a600480360381019061024591906137c7565b6115c8565b6040516102579190613522565b60405180910390f35b61027a600480360381019061027591906136f6565b61166b565b604051610287919061380f565b60405180910390f35b61029861168b565b6040516102a59190613782565b60405180910390f35b6102b66116af565b6040516102c391906137ac565b60405180910390f35b6102e660048036038101906102e191906135c7565b6116d5565b6040516102f39190613522565b60405180910390f35b610316600480360381019061031191906137c7565b61194b565b6040516103239190613522565b60405180910390f35b610334611ae2565b60405161034191906137ac565b60405180910390f35b610364600480360381019061035f91906137c7565b611b08565b6040516103719190613522565b60405180910390f35b610394600480360381019061038f91906135c7565b611c54565b6040516103a19190613522565b60405180910390f35b6103c460048036038101906103bf919061382a565b611f37565b005b6103e060048036038101906103db91906138a9565b611ff7565b005b6103fc60048036038101906103f791906137c7565b612130565b6040516104099190613522565b60405180910390f35b61042c6004803603810190610427919061349a565b6121d3565b6040516104399190613522565b60405180910390f35b61045c600480360381019061045791906136f6565b612926565b005b610478600480360381019061047391906136f6565b612ae5565b005b610482612d29565b60405161048f919061390a565b60405180910390f35b60006104a2612d4d565b600073ffffffffffffffffffffffffffffffffffffffff16600360009054906101000a900473ffffffffffffffffffffffffffffffffffffffff1673ffffffffffffffffffffffffffffffffffffffff1603610533576040517f08c379a000000000000000000000000000000000000000000000000000000000815260040161052a906139a8565b60405180910390fd5b3073ffffffffffffffffffffffffffffffffffffffff168480610160019061055b91906139cd565b608001602081019061056d91906136f6565b73ffffffffffffffffffffffffffffffffffffffff16146105c3576040517f08c379a00000000000000000000000000000000000000000000000000000000081526004016105ba90613a67565b60405180910390fd5b610621848061016001906105d791906139cd565b60a0013584846000016003806020026040519081016040528092919082600360200280828437600081840152601f19601f8201169050808301925050505050508560600135612d9c565b610660576040517f08c379a000000000000000000000000000000000000000000000000000000000815260040161065790613af9565b60405180910390fd5b7f000000000000000000000000000000000000000000000000000000000000000073ffffffffffffffffffffffffffffffffffffffff16846101800160200160200160208101906106b191906136f6565b73ffffffffffffffffffffffffffffffffffffffff1614610707576040517f08c379a00000000000000000000000000000000000000000000000000000000081526004016106fe90613b8b565b60405180910390fd5b6000600167ffffffffffffffff81111561072457610723613bab565b5b60405190808252806020026020018201604052801561075d57816020015b61074a6131bc565b8152602001906001900390816107425790505b5090508461076a9061459a565b8160008151811061077e5761077d6145ad565b5b6020026020010181905250600360009054906101000a900473ffffffffffffffffffffffffffffffffffffffff1673ffffffffffffffffffffffffffffffffffffffff1663d8ae136a826040518263ffffffff1660e01b81526004016107e49190614db2565b600060405180830381600087803b1580156107fe57600080fd5b505af1158015610812573d6000803e3d6000fd5b5050505060008561018001608001602081019061082f9190614dd4565b6effffffffffffffffffffffffffffff16905060008111610885576040517f08c379a000000000000000000000000000000000000000000000000000000000815260040161087c90614e4d565b60405180910390fd5b7f000000000000000000000000000000000000000000000000000000000000000073ffffffffffffffffffffffffffffffffffffffff1663095ea7b37f0000000000000000000000000000000000000000000000000000000000000000836040518363ffffffff1660e01b8152600401610900929190614e6d565b6020604051808303816000875af115801561091f573d6000803e3d6000fd5b505050506040513d601f19601f820116820180604052508101906109439190614eab565b507f000000000000000000000000000000000000000000000000000000000000000073ffffffffffffffffffffffffffffffffffffffff1663ba0876528230306040518463ffffffff1660e01b81526004016109a193929190614ed8565b6020604051808303816000875af11580156109c0573d6000803e3d6000fd5b505050506040513d601f19601f820116820180604052508101906109e49190614f24565b92506000600167ffffffffffffffff811115610a0357610a02613bab565b5b604051908082528060200260200182016040528015610a3c57816020015b610a29613207565b815260200190600190039081610a215790505b50905060405180604001604052806040518060600160405280898152602001604051806060016040528060006002811115610a7a57610a79614830565b5b81526020017f000000000000000000000000000000000000000000000000000000000000000073ffffffffffffffffffffffffffffffffffffffff16815260200160008152508152602001876effffffffffffffffffffffffffffff16815250815260200186803603810190610af09190615052565b81525081600081518110610b0757610b066145ad565b5b60200260200101819052507f000000000000000000000000000000000000000000000000000000000000000073ffffffffffffffffffffffffffffffffffffffff1663095ea7b3600360009054906101000a900473ffffffffffffffffffffffffffffffffffffffff16866040518363ffffffff1660e01b8152600401610b8f929190614e6d565b6020604051808303816000875af1158015610bae573d6000803e3d6000fd5b505050506040513d601f19601f82011682018060405250810190610bd29190614eab565b50600360009054906101000a900473ffffffffffffffffffffffffffffffffffffffff1673ffffffffffffffffffffffffffffffffffffffff1663044a40c3826040518263ffffffff1660e01b8152600401610c2e9190615212565b600060405180830381600087803b158015610c4857600080fd5b505af1158015610c5c573d6000803e3d6000fd5b50505050857f38348053c14a8a231cb682249c6b2db1b69546d2ab76277b5f25214904c07af78386604051610c92929190615234565b60405180910390a2505050610ca5612db5565b9392505050565b6000600260003373ffffffffffffffffffffffffffffffffffffffff1673ffffffffffffffffffffffffffffffffffffffff16815260200190815260200160002060009054906101000a900460ff16610d3a576040517f08c379a0000000000000000000000000000000000000000000000000000000008152600401610d31906152a9565b60405180910390fd5b610d42612d4d565b60008311610d85576040517f08c379a0000000000000000000000000000000000000000000000000000000008152600401610d7c90614e4d565b60405180910390fd5b600073ffffffffffffffffffffffffffffffffffffffff168273ffffffffffffffffffffffffffffffffffffffff1603610df4576040517f08c379a0000000000000000000000000000000000000000000000000000000008152600401610deb9061533b565b60405180910390fd5b7f000000000000000000000000000000000000000000000000000000000000000073ffffffffffffffffffffffffffffffffffffffff1663095ea7b37f0000000000000000000000000000000000000000000000000000000000000000856040518363ffffffff1660e01b8152600401610e6f929190614e6d565b6020604051808303816000875af1158015610e8e573d6000803e3d6000fd5b505050506040513d601f19601f82011682018060405250810190610eb29190614eab565b507f000000000000000000000000000000000000000000000000000000000000000073ffffffffffffffffffffffffffffffffffffffff1663ba0876528484306040518463ffffffff1660e01b8152600401610f1093929190614ed8565b6020604051808303816000875af1158015610f2f573d6000803e3d6000fd5b505050506040513d601f19601f82011682018060405250810190610f539190614f24565b90503373ffffffffffffffffffffffffffffffffffffffff167ff5704ab5bc802018ba0db8a052bb1fbdc7657d7ba66a137addf4919668d5969e848385604051610f9f9392919061535b565b60405180910390a2610faf612db5565b92915050565b600080600260003373ffffffffffffffffffffffffffffffffffffffff1673ffffffffffffffffffffffffffffffffffffffff16815260200190815260200160002060009054906101000a900460ff16611044576040517f08c379a000000000000000000000000000000000000000000000000000000000815260040161103b906152a9565b60405180910390fd5b61104c612d4d565b6000861161108f576040517f08c379a000000000000000000000000000000000000000000000000000000000815260040161108690614e4d565b60405180910390fd5b600073ffffffffffffffffffffffffffffffffffffffff168473ffffffffffffffffffffffffffffffffffffffff16036110fe576040517f08c379a00000000000000000000000000000000000000000000000000000000081526004016110f59061533b565b60405180910390fd5b600073ffffffffffffffffffffffffffffffffffffffff16600460009054906101000a900473ffffffffffffffffffffffffffffffffffffffff1673ffffffffffffffffffffffffffffffffffffffff160361118f576040517f08c379a000000000000000000000000000000000000000000000000000000000815260040161118690615404565b60405180910390fd5b7f000000000000000000000000000000000000000000000000000000000000000073ffffffffffffffffffffffffffffffffffffffff1663095ea7b37f0000000000000000000000000000000000000000000000000000000000000000886040518363ffffffff1660e01b815260040161120a929190614e6d565b6020604051808303816000875af1158015611229573d6000803e3d6000fd5b505050506040513d601f19601f8201168201806040525081019061124d9190614eab565b507f000000000000000000000000000000000000000000000000000000000000000073ffffffffffffffffffffffffffffffffffffffff1663ba0876528730306040518463ffffffff1660e01b81526004016112ab93929190614ed8565b6020604051808303816000875af11580156112ca573d6000803e3d6000fd5b505050506040513d601f19601f820116820180604052508101906112ee9190614f24565b9150600460009054906101000a900473ffffffffffffffffffffffffffffffffffffffff1673ffffffffffffffffffffffffffffffffffffffff16638e0250ee838761133988612dbf565b7f00000000000000000000000000000000000000000000000000000000000000008860006107d06040518863ffffffff1660e01b8152600401611382979695949392919061547d565b6020604051808303816000875af11580156113a1573d6000803e3d6000fd5b505050506040513d601f19601f820116820180604052508101906113c59190615501565b90503373ffffffffffffffffffffffffffffffffffffffff167f0fe60fb91e1b8a5517138c8e9371748228df4961774d94940fc1787a789c24c8878488888660405161141595949392919061552e565b60405180910390a2611425612db5565b94509492505050565b600160009054906101000a900473ffffffffffffffffffffffffffffffffffffffff1673ffffffffffffffffffffffffffffffffffffffff163373ffffffffffffffffffffffffffffffffffffffff16146114be576040517f08c379a00000000000000000000000000000000000000000000000000000000081526004016114b5906155cd565b60405180910390fd5b8073ffffffffffffffffffffffffffffffffffffffff16600360009054906101000a900473ffffffffffffffffffffffffffffffffffffffff1673ffffffffffffffffffffffffffffffffffffffff167fc877467b86b05b4d921f7f3af7eaec98288b4be820938c0b133682a25e1d8e4c60405160405180910390a380600360006101000a81548173ffffffffffffffffffffffffffffffffffffffff021916908373ffffffffffffffffffffffffffffffffffffffff16021790555050565b7f000000000000000000000000000000000000000000000000000000000000000081565b600460009054906101000a900473ffffffffffffffffffffffffffffffffffffffff1681565b60007f000000000000000000000000000000000000000000000000000000000000000073ffffffffffffffffffffffffffffffffffffffff166307a2d13a836040518263ffffffff1660e01b81526004016116239190613522565b602060405180830381865afa158015611640573d6000803e3d6000fd5b505050506040513d601f19601f820116820180604052508101906116649190614f24565b9050919050565b60026020528060005260406000206000915054906101000a900460ff1681565b7f000000000000000000000000000000000000000000000000000000000000000081565b600160009054906101000a900473ffffffffffffffffffffffffffffffffffffffff1681565b6000600260003373ffffffffffffffffffffffffffffffffffffffff1673ffffffffffffffffffffffffffffffffffffffff16815260200190815260200160002060009054906101000a900460ff16611763576040517f08c379a000000000000000000000000000000000000000000000000000000000815260040161175a906152a9565b60405180910390fd5b61176b612d4d565b600083116117ae576040517f08c379a00000000000000000000000000000000000000000000000000000000081526004016117a590615639565b60405180910390fd5b7f000000000000000000000000000000000000000000000000000000000000000073ffffffffffffffffffffffffffffffffffffffff16636e553f6584306040518363ffffffff1660e01b8152600401611809929190615659565b6020604051808303816000875af1158015611828573d6000803e3d6000fd5b505050506040513d601f19601f8201168201806040525081019061184c9190614f24565b90507f000000000000000000000000000000000000000000000000000000000000000073ffffffffffffffffffffffffffffffffffffffff1663a9059cbb83836040518363ffffffff1660e01b81526004016118a9929190614e6d565b6020604051808303816000875af11580156118c8573d6000803e3d6000fd5b505050506040513d601f19601f820116820180604052508101906118ec9190614eab565b508173ffffffffffffffffffffffffffffffffffffffff167f8fff79b574da9a93d7a5408c2fc00c4a9b2b462321c1659b2fbbb9ff3dd221ff8483604051611935929190615234565b60405180910390a2611945612db5565b92915050565b6000611955612d4d565b60008211611998576040517f08c379a000000000000000000000000000000000000000000000000000000000815260040161198f90615639565b60405180910390fd5b6119e53330847f000000000000000000000000000000000000000000000000000000000000000073ffffffffffffffffffffffffffffffffffffffff16612de2909392919063ffffffff16565b7f000000000000000000000000000000000000000000000000000000000000000073ffffffffffffffffffffffffffffffffffffffff16636e553f6583336040518363ffffffff1660e01b8152600401611a40929190615659565b6020604051808303816000875af1158015611a5f573d6000803e3d6000fd5b505050506040513d601f19601f82011682018060405250810190611a839190614f24565b90503373ffffffffffffffffffffffffffffffffffffffff167f8fff79b574da9a93d7a5408c2fc00c4a9b2b462321c1659b2fbbb9ff3dd221ff8383604051611acd929190615234565b60405180910390a2611add612db5565b919050565b600360009054906101000a900473ffffffffffffffffffffffffffffffffffffffff1681565b6000611b12612d4d565b60008211611b55576040517f08c379a0000000000000000000000000000000000000000000000000000000008152600401611b4c90614e4d565b60405180910390fd5b7f000000000000000000000000000000000000000000000000000000000000000073ffffffffffffffffffffffffffffffffffffffff1663ba0876528333336040518463ffffffff1660e01b8152600401611bb293929190614ed8565b6020604051808303816000875af1158015611bd1573d6000803e3d6000fd5b505050506040513d601f19601f82011682018060405250810190611bf59190614f24565b90503373ffffffffffffffffffffffffffffffffffffffff167fe5b754fb1abb7f01b499791d0b820ae3b6af3424ac1c59768edb53f4ec31a9298383604051611c3f929190615234565b60405180910390a2611c4f612db5565b919050565b6000600260003373ffffffffffffffffffffffffffffffffffffffff1673ffffffffffffffffffffffffffffffffffffffff16815260200190815260200160002060009054906101000a900460ff16611ce2576040517f08c379a0000000000000000000000000000000000000000000000000000000008152600401611cd9906152a9565b60405180910390fd5b611cea612d4d565b60008311611d2d576040517f08c379a0000000000000000000000000000000000000000000000000000000008152600401611d2490614e4d565b60405180910390fd5b7f000000000000000000000000000000000000000000000000000000000000000073ffffffffffffffffffffffffffffffffffffffff1663095ea7b37f0000000000000000000000000000000000000000000000000000000000000000856040518363ffffffff1660e01b8152600401611da8929190614e6d565b6020604051808303816000875af1158015611dc7573d6000803e3d6000fd5b505050506040513d601f19601f82011682018060405250810190611deb9190614eab565b507f000000000000000000000000000000000000000000000000000000000000000073ffffffffffffffffffffffffffffffffffffffff1663ba0876528430306040518463ffffffff1660e01b8152600401611e4993929190614ed8565b6020604051808303816000875af1158015611e68573d6000803e3d6000fd5b505050506040513d601f19601f82011682018060405250810190611e8c9190614f24565b9050611ed982827f000000000000000000000000000000000000000000000000000000000000000073ffffffffffffffffffffffffffffffffffffffff16612e6b9092919063ffffffff16565b8173ffffffffffffffffffffffffffffffffffffffff167fe5b754fb1abb7f01b499791d0b820ae3b6af3424ac1c59768edb53f4ec31a9298483604051611f21929190615234565b60405180910390a2611f31612db5565b92915050565b600160009054906101000a900473ffffffffffffffffffffffffffffffffffffffff1673ffffffffffffffffffffffffffffffffffffffff163373ffffffffffffffffffffffffffffffffffffffff1614611fc7576040517f08c379a0000000000000000000000000000000000000000000000000000000008152600401611fbe906155cd565b60405180910390fd5b611ff282828573ffffffffffffffffffffffffffffffffffffffff16612e6b9092919063ffffffff16565b505050565b600160009054906101000a900473ffffffffffffffffffffffffffffffffffffffff1673ffffffffffffffffffffffffffffffffffffffff163373ffffffffffffffffffffffffffffffffffffffff1614612087576040517f08c379a000000000000000000000000000000000000000000000000000000000815260040161207e906155cd565b60405180910390fd5b80600260008473ffffffffffffffffffffffffffffffffffffffff1673ffffffffffffffffffffffffffffffffffffffff16815260200190815260200160002060006101000a81548160ff0219169083151502179055508173ffffffffffffffffffffffffffffffffffffffff167f4b36b2e66f38ed349bec532105790177f1283bcbc094e6cd48565195d3033c4382604051612124919061380f565b60405180910390a25050565b60007f000000000000000000000000000000000000000000000000000000000000000073ffffffffffffffffffffffffffffffffffffffff1663c6e6f592836040518263ffffffff1660e01b815260040161218b9190613522565b602060405180830381865afa1580156121a8573d6000803e3d6000fd5b505050506040513d601f19601f820116820180604052508101906121cc9190614f24565b9050919050565b60006121dd612d4d565b600073ffffffffffffffffffffffffffffffffffffffff16600360009054906101000a900473ffffffffffffffffffffffffffffffffffffffff1673ffffffffffffffffffffffffffffffffffffffff160361226e576040517f08c379a0000000000000000000000000000000000000000000000000000000008152600401612265906139a8565b60405180910390fd5b3073ffffffffffffffffffffffffffffffffffffffff168480610160019061229691906139cd565b60800160208101906122a891906136f6565b73ffffffffffffffffffffffffffffffffffffffff16146122fe576040517f08c379a00000000000000000000000000000000000000000000000000000000081526004016122f590613a67565b60405180910390fd5b61235c8480610160019061231291906139cd565b60a0013584846000016003806020026040519081016040528092919082600360200280828437600081840152601f19601f8201169050808301925050505050508560600135612d9c565b61239b576040517f08c379a000000000000000000000000000000000000000000000000000000000815260040161239290613af9565b60405180910390fd5b7f000000000000000000000000000000000000000000000000000000000000000073ffffffffffffffffffffffffffffffffffffffff16846101800160200160200160208101906123ec91906136f6565b73ffffffffffffffffffffffffffffffffffffffff1614612442576040517f08c379a0000000000000000000000000000000000000000000000000000000008152600401612439906156f4565b60405180910390fd5b6000600167ffffffffffffffff81111561245f5761245e613bab565b5b60405190808252806020026020018201604052801561249857816020015b6124856131bc565b81526020019060019003908161247d5790505b509050846124a59061459a565b816000815181106124b9576124b86145ad565b5b6020026020010181905250600360009054906101000a900473ffffffffffffffffffffffffffffffffffffffff1673ffffffffffffffffffffffffffffffffffffffff1663d8ae136a826040518263ffffffff1660e01b815260040161251f9190614db2565b600060405180830381600087803b15801561253957600080fd5b505af115801561254d573d6000803e3d6000fd5b5050505060008561018001608001602081019061256a9190614dd4565b6effffffffffffffffffffffffffffff169050600081116125c0576040517f08c379a00000000000000000000000000000000000000000000000000000000081526004016125b790615639565b60405180910390fd5b7f000000000000000000000000000000000000000000000000000000000000000073ffffffffffffffffffffffffffffffffffffffff16636e553f6582306040518363ffffffff1660e01b815260040161261b929190615659565b6020604051808303816000875af115801561263a573d6000803e3d6000fd5b505050506040513d601f19601f8201168201806040525081019061265e9190614f24565b92506000600167ffffffffffffffff81111561267d5761267c613bab565b5b6040519080825280602002602001820160405280156126b657816020015b6126a3613207565b81526020019060019003908161269b5790505b509050604051806040016040528060405180606001604052808981526020016040518060600160405280600060028111156126f4576126f3614830565b5b81526020017f000000000000000000000000000000000000000000000000000000000000000073ffffffffffffffffffffffffffffffffffffffff16815260200160008152508152602001876effffffffffffffffffffffffffffff1681525081526020018680360381019061276a9190615052565b81525081600081518110612781576127806145ad565b5b60200260200101819052507f000000000000000000000000000000000000000000000000000000000000000073ffffffffffffffffffffffffffffffffffffffff1663095ea7b3600360009054906101000a900473ffffffffffffffffffffffffffffffffffffffff16866040518363ffffffff1660e01b8152600401612809929190614e6d565b6020604051808303816000875af1158015612828573d6000803e3d6000fd5b505050506040513d601f19601f8201168201806040525081019061284c9190614eab565b50600360009054906101000a900473ffffffffffffffffffffffffffffffffffffffff1673ffffffffffffffffffffffffffffffffffffffff1663044a40c3826040518263ffffffff1660e01b81526004016128a89190615212565b600060405180830381600087803b1580156128c257600080fd5b505af11580156128d6573d6000803e3d6000fd5b50505050857f01d8ecbb4f71eb15a38bc60c356da93b32eb7c5e7220d532b4049eedfbc31549838660405161290c929190615234565b60405180910390a250505061291f612db5565b9392505050565b600160009054906101000a900473ffffffffffffffffffffffffffffffffffffffff1673ffffffffffffffffffffffffffffffffffffffff163373ffffffffffffffffffffffffffffffffffffffff16146129b6576040517f08c379a00000000000000000000000000000000000000000000000000000000081526004016129ad906155cd565b60405180910390fd5b600073ffffffffffffffffffffffffffffffffffffffff168173ffffffffffffffffffffffffffffffffffffffff1603612a25576040517f08c379a0000000000000000000000000000000000000000000000000000000008152600401612a1c90615760565b60405180910390fd5b8073ffffffffffffffffffffffffffffffffffffffff16600160009054906101000a900473ffffffffffffffffffffffffffffffffffffffff1673ffffffffffffffffffffffffffffffffffffffff167f8be0079c531659141344cd1fd0a4f28419497f9722a3daafe3b4186f6b6457e060405160405180910390a380600160006101000a81548173ffffffffffffffffffffffffffffffffffffffff021916908373ffffffffffffffffffffffffffffffffffffffff16021790555050565b600160009054906101000a900473ffffffffffffffffffffffffffffffffffffffff1673ffffffffffffffffffffffffffffffffffffffff163373ffffffffffffffffffffffffffffffffffffffff1614612b75576040517f08c379a0000000000000000000000000000000000000000000000000000000008152600401612b6c906155cd565b60405180910390fd5b8073ffffffffffffffffffffffffffffffffffffffff16600460009054906101000a900473ffffffffffffffffffffffffffffffffffffffff1673ffffffffffffffffffffffffffffffffffffffff167f7e9741fdd4dc07cfcfd6902e9698c2ef0b5cc6c93df7de7a18b18c24863f65a960405160405180910390a380600460006101000a81548173ffffffffffffffffffffffffffffffffffffffff021916908373ffffffffffffffffffffffffffffffffffffffff160217905550600073ffffffffffffffffffffffffffffffffffffffff168173ffffffffffffffffffffffffffffffffffffffff1614612d26577f000000000000000000000000000000000000000000000000000000000000000073ffffffffffffffffffffffffffffffffffffffff1663095ea7b3827fffffffffffffffffffffffffffffffffffffffffffffffffffffffffffffffff6040518363ffffffff1660e01b8152600401612ce1929190614e6d565b6020604051808303816000875af1158015612d00573d6000803e3d6000fd5b505050506040513d601f19601f82011682018060405250810190612d249190614eab565b505b50565b7f000000000000000000000000000000000000000000000000000000000000000081565b600260005403612d92576040517f08c379a0000000000000000000000000000000000000000000000000000000008152600401612d89906157cc565b60405180910390fd5b6002600081905550565b6000612da9848484612ef1565b85149050949350505050565b6001600081905550565b60008173ffffffffffffffffffffffffffffffffffffffff1660001b9050919050565b612e65846323b872dd60e01b858585604051602401612e03939291906157ec565b604051602081830303815290604052907bffffffffffffffffffffffffffffffffffffffffffffffffffffffff19166020820180517bffffffffffffffffffffffffffffffffffffffffffffffffffffffff8381831617835250505050612f27565b50505050565b612eec8363a9059cbb60e01b8484604051602401612e8a929190614e6d565b604051602081830303815290604052907bffffffffffffffffffffffffffffffffffffffffffffffffffffffff19166020820180517bffffffffffffffffffffffffffffffffffffffffffffffffffffffff8381831617835250505050612f27565b505050565b6000838383604051602001612f0893929190615885565b6040516020818303038152906040528051906020012090509392505050565b6000612f89826040518060400160405280602081526020017f5361666545524332303a206c6f772d6c6576656c2063616c6c206661696c65648152508573ffffffffffffffffffffffffffffffffffffffff16612fef9092919063ffffffff16565b9050600081511480612fab575080806020019051810190612faa9190614eab565b5b612fea576040517f08c379a0000000000000000000000000000000000000000000000000000000008152600401612fe19061592e565b60405180910390fd5b505050565b6060612ffe8484600085613007565b90509392505050565b60608247101561304c576040517f08c379a0000000000000000000000000000000000000000000000000000000008152600401613043906159c0565b60405180910390fd5b6000808673ffffffffffffffffffffffffffffffffffffffff1685876040516130759190615a1c565b60006040518083038185875af1925050503d80600081146130b2576040519150601f19603f3d011682016040523d82523d6000602084013e6130b7565b606091505b50915091506130c8878383876130d4565b92505050949350505050565b6060831561313657600083510361312e576130ee85613149565b61312d576040517f08c379a000000000000000000000000000000000000000000000000000000000815260040161312490615a7f565b60405180910390fd5b5b829050613141565b613140838361316c565b5b949350505050565b6000808273ffffffffffffffffffffffffffffffffffffffff163b119050919050565b60008251111561317f5781518083602001fd5b806040517f08c379a00000000000000000000000000000000000000000000000000000000081526004016131b39190615ae3565b60405180910390fd5b6040518060c001604052806131cf61322d565b81526020016000801916815260200160608152602001606081526020016131f4613260565b81526020016132016132e1565b81525090565b604051806040016040528061321a6132e1565b815260200161322761331c565b81525090565b604051806060016040528061324061333f565b815260200161324d613359565b815260200161325a61333f565b81525090565b6040518060e00160405280600061ffff168152602001600068ffffffffffffffffff1681526020016000600281111561329c5761329b614830565b5b8152602001600067ffffffffffffffff168152602001600073ffffffffffffffffffffffffffffffffffffffff16815260200160008019168152602001606081525090565b6040518060600160405280600080191681526020016132fe61337f565b815260200160006effffffffffffffffffffffffffffff1681525090565b604051806040016040528061332f6133c8565b8152602001600080191681525090565b604051806040016040528060008152602001600081525090565b604051806040016040528061336c6133ea565b81526020016133796133ea565b81525090565b60405180606001604052806000600281111561339e5761339d614830565b5b8152602001600073ffffffffffffffffffffffffffffffffffffffff168152602001600081525090565b6040518060600160405280600390602082028036833780820191505090505090565b6040518060400160405280600290602082028036833780820191505090505090565b6000604051905090565b600080fd5b600080fd5b600080fd5b6000610220828403121561343c5761343b613420565b5b81905092915050565b6000819050919050565b61345881613445565b811461346357600080fd5b50565b6000813590506134758161344f565b92915050565b60006080828403121561349157613490613420565b5b81905092915050565b600080600060c084860312156134b3576134b2613416565b5b600084013567ffffffffffffffff8111156134d1576134d061341b565b5b6134dd86828701613425565b93505060206134ee86828701613466565b92505060406134ff8682870161347b565b9150509250925092565b6000819050919050565b61351c81613509565b82525050565b60006020820190506135376000830184613513565b92915050565b61354681613509565b811461355157600080fd5b50565b6000813590506135638161353d565b92915050565b600073ffffffffffffffffffffffffffffffffffffffff82169050919050565b600061359482613569565b9050919050565b6135a481613589565b81146135af57600080fd5b50565b6000813590506135c18161359b565b92915050565b600080604083850312156135de576135dd613416565b5b60006135ec85828601613554565b92505060206135fd858286016135b2565b9150509250929050565b600063ffffffff82169050919050565b61362081613607565b811461362b57600080fd5b50565b60008135905061363d81613617565b92915050565b6000806000806080858703121561365d5761365c613416565b5b600061366b87828801613554565b945050602061367c8782880161362e565b935050604061368d878288016135b2565b925050606061369e87828801613466565b91505092959194509250565b600067ffffffffffffffff82169050919050565b6136c7816136aa565b82525050565b60006040820190506136e26000830185613513565b6136ef60208301846136be565b9392505050565b60006020828403121561370c5761370b613416565b5b600061371a848285016135b2565b91505092915050565b6000819050919050565b600061374861374361373e84613569565b613723565b613569565b9050919050565b600061375a8261372d565b9050919050565b600061376c8261374f565b9050919050565b61377c81613761565b82525050565b60006020820190506137976000830184613773565b92915050565b6137a681613589565b82525050565b60006020820190506137c1600083018461379d565b92915050565b6000602082840312156137dd576137dc613416565b5b60006137eb84828501613554565b91505092915050565b60008115159050919050565b613809816137f4565b82525050565b60006020820190506138246000830184613800565b92915050565b60008060006060848603121561384357613842613416565b5b6000613851868287016135b2565b9350506020613862868287016135b2565b925050604061387386828701613554565b9150509250925092565b613886816137f4565b811461389157600080fd5b50565b6000813590506138a38161387d565b92915050565b600080604083850312156138c0576138bf613416565b5b60006138ce858286016135b2565b92505060206138df85828601613894565b9150509250929050565b60006138f48261374f565b9050919050565b613904816138e9565b82525050565b600060208201905061391f60008301846138fb565b92915050565b600082825260208201905092915050565b7f41726d6164615969656c64416461707465723a206e6f2070726976616379506f60008201527f6f6c000000000000000000000000000000000000000000000000000000000000602082015250565b6000613992602283613925565b915061399d82613936565b604082019050919050565b600060208201905081810360008301526139c181613985565b9050919050565b600080fd5b60008235600160e0038336030381126139e9576139e86139c8565b5b80830191505092915050565b7f41726d6164615969656c64416461707465723a20696e76616c6964206164617060008201527f74436f6e74726163740000000000000000000000000000000000000000000000602082015250565b6000613a51602983613925565b9150613a5c826139f5565b604082019050919050565b60006020820190508181036000830152613a8081613a44565b9050919050565b7f41726d6164615969656c64416461707465723a206164617074506172616d732060008201527f6d69736d61746368000000000000000000000000000000000000000000000000602082015250565b6000613ae3602883613925565b9150613aee82613a87565b604082019050919050565b60006020820190508181036000830152613b1281613ad6565b9050919050565b7f41726d6164615969656c64416461707465723a206e6f7420736861726520746f60008201527f6b656e20756e736869656c640000000000000000000000000000000000000000602082015250565b6000613b75602c83613925565b9150613b8082613b19565b604082019050919050565b60006020820190508181036000830152613ba481613b68565b9050919050565b7f4e487b7100000000000000000000000000000000000000000000000000000000600052604160045260246000fd5b600080fd5b6000601f19601f8301169050919050565b613bf982613bdf565b810181811067ffffffffffffffff82111715613c1857613c17613bab565b5b80604052505050565b6000613c2b61340c565b9050613c378282613bf0565b919050565b600080fd5b600060408284031215613c5757613c56613bda565b5b613c616040613c21565b90506000613c7184828501613554565b6000830152506020613c8584828501613554565b60208301525092915050565b600080fd5b600067ffffffffffffffff821115613cb157613cb0613bab565b5b602082029050919050565b600080fd5b6000613cd4613ccf84613c96565b613c21565b90508060208402830185811115613cee57613ced613cbc565b5b835b81811015613d175780613d038882613554565b845260208401935050602081019050613cf0565b5050509392505050565b600082601f830112613d3657613d35613c91565b5b6002613d43848285613cc1565b91505092915050565b600060808284031215613d6257613d61613bda565b5b613d6c6040613c21565b90506000613d7c84828501613d21565b6000830152506040613d9084828501613d21565b60208301525092915050565b60006101008284031215613db357613db2613bda565b5b613dbd6060613c21565b90506000613dcd84828501613c41565b6000830152506040613de184828501613d4c565b60208301525060c0613df584828501613c41565b60408301525092915050565b600067ffffffffffffffff821115613e1c57613e1b613bab565b5b602082029050602081019050919050565b6000613e40613e3b84613e01565b613c21565b90508083825260208201905060208402830185811115613e6357613e62613cbc565b5b835b81811015613e8c5780613e788882613466565b845260208401935050602081019050613e65565b5050509392505050565b600082601f830112613eab57613eaa613c91565b5b8135613ebb848260208601613e2d565b91505092915050565b600061ffff82169050919050565b613edb81613ec4565b8114613ee657600080fd5b50565b600081359050613ef881613ed2565b92915050565b600068ffffffffffffffffff82169050919050565b613f1c81613efe565b8114613f2757600080fd5b50565b600081359050613f3981613f13565b92915050565b60038110613f4c57600080fd5b50565b600081359050613f5e81613f3f565b92915050565b613f6d816136aa565b8114613f7857600080fd5b50565b600081359050613f8a81613f64565b92915050565b600067ffffffffffffffff821115613fab57613faa613bab565b5b602082029050602081019050919050565b600067ffffffffffffffff821115613fd757613fd6613bab565b5b602082029050919050565b6000613ff5613ff084613fbc565b613c21565b9050806020840283018581111561400f5761400e613cbc565b5b835b8181101561403857806140248882613466565b845260208401935050602081019050614011565b5050509392505050565b600082601f83011261405757614056613c91565b5b6004614064848285613fe2565b91505092915050565b600080fd5b600067ffffffffffffffff82111561408d5761408c613bab565b5b61409682613bdf565b9050602081019050919050565b82818337600083830152505050565b60006140c56140c084614072565b613c21565b9050828152602081018484840111156140e1576140e061406d565b5b6140ec8482856140a3565b509392505050565b600082601f83011261410957614108613c91565b5b81356141198482602086016140b2565b91505092915050565b6000610100828403121561413957614138613bda565b5b61414360a0613c21565b9050600061415384828501614042565b600083015250608061416784828501613466565b60208301525060a061417b84828501613466565b60408301525060c082013567ffffffffffffffff81111561419f5761419e613c3c565b5b6141ab848285016140f4565b60608301525060e082013567ffffffffffffffff8111156141cf576141ce613c3c565b5b6141db848285016140f4565b60808301525092915050565b60006141fa6141f584613f90565b613c21565b9050808382526020820190506020840283018581111561421d5761421c613cbc565b5b835b8181101561426457803567ffffffffffffffff81111561424257614241613c91565b5b80860161424f8982614122565b8552602085019450505060208101905061421f565b5050509392505050565b600082601f83011261428357614282613c91565b5b81356142938482602086016141e7565b91505092915050565b600060e082840312156142b2576142b1613bda565b5b6142bc60e0613c21565b905060006142cc84828501613ee9565b60008301525060206142e084828501613f2a565b60208301525060406142f484828501613f4f565b604083015250606061430884828501613f7b565b606083015250608061431c848285016135b2565b60808301525060a061433084828501613466565b60a08301525060c082013567ffffffffffffffff81111561435457614353613c3c565b5b6143608482850161426e565b60c08301525092915050565b6003811061437957600080fd5b50565b60008135905061438b8161436c565b92915050565b6000606082840312156143a7576143a6613bda565b5b6143b16060613c21565b905060006143c18482850161437c565b60008301525060206143d5848285016135b2565b60208301525060406143e984828501613554565b60408301525092915050565b60006effffffffffffffffffffffffffffff82169050919050565b614419816143f5565b811461442457600080fd5b50565b60008135905061443681614410565b92915050565b600060a0828403121561445257614451613bda565b5b61445c6060613c21565b9050600061446c84828501613466565b600083015250602061448084828501614391565b602083015250608061449484828501614427565b60408301525092915050565b600061022082840312156144b7576144b6613bda565b5b6144c160c0613c21565b905060006144d184828501613d9c565b6000830152506101006144e684828501613466565b60208301525061012082013567ffffffffffffffff81111561450b5761450a613c3c565b5b61451784828501613e96565b60408301525061014082013567ffffffffffffffff81111561453c5761453b613c3c565b5b61454884828501613e96565b60608301525061016082013567ffffffffffffffff81111561456d5761456c613c3c565b5b6145798482850161429c565b60808301525061018061458e8482850161443c565b60a08301525092915050565b60006145a636836144a0565b9050919050565b7f4e487b7100000000000000000000000000000000000000000000000000000000600052603260045260246000fd5b600081519050919050565b600082825260208201905092915050565b6000819050602082019050919050565b61461181613509565b82525050565b60408201600082015161462d6000850182614608565b5060208201516146406020850182614608565b50505050565b600060029050919050565b600081905092915050565b6000819050919050565b60006146728383614608565b60208301905092915050565b6000602082019050919050565b61469481614646565b61469e8184614651565b92506146a98261465c565b8060005b838110156146da5781516146c18782614666565b96506146cc8361467e565b9250506001810190506146ad565b505050505050565b6080820160008201516146f8600085018261468b565b50602082015161470b604085018261468b565b50505050565b610100820160008201516147286000850182614617565b50602082015161473b60408501826146e2565b50604082015161474e60c0850182614617565b50505050565b61475d81613445565b82525050565b600081519050919050565b600082825260208201905092915050565b6000819050602082019050919050565b600061479b8383614754565b60208301905092915050565b6000602082019050919050565b60006147bf82614763565b6147c9818561476e565b93506147d48361477f565b8060005b838110156148055781516147ec888261478f565b97506147f7836147a7565b9250506001810190506147d8565b5085935050505092915050565b61481b81613ec4565b82525050565b61482a81613efe565b82525050565b7f4e487b7100000000000000000000000000000000000000000000000000000000600052602160045260246000fd5b600381106148705761486f614830565b5b50565b60008190506148818261485f565b919050565b600061489182614873565b9050919050565b6148a181614886565b82525050565b6148b0816136aa565b82525050565b6148bf81613589565b82525050565b600081519050919050565b600082825260208201905092915050565b6000819050602082019050919050565b600060049050919050565b600081905092915050565b6000819050919050565b6000602082019050919050565b614927816148f1565b61493181846148fc565b925061493c82614907565b8060005b8381101561496d578151614954878261478f565b965061495f83614911565b925050600181019050614940565b505050505050565b600081519050919050565b600082825260208201905092915050565b60005b838110156149af578082015181840152602081019050614994565b60008484015250505050565b60006149c682614975565b6149d08185614980565b93506149e0818560208601614991565b6149e981613bdf565b840191505092915050565b600061010083016000830151614a0d600086018261491e565b506020830151614a206080860182614754565b506040830151614a3360a0860182614754565b50606083015184820360c0860152614a4b82826149bb565b915050608083015184820360e0860152614a6582826149bb565b9150508091505092915050565b6000614a7e83836149f4565b905092915050565b6000602082019050919050565b6000614a9e826148c5565b614aa881856148d0565b935083602082028501614aba856148e1565b8060005b85811015614af65784840389528151614ad78582614a72565b9450614ae283614a86565b925060208a01995050600181019050614abe565b50829750879550505050505092915050565b600060e083016000830151614b206000860182614812565b506020830151614b336020860182614821565b506040830151614b466040860182614898565b506060830151614b5960608601826148a7565b506080830151614b6c60808601826148b6565b5060a0830151614b7f60a0860182614754565b5060c083015184820360c0860152614b978282614a93565b9150508091505092915050565b60038110614bb557614bb4614830565b5b50565b6000819050614bc682614ba4565b919050565b6000614bd682614bb8565b9050919050565b614be681614bcb565b82525050565b606082016000820151614c026000850182614bdd565b506020820151614c1560208501826148b6565b506040820151614c286040850182614608565b50505050565b614c37816143f5565b82525050565b60a082016000820151614c536000850182614754565b506020820151614c666020850182614bec565b506040820151614c796080850182614c2e565b50505050565b600061022083016000830151614c986000860182614711565b506020830151614cac610100860182614754565b506040830151848203610120860152614cc582826147b4565b9150506060830151848203610140860152614ce082826147b4565b9150506080830151848203610160860152614cfb8282614b08565b91505060a0830151614d11610180860182614c3d565b508091505092915050565b6000614d288383614c7f565b905092915050565b6000602082019050919050565b6000614d48826145dc565b614d5281856145e7565b935083602082028501614d64856145f8565b8060005b85811015614da05784840389528151614d818582614d1c565b9450614d8c83614d30565b925060208a01995050600181019050614d68565b50829750879550505050505092915050565b60006020820190508181036000830152614dcc8184614d3d565b905092915050565b600060208284031215614dea57614de9613416565b5b6000614df884828501614427565b91505092915050565b7f41726d6164615969656c64416461707465723a207a65726f2073686172657300600082015250565b6000614e37601f83613925565b9150614e4282614e01565b602082019050919050565b60006020820190508181036000830152614e6681614e2a565b9050919050565b6000604082019050614e82600083018561379d565b614e8f6020830184613513565b9392505050565b600081519050614ea58161387d565b92915050565b600060208284031215614ec157614ec0613416565b5b6000614ecf84828501614e96565b91505092915050565b6000606082019050614eed6000830186613513565b614efa602083018561379d565b614f07604083018461379d565b949350505050565b600081519050614f1e8161353d565b92915050565b600060208284031215614f3a57614f39613416565b5b6000614f4884828501614f0f565b91505092915050565b600067ffffffffffffffff821115614f6c57614f6b613bab565b5b602082029050919050565b6000614f8a614f8584614f51565b613c21565b90508060208402830185811115614fa457614fa3613cbc565b5b835b81811015614fcd5780614fb98882613466565b845260208401935050602081019050614fa6565b5050509392505050565b600082601f830112614fec57614feb613c91565b5b6003614ff9848285614f77565b91505092915050565b60006080828403121561501857615017613bda565b5b6150226040613c21565b9050600061503284828501614fd7565b600083015250606061504684828501613466565b60208301525092915050565b60006080828403121561506857615067613416565b5b600061507684828501615002565b91505092915050565b600081519050919050565b600082825260208201905092915050565b6000819050602082019050919050565b600060039050919050565b600081905092915050565b6000819050919050565b6000602082019050919050565b6150e1816150ab565b6150eb81846150b6565b92506150f6826150c1565b8060005b8381101561512757815161510e878261478f565b9650615119836150cb565b9250506001810190506150fa565b505050505050565b60808201600082015161514560008501826150d8565b5060208201516151586060850182614754565b50505050565b610120820160008201516151756000850182614c3d565b50602082015161518860a085018261512f565b50505050565b600061519a838361515e565b6101208301905092915050565b6000602082019050919050565b60006151bf8261507f565b6151c9818561508a565b93506151d48361509b565b8060005b838110156152055781516151ec888261518e565b97506151f7836151a7565b9250506001810190506151d8565b5085935050505092915050565b6000602082019050818103600083015261522c81846151b4565b905092915050565b60006040820190506152496000830185613513565b6152566020830184613513565b9392505050565b7f41726d6164615969656c64416461707465723a206e6f742072656c6179657200600082015250565b6000615293601f83613925565b915061529e8261525d565b602082019050919050565b600060208201905081810360008301526152c281615286565b9050919050565b7f41726d6164615969656c64416461707465723a207a65726f207265636970696560008201527f6e74000000000000000000000000000000000000000000000000000000000000602082015250565b6000615325602283613925565b9150615330826152c9565b604082019050919050565b6000602082019050818103600083015261535481615318565b9050919050565b60006060820190506153706000830186613513565b61537d6020830185613513565b61538a604083018461379d565b949350505050565b7f41726d6164615969656c64416461707465723a206e6f20746f6b656e4d65737360008201527f656e676572000000000000000000000000000000000000000000000000000000602082015250565b60006153ee602583613925565b91506153f982615392565b604082019050919050565b6000602082019050818103600083015261541d816153e1565b9050919050565b61542d81613607565b82525050565b61543c81613445565b82525050565b6000819050919050565b600061546761546261545d84615442565b613723565b613509565b9050919050565b6154778161544c565b82525050565b600060e082019050615492600083018a613513565b61549f6020830189615424565b6154ac6040830188615433565b6154b9606083018761379d565b6154c66080830186615433565b6154d360a083018561546e565b6154e060c0830184615424565b98975050505050505050565b6000815190506154fb81613f64565b92915050565b60006020828403121561551757615516613416565b5b6000615525848285016154ec565b91505092915050565b600060a0820190506155436000830188613513565b6155506020830187613513565b61555d6040830186615424565b61556a606083018561379d565b61557760808301846136be565b9695505050505050565b7f41726d6164615969656c64416461707465723a206e6f74206f776e6572000000600082015250565b60006155b7601d83613925565b91506155c282615581565b602082019050919050565b600060208201905081810360008301526155e6816155aa565b9050919050565b7f41726d6164615969656c64416461707465723a207a65726f20616d6f756e7400600082015250565b6000615623601f83613925565b915061562e826155ed565b602082019050919050565b6000602082019050818103600083015261565281615616565b9050919050565b600060408201905061566e6000830185613513565b61567b602083018461379d565b9392505050565b7f41726d6164615969656c64416461707465723a206e6f74205553444320756e7360008201527f6869656c64000000000000000000000000000000000000000000000000000000602082015250565b60006156de602583613925565b91506156e982615682565b604082019050919050565b6000602082019050818103600083015261570d816156d1565b9050919050565b7f41726d6164615969656c64416461707465723a207a65726f206f776e65720000600082015250565b600061574a601e83613925565b915061575582615714565b602082019050919050565b600060208201905081810360008301526157798161573d565b9050919050565b7f5265656e7472616e637947756172643a207265656e7472616e742063616c6c00600082015250565b60006157b6601f83613925565b91506157c182615780565b602082019050919050565b600060208201905081810360008301526157e5816157a9565b9050919050565b6000606082019050615801600083018661379d565b61580e602083018561379d565b61581b6040830184613513565b949350505050565b600081905092915050565b615837816150ab565b6158418184615823565b925061584c826150c1565b8060005b8381101561587d578151615864878261478f565b965061586f836150cb565b925050600181019050615850565b505050505050565b600060a08201905061589a6000830186615433565b6158a7602083018561582e565b6158b46080830184615433565b949350505050565b7f5361666545524332303a204552433230206f7065726174696f6e20646964206e60008201527f6f74207375636365656400000000000000000000000000000000000000000000602082015250565b6000615918602a83613925565b9150615923826158bc565b604082019050919050565b600060208201905081810360008301526159478161590b565b9050919050565b7f416464726573733a20696e73756666696369656e742062616c616e636520666f60008201527f722063616c6c0000000000000000000000000000000000000000000000000000602082015250565b60006159aa602683613925565b91506159b58261594e565b604082019050919050565b600060208201905081810360008301526159d98161599d565b9050919050565b600081905092915050565b60006159f682614975565b615a0081856159e0565b9350615a10818560208601614991565b80840191505092915050565b6000615a2882846159eb565b915081905092915050565b7f416464726573733a2063616c6c20746f206e6f6e2d636f6e7472616374000000600082015250565b6000615a69601d83613925565b9150615a7482615a33565b602082019050919050565b60006020820190508181036000830152615a9881615a5c565b9050919050565b600081519050919050565b6000615ab582615a9f565b615abf8185613925565b9350615acf818560208601614991565b615ad881613bdf565b840191505092915050565b60006020820190508181036000830152615afd8184615aaa565b90509291505056fea26469706673582212208d232ec3bc7db8bd37cc54be80429ef22f53d50273ffb935705c2ebfbed1744564736f6c63430008110033","linkReferences":{}},"methodIdentifiers":{"lend(uint256)":"a6aa57ce","lendAndShield((((uint256,uint256),(uint256[2],uint256[2]),(uint256,uint256)),bytes32,bytes32[],bytes32[],(uint16,uint72,uint8,uint64,address,bytes32,(bytes32[4],bytes32,bytes32,bytes,bytes)[]),(bytes32,(uint8,address,uint256),uint120)),bytes32,(bytes32[3],bytes32))":"f2987ad1","lendPrivate(uint256,address)":"917c99a6","owner()":"8da5cb5b","previewLend(uint256)":"edc06389","previewRedeem(uint256)":"4cdad506","privacyPool()":"aa77250e","redeemAndShield((((uint256,uint256),(uint256[2],uint256[2]),(uint256,uint256)),bytes32,bytes32[],bytes32[],(uint16,uint72,uint8,uint64,address,bytes32,(bytes32[4],bytes32,bytes32,bytes,bytes)[]),(bytes32,(uint8,address,uint256),uint120)),bytes32,(bytes32[3],bytes32))":"0793b70e","redeemAndUnshield(uint256,address)":"249f8d40","redeemAndUnshieldCCTP(uint256,uint32,address,bytes32)":"2d8b712c","redeemPrivate(uint256,address)":"b423e94e","redeemShares(uint256)":"adba9804","relayers(address)":"5300f841","rescueTokens(address,address,uint256)":"cea9d26f","setPrivacyPool(address)":"2f8b34e1","setRelayer(address,bool)":"ecd8dc3a","setTokenMessenger(address)":"f586384f","shareToken()":"6c9fa59e","tokenMessenger()":"46117830","transferOwnership(address)":"f2fde38b","usdc()":"3e413bee","vault()":"fbfa77cf"},"id":43}