{"abi":[{"type":"constructor","inputs":[{"name":"_localDomain","type":"uint32","internalType":"uint32"},{"name":"_relayer","type":"address","internalType":"address"}],"stateMutability":"nonpayable"},{"type":"function","name":"localDomain","inputs":[],"outputs":[{"name":"","type":"uint32","internalType":"uint32"}],"stateMutability":"view"},{"type":"function","name":"nextMessageNonce","inputs":[],"outputs":[{"name":"","type":"uint64","internalType":"uint64"}],"stateMutability":"view"},{"type":"function","name":"receiveMessage","inputs":[{"name":"message","type":"bytes","internalType":"bytes"},{"name":"attestation","type":"bytes","internalType":"bytes"}],"outputs":[{"name":"success","type":"bool","internalType":"bool"}],"stateMutability":"nonpayable"},{"type":"function","name":"relayer","inputs":[],"outputs":[{"name":"","type":"address","internalType":"address"}],"stateMutability":"view"},{"type":"function","name":"sendMessageForBurn","inputs":[{"name":"destinationDomain","type":"uint32","internalType":"uint32"},{"name":"destinationTokenMessenger","type":"bytes32","internalType":"bytes32"},{"name":"destinationCaller","type":"bytes32","internalType":"bytes32"},{"name":"burnNonce","type":"uint64","internalType":"uint64"},{"name":"burnToken","type":"address","internalType":"address"},{"name":"mintRecipient","type":"bytes32","internalType":"bytes32"},{"name":"amount","type":"uint256","internalType":"uint256"},{"name":"messageSender","type":"bytes32","internalType":"bytes32"},{"name":"maxFee","type":"uint256","internalType":"uint256"},{"name":"minFinalityThreshold","type":"uint32","internalType":"uint32"},{"name":"hookData","type":"bytes","internalType":"bytes"}],"outputs":[],"stateMutability":"nonpayable"},{"type":"function","name":"setRelayer","inputs":[{"name":"_relayer","type":"address","internalType":"address"}],"outputs":[],"stateMutability":"nonpayable"},{"type":"function","name":"setTokenMessenger","inputs":[{"name":"_tokenMessenger","type":"address","internalType":"address"}],"outputs":[],"stateMutability":"nonpayable"},{"type":"function","name":"tokenMessenger","inputs":[],"outputs":[{"name":"","type":"address","internalType":"address"}],"stateMutability":"view"},{"type":"function","name":"usedNonces","inputs":[{"name":"","type":"bytes32","internalType":"bytes32"}],"outputs":[{"name":"","type":"bool","internalType":"bool"}],"stateMutability":"view"},{"type":"event","name":"MessageReceived","inputs":[{"name":"nonce","type":"uint64","indexed":true,"internalType":"uint64"},{"name":"sourceDomain","type":"uint32","indexed":true,"internalType":"uint32"},{"name":"sender","type":"bytes32","indexed":true,"internalType":"bytes32"},{"name":"finalityThresholdExecuted","type":"uint32","indexed":false,"internalType":"uint32"}],"anonymous":false},{"type":"event","name":"MessageSent","inputs":[{"name":"nonce","type":"uint64","indexed":true,"internalType":"uint64"},{"name":"sourceDomain","type":"uint32","indexed":true,"internalType":"uint32"},{"name":"destinationDomain","type":"uint32","indexed":true,"internalType":"uint32"},{"name":"sender","type":"bytes32","indexed":false,"internalType":"bytes32"},{"name":"recipient","type":"bytes32","indexed":false,"internalType":"bytes32"},{"name":"destinationCaller","type":"bytes32","indexed":false,"internalType":"bytes32"},{"name":"minFinalityThreshold","type":"uint32","indexed":false,"internalType":"uint32"},{"name":"messageBody","type":"bytes","indexed":false,"internalType":"bytes"}],"anonymous":false}],"bytecode":{"object":"0x60a06040523480156200001157600080fd5b5060405162001fc038038062001fc083398181016040528101906200003791906200013f565b8163ffffffff1660808163ffffffff168152505080600160006101000a81548173ffffffffffffffffffffffffffffffffffffffff021916908373ffffffffffffffffffffffffffffffffffffffff160217905550505062000186565b600080fd5b600063ffffffff82169050919050565b620000b48162000099565b8114620000c057600080fd5b50565b600081519050620000d481620000a9565b92915050565b600073ffffffffffffffffffffffffffffffffffffffff82169050919050565b60006200010782620000da565b9050919050565b6200011981620000fa565b81146200012557600080fd5b50565b60008151905062000139816200010e565b92915050565b6000806040838503121562000159576200015862000094565b5b60006200016985828601620000c3565b92505060206200017c8582860162000128565b9150509250929050565b608051611e10620001b0600039600081816104a80152818161066a015261076e0152611e106000f3fe608060405234801561001057600080fd5b50600436106100935760003560e01c80638406c079116100665780638406c0791461011e5780638d3638f41461013c578063cb3bcaec1461015a578063f586384f14610178578063feb617241461019457610093565b806328cd598b1461009857806346117830146100b457806357ecfd28146100d25780636548e9bc14610102575b600080fd5b6100b260048036038101906100ad919061111a565b6101c4565b005b6100bc6102e0565b6040516100c99190611239565b60405180910390f35b6100ec60048036038101906100e791906112b4565b610304565b6040516100f99190611350565b60405180910390f35b61011c6004803603810190610117919061136b565b6103ac565b005b610126610480565b6040516101339190611239565b60405180910390f35b6101446104a6565b60405161015191906113a7565b60405180910390f35b6101626104ca565b60405161016f91906113d1565b60405180910390f35b610192600480360381019061018d919061136b565b6104e4565b005b6101ae60048036038101906101a991906113ec565b6105b6565b6040516101bb9190611350565b60405180910390f35b60008054906101000a900473ffffffffffffffffffffffffffffffffffffffff1673ffffffffffffffffffffffffffffffffffffffff163373ffffffffffffffffffffffffffffffffffffffff1614610252576040517f08c379a000000000000000000000000000000000000000000000000000000000815260040161024990611476565b60405180910390fd5b60006040518061014001604052808d63ffffffff1681526020018c81526020018b81526020018a67ffffffffffffffff1681526020018973ffffffffffffffffffffffffffffffffffffffff1681526020018881526020018781526020018681526020018581526020018463ffffffff1681525090506102d281836105d6565b505050505050505050505050565b60008054906101000a900473ffffffffffffffffffffffffffffffffffffffff1681565b6000600160009054906101000a900473ffffffffffffffffffffffffffffffffffffffff1673ffffffffffffffffffffffffffffffffffffffff163373ffffffffffffffffffffffffffffffffffffffff1614610396576040517f08c379a000000000000000000000000000000000000000000000000000000000815260040161038d906114e2565b60405180910390fd5b6103a08585610714565b60019050949350505050565b600160009054906101000a900473ffffffffffffffffffffffffffffffffffffffff1673ffffffffffffffffffffffffffffffffffffffff163373ffffffffffffffffffffffffffffffffffffffff161461043c576040517f08c379a00000000000000000000000000000000000000000000000000000000081526004016104339061154e565b60405180910390fd5b80600160006101000a81548173ffffffffffffffffffffffffffffffffffffffff021916908373ffffffffffffffffffffffffffffffffffffffff16021790555050565b600160009054906101000a900473ffffffffffffffffffffffffffffffffffffffff1681565b7f000000000000000000000000000000000000000000000000000000000000000081565b600360009054906101000a900467ffffffffffffffff1681565b600073ffffffffffffffffffffffffffffffffffffffff1660008054906101000a900473ffffffffffffffffffffffffffffffffffffffff1673ffffffffffffffffffffffffffffffffffffffff1614610573576040517f08c379a000000000000000000000000000000000000000000000000000000000815260040161056a906115ba565b60405180910390fd5b806000806101000a81548173ffffffffffffffffffffffffffffffffffffffff021916908373ffffffffffffffffffffffffffffffffffffffff16021790555050565b60026020528060005260406000206000915054906101000a900460ff1681565b60006003600081819054906101000a900467ffffffffffffffff16809291906105fe90611609565b91906101000a81548167ffffffffffffffff021916908367ffffffffffffffff1602179055509050600061065b6106388560800151610a3c565b8560a001518660c001518760e0015188610100015189610100015160008a610a5f565b9050836000015163ffffffff167f000000000000000000000000000000000000000000000000000000000000000063ffffffff168367ffffffffffffffff167f7b521b3a13d6ecf7dadd0f3a3aea563b98897c0f765d5823264f3ae38ac0a5416106e460008054906101000a900473ffffffffffffffffffffffffffffffffffffffff16610a3c565b886020015189604001518a6101200151886040516107069594939291906116c7565b60405180910390a450505050565b600163ffffffff166107268383610aa0565b63ffffffff161461076c576040517f08c379a00000000000000000000000000000000000000000000000000000000081526004016107639061176d565b60405180910390fd5b7f000000000000000000000000000000000000000000000000000000000000000063ffffffff1661079d8383610b1f565b63ffffffff16146107e3576040517f08c379a00000000000000000000000000000000000000000000000000000000081526004016107da906117d9565b60405180910390fd5b60006107ef8383610b9e565b90506000801b811480610809575061080633610a3c565b81145b610848576040517f08c379a000000000000000000000000000000000000000000000000000000000815260040161083f90611845565b60405180910390fd5b60006108548484610c1a565b905060006108628585610c98565b9050600082826040516020016108799291906118d1565b6040516020818303038152906040528051906020012090506002600082815260200190815260200160002060009054906101000a900460ff16156108f2576040517f08c379a00000000000000000000000000000000000000000000000000000000081526004016108e990611949565b60405180910390fd5b60016002600083815260200190815260200160002060006101000a81548160ff021916908315150217905550600061092a8787610d17565b905060006109388888610d93565b9050818563ffffffff168567ffffffffffffffff167f752b5f3a74a9b23fe6e7af249612df01a4cee70dd7951382f441220b622c931c8460405161097c91906113a7565b60405180910390a460008054906101000a900473ffffffffffffffffffffffffffffffffffffffff1673ffffffffffffffffffffffffffffffffffffffff16620430db8684846109cc8d8d610e12565b336040518763ffffffff1660e01b81526004016109ee96959493929190611996565b6020604051808303816000875af1158015610a0d573d6000803e3d6000fd5b505050506040513d601f19601f82011682018060405250810190610a319190611a1e565b505050505050505050565b60008173ffffffffffffffffffffffffffffffffffffffff1660001b9050919050565b606060018989898989898989604051602001610a8399989796959493929190611ac9565b604051602081830303815290604052905098975050505050505050565b6000607c838390501015610ae9576040517f08c379a0000000000000000000000000000000000000000000000000000000008152600401610ae090611bb4565b60405180910390fd5b828260009060046000610afc9190611bd4565b92610b0993929190611c12565b90610b149190611c91565b60e01c905092915050565b6000607c838390501015610b68576040517f08c379a0000000000000000000000000000000000000000000000000000000008152600401610b5f90611bb4565b60405180910390fd5b828260089060046008610b7b9190611bd4565b92610b8893929190611c12565b90610b939190611c91565b60e01c905092915050565b6000607c838390501015610be7576040517f08c379a0000000000000000000000000000000000000000000000000000000008152600401610bde90611bb4565b60405180910390fd5b828260549060206054610bfa9190611bd4565b92610c0793929190611c12565b90610c129190611cf0565b905092915050565b6000607c838390501015610c63576040517f08c379a0000000000000000000000000000000000000000000000000000000008152600401610c5a90611bb4565b60405180910390fd5b8282600490600480610c759190611bd4565b92610c8293929190611c12565b90610c8d9190611c91565b60e01c905092915050565b6000607c838390501015610ce1576040517f08c379a0000000000000000000000000000000000000000000000000000000008152600401610cd890611bb4565b60405180910390fd5b8282600c906008600c610cf49190611bd4565b92610d0193929190611c12565b90610d0c9190611d7b565b60c01c905092915050565b6000607c838390501015610d60576040517f08c379a0000000000000000000000000000000000000000000000000000000008152600401610d5790611bb4565b60405180910390fd5b828260149060206014610d739190611bd4565b92610d8093929190611c12565b90610d8b9190611cf0565b905092915050565b6000607c838390501015610ddc576040517f08c379a0000000000000000000000000000000000000000000000000000000008152600401610dd390611bb4565b60405180910390fd5b828260789060046078610def9190611bd4565b92610dfc93929190611c12565b90610e079190611c91565b60e01c905092915050565b366000607c848490501015610e5c576040517f08c379a0000000000000000000000000000000000000000000000000000000008152600401610e5390611bb4565b60405180910390fd5b8383607c908092610e6f93929190611c12565b915091509250929050565b6000604051905090565b600080fd5b600080fd5b600063ffffffff82169050919050565b610ea781610e8e565b8114610eb257600080fd5b50565b600081359050610ec481610e9e565b92915050565b6000819050919050565b610edd81610eca565b8114610ee857600080fd5b50565b600081359050610efa81610ed4565b92915050565b600067ffffffffffffffff82169050919050565b610f1d81610f00565b8114610f2857600080fd5b50565b600081359050610f3a81610f14565b92915050565b600073ffffffffffffffffffffffffffffffffffffffff82169050919050565b6000610f6b82610f40565b9050919050565b610f7b81610f60565b8114610f8657600080fd5b50565b600081359050610f9881610f72565b92915050565b6000819050919050565b610fb181610f9e565b8114610fbc57600080fd5b50565b600081359050610fce81610fa8565b92915050565b600080fd5b600080fd5b6000601f19601f8301169050919050565b7f4e487b7100000000000000000000000000000000000000000000000000000000600052604160045260246000fd5b61102782610fde565b810181811067ffffffffffffffff8211171561104657611045610fef565b5b80604052505050565b6000611059610e7a565b9050611065828261101e565b919050565b600067ffffffffffffffff82111561108557611084610fef565b5b61108e82610fde565b9050602081019050919050565b82818337600083830152505050565b60006110bd6110b88461106a565b61104f565b9050828152602081018484840111156110d9576110d8610fd9565b5b6110e484828561109b565b509392505050565b600082601f83011261110157611100610fd4565b5b81356111118482602086016110aa565b91505092915050565b60008060008060008060008060008060006101608c8e0312156111405761113f610e84565b5b600061114e8e828f01610eb5565b9b5050602061115f8e828f01610eeb565b9a505060406111708e828f01610eeb565b99505060606111818e828f01610f2b565b98505060806111928e828f01610f89565b97505060a06111a38e828f01610eeb565b96505060c06111b48e828f01610fbf565b95505060e06111c58e828f01610eeb565b9450506101006111d78e828f01610fbf565b9350506101206111e98e828f01610eb5565b9250506101408c013567ffffffffffffffff81111561120b5761120a610e89565b5b6112178e828f016110ec565b9150509295989b509295989b9093969950565b61123381610f60565b82525050565b600060208201905061124e600083018461122a565b92915050565b600080fd5b600080fd5b60008083601f84011261127457611273610fd4565b5b8235905067ffffffffffffffff81111561129157611290611254565b5b6020830191508360018202830111156112ad576112ac611259565b5b9250929050565b600080600080604085870312156112ce576112cd610e84565b5b600085013567ffffffffffffffff8111156112ec576112eb610e89565b5b6112f88782880161125e565b9450945050602085013567ffffffffffffffff81111561131b5761131a610e89565b5b6113278782880161125e565b925092505092959194509250565b60008115159050919050565b61134a81611335565b82525050565b60006020820190506113656000830184611341565b92915050565b60006020828403121561138157611380610e84565b5b600061138f84828501610f89565b91505092915050565b6113a181610e8e565b82525050565b60006020820190506113bc6000830184611398565b92915050565b6113cb81610f00565b82525050565b60006020820190506113e660008301846113c2565b92915050565b60006020828403121561140257611401610e84565b5b600061141084828501610eeb565b91505092915050565b600082825260208201905092915050565b7f4f6e6c7920546f6b656e4d657373656e67657200000000000000000000000000600082015250565b6000611460601383611419565b915061146b8261142a565b602082019050919050565b6000602082019050818103600083015261148f81611453565b9050919050565b7f4d6f636b3a204f6e6c792072656c617965720000000000000000000000000000600082015250565b60006114cc601283611419565b91506114d782611496565b602082019050919050565b600060208201905081810360008301526114fb816114bf565b9050919050565b7f4f6e6c792072656c617965720000000000000000000000000000000000000000600082015250565b6000611538600c83611419565b915061154382611502565b602082019050919050565b600060208201905081810360008301526115678161152b565b9050919050565b7f416c726561647920736574000000000000000000000000000000000000000000600082015250565b60006115a4600b83611419565b91506115af8261156e565b602082019050919050565b600060208201905081810360008301526115d381611597565b9050919050565b7f4e487b7100000000000000000000000000000000000000000000000000000000600052601160045260246000fd5b600061161482610f00565b915067ffffffffffffffff820361162e5761162d6115da565b5b600182019050919050565b61164281610eca565b82525050565b600081519050919050565b600082825260208201905092915050565b60005b83811015611682578082015181840152602081019050611667565b60008484015250505050565b600061169982611648565b6116a38185611653565b93506116b3818560208601611664565b6116bc81610fde565b840191505092915050565b600060a0820190506116dc6000830188611639565b6116e96020830187611639565b6116f66040830186611639565b6117036060830185611398565b8181036080830152611715818461168e565b90509695505050505050565b7f496e76616c6964206d6573736167652076657273696f6e000000000000000000600082015250565b6000611757601783611419565b915061176282611721565b602082019050919050565b600060208201905081810360008301526117868161174a565b9050919050565b7f57726f6e672064657374696e6174696f6e20646f6d61696e0000000000000000600082015250565b60006117c3601883611419565b91506117ce8261178d565b602082019050919050565b600060208201905081810360008301526117f2816117b6565b9050919050565b7f496e76616c69642064657374696e6174696f6e2063616c6c6572000000000000600082015250565b600061182f601a83611419565b915061183a826117f9565b602082019050919050565b6000602082019050818103600083015261185e81611822565b9050919050565b60008160e01b9050919050565b600061187d82611865565b9050919050565b61189561189082610e8e565b611872565b82525050565b60008160c01b9050919050565b60006118b38261189b565b9050919050565b6118cb6118c682610f00565b6118a8565b82525050565b60006118dd8285611884565b6004820191506118ed82846118ba565b6008820191508190509392505050565b7f4d65737361676520616c72656164792070726f63657373656400000000000000600082015250565b6000611933601983611419565b915061193e826118fd565b602082019050919050565b6000602082019050818103600083015261196281611926565b9050919050565b60006119758385611653565b935061198283858461109b565b61198b83610fde565b840190509392505050565b600060a0820190506119ab6000830189611398565b6119b86020830188611639565b6119c56040830187611398565b81810360608301526119d8818587611969565b90506119e7608083018461122a565b979650505050505050565b6119fb81611335565b8114611a0657600080fd5b50565b600081519050611a18816119f2565b92915050565b600060208284031215611a3457611a33610e84565b5b6000611a4284828501611a09565b91505092915050565b6000819050919050565b611a66611a6182610eca565b611a4b565b82525050565b6000819050919050565b611a87611a8282610f9e565b611a6c565b82525050565b600081905092915050565b6000611aa382611648565b611aad8185611a8d565b9350611abd818560208601611664565b80840191505092915050565b6000611ad5828c611884565b600482019150611ae5828b611a55565b602082019150611af5828a611a55565b602082019150611b058289611a76565b602082019150611b158288611a55565b602082019150611b258287611a76565b602082019150611b358286611a76565b602082019150611b458285611a76565b602082019150611b558284611a98565b91508190509a9950505050505050505050565b7f4d65737361676556323a206d65737361676520746f6f2073686f727400000000600082015250565b6000611b9e601c83611419565b9150611ba982611b68565b602082019050919050565b60006020820190508181036000830152611bcd81611b91565b9050919050565b6000611bdf82610f9e565b9150611bea83610f9e565b9250828201905080821115611c0257611c016115da565b5b92915050565b600080fd5b600080fd5b60008085851115611c2657611c25611c08565b5b83861115611c3757611c36611c0d565b5b6001850283019150848603905094509492505050565b600082905092915050565b60007fffffffff0000000000000000000000000000000000000000000000000000000082169050919050565b600082821b905092915050565b6000611c9d8383611c4d565b82611ca88135611c58565b92506004821015611ce857611ce37fffffffff0000000000000000000000000000000000000000000000000000000083600403600802611c84565b831692505b505092915050565b6000611cfc8383611c4d565b82611d078135610eca565b92506020821015611d4757611d427fffffffffffffffffffffffffffffffffffffffffffffffffffffffffffffffff83602003600802611c84565b831692505b505092915050565b60007fffffffffffffffff00000000000000000000000000000000000000000000000082169050919050565b6000611d878383611c4d565b82611d928135611d4f565b92506008821015611dd257611dcd7fffffffffffffffff00000000000000000000000000000000000000000000000083600803600802611c84565b831692505b50509291505056fea2646970667358221220b7bd19b8223c8479c265ba69bba5384a4c40a34ed001dd2164e6c44b8fb0b43164736f6c63430008110033","linkReferences":{}},"methodIdentifiers":{"localDomain()":"8d3638f4","nextMessageNonce()":"cb3bcaec","receiveMessage(bytes,bytes)":"57ecfd28","relayer()":"8406c079","sendMessageForBurn(uint32,bytes32,bytes32,uint64,address,bytes32,uint256,bytes32,uint256,uint32,bytes)":"28cd598b","setRelayer(address)":"6548e9bc","setTokenMessenger(address)":"f586384f","tokenMessenger()":"46117830","usedNonces(bytes32)":"feb61724"},"id":3}