{"abi":[{"type":"constructor","inputs":[{"name":"_messageTransmitter","type":"address","internalType":"address"},{"name":"_usdc","type":"address","internalType":"address"},{"name":"_localDomain","type":"uint32","internalType":"uint32"}],"stateMutability":"nonpayable"},{"type":"function","name":"depositForBurn","inputs":[{"name":"amount","type":"uint256","internalType":"uint256"},{"name":"destinationDomain","type":"uint32","internalType":"uint32"},{"name":"mintRecipient","type":"bytes32","internalType":"bytes32"},{"name":"burnToken","type":"address","internalType":"address"},{"name":"destinationCaller","type":"bytes32","internalType":"bytes32"},{"name":"maxFee","type":"uint256","internalType":"uint256"},{"name":"minFinalityThreshold","type":"uint32","internalType":"uint32"}],"outputs":[{"name":"nonce","type":"uint64","internalType":"uint64"}],"stateMutability":"nonpayable"},{"type":"function","name":"depositForBurnWithHook","inputs":[{"name":"amount","type":"uint256","internalType":"uint256"},{"name":"destinationDomain","type":"uint32","internalType":"uint32"},{"name":"mintRecipient","type":"bytes32","internalType":"bytes32"},{"name":"burnToken","type":"address","internalType":"address"},{"name":"destinationCaller","type":"bytes32","internalType":"bytes32"},{"name":"maxFee","type":"uint256","internalType":"uint256"},{"name":"minFinalityThreshold","type":"uint32","internalType":"uint32"},{"name":"hookData","type":"bytes","internalType":"bytes"}],"outputs":[{"name":"nonce","type":"uint64","internalType":"uint64"}],"stateMutability":"nonpayable"},{"type":"function","name":"handleReceiveMessage","inputs":[{"name":"sourceDomain","type":"uint32","internalType":"uint32"},{"name":"sender","type":"bytes32","internalType":"bytes32"},{"name":"finalityThresholdExecuted","type":"uint32","internalType":"uint32"},{"name":"messageBody","type":"bytes","internalType":"bytes"},{"name":"relayerAddress","type":"address","internalType":"address"}],"outputs":[{"name":"","type":"bool","internalType":"bool"}],"stateMutability":"nonpayable"},{"type":"function","name":"localDomain","inputs":[],"outputs":[{"name":"","type":"uint32","internalType":"uint32"}],"stateMutability":"view"},{"type":"function","name":"messageTransmitter","inputs":[],"outputs":[{"name":"","type":"address","internalType":"address"}],"stateMutability":"view"},{"type":"function","name":"nextNonce","inputs":[],"outputs":[{"name":"","type":"uint64","internalType":"uint64"}],"stateMutability":"view"},{"type":"function","name":"remoteTokenMessengers","inputs":[{"name":"","type":"uint32","internalType":"uint32"}],"outputs":[{"name":"","type":"bytes32","internalType":"bytes32"}],"stateMutability":"view"},{"type":"function","name":"setRemoteTokenMessenger","inputs":[{"name":"domain","type":"uint32","internalType":"uint32"},{"name":"tokenMessenger","type":"bytes32","internalType":"bytes32"}],"outputs":[],"stateMutability":"nonpayable"},{"type":"function","name":"usdc","inputs":[],"outputs":[{"name":"","type":"address","internalType":"address"}],"stateMutability":"view"}],"bytecode":{"object":"0x60e06040523480156200001157600080fd5b50604051620021c4380380620021c4833981810160405281019062000037919062000167565b8273ffffffffffffffffffffffffffffffffffffffff1660808173ffffffffffffffffffffffffffffffffffffffff16815250508173ffffffffffffffffffffffffffffffffffffffff1660a08173ffffffffffffffffffffffffffffffffffffffff16815250508063ffffffff1660c08163ffffffff1681525050505050620001c3565b600080fd5b600073ffffffffffffffffffffffffffffffffffffffff82169050919050565b6000620000ee82620000c1565b9050919050565b6200010081620000e1565b81146200010c57600080fd5b50565b6000815190506200012081620000f5565b92915050565b600063ffffffff82169050919050565b620001418162000126565b81146200014d57600080fd5b50565b600081519050620001618162000136565b92915050565b600080600060608486031215620001835762000182620000bc565b5b600062000193868287016200010f565b9350506020620001a6868287016200010f565b9250506040620001b98682870162000150565b9150509250925092565b60805160a05160c051611f8b6200023960003960006108dc0152600081816102bd0152818161038c0152818161056f015281816105bd0152818161071f015281816107660152818161090201528181610a1e0152610a650152600081816101ef015281816108a00152610dd40152611f8b6000f3fe608060405234801561001057600080fd5b50600436106100925760003560e01c80637b04c181116100665780637b04c1811461013157806382a5e6651461014f5780638d3638f41461017f5780638e0250ee1461019d578063d69c3d30146101cd57610092565b80620430db146100975780633e413bee146100c75780636b51d203146100e5578063779b432d14610101575b600080fd5b6100b160048036038101906100ac919061129a565b6101eb565b6040516100be919061134f565b60405180910390f35b6100cf61056d565b6040516100dc9190611379565b60405180910390f35b6100ff60048036038101906100fa9190611394565b610591565b005b61011b6004803603810190610116919061140a565b6105b9565b6040516101289190611503565b60405180910390f35b61013961089e565b6040516101469190611379565b60405180910390f35b6101696004803603810190610164919061151e565b6108c2565b604051610176919061155a565b60405180910390f35b6101876108da565b6040516101949190611584565b60405180910390f35b6101b760048036038101906101b2919061159f565b6108fe565b6040516101c49190611503565b60405180910390f35b6101d5610b66565b6040516101e29190611503565b60405180910390f35b60007f000000000000000000000000000000000000000000000000000000000000000073ffffffffffffffffffffffffffffffffffffffff163373ffffffffffffffffffffffffffffffffffffffff161461027b576040517f08c379a00000000000000000000000000000000000000000000000000000000081526004016102729061169e565b60405180910390fd5b600080600061028a8787610b7e565b9250925092506000828461029e91906116ed565b905060006102ac8989610cad565b905060006102b982610d29565b90507f000000000000000000000000000000000000000000000000000000000000000073ffffffffffffffffffffffffffffffffffffffff166340c10f1982856040518363ffffffff1660e01b8152600401610316929190611730565b600060405180830381600087803b15801561033057600080fd5b505af1158015610344573d6000803e3d6000fd5b505050506000851180156103855750600073ffffffffffffffffffffffffffffffffffffffff168873ffffffffffffffffffffffffffffffffffffffff1614155b15610418577f000000000000000000000000000000000000000000000000000000000000000073ffffffffffffffffffffffffffffffffffffffff166340c10f1989876040518363ffffffff1660e01b81526004016103e5929190611730565b600060405180830381600087803b1580156103ff57600080fd5b505af1158015610413573d6000803e3d6000fd5b505050505b61042181610d36565b801561042e575060008451115b15610559576107d063ffffffff168b63ffffffff16106104d2578073ffffffffffffffffffffffffffffffffffffffff166311cffb678e8e8e8e8e6040518663ffffffff1660e01b81526004016104899594939291906117b7565b6020604051808303816000875af11580156104a8573d6000803e3d6000fd5b505050506040513d601f19601f820116820180604052508101906104cc9190611831565b50610558565b8073ffffffffffffffffffffffffffffffffffffffff16637c92f2198e8e8e8e8e6040518663ffffffff1660e01b81526004016105139594939291906117b7565b6020604051808303816000875af1158015610532573d6000803e3d6000fd5b505050506040513d601f19601f820116820180604052508101906105569190611831565b505b5b600196505050505050509695505050505050565b7f000000000000000000000000000000000000000000000000000000000000000081565b80600160008463ffffffff1663ffffffff168152602001908152602001600020819055505050565b60007f000000000000000000000000000000000000000000000000000000000000000073ffffffffffffffffffffffffffffffffffffffff168773ffffffffffffffffffffffffffffffffffffffff1614610649576040517f08c379a0000000000000000000000000000000000000000000000000000000008152600401610640906118aa565b60405180910390fd5b60008a1161068c576040517f08c379a000000000000000000000000000000000000000000000000000000000815260040161068390611916565b60405180910390fd5b6000801b88036106d1576040517f08c379a00000000000000000000000000000000000000000000000000000000081526004016106c890611982565b60405180910390fd5b60008383905011610717576040517f08c379a000000000000000000000000000000000000000000000000000000000815260040161070e906119ee565b60405180910390fd5b61076433308c7f000000000000000000000000000000000000000000000000000000000000000073ffffffffffffffffffffffffffffffffffffffff16610d49909392919063ffffffff16565b7f000000000000000000000000000000000000000000000000000000000000000073ffffffffffffffffffffffffffffffffffffffff166342966c688b6040518263ffffffff1660e01b81526004016107bd9190611a0e565b600060405180830381600087803b1580156107d757600080fd5b505af11580156107eb573d6000803e3d6000fd5b5050505060008081819054906101000a900467ffffffffffffffff168092919061081490611a29565b91906101000a81548167ffffffffffffffff021916908367ffffffffffffffff16021790555090506108918987838a8c8f8b8b8b8b8080601f016020809104026020016040519081016040528093929190818152602001838380828437600081840152601f19601f82011690508083019250505050505050610dd2565b9998505050505050505050565b7f000000000000000000000000000000000000000000000000000000000000000081565b60016020528060005260406000206000915090505481565b7f000000000000000000000000000000000000000000000000000000000000000081565b60007f000000000000000000000000000000000000000000000000000000000000000073ffffffffffffffffffffffffffffffffffffffff168573ffffffffffffffffffffffffffffffffffffffff161461098e576040517f08c379a0000000000000000000000000000000000000000000000000000000008152600401610985906118aa565b60405180910390fd5b600088116109d1576040517f08c379a00000000000000000000000000000000000000000000000000000000081526004016109c890611916565b60405180910390fd5b6000801b8603610a16576040517f08c379a0000000000000000000000000000000000000000000000000000000008152600401610a0d90611982565b60405180910390fd5b610a6333308a7f000000000000000000000000000000000000000000000000000000000000000073ffffffffffffffffffffffffffffffffffffffff16610d49909392919063ffffffff16565b7f000000000000000000000000000000000000000000000000000000000000000073ffffffffffffffffffffffffffffffffffffffff166342966c68896040518263ffffffff1660e01b8152600401610abc9190611a0e565b600060405180830381600087803b158015610ad657600080fd5b505af1158015610aea573d6000803e3d6000fd5b5050505060008081819054906101000a900467ffffffffffffffff1680929190610b1390611a29565b91906101000a81548167ffffffffffffffff021916908367ffffffffffffffff1602179055509050610b5b878583888a8d898960405180602001604052806000815250610dd2565b979650505050505050565b60008054906101000a900467ffffffffffffffff1681565b600080606060e4858590501015610bca576040517f08c379a0000000000000000000000000000000000000000000000000000000008152600401610bc190611aa5565b60405180910390fd5b848460449060206044610bdd9190611ac5565b92610bea93929190611b03565b90610bf59190611b56565b60001c9250848460a490602060a4610c0d9190611ac5565b92610c1a93929190611b03565b90610c259190611b56565b60001c915060e4858590501115610c9357848460e4908092610c4993929190611b03565b8080601f016020809104026020016040519081016040528093929190818152602001838380828437600081840152601f19601f820116905080830192505050505050509050610ca6565b6040518060200160405280600081525090505b9250925092565b600060e4838390501015610cf6576040517f08c379a0000000000000000000000000000000000000000000000000000000008152600401610ced90611aa5565b60405180910390fd5b828260249060206024610d099190611ac5565b92610d1693929190611b03565b90610d219190611b56565b905092915050565b60008160001c9050919050565b600080823b905060008111915050919050565b610dcc846323b872dd60e01b858585604051602401610d6a93929190611bb5565b604051602081830303815290604052907bffffffffffffffffffffffffffffffffffffffffffffffffffffffff19166020820180517bffffffffffffffffffffffffffffffffffffffffffffffffffffffff8381831617835250505050610ea3565b50505050565b7f000000000000000000000000000000000000000000000000000000000000000073ffffffffffffffffffffffffffffffffffffffff166328cd598b8a600160008d63ffffffff1663ffffffff168152602001908152602001600020548b8b8b8b8b610e3d33610f6b565b8c8c8c6040518c63ffffffff1660e01b8152600401610e669b9a99989796959493929190611c5a565b600060405180830381600087803b158015610e8057600080fd5b505af1158015610e94573d6000803e3d6000fd5b50505050505050505050505050565b6000610f05826040518060400160405280602081526020017f5361666545524332303a206c6f772d6c6576656c2063616c6c206661696c65648152508573ffffffffffffffffffffffffffffffffffffffff16610f8e9092919063ffffffff16565b9050600081511480610f27575080806020019051810190610f269190611831565b5b610f66576040517f08c379a0000000000000000000000000000000000000000000000000000000008152600401610f5d90611d7e565b60405180910390fd5b505050565b60008173ffffffffffffffffffffffffffffffffffffffff1660001b9050919050565b6060610f9d8484600085610fa6565b90509392505050565b606082471015610feb576040517f08c379a0000000000000000000000000000000000000000000000000000000008152600401610fe290611e10565b60405180910390fd5b6000808673ffffffffffffffffffffffffffffffffffffffff1685876040516110149190611e6c565b60006040518083038185875af1925050503d8060008114611051576040519150601f19603f3d011682016040523d82523d6000602084013e611056565b606091505b509150915061106787838387611073565b92505050949350505050565b606083156110d55760008351036110cd5761108d856110e8565b6110cc576040517f08c379a00000000000000000000000000000000000000000000000000000000081526004016110c390611ecf565b60405180910390fd5b5b8290506110e0565b6110df838361110b565b5b949350505050565b6000808273ffffffffffffffffffffffffffffffffffffffff163b119050919050565b60008251111561111e5781518083602001fd5b806040517f08c379a00000000000000000000000000000000000000000000000000000000081526004016111529190611f33565b60405180910390fd5b600080fd5b600080fd5b600063ffffffff82169050919050565b61117e81611165565b811461118957600080fd5b50565b60008135905061119b81611175565b92915050565b6000819050919050565b6111b4816111a1565b81146111bf57600080fd5b50565b6000813590506111d1816111ab565b92915050565b600080fd5b600080fd5b600080fd5b60008083601f8401126111fc576111fb6111d7565b5b8235905067ffffffffffffffff811115611219576112186111dc565b5b602083019150836001820283011115611235576112346111e1565b5b9250929050565b600073ffffffffffffffffffffffffffffffffffffffff82169050919050565b60006112678261123c565b9050919050565b6112778161125c565b811461128257600080fd5b50565b6000813590506112948161126e565b92915050565b60008060008060008060a087890312156112b7576112b661115b565b5b60006112c589828a0161118c565b96505060206112d689828a016111c2565b95505060406112e789828a0161118c565b945050606087013567ffffffffffffffff81111561130857611307611160565b5b61131489828a016111e6565b9350935050608061132789828a01611285565b9150509295509295509295565b60008115159050919050565b61134981611334565b82525050565b60006020820190506113646000830184611340565b92915050565b6113738161125c565b82525050565b600060208201905061138e600083018461136a565b92915050565b600080604083850312156113ab576113aa61115b565b5b60006113b98582860161118c565b92505060206113ca858286016111c2565b9150509250929050565b6000819050919050565b6113e7816113d4565b81146113f257600080fd5b50565b600081359050611404816113de565b92915050565b60008060008060008060008060006101008a8c03121561142d5761142c61115b565b5b600061143b8c828d016113f5565b995050602061144c8c828d0161118c565b985050604061145d8c828d016111c2565b975050606061146e8c828d01611285565b965050608061147f8c828d016111c2565b95505060a06114908c828d016113f5565b94505060c06114a18c828d0161118c565b93505060e08a013567ffffffffffffffff8111156114c2576114c1611160565b5b6114ce8c828d016111e6565b92509250509295985092959850929598565b600067ffffffffffffffff82169050919050565b6114fd816114e0565b82525050565b600060208201905061151860008301846114f4565b92915050565b6000602082840312156115345761153361115b565b5b60006115428482850161118c565b91505092915050565b611554816111a1565b82525050565b600060208201905061156f600083018461154b565b92915050565b61157e81611165565b82525050565b60006020820190506115996000830184611575565b92915050565b600080600080600080600060e0888a0312156115be576115bd61115b565b5b60006115cc8a828b016113f5565b97505060206115dd8a828b0161118c565b96505060406115ee8a828b016111c2565b95505060606115ff8a828b01611285565b94505060806116108a828b016111c2565b93505060a06116218a828b016113f5565b92505060c06116328a828b0161118c565b91505092959891949750929550565b600082825260208201905092915050565b7f4f6e6c79204d6573736167655472616e736d6974746572000000000000000000600082015250565b6000611688601783611641565b915061169382611652565b602082019050919050565b600060208201905081810360008301526116b78161167b565b9050919050565b7f4e487b7100000000000000000000000000000000000000000000000000000000600052601160045260246000fd5b60006116f8826113d4565b9150611703836113d4565b925082820390508181111561171b5761171a6116be565b5b92915050565b61172a816113d4565b82525050565b6000604082019050611745600083018561136a565b6117526020830184611721565b9392505050565b600082825260208201905092915050565b82818337600083830152505050565b6000601f19601f8301169050919050565b60006117968385611759565b93506117a383858461176a565b6117ac83611779565b840190509392505050565b60006080820190506117cc6000830188611575565b6117d9602083018761154b565b6117e66040830186611575565b81810360608301526117f981848661178a565b90509695505050505050565b61180e81611334565b811461181957600080fd5b50565b60008151905061182b81611805565b92915050565b6000602082840312156118475761184661115b565b5b60006118558482850161181c565b91505092915050565b7f556e737570706f7274656420746f6b656e000000000000000000000000000000600082015250565b6000611894601183611641565b915061189f8261185e565b602082019050919050565b600060208201905081810360008301526118c381611887565b9050919050565b7f416d6f756e74206d757374206265203e20300000000000000000000000000000600082015250565b6000611900601283611641565b915061190b826118ca565b602082019050919050565b6000602082019050818103600083015261192f816118f3565b9050919050565b7f496e76616c696420726563697069656e74000000000000000000000000000000600082015250565b600061196c601183611641565b915061197782611936565b602082019050919050565b6000602082019050818103600083015261199b8161195f565b9050919050565b7f486f6f6b20646174612072657175697265640000000000000000000000000000600082015250565b60006119d8601283611641565b91506119e3826119a2565b602082019050919050565b60006020820190508181036000830152611a07816119cb565b9050919050565b6000602082019050611a236000830184611721565b92915050565b6000611a34826114e0565b915067ffffffffffffffff8203611a4e57611a4d6116be565b5b600182019050919050565b7f4275726e4d65737361676556323a206d65737361676520746f6f2073686f7274600082015250565b6000611a8f602083611641565b9150611a9a82611a59565b602082019050919050565b60006020820190508181036000830152611abe81611a82565b9050919050565b6000611ad0826113d4565b9150611adb836113d4565b9250828201905080821115611af357611af26116be565b5b92915050565b600080fd5b600080fd5b60008085851115611b1757611b16611af9565b5b83861115611b2857611b27611afe565b5b6001850283019150848603905094509492505050565b600082905092915050565b600082821b905092915050565b6000611b628383611b3e565b82611b6d81356111a1565b92506020821015611bad57611ba87fffffffffffffffffffffffffffffffffffffffffffffffffffffffffffffffff83602003600802611b49565b831692505b505092915050565b6000606082019050611bca600083018661136a565b611bd7602083018561136a565b611be46040830184611721565b949350505050565b600081519050919050565b60005b83811015611c15578082015181840152602081019050611bfa565b60008484015250505050565b6000611c2c82611bec565b611c368185611759565b9350611c46818560208601611bf7565b611c4f81611779565b840191505092915050565b600061016082019050611c70600083018e611575565b611c7d602083018d61154b565b611c8a604083018c61154b565b611c97606083018b6114f4565b611ca4608083018a61136a565b611cb160a083018961154b565b611cbe60c0830188611721565b611ccb60e083018761154b565b611cd9610100830186611721565b611ce7610120830185611575565b818103610140830152611cfa8184611c21565b90509c9b505050505050505050505050565b7f5361666545524332303a204552433230206f7065726174696f6e20646964206e60008201527f6f74207375636365656400000000000000000000000000000000000000000000602082015250565b6000611d68602a83611641565b9150611d7382611d0c565b604082019050919050565b60006020820190508181036000830152611d9781611d5b565b9050919050565b7f416464726573733a20696e73756666696369656e742062616c616e636520666f60008201527f722063616c6c0000000000000000000000000000000000000000000000000000602082015250565b6000611dfa602683611641565b9150611e0582611d9e565b604082019050919050565b60006020820190508181036000830152611e2981611ded565b9050919050565b600081905092915050565b6000611e4682611bec565b611e508185611e30565b9350611e60818560208601611bf7565b80840191505092915050565b6000611e788284611e3b565b915081905092915050565b7f416464726573733a2063616c6c20746f206e6f6e2d636f6e7472616374000000600082015250565b6000611eb9601d83611641565b9150611ec482611e83565b602082019050919050565b60006020820190508181036000830152611ee881611eac565b9050919050565b600081519050919050565b6000611f0582611eef565b611f0f8185611641565b9350611f1f818560208601611bf7565b611f2881611779565b840191505092915050565b60006020820190508181036000830152611f4d8184611efa565b90509291505056fea2646970667358221220a8dec36ac33087c762368515345edf67b96f8c5adb6c15b9e72b298d94989d4064736f6c63430008110033","linkReferences":{}},"methodIdentifiers":{"depositForBurn(uint256,uint32,bytes32,address,bytes32,uint256,uint32)":"8e0250ee","depositForBurnWithHook(uint256,uint32,bytes32,address,bytes32,uint256,uint32,bytes)":"779b432d","handleReceiveMessage(uint32,bytes32,uint32,bytes,address)":"000430db","localDomain()":"8d3638f4","messageTransmitter()":"7b04c181","nextNonce()":"d69c3d30","remoteTokenMessengers(uint32)":"82a5e665","setRemoteTokenMessenger(uint32,bytes32)":"6b51d203","usdc()":"3e413bee"},"id":3}