{
  "_format": "hh-sol-artifact-1",
  "contractName": "VerifierModule",
  "sourceName": "contracts/privacy-pool/modules/VerifierModule.sol",
  "abi": [
    {
      "anonymous": false,
      "inputs": [
        {
          "indexed": false,
          "internalType": "bool",
          "name": "enabled",
          "type": "bool"
        }
      ],
      "name": "TestingModeSet",
      "type": "event"
    },
    {
      "anonymous": false,
      "inputs": [
        {
          "indexed": false,
          "internalType": "uint256",
          "name": "nullifiers",
          "type": "uint256"
        },
        {
          "indexed": false,
          "internalType": "uint256",
          "name": "commitments",
          "type": "uint256"
        },
        {
          "components": [
            {
              "internalType": "string",
              "name": "artifactsIPFSHash",
              "type": "string"
            },
            {
              "components": [
                {
                  "internalType": "uint256",
                  "name": "x",
                  "type": "uint256"
                },
                {
                  "internalType": "uint256",
                  "name": "y",
                  "type": "uint256"
                }
              ],
              "internalType": "struct G1Point",
              "name": "alpha1",
              "type": "tuple"
            },
            {
              "components": [
                {
                  "internalType": "uint256[2]",
                  "name": "x",
                  "type": "uint256[2]"
                },
                {
                  "internalType": "uint256[2]",
                  "name": "y",
                  "type": "uint256[2]"
                }
              ],
              "internalType": "struct G2Point",
              "name": "beta2",
              "type": "tuple"
            },
            {
              "components": [
                {
                  "internalType": "uint256[2]",
                  "name": "x",
                  "type": "uint256[2]"
                },
                {
                  "internalType": "uint256[2]",
                  "name": "y",
                  "type": "uint256[2]"
                }
              ],
              "internalType": "struct G2Point",
              "name": "gamma2",
              "type": "tuple"
            },
            {
              "components": [
                {
                  "internalType": "uint256[2]",
                  "name": "x",
                  "type": "uint256[2]"
                },
                {
                  "internalType": "uint256[2]",
                  "name": "y",
                  "type": "uint256[2]"
                }
              ],
              "internalType": "struct G2Point",
              "name": "delta2",
              "type": "tuple"
            },
            {
              "components": [
                {
                  "internalType": "uint256",
                  "name": "x",
                  "type": "uint256"
                },
                {
                  "internalType": "uint256",
                  "name": "y",
                  "type": "uint256"
                }
              ],
              "internalType": "struct G1Point[]",
              "name": "ic",
              "type": "tuple[]"
            }
          ],
          "indexed": false,
          "internalType": "struct VerifyingKey",
          "name": "verifyingKey",
          "type": "tuple"
        }
      ],
      "name": "VerifyingKeySet",
      "type": "event"
    },
    {
      "inputs": [],
      "name": "ZERO_VALUE",
      "outputs": [
        {
          "internalType": "bytes32",
          "name": "",
          "type": "bytes32"
        }
      ],
      "stateMutability": "view",
      "type": "function"
    },
    {
      "inputs": [
        {
          "internalType": "uint256",
          "name": "_nullifiers",
          "type": "uint256"
        },
        {
          "internalType": "uint256",
          "name": "_commitments",
          "type": "uint256"
        }
      ],
      "name": "getVerificationKey",
      "outputs": [
        {
          "components": [
            {
              "internalType": "string",
              "name": "artifactsIPFSHash",
              "type": "string"
            },
            {
              "components": [
                {
                  "internalType": "uint256",
                  "name": "x",
                  "type": "uint256"
                },
                {
                  "internalType": "uint256",
                  "name": "y",
                  "type": "uint256"
                }
              ],
              "internalType": "struct G1Point",
              "name": "alpha1",
              "type": "tuple"
            },
            {
              "components": [
                {
                  "internalType": "uint256[2]",
                  "name": "x",
                  "type": "uint256[2]"
                },
                {
                  "internalType": "uint256[2]",
                  "name": "y",
                  "type": "uint256[2]"
                }
              ],
              "internalType": "struct G2Point",
              "name": "beta2",
              "type": "tuple"
            },
            {
              "components": [
                {
                  "internalType": "uint256[2]",
                  "name": "x",
                  "type": "uint256[2]"
                },
                {
                  "internalType": "uint256[2]",
                  "name": "y",
                  "type": "uint256[2]"
                }
              ],
              "internalType": "struct G2Point",
              "name": "gamma2",
              "type": "tuple"
            },
            {
              "components": [
                {
                  "internalType": "uint256[2]",
                  "name": "x",
                  "type": "uint256[2]"
                },
                {
                  "internalType": "uint256[2]",
                  "name": "y",
                  "type": "uint256[2]"
                }
              ],
              "internalType": "struct G2Point",
              "name": "delta2",
              "type": "tuple"
            },
            {
              "components": [
                {
                  "internalType": "uint256",
                  "name": "x",
                  "type": "uint256"
                },
                {
                  "internalType": "uint256",
                  "name": "y",
                  "type": "uint256"
                }
              ],
              "internalType": "struct G1Point[]",
              "name": "ic",
              "type": "tuple[]"
            }
          ],
          "internalType": "struct VerifyingKey",
          "name": "",
          "type": "tuple"
        }
      ],
      "stateMutability": "view",
      "type": "function"
    },
    {
      "inputs": [
        {
          "components": [
            {
              "internalType": "uint16",
              "name": "treeNumber",
              "type": "uint16"
            },
            {
              "internalType": "uint72",
              "name": "minGasPrice",
              "type": "uint72"
            },
            {
              "internalType": "enum UnshieldType",
              "name": "unshield",
              "type": "uint8"
            },
            {
              "internalType": "uint64",
              "name": "chainID",
              "type": "uint64"
            },
            {
              "internalType": "address",
              "name": "adaptContract",
              "type": "address"
            },
            {
              "internalType": "bytes32",
              "name": "adaptParams",
              "type": "bytes32"
            },
            {
              "components": [
                {
                  "internalType": "bytes32[4]",
                  "name": "ciphertext",
                  "type": "bytes32[4]"
                },
                {
                  "internalType": "bytes32",
                  "name": "blindedSenderViewingKey",
                  "type": "bytes32"
                },
                {
                  "internalType": "bytes32",
                  "name": "blindedReceiverViewingKey",
                  "type": "bytes32"
                },
                {
                  "internalType": "bytes",
                  "name": "annotationData",
                  "type": "bytes"
                },
                {
                  "internalType": "bytes",
                  "name": "memo",
                  "type": "bytes"
                }
              ],
              "internalType": "struct CommitmentCiphertext[]",
              "name": "commitmentCiphertext",
              "type": "tuple[]"
            }
          ],
          "internalType": "struct BoundParams",
          "name": "_boundParams",
          "type": "tuple"
        }
      ],
      "name": "hashBoundParams",
      "outputs": [
        {
          "internalType": "uint256",
          "name": "",
          "type": "uint256"
        }
      ],
      "stateMutability": "pure",
      "type": "function"
    },
    {
      "inputs": [],
      "name": "initialized",
      "outputs": [
        {
          "internalType": "bool",
          "name": "",
          "type": "bool"
        }
      ],
      "stateMutability": "view",
      "type": "function"
    },
    {
      "inputs": [],
      "name": "lastEventBlock",
      "outputs": [
        {
          "internalType": "uint256",
          "name": "",
          "type": "uint256"
        }
      ],
      "stateMutability": "view",
      "type": "function"
    },
    {
      "inputs": [],
      "name": "localDomain",
      "outputs": [
        {
          "internalType": "uint32",
          "name": "",
          "type": "uint32"
        }
      ],
      "stateMutability": "view",
      "type": "function"
    },
    {
      "inputs": [],
      "name": "merkleModule",
      "outputs": [
        {
          "internalType": "address",
          "name": "",
          "type": "address"
        }
      ],
      "stateMutability": "view",
      "type": "function"
    },
    {
      "inputs": [],
      "name": "merkleRoot",
      "outputs": [
        {
          "internalType": "bytes32",
          "name": "",
          "type": "bytes32"
        }
      ],
      "stateMutability": "view",
      "type": "function"
    },
    {
      "inputs": [],
      "name": "messageTransmitter",
      "outputs": [
        {
          "internalType": "address",
          "name": "",
          "type": "address"
        }
      ],
      "stateMutability": "view",
      "type": "function"
    },
    {
      "inputs": [],
      "name": "nextLeafIndex",
      "outputs": [
        {
          "internalType": "uint256",
          "name": "",
          "type": "uint256"
        }
      ],
      "stateMutability": "view",
      "type": "function"
    },
    {
      "inputs": [],
      "name": "nftFee",
      "outputs": [
        {
          "internalType": "uint120",
          "name": "",
          "type": "uint120"
        }
      ],
      "stateMutability": "view",
      "type": "function"
    },
    {
      "inputs": [
        {
          "internalType": "uint256",
          "name": "",
          "type": "uint256"
        },
        {
          "internalType": "bytes32",
          "name": "",
          "type": "bytes32"
        }
      ],
      "name": "nullifiers",
      "outputs": [
        {
          "internalType": "bool",
          "name": "",
          "type": "bool"
        }
      ],
      "stateMutability": "view",
      "type": "function"
    },
    {
      "inputs": [],
      "name": "owner",
      "outputs": [
        {
          "internalType": "address",
          "name": "",
          "type": "address"
        }
      ],
      "stateMutability": "view",
      "type": "function"
    },
    {
      "inputs": [
        {
          "internalType": "uint32",
          "name": "",
          "type": "uint32"
        }
      ],
      "name": "remotePools",
      "outputs": [
        {
          "internalType": "bytes32",
          "name": "",
          "type": "bytes32"
        }
      ],
      "stateMutability": "view",
      "type": "function"
    },
    {
      "inputs": [
        {
          "internalType": "uint256",
          "name": "",
          "type": "uint256"
        },
        {
          "internalType": "bytes32",
          "name": "",
          "type": "bytes32"
        }
      ],
      "name": "rootHistory",
      "outputs": [
        {
          "internalType": "bool",
          "name": "",
          "type": "bool"
        }
      ],
      "stateMutability": "view",
      "type": "function"
    },
    {
      "inputs": [
        {
          "internalType": "bool",
          "name": "_enabled",
          "type": "bool"
        }
      ],
      "name": "setTestingMode",
      "outputs": [],
      "stateMutability": "nonpayable",
      "type": "function"
    },
    {
      "inputs": [
        {
          "internalType": "uint256",
          "name": "_nullifiers",
          "type": "uint256"
        },
        {
          "internalType": "uint256",
          "name": "_commitments",
          "type": "uint256"
        },
        {
          "components": [
            {
              "internalType": "string",
              "name": "artifactsIPFSHash",
              "type": "string"
            },
            {
              "components": [
                {
                  "internalType": "uint256",
                  "name": "x",
                  "type": "uint256"
                },
                {
                  "internalType": "uint256",
                  "name": "y",
                  "type": "uint256"
                }
              ],
              "internalType": "struct G1Point",
              "name": "alpha1",
              "type": "tuple"
            },
            {
              "components": [
                {
                  "internalType": "uint256[2]",
                  "name": "x",
                  "type": "uint256[2]"
                },
                {
                  "internalType": "uint256[2]",
                  "name": "y",
                  "type": "uint256[2]"
                }
              ],
              "internalType": "struct G2Point",
              "name": "beta2",
              "type": "tuple"
            },
            {
              "components": [
                {
                  "internalType": "uint256[2]",
                  "name": "x",
                  "type": "uint256[2]"
                },
                {
                  "internalType": "uint256[2]",
                  "name": "y",
                  "type": "uint256[2]"
                }
              ],
              "internalType": "struct G2Point",
              "name": "gamma2",
              "type": "tuple"
            },
            {
              "components": [
                {
                  "internalType": "uint256[2]",
                  "name": "x",
                  "type": "uint256[2]"
                },
                {
                  "internalType": "uint256[2]",
                  "name": "y",
                  "type": "uint256[2]"
                }
              ],
              "internalType": "struct G2Point",
              "name": "delta2",
              "type": "tuple"
            },
            {
              "components": [
                {
                  "internalType": "uint256",
                  "name": "x",
                  "type": "uint256"
                },
                {
                  "internalType": "uint256",
                  "name": "y",
                  "type": "uint256"
                }
              ],
              "internalType": "struct G1Point[]",
              "name": "ic",
              "type": "tuple[]"
            }
          ],
          "internalType": "struct VerifyingKey",
          "name": "_verifyingKey",
          "type": "tuple"
        }
      ],
      "name": "setVerificationKey",
      "outputs": [],
      "stateMutability": "nonpayable",
      "type": "function"
    },
    {
      "inputs": [],
      "name": "shieldFee",
      "outputs": [
        {
          "internalType": "uint120",
          "name": "",
          "type": "uint120"
        }
      ],
      "stateMutability": "view",
      "type": "function"
    },
    {
      "inputs": [],
      "name": "shieldModule",
      "outputs": [
        {
          "internalType": "address",
          "name": "",
          "type": "address"
        }
      ],
      "stateMutability": "view",
      "type": "function"
    },
    {
      "inputs": [
        {
          "internalType": "uint256",
          "name": "",
          "type": "uint256"
        }
      ],
      "name": "snarkSafetyVector",
      "outputs": [
        {
          "internalType": "bool",
          "name": "",
          "type": "bool"
        }
      ],
      "stateMutability": "view",
      "type": "function"
    },
    {
      "inputs": [],
      "name": "testingMode",
      "outputs": [
        {
          "internalType": "bool",
          "name": "",
          "type": "bool"
        }
      ],
      "stateMutability": "view",
      "type": "function"
    },
    {
      "inputs": [
        {
          "internalType": "address",
          "name": "",
          "type": "address"
        }
      ],
      "name": "tokenBlocklist",
      "outputs": [
        {
          "internalType": "bool",
          "name": "",
          "type": "bool"
        }
      ],
      "stateMutability": "view",
      "type": "function"
    },
    {
      "inputs": [
        {
          "internalType": "bytes32",
          "name": "",
          "type": "bytes32"
        }
      ],
      "name": "tokenIDMapping",
      "outputs": [
        {
          "internalType": "enum TokenType",
          "name": "tokenType",
          "type": "uint8"
        },
        {
          "internalType": "address",
          "name": "tokenAddress",
          "type": "address"
        },
        {
          "internalType": "uint256",
          "name": "tokenSubID",
          "type": "uint256"
        }
      ],
      "stateMutability": "view",
      "type": "function"
    },
    {
      "inputs": [],
      "name": "tokenMessenger",
      "outputs": [
        {
          "internalType": "address",
          "name": "",
          "type": "address"
        }
      ],
      "stateMutability": "view",
      "type": "function"
    },
    {
      "inputs": [],
      "name": "transactModule",
      "outputs": [
        {
          "internalType": "address",
          "name": "",
          "type": "address"
        }
      ],
      "stateMutability": "view",
      "type": "function"
    },
    {
      "inputs": [],
      "name": "treasury",
      "outputs": [
        {
          "internalType": "address payable",
          "name": "",
          "type": "address"
        }
      ],
      "stateMutability": "view",
      "type": "function"
    },
    {
      "inputs": [],
      "name": "treeNumber",
      "outputs": [
        {
          "internalType": "uint256",
          "name": "",
          "type": "uint256"
        }
      ],
      "stateMutability": "view",
      "type": "function"
    },
    {
      "inputs": [],
      "name": "unshieldFee",
      "outputs": [
        {
          "internalType": "uint120",
          "name": "",
          "type": "uint120"
        }
      ],
      "stateMutability": "view",
      "type": "function"
    },
    {
      "inputs": [],
      "name": "usdc",
      "outputs": [
        {
          "internalType": "address",
          "name": "",
          "type": "address"
        }
      ],
      "stateMutability": "view",
      "type": "function"
    },
    {
      "inputs": [],
      "name": "verifierModule",
      "outputs": [
        {
          "internalType": "address",
          "name": "",
          "type": "address"
        }
      ],
      "stateMutability": "view",
      "type": "function"
    },
    {
      "inputs": [
        {
          "components": [
            {
              "components": [
                {
                  "components": [
                    {
                      "internalType": "uint256",
                      "name": "x",
                      "type": "uint256"
                    },
                    {
                      "internalType": "uint256",
                      "name": "y",
                      "type": "uint256"
                    }
                  ],
                  "internalType": "struct G1Point",
                  "name": "a",
                  "type": "tuple"
                },
                {
                  "components": [
                    {
                      "internalType": "uint256[2]",
                      "name": "x",
                      "type": "uint256[2]"
                    },
                    {
                      "internalType": "uint256[2]",
                      "name": "y",
                      "type": "uint256[2]"
                    }
                  ],
                  "internalType": "struct G2Point",
                  "name": "b",
                  "type": "tuple"
                },
                {
                  "components": [
                    {
                      "internalType": "uint256",
                      "name": "x",
                      "type": "uint256"
                    },
                    {
                      "internalType": "uint256",
                      "name": "y",
                      "type": "uint256"
                    }
                  ],
                  "internalType": "struct G1Point",
                  "name": "c",
                  "type": "tuple"
                }
              ],
              "internalType": "struct SnarkProof",
              "name": "proof",
              "type": "tuple"
            },
            {
              "internalType": "bytes32",
              "name": "merkleRoot",
              "type": "bytes32"
            },
            {
              "internalType": "bytes32[]",
              "name": "nullifiers",
              "type": "bytes32[]"
            },
            {
              "internalType": "bytes32[]",
              "name": "commitments",
              "type": "bytes32[]"
            },
            {
              "components": [
                {
                  "internalType": "uint16",
                  "name": "treeNumber",
                  "type": "uint16"
                },
                {
                  "internalType": "uint72",
                  "name": "minGasPrice",
                  "type": "uint72"
                },
                {
                  "internalType": "enum UnshieldType",
                  "name": "unshield",
                  "type": "uint8"
                },
                {
                  "internalType": "uint64",
                  "name": "chainID",
                  "type": "uint64"
                },
                {
                  "internalType": "address",
                  "name": "adaptContract",
                  "type": "address"
                },
                {
                  "internalType": "bytes32",
                  "name": "adaptParams",
                  "type": "bytes32"
                },
                {
                  "components": [
                    {
                      "internalType": "bytes32[4]",
                      "name": "ciphertext",
                      "type": "bytes32[4]"
                    },
                    {
                      "internalType": "bytes32",
                      "name": "blindedSenderViewingKey",
                      "type": "bytes32"
                    },
                    {
                      "internalType": "bytes32",
                      "name": "blindedReceiverViewingKey",
                      "type": "bytes32"
                    },
                    {
                      "internalType": "bytes",
                      "name": "annotationData",
                      "type": "bytes"
                    },
                    {
                      "internalType": "bytes",
                      "name": "memo",
                      "type": "bytes"
                    }
                  ],
                  "internalType": "struct CommitmentCiphertext[]",
                  "name": "commitmentCiphertext",
                  "type": "tuple[]"
                }
              ],
              "internalType": "struct BoundParams",
              "name": "boundParams",
              "type": "tuple"
            },
            {
              "components": [
                {
                  "internalType": "bytes32",
                  "name": "npk",
                  "type": "bytes32"
                },
                {
                  "components": [
                    {
                      "internalType": "enum TokenType",
                      "name": "tokenType",
                      "type": "uint8"
                    },
                    {
                      "internalType": "address",
                      "name": "tokenAddress",
                      "type": "address"
                    },
                    {
                      "internalType": "uint256",
                      "name": "tokenSubID",
                      "type": "uint256"
                    }
                  ],
                  "internalType": "struct TokenData",
                  "name": "token",
                  "type": "tuple"
                },
                {
                  "internalType": "uint120",
                  "name": "value",
                  "type": "uint120"
                }
              ],
              "internalType": "struct CommitmentPreimage",
              "name": "unshieldPreimage",
              "type": "tuple"
            }
          ],
          "internalType": "struct Transaction",
          "name": "_transaction",
          "type": "tuple"
        }
      ],
      "name": "verify",
      "outputs": [
        {
          "internalType": "bool",
          "name": "",
          "type": "bool"
        }
      ],
      "stateMutability": "view",
      "type": "function"
    },
    {
      "inputs": [
        {
          "internalType": "uint256",
          "name": "",
          "type": "uint256"
        }
      ],
      "name": "zeros",
      "outputs": [
        {
          "internalType": "bytes32",
          "name": "",
          "type": "bytes32"
        }
      ],
      "stateMutability": "view",
      "type": "function"
    }
  ],
  "bytecode": "0x608060405234801561001057600080fd5b506122f8806100206000396000f3fe608060405234801561001057600080fd5b50600436106101f05760003560e01c8063665033151161010f578063b8ceaef2116100a2578063e829558811610071578063e8295588146104dd578063ec732959146104f0578063ee990783146104f8578063f19ea9031461050b57600080fd5b8063b8ceaef21461044f578063c718dbda14610499578063c8f35b5d146104c7578063cd3efe06146104d457600080fd5b80638d3638f4116100de5780638d3638f4146103ea5780638da5cb5b146104165780639071adc01461042957806390de3f6e1461043c57600080fd5b8063665033151461038b5780637b04c181146103945780637b12ae83146103a7578063815b534f146103c757600080fd5b80632ec0f3591161018757806341506fc11161015657806341506fc11461033f5780634611783014610352578063596d7a681461036557806361d027b31461037857600080fd5b80632ec0f359146102e457806330ed93c3146102f957806335db307c146103195780633e413bee1461032c57600080fd5b8063129458f4116101c3578063129458f414610281578063158ef93e146102b457806328f89c3a146102c85780632eb4a7ab146102db57600080fd5b806301c37790146101f5578063048e099014610225578063053ed12a146102505780630be4f4221461026a575b600080fd5b600954610208906001600160781b031681565b6040516001600160781b0390911681526020015b60405180910390f35b600154610238906001600160a01b031681565b6040516001600160a01b03909116815260200161021c565b60095461020890600160781b90046001600160781b031681565b610273600d5481565b60405190815260200161021c565b6102a461028f3660046115e5565b60356020526000908152604090205460ff1681565b604051901515815260200161021c565b6037546102a490600160a01b900460ff1681565b6102736102d63660046115fe565b610539565b610273600e5481565b6102f76102f236600461163f565b610596565b005b610273610307366004611696565b60076020526000908152604090205481565b600054610238906001600160a01b031681565b600654610238906001600160a01b031681565b600354610238906001600160a01b031681565b600454610238906001600160a01b031681565b6102f76103733660046116bc565b61065d565b600854610238906001600160a01b031681565b61027360105481565b600554610238906001600160a01b031681565b6103ba6103b53660046116de565b6106fe565b60405161021c919061179a565b6102a46103d5366004611888565b600b6020526000908152604090205460ff1681565b60065461040190600160a01b900463ffffffff1681565b60405163ffffffff909116815260200161021c565b603754610238906001600160a01b031681565b600a54610208906001600160781b031681565b600254610238906001600160a01b031681565b61048a61045d3660046115e5565b600c602052600090815260409020805460019091015460ff82169161010090046001600160a01b03169083565b60405161021c939291906118c4565b6102a46104a73660046116de565b603160209081526000928352604080842090915290825290205460ff1681565b6034546102a49060ff1681565b61027360365481565b6102736104eb3660046115e5565b6109c3565b6102736109da565b6102a46105063660046118ee565b610a27565b6102a46105193660046116de565b603260209081526000928352604080842090915290825290205460ff1681565b60007f30644e72e131a029b85045b68181585d2833e84879b9709143e1f593f00000018260405160200161056d9190611adc565b6040516020818303038152906040528051906020012060001c6105909190611ba9565b92915050565b6037546001600160a01b031633146105f55760405162461bcd60e51b815260206004820152601a60248201527f56657269666965724d6f64756c653a204f6e6c79206f776e657200000000000060448201526064015b60405180910390fd5b60008381526033602090815260408083208584529091529020819061061a8282611e98565b9050507f3d09e10d1c966d01c4a2c14d0ac9af253486aa5e99b6cffe9019c4d43eb1fb2383838360405161065093929190611f9b565b60405180910390a1505050565b6037546001600160a01b031633146106b75760405162461bcd60e51b815260206004820152601a60248201527f56657269666965724d6f64756c653a204f6e6c79206f776e657200000000000060448201526064016105ec565b6034805460ff19168215159081179091556040519081527f21f67800fb06e35b87566708fd49f2a7cc96bf3a74ca56e175b23e6f35b102489060200160405180910390a150565b6107066114e5565b600083815260336020908152604080832085845290915290819020815160c0810190925280548290829061073990611be1565b80601f016020809104026020016040519081016040528092919081815260200182805461076590611be1565b80156107b25780601f10610787576101008083540402835291602001916107b2565b820191906000526020600020905b81548152906001019060200180831161079557829003601f168201915b505050918352505060408051808201825260018401548152600280850154602080840191909152840191909152815160808101808452938301939092600386019284929183019184919082845b8154815260200190600101908083116107ff57505050918352505060408051808201918290526020909201919060028481019182845b815481526020019060010190808311610835575050509190925250505081526040805160808101808352602090930192909160078501918391820190839060029082845b81548152602001906001019080831161087957505050918352505060408051808201918290526020909201919060028481019182845b8154815260200190600101908083116108af5750505091909252505050815260408051608081018083526020909301929091600b8501918391820190839060029082845b8154815260200190600101908083116108f357505050918352505060408051808201918290526020909201919060028481019182845b815481526020019060010190808311610929575050505050815250508152602001600f8201805480602002602001604051908101604052809291908181526020016000905b828210156109b45783829060005260206000209060020201604051806040016040529081600082015481526020016001820154815250508152602001906001019061096e565b50505091525090949350505050565b601181601081106109d357600080fd5b0154905081565b610a247f30644e72e131a029b85045b68181585d2833e84879b9709143e1f593f00000017f95b5e3f3c951508f13e7771152f5b7c7329a294917685c10a571c9247e3b9fff611ba9565b81565b60345460009060ff1615610a3d57506001919050565b6000610a4d61012084018461207c565b915060009050610a6161014085018561207c565b6000848152603360209081526040808320848452909152808220815160c0810190925280549395509193509182908290610a9a90611be1565b80601f0160208091040260200160405190810160405280929190818152602001828054610ac690611be1565b8015610b135780601f10610ae857610100808354040283529160200191610b13565b820191906000526020600020905b815481529060010190602001808311610af657829003601f168201915b505050918352505060408051808201825260018401548152600280850154602080840191909152840191909152815160808101808452938301939092600386019284929183019184919082845b815481526020019060010190808311610b6057505050918352505060408051808201918290526020909201919060028481019182845b815481526020019060010190808311610b96575050509190925250505081526040805160808101808352602090930192909160078501918391820190839060029082845b815481526020019060010190808311610bda57505050918352505060408051808201918290526020909201919060028481019182845b815481526020019060010190808311610c105750505091909252505050815260408051608081018083526020909301929091600b8501918391820190839060029082845b815481526020019060010190808311610c5457505050918352505060408051808201918290526020909201919060028481019182845b815481526020019060010190808311610c8a575050505050815250508152602001600f8201805480602002602001604051908101604052809291908181526020016000905b82821015610d1557838290600052602060002090600202016040518060400160405290816000820154815260200160018201548152505081526020019060010190610ccf565b50505091525050602081015151909150600003610d745760405162461bcd60e51b815260206004820152601b60248201527f56657269666965724d6f64756c653a204b6579206e6f7420736574000000000060448201526064016105ec565b600082610d828560026120c5565b610d8c91906120c5565b6001600160401b03811115610da357610da3611bcb565b604051908082528060200260200182016040528015610dcc578160200160208202803683370190505b50905085610100013560001c81600081518110610deb57610deb6120d8565b6020908102919091010152610e076102d66101608801886120ee565b81600181518110610e1a57610e1a6120d8565b60200260200101818152505060005b84811015610e9257610e3f61012088018861207c565b82818110610e4f57610e4f6120d8565b6020029190910135905082610e658360026120c5565b81518110610e7557610e756120d8565b602090810291909101015280610e8a8161210e565b915050610e29565b5060005b83811015610f0a57610eac61014088018861207c565b82818110610ebc57610ebc6120d8565b602002919091013590508282610ed38860026120c5565b610edd91906120c5565b81518110610eed57610eed6120d8565b602090810291909101015280610f028161210e565b915050610e96565b506000610f18838884610f3b565b905061deac193201610f31575060019695505050505050565b9695505050505050565b6000610f5684610f50368690038601866121ed565b84610f5e565b949350505050565b6040805180820190915260008082526020820181905290815b835181101561107b577f30644e72e131a029b85045b68181585d2833e84879b9709143e1f593f0000001848281518110610fb357610fb36120d8565b6020026020010151106110125760405162461bcd60e51b815260206004820152602160248201527f536e61726b3a20496e707574203e20534e41524b5f5343414c41525f4649454c6044820152601160fa1b60648201526084016105ec565b611067826110628860a0015184600161102b91906120c5565b8151811061103b5761103b6120d8565b6020026020010151878581518110611055576110556120d8565b60200260200101516110e3565b611187565b91506110746001826120c5565b9050610f77565b506110a4818660a00151600081518110611097576110976120d8565b6020026020010151611187565b90506110da6110b68560000151611227565b856020015187602001518860400151858a606001518a604001518c60800151611369565b95945050505050565b60408051808201909152600080825260208201526110ff611548565b835181526020808501519082015260408082018490526000908360608460076107d05a03fa90508061117f5760405162461bcd60e51b815260206004820152602360248201527f536e61726b3a205363616c6172204d756c7469706c69636174696f6e204661696044820152621b195960ea1b60648201526084016105ec565b505092915050565b60408051808201909152600080825260208201526111a3611566565b83518152602080850151818301528351604080840191909152848201516060840152805180820182526000808252928101839052908160808560066107d05a03fa9150816110da5760405162461bcd60e51b815260206004820152601160248201527014db985c9ace881059190811985a5b1959607a1b60448201526064016105ec565b6040805180820190915260008082526020820152815115801561124c57506020820151155b1561126a575050604080518082019091526000808252602082015290565b60006000805160206122a38339815191528351800990506000805160206122a38339815191528351820990506000805160206122a383398151915260038208905060006000805160206122a38339815191526020850151800990508181146113145760405162461bcd60e51b815260206004820152601760248201527f536e61726b3a20496e76616c6964206e65676174696f6e00000000000000000060448201526064016105ec565b6040518060400160405280856000015181526020016000805160206122a383398151915286602001516113479190611ba9565b61135f906000805160206122a383398151915261228f565b9052949350505050565b6040805161030081018252895181526020808b015181830152895151928201929092528851820151606082015288820180515160808301525182015160a0820152875160c08201528782015160e08201528651516101008201528651820151610120820152868201805151610140830152518201516101608201528551610180820152858201516101a08201528451516101c082015284518201516101e08201528482018051516102008301525182015161022082015283516102408201528382015161026082015282515161028082015282518201516102a08201528282018051516102c083015251909101516102e0820152600090611468611584565b60006020826103008560086107d05a03fa9050806114d35760405162461bcd60e51b815260206004820152602260248201527f536e61726b3a2050616972696e6720566572696669636174696f6e204661696c604482015261195960f21b60648201526084016105ec565b505115159a9950505050505050505050565b6040518060c0016040528060608152602001611514604051806040016040528060008152602001600081525090565b81526020016115216115a2565b815260200161152e6115a2565b815260200161153b6115a2565b8152602001606081525090565b60405180606001604052806003906020820280368337509192915050565b60405180608001604052806004906020820280368337509192915050565b60405180602001604052806001906020820280368337509192915050565b60405180604001604052806115b56115c7565b81526020016115c26115c7565b905290565b60405180604001604052806002906020820280368337509192915050565b6000602082840312156115f757600080fd5b5035919050565b60006020828403121561161057600080fd5b81356001600160401b0381111561162657600080fd5b820160e0818503121561163857600080fd5b9392505050565b60008060006060848603121561165457600080fd5b833592506020840135915060408401356001600160401b0381111561167857600080fd5b8401610200818703121561168b57600080fd5b809150509250925092565b6000602082840312156116a857600080fd5b813563ffffffff8116811461163857600080fd5b6000602082840312156116ce57600080fd5b8135801515811461163857600080fd5b600080604083850312156116f157600080fd5b50508035926020909101359150565b8060005b6002811015611723578151845260209384019390910190600101611704565b50505050565b611734828251611700565b60208101516117466040840182611700565b505050565b600081518084526020808501945080840160005b8381101561178f5761177c87835180518252602090810151910152565b604096909601959082019060010161175f565b509495945050505050565b60006020808352610220845161020080848701528151808488015260005b818110156117d557838101860151888201610240015285016117b8565b50600087820161024090810191909152948801518051604089015260208101516060890152949250601f01601f191686016040880151945061181a6080880186611729565b6060880151945061182f610100880186611729565b60808801519450611844610180880186611729565b60a088015194508387820301828801526118608382018661174b565b98975050505050505050565b80356001600160a01b038116811461188357600080fd5b919050565b60006020828403121561189a57600080fd5b6116388261186c565b600381106118c157634e487b7160e01b600052602160045260246000fd5b50565b606081016118d1856118a3565b9381526001600160a01b0392909216602083015260409091015290565b60006020828403121561190057600080fd5b81356001600160401b0381111561191657600080fd5b8201610220818503121561163857600080fd5b80356003811061188357600080fd5b611941816118a3565b9052565b80356001600160401b038116811461188357600080fd5b6000808335601e1984360301811261197357600080fd5b83016020810192503590506001600160401b0381111561199257600080fd5b8060051b36038213156119a457600080fd5b9250929050565b6000808335601e198436030181126119c257600080fd5b83016020810192503590506001600160401b038111156119e157600080fd5b8036038213156119a457600080fd5b81835281816020850137506000828201602090810191909152601f909101601f19169091010190565b81835260006020808501808196508560051b81019150846000805b88811015611ace578385038a52823560fe19893603018112611a54578283fd5b8801610100608080838937828101359088015260a0808301359088015260c0611a7f818401846119ab565b83838b0152611a91848b0182846119f0565b935050505060e0611aa4818401846119ab565b9350888303828a0152611ab88385836119f0565b9d8a019d98505050938701935050600101611a34565b509298975050505050505050565b602081526000823561ffff8116808214611af557600080fd5b8060208501525050602083013568ffffffffffffffffff81168114611b1957600080fd5b68ffffffffffffffffff8116604084015250611b3760408401611929565b611b446060840182611938565b50611b5160608401611945565b6001600160401b038116608084015250611b6d6080840161186c565b6001600160a01b03811660a08401525060a083013560c0830152611b9460c084018461195c565b60e0808501526110da61010085018284611a19565b600082611bc657634e487b7160e01b600052601260045260246000fd5b500690565b634e487b7160e01b600052604160045260246000fd5b600181811c90821680611bf557607f821691505b602082108103611c1557634e487b7160e01b600052602260045260246000fd5b50919050565b601f82111561174657600081815260208120601f850160051c81016020861015611c425750805b601f850160051c820191505b81811015611c6157828155600101611c4e565b505050505050565b6001600160401b03831115611c8057611c80611bcb565b611c9483611c8e8354611be1565b83611c1b565b6000601f841160018114611cc85760008515611cb05750838201355b600019600387901b1c1916600186901b178355611d22565b600083815260209020601f19861690835b82811015611cf95786850135825560209485019460019092019101611cd9565b5086821015611d165760001960f88860031b161c19848701351681555b505060018560011b0183555b5050505050565b634e487b7160e01b600052601160045260246000fd5b8160005b6002811015611d6057813583820155602090910190600101611d43565b50506040820160005b6002808210611d785750611723565b823584830190910155602090910190600101611d69565b6000808335601e19843603018112611da657600080fd5b8301803591506001600160401b03821115611dc057600080fd5b6020019150600681901b36038213156119a457600080fd5b68010000000000000000831115611df157611df1611bcb565b805483825580841015611e5f5760016001600160ff1b038281168314611e1957611e19611d29565b8086168614611e2a57611e2a611d29565b5060008381526020812086831b81019084841b015b80821015611e5a578282558284830155600282019150611e3f565b505050505b5060008181526020812083915b85811015611c615782358255602083013560018301556040929092019160029190910190600101611e6c565b8135601e19833603018112611eac57600080fd5b820180356001600160401b03811115611ec457600080fd5b602082019150803603821315611ed957600080fd5b611ee4818385611c69565b50506020820135600182015560408201356002820155611f0a6060830160038301611d3f565b611f1a60e0830160078301611d3f565b611f2b6101608301600b8301611d3f565b611f396101e0830183611d8f565b6117238183600f8601611dd8565b6040818337604080820160408401375050565b81835260208301925060008160005b84811015611f9157813586526020808301359087015260409586019590910190600101611f69565b5093949350505050565b838152826020820152606060408201526000611fb783846119ab565b6102006060850152611fce610260850182846119f0565b60208601356080860152604086013560a08601529150611feb9050565b611ffb60c0840160608601611f47565b61200c610140840160e08601611f47565b61201e6101c084016101608601611f47565b6101e0840135601e1985360301811261203657600080fd5b84016020810190356001600160401b0381111561205257600080fd5b8060061b360382131561206457600080fd5b848303605f1901610240860152611860838284611f5a565b6000808335601e1984360301811261209357600080fd5b8301803591506001600160401b038211156120ad57600080fd5b6020019150600581901b36038213156119a457600080fd5b8082018082111561059057610590611d29565b634e487b7160e01b600052603260045260246000fd5b6000823560de1983360301811261210457600080fd5b9190910192915050565b60006001820161212057612120611d29565b5060010190565b604080519081016001600160401b038111828210171561214957612149611bcb565b60405290565b60006040828403121561216157600080fd5b604051604081018181106001600160401b038211171561218357612183611bcb565b604052823581526020928301359281019290925250919050565b600082601f8301126121ae57600080fd5b6121b6612127565b8060408401858111156121c857600080fd5b845b818110156121e25780358452602093840193016121ca565b509095945050505050565b600081830361010081121561220157600080fd5b604051606081018181106001600160401b038211171561222357612223611bcb565b604052612230858561214f565b81526080603f198301121561224457600080fd5b61224c612127565b915061225b856040860161219d565b825261226a856080860161219d565b60208301528160208201526122828560c0860161214f565b6040820152949350505050565b8181038181111561059057610590611d2956fe30644e72e131a029b85045b68181585d97816a916871ca8d3c208c16d87cfd47a2646970667358221220753d22d272bf5ee79fdf2340deb99e271a595b109a65a2b5d3f6cebe04d4bf7d64736f6c63430008110033",
  "linkReferences": {},
  "deployedLinkReferences": {}
}