{
  "_format": "hh-sol-artifact-1",
  "contractName": "RailgunSmartWallet",
  "sourceName": "contracts/railgun/logic/RailgunSmartWallet.sol",
  "abi": [
    {
      "anonymous": false,
      "inputs": [
        {
          "indexed": true,
          "internalType": "address",
          "name": "token",
          "type": "address"
        }
      ],
      "name": "AddToBlocklist",
      "type": "event"
    },
    {
      "anonymous": false,
      "inputs": [
        {
          "indexed": false,
          "internalType": "uint256",
          "name": "shieldFee",
          "type": "uint256"
        },
        {
          "indexed": false,
          "internalType": "uint256",
          "name": "unshieldFee",
          "type": "uint256"
        },
        {
          "indexed": false,
          "internalType": "uint256",
          "name": "nftFee",
          "type": "uint256"
        }
      ],
      "name": "FeeChange",
      "type": "event"
    },
    {
      "anonymous": false,
      "inputs": [
        {
          "indexed": false,
          "internalType": "uint8",
          "name": "version",
          "type": "uint8"
        }
      ],
      "name": "Initialized",
      "type": "event"
    },
    {
      "anonymous": false,
      "inputs": [
        {
          "indexed": false,
          "internalType": "uint16",
          "name": "treeNumber",
          "type": "uint16"
        },
        {
          "indexed": false,
          "internalType": "bytes32[]",
          "name": "nullifier",
          "type": "bytes32[]"
        }
      ],
      "name": "Nullified",
      "type": "event"
    },
    {
      "anonymous": false,
      "inputs": [
        {
          "indexed": true,
          "internalType": "address",
          "name": "previousOwner",
          "type": "address"
        },
        {
          "indexed": true,
          "internalType": "address",
          "name": "newOwner",
          "type": "address"
        }
      ],
      "name": "OwnershipTransferred",
      "type": "event"
    },
    {
      "anonymous": false,
      "inputs": [
        {
          "indexed": true,
          "internalType": "address",
          "name": "token",
          "type": "address"
        }
      ],
      "name": "RemoveFromBlocklist",
      "type": "event"
    },
    {
      "anonymous": false,
      "inputs": [
        {
          "indexed": false,
          "internalType": "uint256",
          "name": "treeNumber",
          "type": "uint256"
        },
        {
          "indexed": false,
          "internalType": "uint256",
          "name": "startPosition",
          "type": "uint256"
        },
        {
          "components": [
            {
              "internalType": "bytes32",
              "name": "npk",
              "type": "bytes32"
            },
            {
              "components": [
                {
                  "internalType": "enum TokenType",
                  "name": "tokenType",
                  "type": "uint8"
                },
                {
                  "internalType": "address",
                  "name": "tokenAddress",
                  "type": "address"
                },
                {
                  "internalType": "uint256",
                  "name": "tokenSubID",
                  "type": "uint256"
                }
              ],
              "internalType": "struct TokenData",
              "name": "token",
              "type": "tuple"
            },
            {
              "internalType": "uint120",
              "name": "value",
              "type": "uint120"
            }
          ],
          "indexed": false,
          "internalType": "struct CommitmentPreimage[]",
          "name": "commitments",
          "type": "tuple[]"
        },
        {
          "components": [
            {
              "internalType": "bytes32[3]",
              "name": "encryptedBundle",
              "type": "bytes32[3]"
            },
            {
              "internalType": "bytes32",
              "name": "shieldKey",
              "type": "bytes32"
            }
          ],
          "indexed": false,
          "internalType": "struct ShieldCiphertext[]",
          "name": "shieldCiphertext",
          "type": "tuple[]"
        },
        {
          "indexed": false,
          "internalType": "uint256[]",
          "name": "fees",
          "type": "uint256[]"
        }
      ],
      "name": "Shield",
      "type": "event"
    },
    {
      "anonymous": false,
      "inputs": [
        {
          "indexed": false,
          "internalType": "uint256",
          "name": "treeNumber",
          "type": "uint256"
        },
        {
          "indexed": false,
          "internalType": "uint256",
          "name": "startPosition",
          "type": "uint256"
        },
        {
          "indexed": false,
          "internalType": "bytes32[]",
          "name": "hash",
          "type": "bytes32[]"
        },
        {
          "components": [
            {
              "internalType": "bytes32[4]",
              "name": "ciphertext",
              "type": "bytes32[4]"
            },
            {
              "internalType": "bytes32",
              "name": "blindedSenderViewingKey",
              "type": "bytes32"
            },
            {
              "internalType": "bytes32",
              "name": "blindedReceiverViewingKey",
              "type": "bytes32"
            },
            {
              "internalType": "bytes",
              "name": "annotationData",
              "type": "bytes"
            },
            {
              "internalType": "bytes",
              "name": "memo",
              "type": "bytes"
            }
          ],
          "indexed": false,
          "internalType": "struct CommitmentCiphertext[]",
          "name": "ciphertext",
          "type": "tuple[]"
        }
      ],
      "name": "Transact",
      "type": "event"
    },
    {
      "anonymous": false,
      "inputs": [
        {
          "indexed": false,
          "internalType": "address",
          "name": "treasury",
          "type": "address"
        }
      ],
      "name": "TreasuryChange",
      "type": "event"
    },
    {
      "anonymous": false,
      "inputs": [
        {
          "indexed": false,
          "internalType": "address",
          "name": "to",
          "type": "address"
        },
        {
          "components": [
            {
              "internalType": "enum TokenType",
              "name": "tokenType",
              "type": "uint8"
            },
            {
              "internalType": "address",
              "name": "tokenAddress",
              "type": "address"
            },
            {
              "internalType": "uint256",
              "name": "tokenSubID",
              "type": "uint256"
            }
          ],
          "indexed": false,
          "internalType": "struct TokenData",
          "name": "token",
          "type": "tuple"
        },
        {
          "indexed": false,
          "internalType": "uint256",
          "name": "amount",
          "type": "uint256"
        },
        {
          "indexed": false,
          "internalType": "uint256",
          "name": "fee",
          "type": "uint256"
        }
      ],
      "name": "Unshield",
      "type": "event"
    },
    {
      "anonymous": false,
      "inputs": [
        {
          "indexed": false,
          "internalType": "uint256",
          "name": "nullifiers",
          "type": "uint256"
        },
        {
          "indexed": false,
          "internalType": "uint256",
          "name": "commitments",
          "type": "uint256"
        },
        {
          "components": [
            {
              "internalType": "string",
              "name": "artifactsIPFSHash",
              "type": "string"
            },
            {
              "components": [
                {
                  "internalType": "uint256",
                  "name": "x",
                  "type": "uint256"
                },
                {
                  "internalType": "uint256",
                  "name": "y",
                  "type": "uint256"
                }
              ],
              "internalType": "struct G1Point",
              "name": "alpha1",
              "type": "tuple"
            },
            {
              "components": [
                {
                  "internalType": "uint256[2]",
                  "name": "x",
                  "type": "uint256[2]"
                },
                {
                  "internalType": "uint256[2]",
                  "name": "y",
                  "type": "uint256[2]"
                }
              ],
              "internalType": "struct G2Point",
              "name": "beta2",
              "type": "tuple"
            },
            {
              "components": [
                {
                  "internalType": "uint256[2]",
                  "name": "x",
                  "type": "uint256[2]"
                },
                {
                  "internalType": "uint256[2]",
                  "name": "y",
                  "type": "uint256[2]"
                }
              ],
              "internalType": "struct G2Point",
              "name": "gamma2",
              "type": "tuple"
            },
            {
              "components": [
                {
                  "internalType": "uint256[2]",
                  "name": "x",
                  "type": "uint256[2]"
                },
                {
                  "internalType": "uint256[2]",
                  "name": "y",
                  "type": "uint256[2]"
                }
              ],
              "internalType": "struct G2Point",
              "name": "delta2",
              "type": "tuple"
            },
            {
              "components": [
                {
                  "internalType": "uint256",
                  "name": "x",
                  "type": "uint256"
                },
                {
                  "internalType": "uint256",
                  "name": "y",
                  "type": "uint256"
                }
              ],
              "internalType": "struct G1Point[]",
              "name": "ic",
              "type": "tuple[]"
            }
          ],
          "indexed": false,
          "internalType": "struct VerifyingKey",
          "name": "verifyingKey",
          "type": "tuple"
        }
      ],
      "name": "VerifyingKeySet",
      "type": "event"
    },
    {
      "inputs": [],
      "name": "ZERO_VALUE",
      "outputs": [
        {
          "internalType": "bytes32",
          "name": "",
          "type": "bytes32"
        }
      ],
      "stateMutability": "view",
      "type": "function"
    },
    {
      "inputs": [
        {
          "internalType": "address[]",
          "name": "_tokens",
          "type": "address[]"
        }
      ],
      "name": "addToBlocklist",
      "outputs": [],
      "stateMutability": "nonpayable",
      "type": "function"
    },
    {
      "inputs": [
        {
          "internalType": "uint256",
          "name": "vector",
          "type": "uint256"
        }
      ],
      "name": "addVector",
      "outputs": [],
      "stateMutability": "nonpayable",
      "type": "function"
    },
    {
      "inputs": [
        {
          "internalType": "uint120",
          "name": "_shieldFee",
          "type": "uint120"
        },
        {
          "internalType": "uint120",
          "name": "_unshieldFee",
          "type": "uint120"
        },
        {
          "internalType": "uint256",
          "name": "_nftFee",
          "type": "uint256"
        }
      ],
      "name": "changeFee",
      "outputs": [],
      "stateMutability": "nonpayable",
      "type": "function"
    },
    {
      "inputs": [
        {
          "internalType": "address payable",
          "name": "_treasury",
          "type": "address"
        }
      ],
      "name": "changeTreasury",
      "outputs": [],
      "stateMutability": "nonpayable",
      "type": "function"
    },
    {
      "inputs": [],
      "name": "checkSafetyVectors",
      "outputs": [],
      "stateMutability": "nonpayable",
      "type": "function"
    },
    {
      "inputs": [
        {
          "internalType": "uint136",
          "name": "_amount",
          "type": "uint136"
        },
        {
          "internalType": "bool",
          "name": "_isInclusive",
          "type": "bool"
        },
        {
          "internalType": "uint120",
          "name": "_feeBP",
          "type": "uint120"
        }
      ],
      "name": "getFee",
      "outputs": [
        {
          "internalType": "uint120",
          "name": "",
          "type": "uint120"
        },
        {
          "internalType": "uint120",
          "name": "",
          "type": "uint120"
        }
      ],
      "stateMutability": "pure",
      "type": "function"
    },
    {
      "inputs": [
        {
          "internalType": "uint256",
          "name": "_newCommitments",
          "type": "uint256"
        }
      ],
      "name": "getInsertionTreeNumberAndStartingIndex",
      "outputs": [
        {
          "internalType": "uint256",
          "name": "",
          "type": "uint256"
        },
        {
          "internalType": "uint256",
          "name": "",
          "type": "uint256"
        }
      ],
      "stateMutability": "view",
      "type": "function"
    },
    {
      "inputs": [
        {
          "components": [
            {
              "internalType": "enum TokenType",
              "name": "tokenType",
              "type": "uint8"
            },
            {
              "internalType": "address",
              "name": "tokenAddress",
              "type": "address"
            },
            {
              "internalType": "uint256",
              "name": "tokenSubID",
              "type": "uint256"
            }
          ],
          "internalType": "struct TokenData",
          "name": "_tokenData",
          "type": "tuple"
        }
      ],
      "name": "getTokenID",
      "outputs": [
        {
          "internalType": "bytes32",
          "name": "",
          "type": "bytes32"
        }
      ],
      "stateMutability": "pure",
      "type": "function"
    },
    {
      "inputs": [
        {
          "internalType": "uint256",
          "name": "_nullifiers",
          "type": "uint256"
        },
        {
          "internalType": "uint256",
          "name": "_commitments",
          "type": "uint256"
        }
      ],
      "name": "getVerificationKey",
      "outputs": [
        {
          "components": [
            {
              "internalType": "string",
              "name": "artifactsIPFSHash",
              "type": "string"
            },
            {
              "components": [
                {
                  "internalType": "uint256",
                  "name": "x",
                  "type": "uint256"
                },
                {
                  "internalType": "uint256",
                  "name": "y",
                  "type": "uint256"
                }
              ],
              "internalType": "struct G1Point",
              "name": "alpha1",
              "type": "tuple"
            },
            {
              "components": [
                {
                  "internalType": "uint256[2]",
                  "name": "x",
                  "type": "uint256[2]"
                },
                {
                  "internalType": "uint256[2]",
                  "name": "y",
                  "type": "uint256[2]"
                }
              ],
              "internalType": "struct G2Point",
              "name": "beta2",
              "type": "tuple"
            },
            {
              "components": [
                {
                  "internalType": "uint256[2]",
                  "name": "x",
                  "type": "uint256[2]"
                },
                {
                  "internalType": "uint256[2]",
                  "name": "y",
                  "type": "uint256[2]"
                }
              ],
              "internalType": "struct G2Point",
              "name": "gamma2",
              "type": "tuple"
            },
            {
              "components": [
                {
                  "internalType": "uint256[2]",
                  "name": "x",
                  "type": "uint256[2]"
                },
                {
                  "internalType": "uint256[2]",
                  "name": "y",
                  "type": "uint256[2]"
                }
              ],
              "internalType": "struct G2Point",
              "name": "delta2",
              "type": "tuple"
            },
            {
              "components": [
                {
                  "internalType": "uint256",
                  "name": "x",
                  "type": "uint256"
                },
                {
                  "internalType": "uint256",
                  "name": "y",
                  "type": "uint256"
                }
              ],
              "internalType": "struct G1Point[]",
              "name": "ic",
              "type": "tuple[]"
            }
          ],
          "internalType": "struct VerifyingKey",
          "name": "",
          "type": "tuple"
        }
      ],
      "stateMutability": "view",
      "type": "function"
    },
    {
      "inputs": [
        {
          "components": [
            {
              "internalType": "uint16",
              "name": "treeNumber",
              "type": "uint16"
            },
            {
              "internalType": "uint72",
              "name": "minGasPrice",
              "type": "uint72"
            },
            {
              "internalType": "enum UnshieldType",
              "name": "unshield",
              "type": "uint8"
            },
            {
              "internalType": "uint64",
              "name": "chainID",
              "type": "uint64"
            },
            {
              "internalType": "address",
              "name": "adaptContract",
              "type": "address"
            },
            {
              "internalType": "bytes32",
              "name": "adaptParams",
              "type": "bytes32"
            },
            {
              "components": [
                {
                  "internalType": "bytes32[4]",
                  "name": "ciphertext",
                  "type": "bytes32[4]"
                },
                {
                  "internalType": "bytes32",
                  "name": "blindedSenderViewingKey",
                  "type": "bytes32"
                },
                {
                  "internalType": "bytes32",
                  "name": "blindedReceiverViewingKey",
                  "type": "bytes32"
                },
                {
                  "internalType": "bytes",
                  "name": "annotationData",
                  "type": "bytes"
                },
                {
                  "internalType": "bytes",
                  "name": "memo",
                  "type": "bytes"
                }
              ],
              "internalType": "struct CommitmentCiphertext[]",
              "name": "commitmentCiphertext",
              "type": "tuple[]"
            }
          ],
          "internalType": "struct BoundParams",
          "name": "_boundParams",
          "type": "tuple"
        }
      ],
      "name": "hashBoundParams",
      "outputs": [
        {
          "internalType": "uint256",
          "name": "",
          "type": "uint256"
        }
      ],
      "stateMutability": "pure",
      "type": "function"
    },
    {
      "inputs": [
        {
          "components": [
            {
              "internalType": "bytes32",
              "name": "npk",
              "type": "bytes32"
            },
            {
              "components": [
                {
                  "internalType": "enum TokenType",
                  "name": "tokenType",
                  "type": "uint8"
                },
                {
                  "internalType": "address",
                  "name": "tokenAddress",
                  "type": "address"
                },
                {
                  "internalType": "uint256",
                  "name": "tokenSubID",
                  "type": "uint256"
                }
              ],
              "internalType": "struct TokenData",
              "name": "token",
              "type": "tuple"
            },
            {
              "internalType": "uint120",
              "name": "value",
              "type": "uint120"
            }
          ],
          "internalType": "struct CommitmentPreimage",
          "name": "_commitmentPreimage",
          "type": "tuple"
        }
      ],
      "name": "hashCommitment",
      "outputs": [
        {
          "internalType": "bytes32",
          "name": "",
          "type": "bytes32"
        }
      ],
      "stateMutability": "pure",
      "type": "function"
    },
    {
      "inputs": [
        {
          "internalType": "bytes32",
          "name": "_left",
          "type": "bytes32"
        },
        {
          "internalType": "bytes32",
          "name": "_right",
          "type": "bytes32"
        }
      ],
      "name": "hashLeftRight",
      "outputs": [
        {
          "internalType": "bytes32",
          "name": "",
          "type": "bytes32"
        }
      ],
      "stateMutability": "pure",
      "type": "function"
    },
    {
      "inputs": [
        {
          "internalType": "address payable",
          "name": "_treasury",
          "type": "address"
        },
        {
          "internalType": "uint120",
          "name": "_shieldFee",
          "type": "uint120"
        },
        {
          "internalType": "uint120",
          "name": "_unshieldFee",
          "type": "uint120"
        },
        {
          "internalType": "uint256",
          "name": "_nftFee",
          "type": "uint256"
        },
        {
          "internalType": "address",
          "name": "_owner",
          "type": "address"
        }
      ],
      "name": "initializeRailgunLogic",
      "outputs": [],
      "stateMutability": "nonpayable",
      "type": "function"
    },
    {
      "inputs": [],
      "name": "lastEventBlock",
      "outputs": [
        {
          "internalType": "uint256",
          "name": "",
          "type": "uint256"
        }
      ],
      "stateMutability": "view",
      "type": "function"
    },
    {
      "inputs": [],
      "name": "merkleRoot",
      "outputs": [
        {
          "internalType": "bytes32",
          "name": "",
          "type": "bytes32"
        }
      ],
      "stateMutability": "view",
      "type": "function"
    },
    {
      "inputs": [],
      "name": "nextLeafIndex",
      "outputs": [
        {
          "internalType": "uint256",
          "name": "",
          "type": "uint256"
        }
      ],
      "stateMutability": "view",
      "type": "function"
    },
    {
      "inputs": [],
      "name": "nftFee",
      "outputs": [
        {
          "internalType": "uint256",
          "name": "",
          "type": "uint256"
        }
      ],
      "stateMutability": "view",
      "type": "function"
    },
    {
      "inputs": [
        {
          "internalType": "uint256",
          "name": "",
          "type": "uint256"
        },
        {
          "internalType": "bytes32",
          "name": "",
          "type": "bytes32"
        }
      ],
      "name": "nullifiers",
      "outputs": [
        {
          "internalType": "bool",
          "name": "",
          "type": "bool"
        }
      ],
      "stateMutability": "view",
      "type": "function"
    },
    {
      "inputs": [],
      "name": "owner",
      "outputs": [
        {
          "internalType": "address",
          "name": "",
          "type": "address"
        }
      ],
      "stateMutability": "view",
      "type": "function"
    },
    {
      "inputs": [
        {
          "internalType": "address[]",
          "name": "_tokens",
          "type": "address[]"
        }
      ],
      "name": "removeFromBlocklist",
      "outputs": [],
      "stateMutability": "nonpayable",
      "type": "function"
    },
    {
      "inputs": [
        {
          "internalType": "uint256",
          "name": "vector",
          "type": "uint256"
        }
      ],
      "name": "removeVector",
      "outputs": [],
      "stateMutability": "nonpayable",
      "type": "function"
    },
    {
      "inputs": [],
      "name": "renounceOwnership",
      "outputs": [],
      "stateMutability": "nonpayable",
      "type": "function"
    },
    {
      "inputs": [
        {
          "internalType": "uint256",
          "name": "",
          "type": "uint256"
        },
        {
          "internalType": "bytes32",
          "name": "",
          "type": "bytes32"
        }
      ],
      "name": "rootHistory",
      "outputs": [
        {
          "internalType": "bool",
          "name": "",
          "type": "bool"
        }
      ],
      "stateMutability": "view",
      "type": "function"
    },
    {
      "inputs": [
        {
          "internalType": "bool",
          "name": "_testingMode",
          "type": "bool"
        }
      ],
      "name": "setTestingMode",
      "outputs": [],
      "stateMutability": "nonpayable",
      "type": "function"
    },
    {
      "inputs": [
        {
          "internalType": "uint256",
          "name": "_nullifiers",
          "type": "uint256"
        },
        {
          "internalType": "uint256",
          "name": "_commitments",
          "type": "uint256"
        },
        {
          "components": [
            {
              "internalType": "string",
              "name": "artifactsIPFSHash",
              "type": "string"
            },
            {
              "components": [
                {
                  "internalType": "uint256",
                  "name": "x",
                  "type": "uint256"
                },
                {
                  "internalType": "uint256",
                  "name": "y",
                  "type": "uint256"
                }
              ],
              "internalType": "struct G1Point",
              "name": "alpha1",
              "type": "tuple"
            },
            {
              "components": [
                {
                  "internalType": "uint256[2]",
                  "name": "x",
                  "type": "uint256[2]"
                },
                {
                  "internalType": "uint256[2]",
                  "name": "y",
                  "type": "uint256[2]"
                }
              ],
              "internalType": "struct G2Point",
              "name": "beta2",
              "type": "tuple"
            },
            {
              "components": [
                {
                  "internalType": "uint256[2]",
                  "name": "x",
                  "type": "uint256[2]"
                },
                {
                  "internalType": "uint256[2]",
                  "name": "y",
                  "type": "uint256[2]"
                }
              ],
              "internalType": "struct G2Point",
              "name": "gamma2",
              "type": "tuple"
            },
            {
              "components": [
                {
                  "internalType": "uint256[2]",
                  "name": "x",
                  "type": "uint256[2]"
                },
                {
                  "internalType": "uint256[2]",
                  "name": "y",
                  "type": "uint256[2]"
                }
              ],
              "internalType": "struct G2Point",
              "name": "delta2",
              "type": "tuple"
            },
            {
              "components": [
                {
                  "internalType": "uint256",
                  "name": "x",
                  "type": "uint256"
                },
                {
                  "internalType": "uint256",
                  "name": "y",
                  "type": "uint256"
                }
              ],
              "internalType": "struct G1Point[]",
              "name": "ic",
              "type": "tuple[]"
            }
          ],
          "internalType": "struct VerifyingKey",
          "name": "_verifyingKey",
          "type": "tuple"
        }
      ],
      "name": "setVerificationKey",
      "outputs": [],
      "stateMutability": "nonpayable",
      "type": "function"
    },
    {
      "inputs": [
        {
          "components": [
            {
              "components": [
                {
                  "internalType": "bytes32",
                  "name": "npk",
                  "type": "bytes32"
                },
                {
                  "components": [
                    {
                      "internalType": "enum TokenType",
                      "name": "tokenType",
                      "type": "uint8"
                    },
                    {
                      "internalType": "address",
                      "name": "tokenAddress",
                      "type": "address"
                    },
                    {
                      "internalType": "uint256",
                      "name": "tokenSubID",
                      "type": "uint256"
                    }
                  ],
                  "internalType": "struct TokenData",
                  "name": "token",
                  "type": "tuple"
                },
                {
                  "internalType": "uint120",
                  "name": "value",
                  "type": "uint120"
                }
              ],
              "internalType": "struct CommitmentPreimage",
              "name": "preimage",
              "type": "tuple"
            },
            {
              "components": [
                {
                  "internalType": "bytes32[3]",
                  "name": "encryptedBundle",
                  "type": "bytes32[3]"
                },
                {
                  "internalType": "bytes32",
                  "name": "shieldKey",
                  "type": "bytes32"
                }
              ],
              "internalType": "struct ShieldCiphertext",
              "name": "ciphertext",
              "type": "tuple"
            }
          ],
          "internalType": "struct ShieldRequest[]",
          "name": "_shieldRequests",
          "type": "tuple[]"
        }
      ],
      "name": "shield",
      "outputs": [],
      "stateMutability": "nonpayable",
      "type": "function"
    },
    {
      "inputs": [],
      "name": "shieldFee",
      "outputs": [
        {
          "internalType": "uint120",
          "name": "",
          "type": "uint120"
        }
      ],
      "stateMutability": "view",
      "type": "function"
    },
    {
      "inputs": [
        {
          "internalType": "uint256",
          "name": "",
          "type": "uint256"
        }
      ],
      "name": "snarkSafetyVector",
      "outputs": [
        {
          "internalType": "bool",
          "name": "",
          "type": "bool"
        }
      ],
      "stateMutability": "view",
      "type": "function"
    },
    {
      "inputs": [
        {
          "components": [
            {
              "components": [
                {
                  "components": [
                    {
                      "internalType": "uint256",
                      "name": "x",
                      "type": "uint256"
                    },
                    {
                      "internalType": "uint256",
                      "name": "y",
                      "type": "uint256"
                    }
                  ],
                  "internalType": "struct G1Point",
                  "name": "a",
                  "type": "tuple"
                },
                {
                  "components": [
                    {
                      "internalType": "uint256[2]",
                      "name": "x",
                      "type": "uint256[2]"
                    },
                    {
                      "internalType": "uint256[2]",
                      "name": "y",
                      "type": "uint256[2]"
                    }
                  ],
                  "internalType": "struct G2Point",
                  "name": "b",
                  "type": "tuple"
                },
                {
                  "components": [
                    {
                      "internalType": "uint256",
                      "name": "x",
                      "type": "uint256"
                    },
                    {
                      "internalType": "uint256",
                      "name": "y",
                      "type": "uint256"
                    }
                  ],
                  "internalType": "struct G1Point",
                  "name": "c",
                  "type": "tuple"
                }
              ],
              "internalType": "struct SnarkProof",
              "name": "proof",
              "type": "tuple"
            },
            {
              "internalType": "bytes32",
              "name": "merkleRoot",
              "type": "bytes32"
            },
            {
              "internalType": "bytes32[]",
              "name": "nullifiers",
              "type": "bytes32[]"
            },
            {
              "internalType": "bytes32[]",
              "name": "commitments",
              "type": "bytes32[]"
            },
            {
              "components": [
                {
                  "internalType": "uint16",
                  "name": "treeNumber",
                  "type": "uint16"
                },
                {
                  "internalType": "uint72",
                  "name": "minGasPrice",
                  "type": "uint72"
                },
                {
                  "internalType": "enum UnshieldType",
                  "name": "unshield",
                  "type": "uint8"
                },
                {
                  "internalType": "uint64",
                  "name": "chainID",
                  "type": "uint64"
                },
                {
                  "internalType": "address",
                  "name": "adaptContract",
                  "type": "address"
                },
                {
                  "internalType": "bytes32",
                  "name": "adaptParams",
                  "type": "bytes32"
                },
                {
                  "components": [
                    {
                      "internalType": "bytes32[4]",
                      "name": "ciphertext",
                      "type": "bytes32[4]"
                    },
                    {
                      "internalType": "bytes32",
                      "name": "blindedSenderViewingKey",
                      "type": "bytes32"
                    },
                    {
                      "internalType": "bytes32",
                      "name": "blindedReceiverViewingKey",
                      "type": "bytes32"
                    },
                    {
                      "internalType": "bytes",
                      "name": "annotationData",
                      "type": "bytes"
                    },
                    {
                      "internalType": "bytes",
                      "name": "memo",
                      "type": "bytes"
                    }
                  ],
                  "internalType": "struct CommitmentCiphertext[]",
                  "name": "commitmentCiphertext",
                  "type": "tuple[]"
                }
              ],
              "internalType": "struct BoundParams",
              "name": "boundParams",
              "type": "tuple"
            },
            {
              "components": [
                {
                  "internalType": "bytes32",
                  "name": "npk",
                  "type": "bytes32"
                },
                {
                  "components": [
                    {
                      "internalType": "enum TokenType",
                      "name": "tokenType",
                      "type": "uint8"
                    },
                    {
                      "internalType": "address",
                      "name": "tokenAddress",
                      "type": "address"
                    },
                    {
                      "internalType": "uint256",
                      "name": "tokenSubID",
                      "type": "uint256"
                    }
                  ],
                  "internalType": "struct TokenData",
                  "name": "token",
                  "type": "tuple"
                },
                {
                  "internalType": "uint120",
                  "name": "value",
                  "type": "uint120"
                }
              ],
              "internalType": "struct CommitmentPreimage",
              "name": "unshieldPreimage",
              "type": "tuple"
            }
          ],
          "internalType": "struct Transaction[]",
          "name": "_transactions",
          "type": "tuple[]"
        }
      ],
      "name": "sumCommitments",
      "outputs": [
        {
          "internalType": "uint256",
          "name": "",
          "type": "uint256"
        }
      ],
      "stateMutability": "pure",
      "type": "function"
    },
    {
      "inputs": [],
      "name": "testingMode",
      "outputs": [
        {
          "internalType": "bool",
          "name": "",
          "type": "bool"
        }
      ],
      "stateMutability": "view",
      "type": "function"
    },
    {
      "inputs": [
        {
          "internalType": "address",
          "name": "",
          "type": "address"
        }
      ],
      "name": "tokenBlocklist",
      "outputs": [
        {
          "internalType": "bool",
          "name": "",
          "type": "bool"
        }
      ],
      "stateMutability": "view",
      "type": "function"
    },
    {
      "inputs": [
        {
          "internalType": "bytes32",
          "name": "",
          "type": "bytes32"
        }
      ],
      "name": "tokenIDMapping",
      "outputs": [
        {
          "internalType": "enum TokenType",
          "name": "tokenType",
          "type": "uint8"
        },
        {
          "internalType": "address",
          "name": "tokenAddress",
          "type": "address"
        },
        {
          "internalType": "uint256",
          "name": "tokenSubID",
          "type": "uint256"
        }
      ],
      "stateMutability": "view",
      "type": "function"
    },
    {
      "inputs": [
        {
          "components": [
            {
              "components": [
                {
                  "components": [
                    {
                      "internalType": "uint256",
                      "name": "x",
                      "type": "uint256"
                    },
                    {
                      "internalType": "uint256",
                      "name": "y",
                      "type": "uint256"
                    }
                  ],
                  "internalType": "struct G1Point",
                  "name": "a",
                  "type": "tuple"
                },
                {
                  "components": [
                    {
                      "internalType": "uint256[2]",
                      "name": "x",
                      "type": "uint256[2]"
                    },
                    {
                      "internalType": "uint256[2]",
                      "name": "y",
                      "type": "uint256[2]"
                    }
                  ],
                  "internalType": "struct G2Point",
                  "name": "b",
                  "type": "tuple"
                },
                {
                  "components": [
                    {
                      "internalType": "uint256",
                      "name": "x",
                      "type": "uint256"
                    },
                    {
                      "internalType": "uint256",
                      "name": "y",
                      "type": "uint256"
                    }
                  ],
                  "internalType": "struct G1Point",
                  "name": "c",
                  "type": "tuple"
                }
              ],
              "internalType": "struct SnarkProof",
              "name": "proof",
              "type": "tuple"
            },
            {
              "internalType": "bytes32",
              "name": "merkleRoot",
              "type": "bytes32"
            },
            {
              "internalType": "bytes32[]",
              "name": "nullifiers",
              "type": "bytes32[]"
            },
            {
              "internalType": "bytes32[]",
              "name": "commitments",
              "type": "bytes32[]"
            },
            {
              "components": [
                {
                  "internalType": "uint16",
                  "name": "treeNumber",
                  "type": "uint16"
                },
                {
                  "internalType": "uint72",
                  "name": "minGasPrice",
                  "type": "uint72"
                },
                {
                  "internalType": "enum UnshieldType",
                  "name": "unshield",
                  "type": "uint8"
                },
                {
                  "internalType": "uint64",
                  "name": "chainID",
                  "type": "uint64"
                },
                {
                  "internalType": "address",
                  "name": "adaptContract",
                  "type": "address"
                },
                {
                  "internalType": "bytes32",
                  "name": "adaptParams",
                  "type": "bytes32"
                },
                {
                  "components": [
                    {
                      "internalType": "bytes32[4]",
                      "name": "ciphertext",
                      "type": "bytes32[4]"
                    },
                    {
                      "internalType": "bytes32",
                      "name": "blindedSenderViewingKey",
                      "type": "bytes32"
                    },
                    {
                      "internalType": "bytes32",
                      "name": "blindedReceiverViewingKey",
                      "type": "bytes32"
                    },
                    {
                      "internalType": "bytes",
                      "name": "annotationData",
                      "type": "bytes"
                    },
                    {
                      "internalType": "bytes",
                      "name": "memo",
                      "type": "bytes"
                    }
                  ],
                  "internalType": "struct CommitmentCiphertext[]",
                  "name": "commitmentCiphertext",
                  "type": "tuple[]"
                }
              ],
              "internalType": "struct BoundParams",
              "name": "boundParams",
              "type": "tuple"
            },
            {
              "components": [
                {
                  "internalType": "bytes32",
                  "name": "npk",
                  "type": "bytes32"
                },
                {
                  "components": [
                    {
                      "internalType": "enum TokenType",
                      "name": "tokenType",
                      "type": "uint8"
                    },
                    {
                      "internalType": "address",
                      "name": "tokenAddress",
                      "type": "address"
                    },
                    {
                      "internalType": "uint256",
                      "name": "tokenSubID",
                      "type": "uint256"
                    }
                  ],
                  "internalType": "struct TokenData",
                  "name": "token",
                  "type": "tuple"
                },
                {
                  "internalType": "uint120",
                  "name": "value",
                  "type": "uint120"
                }
              ],
              "internalType": "struct CommitmentPreimage",
              "name": "unshieldPreimage",
              "type": "tuple"
            }
          ],
          "internalType": "struct Transaction[]",
          "name": "_transactions",
          "type": "tuple[]"
        }
      ],
      "name": "transact",
      "outputs": [],
      "stateMutability": "nonpayable",
      "type": "function"
    },
    {
      "inputs": [
        {
          "internalType": "address",
          "name": "newOwner",
          "type": "address"
        }
      ],
      "name": "transferOwnership",
      "outputs": [],
      "stateMutability": "nonpayable",
      "type": "function"
    },
    {
      "inputs": [],
      "name": "treasury",
      "outputs": [
        {
          "internalType": "address payable",
          "name": "",
          "type": "address"
        }
      ],
      "stateMutability": "view",
      "type": "function"
    },
    {
      "inputs": [],
      "name": "treeNumber",
      "outputs": [
        {
          "internalType": "uint256",
          "name": "",
          "type": "uint256"
        }
      ],
      "stateMutability": "view",
      "type": "function"
    },
    {
      "inputs": [],
      "name": "unshieldFee",
      "outputs": [
        {
          "internalType": "uint120",
          "name": "",
          "type": "uint120"
        }
      ],
      "stateMutability": "view",
      "type": "function"
    },
    {
      "inputs": [
        {
          "components": [
            {
              "internalType": "bytes32",
              "name": "npk",
              "type": "bytes32"
            },
            {
              "components": [
                {
                  "internalType": "enum TokenType",
                  "name": "tokenType",
                  "type": "uint8"
                },
                {
                  "internalType": "address",
                  "name": "tokenAddress",
                  "type": "address"
                },
                {
                  "internalType": "uint256",
                  "name": "tokenSubID",
                  "type": "uint256"
                }
              ],
              "internalType": "struct TokenData",
              "name": "token",
              "type": "tuple"
            },
            {
              "internalType": "uint120",
              "name": "value",
              "type": "uint120"
            }
          ],
          "internalType": "struct CommitmentPreimage",
          "name": "_note",
          "type": "tuple"
        }
      ],
      "name": "validateCommitmentPreimage",
      "outputs": [
        {
          "internalType": "bool",
          "name": "",
          "type": "bool"
        },
        {
          "internalType": "string",
          "name": "",
          "type": "string"
        }
      ],
      "stateMutability": "view",
      "type": "function"
    },
    {
      "inputs": [
        {
          "components": [
            {
              "components": [
                {
                  "components": [
                    {
                      "internalType": "uint256",
                      "name": "x",
                      "type": "uint256"
                    },
                    {
                      "internalType": "uint256",
                      "name": "y",
                      "type": "uint256"
                    }
                  ],
                  "internalType": "struct G1Point",
                  "name": "a",
                  "type": "tuple"
                },
                {
                  "components": [
                    {
                      "internalType": "uint256[2]",
                      "name": "x",
                      "type": "uint256[2]"
                    },
                    {
                      "internalType": "uint256[2]",
                      "name": "y",
                      "type": "uint256[2]"
                    }
                  ],
                  "internalType": "struct G2Point",
                  "name": "b",
                  "type": "tuple"
                },
                {
                  "components": [
                    {
                      "internalType": "uint256",
                      "name": "x",
                      "type": "uint256"
                    },
                    {
                      "internalType": "uint256",
                      "name": "y",
                      "type": "uint256"
                    }
                  ],
                  "internalType": "struct G1Point",
                  "name": "c",
                  "type": "tuple"
                }
              ],
              "internalType": "struct SnarkProof",
              "name": "proof",
              "type": "tuple"
            },
            {
              "internalType": "bytes32",
              "name": "merkleRoot",
              "type": "bytes32"
            },
            {
              "internalType": "bytes32[]",
              "name": "nullifiers",
              "type": "bytes32[]"
            },
            {
              "internalType": "bytes32[]",
              "name": "commitments",
              "type": "bytes32[]"
            },
            {
              "components": [
                {
                  "internalType": "uint16",
                  "name": "treeNumber",
                  "type": "uint16"
                },
                {
                  "internalType": "uint72",
                  "name": "minGasPrice",
                  "type": "uint72"
                },
                {
                  "internalType": "enum UnshieldType",
                  "name": "unshield",
                  "type": "uint8"
                },
                {
                  "internalType": "uint64",
                  "name": "chainID",
                  "type": "uint64"
                },
                {
                  "internalType": "address",
                  "name": "adaptContract",
                  "type": "address"
                },
                {
                  "internalType": "bytes32",
                  "name": "adaptParams",
                  "type": "bytes32"
                },
                {
                  "components": [
                    {
                      "internalType": "bytes32[4]",
                      "name": "ciphertext",
                      "type": "bytes32[4]"
                    },
                    {
                      "internalType": "bytes32",
                      "name": "blindedSenderViewingKey",
                      "type": "bytes32"
                    },
                    {
                      "internalType": "bytes32",
                      "name": "blindedReceiverViewingKey",
                      "type": "bytes32"
                    },
                    {
                      "internalType": "bytes",
                      "name": "annotationData",
                      "type": "bytes"
                    },
                    {
                      "internalType": "bytes",
                      "name": "memo",
                      "type": "bytes"
                    }
                  ],
                  "internalType": "struct CommitmentCiphertext[]",
                  "name": "commitmentCiphertext",
                  "type": "tuple[]"
                }
              ],
              "internalType": "struct BoundParams",
              "name": "boundParams",
              "type": "tuple"
            },
            {
              "components": [
                {
                  "internalType": "bytes32",
                  "name": "npk",
                  "type": "bytes32"
                },
                {
                  "components": [
                    {
                      "internalType": "enum TokenType",
                      "name": "tokenType",
                      "type": "uint8"
                    },
                    {
                      "internalType": "address",
                      "name": "tokenAddress",
                      "type": "address"
                    },
                    {
                      "internalType": "uint256",
                      "name": "tokenSubID",
                      "type": "uint256"
                    }
                  ],
                  "internalType": "struct TokenData",
                  "name": "token",
                  "type": "tuple"
                },
                {
                  "internalType": "uint120",
                  "name": "value",
                  "type": "uint120"
                }
              ],
              "internalType": "struct CommitmentPreimage",
              "name": "unshieldPreimage",
              "type": "tuple"
            }
          ],
          "internalType": "struct Transaction",
          "name": "_transaction",
          "type": "tuple"
        }
      ],
      "name": "validateTransaction",
      "outputs": [
        {
          "internalType": "bool",
          "name": "",
          "type": "bool"
        },
        {
          "internalType": "string",
          "name": "",
          "type": "string"
        }
      ],
      "stateMutability": "view",
      "type": "function"
    },
    {
      "inputs": [
        {
          "components": [
            {
              "components": [
                {
                  "components": [
                    {
                      "internalType": "uint256",
                      "name": "x",
                      "type": "uint256"
                    },
                    {
                      "internalType": "uint256",
                      "name": "y",
                      "type": "uint256"
                    }
                  ],
                  "internalType": "struct G1Point",
                  "name": "a",
                  "type": "tuple"
                },
                {
                  "components": [
                    {
                      "internalType": "uint256[2]",
                      "name": "x",
                      "type": "uint256[2]"
                    },
                    {
                      "internalType": "uint256[2]",
                      "name": "y",
                      "type": "uint256[2]"
                    }
                  ],
                  "internalType": "struct G2Point",
                  "name": "b",
                  "type": "tuple"
                },
                {
                  "components": [
                    {
                      "internalType": "uint256",
                      "name": "x",
                      "type": "uint256"
                    },
                    {
                      "internalType": "uint256",
                      "name": "y",
                      "type": "uint256"
                    }
                  ],
                  "internalType": "struct G1Point",
                  "name": "c",
                  "type": "tuple"
                }
              ],
              "internalType": "struct SnarkProof",
              "name": "proof",
              "type": "tuple"
            },
            {
              "internalType": "bytes32",
              "name": "merkleRoot",
              "type": "bytes32"
            },
            {
              "internalType": "bytes32[]",
              "name": "nullifiers",
              "type": "bytes32[]"
            },
            {
              "internalType": "bytes32[]",
              "name": "commitments",
              "type": "bytes32[]"
            },
            {
              "components": [
                {
                  "internalType": "uint16",
                  "name": "treeNumber",
                  "type": "uint16"
                },
                {
                  "internalType": "uint72",
                  "name": "minGasPrice",
                  "type": "uint72"
                },
                {
                  "internalType": "enum UnshieldType",
                  "name": "unshield",
                  "type": "uint8"
                },
                {
                  "internalType": "uint64",
                  "name": "chainID",
                  "type": "uint64"
                },
                {
                  "internalType": "address",
                  "name": "adaptContract",
                  "type": "address"
                },
                {
                  "internalType": "bytes32",
                  "name": "adaptParams",
                  "type": "bytes32"
                },
                {
                  "components": [
                    {
                      "internalType": "bytes32[4]",
                      "name": "ciphertext",
                      "type": "bytes32[4]"
                    },
                    {
                      "internalType": "bytes32",
                      "name": "blindedSenderViewingKey",
                      "type": "bytes32"
                    },
                    {
                      "internalType": "bytes32",
                      "name": "blindedReceiverViewingKey",
                      "type": "bytes32"
                    },
                    {
                      "internalType": "bytes",
                      "name": "annotationData",
                      "type": "bytes"
                    },
                    {
                      "internalType": "bytes",
                      "name": "memo",
                      "type": "bytes"
                    }
                  ],
                  "internalType": "struct CommitmentCiphertext[]",
                  "name": "commitmentCiphertext",
                  "type": "tuple[]"
                }
              ],
              "internalType": "struct BoundParams",
              "name": "boundParams",
              "type": "tuple"
            },
            {
              "components": [
                {
                  "internalType": "bytes32",
                  "name": "npk",
                  "type": "bytes32"
                },
                {
                  "components": [
                    {
                      "internalType": "enum TokenType",
                      "name": "tokenType",
                      "type": "uint8"
                    },
                    {
                      "internalType": "address",
                      "name": "tokenAddress",
                      "type": "address"
                    },
                    {
                      "internalType": "uint256",
                      "name": "tokenSubID",
                      "type": "uint256"
                    }
                  ],
                  "internalType": "struct TokenData",
                  "name": "token",
                  "type": "tuple"
                },
                {
                  "internalType": "uint120",
                  "name": "value",
                  "type": "uint120"
                }
              ],
              "internalType": "struct CommitmentPreimage",
              "name": "unshieldPreimage",
              "type": "tuple"
            }
          ],
          "internalType": "struct Transaction",
          "name": "_transaction",
          "type": "tuple"
        }
      ],
      "name": "verify",
      "outputs": [
        {
          "internalType": "bool",
          "name": "",
          "type": "bool"
        }
      ],
      "stateMutability": "view",
      "type": "function"
    },
    {
      "inputs": [
        {
          "components": [
            {
              "internalType": "string",
              "name": "artifactsIPFSHash",
              "type": "string"
            },
            {
              "components": [
                {
                  "internalType": "uint256",
                  "name": "x",
                  "type": "uint256"
                },
                {
                  "internalType": "uint256",
                  "name": "y",
                  "type": "uint256"
                }
              ],
              "internalType": "struct G1Point",
              "name": "alpha1",
              "type": "tuple"
            },
            {
              "components": [
                {
                  "internalType": "uint256[2]",
                  "name": "x",
                  "type": "uint256[2]"
                },
                {
                  "internalType": "uint256[2]",
                  "name": "y",
                  "type": "uint256[2]"
                }
              ],
              "internalType": "struct G2Point",
              "name": "beta2",
              "type": "tuple"
            },
            {
              "components": [
                {
                  "internalType": "uint256[2]",
                  "name": "x",
                  "type": "uint256[2]"
                },
                {
                  "internalType": "uint256[2]",
                  "name": "y",
                  "type": "uint256[2]"
                }
              ],
              "internalType": "struct G2Point",
              "name": "gamma2",
              "type": "tuple"
            },
            {
              "components": [
                {
                  "internalType": "uint256[2]",
                  "name": "x",
                  "type": "uint256[2]"
                },
                {
                  "internalType": "uint256[2]",
                  "name": "y",
                  "type": "uint256[2]"
                }
              ],
              "internalType": "struct G2Point",
              "name": "delta2",
              "type": "tuple"
            },
            {
              "components": [
                {
                  "internalType": "uint256",
                  "name": "x",
                  "type": "uint256"
                },
                {
                  "internalType": "uint256",
                  "name": "y",
                  "type": "uint256"
                }
              ],
              "internalType": "struct G1Point[]",
              "name": "ic",
              "type": "tuple[]"
            }
          ],
          "internalType": "struct VerifyingKey",
          "name": "_verifyingKey",
          "type": "tuple"
        },
        {
          "components": [
            {
              "components": [
                {
                  "internalType": "uint256",
                  "name": "x",
                  "type": "uint256"
                },
                {
                  "internalType": "uint256",
                  "name": "y",
                  "type": "uint256"
                }
              ],
              "internalType": "struct G1Point",
              "name": "a",
              "type": "tuple"
            },
            {
              "components": [
                {
                  "internalType": "uint256[2]",
                  "name": "x",
                  "type": "uint256[2]"
                },
                {
                  "internalType": "uint256[2]",
                  "name": "y",
                  "type": "uint256[2]"
                }
              ],
              "internalType": "struct G2Point",
              "name": "b",
              "type": "tuple"
            },
            {
              "components": [
                {
                  "internalType": "uint256",
                  "name": "x",
                  "type": "uint256"
                },
                {
                  "internalType": "uint256",
                  "name": "y",
                  "type": "uint256"
                }
              ],
              "internalType": "struct G1Point",
              "name": "c",
              "type": "tuple"
            }
          ],
          "internalType": "struct SnarkProof",
          "name": "_proof",
          "type": "tuple"
        },
        {
          "internalType": "uint256[]",
          "name": "_inputs",
          "type": "uint256[]"
        }
      ],
      "name": "verifyProof",
      "outputs": [
        {
          "internalType": "bool",
          "name": "",
          "type": "bool"
        }
      ],
      "stateMutability": "view",
      "type": "function"
    },
    {
      "inputs": [
        {
          "internalType": "uint256",
          "name": "",
          "type": "uint256"
        }
      ],
      "name": "zeros",
      "outputs": [
        {
          "internalType": "bytes32",
          "name": "",
          "type": "bytes32"
        }
      ],
      "stateMutability": "view",
      "type": "function"
    }
  ],
  "bytecode": "0x608060405234801561001057600080fd5b50615aa980620000216000396000f3fe608060405234801561001057600080fd5b50600436106102695760003560e01c806371c5345511610151578063c8f35b5d116100c3578063e829558811610087578063e8295588146105fb578063ec7329591461060e578063ee99078314610616578063f19ea90314610629578063f2fde38b14610657578063f71a55f81461066a57600080fd5b8063c8f35b5d146105ac578063cc1f73fd146105b9578063cd3efe06146105cc578063d8ae136a146105d5578063dc7c9a1f146105e857600080fd5b806392d3c7a41161011557806392d3c7a4146104e8578063a33952a9146104fb578063ab63e69c1461050e578063b14f2a3914610521578063b8ceaef214610534578063c718dbda1461057e57600080fd5b806371c53455146104785780637b12ae831461048b578063815b534f146104ab5780638da5cb5b146104ce5780639071adc0146104df57600080fd5b80632ebfe12a116101ea57806359bb6199116101ae57806359bb619914610403578063617e1b171461041657806361d027b31461042957806366503315146104545780636cefafaa1461045d578063715018a61461047057600080fd5b80632ebfe12a146103845780632ec0f3591461039757806338bf282e146103aa57806343c88730146103bd578063596d7a68146103f057600080fd5b80630c9c0c8d116102315780630c9c0c8d146102ec578063129458f414610314578063174768911461034757806328f89c3a146103685780632eb4a7ab1461037b57600080fd5b806301c377901461026e578063044a40c31461029e578063053ed12a146102b35780630804a4ee146102cd5780630be4f422146102d5575b600080fd5b60fa54610281906001600160781b031681565b6040516001600160781b0390911681526020015b60405180910390f35b6102b16102ac366004613e81565b61067d565b005b60fa5461028190600160781b90046001600160781b031681565b6102b161099a565b6102de60665481565b604051908152602001610295565b6102ff6102fa366004613ef6565b610a26565b60408051928352602083019190915201610295565b610337610322366004613ef6565b60fc6020526000908152604090205460ff1681565b6040519015158152602001610295565b61035a610355366004613f0f565b610a70565b604051610295929190613f9a565b6102de610376366004613fb5565b610ed5565b6102de60675481565b61033761039236600461433e565b610f20565b6102b16103a5366004614451565b610f43565b6102de6103b83660046144a8565b610fb3565b6103d06103cb3660046144f4565b611045565b604080516001600160781b03938416815292909116602083015201610295565b6102b16103fe366004614547565b6110d6565b6102de6104113660046145af565b6110f1565b61035a6104243660046145e4565b611166565b60f95461043c906001600160a01b031681565b6040516001600160a01b039091168152602001610295565b6102de60695481565b6102b161046b366004613ef6565b6112f1565b6102b1611314565b6102de610486366004614671565b611328565b61049e6104993660046144a8565b6113dc565b60405161029591906146f9565b6103376104b93660046147d5565b60956020526000908152604090205460ff1681565b6033546001600160a01b031661043c565b6102de60fb5481565b6102de6104f63660046147f2565b6116a1565b6102b161050936600461480e565b6116ed565b6102b161051c3660046145af565b6118c9565b6102b161052f3660046147d5565b6119e9565b61056f610542366004613ef6565b60fd602052600090815260409020805460019091015460ff82169161010090046001600160a01b03169083565b604051610295939291906148a6565b61033761058c3660046144a8565b608a60209081526000928352604080842090915290825290205460ff1681565b60c8546103379060ff1681565b6102b16105c73660046148d0565b611a5a565b6102de60fe5481565b6102b16105e33660046145af565b611c0d565b6102b16105f6366004613ef6565b611efe565b6102de610609366004613ef6565b611f1e565b6102de611f35565b610337610624366004613f0f565b611f70565b6103376106373660046144a8565b606560209081526000928352604080842090915290825290205460ff1681565b6102b16106653660046147d5565b61247c565b6102b16106783660046145af565b6124f2565b6000816001600160401b0381111561069757610697613fef565b6040519080825280602002602001820160405280156106c0578160200160208202803683370190505b5090506000826001600160401b038111156106dd576106dd613fef565b60405190808252806020026020018201604052801561071657816020015b610703613d01565b8152602001906001900390816106fb5790505b5090506000836001600160401b0381111561073357610733613fef565b60405190808252806020026020018201604052801561076c57816020015b610759613d3a565b8152602001906001900390816107515790505b5090506000846001600160401b0381111561078957610789613fef565b6040519080825280602002602001820160405280156107b2578160200160208202803683370190505b50905060005b85811015610932576000806107e78989858181106107d8576107d861490c565b90506101200201600001611166565b9150915081816040516020016107fd9190614922565b604051602081830303815290604052906108335760405162461bcd60e51b815260040161082a919061495e565b60405180910390fd5b506108588989858181106108495761084961490c565b90506101200201600001612615565b87858151811061086a5761086a61490c565b602002602001018686815181106108835761088361490c565b602002602001018281525082905250506108b58684815181106108a8576108a861490c565b6020026020010151611328565b8784815181106108c7576108c761490c565b6020026020010181815250508888848181106108e5576108e561490c565b9050610120020160a0018036038101906108ff9190614971565b8584815181106109115761091161490c565b6020026020010181905250505060018161092b9190614a13565b90506107b8565b506000806109408551610a26565b915091507f3a5b9dc26075a3801a6ddccf95fec485bb7500a91b44cec1add984c21ee6db3b828287878760405161097b959493929190614af6565b60405180910390a161098c86612a9c565b50504360fe55505050505050565b7f8dea8703c3cf94703383ce38a9c894669dccd4ca8e65ddb43267aa0248711450805460ff1916600117905533600090815260fc602052604090205480610a235760405162461bcd60e51b815260206004820152601c60248201527f5261696c67756e4c6f6769633a20556e7361666520766563746f727300000000604482015260640161082a565b50565b600080610a3560106002614c7e565b83606654610a439190614a13565b1115610a6157606954610a57906001614a13565b9360009350915050565b60695460665491509150915091565b60006060610a82610160840184614c8a565b610a93906040810190602001614cc3565b68ffffffffffffffffff163a1015610ad757505060408051808201909152601181527047617320707269636520746f6f206c6f7760781b6020820152600092909150565b6000610ae7610160850185614c8a565b610af89060a08101906080016147d5565b6001600160a01b031614158015610b36575033610b19610160850185614c8a565b610b2a9060a08101906080016147d5565b6001600160a01b031614155b15610b7c5760006040518060400160405280602081526020017f496e76616c696420416461707420436f6e74726163742061732053656e64657281525091509150915091565b46610b8b610160850185614c8a565b610b9c906080810190606001614cf5565b6001600160401b031614610bdb57505060408051808201909152601081526f086d0c2d2dc928840dad2e6dac2e8c6d60831b6020820152600092909150565b608a6000610bed610160860186614c8a565b610bfb906020810190614d22565b61ffff16815260208082019290925260409081016000908120610100870135825290925290205460ff16610c5d575050604080518082019091526013815272125b9d985b1a590813595c9adb1948149bdbdd606a1b6020820152600092909150565b6000610c6d610160850185614c8a565b610c7e906060810190604001614d3d565b6002811115610c8f57610c8f614872565b14610e24576001610ca4610140850185614d5a565b610caf929150614da3565b610cbd610160850185614c8a565b610ccb9060c0810190614d5a565b905014610cf6576000604051806060016040528060248152602001615a506024913991509150915091565b60006002610d08610160860186614c8a565b610d19906060810190604001614d3d565b6002811115610d2a57610d2a614872565b03610d86576040805160608101909152338152610d7f9060208101610d583688900388016101a089016147f2565b8152602001610d6f61022088016102008901614db6565b6001600160781b03169052611328565b9050610d9f565b610d9c6104863686900386016101808701614671565b90505b610dad610140850185614d5a565b6001610dbd610140880188614d5a565b610dc8929150614da3565b818110610dd757610dd761490c565b905060200201358114610e1e57600060405180604001604052806015815260200174496e76616c6964205769746864726177204e6f746560581b8152509250925050915091565b50610e7b565b610e32610140840184614d5a565b9050610e42610160850185614c8a565b610e509060c0810190614d5a565b905014610e7b576000604051806060016040528060248152602001615a506024913991509150915091565b610e8483611f70565b610ebc57505060408051808201909152601381527224b73b30b634b21029b730b93590283937b7b360691b6020820152600092909150565b5050604080516020810190915260008152600192909150565b6000600080516020615a3083398151915282604051602001610ef79190614f4a565b6040516020818303038152906040528051906020012060001c610f1a9190615014565b92915050565b6000610f3b84610f3536869003860186615028565b84612d31565b949350505050565b610f4b612ea4565b600083815260c76020908152604080832085845290915290208190610f708282615301565b9050507f3d09e10d1c966d01c4a2c14d0ac9af253486aa5e99b6cffe9019c4d43eb1fb23838383604051610fa693929190615404565b60405180910390a1505050565b60408051808201825283815260208101839052905163014cf2b360e51b815260009173__$e4b2a9d8f07fa6f22863c7e426f7b84603$__9163299e566091610ffd916004016154e5565b602060405180830381865af415801561101a573d6000803e3d6000fd5b505050506040513d601f19601f8201168201806040525081019061103e9190615516565b9392505050565b600080600080851561108e576127106110676001600160781b0387168961552f565b6110719190615558565b61107b908861557e565b9150611087828861557e565b90506110ca565b8691508161109e866127106155a5565b6001600160781b03166110b38461271061552f565b6110bd9190615558565b6110c7919061557e565b90505b90969095509350505050565b6110de612ea4565b60c8805460ff1916911515919091179055565b600080805b8381101561115e578484828181106111105761111061490c565b905060200281019061112291906155c5565b61113190610160810190614c8a565b61113f9060c0810190614d5a565b61114a915083614a13565b9150611157600182614a13565b90506110f6565b509392505050565b6000606061117a60a0840160808501614db6565b6001600160781b03166000036111bd575050604080518082019091526012815271496e76616c6964204e6f74652056616c756560701b6020820152600092909150565b609560006111d160608601604087016147d5565b6001600160a01b0316815260208101919091526040016000205460ff16156112255750506040805180820190915260118152702ab739bab83837b93a32b2102a37b5b2b760791b6020820152600092909150565b600080516020615a3083398151915283351061126c57505060408051808201909152601081526f496e76616c6964204e6f7465204e504b60801b6020820152600092909150565b600161127e6040850160208601614d3d565b600281111561128f5761128f614872565b1480156112b557506112a760a0840160808501614db6565b6001600160781b0316600114155b15610ebc575050604080518082019091526016815275496e76616c6964204e4654204e6f74652056616c756560501b6020820152600092909150565b6112f9612ea4565b600090815260fc60205260409020805460ff19166001179055565b61131c612ea4565b6113266000612efe565b565b600073__$610c11827248d0bfa646e7ca34d40f2d3f$__635a53025d60405180606001604052808560000151815260200161136686602001516116a1565b815260200185604001516001600160781b031660001b8152506040518263ffffffff1660e01b815260040161139b91906155dc565b602060405180830381865af41580156113b8573d6000803e3d6000fd5b505050506040513d601f19601f82011682018060405250810190610f1a9190615516565b6113e4613d4d565b600083815260c76020908152604080832085845290915290819020815160c081019092528054829082906114179061506e565b80601f01602080910402602001604051908101604052809291908181526020018280546114439061506e565b80156114905780601f1061146557610100808354040283529160200191611490565b820191906000526020600020905b81548152906001019060200180831161147357829003601f168201915b505050918352505060408051808201825260018401548152600280850154602080840191909152840191909152815160808101808452938301939092600386019284929183019184919082845b8154815260200190600101908083116114dd57505050918352505060408051808201918290526020909201919060028481019182845b815481526020019060010190808311611513575050509190925250505081526040805160808101808352602090930192909160078501918391820190839060029082845b81548152602001906001019080831161155757505050918352505060408051808201918290526020909201919060028481019182845b81548152602001906001019080831161158d5750505091909252505050815260408051608081018083526020909301929091600b8501918391820190839060029082845b8154815260200190600101908083116115d157505050918352505060408051808201918290526020909201919060028481019182845b815481526020019060010190808311611607575050505050815250508152602001600f8201805480602002602001604051908101604052809291908181526020016000905b828210156116925783829060005260206000209060020201604051806040016040529081600082015481526020016001820154815250508152602001906001019061164c565b50505091525090949350505050565b600080825160028111156116b7576116b7614872565b036116cd5750602001516001600160a01b031690565b600080516020615a3083398151915282604051602001610ef79190615604565b600054610100900460ff161580801561170d5750600054600160ff909116105b806117275750303b158015611727575060005460ff166001145b61178a5760405162461bcd60e51b815260206004820152602e60248201527f496e697469616c697a61626c653a20636f6e747261637420697320616c72656160448201526d191e481a5b9a5d1a585b1a5e995960921b606482015260840161082a565b6000805460ff1916600117905580156117ad576000805461ff0019166101001790555b6117b5612f50565b6117bd612f7f565b6117c6866119e9565b6117d1858585611a5a565b6117da8261247c565b60fc6020527f18a261e1efd282dd636becf59b85995514ab34d1c1c9a3e1128aac786b5472de8054600160ff1991821681179092557f35cc25be27a7e44e9e6eb23f103c8980fe6d01e7b6e981c2c07b23911ac79e8b805482168317905573cc29dbf69896278a0c6b886ef8cc30a56fa6164a6000527f7e1bfa3bd01233beed03b737790a265ae14e11664e22f82316c6f65a13e15c8c8054909116909117905580156118c1576000805461ff0019169055604051600181527f7f26b83ff96e1f2b6a682f133852f6798a09c465da95921460cefb38474024989060200160405180910390a15b505050505050565b6118d1612ea4565b60005b818110156119e457609560008484848181106118f2576118f261490c565b905060200201602081019061190791906147d5565b6001600160a01b0316815260208101919091526040016000205460ff16156119d2576095600084848481811061193f5761193f61490c565b905060200201602081019061195491906147d5565b6001600160a01b031681526020810191909152604001600020805460ff191690558282828181106119875761198761490c565b905060200201602081019061199c91906147d5565b6001600160a01b03167f2ef13bd1aff17b0f9c85afaf228e84266c8394d9d381735e83fe23f607113e2e60405160405180910390a25b6119dd600182614a13565b90506118d4565b505050565b6119f1612ea4565b60f9546001600160a01b03828116911614610a235760f980546001600160a01b0319166001600160a01b0383169081179091556040519081527f1ac54af2084ba0e4b86b7bc54b978ce7dd4ca046d3dec89d7c8963873820c0bb9060200160405180910390a150565b611a62612ea4565b60fa546001600160781b038481169116141580611a94575060fa546001600160781b03838116600160781b9092041614155b80611aa1575060fb548114155b156119e457611ab36002612710615612565b6001600160781b0316836001600160781b03161115611b205760405162461bcd60e51b8152602060048201526024808201527f5261696c67756e4c6f6769633a20536869656c642046656520657863656564736044820152632035302560e01b606482015260840161082a565b611b2d6002612710615612565b6001600160781b0316826001600160781b03161115611b9d5760405162461bcd60e51b815260206004820152602660248201527f5261696c67756e4c6f6769633a20556e736869656c642046656520657863656560448201526564732035302560d01b606482015260840161082a565b60fa80546001600160781b038581166001600160f01b03199092168217600160781b9186169182021790925560fb8390556040805191825260208201929092529081018290527f472cfc031d19bcc54db01976ce486cc12dc3d489e6adced1eb5a782cd55cfdf290606001610fa6565b6000611c1983836110f1565b90506000816001600160401b03811115611c3557611c35613fef565b604051908082528060200260200182016040528015611c5e578160200160208202803683370190505b509050600080836001600160401b03811115611c7c57611c7c613fef565b604051908082528060200260200182016040528015611cb557816020015b611ca2613db0565b815260200190600190039081611c9a5790505b50905060005b85811015611d7857600080611ced898985818110611cdb57611cdb61490c565b905060200281019061035591906155c5565b915091508181604051602001611d039190614922565b60405160208183030381529060405290611d305760405162461bcd60e51b815260040161082a919061495e565b50611d60898985818110611d4657611d4661490c565b9050602002810190611d5891906155c5565b8787876130a6565b94505050600181611d719190614a13565b9050611cbb565b5060005b85811015611e9d576000878783818110611d9857611d9861490c565b9050602002810190611daa91906155c5565b611db990610160810190614c8a565b611dca906060810190604001614d3d565b6002811115611ddb57611ddb614872565b14611e8b57600080611e13898985818110611df857611df861490c565b9050602002810190611e0a91906155c5565b61018001611166565b915091508181604051602001611e299190614922565b60405160208183030381529060405290611e565760405162461bcd60e51b815260040161082a919061495e565b50611e88898985818110611e6c57611e6c61490c565b9050602002810190611e7e91906155c5565b6101800133613390565b50505b611e96600182614a13565b9050611d7c565b50600080611eab8551610a26565b8651919350915015611ef5577f56a618cda1e34057b7f849a5792f6c8587a2dbe11c83d0254e72cb3daffda7d182828786604051611eec949392919061562c565b60405180910390a15b61098c85612a9c565b611f06612ea4565b600090815260fc60205260409020805460ff19169055565b606a8160108110611f2e57600080fd5b0154905081565b611f6d600080516020615a308339815191527f95b5e3f3c951508f13e7771152f5b7c7329a294917685c10a571c9247e3b9fff615014565b81565b60c85460009060ff1615611f8657506001919050565b6000611f96610120840184614d5a565b915060009050611faa610140850185614d5a565b600084815260c760209081526040808320848452909152808220815160c0810190925280549395509193509182908290611fe39061506e565b80601f016020809104026020016040519081016040528092919081815260200182805461200f9061506e565b801561205c5780601f106120315761010080835404028352916020019161205c565b820191906000526020600020905b81548152906001019060200180831161203f57829003601f168201915b505050918352505060408051808201825260018401548152600280850154602080840191909152840191909152815160808101808452938301939092600386019284929183019184919082845b8154815260200190600101908083116120a957505050918352505060408051808201918290526020909201919060028481019182845b8154815260200190600101908083116120df575050509190925250505081526040805160808101808352602090930192909160078501918391820190839060029082845b81548152602001906001019080831161212357505050918352505060408051808201918290526020909201919060028481019182845b8154815260200190600101908083116121595750505091909252505050815260408051608081018083526020909301929091600b8501918391820190839060029082845b81548152602001906001019080831161219d57505050918352505060408051808201918290526020909201919060028481019182845b8154815260200190600101908083116121d3575050505050815250508152602001600f8201805480602002602001604051908101604052809291908181526020016000905b8282101561225e57838290600052602060002090600202016040518060400160405290816000820154815260200160018201548152505081526020019060010190612218565b505050915250506020810151519091506000036122b55760405162461bcd60e51b815260206004820152601560248201527415995c9a599a595c8e8812d95e481b9bdd081cd95d605a1b604482015260640161082a565b6000826122c3856002614a13565b6122cd9190614a13565b6001600160401b038111156122e4576122e4613fef565b60405190808252806020026020018201604052801561230d578160200160208202803683370190505b50905085610100013560001c8160008151811061232c5761232c61490c565b6020908102919091010152612348610376610160880188614c8a565b8160018151811061235b5761235b61490c565b60200260200101818152505060005b848110156123d357612380610120880188614d5a565b828181106123905761239061490c565b60200291909101359050826123a6836002614a13565b815181106123b6576123b661490c565b60209081029190910101526123cc600182614a13565b905061236a565b5060005b8381101561244b576123ed610140880188614d5a565b828181106123fd576123fd61490c565b602002919091013590508282612414886002614a13565b61241e9190614a13565b8151811061242e5761242e61490c565b6020908102919091010152612444600182614a13565b90506123d7565b506000612459838884610f20565b905061deac193201612472575060019695505050505050565b9695505050505050565b612484612ea4565b6001600160a01b0381166124e95760405162461bcd60e51b815260206004820152602660248201527f4f776e61626c653a206e6577206f776e657220697320746865207a65726f206160448201526564647265737360d01b606482015260840161082a565b610a2381612efe565b6124fa612ea4565b60005b818110156119e4576095600084848481811061251b5761251b61490c565b905060200201602081019061253091906147d5565b6001600160a01b0316815260208101919091526040016000205460ff16612603576001609560008585858181106125695761256961490c565b905060200201602081019061257e91906147d5565b6001600160a01b031681526020810191909152604001600020805460ff19169115159190911790558282828181106125b8576125b861490c565b90506020020160208101906125cd91906147d5565b6001600160a01b03167f46742f555939247f80b50a8ca895a561933c48bc9a06ccb0c812e97ac723d33f60405160405180910390a25b61260e600182614a13565b90506124fd565b61261d613d01565b6000612627613d01565b60008061263a6040870160208801614d3d565b600281111561264b5761264b614872565b0361287457600061266260608701604088016147d5565b905060008061269261267a60a08a0160808b01614db6565b60fa546001600160781b039182169160019116611045565b91509150806001600160781b03169350604051806060016040528089600001358152602001896020018036038101906126cb91906147f2565b81526001600160781b0384166020909101526040516370a0823160e01b81523060048201529095506000906001600160a01b038516906370a0823190602401602060405180830381865afa158015612727573d6000803e3d6000fd5b505050506040513d601f19601f8201168201806040525081019061274b9190615516565b905061276b6001600160a01b03851633306001600160781b03871661360f565b6040516370a0823160e01b81523060048201526000906001600160a01b038616906370a0823190602401602060405180830381865afa1580156127b2573d6000803e3d6000fd5b505050506040513d601f19601f820116820180604052508101906127d69190615516565b90506001600160781b0384166127ec8383614da3565b146128455760405162461bcd60e51b815260206004820152602360248201527f5261696c67756e4c6f6769633a204552433230207472616e73666572206661696044820152621b195960ea1b606482015260840161082a565b60f95461286a906001600160a01b03878116913391166001600160781b03871661360f565b5050505050612a92565b60016128866040870160208801614d3d565b600281111561289757612897614872565b03612a3a5760006128ae60608701604088016147d5565b6000925090506128c336879003870187614671565b92506020860160fd60006128df6104f6368b90038b01856147f2565b815260200190815260200160002081816128f99190615741565b50506040516323b872dd60e01b8152336004820152306024820152606087013560448201526001600160a01b038216906323b872dd90606401600060405180830381600087803b15801561294c57600080fd5b505af1158015612960573d6000803e3d6000fd5b50506040516331a9108f60e11b8152606089013560048201523092506001600160a01b0384169150636352211e90602401602060405180830381865afa1580156129ae573d6000803e3d6000fd5b505050506040513d601f19601f820116820180604052508101906129d291906157a7565b6001600160a01b031614612a345760405162461bcd60e51b8152602060048201526024808201527f5261696c67756e4c6f6769633a20455243373231206469646e2774207472616e60448201526339b332b960e11b606482015260840161082a565b50612a92565b60405162461bcd60e51b815260206004820152602760248201527f5261696c67756e4c6f6769633a2045524331313535206e6f74207965742073756044820152661c1c1bdc9d195960ca1b606482015260840161082a565b9094909350915050565b80516000819003612aab575050565b612ab760106002614c7e565b81606654612ac59190614a13565b1115612ad357612ad3613680565b606680549082906000612ae68385614a13565b909155506000905080805b6010811015612ce057600184901c91506000612b0e600286615014565b600103612b9457612b2383600187901c614da3565b9350612b5c607a8360108110612b3b57612b3b61490c565b0154888381518110612b4f57612b4f61490c565b6020026020010151610fb3565b878581518110612b6e57612b6e61490c565b6020908102919091010152612b84600182614a13565b9050612b91600186614a13565b94505b85811015612cba576000612ba9600188614da3565b821015612bdb5787612bbc836001614a13565b81518110612bcc57612bcc61490c565b60200260200101519050612bf3565b606a8360108110612bee57612bee61490c565b015490505b612bfe600188614da3565b821480612c145750612c11600288614da3565b82145b15612c4957878281518110612c2b57612c2b61490c565b6020026020010151607a8460108110612c4657612c4661490c565b01555b612c5784600188901c614da3565b9450612c7c888381518110612c6e57612c6e61490c565b602002602001015182610fb3565b888681518110612c8e57612c8e61490c565b6020908102919091010152612ca4600287614a13565b9550612cb39050600282614a13565b9050612b94565b829450836001612cca9190614a13565b9550612cd99050600182614a13565b9050612af1565b5084600081518110612cf457612cf461490c565b60209081029190910181015160678190556069546000908152608a83526040808220928252919092529020805460ff191660011790555050505050565b6040805180820190915260008082526020820181905290815b8351811015612e3c57600080516020615a30833981519152848281518110612d7457612d7461490c565b602002602001015110612dd35760405162461bcd60e51b815260206004820152602160248201527f536e61726b3a20496e707574203e20534e41524b5f5343414c41525f4649454c6044820152601160fa1b606482015260840161082a565b612e2882612e238860a00151846001612dec9190614a13565b81518110612dfc57612dfc61490c565b6020026020010151878581518110612e1657612e1661490c565b60200260200101516136a7565b61374b565b9150612e35600182614a13565b9050612d4a565b50612e65818660a00151600081518110612e5857612e5861490c565b602002602001015161374b565b9050612e9b612e7785600001516137eb565b856020015187602001518860400151858a606001518a604001518c6080015161392d565b95945050505050565b6033546001600160a01b031633146113265760405162461bcd60e51b815260206004820181905260248201527f4f776e61626c653a2063616c6c6572206973206e6f7420746865206f776e6572604482015260640161082a565b603380546001600160a01b038381166001600160a01b0319831681179093556040519116919082907f8be0079c531659141344cd1fd0a4f28419497f9722a3daafe3b4186f6b6457e090600090a35050565b600054610100900460ff16612f775760405162461bcd60e51b815260040161082a906157c4565b611326613aa9565b600054610100900460ff16612fa65760405162461bcd60e51b815260040161082a906157c4565b612fde600080516020615a308339815191527f95b5e3f3c951508f13e7771152f5b7c7329a294917685c10a571c9247e3b9fff615014565b606a55600061301b600080516020615a308339815191527f95b5e3f3c951508f13e7771152f5b7c7329a294917685c10a571c9247e3b9fff615014565b905060005b60108110156130735781606a826010811061303d5761303d61490c565b015581607a82601081106130535761305361490c565b015561305f8280610fb3565b915061306c600182614a13565b9050613020565b50606781905560688190556069546000908152608a6020908152604080832093835292905220805460ff19166001179055565b6000805b6130b8610120870187614d5a565b905081101561321157606560006130d3610160890189614c8a565b6130e1906020810190614d22565b61ffff1681526020019081526020016000206000878061012001906131069190614d5a565b848181106131165761311661490c565b602090810292909201358352508101919091526040016000205460ff16156131805760405162461bcd60e51b815260206004820181905260248201527f5261696c67756e4c6f6769633a204e6f746520616c7265616479207370656e74604482015260640161082a565b6001606560006131946101608a018a614c8a565b6131a2906020810190614d22565b61ffff1681526020019081526020016000206000888061012001906131c79190614d5a565b858181106131d7576131d761490c565b60209081029290920135835250810191909152604001600020805460ff191691151591909117905561320a600182614a13565b90506130aa565b507f781745c57906dc2f175fec80a9c691744c91c48a34a83672c41c2604774eb11f613241610160870187614c8a565b61324f906020810190614d22565b61325d610120880188614d5a565b60405161326c9392919061580f565b60405180910390a160005b613285610160870187614c8a565b6132939060c0810190614d5a565b9050811015613368576132aa610140870187614d5a565b828181106132ba576132ba61490c565b905060200201358582866132ce9190614a13565b815181106132de576132de61490c565b60209081029190910101526132f7610160870187614c8a565b6133059060c0810190614d5a565b828181106133155761331561490c565b90506020028101906133279190615854565b6133309061586a565b8361333b8387614a13565b8151811061334b5761334b61490c565b6020908102919091010152613361600182614a13565b9050613277565b50613377610160860186614c8a565b6133859060c0810190614d5a565b612e9b915084614a13565b60006133a26040840160208501614d3d565b60028111156133b3576133b3614872565b036135295760006133ca60608401604085016147d5565b90506000806134016133e260a0870160808801614db6565b60fa546001600160781b0391821691600191600160781b900416611045565b909250905084356134256001600160a01b038516826001600160781b038616613ad9565b60f954613448906001600160a01b0386811691166001600160781b038516613ad9565b7fd93cf895c7d5b2cd7dc7a098b678b3089f37d91f48d9b83a0800a91cbdf05284818760200185856040516134809493929190615972565b60405180910390a16001600160a01b0381163b156118c1576001600160a01b03811663296b3b556134b76060890160408a016147d5565b6040516001600160e01b031960e084901b1681526001600160a01b0391821660048201526001600160781b03871660248201529088166044820152606401600060405180830381600087803b15801561350f57600080fd5b505af1925050508015613520575060015b50505050505050565b600161353b6040840160208501614d3d565b600281111561354c5761354c614872565b03612a3a57600061356360608401604085016147d5565b6040516323b872dd60e01b81523060048201526001600160a01b0385358116602483015260608601356044830152919250908216906323b872dd90606401600060405180830381600087803b1580156135bb57600080fd5b505af11580156135cf573d6000803e3d6000fd5b50506040517fd93cf895c7d5b2cd7dc7a098b678b3089f37d91f48d9b83a0800a91cbdf052849250610fa6915085359060208701906001906000906159b1565b6040516001600160a01b038085166024830152831660448201526064810182905261367a9085906323b872dd60e01b906084015b60408051601f198184030181529190526020810180516001600160e01b03166001600160e01b031990931692909217909152613b09565b50505050565b6068546067556000606681905560698054600192906136a0908490614a13565b9091555050565b60408051808201909152600080825260208201526136c3613de4565b835181526020808501519082015260408082018490526000908360608460076107d05a03fa9050806137435760405162461bcd60e51b815260206004820152602360248201527f536e61726b3a205363616c6172204d756c7469706c69636174696f6e204661696044820152621b195960ea1b606482015260840161082a565b505092915050565b6040805180820190915260008082526020820152613767613e02565b83518152602080850151818301528351604080840191909152848201516060840152805180820182526000808252928101839052908160808560066107d05a03fa915081612e9b5760405162461bcd60e51b815260206004820152601160248201527014db985c9ace881059190811985a5b1959607a1b604482015260640161082a565b6040805180820190915260008082526020820152815115801561381057506020820151155b1561382e575050604080518082019091526000808252602082015290565b6000600080516020615a10833981519152835180099050600080516020615a10833981519152835182099050600080516020615a108339815191526003820890506000600080516020615a108339815191526020850151800990508181146138d85760405162461bcd60e51b815260206004820152601760248201527f536e61726b3a20496e76616c6964206e65676174696f6e000000000000000000604482015260640161082a565b604051806040016040528085600001518152602001600080516020615a10833981519152866020015161390b9190615014565b61392390600080516020615a10833981519152614da3565b9052949350505050565b6040805161030081018252895181526020808b015181830152895151928201929092528851820151606082015288820180515160808301525182015160a0820152875160c08201528782015160e08201528651516101008201528651820151610120820152868201805151610140830152518201516101608201528551610180820152858201516101a08201528451516101c082015284518201516101e08201528482018051516102008301525182015161022082015283516102408201528382015161026082015282515161028082015282518201516102a08201528282018051516102c083015251909101516102e0820152600090613a2c613e20565b60006020826103008560086107d05a03fa905080613a975760405162461bcd60e51b815260206004820152602260248201527f536e61726b3a2050616972696e6720566572696669636174696f6e204661696c604482015261195960f21b606482015260840161082a565b505115159a9950505050505050505050565b600054610100900460ff16613ad05760405162461bcd60e51b815260040161082a906157c4565b61132633612efe565b6040516001600160a01b0383166024820152604481018290526119e490849063a9059cbb60e01b90606401613643565b6000613b5e826040518060400160405280602081526020017f5361666545524332303a206c6f772d6c6576656c2063616c6c206661696c6564815250856001600160a01b0316613bde9092919063ffffffff16565b9050805160001480613b7f575080806020019051810190613b7f91906159e0565b6119e45760405162461bcd60e51b815260206004820152602a60248201527f5361666545524332303a204552433230206f7065726174696f6e20646964206e6044820152691bdd081cdd58d8d9595960b21b606482015260840161082a565b6060610f3b848460008585600080866001600160a01b03168587604051613c0591906159fd565b60006040518083038185875af1925050503d8060008114613c42576040519150601f19603f3d011682016040523d82523d6000602084013e613c47565b606091505b5091509150613c5887838387613c63565b979650505050505050565b60608315613cd2578251600003613ccb576001600160a01b0385163b613ccb5760405162461bcd60e51b815260206004820152601d60248201527f416464726573733a2063616c6c20746f206e6f6e2d636f6e7472616374000000604482015260640161082a565b5081610f3b565b610f3b8383815115613ce75781518083602001fd5b8060405162461bcd60e51b815260040161082a919061495e565b604080516060808201835260008083528351918201845280825260208281018290529382015290918201905b8152600060209091015290565b6040518060400160405280613d2d613de4565b6040518060c0016040528060608152602001613d7c604051806040016040528060008152602001600081525090565b8152602001613d89613e3e565b8152602001613d96613e3e565b8152602001613da3613e3e565b8152602001606081525090565b6040518060a00160405280613dc3613e02565b81526000602082018190526040820152606080820181905260809091015290565b60405180606001604052806003906020820280368337509192915050565b60405180608001604052806004906020820280368337509192915050565b60405180602001604052806001906020820280368337509192915050565b6040518060400160405280613e51613e63565b8152602001613e5e613e63565b905290565b60405180604001604052806002906020820280368337509192915050565b60008060208385031215613e9457600080fd5b82356001600160401b0380821115613eab57600080fd5b818501915085601f830112613ebf57600080fd5b813581811115613ece57600080fd5b86602061012083028501011115613ee457600080fd5b60209290920196919550909350505050565b600060208284031215613f0857600080fd5b5035919050565b600060208284031215613f2157600080fd5b81356001600160401b03811115613f3757600080fd5b8201610220818503121561103e57600080fd5b60005b83811015613f65578181015183820152602001613f4d565b50506000910152565b60008151808452613f86816020860160208601613f4a565b601f01601f19169290920160200192915050565b8215158152604060208201526000610f3b6040830184613f6e565b600060208284031215613fc757600080fd5b81356001600160401b03811115613fdd57600080fd5b820160e0818503121561103e57600080fd5b634e487b7160e01b600052604160045260246000fd5b604080519081016001600160401b038111828210171561402757614027613fef565b60405290565b60405160c081016001600160401b038111828210171561402757614027613fef565b604051606081016001600160401b038111828210171561402757614027613fef565b60405160a081016001600160401b038111828210171561402757614027613fef565b604051608081016001600160401b038111828210171561402757614027613fef565b604051601f8201601f191681016001600160401b03811182821017156140dd576140dd613fef565b604052919050565b600082601f8301126140f657600080fd5b81356001600160401b0381111561410f5761410f613fef565b614122601f8201601f19166020016140b5565b81815284602083860101111561413757600080fd5b816020850160208301376000918101602001919091529392505050565b60006040828403121561416657600080fd5b61416e614005565b9050813581526020820135602082015292915050565b600082601f83011261419557600080fd5b604051604081018181106001600160401b03821117156141b7576141b7613fef565b80604052508060408401858111156141ce57600080fd5b845b818110156141e85780358352602092830192016141d0565b509195945050505050565b60006080828403121561420557600080fd5b61420d614005565b90506142198383614184565b81526142288360408401614184565b602082015292915050565b60006001600160401b0382111561424c5761424c613fef565b5060051b60200190565b600082601f83011261426757600080fd5b8135602061427c61427783614233565b6140b5565b82815260069290921b8401810191818101908684111561429b57600080fd5b8286015b848110156142bf576142b18882614154565b83529183019160400161429f565b509695505050505050565b600061010082840312156142dd57600080fd5b50919050565b600082601f8301126142f457600080fd5b8135602061430461427783614233565b82815260059290921b8401810191818101908684111561432357600080fd5b8286015b848110156142bf5780358352918301918301614327565b6000806000610140848603121561435457600080fd5b83356001600160401b038082111561436b57600080fd5b90850190610200828803121561438057600080fd5b61438861402d565b82358281111561439757600080fd5b6143a3898286016140e5565b8252506143b38860208501614154565b60208201526143c588606085016141f3565b60408201526143d78860e085016141f3565b60608201526143ea8861016085016141f3565b60808201526101e08301358281111561440257600080fd5b61440e89828601614256565b60a083015250945061442387602088016142ca565b935061012086013591508082111561443a57600080fd5b50614447868287016142e3565b9150509250925092565b60008060006060848603121561446657600080fd5b833592506020840135915060408401356001600160401b0381111561448a57600080fd5b8401610200818703121561449d57600080fd5b809150509250925092565b600080604083850312156144bb57600080fd5b50508035926020909101359150565b8015158114610a2357600080fd5b80356001600160781b03811681146144ef57600080fd5b919050565b60008060006060848603121561450957600080fd5b83356001600160881b038116811461452057600080fd5b92506020840135614530816144ca565b915061453e604085016144d8565b90509250925092565b60006020828403121561455957600080fd5b813561103e816144ca565b60008083601f84011261457657600080fd5b5081356001600160401b0381111561458d57600080fd5b6020830191508360208260051b85010111156145a857600080fd5b9250929050565b600080602083850312156145c257600080fd5b82356001600160401b038111156145d857600080fd5b6110ca85828601614564565b600060a082840312156142dd57600080fd5b60038110610a2357600080fd5b6001600160a01b0381168114610a2357600080fd5b80356144ef81614603565b60006060828403121561463557600080fd5b61463d61404f565b9050813561464a816145f6565b8152602082013561465a81614603565b806020830152506040820135604082015292915050565b600060a0828403121561468357600080fd5b61468b61404f565b8235815261469c8460208501614623565b60208201526146ad608084016144d8565b60408201529392505050565b8060005b600281101561367a5781518452602093840193909101906001016146bd565b6146e78282516146b9565b60208101516119e460408401826146b9565b6000602080835283516102008083860152614718610220860183613f6e565b91508286015160406147368188018380518252602090810151910152565b80880151915061474960808801836146dc565b6060880151915061475e6101008801836146dc565b608088015191506147736101808801836146dc565b60a0880151878503601f190193880193909352825180855292850193850192600092505b808310156147c8576147b484865180518252602090810151910152565b938501939281019260019290920191614797565b5091979650505050505050565b6000602082840312156147e757600080fd5b813561103e81614603565b60006060828403121561480457600080fd5b61103e8383614623565b600080600080600060a0868803121561482657600080fd5b853561483181614603565b945061483f602087016144d8565b935061484d604087016144d8565b925060608601359150608086013561486481614603565b809150509295509295909350565b634e487b7160e01b600052602160045260246000fd5b60038110610a2357634e487b7160e01b600052602160045260246000fd5b606081016148b385614888565b9381526001600160a01b0392909216602083015260409091015290565b6000806000606084860312156148e557600080fd5b6148ee846144d8565b92506148fc602085016144d8565b9150604084013590509250925092565b634e487b7160e01b600052603260045260246000fd5b7302930b4b633bab729b6b0b93a2bb0b63632ba1d160651b815260008251614951816014850160208701613f4a565b9190910160140192915050565b60208152600061103e6020830184613f6e565b60006080828403121561498357600080fd5b61498b614005565b83601f84011261499a57600080fd5b604051606081018181106001600160401b03821117156149bc576149bc613fef565b6040528060608501868111156149d157600080fd5b855b818110156149eb5780358352602092830192016149d3565b50918352503560208201529392505050565b634e487b7160e01b600052601160045260246000fd5b80820180821115610f1a57610f1a6149fd565b8051614a3181614888565b82526020818101516001600160a01b031690830152604090810151910152565b60008151808452602080850194508084016000805b84811015614aaf578251805189845b6003811015614a9257825182529187019190870190600101614a75565b505050840151606089015260809097019691830191600101614a66565b50959695505050505050565b600081518084526020808501945080840160005b83811015614aeb57815187529582019590820190600101614acf565b509495945050505050565b600060a0808301888452602088818601526040838187015282895180855260c088019150838b01945060005b81811015614b625785518051845285810151614b4087860182614a26565b508401516001600160781b031660808401529484019491860191600101614b22565b50508681036060880152614b76818a614a51565b9450505050508281036080840152614b8e8185614abb565b98975050505050505050565b600181815b80851115614bd5578160001904821115614bbb57614bbb6149fd565b80851615614bc857918102915b93841c9390800290614b9f565b509250929050565b600082614bec57506001610f1a565b81614bf957506000610f1a565b8160018114614c0f5760028114614c1957614c35565b6001915050610f1a565b60ff841115614c2a57614c2a6149fd565b50506001821b610f1a565b5060208310610133831016604e8410600b8410161715614c58575081810a610f1a565b614c628383614b9a565b8060001904821115614c7657614c766149fd565b029392505050565b600061103e8383614bdd565b6000823560de19833603018112614ca057600080fd5b9190910192915050565b803568ffffffffffffffffff811681146144ef57600080fd5b600060208284031215614cd557600080fd5b61103e82614caa565b80356001600160401b03811681146144ef57600080fd5b600060208284031215614d0757600080fd5b61103e82614cde565b803561ffff811681146144ef57600080fd5b600060208284031215614d3457600080fd5b61103e82614d10565b600060208284031215614d4f57600080fd5b813561103e816145f6565b6000808335601e19843603018112614d7157600080fd5b8301803591506001600160401b03821115614d8b57600080fd5b6020019150600581901b36038213156145a857600080fd5b81810381811115610f1a57610f1a6149fd565b600060208284031215614dc857600080fd5b61103e826144d8565b6000808335601e19843603018112614de857600080fd5b83016020810192503590506001600160401b03811115614e0757600080fd5b8060051b36038213156145a857600080fd5b6000808335601e19843603018112614e3057600080fd5b83016020810192503590506001600160401b03811115614e4f57600080fd5b8036038213156145a857600080fd5b81835281816020850137506000828201602090810191909152601f909101601f19169091010190565b81835260006020808501808196508560051b81019150846000805b88811015614f3c578385038a52823560fe19893603018112614ec2578283fd5b8801610100608080838937828101359088015260a0808301359088015260c0614eed81840184614e19565b83838b0152614eff848b018284614e5e565b935050505060e0614f1281840184614e19565b9350888303828a0152614f26838583614e5e565b9d8a019d98505050938701935050600101614ea2565b509298975050505050505050565b6020815261ffff614f5a83614d10565b16602082015268ffffffffffffffffff614f7660208401614caa565b16604082015260006040830135614f8c816145f6565b614f9581614888565b806060840152506001600160401b03614fb060608501614cde565b166080830152614fc260808401614618565b6001600160a01b03811660a08401525060a083013560c0830152614fe960c0840184614dd1565b60e080850152612e9b61010085018284614e87565b634e487b7160e01b600052601260045260246000fd5b60008261502357615023614ffe565b500690565b6000610100828403121561503b57600080fd5b61504361404f565b61504d8484614154565b815261505c84604085016141f3565b60208201526146ad8460c08501614154565b600181811c9082168061508257607f821691505b6020821081036142dd57634e487b7160e01b600052602260045260246000fd5b601f8211156119e457600081815260208120601f850160051c810160208610156150c95750805b601f850160051c820191505b818110156118c1578281556001016150d5565b6001600160401b038311156150ff576150ff613fef565b6151138361510d835461506e565b836150a2565b6000601f841160018114615147576000851561512f5750838201355b600019600387901b1c1916600186901b1783556151a1565b600083815260209020601f19861690835b828110156151785786850135825560209485019460019092019101615158565b50868210156151955760001960f88860031b161c19848701351681555b505060018560011b0183555b5050505050565b8160005b60028110156151c9578135838201556020909101906001016151ac565b50506040820160005b60028082106151e1575061367a565b8235848301909101556020909101906001016151d2565b6000808335601e1984360301811261520f57600080fd5b8301803591506001600160401b0382111561522957600080fd5b6020019150600681901b36038213156145a857600080fd5b6801000000000000000083111561525a5761525a613fef565b8054838255808410156152c85760016001600160ff1b038281168314615282576152826149fd565b8086168614615293576152936149fd565b5060008381526020812086831b81019084841b015b808210156152c35782825582848301556002820191506152a8565b505050505b5060008181526020812083915b858110156118c157823582556020830135600183015560409290920191600291909101906001016152d5565b8135601e1983360301811261531557600080fd5b820180356001600160401b0381111561532d57600080fd5b60208201915080360382131561534257600080fd5b61534d8183856150e8565b5050602082013560018201556040820135600282015561537360608301600383016151a8565b61538360e08301600783016151a8565b6153946101608301600b83016151a8565b6153a26101e08301836151f8565b61367a8183600f8601615241565b6040818337604080820160408401375050565b81835260208301925060008160005b848110156153fa578135865260208083013590870152604095860195909101906001016153d2565b5093949350505050565b8381528260208201526060604082015260006154208384614e19565b610200606085015261543761026085018284614e5e565b60208601356080860152604086013560a086015291506154549050565b61546460c08401606086016153b0565b615475610140840160e086016153b0565b6154876101c0840161016086016153b0565b6101e0840135601e1985360301811261549f57600080fd5b84016020810190356001600160401b038111156154bb57600080fd5b8060061b36038213156154cd57600080fd5b848303605f1901610240860152614b8e8382846153c3565b60408101818360005b600281101561550d5781518352602092830192909101906001016154ee565b50505092915050565b60006020828403121561552857600080fd5b5051919050565b6001600160881b0382811682821681810283169291811582850482141761550d5761550d6149fd565b60006001600160881b038084168061557257615572614ffe565b92169190910492915050565b6001600160881b0382811682821603908082111561559e5761559e6149fd565b5092915050565b6001600160781b0382811682821603908082111561559e5761559e6149fd565b6000823561021e19833603018112614ca057600080fd5b60608101818360005b600381101561550d5781518352602092830192909101906001016155e5565b60608101610f1a8284614a26565b60006001600160781b038084168061557257615572614ffe565b60006080808301878452602087818601526040838187015282885180855260a094508488019150838a0160005b8281101561567557815184529285019290850190600101615659565b5050506060878203818901528189518084528584019150858160051b850101868c0160005b8381101561572c57868303601f1901855281518051610100908560005b60048110156156d45782518252918d0191908d01906001016156b7565b5050508a8201518d860152898201518c860152878201518160c08701526156fd82870182613f6e565b9150508c820151915084810360e08601526157188183613f6e565b968b0196945050509088019060010161569a565b50909f9e505050505050505050505050505050565b813561574c816145f6565b61575581614888565b815460ff821691508160ff198216178355602084013561577481614603565b6001600160a81b03199190911690911760089190911b610100600160a81b03161781556040919091013560019190910155565b6000602082840312156157b957600080fd5b815161103e81614603565b6020808252602b908201527f496e697469616c697a61626c653a20636f6e7472616374206973206e6f74206960408201526a6e697469616c697a696e6760a81b606082015260800190565b61ffff84168152604060208201819052810182905260006001600160fb1b0383111561583a57600080fd5b8260051b8085606085013791909101606001949350505050565b6000823560fe19833603018112614ca057600080fd5b6000610100823603121561587d57600080fd5b615885614071565b36601f84011261589457600080fd5b61589c614093565b8060808501368111156158ae57600080fd5b855b818110156158c85780358452602093840193016158b0565b509083523560208301525060a0830135604082015260c08301356001600160401b03808211156158f757600080fd5b615903368387016140e5565b606084015260e085013591508082111561591c57600080fd5b50615929368286016140e5565b60808301525092915050565b8035615940816145f6565b61594981614888565b8252602081013561595981614603565b6001600160a01b03166020830152604090810135910152565b6001600160a01b038516815260c0810161598f6020830186615935565b6001600160781b03808516608084015280841660a08401525095945050505050565b6001600160a01b038516815260c081016159ce6020830186615935565b608082019390935260a0015292915050565b6000602082840312156159f257600080fd5b815161103e816144ca565b60008251614ca0818460208701613f4a56fe30644e72e131a029b85045b68181585d97816a916871ca8d3c208c16d87cfd4730644e72e131a029b85045b68181585d2833e84879b9709143e1f593f0000001496e76616c6964204e6f74652043697068657274657874204172726179204c656e677468a2646970667358221220ba70ede011ac72a7bcb95359fde0d70836295f2e72f1ac7ed1023f1030ca467d64736f6c63430008110033",
  "linkReferences": {
    "contracts/railgun/logic/Poseidon.sol": {
      "PoseidonT3": [
        {
          "length": 20,
          "start": 4088
        }
      ],
      "PoseidonT4": [
        {
          "length": 20,
          "start": 4941
        }
      ]
    }
  },
  "deployedLinkReferences": {
    "contracts/railgun/logic/Poseidon.sol": {
      "PoseidonT3": [
        {
          "length": 20,
          "start": 4055
        }
      ],
      "PoseidonT4": [
        {
          "length": 20,
          "start": 4908
        }
      ]
    }
  }
}