{"abi":[{"type":"function","name":"ZERO_VALUE","inputs":[],"outputs":[{"name":"","type":"bytes32","internalType":"bytes32"}],"stateMutability":"view"},{"type":"function","name":"addToBlocklist","inputs":[{"name":"_tokens","type":"address[]","internalType":"address[]"}],"outputs":[],"stateMutability":"nonpayable"},{"type":"function","name":"addVector","inputs":[{"name":"vector","type":"uint256","internalType":"uint256"}],"outputs":[],"stateMutability":"nonpayable"},{"type":"function","name":"changeFee","inputs":[{"name":"_shieldFee","type":"uint120","internalType":"uint120"},{"name":"_unshieldFee","type":"uint120","internalType":"uint120"},{"name":"_nftFee","type":"uint256","internalType":"uint256"}],"outputs":[],"stateMutability":"nonpayable"},{"type":"function","name":"changeTreasury","inputs":[{"name":"_treasury","type":"address","internalType":"address payable"}],"outputs":[],"stateMutability":"nonpayable"},{"type":"function","name":"checkSafetyVectors","inputs":[],"outputs":[],"stateMutability":"nonpayable"},{"type":"function","name":"getFee","inputs":[{"name":"_amount","type":"uint136","internalType":"uint136"},{"name":"_isInclusive","type":"bool","internalType":"bool"},{"name":"_feeBP","type":"uint120","internalType":"uint120"}],"outputs":[{"name":"","type":"uint120","internalType":"uint120"},{"name":"","type":"uint120","internalType":"uint120"}],"stateMutability":"pure"},{"type":"function","name":"getInsertionTreeNumberAndStartingIndex","inputs":[{"name":"_newCommitments","type":"uint256","internalType":"uint256"}],"outputs":[{"name":"","type":"uint256","internalType":"uint256"},{"name":"","type":"uint256","internalType":"uint256"}],"stateMutability":"view"},{"type":"function","name":"getTokenID","inputs":[{"name":"_tokenData","type":"tuple","internalType":"struct TokenData","components":[{"name":"tokenType","type":"uint8","internalType":"enum TokenType"},{"name":"tokenAddress","type":"address","internalType":"address"},{"name":"tokenSubID","type":"uint256","internalType":"uint256"}]}],"outputs":[{"name":"","type":"bytes32","internalType":"bytes32"}],"stateMutability":"pure"},{"type":"function","name":"getVerificationKey","inputs":[{"name":"_nullifiers","type":"uint256","internalType":"uint256"},{"name":"_commitments","type":"uint256","internalType":"uint256"}],"outputs":[{"name":"","type":"tuple","internalType":"struct VerifyingKey","components":[{"name":"artifactsIPFSHash","type":"string","internalType":"string"},{"name":"alpha1","type":"tuple","internalType":"struct G1Point","components":[{"name":"x","type":"uint256","internalType":"uint256"},{"name":"y","type":"uint256","internalType":"uint256"}]},{"name":"beta2","type":"tuple","internalType":"struct G2Point","components":[{"name":"x","type":"uint256[2]","internalType":"uint256[2]"},{"name":"y","type":"uint256[2]","internalType":"uint256[2]"}]},{"name":"gamma2","type":"tuple","internalType":"struct G2Point","components":[{"name":"x","type":"uint256[2]","internalType":"uint256[2]"},{"name":"y","type":"uint256[2]","internalType":"uint256[2]"}]},{"name":"delta2","type":"tuple","internalType":"struct G2Point","components":[{"name":"x","type":"uint256[2]","internalType":"uint256[2]"},{"name":"y","type":"uint256[2]","internalType":"uint256[2]"}]},{"name":"ic","type":"tuple[]","internalType":"struct G1Point[]","components":[{"name":"x","type":"uint256","internalType":"uint256"},{"name":"y","type":"uint256","internalType":"uint256"}]}]}],"stateMutability":"view"},{"type":"function","name":"hashBoundParams","inputs":[{"name":"_boundParams","type":"tuple","internalType":"struct BoundParams","components":[{"name":"treeNumber","type":"uint16","internalType":"uint16"},{"name":"minGasPrice","type":"uint72","internalType":"uint72"},{"name":"unshield","type":"uint8","internalType":"enum UnshieldType"},{"name":"chainID","type":"uint64","internalType":"uint64"},{"name":"adaptContract","type":"address","internalType":"address"},{"name":"adaptParams","type":"bytes32","internalType":"bytes32"},{"name":"commitmentCiphertext","type":"tuple[]","internalType":"struct CommitmentCiphertext[]","components":[{"name":"ciphertext","type":"bytes32[4]","internalType":"bytes32[4]"},{"name":"blindedSenderViewingKey","type":"bytes32","internalType":"bytes32"},{"name":"blindedReceiverViewingKey","type":"bytes32","internalType":"bytes32"},{"name":"annotationData","type":"bytes","internalType":"bytes"},{"name":"memo","type":"bytes","internalType":"bytes"}]}]}],"outputs":[{"name":"","type":"uint256","internalType":"uint256"}],"stateMutability":"pure"},{"type":"function","name":"hashCommitment","inputs":[{"name":"_commitmentPreimage","type":"tuple","internalType":"struct CommitmentPreimage","components":[{"name":"npk","type":"bytes32","internalType":"bytes32"},{"name":"token","type":"tuple","internalType":"struct TokenData","components":[{"name":"tokenType","type":"uint8","internalType":"enum TokenType"},{"name":"tokenAddress","type":"address","internalType":"address"},{"name":"tokenSubID","type":"uint256","internalType":"uint256"}]},{"name":"value","type":"uint120","internalType":"uint120"}]}],"outputs":[{"name":"","type":"bytes32","internalType":"bytes32"}],"stateMutability":"pure"},{"type":"function","name":"hashLeftRight","inputs":[{"name":"_left","type":"bytes32","internalType":"bytes32"},{"name":"_right","type":"bytes32","internalType":"bytes32"}],"outputs":[{"name":"","type":"bytes32","internalType":"bytes32"}],"stateMutability":"pure"},{"type":"function","name":"initializeRailgunLogic","inputs":[{"name":"_treasury","type":"address","internalType":"address payable"},{"name":"_shieldFee","type":"uint120","internalType":"uint120"},{"name":"_unshieldFee","type":"uint120","internalType":"uint120"},{"name":"_nftFee","type":"uint256","internalType":"uint256"},{"name":"_owner","type":"address","internalType":"address"}],"outputs":[],"stateMutability":"nonpayable"},{"type":"function","name":"lastEventBlock","inputs":[],"outputs":[{"name":"","type":"uint256","internalType":"uint256"}],"stateMutability":"view"},{"type":"function","name":"merkleRoot","inputs":[],"outputs":[{"name":"","type":"bytes32","internalType":"bytes32"}],"stateMutability":"view"},{"type":"function","name":"nextLeafIndex","inputs":[],"outputs":[{"name":"","type":"uint256","internalType":"uint256"}],"stateMutability":"view"},{"type":"function","name":"nftFee","inputs":[],"outputs":[{"name":"","type":"uint256","internalType":"uint256"}],"stateMutability":"view"},{"type":"function","name":"nullifiers","inputs":[{"name":"","type":"uint256","internalType":"uint256"},{"name":"","type":"bytes32","internalType":"bytes32"}],"outputs":[{"name":"","type":"bool","internalType":"bool"}],"stateMutability":"view"},{"type":"function","name":"owner","inputs":[],"outputs":[{"name":"","type":"address","internalType":"address"}],"stateMutability":"view"},{"type":"function","name":"removeFromBlocklist","inputs":[{"name":"_tokens","type":"address[]","internalType":"address[]"}],"outputs":[],"stateMutability":"nonpayable"},{"type":"function","name":"removeVector","inputs":[{"name":"vector","type":"uint256","internalType":"uint256"}],"outputs":[],"stateMutability":"nonpayable"},{"type":"function","name":"renounceOwnership","inputs":[],"outputs":[],"stateMutability":"nonpayable"},{"type":"function","name":"rootHistory","inputs":[{"name":"","type":"uint256","internalType":"uint256"},{"name":"","type":"bytes32","internalType":"bytes32"}],"outputs":[{"name":"","type":"bool","internalType":"bool"}],"stateMutability":"view"},{"type":"function","name":"setTestingMode","inputs":[{"name":"_testingMode","type":"bool","internalType":"bool"}],"outputs":[],"stateMutability":"nonpayable"},{"type":"function","name":"setVerificationKey","inputs":[{"name":"_nullifiers","type":"uint256","internalType":"uint256"},{"name":"_commitments","type":"uint256","internalType":"uint256"},{"name":"_verifyingKey","type":"tuple","internalType":"struct VerifyingKey","components":[{"name":"artifactsIPFSHash","type":"string","internalType":"string"},{"name":"alpha1","type":"tuple","internalType":"struct G1Point","components":[{"name":"x","type":"uint256","internalType":"uint256"},{"name":"y","type":"uint256","internalType":"uint256"}]},{"name":"beta2","type":"tuple","internalType":"struct G2Point","components":[{"name":"x","type":"uint256[2]","internalType":"uint256[2]"},{"name":"y","type":"uint256[2]","internalType":"uint256[2]"}]},{"name":"gamma2","type":"tuple","internalType":"struct G2Point","components":[{"name":"x","type":"uint256[2]","internalType":"uint256[2]"},{"name":"y","type":"uint256[2]","internalType":"uint256[2]"}]},{"name":"delta2","type":"tuple","internalType":"struct G2Point","components":[{"name":"x","type":"uint256[2]","internalType":"uint256[2]"},{"name":"y","type":"uint256[2]","internalType":"uint256[2]"}]},{"name":"ic","type":"tuple[]","internalType":"struct G1Point[]","components":[{"name":"x","type":"uint256","internalType":"uint256"},{"name":"y","type":"uint256","internalType":"uint256"}]}]}],"outputs":[],"stateMutability":"nonpayable"},{"type":"function","name":"shield","inputs":[{"name":"_shieldRequests","type":"tuple[]","internalType":"struct ShieldRequest[]","components":[{"name":"preimage","type":"tuple","internalType":"struct CommitmentPreimage","components":[{"name":"npk","type":"bytes32","internalType":"bytes32"},{"name":"token","type":"tuple","internalType":"struct TokenData","components":[{"name":"tokenType","type":"uint8","internalType":"enum TokenType"},{"name":"tokenAddress","type":"address","internalType":"address"},{"name":"tokenSubID","type":"uint256","internalType":"uint256"}]},{"name":"value","type":"uint120","internalType":"uint120"}]},{"name":"ciphertext","type":"tuple","internalType":"struct ShieldCiphertext","components":[{"name":"encryptedBundle","type":"bytes32[3]","internalType":"bytes32[3]"},{"name":"shieldKey","type":"bytes32","internalType":"bytes32"}]}]}],"outputs":[],"stateMutability":"nonpayable"},{"type":"function","name":"shieldFee","inputs":[],"outputs":[{"name":"","type":"uint120","internalType":"uint120"}],"stateMutability":"view"},{"type":"function","name":"snarkSafetyVector","inputs":[{"name":"","type":"uint256","internalType":"uint256"}],"outputs":[{"name":"","type":"bool","internalType":"bool"}],"stateMutability":"view"},{"type":"function","name":"sumCommitments","inputs":[{"name":"_transactions","type":"tuple[]","internalType":"struct Transaction[]","components":[{"name":"proof","type":"tuple","internalType":"struct SnarkProof","components":[{"name":"a","type":"tuple","internalType":"struct G1Point","components":[{"name":"x","type":"uint256","internalType":"uint256"},{"name":"y","type":"uint256","internalType":"uint256"}]},{"name":"b","type":"tuple","internalType":"struct G2Point","components":[{"name":"x","type":"uint256[2]","internalType":"uint256[2]"},{"name":"y","type":"uint256[2]","internalType":"uint256[2]"}]},{"name":"c","type":"tuple","internalType":"struct G1Point","components":[{"name":"x","type":"uint256","internalType":"uint256"},{"name":"y","type":"uint256","internalType":"uint256"}]}]},{"name":"merkleRoot","type":"bytes32","internalType":"bytes32"},{"name":"nullifiers","type":"bytes32[]","internalType":"bytes32[]"},{"name":"commitments","type":"bytes32[]","internalType":"bytes32[]"},{"name":"boundParams","type":"tuple","internalType":"struct BoundParams","components":[{"name":"treeNumber","type":"uint16","internalType":"uint16"},{"name":"minGasPrice","type":"uint72","internalType":"uint72"},{"name":"unshield","type":"uint8","internalType":"enum UnshieldType"},{"name":"chainID","type":"uint64","internalType":"uint64"},{"name":"adaptContract","type":"address","internalType":"address"},{"name":"adaptParams","type":"bytes32","internalType":"bytes32"},{"name":"commitmentCiphertext","type":"tuple[]","internalType":"struct CommitmentCiphertext[]","components":[{"name":"ciphertext","type":"bytes32[4]","internalType":"bytes32[4]"},{"name":"blindedSenderViewingKey","type":"bytes32","internalType":"bytes32"},{"name":"blindedReceiverViewingKey","type":"bytes32","internalType":"bytes32"},{"name":"annotationData","type":"bytes","internalType":"bytes"},{"name":"memo","type":"bytes","internalType":"bytes"}]}]},{"name":"unshieldPreimage","type":"tuple","internalType":"struct CommitmentPreimage","components":[{"name":"npk","type":"bytes32","internalType":"bytes32"},{"name":"token","type":"tuple","internalType":"struct TokenData","components":[{"name":"tokenType","type":"uint8","internalType":"enum TokenType"},{"name":"tokenAddress","type":"address","internalType":"address"},{"name":"tokenSubID","type":"uint256","internalType":"uint256"}]},{"name":"value","type":"uint120","internalType":"uint120"}]}]}],"outputs":[{"name":"","type":"uint256","internalType":"uint256"}],"stateMutability":"pure"},{"type":"function","name":"testingMode","inputs":[],"outputs":[{"name":"","type":"bool","internalType":"bool"}],"stateMutability":"view"},{"type":"function","name":"tokenBlocklist","inputs":[{"name":"","type":"address","internalType":"address"}],"outputs":[{"name":"","type":"bool","internalType":"bool"}],"stateMutability":"view"},{"type":"function","name":"tokenIDMapping","inputs":[{"name":"","type":"bytes32","internalType":"bytes32"}],"outputs":[{"name":"tokenType","type":"uint8","internalType":"enum TokenType"},{"name":"tokenAddress","type":"address","internalType":"address"},{"name":"tokenSubID","type":"uint256","internalType":"uint256"}],"stateMutability":"view"},{"type":"function","name":"transact","inputs":[{"name":"_transactions","type":"tuple[]","internalType":"struct Transaction[]","components":[{"name":"proof","type":"tuple","internalType":"struct SnarkProof","components":[{"name":"a","type":"tuple","internalType":"struct G1Point","components":[{"name":"x","type":"uint256","internalType":"uint256"},{"name":"y","type":"uint256","internalType":"uint256"}]},{"name":"b","type":"tuple","internalType":"struct G2Point","components":[{"name":"x","type":"uint256[2]","internalType":"uint256[2]"},{"name":"y","type":"uint256[2]","internalType":"uint256[2]"}]},{"name":"c","type":"tuple","internalType":"struct G1Point","components":[{"name":"x","type":"uint256","internalType":"uint256"},{"name":"y","type":"uint256","internalType":"uint256"}]}]},{"name":"merkleRoot","type":"bytes32","internalType":"bytes32"},{"name":"nullifiers","type":"bytes32[]","internalType":"bytes32[]"},{"name":"commitments","type":"bytes32[]","internalType":"bytes32[]"},{"name":"boundParams","type":"tuple","internalType":"struct BoundParams","components":[{"name":"treeNumber","type":"uint16","internalType":"uint16"},{"name":"minGasPrice","type":"uint72","internalType":"uint72"},{"name":"unshield","type":"uint8","internalType":"enum UnshieldType"},{"name":"chainID","type":"uint64","internalType":"uint64"},{"name":"adaptContract","type":"address","internalType":"address"},{"name":"adaptParams","type":"bytes32","internalType":"bytes32"},{"name":"commitmentCiphertext","type":"tuple[]","internalType":"struct CommitmentCiphertext[]","components":[{"name":"ciphertext","type":"bytes32[4]","internalType":"bytes32[4]"},{"name":"blindedSenderViewingKey","type":"bytes32","internalType":"bytes32"},{"name":"blindedReceiverViewingKey","type":"bytes32","internalType":"bytes32"},{"name":"annotationData","type":"bytes","internalType":"bytes"},{"name":"memo","type":"bytes","internalType":"bytes"}]}]},{"name":"unshieldPreimage","type":"tuple","internalType":"struct CommitmentPreimage","components":[{"name":"npk","type":"bytes32","internalType":"bytes32"},{"name":"token","type":"tuple","internalType":"struct TokenData","components":[{"name":"tokenType","type":"uint8","internalType":"enum TokenType"},{"name":"tokenAddress","type":"address","internalType":"address"},{"name":"tokenSubID","type":"uint256","internalType":"uint256"}]},{"name":"value","type":"uint120","internalType":"uint120"}]}]}],"outputs":[],"stateMutability":"nonpayable"},{"type":"function","name":"transferOwnership","inputs":[{"name":"newOwner","type":"address","internalType":"address"}],"outputs":[],"stateMutability":"nonpayable"},{"type":"function","name":"treasury","inputs":[],"outputs":[{"name":"","type":"address","internalType":"address payable"}],"stateMutability":"view"},{"type":"function","name":"treeNumber","inputs":[],"outputs":[{"name":"","type":"uint256","internalType":"uint256"}],"stateMutability":"view"},{"type":"function","name":"unshieldFee","inputs":[],"outputs":[{"name":"","type":"uint120","internalType":"uint120"}],"stateMutability":"view"},{"type":"function","name":"validateCommitmentPreimage","inputs":[{"name":"_note","type":"tuple","internalType":"struct CommitmentPreimage","components":[{"name":"npk","type":"bytes32","internalType":"bytes32"},{"name":"token","type":"tuple","internalType":"struct TokenData","components":[{"name":"tokenType","type":"uint8","internalType":"enum TokenType"},{"name":"tokenAddress","type":"address","internalType":"address"},{"name":"tokenSubID","type":"uint256","internalType":"uint256"}]},{"name":"value","type":"uint120","internalType":"uint120"}]}],"outputs":[{"name":"","type":"bool","internalType":"bool"},{"name":"","type":"string","internalType":"string"}],"stateMutability":"view"},{"type":"function","name":"validateTransaction","inputs":[{"name":"_transaction","type":"tuple","internalType":"struct Transaction","components":[{"name":"proof","type":"tuple","internalType":"struct SnarkProof","components":[{"name":"a","type":"tuple","internalType":"struct G1Point","components":[{"name":"x","type":"uint256","internalType":"uint256"},{"name":"y","type":"uint256","internalType":"uint256"}]},{"name":"b","type":"tuple","internalType":"struct G2Point","components":[{"name":"x","type":"uint256[2]","internalType":"uint256[2]"},{"name":"y","type":"uint256[2]","internalType":"uint256[2]"}]},{"name":"c","type":"tuple","internalType":"struct G1Point","components":[{"name":"x","type":"uint256","internalType":"uint256"},{"name":"y","type":"uint256","internalType":"uint256"}]}]},{"name":"merkleRoot","type":"bytes32","internalType":"bytes32"},{"name":"nullifiers","type":"bytes32[]","internalType":"bytes32[]"},{"name":"commitments","type":"bytes32[]","internalType":"bytes32[]"},{"name":"boundParams","type":"tuple","internalType":"struct BoundParams","components":[{"name":"treeNumber","type":"uint16","internalType":"uint16"},{"name":"minGasPrice","type":"uint72","internalType":"uint72"},{"name":"unshield","type":"uint8","internalType":"enum UnshieldType"},{"name":"chainID","type":"uint64","internalType":"uint64"},{"name":"adaptContract","type":"address","internalType":"address"},{"name":"adaptParams","type":"bytes32","internalType":"bytes32"},{"name":"commitmentCiphertext","type":"tuple[]","internalType":"struct CommitmentCiphertext[]","components":[{"name":"ciphertext","type":"bytes32[4]","internalType":"bytes32[4]"},{"name":"blindedSenderViewingKey","type":"bytes32","internalType":"bytes32"},{"name":"blindedReceiverViewingKey","type":"bytes32","internalType":"bytes32"},{"name":"annotationData","type":"bytes","internalType":"bytes"},{"name":"memo","type":"bytes","internalType":"bytes"}]}]},{"name":"unshieldPreimage","type":"tuple","internalType":"struct CommitmentPreimage","components":[{"name":"npk","type":"bytes32","internalType":"bytes32"},{"name":"token","type":"tuple","internalType":"struct TokenData","components":[{"name":"tokenType","type":"uint8","internalType":"enum TokenType"},{"name":"tokenAddress","type":"address","internalType":"address"},{"name":"tokenSubID","type":"uint256","internalType":"uint256"}]},{"name":"value","type":"uint120","internalType":"uint120"}]}]}],"outputs":[{"name":"","type":"bool","internalType":"bool"},{"name":"","type":"string","internalType":"string"}],"stateMutability":"view"},{"type":"function","name":"verify","inputs":[{"name":"_transaction","type":"tuple","internalType":"struct Transaction","components":[{"name":"proof","type":"tuple","internalType":"struct SnarkProof","components":[{"name":"a","type":"tuple","internalType":"struct G1Point","components":[{"name":"x","type":"uint256","internalType":"uint256"},{"name":"y","type":"uint256","internalType":"uint256"}]},{"name":"b","type":"tuple","internalType":"struct G2Point","components":[{"name":"x","type":"uint256[2]","internalType":"uint256[2]"},{"name":"y","type":"uint256[2]","internalType":"uint256[2]"}]},{"name":"c","type":"tuple","internalType":"struct G1Point","components":[{"name":"x","type":"uint256","internalType":"uint256"},{"name":"y","type":"uint256","internalType":"uint256"}]}]},{"name":"merkleRoot","type":"bytes32","internalType":"bytes32"},{"name":"nullifiers","type":"bytes32[]","internalType":"bytes32[]"},{"name":"commitments","type":"bytes32[]","internalType":"bytes32[]"},{"name":"boundParams","type":"tuple","internalType":"struct BoundParams","components":[{"name":"treeNumber","type":"uint16","internalType":"uint16"},{"name":"minGasPrice","type":"uint72","internalType":"uint72"},{"name":"unshield","type":"uint8","internalType":"enum UnshieldType"},{"name":"chainID","type":"uint64","internalType":"uint64"},{"name":"adaptContract","type":"address","internalType":"address"},{"name":"adaptParams","type":"bytes32","internalType":"bytes32"},{"name":"commitmentCiphertext","type":"tuple[]","internalType":"struct CommitmentCiphertext[]","components":[{"name":"ciphertext","type":"bytes32[4]","internalType":"bytes32[4]"},{"name":"blindedSenderViewingKey","type":"bytes32","internalType":"bytes32"},{"name":"blindedReceiverViewingKey","type":"bytes32","internalType":"bytes32"},{"name":"annotationData","type":"bytes","internalType":"bytes"},{"name":"memo","type":"bytes","internalType":"bytes"}]}]},{"name":"unshieldPreimage","type":"tuple","internalType":"struct CommitmentPreimage","components":[{"name":"npk","type":"bytes32","internalType":"bytes32"},{"name":"token","type":"tuple","internalType":"struct TokenData","components":[{"name":"tokenType","type":"uint8","internalType":"enum TokenType"},{"name":"tokenAddress","type":"address","internalType":"address"},{"name":"tokenSubID","type":"uint256","internalType":"uint256"}]},{"name":"value","type":"uint120","internalType":"uint120"}]}]}],"outputs":[{"name":"","type":"bool","internalType":"bool"}],"stateMutability":"view"},{"type":"function","name":"verifyProof","inputs":[{"name":"_verifyingKey","type":"tuple","internalType":"struct VerifyingKey","components":[{"name":"artifactsIPFSHash","type":"string","internalType":"string"},{"name":"alpha1","type":"tuple","internalType":"struct G1Point","components":[{"name":"x","type":"uint256","internalType":"uint256"},{"name":"y","type":"uint256","internalType":"uint256"}]},{"name":"beta2","type":"tuple","internalType":"struct G2Point","components":[{"name":"x","type":"uint256[2]","internalType":"uint256[2]"},{"name":"y","type":"uint256[2]","internalType":"uint256[2]"}]},{"name":"gamma2","type":"tuple","internalType":"struct G2Point","components":[{"name":"x","type":"uint256[2]","internalType":"uint256[2]"},{"name":"y","type":"uint256[2]","internalType":"uint256[2]"}]},{"name":"delta2","type":"tuple","internalType":"struct G2Point","components":[{"name":"x","type":"uint256[2]","internalType":"uint256[2]"},{"name":"y","type":"uint256[2]","internalType":"uint256[2]"}]},{"name":"ic","type":"tuple[]","internalType":"struct G1Point[]","components":[{"name":"x","type":"uint256","internalType":"uint256"},{"name":"y","type":"uint256","internalType":"uint256"}]}]},{"name":"_proof","type":"tuple","internalType":"struct SnarkProof","components":[{"name":"a","type":"tuple","internalType":"struct G1Point","components":[{"name":"x","type":"uint256","internalType":"uint256"},{"name":"y","type":"uint256","internalType":"uint256"}]},{"name":"b","type":"tuple","internalType":"struct G2Point","components":[{"name":"x","type":"uint256[2]","internalType":"uint256[2]"},{"name":"y","type":"uint256[2]","internalType":"uint256[2]"}]},{"name":"c","type":"tuple","internalType":"struct G1Point","components":[{"name":"x","type":"uint256","internalType":"uint256"},{"name":"y","type":"uint256","internalType":"uint256"}]}]},{"name":"_inputs","type":"uint256[]","internalType":"uint256[]"}],"outputs":[{"name":"","type":"bool","internalType":"bool"}],"stateMutability":"view"},{"type":"function","name":"zeros","inputs":[{"name":"","type":"uint256","internalType":"uint256"}],"outputs":[{"name":"","type":"bytes32","internalType":"bytes32"}],"stateMutability":"view"},{"type":"event","name":"AddToBlocklist","inputs":[{"name":"token","type":"address","indexed":true,"internalType":"address"}],"anonymous":false},{"type":"event","name":"FeeChange","inputs":[{"name":"shieldFee","type":"uint256","indexed":false,"internalType":"uint256"},{"name":"unshieldFee","type":"uint256","indexed":false,"internalType":"uint256"},{"name":"nftFee","type":"uint256","indexed":false,"internalType":"uint256"}],"anonymous":false},{"type":"event","name":"Initialized","inputs":[{"name":"version","type":"uint8","indexed":false,"internalType":"uint8"}],"anonymous":false},{"type":"event","name":"Nullified","inputs":[{"name":"treeNumber","type":"uint16","indexed":false,"internalType":"uint16"},{"name":"nullifier","type":"bytes32[]","indexed":false,"internalType":"bytes32[]"}],"anonymous":false},{"type":"event","name":"OwnershipTransferred","inputs":[{"name":"previousOwner","type":"address","indexed":true,"internalType":"address"},{"name":"newOwner","type":"address","indexed":true,"internalType":"address"}],"anonymous":false},{"type":"event","name":"RemoveFromBlocklist","inputs":[{"name":"token","type":"address","indexed":true,"internalType":"address"}],"anonymous":false},{"type":"event","name":"Shield","inputs":[{"name":"treeNumber","type":"uint256","indexed":false,"internalType":"uint256"},{"name":"startPosition","type":"uint256","indexed":false,"internalType":"uint256"},{"name":"commitments","type":"tuple[]","indexed":false,"internalType":"struct CommitmentPreimage[]","components":[{"name":"npk","type":"bytes32","internalType":"bytes32"},{"name":"token","type":"tuple","internalType":"struct TokenData","components":[{"name":"tokenType","type":"uint8","internalType":"enum TokenType"},{"name":"tokenAddress","type":"address","internalType":"address"},{"name":"tokenSubID","type":"uint256","internalType":"uint256"}]},{"name":"value","type":"uint120","internalType":"uint120"}]},{"name":"shieldCiphertext","type":"tuple[]","indexed":false,"internalType":"struct ShieldCiphertext[]","components":[{"name":"encryptedBundle","type":"bytes32[3]","internalType":"bytes32[3]"},{"name":"shieldKey","type":"bytes32","internalType":"bytes32"}]},{"name":"fees","type":"uint256[]","indexed":false,"internalType":"uint256[]"}],"anonymous":false},{"type":"event","name":"Transact","inputs":[{"name":"treeNumber","type":"uint256","indexed":false,"internalType":"uint256"},{"name":"startPosition","type":"uint256","indexed":false,"internalType":"uint256"},{"name":"hash","type":"bytes32[]","indexed":false,"internalType":"bytes32[]"},{"name":"ciphertext","type":"tuple[]","indexed":false,"internalType":"struct CommitmentCiphertext[]","components":[{"name":"ciphertext","type":"bytes32[4]","internalType":"bytes32[4]"},{"name":"blindedSenderViewingKey","type":"bytes32","internalType":"bytes32"},{"name":"blindedReceiverViewingKey","type":"bytes32","internalType":"bytes32"},{"name":"annotationData","type":"bytes","internalType":"bytes"},{"name":"memo","type":"bytes","internalType":"bytes"}]}],"anonymous":false},{"type":"event","name":"TreasuryChange","inputs":[{"name":"treasury","type":"address","indexed":false,"internalType":"address"}],"anonymous":false},{"type":"event","name":"Unshield","inputs":[{"name":"to","type":"address","indexed":false,"internalType":"address"},{"name":"token","type":"tuple","indexed":false,"internalType":"struct TokenData","components":[{"name":"tokenType","type":"uint8","internalType":"enum TokenType"},{"name":"tokenAddress","type":"address","internalType":"address"},{"name":"tokenSubID","type":"uint256","internalType":"uint256"}]},{"name":"amount","type":"uint256","indexed":false,"internalType":"uint256"},{"name":"fee","type":"uint256","indexed":false,"internalType":"uint256"}],"anonymous":false},{"type":"event","name":"VerifyingKeySet","inputs":[{"name":"nullifiers","type":"uint256","indexed":false,"internalType":"uint256"},{"name":"commitments","type":"uint256","indexed":false,"internalType":"uint256"},{"name":"verifyingKey","type":"tuple","indexed":false,"internalType":"struct VerifyingKey","components":[{"name":"artifactsIPFSHash","type":"string","internalType":"string"},{"name":"alpha1","type":"tuple","internalType":"struct G1Point","components":[{"name":"x","type":"uint256","internalType":"uint256"},{"name":"y","type":"uint256","internalType":"uint256"}]},{"name":"beta2","type":"tuple","internalType":"struct G2Point","components":[{"name":"x","type":"uint256[2]","internalType":"uint256[2]"},{"name":"y","type":"uint256[2]","internalType":"uint256[2]"}]},{"name":"gamma2","type":"tuple","internalType":"struct G2Point","components":[{"name":"x","type":"uint256[2]","internalType":"uint256[2]"},{"name":"y","type":"uint256[2]","internalType":"uint256[2]"}]},{"name":"delta2","type":"tuple","internalType":"struct G2Point","components":[{"name":"x","type":"uint256[2]","internalType":"uint256[2]"},{"name":"y","type":"uint256[2]","internalType":"uint256[2]"}]},{"name":"ic","type":"tuple[]","internalType":"struct G1Point[]","components":[{"name":"x","type":"uint256","internalType":"uint256"},{"name":"y","type":"uint256","internalType":"uint256"}]}]}],"anonymous":false}],"bytecode":{"object":"0x60806040523480156200001157600080fd5b50619dfd80620000226000396000f3fe608060405234801561001057600080fd5b50600436106102695760003560e01c806371c5345511610151578063c8f35b5d116100c3578063e829558811610087578063e82955881461079c578063ec732959146107cc578063ee990783146107ea578063f19ea9031461081a578063f2fde38b1461084a578063f71a55f81461086657610269565b8063c8f35b5d1461070c578063cc1f73fd1461072a578063cd3efe0614610746578063d8ae136a14610764578063dc7c9a1f1461078057610269565b806392d3c7a41161011557806392d3c7a414610626578063a33952a914610656578063ab63e69c14610672578063b14f2a391461068e578063b8ceaef2146106aa578063c718dbda146106dc57610269565b806371c534551461055a5780637b12ae831461058a578063815b534f146105ba5780638da5cb5b146105ea5780639071adc01461060857610269565b80632ebfe12a116101ea57806359bb6199116101ae57806359bb619914610497578063617e1b17146104c757806361d027b3146104f857806366503315146105165780636cefafaa14610534578063715018a61461055057610269565b80632ebfe12a146103ce5780632ec0f359146103fe57806338bf282e1461041a57806343c887301461044a578063596d7a681461047b57610269565b80630c9c0c8d116102315780630c9c0c8d146102ee578063129458f41461031f578063174768911461034f57806328f89c3a146103805780632eb4a7ab146103b057610269565b806301c377901461026e578063044a40c31461028c578063053ed12a146102a85780630804a4ee146102c65780630be4f422146102d0575b600080fd5b610276610882565b6040516102839190615318565b60405180910390f35b6102a660048036038101906102a191906153ad565b6108a3565b005b6102b0610c06565b6040516102bd9190615318565b60405180910390f35b6102ce610c27565b005b6102d8610cc7565b6040516102e59190615413565b60405180910390f35b6103086004803603810190610303919061545a565b610ccd565b604051610316929190615487565b60405180910390f35b6103396004803603810190610334919061545a565b610d1c565b60405161034691906154cb565b60405180910390f35b6103696004803603810190610364919061550b565b610d3c565b6040516103779291906155e4565b60405180910390f35b61039a60048036038101906103959190615633565b6112c5565b6040516103a79190615413565b60405180910390f35b6103b8611323565b6040516103c59190615695565b60405180910390f35b6103e860048036038101906103e39190615bbc565b611329565b6040516103f591906154cb565b60405180910390f35b61041860048036038101906104139190615c69565b61134f565b005b610434600480360381019061042f9190615d04565b6113cb565b6040516104419190615695565b60405180910390f35b610464600480360381019061045f9190615de5565b611461565b604051610472929190615e38565b60405180910390f35b61049560048036038101906104909190615e61565b611531565b005b6104b160048036038101906104ac9190615ee4565b611556565b6040516104be9190615413565b60405180910390f35b6104e160048036038101906104dc9190615f50565b6115dd565b6040516104ef9291906155e4565b60405180910390f35b610500611833565b60405161050d9190615fbe565b60405180910390f35b61051e611859565b60405161052b9190615413565b60405180910390f35b61054e6004803603810190610549919061545a565b61185f565b005b610558611896565b005b610574600480360381019061056f9190616104565b6118aa565b6040516105819190615695565b60405180910390f35b6105a4600480360381019061059f9190616131565b61196d565b6040516105b19190616406565b60405180910390f35b6105d460048036038101906105cf9190616428565b611cb3565b6040516105e191906154cb565b60405180910390f35b6105f2611cd3565b6040516105ff9190616464565b60405180910390f35b610610611cfd565b60405161061d9190615413565b60405180910390f35b610640600480360381019061063b919061647f565b611d03565b60405161064d9190615695565b60405180910390f35b610670600480360381019061066b91906164d8565b611db9565b005b61068c600480360381019061068791906165a9565b611fe1565b005b6106a860048036038101906106a391906165f6565b61216a565b005b6106c460048036038101906106bf9190616623565b612243565b6040516106d3939291906166c7565b60405180910390f35b6106f660048036038101906106f191906166fe565b61229a565b60405161070391906154cb565b60405180910390f35b6107146122c9565b60405161072191906154cb565b60405180910390f35b610744600480360381019061073f919061673e565b6122dc565b005b61074e61251f565b60405161075b9190615413565b60405180910390f35b61077e60048036038101906107799190615ee4565b612525565b005b61079a6004803603810190610795919061545a565b61289f565b005b6107b660048036038101906107b1919061545a565b6128d6565b6040516107c39190615695565b60405180910390f35b6107d46128f1565b6040516107e19190615695565b60405180910390f35b61080460048036038101906107ff919061550b565b612946565b60405161081191906154cb565b60405180910390f35b610834600480360381019061082f91906166fe565b612f3b565b60405161084191906154cb565b60405180910390f35b610864600480360381019061085f9190616428565b612f6a565b005b610880600480360381019061087b91906165a9565b612fed565b005b60fa60009054906101000a90046effffffffffffffffffffffffffffff1681565b60008282905067ffffffffffffffff8111156108c2576108c16156b5565b5b6040519080825280602002602001820160405280156108f05781602001602082028036833780820191505090505b50905060008383905067ffffffffffffffff811115610912576109116156b5565b5b60405190808252806020026020018201604052801561094b57816020015b6109386150b2565b8152602001906001900390816109305790505b50905060008484905067ffffffffffffffff81111561096d5761096c6156b5565b5b6040519080825280602002602001820160405280156109a657816020015b6109936150ed565b81526020019060019003908161098b5790505b50905060008585905067ffffffffffffffff8111156109c8576109c76156b5565b5b6040519080825280602002602001820160405280156109f65781602001602082028036833780820191505090505b50905060005b86869050811015610b9b57600080610a2f898985818110610a2057610a1f616791565b5b905061012002016000016115dd565b915091508181604051602001610a459190616822565b60405160208183030381529060405290610a95576040517f08c379a0000000000000000000000000000000000000000000000000000000008152600401610a8c9190616848565b60405180910390fd5b50610abb898985818110610aac57610aab616791565b5b9050610120020160000161317e565b878581518110610ace57610acd616791565b5b60200260200101868681518110610ae857610ae7616791565b5b60200260200101828152508290525050610b1b868481518110610b0e57610b0d616791565b5b60200260200101516118aa565b878481518110610b2e57610b2d616791565b5b602002602001018181525050888884818110610b4d57610b4c616791565b5b9050610120020160a001803603810190610b67919061696b565b858481518110610b7a57610b79616791565b5b60200260200101819052505050600181610b9491906169c7565b90506109fc565b50600080610ba98551610ccd565b915091507f3a5b9dc26075a3801a6ddccf95fec485bb7500a91b44cec1add984c21ee6db3b8282878787604051610be4959493929190616d7b565b60405180910390a1610bf586613700565b4360fe819055505050505050505050565b60fa600f9054906101000a90046effffffffffffffffffffffffffffff1681565b6001610c557f8dea8703c3cf94703383ce38a9c894669dccd4ca8e65ddb43267aa024871145060001b6139e5565b60000160006101000a81548160ff02191690831515021790555060003360005260fc6020526040600020805491505080610cc4576040517f08c379a0000000000000000000000000000000000000000000000000000000008152600401610cbb90616e2f565b60405180910390fd5b50565b60665481565b60008060106002610cde9190616f82565b83606654610cec91906169c7565b1115610d0c576001606954610d0191906169c7565b600091509150610d17565b606954606654915091505b915091565b60fc6020528060005260406000206000915054906101000a900460ff1681565b6000606082806101600190610d519190616fdc565b6020016020810190610d639190617045565b68ffffffffffffffffff163a1015610db65760006040518060400160405280601181526020017f47617320707269636520746f6f206c6f77000000000000000000000000000000815250915091506112c0565b600073ffffffffffffffffffffffffffffffffffffffff1683806101600190610ddf9190616fdc565b6080016020810190610df19190616428565b73ffffffffffffffffffffffffffffffffffffffff1614158015610e6357503373ffffffffffffffffffffffffffffffffffffffff1683806101600190610e389190616fdc565b6080016020810190610e4a9190616428565b73ffffffffffffffffffffffffffffffffffffffff1614155b15610ea95760006040518060400160405280602081526020017f496e76616c696420416461707420436f6e74726163742061732053656e646572815250915091506112c0565b4683806101600190610ebb9190616fdc565b6060016020810190610ecd91906170b2565b67ffffffffffffffff1614610f1d5760006040518060400160405280601081526020017f436861696e4944206d69736d6174636800000000000000000000000000000000815250915091506112c0565b608a600084806101600190610f329190616fdc565b6000016020810190610f449190617119565b61ffff1681526020019081526020016000206000846101000135815260200190815260200160002060009054906101000a900460ff16610fbf5760006040518060400160405280601381526020017f496e76616c6964204d65726b6c6520526f6f7400000000000000000000000000815250915091506112c0565b60006002811115610fd357610fd2616650565b5b83806101600190610fe49190616fdc565b6040016020810190610ff6919061716b565b600281111561100857611007616650565b5b146111fc576001838061014001906110209190617198565b905061102c91906171fb565b8380610160019061103d9190616fdc565b8060c0019061104c919061722f565b905014611077576000604051806060016040528060248152602001619da460249139915091506112c0565b600060028081111561108c5761108b616650565b5b8480610160019061109d9190616fdc565b60400160208101906110af919061716b565b60028111156110c1576110c0616650565b5b036111475761114060405180606001604052803373ffffffffffffffffffffffffffffffffffffffff1660001b8152602001866101800160200180360381019061110b919061647f565b8152602001866101800160800160208101906111279190617292565b6effffffffffffffffffffffffffffff168152506118aa565b9050611167565b611164846101800180360381019061115f9190616104565b6118aa565b90505b838061014001906111789190617198565b60018680610140019061118b9190617198565b905061119791906171fb565b8181106111a7576111a6616791565b5b9050602002013581146111f65760006040518060400160405280601581526020017f496e76616c6964205769746864726177204e6f7465000000000000000000000081525092509250506112c0565b5061125b565b8280610140019061120d9190617198565b9050838061016001906112209190616fdc565b8060c0019061122f919061722f565b90501461125a576000604051806060016040528060248152602001619da460249139915091506112c0565b5b61126483612946565b6112a95760006040518060400160405280601381526020017f496e76616c696420536e61726b2050726f6f6600000000000000000000000000815250915091506112c0565b600160405180602001604052806000815250915091505b915091565b60007f30644e72e131a029b85045b68181585d2833e84879b9709143e1f593f0000001826040516020016112f9919061774e565b6040516020818303038152906040528051906020012060001c61131c919061779f565b9050919050565b60675481565b600061134684848036038101906113409190617835565b846139ef565b90509392505050565b611357613b6a565b8060c7600085815260200190815260200160002060008481526020019081526020016000208181611388919061813e565b9050507f3d09e10d1c966d01c4a2c14d0ac9af253486aa5e99b6cffe9019c4d43eb1fb238383836040516113be93929190618450565b60405180910390a1505050565b600073__$e4b2a9d8f07fa6f22863c7e426f7b84603$__63299e56606040518060400160405280868152602001858152506040518263ffffffff1660e01b81526004016114189190618539565b602060405180830381865af4158015611435573d6000803e3d6000fd5b505050506040513d601f19601f820116820180604052508101906114599190618569565b905092915050565b60008060008085156114c8576127106effffffffffffffffffffffffffffff16856effffffffffffffffffffffffffffff168861149e9190618596565b6114a891906185d8565b876114b39190618609565b915081876114c19190618609565b9050611521565b86915081856127106114da919061864e565b6effffffffffffffffffffffffffffff16836127106effffffffffffffffffffffffffffff1661150a9190618596565b61151491906185d8565b61151e9190618609565b90505b8181935093505050935093915050565b611539613b6a565b8060c860006101000a81548160ff02191690831515021790555050565b6000806000905060005b848490508110156115d25784848281811061157e5761157d616791565b5b90506020028101906115909190618691565b8061016001906115a09190616fdc565b8060c001906115af919061722f565b9050826115bc91906169c7565b91506001816115cb91906169c7565b9050611560565b508091505092915050565b6000606060008360800160208101906115f69190617292565b6effffffffffffffffffffffffffffff160361164d5760006040518060400160405280601281526020017f496e76616c6964204e6f74652056616c756500000000000000000000000000008152509150915061182e565b609560008460200160200160208101906116679190616428565b73ffffffffffffffffffffffffffffffffffffffff1673ffffffffffffffffffffffffffffffffffffffff16815260200190815260200160002060009054906101000a900460ff16156116f55760006040518060400160405280601181526020017f556e737570706f7274656420546f6b656e0000000000000000000000000000008152509150915061182e565b7f30644e72e131a029b85045b68181585d2833e84879b9709143e1f593f0000001836000013560001c106117645760006040518060400160405280601081526020017f496e76616c6964204e6f7465204e504b000000000000000000000000000000008152509150915061182e565b6001600281111561177857611777616650565b5b83602001600001602081019061178e91906186ba565b60028111156117a05761179f616650565b5b1480156117d1575060018360800160208101906117bd9190617292565b6effffffffffffffffffffffffffffff1614155b156118175760006040518060400160405280601681526020017f496e76616c6964204e4654204e6f74652056616c7565000000000000000000008152509150915061182e565b600160405180602001604052806000815250915091505b915091565b60f960009054906101000a900473ffffffffffffffffffffffffffffffffffffffff1681565b60695481565b611867613b6a565b600160fc600083815260200190815260200160002060006101000a81548160ff02191690831515021790555050565b61189e613b6a565b6118a86000613be8565b565b600073__$610c11827248d0bfa646e7ca34d40f2d3f$__635a53025d6040518060600160405280856000015181526020016118e88660200151611d03565b815260200185604001516effffffffffffffffffffffffffffff1660001b8152506040518263ffffffff1660e01b81526004016119259190618749565b602060405180830381865af4158015611942573d6000803e3d6000fd5b505050506040513d601f19601f820116820180604052508101906119669190618569565b9050919050565b611975615110565b60c7600084815260200190815260200160002060008381526020019081526020016000206040518060c00160405290816000820180546119b49061792f565b80601f01602080910402602001604051908101604052809291908181526020018280546119e09061792f565b8015611a2d5780601f10611a0257610100808354040283529160200191611a2d565b820191906000526020600020905b815481529060010190602001808311611a1057829003601f168201915b50505050508152602001600182016040518060400160405290816000820154815260200160018201548152505081526020016003820160405180604001604052908160008201600280602002604051908101604052809291908260028015611aaa576020028201915b815481526020019060010190808311611a96575b5050505050815260200160028201600280602002604051908101604052809291908260028015611aef576020028201915b815481526020019060010190808311611adb575b50505050508152505081526020016007820160405180604001604052908160008201600280602002604051908101604052809291908260028015611b48576020028201915b815481526020019060010190808311611b34575b5050505050815260200160028201600280602002604051908101604052809291908260028015611b8d576020028201915b815481526020019060010190808311611b79575b5050505050815250508152602001600b820160405180604001604052908160008201600280602002604051908101604052809291908260028015611be6576020028201915b815481526020019060010190808311611bd2575b5050505050815260200160028201600280602002604051908101604052809291908260028015611c2b576020028201915b815481526020019060010190808311611c17575b5050505050815250508152602001600f8201805480602002602001604051908101604052809291908181526020016000905b82821015611ca357838290600052602060002090600202016040518060400160405290816000820154815260200160018201548152505081526020019060010190611c5d565b5050505081525050905092915050565b60956020528060005260406000206000915054906101000a900460ff1681565b6000603360009054906101000a900473ffffffffffffffffffffffffffffffffffffffff16905090565b60fb5481565b6000806002811115611d1857611d17616650565b5b82600001516002811115611d2f57611d2e616650565b5b03611d5957816020015173ffffffffffffffffffffffffffffffffffffffff1660001b9050611db4565b7f30644e72e131a029b85045b68181585d2833e84879b9709143e1f593f000000182604051602001611d8b91906187a6565b6040516020818303038152906040528051906020012060001c611dae919061779f565b60001b90505b919050565b60008060019054906101000a900460ff16159050808015611dea5750600160008054906101000a900460ff1660ff16105b80611e175750611df930613cae565b158015611e165750600160008054906101000a900460ff1660ff16145b5b611e56576040517f08c379a0000000000000000000000000000000000000000000000000000000008152600401611e4d90618833565b60405180910390fd5b60016000806101000a81548160ff021916908360ff1602179055508015611e93576001600060016101000a81548160ff0219169083151502179055505b611e9b613cd1565b611ea3613d2a565b611eac8661216a565b611eb78585856122dc565b611ec082612f6a565b600160fc6000730219b4c1adcec8f4206b528832f66ab76766873d815260200190815260200160002060006101000a81548160ff021916908315150217905550600160fc60007317cf6db98b05a0329c983f3a3b45d37d9cf1de86815260200190815260200160002060006101000a81548160ff021916908315150217905550600160fc600073cc29dbf69896278a0c6b886ef8cc30a56fa6164a815260200190815260200160002060006101000a81548160ff0219169083151502179055508015611fd95760008060016101000a81548160ff0219169083151502179055507f7f26b83ff96e1f2b6a682f133852f6798a09c465da95921460cefb38474024986001604051611fd0919061889b565b60405180910390a15b505050505050565b611fe9613b6a565b60005b82829050811015612165576095600084848481811061200e5761200d616791565b5b90506020020160208101906120239190616428565b73ffffffffffffffffffffffffffffffffffffffff1673ffffffffffffffffffffffffffffffffffffffff16815260200190815260200160002060009054906101000a900460ff1615612151576095600084848481811061208757612086616791565b5b905060200201602081019061209c9190616428565b73ffffffffffffffffffffffffffffffffffffffff1673ffffffffffffffffffffffffffffffffffffffff16815260200190815260200160002060006101000a81549060ff02191690558282828181106120f9576120f8616791565b5b905060200201602081019061210e9190616428565b73ffffffffffffffffffffffffffffffffffffffff167f2ef13bd1aff17b0f9c85afaf228e84266c8394d9d381735e83fe23f607113e2e60405160405180910390a25b60018161215e91906169c7565b9050611fec565b505050565b612172613b6a565b8073ffffffffffffffffffffffffffffffffffffffff1660f960009054906101000a900473ffffffffffffffffffffffffffffffffffffffff1673ffffffffffffffffffffffffffffffffffffffff1614612240578060f960006101000a81548173ffffffffffffffffffffffffffffffffffffffff021916908373ffffffffffffffffffffffffffffffffffffffff1602179055507f1ac54af2084ba0e4b86b7bc54b978ce7dd4ca046d3dec89d7c8963873820c0bb81604051612237919061890b565b60405180910390a15b50565b60fd6020528060005260406000206000915090508060000160009054906101000a900460ff16908060000160019054906101000a900473ffffffffffffffffffffffffffffffffffffffff16908060010154905083565b608a6020528160005260406000206020528060005260406000206000915091509054906101000a900460ff1681565b60c860009054906101000a900460ff1681565b6122e4613b6a565b60fa60009054906101000a90046effffffffffffffffffffffffffffff166effffffffffffffffffffffffffffff16836effffffffffffffffffffffffffffff16141580612371575060fa600f9054906101000a90046effffffffffffffffffffffffffffff166effffffffffffffffffffffffffffff16826effffffffffffffffffffffffffffff1614155b8061237e575060fb548114155b1561251a5760026127106123929190618926565b6effffffffffffffffffffffffffffff16836effffffffffffffffffffffffffffff1611156123f6576040517f08c379a00000000000000000000000000000000000000000000000000000000081526004016123ed906189c9565b60405180910390fd5b60026127106124059190618926565b6effffffffffffffffffffffffffffff16826effffffffffffffffffffffffffffff161115612469576040517f08c379a000000000000000000000000000000000000000000000000000000000815260040161246090618a5b565b60405180910390fd5b8260fa60006101000a8154816effffffffffffffffffffffffffffff02191690836effffffffffffffffffffffffffffff1602179055508160fa600f6101000a8154816effffffffffffffffffffffffffffff02191690836effffffffffffffffffffffffffffff1602179055508060fb819055507f472cfc031d19bcc54db01976ce486cc12dc3d489e6adced1eb5a782cd55cfdf283838360405161251193929190618aac565b60405180910390a15b505050565b60fe5481565b60006125318383611556565b905060008167ffffffffffffffff81111561254f5761254e6156b5565b5b60405190808252806020026020018201604052801561257d5781602001602082028036833780820191505090505b5090506000808367ffffffffffffffff81111561259d5761259c6156b5565b5b6040519080825280602002602001820160405280156125d657816020015b6125c361515e565b8152602001906001900390816125bb5790505b50905060005b868690508110156126c657600080612617898985818110612600576125ff616791565b5b90506020028101906126129190618691565b610d3c565b91509150818160405160200161262d9190616822565b6040516020818303038152906040529061267d576040517f08c379a00000000000000000000000000000000000000000000000000000000081526004016126749190616848565b60405180910390fd5b506126ae89898581811061269457612693616791565b5b90506020028101906126a69190618691565b878787613eea565b945050506001816126bf91906169c7565b90506125dc565b5060005b8686905081101561282b57600060028111156126e9576126e8616650565b5b8787838181106126fc576126fb616791565b5b905060200281019061270e9190618691565b80610160019061271e9190616fdc565b6040016020810190612730919061716b565b600281111561274257612741616650565b5b146128175760008061277b8989858181106127605761275f616791565b5b90506020028101906127729190618691565b610180016115dd565b9150915081816040516020016127919190616822565b604051602081830303815290604052906127e1576040517f08c379a00000000000000000000000000000000000000000000000000000000081526004016127d89190616848565b60405180910390fd5b506128148989858181106127f8576127f7616791565b5b905060200281019061280a9190618691565b6101800133614218565b50505b60018161282491906169c7565b90506126ca565b506000806128398551610ccd565b91509150600085511115612885577f56a618cda1e34057b7f849a5792f6c8587a2dbe11c83d0254e72cb3daffda7d18282878660405161287c9493929190618d82565b60405180910390a15b61288e85613700565b4360fe819055505050505050505050565b6128a7613b6a565b600060fc600083815260200190815260200160002060006101000a81548160ff02191690831515021790555050565b606a81601081106128e657600080fd5b016000915090505481565b7f30644e72e131a029b85045b68181585d2833e84879b9709143e1f593f00000017f95b5e3f3c951508f13e7771152f5b7c7329a294917685c10a571c9247e3b9fff60001c612940919061779f565b60001b81565b600060c860009054906101000a900460ff16156129665760019050612f36565b6000828061012001906129799190617198565b905090506000838061014001906129909190617198565b90509050600060c7600084815260200190815260200160002060008381526020019081526020016000206040518060c00160405290816000820180546129d59061792f565b80601f0160208091040260200160405190810160405280929190818152602001828054612a019061792f565b8015612a4e5780601f10612a2357610100808354040283529160200191612a4e565b820191906000526020600020905b815481529060010190602001808311612a3157829003601f168201915b50505050508152602001600182016040518060400160405290816000820154815260200160018201548152505081526020016003820160405180604001604052908160008201600280602002604051908101604052809291908260028015612acb576020028201915b815481526020019060010190808311612ab7575b5050505050815260200160028201600280602002604051908101604052809291908260028015612b10576020028201915b815481526020019060010190808311612afc575b50505050508152505081526020016007820160405180604001604052908160008201600280602002604051908101604052809291908260028015612b69576020028201915b815481526020019060010190808311612b55575b5050505050815260200160028201600280602002604051908101604052809291908260028015612bae576020028201915b815481526020019060010190808311612b9a575b5050505050815250508152602001600b820160405180604001604052908160008201600280602002604051908101604052809291908260028015612c07576020028201915b815481526020019060010190808311612bf3575b5050505050815260200160028201600280602002604051908101604052809291908260028015612c4c576020028201915b815481526020019060010190808311612c38575b5050505050815250508152602001600f8201805480602002602001604051908101604052809291908181526020016000905b82821015612cc457838290600052602060002090600202016040518060400160405290816000820154815260200160018201548152505081526020019060010190612c7e565b50505050815250509050600081602001516000015103612d19576040517f08c379a0000000000000000000000000000000000000000000000000000000008152600401612d1090618e21565b60405180910390fd5b600082846002612d2991906169c7565b612d3391906169c7565b67ffffffffffffffff811115612d4c57612d4b6156b5565b5b604051908082528060200260200182016040528015612d7a5781602001602082028036833780820191505090505b50905085610100013560001c81600081518110612d9a57612d99616791565b5b602002602001018181525050612dbf86806101600190612dba9190616fdc565b6112c5565b81600181518110612dd357612dd2616791565b5b60200260200101818152505060005b84811015612e555786806101200190612dfb9190617198565b82818110612e0c57612e0b616791565b5b9050602002013560001c82826002612e2491906169c7565b81518110612e3557612e34616791565b5b602002602001018181525050600181612e4e91906169c7565b9050612de2565b5060005b83811015612ed75786806101400190612e729190617198565b82818110612e8357612e82616791565b5b9050602002013560001c8282876002612e9c91906169c7565b612ea691906169c7565b81518110612eb757612eb6616791565b5b602002602001018181525050600181612ed091906169c7565b9050612e59565b506000612ee8838860000184611329565b905061dead73ffffffffffffffffffffffffffffffffffffffff163273ffffffffffffffffffffffffffffffffffffffff1603612f2d57600195505050505050612f36565b80955050505050505b919050565b60656020528160005260406000206020528060005260406000206000915091509054906101000a900460ff1681565b612f72613b6a565b600073ffffffffffffffffffffffffffffffffffffffff168173ffffffffffffffffffffffffffffffffffffffff1603612fe1576040517f08c379a0000000000000000000000000000000000000000000000000000000008152600401612fd890618eb3565b60405180910390fd5b612fea81613be8565b50565b612ff5613b6a565b60005b82829050811015613179576095600084848481811061301a57613019616791565b5b905060200201602081019061302f9190616428565b73ffffffffffffffffffffffffffffffffffffffff1673ffffffffffffffffffffffffffffffffffffffff16815260200190815260200160002060009054906101000a900460ff166131655760016095600085858581811061309457613093616791565b5b90506020020160208101906130a99190616428565b73ffffffffffffffffffffffffffffffffffffffff1673ffffffffffffffffffffffffffffffffffffffff16815260200190815260200160002060006101000a81548160ff02191690831515021790555082828281811061310d5761310c616791565b5b90506020020160208101906131229190616428565b73ffffffffffffffffffffffffffffffffffffffff167f46742f555939247f80b50a8ca895a561933c48bc9a06ccb0c812e97ac723d33f60405160405180910390a25b60018161317291906169c7565b9050612ff8565b505050565b6131866150b2565b60006131906150b2565b60008060028111156131a5576131a4616650565b5b8560200160000160208101906131bb91906186ba565b60028111156131cd576131cc616650565b5b0361349a5760008560200160200160208101906131ea9190616428565b905060008061323b8860800160208101906132059190617292565b6effffffffffffffffffffffffffffff16600160fa60009054906101000a90046effffffffffffffffffffffffffffff16611461565b91509150806effffffffffffffffffffffffffffff1693506040518060600160405280896000013581526020018960200180360381019061327c919061647f565b8152602001836effffffffffffffffffffffffffffff16815250945060008373ffffffffffffffffffffffffffffffffffffffff166370a08231306040518263ffffffff1660e01b81526004016132d39190616464565b602060405180830381865afa1580156132f0573d6000803e3d6000fd5b505050506040513d601f19601f820116820180604052508101906133149190618ee8565b90506133543330856effffffffffffffffffffffffffffff168773ffffffffffffffffffffffffffffffffffffffff166145bb909392919063ffffffff16565b60008473ffffffffffffffffffffffffffffffffffffffff166370a08231306040518263ffffffff1660e01b815260040161338f9190616464565b602060405180830381865afa1580156133ac573d6000803e3d6000fd5b505050506040513d601f19601f820116820180604052508101906133d09190618ee8565b9050836effffffffffffffffffffffffffffff1682826133f091906171fb565b14613430576040517f08c379a000000000000000000000000000000000000000000000000000000000815260040161342790618f87565b60405180910390fd5b6134903360f960009054906101000a900473ffffffffffffffffffffffffffffffffffffffff16856effffffffffffffffffffffffffffff168873ffffffffffffffffffffffffffffffffffffffff166145bb909392919063ffffffff16565b50505050506136f3565b600160028111156134ae576134ad616650565b5b8560200160000160208101906134c491906186ba565b60028111156134d6576134d5616650565b5b036136b75760008560200160200160208101906134f39190616428565b9050600091508580360381019061350a9190616104565b92508560200160fd60006135308960200180360381019061352b919061647f565b611d03565b8152602001908152602001600020818161354a919061911f565b9050508073ffffffffffffffffffffffffffffffffffffffff166323b872dd333089602001604001356040518463ffffffff1660e01b81526004016135919392919061912d565b600060405180830381600087803b1580156135ab57600080fd5b505af11580156135bf573d6000803e3d6000fd5b505050503073ffffffffffffffffffffffffffffffffffffffff168173ffffffffffffffffffffffffffffffffffffffff16636352211e88602001604001356040518263ffffffff1660e01b815260040161361a9190615413565b602060405180830381865afa158015613637573d6000803e3d6000fd5b505050506040513d601f19601f8201168201806040525081019061365b9190619179565b73ffffffffffffffffffffffffffffffffffffffff16146136b1576040517f08c379a00000000000000000000000000000000000000000000000000000000081526004016136a890619218565b60405180910390fd5b506136f2565b6040517f08c379a00000000000000000000000000000000000000000000000000000000081526004016136e9906192aa565b60405180910390fd5b5b8181935093505050915091565b6000815190506000810361371457506139e2565b601060026137229190616f82565b8160665461373091906169c7565b111561373f5761373e614644565b5b60006066549050816066600082825461375891906169c7565b9250508190555060008060005b601081101561397957600184901c915060006001600286613786919061779f565b036138145782600186901c61379b91906171fb565b93506137d6607a83601081106137b4576137b3616791565b5b01548883815181106137c9576137c8616791565b5b60200260200101516113cb565b8785815181106137e9576137e8616791565b5b60200260200101818152505060018161380291906169c7565b905060018561381191906169c7565b94505b5b8581101561395257600060018761382c91906171fb565b821015613861578760018361384191906169c7565b8151811061385257613851616791565b5b6020026020010151905061387a565b606a836010811061387557613874616791565b5b015490505b60018761388791906171fb565b82148061389f575060028761389c91906171fb565b82145b156138d9578782815181106138b7576138b6616791565b5b6020026020010151607a84601081106138d3576138d2616791565b5b01819055505b83600187901c6138e991906171fb565b945061390f88838151811061390157613900616791565b5b6020026020010151826113cb565b88868151811061392257613921616791565b5b60200260200101818152505060028661393b91906169c7565b95505060028161394b91906169c7565b9050613815565b82945060018461396291906169c7565b95505060018161397291906169c7565b9050613765565b508460008151811061398e5761398d616791565b5b60200260200101516067819055506001608a600060695481526020019081526020016000206000606754815260200190815260200160002060006101000a81548160ff021916908315150217905550505050505b50565b6000819050919050565b6000806040518060400160405280600081526020016000815250905060005b8351811015613b00577f30644e72e131a029b85045b68181585d2833e84879b9709143e1f593f0000001848281518110613a4b57613a4a616791565b5b602002602001015110613a93576040517f08c379a0000000000000000000000000000000000000000000000000000000008152600401613a8a9061933c565b60405180910390fd5b613aea82613ae58860a00151600185613aac91906169c7565b81518110613abd57613abc616791565b5b6020026020010151878581518110613ad857613ad7616791565b5b6020026020010151614671565b61473d565b9150600181613af991906169c7565b9050613a0e565b50613b2a818660a00151600081518110613b1d57613b1c616791565b5b602002602001015161473d565b9050613b60613b3c856000015161483b565b856020015187602001518860400151858a606001518a604001518c60800151614a26565b9150509392505050565b613b72614d2e565b73ffffffffffffffffffffffffffffffffffffffff16613b90611cd3565b73ffffffffffffffffffffffffffffffffffffffff1614613be6576040517f08c379a0000000000000000000000000000000000000000000000000000000008152600401613bdd906193a8565b60405180910390fd5b565b6000603360009054906101000a900473ffffffffffffffffffffffffffffffffffffffff16905081603360006101000a81548173ffffffffffffffffffffffffffffffffffffffff021916908373ffffffffffffffffffffffffffffffffffffffff1602179055508173ffffffffffffffffffffffffffffffffffffffff168173ffffffffffffffffffffffffffffffffffffffff167f8be0079c531659141344cd1fd0a4f28419497f9722a3daafe3b4186f6b6457e060405160405180910390a35050565b6000808273ffffffffffffffffffffffffffffffffffffffff163b119050919050565b600060019054906101000a900460ff16613d20576040517f08c379a0000000000000000000000000000000000000000000000000000000008152600401613d179061943a565b60405180910390fd5b613d28614d36565b565b600060019054906101000a900460ff16613d79576040517f08c379a0000000000000000000000000000000000000000000000000000000008152600401613d709061943a565b60405180910390fd5b7f30644e72e131a029b85045b68181585d2833e84879b9709143e1f593f00000017f95b5e3f3c951508f13e7771152f5b7c7329a294917685c10a571c9247e3b9fff60001c613dc8919061779f565b60001b606a600060108110613de057613ddf616791565b5b018190555060007f30644e72e131a029b85045b68181585d2833e84879b9709143e1f593f00000017f95b5e3f3c951508f13e7771152f5b7c7329a294917685c10a571c9247e3b9fff60001c613e36919061779f565b60001b905060005b6010811015613e9b5781606a8260108110613e5c57613e5b616791565b5b018190555081607a8260108110613e7657613e75616791565b5b0181905550613e8582836113cb565b9150600181613e9491906169c7565b9050613e3e565b508060678190556068819055506001608a60006069548152602001908152602001600020600083815260200190815260200160002060006101000a81548160ff02191690831515021790555050565b600080600090505b85806101200190613f039190617198565b905081101561406b576065600087806101600190613f219190616fdc565b6000016020810190613f339190617119565b61ffff168152602001908152602001600020600087806101200190613f589190617198565b84818110613f6957613f68616791565b5b90506020020135815260200190815260200160002060009054906101000a900460ff1615613fcc576040517f08c379a0000000000000000000000000000000000000000000000000000000008152600401613fc3906194a6565b60405180910390fd5b60016065600088806101600190613fe39190616fdc565b6000016020810190613ff59190617119565b61ffff16815260200190815260200160002060008880610120019061401a9190617198565b8581811061402b5761402a616791565b5b90506020020135815260200190815260200160002060006101000a81548160ff02191690831515021790555060018161406491906169c7565b9050613ef2565b507f781745c57906dc2f175fec80a9c691744c91c48a34a83672c41c2604774eb11f8580610160019061409e9190616fdc565b60000160208101906140b09190617119565b868061012001906140c19190617198565b6040516140d093929190619536565b60405180910390a160005b858061016001906140ec9190616fdc565b8060c001906140fb919061722f565b90508110156141e057858061014001906141159190617198565b8281811061412657614125616791565b5b9050602002013585828661413a91906169c7565b8151811061414b5761414a616791565b5b602002602001018181525050858061016001906141689190616fdc565b8060c00190614177919061722f565b8281811061418857614187616791565b5b905060200281019061419a9190619568565b6141a3906197a8565b8382866141b091906169c7565b815181106141c1576141c0616791565b5b60200260200101819052506001816141d991906169c7565b90506140db565b50848061016001906141f29190616fdc565b8060c00190614201919061722f565b90508361420e91906169c7565b9050949350505050565b6000600281111561422c5761422b616650565b5b82602001600001602081019061424291906186ba565b600281111561425457614253616650565b5b036144545760008260200160200160208101906142719190616428565b90506000806142c285608001602081019061428c9190617292565b6effffffffffffffffffffffffffffff16600160fa600f9054906101000a90046effffffffffffffffffffffffffffff16611461565b915091506000856000013560001c905061430e81846effffffffffffffffffffffffffffff168673ffffffffffffffffffffffffffffffffffffffff16614d979092919063ffffffff16565b61436c60f960009054906101000a900473ffffffffffffffffffffffffffffffffffffffff16836effffffffffffffffffffffffffffff168673ffffffffffffffffffffffffffffffffffffffff16614d979092919063ffffffff16565b7fd93cf895c7d5b2cd7dc7a098b678b3089f37d91f48d9b83a0800a91cbdf05284818760200185856040516143a4949392919061982c565b60405180910390a160008173ffffffffffffffffffffffffffffffffffffffff163b111561444b578073ffffffffffffffffffffffffffffffffffffffff1663296b3b558760200160200160208101906143fe9190616428565b85886040518463ffffffff1660e01b815260040161441e93929190619871565b600060405180830381600087803b15801561443857600080fd5b505af1925050508015614449575060015b505b505050506145b7565b6001600281111561446857614467616650565b5b82602001600001602081019061447e91906186ba565b60028111156144905761448f616650565b5b0361457b5760008260200160200160208101906144ad9190616428565b90508073ffffffffffffffffffffffffffffffffffffffff166323b872dd30856000013560001c86602001604001356040518463ffffffff1660e01b81526004016144fa9392919061912d565b600060405180830381600087803b15801561451457600080fd5b505af1158015614528573d6000803e3d6000fd5b505050507fd93cf895c7d5b2cd7dc7a098b678b3089f37d91f48d9b83a0800a91cbdf05284836000013560001c846020016001600060405161456d9493929190619914565b60405180910390a1506145b6565b6040517f08c379a00000000000000000000000000000000000000000000000000000000081526004016145ad906192aa565b60405180910390fd5b5b5050565b61463e846323b872dd60e01b8585856040516024016145dc9392919061912d565b604051602081830303815290604052907bffffffffffffffffffffffffffffffffffffffffffffffffffffffff19166020820180517bffffffffffffffffffffffffffffffffffffffffffffffffffffffff8381831617835250505050614e1d565b50505050565b606854606781905550600060668190555060016069600082825461466891906169c7565b92505081905550565b614679615199565b6146816151b3565b83600001518160006003811061469a57614699616791565b5b6020020181815250508360200151816001600381106146bc576146bb616791565b5b60200201818152505082816002600381106146da576146d9616791565b5b602002018181525050600060408360608460076107d05a03fa905080614735576040517f08c379a000000000000000000000000000000000000000000000000000000000815260040161472c906199cb565b60405180910390fd5b505092915050565b614745615199565b61474d6151d5565b83600001518160006004811061476657614765616791565b5b60200201818152505083602001518160016004811061478857614787616791565b5b6020020181815250508260000151816002600481106147aa576147a9616791565b5b6020020181815250508260200151816003600481106147cc576147cb616791565b5b60200201818152505060006147df615199565b60408160808560066107d05a03fa91508161482f576040517f08c379a000000000000000000000000000000000000000000000000000000000815260040161482690619a37565b60405180910390fd5b80935050505092915050565b614843615199565b6000826000015114801561485b575060008260200151145b1561487e5760405180604001604052806000815260200160008152509050614a21565b60007f30644e72e131a029b85045b68181585d97816a916871ca8d3c208c16d87cfd47806148af576148ae617770565b5b836000015184600001510990507f30644e72e131a029b85045b68181585d97816a916871ca8d3c208c16d87cfd47806148eb576148ea617770565b5b8360000151820990507f30644e72e131a029b85045b68181585d97816a916871ca8d3c208c16d87cfd478061492357614922617770565b5b60038208905060007f30644e72e131a029b85045b68181585d97816a916871ca8d3c208c16d87cfd478061495a57614959617770565b5b846020015185602001510990508181146149a9576040517f08c379a00000000000000000000000000000000000000000000000000000000081526004016149a090619aa3565b60405180910390fd5b6040518060400160405280856000015181526020017f30644e72e131a029b85045b68181585d97816a916871ca8d3c208c16d87cfd4786602001516149ee919061779f565b7f30644e72e131a029b85045b68181585d97816a916871ca8d3c208c16d87cfd47614a1991906171fb565b815250925050505b919050565b6000806040518061030001604052808b6000015181526020018b6020015181526020018a60000151600060028110614a6157614a60616791565b5b602002015181526020018a60000151600160028110614a8357614a82616791565b5b602002015181526020018a60200151600060028110614aa557614aa4616791565b5b602002015181526020018a60200151600160028110614ac757614ac6616791565b5b6020020151815260200189600001518152602001896020015181526020018860000151600060028110614afd57614afc616791565b5b602002015181526020018860000151600160028110614b1f57614b1e616791565b5b602002015181526020018860200151600060028110614b4157614b40616791565b5b602002015181526020018860200151600160028110614b6357614b62616791565b5b6020020151815260200187600001518152602001876020015181526020018660000151600060028110614b9957614b98616791565b5b602002015181526020018660000151600160028110614bbb57614bba616791565b5b602002015181526020018660200151600060028110614bdd57614bdc616791565b5b602002015181526020018660200151600160028110614bff57614bfe616791565b5b6020020151815260200185600001518152602001856020015181526020018460000151600060028110614c3557614c34616791565b5b602002015181526020018460000151600160028110614c5757614c56616791565b5b602002015181526020018460200151600060028110614c7957614c78616791565b5b602002015181526020018460200151600160028110614c9b57614c9a616791565b5b60200201518152509050614cad6151f7565b60006020826103008560086107d05a03fa905080614d00576040517f08c379a0000000000000000000000000000000000000000000000000000000008152600401614cf790619b35565b60405180910390fd5b600082600060018110614d1657614d15616791565b5b60200201511415935050505098975050505050505050565b600033905090565b600060019054906101000a900460ff16614d85576040517f08c379a0000000000000000000000000000000000000000000000000000000008152600401614d7c9061943a565b60405180910390fd5b614d95614d90614d2e565b613be8565b565b614e188363a9059cbb60e01b8484604051602401614db6929190619b55565b604051602081830303815290604052907bffffffffffffffffffffffffffffffffffffffffffffffffffffffff19166020820180517bffffffffffffffffffffffffffffffffffffffffffffffffffffffff8381831617835250505050614e1d565b505050565b6000614e7f826040518060400160405280602081526020017f5361666545524332303a206c6f772d6c6576656c2063616c6c206661696c65648152508573ffffffffffffffffffffffffffffffffffffffff16614ee59092919063ffffffff16565b9050600081511480614ea1575080806020019051810190614ea09190619b93565b5b614ee0576040517f08c379a0000000000000000000000000000000000000000000000000000000008152600401614ed790619c32565b60405180910390fd5b505050565b6060614ef48484600085614efd565b90509392505050565b606082471015614f42576040517f08c379a0000000000000000000000000000000000000000000000000000000008152600401614f3990619cc4565b60405180910390fd5b6000808673ffffffffffffffffffffffffffffffffffffffff168587604051614f6b9190619d20565b60006040518083038185875af1925050503d8060008114614fa8576040519150601f19603f3d011682016040523d82523d6000602084013e614fad565b606091505b5091509150614fbe87838387614fca565b92505050949350505050565b6060831561502c57600083510361502457614fe48561503f565b615023576040517f08c379a000000000000000000000000000000000000000000000000000000000815260040161501a90619d83565b60405180910390fd5b5b829050615037565b6150368383615062565b5b949350505050565b6000808273ffffffffffffffffffffffffffffffffffffffff163b119050919050565b6000825111156150755781518083602001fd5b806040517f08c379a00000000000000000000000000000000000000000000000000000000081526004016150a99190616848565b60405180910390fd5b6040518060600160405280600080191681526020016150cf615219565b815260200160006effffffffffffffffffffffffffffff1681525090565b6040518060400160405280615100615262565b8152602001600080191681525090565b6040518060c001604052806060815260200161512a615199565b8152602001615137615284565b8152602001615144615284565b8152602001615151615284565b8152602001606081525090565b6040518060a001604052806151716152aa565b8152602001600080191681526020016000801916815260200160608152602001606081525090565b604051806040016040528060008152602001600081525090565b6040518060600160405280600390602082028036833780820191505090505090565b6040518060800160405280600490602082028036833780820191505090505090565b6040518060200160405280600190602082028036833780820191505090505090565b60405180606001604052806000600281111561523857615237616650565b5b8152602001600073ffffffffffffffffffffffffffffffffffffffff168152602001600081525090565b6040518060600160405280600390602082028036833780820191505090505090565b60405180604001604052806152976152cc565b81526020016152a46152cc565b81525090565b6040518060800160405280600490602082028036833780820191505090505090565b6040518060400160405280600290602082028036833780820191505090505090565b60006effffffffffffffffffffffffffffff82169050919050565b615312816152ee565b82525050565b600060208201905061532d6000830184615309565b92915050565b6000604051905090565b600080fd5b600080fd5b600080fd5b600080fd5b600080fd5b60008083601f84011261536c5761536b615347565b5b8235905067ffffffffffffffff8111156153895761538861534c565b5b602083019150836101208202830111156153a6576153a5615351565b5b9250929050565b600080602083850312156153c4576153c361533d565b5b600083013567ffffffffffffffff8111156153e2576153e1615342565b5b6153ee85828601615356565b92509250509250929050565b6000819050919050565b61540d816153fa565b82525050565b60006020820190506154286000830184615404565b92915050565b615437816153fa565b811461544257600080fd5b50565b6000813590506154548161542e565b92915050565b6000602082840312156154705761546f61533d565b5b600061547e84828501615445565b91505092915050565b600060408201905061549c6000830185615404565b6154a96020830184615404565b9392505050565b60008115159050919050565b6154c5816154b0565b82525050565b60006020820190506154e060008301846154bc565b92915050565b600080fd5b60006102208284031215615502576155016154e6565b5b81905092915050565b6000602082840312156155215761552061533d565b5b600082013567ffffffffffffffff81111561553f5761553e615342565b5b61554b848285016154eb565b91505092915050565b600081519050919050565b600082825260208201905092915050565b60005b8381101561558e578082015181840152602081019050615573565b60008484015250505050565b6000601f19601f8301169050919050565b60006155b682615554565b6155c0818561555f565b93506155d0818560208601615570565b6155d98161559a565b840191505092915050565b60006040820190506155f960008301856154bc565b818103602083015261560b81846155ab565b90509392505050565b600060e0828403121561562a576156296154e6565b5b81905092915050565b6000602082840312156156495761564861533d565b5b600082013567ffffffffffffffff81111561566757615666615342565b5b61567384828501615614565b91505092915050565b6000819050919050565b61568f8161567c565b82525050565b60006020820190506156aa6000830184615686565b92915050565b600080fd5b7f4e487b7100000000000000000000000000000000000000000000000000000000600052604160045260246000fd5b6156ed8261559a565b810181811067ffffffffffffffff8211171561570c5761570b6156b5565b5b80604052505050565b600061571f615333565b905061572b82826156e4565b919050565b600080fd5b600080fd5b600067ffffffffffffffff821115615755576157546156b5565b5b61575e8261559a565b9050602081019050919050565b82818337600083830152505050565b600061578d6157888461573a565b615715565b9050828152602081018484840111156157a9576157a8615735565b5b6157b484828561576b565b509392505050565b600082601f8301126157d1576157d0615347565b5b81356157e184826020860161577a565b91505092915050565b600060408284031215615800576157ff6156b0565b5b61580a6040615715565b9050600061581a84828501615445565b600083015250602061582e84828501615445565b60208301525092915050565b600067ffffffffffffffff821115615855576158546156b5565b5b602082029050919050565b600061587361586e8461583a565b615715565b9050806020840283018581111561588d5761588c615351565b5b835b818110156158b657806158a28882615445565b84526020840193505060208101905061588f565b5050509392505050565b600082601f8301126158d5576158d4615347565b5b60026158e2848285615860565b91505092915050565b600060808284031215615901576159006156b0565b5b61590b6040615715565b9050600061591b848285016158c0565b600083015250604061592f848285016158c0565b60208301525092915050565b600067ffffffffffffffff821115615956576159556156b5565b5b602082029050602081019050919050565b600061597a6159758461593b565b615715565b9050808382526020820190506040840283018581111561599d5761599c615351565b5b835b818110156159c657806159b288826157ea565b84526020840193505060408101905061599f565b5050509392505050565b600082601f8301126159e5576159e4615347565b5b81356159f5848260208601615967565b91505092915050565b60006102008284031215615a1557615a146156b0565b5b615a1f60c0615715565b9050600082013567ffffffffffffffff811115615a3f57615a3e615730565b5b615a4b848285016157bc565b6000830152506020615a5f848285016157ea565b6020830152506060615a73848285016158eb565b60408301525060e0615a87848285016158eb565b606083015250610160615a9c848285016158eb565b6080830152506101e082013567ffffffffffffffff811115615ac157615ac0615730565b5b615acd848285016159d0565b60a08301525092915050565b60006101008284031215615af057615aef6154e6565b5b81905092915050565b600067ffffffffffffffff821115615b1457615b136156b5565b5b602082029050602081019050919050565b6000615b38615b3384615af9565b615715565b90508083825260208201905060208402830185811115615b5b57615b5a615351565b5b835b81811015615b845780615b708882615445565b845260208401935050602081019050615b5d565b5050509392505050565b600082601f830112615ba357615ba2615347565b5b8135615bb3848260208601615b25565b91505092915050565b60008060006101408486031215615bd657615bd561533d565b5b600084013567ffffffffffffffff811115615bf457615bf3615342565b5b615c00868287016159fe565b9350506020615c1186828701615ad9565b92505061012084013567ffffffffffffffff811115615c3357615c32615342565b5b615c3f86828701615b8e565b9150509250925092565b60006102008284031215615c6057615c5f6154e6565b5b81905092915050565b600080600060608486031215615c8257615c8161533d565b5b6000615c9086828701615445565b9350506020615ca186828701615445565b925050604084013567ffffffffffffffff811115615cc257615cc1615342565b5b615cce86828701615c49565b9150509250925092565b615ce18161567c565b8114615cec57600080fd5b50565b600081359050615cfe81615cd8565b92915050565b60008060408385031215615d1b57615d1a61533d565b5b6000615d2985828601615cef565b9250506020615d3a85828601615cef565b9150509250929050565b600070ffffffffffffffffffffffffffffffffff82169050919050565b615d6a81615d44565b8114615d7557600080fd5b50565b600081359050615d8781615d61565b92915050565b615d96816154b0565b8114615da157600080fd5b50565b600081359050615db381615d8d565b92915050565b615dc2816152ee565b8114615dcd57600080fd5b50565b600081359050615ddf81615db9565b92915050565b600080600060608486031215615dfe57615dfd61533d565b5b6000615e0c86828701615d78565b9350506020615e1d86828701615da4565b9250506040615e2e86828701615dd0565b9150509250925092565b6000604082019050615e4d6000830185615309565b615e5a6020830184615309565b9392505050565b600060208284031215615e7757615e7661533d565b5b6000615e8584828501615da4565b91505092915050565b60008083601f840112615ea457615ea3615347565b5b8235905067ffffffffffffffff811115615ec157615ec061534c565b5b602083019150836020820283011115615edd57615edc615351565b5b9250929050565b60008060208385031215615efb57615efa61533d565b5b600083013567ffffffffffffffff811115615f1957615f18615342565b5b615f2585828601615e8e565b92509250509250929050565b600060a08284031215615f4757615f466154e6565b5b81905092915050565b600060a08284031215615f6657615f6561533d565b5b6000615f7484828501615f31565b91505092915050565b600073ffffffffffffffffffffffffffffffffffffffff82169050919050565b6000615fa882615f7d565b9050919050565b615fb881615f9d565b82525050565b6000602082019050615fd36000830184615faf565b92915050565b60038110615fe657600080fd5b50565b600081359050615ff881615fd9565b92915050565b600061600982615f7d565b9050919050565b61601981615ffe565b811461602457600080fd5b50565b60008135905061603681616010565b92915050565b600060608284031215616052576160516156b0565b5b61605c6060615715565b9050600061606c84828501615fe9565b600083015250602061608084828501616027565b602083015250604061609484828501615445565b60408301525092915050565b600060a082840312156160b6576160b56156b0565b5b6160c06060615715565b905060006160d084828501615cef565b60008301525060206160e48482850161603c565b60208301525060806160f884828501615dd0565b60408301525092915050565b600060a0828403121561611a5761611961533d565b5b6000616128848285016160a0565b91505092915050565b600080604083850312156161485761614761533d565b5b600061615685828601615445565b925050602061616785828601615445565b9150509250929050565b600082825260208201905092915050565b600061618d82615554565b6161978185616171565b93506161a7818560208601615570565b6161b08161559a565b840191505092915050565b6161c4816153fa565b82525050565b6040820160008201516161e060008501826161bb565b5060208201516161f360208501826161bb565b50505050565b600060029050919050565b600081905092915050565b6000819050919050565b600061622583836161bb565b60208301905092915050565b6000602082019050919050565b616247816161f9565b6162518184616204565b925061625c8261620f565b8060005b8381101561628d5781516162748782616219565b965061627f83616231565b925050600181019050616260565b505050505050565b6080820160008201516162ab600085018261623e565b5060208201516162be604085018261623e565b50505050565b600081519050919050565b600082825260208201905092915050565b6000819050602082019050919050565b60006162fc83836161ca565b60408301905092915050565b6000602082019050919050565b6000616320826162c4565b61632a81856162cf565b9350616335836162e0565b8060005b8381101561636657815161634d88826162f0565b975061635883616308565b925050600181019050616339565b5085935050505092915050565b60006102008301600083015184820360008601526163918282616182565b91505060208301516163a660208601826161ca565b5060408301516163b96060860182616295565b5060608301516163cc60e0860182616295565b5060808301516163e0610160860182616295565b5060a08301518482036101e08601526163f98282616315565b9150508091505092915050565b600060208201905081810360008301526164208184616373565b905092915050565b60006020828403121561643e5761643d61533d565b5b600061644c84828501616027565b91505092915050565b61645e81615ffe565b82525050565b60006020820190506164796000830184616455565b92915050565b6000606082840312156164955761649461533d565b5b60006164a38482850161603c565b91505092915050565b6164b581615f9d565b81146164c057600080fd5b50565b6000813590506164d2816164ac565b92915050565b600080600080600060a086880312156164f4576164f361533d565b5b6000616502888289016164c3565b955050602061651388828901615dd0565b945050604061652488828901615dd0565b935050606061653588828901615445565b925050608061654688828901616027565b9150509295509295909350565b60008083601f84011261656957616568615347565b5b8235905067ffffffffffffffff8111156165865761658561534c565b5b6020830191508360208202830111156165a2576165a1615351565b5b9250929050565b600080602083850312156165c0576165bf61533d565b5b600083013567ffffffffffffffff8111156165de576165dd615342565b5b6165ea85828601616553565b92509250509250929050565b60006020828403121561660c5761660b61533d565b5b600061661a848285016164c3565b91505092915050565b6000602082840312156166395761663861533d565b5b600061664784828501615cef565b91505092915050565b7f4e487b7100000000000000000000000000000000000000000000000000000000600052602160045260246000fd5b600381106166905761668f616650565b5b50565b60008190506166a18261667f565b919050565b60006166b182616693565b9050919050565b6166c1816166a6565b82525050565b60006060820190506166dc60008301866166b8565b6166e96020830185616455565b6166f66040830184615404565b949350505050565b600080604083850312156167155761671461533d565b5b600061672385828601615445565b925050602061673485828601615cef565b9150509250929050565b6000806000606084860312156167575761675661533d565b5b600061676586828701615dd0565b935050602061677686828701615dd0565b925050604061678786828701615445565b9150509250925092565b7f4e487b7100000000000000000000000000000000000000000000000000000000600052603260045260246000fd5b7f5261696c67756e536d61727457616c6c65743a20000000000000000000000000815250565b600081905092915050565b60006167fc82615554565b61680681856167e6565b9350616816818560208601615570565b80840191505092915050565b600061682d826167c0565b60148201915061683d82846167f1565b915081905092915050565b6000602082019050818103600083015261686281846155ab565b905092915050565b600067ffffffffffffffff821115616885576168846156b5565b5b602082029050919050565b60006168a361689e8461686a565b615715565b905080602084028301858111156168bd576168bc615351565b5b835b818110156168e657806168d28882615cef565b8452602084019350506020810190506168bf565b5050509392505050565b600082601f83011261690557616904615347565b5b6003616912848285616890565b91505092915050565b600060808284031215616931576169306156b0565b5b61693b6040615715565b9050600061694b848285016168f0565b600083015250606061695f84828501615cef565b60208301525092915050565b6000608082840312156169815761698061533d565b5b600061698f8482850161691b565b91505092915050565b7f4e487b7100000000000000000000000000000000000000000000000000000000600052601160045260246000fd5b60006169d2826153fa565b91506169dd836153fa565b92508282019050808211156169f5576169f4616998565b5b92915050565b600081519050919050565b600082825260208201905092915050565b6000819050602082019050919050565b616a308161567c565b82525050565b616a3f816166a6565b82525050565b616a4e81615ffe565b82525050565b606082016000820151616a6a6000850182616a36565b506020820151616a7d6020850182616a45565b506040820151616a9060408501826161bb565b50505050565b616a9f816152ee565b82525050565b60a082016000820151616abb6000850182616a27565b506020820151616ace6020850182616a54565b506040820151616ae16080850182616a96565b50505050565b6000616af38383616aa5565b60a08301905092915050565b6000602082019050919050565b6000616b17826169fb565b616b218185616a06565b9350616b2c83616a17565b8060005b83811015616b5d578151616b448882616ae7565b9750616b4f83616aff565b925050600181019050616b30565b5085935050505092915050565b600081519050919050565b600082825260208201905092915050565b6000819050602082019050919050565b600060039050919050565b600081905092915050565b6000819050919050565b6000616bc28383616a27565b60208301905092915050565b6000602082019050919050565b616be481616b96565b616bee8184616ba1565b9250616bf982616bac565b8060005b83811015616c2a578151616c118782616bb6565b9650616c1c83616bce565b925050600181019050616bfd565b505050505050565b608082016000820151616c486000850182616bdb565b506020820151616c5b6060850182616a27565b50505050565b6000616c6d8383616c32565b60808301905092915050565b6000602082019050919050565b6000616c9182616b6a565b616c9b8185616b75565b9350616ca683616b86565b8060005b83811015616cd7578151616cbe8882616c61565b9750616cc983616c79565b925050600181019050616caa565b5085935050505092915050565b600081519050919050565b600082825260208201905092915050565b6000819050602082019050919050565b6000602082019050919050565b6000616d2882616ce4565b616d328185616cef565b9350616d3d83616d00565b8060005b83811015616d6e578151616d558882616219565b9750616d6083616d10565b925050600181019050616d41565b5085935050505092915050565b600060a082019050616d906000830188615404565b616d9d6020830187615404565b8181036040830152616daf8186616b0c565b90508181036060830152616dc38185616c86565b90508181036080830152616dd78184616d1d565b90509695505050505050565b7f5261696c67756e4c6f6769633a20556e7361666520766563746f727300000000600082015250565b6000616e19601c8361555f565b9150616e2482616de3565b602082019050919050565b60006020820190508181036000830152616e4881616e0c565b9050919050565b60008160011c9050919050565b6000808291508390505b6001851115616ea657808604811115616e8257616e81616998565b5b6001851615616e915780820291505b8081029050616e9f85616e4f565b9450616e66565b94509492505050565b600082616ebf5760019050616f7b565b81616ecd5760009050616f7b565b8160018114616ee35760028114616eed57616f1c565b6001915050616f7b565b60ff841115616eff57616efe616998565b5b8360020a915084821115616f1657616f15616998565b5b50616f7b565b5060208310610133831016604e8410600b8410161715616f515782820a905083811115616f4c57616f4b616998565b5b616f7b565b616f5e8484846001616e5c565b92509050818404811115616f7557616f74616998565b5b81810290505b9392505050565b6000616f8d826153fa565b9150616f98836153fa565b9250616fc57fffffffffffffffffffffffffffffffffffffffffffffffffffffffffffffffff8484616eaf565b905092915050565b600080fd5b600080fd5b600080fd5b60008235600160e003833603038112616ff857616ff7616fcd565b5b80830191505092915050565b600068ffffffffffffffffff82169050919050565b61702281617004565b811461702d57600080fd5b50565b60008135905061703f81617019565b92915050565b60006020828403121561705b5761705a61533d565b5b600061706984828501617030565b91505092915050565b600067ffffffffffffffff82169050919050565b61708f81617072565b811461709a57600080fd5b50565b6000813590506170ac81617086565b92915050565b6000602082840312156170c8576170c761533d565b5b60006170d68482850161709d565b91505092915050565b600061ffff82169050919050565b6170f6816170df565b811461710157600080fd5b50565b600081359050617113816170ed565b92915050565b60006020828403121561712f5761712e61533d565b5b600061713d84828501617104565b91505092915050565b6003811061715357600080fd5b50565b60008135905061716581617146565b92915050565b6000602082840312156171815761718061533d565b5b600061718f84828501617156565b91505092915050565b600080833560016020038436030381126171b5576171b4616fcd565b5b80840192508235915067ffffffffffffffff8211156171d7576171d6616fd2565b5b6020830192506020820236038313156171f3576171f2616fd7565b5b509250929050565b6000617206826153fa565b9150617211836153fa565b925082820390508181111561722957617228616998565b5b92915050565b6000808335600160200384360303811261724c5761724b616fcd565b5b80840192508235915067ffffffffffffffff82111561726e5761726d616fd2565b5b60208301925060208202360383131561728a57617289616fd7565b5b509250929050565b6000602082840312156172a8576172a761533d565b5b60006172b684828501615dd0565b91505092915050565b60006172ce6020840184617104565b905092915050565b6172df816170df565b82525050565b60006172f46020840184617030565b905092915050565b61730581617004565b82525050565b600061731a6020840184617156565b905092915050565b6003811061733357617332616650565b5b50565b600081905061734482617322565b919050565b600061735482617336565b9050919050565b61736481617349565b82525050565b6000617379602084018461709d565b905092915050565b61738a81617072565b82525050565b600061739f6020840184616027565b905092915050565b60006173b66020840184615cef565b905092915050565b600080fd5b600080fd5b600080fd5b600080833560016020038436030381126173ea576173e96173c8565b5b83810192508235915060208301925067ffffffffffffffff821115617412576174116173be565b5b602082023603831315617428576174276173c3565b5b509250929050565b600082825260208201905092915050565b6000819050919050565b600082905092915050565b82818337505050565b61746b60808383617456565b5050565b6000808335600160200384360303811261748c5761748b6173c8565b5b83810192508235915060208301925067ffffffffffffffff8211156174b4576174b36173be565b5b6001820236038313156174ca576174c96173c3565b5b509250929050565b600082825260208201905092915050565b60006174ef83856174d2565b93506174fc83858461576b565b6175058361559a565b840190509392505050565b60006101008301617524600084018461744b565b617531600086018261745f565b5061753f60808401846173a7565b61754c6080860182616a27565b5061755a60a08401846173a7565b61756760a0860182616a27565b5061757560c084018461746f565b85830360c08701526175888382846174e3565b9250505061759960e084018461746f565b85830360e08701526175ac8382846174e3565b925050508091505092915050565b60006175c68383617510565b905092915050565b600082356001610100038336030381126175eb576175ea6173c8565b5b82810191505092915050565b6000602082019050919050565b60006176108385617430565b93508360208402850161762284617441565b8060005b8781101561766657848403895261763d82846175ce565b61764785826175ba565b9450617652836175f7565b925060208a01995050600181019050617626565b50829750879450505050509392505050565b600060e0830161768b60008401846172bf565b61769860008601826172d6565b506176a660208401846172e5565b6176b360208601826172fc565b506176c1604084018461730b565b6176ce604086018261735b565b506176dc606084018461736a565b6176e96060860182617381565b506176f76080840184617390565b6177046080860182616a45565b5061771260a08401846173a7565b61771f60a0860182616a27565b5061772d60c08401846173cd565b85830360c0870152617740838284617604565b925050508091505092915050565b600060208201905081810360008301526177688184617678565b905092915050565b7f4e487b7100000000000000000000000000000000000000000000000000000000600052601260045260246000fd5b60006177aa826153fa565b91506177b5836153fa565b9250826177c5576177c4617770565b5b828206905092915050565b600061010082840312156177e7576177e66156b0565b5b6177f16060615715565b90506000617801848285016157ea565b6000830152506040617815848285016158eb565b60208301525060c0617829848285016157ea565b60408301525092915050565b6000610100828403121561784c5761784b61533d565b5b600061785a848285016177d0565b91505092915050565b7f4e487b7100000000000000000000000000000000000000000000000000000000600052600060045260246000fd5b600080833560016020038436030381126178af576178ae616fcd565b5b80840192508235915067ffffffffffffffff8211156178d1576178d0616fd2565b5b6020830192506001820236038313156178ed576178ec616fd7565b5b509250929050565b600082905092915050565b7f4e487b7100000000000000000000000000000000000000000000000000000000600052602260045260246000fd5b6000600282049050600182168061794757607f821691505b60208210810361795a57617959617900565b5b50919050565b60008190508160005260206000209050919050565b60006020601f8301049050919050565b600082821b905092915050565b6000600883026179c27fffffffffffffffffffffffffffffffffffffffffffffffffffffffffffffffff82617985565b6179cc8683617985565b95508019841693508086168417925050509392505050565b6000819050919050565b6000617a09617a046179ff846153fa565b6179e4565b6153fa565b9050919050565b6000819050919050565b617a23836179ee565b617a37617a2f82617a10565b848454617992565b825550505050565b600090565b617a4c617a3f565b617a57818484617a1a565b505050565b5b81811015617a7b57617a70600082617a44565b600181019050617a5d565b5050565b601f821115617ac057617a9181617960565b617a9a84617975565b81016020851015617aa9578190505b617abd617ab585617975565b830182617a5c565b50505b505050565b600082821c905092915050565b6000617ae360001984600802617ac5565b1980831691505092915050565b6000617afc8383617ad2565b9150826002028217905092915050565b617b1683836178f5565b67ffffffffffffffff811115617b2f57617b2e6156b5565b5b617b39825461792f565b617b44828285617a7f565b6000601f831160018114617b735760008415617b61578287013590505b617b6b8582617af0565b865550617bd3565b601f198416617b8186617960565b60005b82811015617ba957848901358255600182019150602085019450602081019050617b84565b86831015617bc65784890135617bc2601f891682617ad2565b8355505b6001600288020188555050505b50505050505050565b617be7838383617b0c565b505050565b60008135617bf98161542e565b80915050919050565b60008160001b9050919050565b60007fffffffffffffffffffffffffffffffffffffffffffffffffffffffffffffffff617c3b84617c02565b9350801983169250808416831791505092915050565b617c5a826179ee565b617c6d617c6682617a10565b8354617c0f565b8255505050565b600081016000830180617c8681617bec565b9050617c928184617c51565b505050600181016020830180617ca781617bec565b9050617cb38184617c51565b5050505050565b617cc48282617c74565b5050565b600060029050919050565b6000617cde826153fa565b9150617ce9836153fa565b9250828202617cf7816153fa565b91508282048414831517617d0e57617d0d616998565b5b5092915050565b60008190506001806001038301049050919050565b6000819050919050565b5b81811015617d5357617d48600082617a44565b600181019050617d35565b5050565b81831015617d9057617d6882617d15565b617d7184617d15565b617d7a83617d2a565b818101838201617d8a8183617d34565b50505050505b505050565b68010000000000000000821115617daf57617dae6156b5565b5b617db881617cc8565b617dc3838284617d57565b505050565b600060029050919050565b6000819050919050565b617de682617dc8565b67ffffffffffffffff811115617dff57617dfe6156b5565b5b617e098183617d95565b617e1283617dd3565b617e1b83617d2a565b6001830460005b81811015617e5a576000617e3585617bec565b617e3e81617a10565b8092506020870196505050808285015550600181019050617e22565b50505050505050565b617e6d8282617ddd565b5050565b600081016000830180617e848184617e63565b505050600281016040830180617e9a8184617e63565b5050505050565b617eab8282617e71565b5050565b60008083356001602003843603038112617ecc57617ecb616fcd565b5b80840192508235915067ffffffffffffffff821115617eee57617eed616fd2565b5b602083019250604082023603831315617f0a57617f09616fd7565b5b509250929050565b6000819050919050565b600081549050919050565b6000819050617f37826002617cd3565b9050919050565b60008190508160005260206000209050919050565b617f606000808301617a44565b617f6e600060018301617a44565b50565b60008214617f8257617f81617863565b5b617f8b81617f53565b5050565b5b81811015617fae57617fa3600082617f71565b600281019050617f90565b5050565b81831015617feb57617fc382617f27565b617fcc84617f27565b617fd583617f3e565b818101838201617fe58183617f8f565b50505050505b505050565b6801000000000000000082111561800a576180096156b5565b5b61801381617f1c565b828255618021838284617fb2565b505050565b600082905092915050565b61803b8383618026565b6180458183617ff0565b61804e83617f12565b61805783617f3e565b60005b83811015618085578261806d8184617cba565b6040840193506002830192505060018101905061805a565b50505050505050565b618099838383618031565b505050565b60008101600083016180b08185617892565b6180bb818386617bdc565b505050506001810160208301806180d28184617cba565b5050506003810160608301806180e88184617ea1565b5050506007810160e08301806180fe8184617ea1565b505050600b81016101608301806181158184617ea1565b505050600f81016101e0830161812b8185617eaf565b61813681838661808e565b505050505050565b618148828261809e565b5050565b60008083356001602003843603038112618169576181686173c8565b5b83810192508235915060208301925067ffffffffffffffff821115618191576181906173be565b5b6001820236038313156181a7576181a66173c3565b5b509250929050565b60006181bb8385616171565b93506181c883858461576b565b6181d18361559a565b840190509392505050565b600082905092915050565b60006181f66020840184615445565b905092915050565b6040820161820f60008301836181e7565b61821c60008501826161bb565b5061822a60208301836181e7565b61823760208501826161bb565b50505050565b600082905092915050565b600082905092915050565b61825f60408383617456565b5050565b608082016182746000830183618248565b6182816000850182618253565b5061828f6040830183618248565b61829c6040850182618253565b50505050565b600080833560016020038436030381126182bf576182be6173c8565b5b83810192508235915060208301925067ffffffffffffffff8211156182e7576182e66173be565b5b6040820236038313156182fd576182fc6173c3565b5b509250929050565b600061831183836181fe565b60408301905092915050565b6000604082019050919050565b600061833683856162cf565b935061834182617f12565b8060005b8581101561837a5761835782846181dc565b6183618882618305565b975061836c8361831d565b925050600181019050618345565b5085925050509392505050565b6000610200830161839b600084018461814c565b85830360008701526183ae8382846181af565b925050506183bf60208401846181dc565b6183cc60208601826181fe565b506183da606084018461823d565b6183e76060860182618263565b506183f560e084018461823d565b61840260e0860182618263565b5061841161016084018461823d565b61841f610160860182618263565b5061842e6101e08401846182a2565b8583036101e087015261844283828461832a565b925050508091505092915050565b60006060820190506184656000830186615404565b6184726020830185615404565b81810360408301526184848184618387565b9050949350505050565b600060029050919050565b600081905092915050565b6000819050919050565b6184b78161567c565b82525050565b60006184c983836184ae565b60208301905092915050565b6000602082019050919050565b6184eb8161848e565b6184f58184618499565b9250618500826184a4565b8060005b8381101561853157815161851887826184bd565b9650618523836184d5565b925050600181019050618504565b505050505050565b600060408201905061854e60008301846184e2565b92915050565b60008151905061856381615cd8565b92915050565b60006020828403121561857f5761857e61533d565b5b600061858d84828501618554565b91505092915050565b60006185a182615d44565b91506185ac83615d44565b92508282026185ba81615d44565b915082820484148315176185d1576185d0616998565b5b5092915050565b60006185e382615d44565b91506185ee83615d44565b9250826185fe576185fd617770565b5b828204905092915050565b600061861482615d44565b915061861f83615d44565b9250828203905070ffffffffffffffffffffffffffffffffff81111561864857618647616998565b5b92915050565b6000618659826152ee565b9150618664836152ee565b925082820390506effffffffffffffffffffffffffffff81111561868b5761868a616998565b5b92915050565b600082356001610220038336030381126186ae576186ad616fcd565b5b80830191505092915050565b6000602082840312156186d0576186cf61533d565b5b60006186de84828501615fe9565b91505092915050565b600081905092915050565b6186fb81616b96565b61870581846186e7565b925061871082616bac565b8060005b8381101561874157815161872887826184bd565b965061873383616bce565b925050600181019050618714565b505050505050565b600060608201905061875e60008301846186f2565b92915050565b60608201600082015161877a6000850182616a36565b50602082015161878d6020850182616a45565b5060408201516187a060408501826161bb565b50505050565b60006060820190506187bb6000830184618764565b92915050565b7f496e697469616c697a61626c653a20636f6e747261637420697320616c72656160008201527f647920696e697469616c697a6564000000000000000000000000000000000000602082015250565b600061881d602e8361555f565b9150618828826187c1565b604082019050919050565b6000602082019050818103600083015261884c81618810565b9050919050565b6000819050919050565b600060ff82169050919050565b600061888561888061887b84618853565b6179e4565b61885d565b9050919050565b6188958161886a565b82525050565b60006020820190506188b0600083018461888c565b92915050565b60006188d16188cc6188c784615f7d565b6179e4565b615f7d565b9050919050565b60006188e3826188b6565b9050919050565b60006188f5826188d8565b9050919050565b618905816188ea565b82525050565b600060208201905061892060008301846188fc565b92915050565b6000618931826152ee565b915061893c836152ee565b92508261894c5761894b617770565b5b828204905092915050565b7f5261696c67756e4c6f6769633a20536869656c6420466565206578636565647360008201527f2035302500000000000000000000000000000000000000000000000000000000602082015250565b60006189b360248361555f565b91506189be82618957565b604082019050919050565b600060208201905081810360008301526189e2816189a6565b9050919050565b7f5261696c67756e4c6f6769633a20556e736869656c642046656520657863656560008201527f6473203530250000000000000000000000000000000000000000000000000000602082015250565b6000618a4560268361555f565b9150618a50826189e9565b604082019050919050565b60006020820190508181036000830152618a7481618a38565b9050919050565b6000618a96618a91618a8c846152ee565b6179e4565b6153fa565b9050919050565b618aa681618a7b565b82525050565b6000606082019050618ac16000830186618a9d565b618ace6020830185618a9d565b618adb6040830184615404565b949350505050565b600081519050919050565b600082825260208201905092915050565b6000819050602082019050919050565b6000602082019050919050565b6000618b2782618ae3565b618b318185618aee565b9350618b3c83618aff565b8060005b83811015618b6d578151618b548882616bb6565b9750618b5f83618b0f565b925050600181019050618b40565b5085935050505092915050565b600081519050919050565b600082825260208201905092915050565b6000819050602082019050919050565b600060049050919050565b600081905092915050565b6000819050919050565b6000602082019050919050565b618bdc81618ba6565b618be68184618bb1565b9250618bf182618bbc565b8060005b83811015618c22578151618c098782616bb6565b9650618c1483618bc6565b925050600181019050618bf5565b505050505050565b600081519050919050565b6000618c4082618c2a565b618c4a81856174d2565b9350618c5a818560208601615570565b618c638161559a565b840191505092915050565b600061010083016000830151618c876000860182618bd3565b506020830151618c9a6080860182616a27565b506040830151618cad60a0860182616a27565b50606083015184820360c0860152618cc58282618c35565b915050608083015184820360e0860152618cdf8282618c35565b9150508091505092915050565b6000618cf88383618c6e565b905092915050565b6000602082019050919050565b6000618d1882618b7a565b618d228185618b85565b935083602082028501618d3485618b96565b8060005b85811015618d705784840389528151618d518582618cec565b9450618d5c83618d00565b925060208a01995050600181019050618d38565b50829750879550505050505092915050565b6000608082019050618d976000830187615404565b618da46020830186615404565b8181036040830152618db68185618b1c565b90508181036060830152618dca8184618d0d565b905095945050505050565b7f56657269666965723a204b6579206e6f74207365740000000000000000000000600082015250565b6000618e0b60158361555f565b9150618e1682618dd5565b602082019050919050565b60006020820190508181036000830152618e3a81618dfe565b9050919050565b7f4f776e61626c653a206e6577206f776e657220697320746865207a65726f206160008201527f6464726573730000000000000000000000000000000000000000000000000000602082015250565b6000618e9d60268361555f565b9150618ea882618e41565b604082019050919050565b60006020820190508181036000830152618ecc81618e90565b9050919050565b600081519050618ee28161542e565b92915050565b600060208284031215618efe57618efd61533d565b5b6000618f0c84828501618ed3565b91505092915050565b7f5261696c67756e4c6f6769633a204552433230207472616e736665722066616960008201527f6c65640000000000000000000000000000000000000000000000000000000000602082015250565b6000618f7160238361555f565b9150618f7c82618f15565b604082019050919050565b60006020820190508181036000830152618fa081618f64565b9050919050565b60008135618fb481615fd9565b80915050919050565b600060ff618fca84617c02565b9350801983169250808416831791505092915050565b6000618feb82616693565b9050919050565b6000819050919050565b61900582618fe0565b61901861901182618ff2565b8354618fbd565b8255505050565b6000813561902c81616010565b80915050919050565b60008160081b9050919050565b600074ffffffffffffffffffffffffffffffffffffffff0061906384619035565b9350801983169250808416831791505092915050565b6000619084826188d8565b9050919050565b6000819050919050565b61909e82619079565b6190b16190aa8261908b565b8354619042565b8255505050565b6000810160008301806190ca81618fa7565b90506190d68184618ffc565b5050506000810160208301806190eb8161901f565b90506190f78184619095565b50505060018101604083018061910c81617bec565b90506191188184617c51565b5050505050565b61912982826190b8565b5050565b60006060820190506191426000830186616455565b61914f6020830185616455565b61915c6040830184615404565b949350505050565b60008151905061917381616010565b92915050565b60006020828403121561918f5761918e61533d565b5b600061919d84828501619164565b91505092915050565b7f5261696c67756e4c6f6769633a20455243373231206469646e2774207472616e60008201527f7366657200000000000000000000000000000000000000000000000000000000602082015250565b600061920260248361555f565b915061920d826191a6565b604082019050919050565b60006020820190508181036000830152619231816191f5565b9050919050565b7f5261696c67756e4c6f6769633a2045524331313535206e6f742079657420737560008201527f70706f7274656400000000000000000000000000000000000000000000000000602082015250565b600061929460278361555f565b915061929f82619238565b604082019050919050565b600060208201905081810360008301526192c381619287565b9050919050565b7f536e61726b3a20496e707574203e20534e41524b5f5343414c41525f4649454c60008201527f4400000000000000000000000000000000000000000000000000000000000000602082015250565b600061932660218361555f565b9150619331826192ca565b604082019050919050565b6000602082019050818103600083015261935581619319565b9050919050565b7f4f776e61626c653a2063616c6c6572206973206e6f7420746865206f776e6572600082015250565b600061939260208361555f565b915061939d8261935c565b602082019050919050565b600060208201905081810360008301526193c181619385565b9050919050565b7f496e697469616c697a61626c653a20636f6e7472616374206973206e6f74206960008201527f6e697469616c697a696e67000000000000000000000000000000000000000000602082015250565b6000619424602b8361555f565b915061942f826193c8565b604082019050919050565b6000602082019050818103600083015261945381619417565b9050919050565b7f5261696c67756e4c6f6769633a204e6f746520616c7265616479207370656e74600082015250565b600061949060208361555f565b915061949b8261945a565b602082019050919050565b600060208201905081810360008301526194bf81619483565b9050919050565b6194cf816170df565b82525050565b600080fd5b60006194e68385618aee565b93507f07ffffffffffffffffffffffffffffffffffffffffffffffffffffffffffffff831115619519576195186194d5565b5b60208302925061952a838584617456565b82840190509392505050565b600060408201905061954b60008301866194c6565b818103602083015261955e8184866194da565b9050949350505050565b6000823560016101000383360303811261958557619584616fcd565b5b80830191505092915050565b600067ffffffffffffffff8211156195ac576195ab6156b5565b5b602082029050919050565b60006195ca6195c584619591565b615715565b905080602084028301858111156195e4576195e3615351565b5b835b8181101561960d57806195f98882615cef565b8452602084019350506020810190506195e6565b5050509392505050565b600082601f83011261962c5761962b615347565b5b60046196398482856195b7565b91505092915050565b600067ffffffffffffffff82111561965d5761965c6156b5565b5b6196668261559a565b9050602081019050919050565b600061968661968184619642565b615715565b9050828152602081018484840111156196a2576196a1615735565b5b6196ad84828561576b565b509392505050565b600082601f8301126196ca576196c9615347565b5b81356196da848260208601619673565b91505092915050565b600061010082840312156196fa576196f96156b0565b5b61970460a0615715565b9050600061971484828501619617565b600083015250608061972884828501615cef565b60208301525060a061973c84828501615cef565b60408301525060c082013567ffffffffffffffff8111156197605761975f615730565b5b61976c848285016196b5565b60608301525060e082013567ffffffffffffffff8111156197905761978f615730565b5b61979c848285016196b5565b60808301525092915050565b60006197b436836196e3565b9050919050565b60006197ca6020840184615fe9565b905092915050565b606082016197e360008301836197bb565b6197f06000850182616a36565b506197fe6020830183617390565b61980b6020850182616a45565b5061981960408301836181e7565b61982660408501826161bb565b50505050565b600060c0820190506198416000830187616455565b61984e60208301866197d2565b61985b6080830185618a9d565b61986860a0830184618a9d565b95945050505050565b60006060820190506198866000830186616455565b6198936020830185615309565b6198a06040830184616455565b949350505050565b60006198c36198be6198b984618853565b6179e4565b6153fa565b9050919050565b6198d3816198a8565b82525050565b6000819050919050565b60006198fe6198f96198f4846198d9565b6179e4565b6153fa565b9050919050565b61990e816198e3565b82525050565b600060c0820190506199296000830187616455565b61993660208301866197d2565b61994360808301856198ca565b61995060a0830184619905565b95945050505050565b7f536e61726b3a205363616c6172204d756c7469706c69636174696f6e2046616960008201527f6c65640000000000000000000000000000000000000000000000000000000000602082015250565b60006199b560238361555f565b91506199c082619959565b604082019050919050565b600060208201905081810360008301526199e4816199a8565b9050919050565b7f536e61726b3a20416464204661696c6564000000000000000000000000000000600082015250565b6000619a2160118361555f565b9150619a2c826199eb565b602082019050919050565b60006020820190508181036000830152619a5081619a14565b9050919050565b7f536e61726b3a20496e76616c6964206e65676174696f6e000000000000000000600082015250565b6000619a8d60178361555f565b9150619a9882619a57565b602082019050919050565b60006020820190508181036000830152619abc81619a80565b9050919050565b7f536e61726b3a2050616972696e6720566572696669636174696f6e204661696c60008201527f6564000000000000000000000000000000000000000000000000000000000000602082015250565b6000619b1f60228361555f565b9150619b2a82619ac3565b604082019050919050565b60006020820190508181036000830152619b4e81619b12565b9050919050565b6000604082019050619b6a6000830185616455565b619b776020830184615404565b9392505050565b600081519050619b8d81615d8d565b92915050565b600060208284031215619ba957619ba861533d565b5b6000619bb784828501619b7e565b91505092915050565b7f5361666545524332303a204552433230206f7065726174696f6e20646964206e60008201527f6f74207375636365656400000000000000000000000000000000000000000000602082015250565b6000619c1c602a8361555f565b9150619c2782619bc0565b604082019050919050565b60006020820190508181036000830152619c4b81619c0f565b9050919050565b7f416464726573733a20696e73756666696369656e742062616c616e636520666f60008201527f722063616c6c0000000000000000000000000000000000000000000000000000602082015250565b6000619cae60268361555f565b9150619cb982619c52565b604082019050919050565b60006020820190508181036000830152619cdd81619ca1565b9050919050565b600081905092915050565b6000619cfa82618c2a565b619d048185619ce4565b9350619d14818560208601615570565b80840191505092915050565b6000619d2c8284619cef565b915081905092915050565b7f416464726573733a2063616c6c20746f206e6f6e2d636f6e7472616374000000600082015250565b6000619d6d601d8361555f565b9150619d7882619d37565b602082019050919050565b60006020820190508181036000830152619d9c81619d60565b905091905056fe496e76616c6964204e6f74652043697068657274657874204172726179204c656e677468a264697066735822122074edc22043f3109a3f8c8509017dcd975516896d3de3e72feac939c6d9cd0beb64736f6c63430008110033","linkReferences":{"contracts/railgun/logic/Poseidon.sol":{"PoseidonT3":[{"start":5105,"length":20}],"PoseidonT4":[{"start":6352,"length":20}]}}},"methodIdentifiers":{"ZERO_VALUE()":"ec732959","addToBlocklist(address[])":"f71a55f8","addVector(uint256)":"6cefafaa","changeFee(uint120,uint120,uint256)":"cc1f73fd","changeTreasury(address)":"b14f2a39","checkSafetyVectors()":"0804a4ee","getFee(uint136,bool,uint120)":"43c88730","getInsertionTreeNumberAndStartingIndex(uint256)":"0c9c0c8d","getTokenID((uint8,address,uint256))":"92d3c7a4","getVerificationKey(uint256,uint256)":"7b12ae83","hashBoundParams((uint16,uint72,uint8,uint64,address,bytes32,(bytes32[4],bytes32,bytes32,bytes,bytes)[]))":"28f89c3a","hashCommitment((bytes32,(uint8,address,uint256),uint120))":"71c53455","hashLeftRight(bytes32,bytes32)":"38bf282e","initializeRailgunLogic(address,uint120,uint120,uint256,address)":"a33952a9","lastEventBlock()":"cd3efe06","merkleRoot()":"2eb4a7ab","nextLeafIndex()":"0be4f422","nftFee()":"9071adc0","nullifiers(uint256,bytes32)":"f19ea903","owner()":"8da5cb5b","removeFromBlocklist(address[])":"ab63e69c","removeVector(uint256)":"dc7c9a1f","renounceOwnership()":"715018a6","rootHistory(uint256,bytes32)":"c718dbda","setTestingMode(bool)":"596d7a68","setVerificationKey(uint256,uint256,(string,(uint256,uint256),(uint256[2],uint256[2]),(uint256[2],uint256[2]),(uint256[2],uint256[2]),(uint256,uint256)[]))":"2ec0f359","shield(((bytes32,(uint8,address,uint256),uint120),(bytes32[3],bytes32))[])":"044a40c3","shieldFee()":"01c37790","snarkSafetyVector(uint256)":"129458f4","sumCommitments((((uint256,uint256),(uint256[2],uint256[2]),(uint256,uint256)),bytes32,bytes32[],bytes32[],(uint16,uint72,uint8,uint64,address,bytes32,(bytes32[4],bytes32,bytes32,bytes,bytes)[]),(bytes32,(uint8,address,uint256),uint120))[])":"59bb6199","testingMode()":"c8f35b5d","tokenBlocklist(address)":"815b534f","tokenIDMapping(bytes32)":"b8ceaef2","transact((((uint256,uint256),(uint256[2],uint256[2]),(uint256,uint256)),bytes32,bytes32[],bytes32[],(uint16,uint72,uint8,uint64,address,bytes32,(bytes32[4],bytes32,bytes32,bytes,bytes)[]),(bytes32,(uint8,address,uint256),uint120))[])":"d8ae136a","transferOwnership(address)":"f2fde38b","treasury()":"61d027b3","treeNumber()":"66503315","unshieldFee()":"053ed12a","validateCommitmentPreimage((bytes32,(uint8,address,uint256),uint120))":"617e1b17","validateTransaction((((uint256,uint256),(uint256[2],uint256[2]),(uint256,uint256)),bytes32,bytes32[],bytes32[],(uint16,uint72,uint8,uint64,address,bytes32,(bytes32[4],bytes32,bytes32,bytes,bytes)[]),(bytes32,(uint8,address,uint256),uint120)))":"17476891","verify((((uint256,uint256),(uint256[2],uint256[2]),(uint256,uint256)),bytes32,bytes32[],bytes32[],(uint16,uint72,uint8,uint64,address,bytes32,(bytes32[4],bytes32,bytes32,bytes,bytes)[]),(bytes32,(uint8,address,uint256),uint120)))":"ee990783","verifyProof((string,(uint256,uint256),(uint256[2],uint256[2]),(uint256[2],uint256[2]),(uint256[2],uint256[2]),(uint256,uint256)[]),((uint256,uint256),(uint256[2],uint256[2]),(uint256,uint256)),uint256[])":"2ebfe12a","zeros(uint256)":"e8295588"},"id":33}