{
  "_format": "hh-sol-artifact-1",
  "contractName": "ProxyAdmin",
  "sourceName": "contracts/railgun/proxy/ProxyAdmin.sol",
  "abi": [
    {
      "inputs": [
        {
          "internalType": "address",
          "name": "_admin",
          "type": "address"
        }
      ],
      "stateMutability": "nonpayable",
      "type": "constructor"
    },
    {
      "anonymous": false,
      "inputs": [
        {
          "indexed": true,
          "internalType": "address",
          "name": "previousOwner",
          "type": "address"
        },
        {
          "indexed": true,
          "internalType": "address",
          "name": "newOwner",
          "type": "address"
        }
      ],
      "name": "OwnershipTransferred",
      "type": "event"
    },
    {
      "inputs": [],
      "name": "owner",
      "outputs": [
        {
          "internalType": "address",
          "name": "",
          "type": "address"
        }
      ],
      "stateMutability": "view",
      "type": "function"
    },
    {
      "inputs": [
        {
          "internalType": "contract PausableUpgradableProxy",
          "name": "_proxy",
          "type": "address"
        }
      ],
      "name": "pause",
      "outputs": [],
      "stateMutability": "nonpayable",
      "type": "function"
    },
    {
      "inputs": [],
      "name": "renounceOwnership",
      "outputs": [],
      "stateMutability": "nonpayable",
      "type": "function"
    },
    {
      "inputs": [
        {
          "internalType": "address",
          "name": "newOwner",
          "type": "address"
        }
      ],
      "name": "transferOwnership",
      "outputs": [],
      "stateMutability": "nonpayable",
      "type": "function"
    },
    {
      "inputs": [
        {
          "internalType": "contract PausableUpgradableProxy",
          "name": "_proxy",
          "type": "address"
        },
        {
          "internalType": "address",
          "name": "_newOwner",
          "type": "address"
        }
      ],
      "name": "transferProxyOwnership",
      "outputs": [],
      "stateMutability": "nonpayable",
      "type": "function"
    },
    {
      "inputs": [
        {
          "internalType": "contract PausableUpgradableProxy",
          "name": "_proxy",
          "type": "address"
        }
      ],
      "name": "unpause",
      "outputs": [],
      "stateMutability": "nonpayable",
      "type": "function"
    },
    {
      "inputs": [
        {
          "internalType": "contract PausableUpgradableProxy",
          "name": "_proxy",
          "type": "address"
        },
        {
          "internalType": "address",
          "name": "_newImplementation",
          "type": "address"
        }
      ],
      "name": "upgrade",
      "outputs": [],
      "stateMutability": "nonpayable",
      "type": "function"
    }
  ],
  "bytecode": "0x608060405234801561001057600080fd5b506040516105e53803806105e583398101604081905261002f9161017b565b61003833610051565b61004b816100a160201b61025b1760201c565b506101ab565b600080546001600160a01b038381166001600160a01b0319831681178455604051919092169283917f8be0079c531659141344cd1fd0a4f28419497f9722a3daafe3b4186f6b6457e09190a35050565b6100a961011f565b6001600160a01b0381166101135760405162461bcd60e51b815260206004820152602660248201527f4f776e61626c653a206e6577206f776e657220697320746865207a65726f206160448201526564647265737360d01b60648201526084015b60405180910390fd5b61011c81610051565b50565b6000546001600160a01b031633146101795760405162461bcd60e51b815260206004820181905260248201527f4f776e61626c653a2063616c6c6572206973206e6f7420746865206f776e6572604482015260640161010a565b565b60006020828403121561018d57600080fd5b81516001600160a01b03811681146101a457600080fd5b9392505050565b61042b806101ba6000396000f3fe608060405234801561001057600080fd5b506004361061007c5760003560e01c806376a67a511161005b57806376a67a51146100b15780638da5cb5b146100c457806399a88ec4146100e3578063f2fde38b146100f657600080fd5b8062361d551461008157806357b001f914610096578063715018a6146100a9575b600080fd5b61009461008f366004610398565b610109565b005b6100946100a43660046103d1565b610171565b6100946101cf565b6100946100bf3660046103d1565b6101e3565b600054604080516001600160a01b039092168252519081900360200190f35b6100946100f1366004610398565b610226565b6100946101043660046103d1565b61025b565b6101116102d9565b60405163f2fde38b60e01b81526001600160a01b03828116600483015283169063f2fde38b906024015b600060405180830381600087803b15801561015557600080fd5b505af1158015610169573d6000803e3d6000fd5b505050505050565b6101796102d9565b806001600160a01b0316633f4ba83a6040518163ffffffff1660e01b8152600401600060405180830381600087803b1580156101b457600080fd5b505af11580156101c8573d6000803e3d6000fd5b5050505050565b6101d76102d9565b6101e16000610333565b565b6101eb6102d9565b806001600160a01b0316638456cb596040518163ffffffff1660e01b8152600401600060405180830381600087803b1580156101b457600080fd5b61022e6102d9565b60405162900f0160e41b81526001600160a01b038281166004830152831690630900f0109060240161013b565b6102636102d9565b6001600160a01b0381166102cd5760405162461bcd60e51b815260206004820152602660248201527f4f776e61626c653a206e6577206f776e657220697320746865207a65726f206160448201526564647265737360d01b60648201526084015b60405180910390fd5b6102d681610333565b50565b6000546001600160a01b031633146101e15760405162461bcd60e51b815260206004820181905260248201527f4f776e61626c653a2063616c6c6572206973206e6f7420746865206f776e657260448201526064016102c4565b600080546001600160a01b038381166001600160a01b0319831681178455604051919092169283917f8be0079c531659141344cd1fd0a4f28419497f9722a3daafe3b4186f6b6457e09190a35050565b6001600160a01b03811681146102d657600080fd5b600080604083850312156103ab57600080fd5b82356103b681610383565b915060208301356103c681610383565b809150509250929050565b6000602082840312156103e357600080fd5b81356103ee81610383565b939250505056fea2646970667358221220e8b451abbf644ebbe6e13d215d6c2fad501cac4d5dad552ce3e609682660f9fe64736f6c63430008110033",
  "linkReferences": {},
  "deployedLinkReferences": {}
}