{
  "_format": "hh-sol-artifact-1",
  "contractName": "TransactModule",
  "sourceName": "contracts/privacy-pool/modules/TransactModule.sol",
  "abi": [
    {
      "anonymous": false,
      "inputs": [
        {
          "indexed": true,
          "internalType": "uint32",
          "name": "destinationDomain",
          "type": "uint32"
        },
        {
          "indexed": true,
          "internalType": "address",
          "name": "recipient",
          "type": "address"
        },
        {
          "indexed": false,
          "internalType": "uint256",
          "name": "amount",
          "type": "uint256"
        },
        {
          "indexed": false,
          "internalType": "uint64",
          "name": "nonce",
          "type": "uint64"
        }
      ],
      "name": "CrossChainUnshieldInitiated",
      "type": "event"
    },
    {
      "anonymous": false,
      "inputs": [
        {
          "indexed": false,
          "internalType": "uint16",
          "name": "treeNumber",
          "type": "uint16"
        },
        {
          "indexed": false,
          "internalType": "bytes32[]",
          "name": "nullifier",
          "type": "bytes32[]"
        }
      ],
      "name": "Nullified",
      "type": "event"
    },
    {
      "anonymous": false,
      "inputs": [
        {
          "indexed": false,
          "internalType": "uint256",
          "name": "treeNumber",
          "type": "uint256"
        },
        {
          "indexed": false,
          "internalType": "uint256",
          "name": "startPosition",
          "type": "uint256"
        },
        {
          "indexed": false,
          "internalType": "bytes32[]",
          "name": "hash",
          "type": "bytes32[]"
        },
        {
          "components": [
            {
              "internalType": "bytes32[4]",
              "name": "ciphertext",
              "type": "bytes32[4]"
            },
            {
              "internalType": "bytes32",
              "name": "blindedSenderViewingKey",
              "type": "bytes32"
            },
            {
              "internalType": "bytes32",
              "name": "blindedReceiverViewingKey",
              "type": "bytes32"
            },
            {
              "internalType": "bytes",
              "name": "annotationData",
              "type": "bytes"
            },
            {
              "internalType": "bytes",
              "name": "memo",
              "type": "bytes"
            }
          ],
          "indexed": false,
          "internalType": "struct CommitmentCiphertext[]",
          "name": "ciphertext",
          "type": "tuple[]"
        }
      ],
      "name": "Transact",
      "type": "event"
    },
    {
      "anonymous": false,
      "inputs": [
        {
          "indexed": false,
          "internalType": "address",
          "name": "to",
          "type": "address"
        },
        {
          "components": [
            {
              "internalType": "enum TokenType",
              "name": "tokenType",
              "type": "uint8"
            },
            {
              "internalType": "address",
              "name": "tokenAddress",
              "type": "address"
            },
            {
              "internalType": "uint256",
              "name": "tokenSubID",
              "type": "uint256"
            }
          ],
          "indexed": false,
          "internalType": "struct TokenData",
          "name": "token",
          "type": "tuple"
        },
        {
          "indexed": false,
          "internalType": "uint256",
          "name": "amount",
          "type": "uint256"
        },
        {
          "indexed": false,
          "internalType": "uint256",
          "name": "fee",
          "type": "uint256"
        }
      ],
      "name": "Unshield",
      "type": "event"
    },
    {
      "inputs": [],
      "name": "ZERO_VALUE",
      "outputs": [
        {
          "internalType": "bytes32",
          "name": "",
          "type": "bytes32"
        }
      ],
      "stateMutability": "view",
      "type": "function"
    },
    {
      "inputs": [
        {
          "components": [
            {
              "components": [
                {
                  "components": [
                    {
                      "internalType": "uint256",
                      "name": "x",
                      "type": "uint256"
                    },
                    {
                      "internalType": "uint256",
                      "name": "y",
                      "type": "uint256"
                    }
                  ],
                  "internalType": "struct G1Point",
                  "name": "a",
                  "type": "tuple"
                },
                {
                  "components": [
                    {
                      "internalType": "uint256[2]",
                      "name": "x",
                      "type": "uint256[2]"
                    },
                    {
                      "internalType": "uint256[2]",
                      "name": "y",
                      "type": "uint256[2]"
                    }
                  ],
                  "internalType": "struct G2Point",
                  "name": "b",
                  "type": "tuple"
                },
                {
                  "components": [
                    {
                      "internalType": "uint256",
                      "name": "x",
                      "type": "uint256"
                    },
                    {
                      "internalType": "uint256",
                      "name": "y",
                      "type": "uint256"
                    }
                  ],
                  "internalType": "struct G1Point",
                  "name": "c",
                  "type": "tuple"
                }
              ],
              "internalType": "struct SnarkProof",
              "name": "proof",
              "type": "tuple"
            },
            {
              "internalType": "bytes32",
              "name": "merkleRoot",
              "type": "bytes32"
            },
            {
              "internalType": "bytes32[]",
              "name": "nullifiers",
              "type": "bytes32[]"
            },
            {
              "internalType": "bytes32[]",
              "name": "commitments",
              "type": "bytes32[]"
            },
            {
              "components": [
                {
                  "internalType": "uint16",
                  "name": "treeNumber",
                  "type": "uint16"
                },
                {
                  "internalType": "uint72",
                  "name": "minGasPrice",
                  "type": "uint72"
                },
                {
                  "internalType": "enum UnshieldType",
                  "name": "unshield",
                  "type": "uint8"
                },
                {
                  "internalType": "uint64",
                  "name": "chainID",
                  "type": "uint64"
                },
                {
                  "internalType": "address",
                  "name": "adaptContract",
                  "type": "address"
                },
                {
                  "internalType": "bytes32",
                  "name": "adaptParams",
                  "type": "bytes32"
                },
                {
                  "components": [
                    {
                      "internalType": "bytes32[4]",
                      "name": "ciphertext",
                      "type": "bytes32[4]"
                    },
                    {
                      "internalType": "bytes32",
                      "name": "blindedSenderViewingKey",
                      "type": "bytes32"
                    },
                    {
                      "internalType": "bytes32",
                      "name": "blindedReceiverViewingKey",
                      "type": "bytes32"
                    },
                    {
                      "internalType": "bytes",
                      "name": "annotationData",
                      "type": "bytes"
                    },
                    {
                      "internalType": "bytes",
                      "name": "memo",
                      "type": "bytes"
                    }
                  ],
                  "internalType": "struct CommitmentCiphertext[]",
                  "name": "commitmentCiphertext",
                  "type": "tuple[]"
                }
              ],
              "internalType": "struct BoundParams",
              "name": "boundParams",
              "type": "tuple"
            },
            {
              "components": [
                {
                  "internalType": "bytes32",
                  "name": "npk",
                  "type": "bytes32"
                },
                {
                  "components": [
                    {
                      "internalType": "enum TokenType",
                      "name": "tokenType",
                      "type": "uint8"
                    },
                    {
                      "internalType": "address",
                      "name": "tokenAddress",
                      "type": "address"
                    },
                    {
                      "internalType": "uint256",
                      "name": "tokenSubID",
                      "type": "uint256"
                    }
                  ],
                  "internalType": "struct TokenData",
                  "name": "token",
                  "type": "tuple"
                },
                {
                  "internalType": "uint120",
                  "name": "value",
                  "type": "uint120"
                }
              ],
              "internalType": "struct CommitmentPreimage",
              "name": "unshieldPreimage",
              "type": "tuple"
            }
          ],
          "internalType": "struct Transaction",
          "name": "_transaction",
          "type": "tuple"
        },
        {
          "internalType": "uint32",
          "name": "destinationDomain",
          "type": "uint32"
        },
        {
          "internalType": "address",
          "name": "finalRecipient",
          "type": "address"
        },
        {
          "internalType": "bytes32",
          "name": "destinationCaller",
          "type": "bytes32"
        }
      ],
      "name": "atomicCrossChainUnshield",
      "outputs": [
        {
          "internalType": "uint64",
          "name": "nonce",
          "type": "uint64"
        }
      ],
      "stateMutability": "nonpayable",
      "type": "function"
    },
    {
      "inputs": [],
      "name": "initialized",
      "outputs": [
        {
          "internalType": "bool",
          "name": "",
          "type": "bool"
        }
      ],
      "stateMutability": "view",
      "type": "function"
    },
    {
      "inputs": [],
      "name": "lastEventBlock",
      "outputs": [
        {
          "internalType": "uint256",
          "name": "",
          "type": "uint256"
        }
      ],
      "stateMutability": "view",
      "type": "function"
    },
    {
      "inputs": [],
      "name": "localDomain",
      "outputs": [
        {
          "internalType": "uint32",
          "name": "",
          "type": "uint32"
        }
      ],
      "stateMutability": "view",
      "type": "function"
    },
    {
      "inputs": [],
      "name": "merkleModule",
      "outputs": [
        {
          "internalType": "address",
          "name": "",
          "type": "address"
        }
      ],
      "stateMutability": "view",
      "type": "function"
    },
    {
      "inputs": [],
      "name": "merkleRoot",
      "outputs": [
        {
          "internalType": "bytes32",
          "name": "",
          "type": "bytes32"
        }
      ],
      "stateMutability": "view",
      "type": "function"
    },
    {
      "inputs": [],
      "name": "messageTransmitter",
      "outputs": [
        {
          "internalType": "address",
          "name": "",
          "type": "address"
        }
      ],
      "stateMutability": "view",
      "type": "function"
    },
    {
      "inputs": [],
      "name": "nextLeafIndex",
      "outputs": [
        {
          "internalType": "uint256",
          "name": "",
          "type": "uint256"
        }
      ],
      "stateMutability": "view",
      "type": "function"
    },
    {
      "inputs": [],
      "name": "nftFee",
      "outputs": [
        {
          "internalType": "uint120",
          "name": "",
          "type": "uint120"
        }
      ],
      "stateMutability": "view",
      "type": "function"
    },
    {
      "inputs": [
        {
          "internalType": "uint256",
          "name": "",
          "type": "uint256"
        },
        {
          "internalType": "bytes32",
          "name": "",
          "type": "bytes32"
        }
      ],
      "name": "nullifiers",
      "outputs": [
        {
          "internalType": "bool",
          "name": "",
          "type": "bool"
        }
      ],
      "stateMutability": "view",
      "type": "function"
    },
    {
      "inputs": [],
      "name": "owner",
      "outputs": [
        {
          "internalType": "address",
          "name": "",
          "type": "address"
        }
      ],
      "stateMutability": "view",
      "type": "function"
    },
    {
      "inputs": [
        {
          "internalType": "uint32",
          "name": "",
          "type": "uint32"
        }
      ],
      "name": "remotePools",
      "outputs": [
        {
          "internalType": "bytes32",
          "name": "",
          "type": "bytes32"
        }
      ],
      "stateMutability": "view",
      "type": "function"
    },
    {
      "inputs": [
        {
          "internalType": "uint256",
          "name": "",
          "type": "uint256"
        },
        {
          "internalType": "bytes32",
          "name": "",
          "type": "bytes32"
        }
      ],
      "name": "rootHistory",
      "outputs": [
        {
          "internalType": "bool",
          "name": "",
          "type": "bool"
        }
      ],
      "stateMutability": "view",
      "type": "function"
    },
    {
      "inputs": [],
      "name": "shieldFee",
      "outputs": [
        {
          "internalType": "uint120",
          "name": "",
          "type": "uint120"
        }
      ],
      "stateMutability": "view",
      "type": "function"
    },
    {
      "inputs": [],
      "name": "shieldModule",
      "outputs": [
        {
          "internalType": "address",
          "name": "",
          "type": "address"
        }
      ],
      "stateMutability": "view",
      "type": "function"
    },
    {
      "inputs": [
        {
          "internalType": "uint256",
          "name": "",
          "type": "uint256"
        }
      ],
      "name": "snarkSafetyVector",
      "outputs": [
        {
          "internalType": "bool",
          "name": "",
          "type": "bool"
        }
      ],
      "stateMutability": "view",
      "type": "function"
    },
    {
      "inputs": [],
      "name": "testingMode",
      "outputs": [
        {
          "internalType": "bool",
          "name": "",
          "type": "bool"
        }
      ],
      "stateMutability": "view",
      "type": "function"
    },
    {
      "inputs": [
        {
          "internalType": "address",
          "name": "",
          "type": "address"
        }
      ],
      "name": "tokenBlocklist",
      "outputs": [
        {
          "internalType": "bool",
          "name": "",
          "type": "bool"
        }
      ],
      "stateMutability": "view",
      "type": "function"
    },
    {
      "inputs": [
        {
          "internalType": "bytes32",
          "name": "",
          "type": "bytes32"
        }
      ],
      "name": "tokenIDMapping",
      "outputs": [
        {
          "internalType": "enum TokenType",
          "name": "tokenType",
          "type": "uint8"
        },
        {
          "internalType": "address",
          "name": "tokenAddress",
          "type": "address"
        },
        {
          "internalType": "uint256",
          "name": "tokenSubID",
          "type": "uint256"
        }
      ],
      "stateMutability": "view",
      "type": "function"
    },
    {
      "inputs": [],
      "name": "tokenMessenger",
      "outputs": [
        {
          "internalType": "address",
          "name": "",
          "type": "address"
        }
      ],
      "stateMutability": "view",
      "type": "function"
    },
    {
      "inputs": [
        {
          "components": [
            {
              "components": [
                {
                  "components": [
                    {
                      "internalType": "uint256",
                      "name": "x",
                      "type": "uint256"
                    },
                    {
                      "internalType": "uint256",
                      "name": "y",
                      "type": "uint256"
                    }
                  ],
                  "internalType": "struct G1Point",
                  "name": "a",
                  "type": "tuple"
                },
                {
                  "components": [
                    {
                      "internalType": "uint256[2]",
                      "name": "x",
                      "type": "uint256[2]"
                    },
                    {
                      "internalType": "uint256[2]",
                      "name": "y",
                      "type": "uint256[2]"
                    }
                  ],
                  "internalType": "struct G2Point",
                  "name": "b",
                  "type": "tuple"
                },
                {
                  "components": [
                    {
                      "internalType": "uint256",
                      "name": "x",
                      "type": "uint256"
                    },
                    {
                      "internalType": "uint256",
                      "name": "y",
                      "type": "uint256"
                    }
                  ],
                  "internalType": "struct G1Point",
                  "name": "c",
                  "type": "tuple"
                }
              ],
              "internalType": "struct SnarkProof",
              "name": "proof",
              "type": "tuple"
            },
            {
              "internalType": "bytes32",
              "name": "merkleRoot",
              "type": "bytes32"
            },
            {
              "internalType": "bytes32[]",
              "name": "nullifiers",
              "type": "bytes32[]"
            },
            {
              "internalType": "bytes32[]",
              "name": "commitments",
              "type": "bytes32[]"
            },
            {
              "components": [
                {
                  "internalType": "uint16",
                  "name": "treeNumber",
                  "type": "uint16"
                },
                {
                  "internalType": "uint72",
                  "name": "minGasPrice",
                  "type": "uint72"
                },
                {
                  "internalType": "enum UnshieldType",
                  "name": "unshield",
                  "type": "uint8"
                },
                {
                  "internalType": "uint64",
                  "name": "chainID",
                  "type": "uint64"
                },
                {
                  "internalType": "address",
                  "name": "adaptContract",
                  "type": "address"
                },
                {
                  "internalType": "bytes32",
                  "name": "adaptParams",
                  "type": "bytes32"
                },
                {
                  "components": [
                    {
                      "internalType": "bytes32[4]",
                      "name": "ciphertext",
                      "type": "bytes32[4]"
                    },
                    {
                      "internalType": "bytes32",
                      "name": "blindedSenderViewingKey",
                      "type": "bytes32"
                    },
                    {
                      "internalType": "bytes32",
                      "name": "blindedReceiverViewingKey",
                      "type": "bytes32"
                    },
                    {
                      "internalType": "bytes",
                      "name": "annotationData",
                      "type": "bytes"
                    },
                    {
                      "internalType": "bytes",
                      "name": "memo",
                      "type": "bytes"
                    }
                  ],
                  "internalType": "struct CommitmentCiphertext[]",
                  "name": "commitmentCiphertext",
                  "type": "tuple[]"
                }
              ],
              "internalType": "struct BoundParams",
              "name": "boundParams",
              "type": "tuple"
            },
            {
              "components": [
                {
                  "internalType": "bytes32",
                  "name": "npk",
                  "type": "bytes32"
                },
                {
                  "components": [
                    {
                      "internalType": "enum TokenType",
                      "name": "tokenType",
                      "type": "uint8"
                    },
                    {
                      "internalType": "address",
                      "name": "tokenAddress",
                      "type": "address"
                    },
                    {
                      "internalType": "uint256",
                      "name": "tokenSubID",
                      "type": "uint256"
                    }
                  ],
                  "internalType": "struct TokenData",
                  "name": "token",
                  "type": "tuple"
                },
                {
                  "internalType": "uint120",
                  "name": "value",
                  "type": "uint120"
                }
              ],
              "internalType": "struct CommitmentPreimage",
              "name": "unshieldPreimage",
              "type": "tuple"
            }
          ],
          "internalType": "struct Transaction[]",
          "name": "_transactions",
          "type": "tuple[]"
        }
      ],
      "name": "transact",
      "outputs": [],
      "stateMutability": "nonpayable",
      "type": "function"
    },
    {
      "inputs": [],
      "name": "transactModule",
      "outputs": [
        {
          "internalType": "address",
          "name": "",
          "type": "address"
        }
      ],
      "stateMutability": "view",
      "type": "function"
    },
    {
      "inputs": [],
      "name": "treasury",
      "outputs": [
        {
          "internalType": "address payable",
          "name": "",
          "type": "address"
        }
      ],
      "stateMutability": "view",
      "type": "function"
    },
    {
      "inputs": [],
      "name": "treeNumber",
      "outputs": [
        {
          "internalType": "uint256",
          "name": "",
          "type": "uint256"
        }
      ],
      "stateMutability": "view",
      "type": "function"
    },
    {
      "inputs": [],
      "name": "unshieldFee",
      "outputs": [
        {
          "internalType": "uint120",
          "name": "",
          "type": "uint120"
        }
      ],
      "stateMutability": "view",
      "type": "function"
    },
    {
      "inputs": [],
      "name": "usdc",
      "outputs": [
        {
          "internalType": "address",
          "name": "",
          "type": "address"
        }
      ],
      "stateMutability": "view",
      "type": "function"
    },
    {
      "inputs": [],
      "name": "verifierModule",
      "outputs": [
        {
          "internalType": "address",
          "name": "",
          "type": "address"
        }
      ],
      "stateMutability": "view",
      "type": "function"
    },
    {
      "inputs": [
        {
          "internalType": "uint256",
          "name": "",
          "type": "uint256"
        }
      ],
      "name": "zeros",
      "outputs": [
        {
          "internalType": "bytes32",
          "name": "",
          "type": "bytes32"
        }
      ],
      "stateMutability": "view",
      "type": "function"
    }
  ],
  "bytecode": "0x608060405234801561001057600080fd5b50612de2806100206000396000f3fe608060405234801561001057600080fd5b50600436106101cf5760003560e01c80637b04c18111610104578063b8ceaef2116100a2578063d8ae136a11610071578063d8ae136a1461048c578063e8295588146104a1578063ec732959146104b4578063f19ea903146104bc57600080fd5b8063b8ceaef2146103fe578063c718dbda14610448578063c8f35b5d14610476578063cd3efe061461048357600080fd5b80638d3638f4116100de5780638d3638f4146103995780638da5cb5b146103c55780639071adc0146103d857806390de3f6e146103eb57600080fd5b80637b04c18114610338578063815b534f1461034b57806388382c8e1461036e57600080fd5b806330ed93c31161017157806341506fc11161014b57806341506fc1146102f6578063461178301461030957806361d027b31461031c578063665033151461032f57600080fd5b806330ed93c3146102b057806335db307c146102d05780633e413bee146102e357600080fd5b80630be4f422116101ad5780630be4f42214610249578063129458f414610260578063158ef93e146102935780632eb4a7ab146102a757600080fd5b806301c37790146101d4578063048e099014610204578063053ed12a1461022f575b600080fd5b6009546101e7906001600160781b031681565b6040516001600160781b0390911681526020015b60405180910390f35b600154610217906001600160a01b031681565b6040516001600160a01b0390911681526020016101fb565b6009546101e790600160781b90046001600160781b031681565b610252600d5481565b6040519081526020016101fb565b61028361026e366004611eff565b60356020526000908152604090205460ff1681565b60405190151581526020016101fb565b60375461028390600160a01b900460ff1681565b610252600e5481565b6102526102be366004611f31565b60076020526000908152604090205481565b600054610217906001600160a01b031681565b600654610217906001600160a01b031681565b600354610217906001600160a01b031681565b600454610217906001600160a01b031681565b600854610217906001600160a01b031681565b61025260105481565b600554610217906001600160a01b031681565b610283610359366004611f6a565b600b6020526000908152604090205460ff1681565b61038161037c366004611f85565b6104ea565b6040516001600160401b0390911681526020016101fb565b6006546103b090600160a01b900463ffffffff1681565b60405163ffffffff90911681526020016101fb565b603754610217906001600160a01b031681565b600a546101e7906001600160781b031681565b600254610217906001600160a01b031681565b61043961040c366004611eff565b600c602052600090815260409020805460019091015460ff82169161010090046001600160a01b03169083565b6040516101fb93929190612019565b610283610456366004612043565b603160209081526000928352604080842090915290825290205460ff1681565b6034546102839060ff1681565b61025260365481565b61049f61049a366004612065565b610515565b005b6102526104af366004611eff565b610890565b6102526108a7565b6102836104ca366004612043565b603260209081526000928352604080842090915290825290205460ff1681565b60006104f78585856108f4565b61050085610b13565b61050c85858585610d36565b95945050505050565b806105675760405162461bcd60e51b815260206004820152601f60248201527f5472616e736163744d6f64756c653a204e6f207472616e73616374696f6e730060448201526064015b60405180910390fd5b60006105738383610f93565b90506000816001600160401b0381111561058f5761058f6120d9565b6040519080825280602002602001820160405280156105b8578160200160208202803683370190505b5090506000826001600160401b038111156105d5576105d56120d9565b60405190808252806020026020018201604052801561060e57816020015b6105fb611ead565b8152602001906001900390816105f35790505b5090506000805b858110156106d65760008061064c898985818110610635576106356120ef565b90506020028101906106479190612105565b61100a565b915091508181604051602001610662919061214a565b6040516020818303038152906040529061068f5760405162461bcd60e51b815260040161055e91906121ae565b506106bf8989858181106106a5576106a56120ef565b90506020028101906106b79190612105565b8786886114eb565b9350505080806106ce906121d7565b915050610615565b5060005b858110156107805760008787838181106106f6576106f66120ef565b90506020028101906107089190612105565b610717906101608101906121f0565b610728906060810190604001612213565b600281111561073957610739611ff0565b1461076e5761076e878783818110610753576107536120ef565b90506020028101906107659190612105565b6101800161177a565b80610778816121d7565b9150506106da565b50831561088457604051630c9c0c8d60e01b81526004810185905260009081903090630c9c0c8d906024016040805180830381865afa1580156107c7573d6000803e3d6000fd5b505050506040513d601f19601f820116820180604052508101906107eb9190612230565b915091507f56a618cda1e34057b7f849a5792f6c8587a2dbe11c83d0254e72cb3daffda7d182828787604051610824949392919061228f565b60405180910390a160405163dc52bf9f60e01b8152309063dc52bf9f9061084f90889060040161237a565b600060405180830381600087803b15801561086957600080fd5b505af115801561087d573d6000803e3d6000fd5b5050505050505b50504360365550505050565b601181601081106108a057600080fd5b0154905081565b6108f17f30644e72e131a029b85045b68181585d2833e84879b9709143e1f593f00000017f95b5e3f3c951508f13e7771152f5b7c7329a294917685c10a571c9247e3b9fff6123a3565b81565b60065463ffffffff600160a01b9091048116908316036109615760405162461bcd60e51b815260206004820152602260248201527f5472616e736163744d6f64756c653a20557365206c6f63616c20756e736869656044820152611b1960f21b606482015260840161055e565b6001600160a01b0381166109c15760405162461bcd60e51b815260206004820152602160248201527f5472616e736163744d6f64756c653a20496e76616c696420726563697069656e6044820152601d60fa1b606482015260840161055e565b60006109d16101608501856121f0565b6109e2906060810190604001612213565b60028111156109f3576109f3611ff0565b03610a4e5760405162461bcd60e51b815260206004820152602560248201527f5472616e736163744d6f64756c653a204d75737420696e636c75646520756e736044820152641a1a595b1960da1b606482015260840161055e565b63ffffffff8216600090815260076020526040902054610abc5760405162461bcd60e51b815260206004820152602360248201527f5472616e736163744d6f64756c653a20556e6b6e6f776e2064657374696e617460448201526234b7b760e91b606482015260840161055e565b600080610ac88561100a565b915091508181604051602001610ade919061214a565b60405160208183030381529060405290610b0b5760405162461bcd60e51b815260040161055e91906121ae565b505050505050565b6000610b236101608301836121f0565b610b319060c08101906123b7565b9150508015610ce6576000816001600160401b03811115610b5457610b546120d9565b604051908082528060200260200182016040528015610b7d578160200160208202803683370190505b5090506000826001600160401b03811115610b9a57610b9a6120d9565b604051908082528060200260200182016040528015610bd357816020015b610bc0611ead565b815260200190600190039081610bb85790505b509050610be384836000846114eb565b50604051630c9c0c8d60e01b81526004810184905260009081903090630c9c0c8d906024016040805180830381865afa158015610c24573d6000803e3d6000fd5b505050506040513d601f19601f82011682018060405250810190610c489190612230565b915091507f56a618cda1e34057b7f849a5792f6c8587a2dbe11c83d0254e72cb3daffda7d182828686604051610c81949392919061228f565b60405180910390a160405163dc52bf9f60e01b8152309063dc52bf9f90610cac90879060040161237a565b600060405180830381600087803b158015610cc657600080fd5b505af1158015610cda573d6000803e3d6000fd5b50505050505050505050565b60408051600080825260208201818152828401909352909181610d1f565b610d0c611ead565b815260200190600190039081610d045790505b509050610d2f84836000846114eb565b5050505050565b600080610d4b6102208701610200880161241e565b9050600080610d7a836001600160781b031660016009600f9054906101000a90046001600160781b03166118f5565b915091506000816001600160781b0316118015610da157506008546001600160a01b031615155b15610dcc57600854600654610dcc916001600160a01b0391821691166001600160781b03841661199b565b6000610dee6040518060200160405280896001600160a01b0316815250611a03565b600454600654919250610e17916001600160a01b0390811691166001600160781b038616611a6b565b600460009054906101000a90046001600160a01b03166001600160a01b031663779b432d848a600760008d63ffffffff1663ffffffff16815260200190815260200160002054600660009054906101000a90046001600160a01b03168b60006107d0896040518963ffffffff1660e01b8152600401610e9d989796959493929190612439565b6020604051808303816000875af1158015610ebc573d6000803e3d6000fd5b505050506040513d601f19601f82011682018060405250810190610ee091906124ba565b604080516001600160781b03861681526001600160401b03831660208201529196506001600160a01b0389169163ffffffff8b16917f9a8234aef148991bd0f1e08df206eb275078881051bd92a2d81a1afd0ff37f4a910160405180910390a36040517fd93cf895c7d5b2cd7dc7a098b678b3089f37d91f48d9b83a0800a91cbdf0528490610f7a9089906101a08d019087908790612512565b60405180910390a1505043603655509095945050505050565b600080805b8381101561100057848482818110610fb257610fb26120ef565b9050602002810190610fc49190612105565b610fd3906101608101906121f0565b610fe19060c08101906123b7565b610fec915083612551565b915080610ff8816121d7565b915050610f98565b5090505b92915050565b6000606061101c6101608401846121f0565b61102d90604081019060200161257d565b68ffffffffffffffffff163a101561107157505060408051808201909152601181527047617320707269636520746f6f206c6f7760781b6020820152600092909150565b60006110816101608501856121f0565b6110929060a0810190608001611f6a565b6001600160a01b0316141580156110d05750336110b36101608501856121f0565b6110c49060a0810190608001611f6a565b6001600160a01b031614155b1561110c575050604080518082019091526016815275125b9d985b1a59081059185c1d0810dbdb9d1c9858dd60521b6020820152600092909150565b4661111b6101608501856121f0565b61112c906080810190606001612598565b6001600160401b03161461116b57505060408051808201909152601081526f086d0c2d2dc928840dad2e6dac2e8c6d60831b6020820152600092909150565b6031600061117d6101608601866121f0565b61118b9060208101906125c7565b61ffff16815260208082019290925260409081016000908120610100870135825290925290205460ff166111ed575050604080518082019091526013815272125b9d985b1a590813595c9adb1948149bdbdd606a1b6020820152600092909150565b60006111fd6101608501856121f0565b61120e906060810190604001612213565b600281111561121f5761121f611ff0565b146113cf5760016112346101408501856123b7565b61123f9291506125e2565b61124d6101608501856121f0565b61125b9060c08101906123b7565b90501461129c575050604080518082019091526019815278092dcecc2d8d2c84086d2e0d0cae4e8caf0e84098cadccee8d603b1b6020820152600092909150565b600060026112ae6101608601866121f0565b6112bf906060810190604001612213565b60028111156112d0576112d0611ff0565b0361132c57604080516060810190915233815261132590602081016112fe3688900388016101a089016126ab565b81526020016113156102208801610200890161241e565b6001600160781b03169052611b80565b905061134a565b61134761134236869003860161018087016126c7565b611b80565b90505b6113586101408501856123b7565b60016113686101408801886123b7565b6113739291506125e2565b818110611382576113826120ef565b9050602002013581146113c957600060405180604001604052806015815260200174496e76616c696420556e736869656c64204e6f746560581b8152509250925050915091565b5061143c565b6113dd6101408401846123b7565b90506113ed6101608501856121f0565b6113fb9060c08101906123b7565b90501461143c575050604080518082019091526019815278092dcecc2d8d2c84086d2e0d0cae4e8caf0e84098cadccee8d603b1b6020820152600092909150565b60405163ee99078360e01b8152309063ee9907839061145f9086906004016129b6565b602060405180830381865afa15801561147c573d6000803e3d6000fd5b505050506040513d601f19601f820116820180604052508101906114a09190612aa0565b6114d257505060408051808201909152600d81526c24b73b30b634b210283937b7b360991b6020820152600092909150565b5050604080516020810190915260008152600192909150565b6000805b6114fd6101208701876123b7565b90508110156116065760006115166101208801886123b7565b83818110611526576115266120ef565b90506020020135905060008780610160019061154291906121f0565b6115509060208101906125c7565b61ffff8116600090815260326020908152604080832086845290915290205490915060ff16156115cd5760405162461bcd60e51b815260206004820152602260248201527f5472616e736163744d6f64756c653a204e6f746520616c7265616479207370656044820152611b9d60f21b606482015260840161055e565b61ffff16600090815260326020908152604080832093835292905220805460ff19166001179055806115fe816121d7565b9150506114ef565b507f781745c57906dc2f175fec80a9c691744c91c48a34a83672c41c2604774eb11f6116366101608701876121f0565b6116449060208101906125c7565b6116526101208801886123b7565b60405161166193929190612ac2565b60405180910390a160006116796101608701876121f0565b6116879060c08101906123b7565b9050905060005b81811015611763576116a46101408801886123b7565b828181106116b4576116b46120ef565b905060200201358682876116c89190612551565b815181106116d8576116d86120ef565b60209081029190910101526116f16101608801886121f0565b6116ff9060c08101906123b7565b8281811061170f5761170f6120ef565b90506020028101906117219190612ae0565b61172a90612b82565b846117358388612551565b81518110611745576117456120ef565b6020026020010181905250808061175b906121d7565b91505061168e565b5061176e8185612551565b9150505b949350505050565b600061178c6040830160208401612213565b600281111561179d5761179d611ff0565b146117f65760405162461bcd60e51b8152602060048201526024808201527f5472616e736163744d6f64756c653a204f6e6c7920455243323020737570706f6044820152631c9d195960e21b606482015260840161055e565b60006118086060830160408401611f6a565b905060008061183f61182060a086016080870161241e565b6009546001600160781b0391821691600191600160781b9004166118f5565b909250905083356118636001600160a01b038516826001600160781b03861661199b565b6000826001600160781b031611801561188657506008546001600160a01b031615155b156118ae576008546118ae906001600160a01b0386811691166001600160781b03851661199b565b7fd93cf895c7d5b2cd7dc7a098b678b3089f37d91f48d9b83a0800a91cbdf05284818660200185856040516118e69493929190612512565b60405180910390a15050505050565b600080826001600160781b031660000361191457508390506000611993565b8315611957576127106119306001600160781b03851687612c4d565b61193a9190612c7f565b6119449086612ca5565b91506119508286612ccc565b9050611993565b8491508161196784612710612ccc565b6001600160781b031661197c87612710612c4d565b6119869190612c7f565b6119909190612ca5565b90505b935093915050565b6040516001600160a01b0383166024820152604481018290526119fe90849063a9059cbb60e01b906064015b60408051601f198184030181529190526020810180516001600160e01b03166001600160e01b031990931692909217909152611c34565b505050565b60408051808201909152606090806001815260200183604051602001611a3591516001600160a01b0316815260200190565b60408051601f19818403018152918152915251611a559190602001612cec565b6040516020818303038152906040529050919050565b801580611ae55750604051636eb1769f60e11b81523060048201526001600160a01b03838116602483015284169063dd62ed3e90604401602060405180830381865afa158015611abf573d6000803e3d6000fd5b505050506040513d601f19601f82011682018060405250810190611ae39190612d23565b155b611b505760405162461bcd60e51b815260206004820152603660248201527f5361666545524332303a20617070726f76652066726f6d206e6f6e2d7a65726f60448201527520746f206e6f6e2d7a65726f20616c6c6f77616e636560501b606482015260840161055e565b6040516001600160a01b0383166024820152604481018290526119fe90849063095ea7b360e01b906064016119c7565b600073__$610c11827248d0bfa646e7ca34d40f2d3f$__635a53025d604051806060016040528085600001518152602001611bbe8660200151611d09565b815260200185604001516001600160781b031660001b8152506040518263ffffffff1660e01b8152600401611bf39190612d3c565b602060405180830381865af4158015611c10573d6000803e3d6000fd5b505050506040513d601f19601f820116820180604052508101906110049190612d23565b6000611c89826040518060400160405280602081526020017f5361666545524332303a206c6f772d6c6576656c2063616c6c206661696c6564815250856001600160a01b0316611d8a9092919063ffffffff16565b9050805160001480611caa575080806020019051810190611caa9190612aa0565b6119fe5760405162461bcd60e51b815260206004820152602a60248201527f5361666545524332303a204552433230206f7065726174696f6e20646964206e6044820152691bdd081cdd58d8d9595960b21b606482015260840161055e565b60008082516002811115611d1f57611d1f611ff0565b03611d355750602001516001600160a01b031690565b7f30644e72e131a029b85045b68181585d2833e84879b9709143e1f593f000000182604051602001611d679190612d64565b6040516020818303038152906040528051906020012060001c61100491906123a3565b6060611772848460008585600080866001600160a01b03168587604051611db19190612d9a565b60006040518083038185875af1925050503d8060008114611dee576040519150601f19603f3d011682016040523d82523d6000602084013e611df3565b606091505b5091509150611e0487838387611e0f565b979650505050505050565b60608315611e7e578251600003611e77576001600160a01b0385163b611e775760405162461bcd60e51b815260206004820152601d60248201527f416464726573733a2063616c6c20746f206e6f6e2d636f6e7472616374000000604482015260640161055e565b5081611772565b6117728383815115611e935781518083602001fd5b8060405162461bcd60e51b815260040161055e91906121ae565b6040518060a00160405280611ec0611ee1565b81526000602082018190526040820152606080820181905260809091015290565b60405180608001604052806004906020820280368337509192915050565b600060208284031215611f1157600080fd5b5035919050565b803563ffffffff81168114611f2c57600080fd5b919050565b600060208284031215611f4357600080fd5b611f4c82611f18565b9392505050565b80356001600160a01b0381168114611f2c57600080fd5b600060208284031215611f7c57600080fd5b611f4c82611f53565b60008060008060808587031215611f9b57600080fd5b84356001600160401b03811115611fb157600080fd5b85016102208188031215611fc457600080fd5b9350611fd260208601611f18565b9250611fe060408601611f53565b9396929550929360600135925050565b634e487b7160e01b600052602160045260246000fd5b6003811061201657612016611ff0565b50565b6060810161202685612006565b9381526001600160a01b0392909216602083015260409091015290565b6000806040838503121561205657600080fd5b50508035926020909101359150565b6000806020838503121561207857600080fd5b82356001600160401b038082111561208f57600080fd5b818501915085601f8301126120a357600080fd5b8135818111156120b257600080fd5b8660208260051b85010111156120c757600080fd5b60209290920196919550909350505050565b634e487b7160e01b600052604160045260246000fd5b634e487b7160e01b600052603260045260246000fd5b6000823561021e1983360301811261211c57600080fd5b9190910192915050565b60005b83811015612141578181015183820152602001612129565b50506000910152565b6f02a3930b739b0b1ba26b7b23ab6329d160851b815260008251612175816010850160208701612126565b9190910160100192915050565b6000815180845261219a816020860160208601612126565b601f01601f19169290920160200192915050565b602081526000611f4c6020830184612182565b634e487b7160e01b600052601160045260246000fd5b6000600182016121e9576121e96121c1565b5060010190565b6000823560de1983360301811261211c57600080fd5b6003811061201657600080fd5b60006020828403121561222557600080fd5b8135611f4c81612206565b6000806040838503121561224357600080fd5b505080516020909101519092909150565b600081518084526020808501945080840160005b8381101561228457815187529582019590820190600101612268565b509495945050505050565b6000608086835260208681850152604082818601526122b083860188612254565b6060868203818801528188518084528584019150858160051b850101868b016000805b8481101561236557878403601f19018652825180516101009086855b600481101561230c5782518252918e0191908e01906001016122ef565b5050508b8201518d8701528a82015160a0870152888201518160c088015261233682880182612182565b9150508c820151915085810360e08701526123518183612182565b978c019795505050918901916001016122d3565b50919f9e505050505050505050505050505050565b602081526000611f4c6020830184612254565b634e487b7160e01b600052601260045260246000fd5b6000826123b2576123b261238d565b500690565b6000808335601e198436030181126123ce57600080fd5b8301803591506001600160401b038211156123e857600080fd5b6020019150600581901b360382131561240057600080fd5b9250929050565b80356001600160781b0381168114611f2c57600080fd5b60006020828403121561243057600080fd5b611f4c82612407565b6001600160781b038916815263ffffffff8881166020830152604082018890526001600160a01b03871660608301526080820186905260a08201859052831660c082015261010060e0820181905260009061249683820185612182565b9b9a5050505050505050505050565b6001600160401b038116811461201657600080fd5b6000602082840312156124cc57600080fd5b8151611f4c816124a5565b80356124e281612206565b6124eb81612006565b82526001600160a01b0361250160208301611f53565b166020830152604090810135910152565b6001600160a01b038516815260c0810161252f60208301866124d7565b6001600160781b03808516608084015280841660a08401525095945050505050565b80820180821115611004576110046121c1565b803568ffffffffffffffffff81168114611f2c57600080fd5b60006020828403121561258f57600080fd5b611f4c82612564565b6000602082840312156125aa57600080fd5b8135611f4c816124a5565b803561ffff81168114611f2c57600080fd5b6000602082840312156125d957600080fd5b611f4c826125b5565b81810381811115611004576110046121c1565b604051606081016001600160401b0381118282101715612617576126176120d9565b60405290565b60405160a081016001600160401b0381118282101715612617576126176120d9565b604051608081016001600160401b0381118282101715612617576126176120d9565b60006060828403121561267357600080fd5b61267b6125f5565b9050813561268881612206565b815261269660208301611f53565b60208201526040820135604082015292915050565b6000606082840312156126bd57600080fd5b611f4c8383612661565b600060a082840312156126d957600080fd5b6126e16125f5565b823581526126f28460208501612661565b602082015261270360808401612407565b60408201529392505050565b6000808335601e1984360301811261272657600080fd5b83016020810192503590506001600160401b0381111561274557600080fd5b8060051b360382131561240057600080fd5b81835260006001600160fb1b0383111561277057600080fd5b8260051b80836020870137939093016020019392505050565b6000823560de1983360301811261279f57600080fd5b90910192915050565b6000808335601e198436030181126127bf57600080fd5b83016020810192503590506001600160401b038111156127de57600080fd5b80360382131561240057600080fd5b81835281816020850137506000828201602090810191909152601f909101601f19169091010190565b81835260006020808501808196508560051b81019150846000805b888110156128cb578385038a52823560fe19893603018112612851578283fd5b8801610100608080838937828101359088015260a0808301359088015260c061287c818401846127a8565b83838b015261288e848b0182846127ed565b935050505060e06128a1818401846127a8565b9350888303828a01526128b58385836127ed565b9d8a019d98505050938701935050600101612831565b509298975050505050505050565b61ffff6128e5826125b5565b16825268ffffffffffffffffff6128fe60208301612564565b1660208301526000604082013561291481612206565b61291d81612006565b60408401526060820135612930816124a5565b6001600160401b031660608401526001600160a01b0361295260808401611f53565b16608084015260a082013560a084015261296f60c083018361270f565b60e060c086015261050c60e086018284612816565b8035825261299860208301602083016124d7565b6001600160781b036129ac60808301612407565b1660808301525050565b602080825282358282015282013560408201526040808301606083013760406080830160a08301376129f860e0820160c0840180358252602090810135910152565b600061012061010084013581840152612a138185018561270f565b915061014061022081860152612a2e61024086018484612757565b9250612a3c8187018761270f565b92509050601f19610160818786030181880152612a5a858585612757565b9450612a6881890189612789565b935050610180915080868503018287015250612a8483836128d9565b9250612a966101a08601828801612984565b5090949350505050565b600060208284031215612ab257600080fd5b81518015158114611f4c57600080fd5b61ffff8416815260406020820152600061050c604083018486612757565b6000823560fe1983360301811261211c57600080fd5b600082601f830112612b0757600080fd5b81356001600160401b0380821115612b2157612b216120d9565b604051601f8301601f19908116603f01168101908282118183101715612b4957612b496120d9565b81604052838152866020858801011115612b6257600080fd5b836020870160208301376000602085830101528094505050505092915050565b60006101008236031215612b9557600080fd5b612b9d61261d565b36601f840112612bac57600080fd5b612bb461263f565b806080850136811115612bc657600080fd5b855b81811015612be0578035845260209384019301612bc8565b509083523560208301525060a0830135604082015260c08301356001600160401b0380821115612c0f57600080fd5b612c1b36838701612af6565b606084015260e0850135915080821115612c3457600080fd5b50612c4136828601612af6565b60808301525092915050565b6001600160881b03828116828216818102831692918115828504821417612c7657612c766121c1565b50505092915050565b60006001600160881b0380841680612c9957612c9961238d565b92169190910492915050565b6001600160881b03828116828216039080821115612cc557612cc56121c1565b5092915050565b6001600160781b03828116828216039080821115612cc557612cc56121c1565b602081526000825160028110612d0457612d04611ff0565b8060208401525060208301516040808401526117726060840182612182565b600060208284031215612d3557600080fd5b5051919050565b60608101818360005b6003811015612c76578151835260209283019290910190600101612d45565b81516060820190612d7481612006565b82526020838101516001600160a01b031690830152604092830151929091019190915290565b6000825161211c81846020870161212656fea26469706673582212208293b136ccca74a91d23ca515b708d192b47e745d3a09348dad5e8a5df60dd2064736f6c63430008110033",
  "linkReferences": {
    "contracts/railgun/logic/Poseidon.sol": {
      "PoseidonT4": [
        {
          "length": 20,
          "start": 7076
        }
      ]
    }
  },
  "deployedLinkReferences": {
    "contracts/railgun/logic/Poseidon.sol": {
      "PoseidonT4": [
        {
          "length": 20,
          "start": 7044
        }
      ]
    }
  }
}