{"abi":[{"type":"constructor","inputs":[{"name":"_admin","type":"address","internalType":"address"}],"stateMutability":"nonpayable"},{"type":"fallback","stateMutability":"payable"},{"type":"receive","stateMutability":"payable"},{"type":"function","name":"pause","inputs":[],"outputs":[],"stateMutability":"nonpayable"},{"type":"function","name":"transferOwnership","inputs":[{"name":"_newOwner","type":"address","internalType":"address"}],"outputs":[],"stateMutability":"nonpayable"},{"type":"function","name":"unpause","inputs":[],"outputs":[],"stateMutability":"nonpayable"},{"type":"function","name":"upgrade","inputs":[{"name":"_newImplementation","type":"address","internalType":"address"}],"outputs":[],"stateMutability":"nonpayable"},{"type":"event","name":"ProxyOwnershipTransfer","inputs":[{"name":"previousOwner","type":"address","indexed":false,"internalType":"address"},{"name":"newOwner","type":"address","indexed":false,"internalType":"address"}],"anonymous":false},{"type":"event","name":"ProxyPause","inputs":[],"anonymous":false},{"type":"event","name":"ProxyUnpause","inputs":[],"anonymous":false},{"type":"event","name":"ProxyUpgrade","inputs":[{"name":"previousImplementation","type":"address","indexed":false,"internalType":"address"},{"name":"newImplementation","type":"address","indexed":false,"internalType":"address"}],"anonymous":false}],"bytecode":{"object":"0x60806040523480156200001157600080fd5b5060405162000ebb38038062000ebb83398181016040528101906200003791906200023b565b806200008260017fb53127684a568b3173ae13b9f8a6016e243e63b6e8ee1178d6a717850b5d610460001c6200006e9190620002a6565b60001b620001bd60201b620008871760201c565b60000160006101000a81548173ffffffffffffffffffffffffffffffffffffffff021916908373ffffffffffffffffffffffffffffffffffffffff16021790555060006200010f60017f360894a13ba1a3210667c828492db98dca3e2076cc3735a920a3ca505d382bbd60001c620000fb9190620002a6565b60001b620001bd60201b620008871760201c565b60000160006101000a81548173ffffffffffffffffffffffffffffffffffffffff021916908373ffffffffffffffffffffffffffffffffffffffff16021790555060016200019c60017f8dea8703c3cf94703383ce38a9c894669dccd4ca8e65ddb43267aa024871145160001c620001889190620002a6565b60001b620001c760201b620008911760201c565b60000160006101000a81548160ff02191690831515021790555050620002e1565b6000819050919050565b6000819050919050565b600080fd5b600073ffffffffffffffffffffffffffffffffffffffff82169050919050565b60006200020382620001d6565b9050919050565b6200021581620001f6565b81146200022157600080fd5b50565b60008151905062000235816200020a565b92915050565b600060208284031215620002545762000253620001d1565b5b6000620002648482850162000224565b91505092915050565b6000819050919050565b7f4e487b7100000000000000000000000000000000000000000000000000000000600052601160045260246000fd5b6000620002b3826200026d565b9150620002c0836200026d565b9250828203905081811115620002db57620002da62000277565b5b92915050565b610bca80620002f16000396000f3fe6080604052600436106100435760003560e01c80630900f0101461005c5780633f4ba83a146100855780638456cb591461009c578063f2fde38b146100b357610052565b36610052576100506100dc565b005b61005a6100dc565b005b34801561006857600080fd5b50610083600480360381019061007e9190610921565b610239565b005b34801561009157600080fd5b5061009a610413565b005b3480156100a857600080fd5b506100b1610555565b005b3480156100bf57600080fd5b506100da60048036038101906100d59190610921565b610696565b005b61011760017f8dea8703c3cf94703383ce38a9c894669dccd4ca8e65ddb43267aa024871145160001c61010f9190610987565b60001b610891565b60000160009054906101000a900460ff1615610168576040517f08c379a000000000000000000000000000000000000000000000000000000000815260040161015f90610a18565b60405180910390fd5b60006101a560017f360894a13ba1a3210667c828492db98dca3e2076cc3735a920a3ca505d382bbd60001c61019d9190610987565b60001b610887565b60000160009054906101000a900473ffffffffffffffffffffffffffffffffffffffff1690506101d48161089b565b610213576040517f08c379a000000000000000000000000000000000000000000000000000000000815260040161020a90610aaa565b60405180910390fd5b3660008037600080366000845af43d6000803e8060008114610234573d6000f35b3d6000fd5b61027460017fb53127684a568b3173ae13b9f8a6016e243e63b6e8ee1178d6a717850b5d610460001c61026c9190610987565b60001b610887565b60000160009054906101000a900473ffffffffffffffffffffffffffffffffffffffff1673ffffffffffffffffffffffffffffffffffffffff163373ffffffffffffffffffffffffffffffffffffffff160361040757600061030760017f360894a13ba1a3210667c828492db98dca3e2076cc3735a920a3ca505d382bbd60001c6102ff9190610987565b60001b610887565b90508173ffffffffffffffffffffffffffffffffffffffff168160000160009054906101000a900473ffffffffffffffffffffffffffffffffffffffff1673ffffffffffffffffffffffffffffffffffffffff1614610401577f85aeb0b8dd2de94a068da6d2ccd785fea888eee68ec95d9a17c74446a865839d8160000160009054906101000a900473ffffffffffffffffffffffffffffffffffffffff16836040516103b5929190610ad9565b60405180910390a1818160000160006101000a81548173ffffffffffffffffffffffffffffffffffffffff021916908373ffffffffffffffffffffffffffffffffffffffff1602179055505b50610410565b61040f6100dc565b5b50565b61044e60017fb53127684a568b3173ae13b9f8a6016e243e63b6e8ee1178d6a717850b5d610460001c6104469190610987565b60001b610887565b60000160009054906101000a900473ffffffffffffffffffffffffffffffffffffffff1673ffffffffffffffffffffffffffffffffffffffff163373ffffffffffffffffffffffffffffffffffffffff160361054a5760006104e160017f8dea8703c3cf94703383ce38a9c894669dccd4ca8e65ddb43267aa024871145160001c6104d99190610987565b60001b610891565b90508060000160009054906101000a900460ff16156105445760008160000160006101000a81548160ff0219169083151502179055507f5b5349b254d5540f4586f24c7afd4c990fc8a991b611d7f2c00a020a67f2f29260405160405180910390a15b50610553565b6105526100dc565b5b565b61059060017fb53127684a568b3173ae13b9f8a6016e243e63b6e8ee1178d6a717850b5d610460001c6105889190610987565b60001b610887565b60000160009054906101000a900473ffffffffffffffffffffffffffffffffffffffff1673ffffffffffffffffffffffffffffffffffffffff163373ffffffffffffffffffffffffffffffffffffffff160361068b57600061062360017f8dea8703c3cf94703383ce38a9c894669dccd4ca8e65ddb43267aa024871145160001c61061b9190610987565b60001b610891565b90508060000160009054906101000a900460ff166106855760018160000160006101000a81548160ff0219169083151502179055507fa51641ae9e6ff3082f83f718f043efc36fa8eb06274cd78c3e7251af263ebb6f60405160405180910390a15b50610694565b6106936100dc565b5b565b6106d160017fb53127684a568b3173ae13b9f8a6016e243e63b6e8ee1178d6a717850b5d610460001c6106c99190610987565b60001b610887565b60000160009054906101000a900473ffffffffffffffffffffffffffffffffffffffff1673ffffffffffffffffffffffffffffffffffffffff163373ffffffffffffffffffffffffffffffffffffffff160361087b57600073ffffffffffffffffffffffffffffffffffffffff168173ffffffffffffffffffffffffffffffffffffffff1603610796576040517f08c379a000000000000000000000000000000000000000000000000000000000815260040161078d90610b74565b60405180910390fd5b60006107d360017fb53127684a568b3173ae13b9f8a6016e243e63b6e8ee1178d6a717850b5d610460001c6107cb9190610987565b60001b610887565b90507fab1e9974b911ffe4a29b0d786b57a5f5defde2e77960d0e9f954b053e7de32598160000160009054906101000a900473ffffffffffffffffffffffffffffffffffffffff168360405161082a929190610ad9565b60405180910390a1818160000160006101000a81548173ffffffffffffffffffffffffffffffffffffffff021916908373ffffffffffffffffffffffffffffffffffffffff16021790555050610884565b6108836100dc565b5b50565b6000819050919050565b6000819050919050565b6000808273ffffffffffffffffffffffffffffffffffffffff163b119050919050565b600080fd5b600073ffffffffffffffffffffffffffffffffffffffff82169050919050565b60006108ee826108c3565b9050919050565b6108fe816108e3565b811461090957600080fd5b50565b60008135905061091b816108f5565b92915050565b600060208284031215610937576109366108be565b5b60006109458482850161090c565b91505092915050565b6000819050919050565b7f4e487b7100000000000000000000000000000000000000000000000000000000600052601160045260246000fd5b60006109928261094e565b915061099d8361094e565b92508282039050818111156109b5576109b4610958565b5b92915050565b600082825260208201905092915050565b7f50726f78793a20436f6e74726163742069732070617573656400000000000000600082015250565b6000610a026019836109bb565b9150610a0d826109cc565b602082019050919050565b60006020820190508181036000830152610a31816109f5565b9050919050565b7f50726f78793a20496d706c656d656e746174696f6e20646f65736e277420657860008201527f6973740000000000000000000000000000000000000000000000000000000000602082015250565b6000610a946023836109bb565b9150610a9f82610a38565b604082019050919050565b60006020820190508181036000830152610ac381610a87565b9050919050565b610ad3816108e3565b82525050565b6000604082019050610aee6000830185610aca565b610afb6020830184610aca565b9392505050565b7f50726f78793a2050726576656e74696e6720706f74656e7469616c206163636960008201527f64656e74616c206275726e000000000000000000000000000000000000000000602082015250565b6000610b5e602b836109bb565b9150610b6982610b02565b604082019050919050565b60006020820190508181036000830152610b8d81610b51565b905091905056fea264697066735822122024a2362d2fc789998b3da514d29a976bb939c1d794060fe35d947fbd003b07f364736f6c63430008110033","linkReferences":{}},"methodIdentifiers":{"pause()":"8456cb59","transferOwnership(address)":"f2fde38b","unpause()":"3f4ba83a","upgrade(address)":"0900f010"},"id":37}