{"abi":[{"type":"constructor","inputs":[{"name":"_armToken","type":"address","internalType":"address"}],"stateMutability":"nonpayable"},{"type":"function","name":"armToken","inputs":[],"outputs":[{"name":"","type":"address","internalType":"contract IERC20"}],"stateMutability":"view"},{"type":"function","name":"getLockedBalance","inputs":[{"name":"account","type":"address","internalType":"address"}],"outputs":[{"name":"","type":"uint256","internalType":"uint256"}],"stateMutability":"view"},{"type":"function","name":"getPastLockedBalance","inputs":[{"name":"account","type":"address","internalType":"address"},{"name":"blockNumber","type":"uint256","internalType":"uint256"}],"outputs":[{"name":"","type":"uint256","internalType":"uint256"}],"stateMutability":"view"},{"type":"function","name":"getPastTotalLocked","inputs":[{"name":"blockNumber","type":"uint256","internalType":"uint256"}],"outputs":[{"name":"","type":"uint256","internalType":"uint256"}],"stateMutability":"view"},{"type":"function","name":"lock","inputs":[{"name":"amount","type":"uint256","internalType":"uint256"}],"outputs":[],"stateMutability":"nonpayable"},{"type":"function","name":"numCheckpoints","inputs":[{"name":"account","type":"address","internalType":"address"}],"outputs":[{"name":"","type":"uint256","internalType":"uint256"}],"stateMutability":"view"},{"type":"function","name":"totalLocked","inputs":[],"outputs":[{"name":"","type":"uint256","internalType":"uint256"}],"stateMutability":"view"},{"type":"function","name":"unlock","inputs":[{"name":"amount","type":"uint256","internalType":"uint256"}],"outputs":[],"stateMutability":"nonpayable"},{"type":"event","name":"TokensLocked","inputs":[{"name":"user","type":"address","indexed":true,"internalType":"address"},{"name":"amount","type":"uint256","indexed":false,"internalType":"uint256"},{"name":"newLockedBalance","type":"uint256","indexed":false,"internalType":"uint256"}],"anonymous":false},{"type":"event","name":"TokensUnlocked","inputs":[{"name":"user","type":"address","indexed":true,"internalType":"address"},{"name":"amount","type":"uint256","indexed":false,"internalType":"uint256"},{"name":"newLockedBalance","type":"uint256","indexed":false,"internalType":"uint256"}],"anonymous":false}],"bytecode":{"object":"0x60a06040523480156200001157600080fd5b5060405162001c1e38038062001c1e8339818101604052810190620000379190620000e4565b60016000819055508073ffffffffffffffffffffffffffffffffffffffff1660808173ffffffffffffffffffffffffffffffffffffffff16815250505062000116565b600080fd5b600073ffffffffffffffffffffffffffffffffffffffff82169050919050565b6000620000ac826200007f565b9050919050565b620000be816200009f565b8114620000ca57600080fd5b50565b600081519050620000de81620000b3565b92915050565b600060208284031215620000fd57620000fc6200007a565b5b60006200010d84828501620000cd565b91505092915050565b608051611ade62000140600039600081816102190152818161036101526105c90152611ade6000f3fe608060405234801561001057600080fd5b50600436106100885760003560e01c80636fcfff451161005b5780636fcfff4514610115578063802829d414610145578063c408689314610175578063dd467064146101a557610088565b80632146042e1461008d57806354c98d8e146100bd57806356891412146100db5780636198e339146100f9575b600080fd5b6100a760048036038101906100a29190611129565b6101c1565b6040516100b49190611165565b60405180910390f35b6100c5610217565b6040516100d291906111ff565b60405180910390f35b6100e361023b565b6040516100f09190611165565b60405180910390f35b610113600480360381019061010e9190611129565b61024a565b005b61012f600480360381019061012a9190611258565b610402565b60405161013c9190611165565b60405180910390f35b61015f600480360381019061015a9190611285565b61044e565b60405161016c9190611165565b60405180910390f35b61018f600480360381019061018a9190611258565b6104e2565b60405161019c9190611165565b60405180910390f35b6101bf60048036038101906101ba9190611129565b6104f4565b005b6000438210610205576040517f08c379a00000000000000000000000000000000000000000000000000000000081526004016101fc90611348565b60405180910390fd5b61021060028361066b565b9050919050565b7f000000000000000000000000000000000000000000000000000000000000000081565b60006102456108a5565b905090565b61025261093a565b60008111610295576040517f08c379a000000000000000000000000000000000000000000000000000000000815260040161028c906113b4565b60405180910390fd5b60006102a033610989565b9050818110156102e5576040517f08c379a00000000000000000000000000000000000000000000000000000000081526004016102dc90611446565b60405180910390fd5b600082826102f39190611495565b905061033d600160003373ffffffffffffffffffffffffffffffffffffffff1673ffffffffffffffffffffffffffffffffffffffff16815260200190815260200160002082610a9a565b61035a60028461034b6108a5565b6103559190611495565b610a9a565b6103a533847f000000000000000000000000000000000000000000000000000000000000000073ffffffffffffffffffffffffffffffffffffffff16610c829092919063ffffffff16565b3373ffffffffffffffffffffffffffffffffffffffff167f89882ad382a3742d4db24e4dabc5000c5852aed762904db28442e4e1630a1d0784836040516103ed9291906114c9565b60405180910390a250506103ff610d08565b50565b6000600160008373ffffffffffffffffffffffffffffffffffffffff1673ffffffffffffffffffffffffffffffffffffffff168152602001908152602001600020805490509050919050565b6000438210610492576040517f08c379a000000000000000000000000000000000000000000000000000000000815260040161048990611348565b60405180910390fd5b6104da600160008573ffffffffffffffffffffffffffffffffffffffff1673ffffffffffffffffffffffffffffffffffffffff1681526020019081526020016000208361066b565b905092915050565b60006104ed82610989565b9050919050565b6104fc61093a565b6000811161053f576040517f08c379a0000000000000000000000000000000000000000000000000000000008152600401610536906113b4565b60405180910390fd5b600061054a33610989565b90506000828261055a91906114f2565b90506105a4600160003373ffffffffffffffffffffffffffffffffffffffff1673ffffffffffffffffffffffffffffffffffffffff16815260200190815260200160002082610a9a565b6105c16002846105b26108a5565b6105bc91906114f2565b610a9a565b61060e3330857f000000000000000000000000000000000000000000000000000000000000000073ffffffffffffffffffffffffffffffffffffffff16610d12909392919063ffffffff16565b3373ffffffffffffffffffffffffffffffffffffffff167fd741e738a23fd18a03a26522320d9fc6cac1fed483e215ea9150fbc2fc43385d84836040516106569291906114c9565b60405180910390a25050610668610d08565b50565b600080838054905090506000810361068757600091505061089f565b82846001836106969190611495565b815481106106a7576106a6611526565b5b9060005260206000200160000160009054906101000a900463ffffffff1663ffffffff161161074b57836001826106de9190611495565b815481106106ef576106ee611526565b5b9060005260206000200160000160049054906101000a90047bffffffffffffffffffffffffffffffffffffffffffffffffffffffff167bffffffffffffffffffffffffffffffffffffffffffffffffffffffff1691505061089f565b82846000815481106107605761075f611526565b5b9060005260206000200160000160009054906101000a900463ffffffff1663ffffffff16111561079457600091505061089f565b6000806001836107a49190611495565b90505b808210156108325760006002600183856107c191906114f2565b6107cb91906114f2565b6107d59190611584565b9050858782815481106107eb576107ea611526565b5b9060005260206000200160000160009054906101000a900463ffffffff1663ffffffff161161081c5780925061082c565b6001816108299190611495565b91505b506107a7565b85828154811061084557610844611526565b5b9060005260206000200160000160049054906101000a90047bffffffffffffffffffffffffffffffffffffffffffffffffffffffff167bffffffffffffffffffffffffffffffffffffffffffffffffffffffff1693505050505b92915050565b6000806002805490509050600081146109135760026001826108c79190611495565b815481106108d8576108d7611526565b5b9060005260206000200160000160049054906101000a90047bffffffffffffffffffffffffffffffffffffffffffffffffffffffff16610916565b60005b7bffffffffffffffffffffffffffffffffffffffffffffffffffffffff1691505090565b60026000540361097f576040517f08c379a000000000000000000000000000000000000000000000000000000000815260040161097690611601565b60405180910390fd5b6002600081905550565b600080600160008473ffffffffffffffffffffffffffffffffffffffff1673ffffffffffffffffffffffffffffffffffffffff16815260200190815260200160002080549050905060008114610a7157600160008473ffffffffffffffffffffffffffffffffffffffff1673ffffffffffffffffffffffffffffffffffffffff168152602001908152602001600020600182610a259190611495565b81548110610a3657610a35611526565b5b9060005260206000200160000160049054906101000a90047bffffffffffffffffffffffffffffffffffffffffffffffffffffffff16610a74565b60005b7bffffffffffffffffffffffffffffffffffffffffffffffffffffffff16915050919050565b6000828054905090506000610aae43610d9b565b9050600082118015610b0757508063ffffffff1684600184610ad09190611495565b81548110610ae157610ae0611526565b5b9060005260206000200160000160009054906101000a900463ffffffff1663ffffffff16145b15610b9457610b1583610dee565b84600184610b239190611495565b81548110610b3457610b33611526565b5b9060005260206000200160000160046101000a8154817bffffffffffffffffffffffffffffffffffffffffffffffffffffffff02191690837bffffffffffffffffffffffffffffffffffffffffffffffffffffffff160217905550610c7c565b8360405180604001604052808363ffffffff168152602001610bb586610dee565b7bffffffffffffffffffffffffffffffffffffffffffffffffffffffff168152509080600181540180825580915050600190039060005260206000200160009091909190915060008201518160000160006101000a81548163ffffffff021916908363ffffffff16021790555060208201518160000160046101000a8154817bffffffffffffffffffffffffffffffffffffffffffffffffffffffff02191690837bffffffffffffffffffffffffffffffffffffffffffffffffffffffff16021790555050505b50505050565b610d038363a9059cbb60e01b8484604051602401610ca1929190611630565b604051602081830303815290604052907bffffffffffffffffffffffffffffffffffffffffffffffffffffffff19166020820180517bffffffffffffffffffffffffffffffffffffffffffffffffffffffff8381831617835250505050610e59565b505050565b6001600081905550565b610d95846323b872dd60e01b858585604051602401610d3393929190611659565b604051602081830303815290604052907bffffffffffffffffffffffffffffffffffffffffffffffffffffffff19166020820180517bffffffffffffffffffffffffffffffffffffffffffffffffffffffff8381831617835250505050610e59565b50505050565b600063ffffffff8016821115610de6576040517f08c379a0000000000000000000000000000000000000000000000000000000008152600401610ddd90611702565b60405180910390fd5b819050919050565b60007bffffffffffffffffffffffffffffffffffffffffffffffffffffffff8016821115610e51576040517f08c379a0000000000000000000000000000000000000000000000000000000008152600401610e4890611794565b60405180910390fd5b819050919050565b6000610ebb826040518060400160405280602081526020017f5361666545524332303a206c6f772d6c6576656c2063616c6c206661696c65648152508573ffffffffffffffffffffffffffffffffffffffff16610f219092919063ffffffff16565b9050600081511480610edd575080806020019051810190610edc91906117ec565b5b610f1c576040517f08c379a0000000000000000000000000000000000000000000000000000000008152600401610f139061188b565b60405180910390fd5b505050565b6060610f308484600085610f39565b90509392505050565b606082471015610f7e576040517f08c379a0000000000000000000000000000000000000000000000000000000008152600401610f759061191d565b60405180910390fd5b6000808673ffffffffffffffffffffffffffffffffffffffff168587604051610fa791906119ae565b60006040518083038185875af1925050503d8060008114610fe4576040519150601f19603f3d011682016040523d82523d6000602084013e610fe9565b606091505b5091509150610ffa87838387611006565b92505050949350505050565b60608315611068576000835103611060576110208561107b565b61105f576040517f08c379a000000000000000000000000000000000000000000000000000000000815260040161105690611a11565b60405180910390fd5b5b829050611073565b611072838361109e565b5b949350505050565b6000808273ffffffffffffffffffffffffffffffffffffffff163b119050919050565b6000825111156110b15781518083602001fd5b806040517f08c379a00000000000000000000000000000000000000000000000000000000081526004016110e59190611a86565b60405180910390fd5b600080fd5b6000819050919050565b611106816110f3565b811461111157600080fd5b50565b600081359050611123816110fd565b92915050565b60006020828403121561113f5761113e6110ee565b5b600061114d84828501611114565b91505092915050565b61115f816110f3565b82525050565b600060208201905061117a6000830184611156565b92915050565b600073ffffffffffffffffffffffffffffffffffffffff82169050919050565b6000819050919050565b60006111c56111c06111bb84611180565b6111a0565b611180565b9050919050565b60006111d7826111aa565b9050919050565b60006111e9826111cc565b9050919050565b6111f9816111de565b82525050565b600060208201905061121460008301846111f0565b92915050565b600061122582611180565b9050919050565b6112358161121a565b811461124057600080fd5b50565b6000813590506112528161122c565b92915050565b60006020828403121561126e5761126d6110ee565b5b600061127c84828501611243565b91505092915050565b6000806040838503121561129c5761129b6110ee565b5b60006112aa85828601611243565b92505060206112bb85828601611114565b9150509250929050565b600082825260208201905092915050565b7f566f74696e674c6f636b65723a20626c6f636b206e6f7420796574206d696e6560008201527f6400000000000000000000000000000000000000000000000000000000000000602082015250565b60006113326021836112c5565b915061133d826112d6565b604082019050919050565b6000602082019050818103600083015261136181611325565b9050919050565b7f566f74696e674c6f636b65723a207a65726f20616d6f756e7400000000000000600082015250565b600061139e6019836112c5565b91506113a982611368565b602082019050919050565b600060208201905081810360008301526113cd81611391565b9050919050565b7f566f74696e674c6f636b65723a20696e73756666696369656e74206c6f636b6560008201527f6400000000000000000000000000000000000000000000000000000000000000602082015250565b60006114306021836112c5565b915061143b826113d4565b604082019050919050565b6000602082019050818103600083015261145f81611423565b9050919050565b7f4e487b7100000000000000000000000000000000000000000000000000000000600052601160045260246000fd5b60006114a0826110f3565b91506114ab836110f3565b92508282039050818111156114c3576114c2611466565b5b92915050565b60006040820190506114de6000830185611156565b6114eb6020830184611156565b9392505050565b60006114fd826110f3565b9150611508836110f3565b92508282019050808211156115205761151f611466565b5b92915050565b7f4e487b7100000000000000000000000000000000000000000000000000000000600052603260045260246000fd5b7f4e487b7100000000000000000000000000000000000000000000000000000000600052601260045260246000fd5b600061158f826110f3565b915061159a836110f3565b9250826115aa576115a9611555565b5b828204905092915050565b7f5265656e7472616e637947756172643a207265656e7472616e742063616c6c00600082015250565b60006115eb601f836112c5565b91506115f6826115b5565b602082019050919050565b6000602082019050818103600083015261161a816115de565b9050919050565b61162a8161121a565b82525050565b60006040820190506116456000830185611621565b6116526020830184611156565b9392505050565b600060608201905061166e6000830186611621565b61167b6020830185611621565b6116886040830184611156565b949350505050565b7f53616665436173743a2076616c756520646f65736e27742066697420696e203360008201527f3220626974730000000000000000000000000000000000000000000000000000602082015250565b60006116ec6026836112c5565b91506116f782611690565b604082019050919050565b6000602082019050818103600083015261171b816116df565b9050919050565b7f53616665436173743a2076616c756520646f65736e27742066697420696e203260008201527f3234206269747300000000000000000000000000000000000000000000000000602082015250565b600061177e6027836112c5565b915061178982611722565b604082019050919050565b600060208201905081810360008301526117ad81611771565b9050919050565b60008115159050919050565b6117c9816117b4565b81146117d457600080fd5b50565b6000815190506117e6816117c0565b92915050565b600060208284031215611802576118016110ee565b5b6000611810848285016117d7565b91505092915050565b7f5361666545524332303a204552433230206f7065726174696f6e20646964206e60008201527f6f74207375636365656400000000000000000000000000000000000000000000602082015250565b6000611875602a836112c5565b915061188082611819565b604082019050919050565b600060208201905081810360008301526118a481611868565b9050919050565b7f416464726573733a20696e73756666696369656e742062616c616e636520666f60008201527f722063616c6c0000000000000000000000000000000000000000000000000000602082015250565b60006119076026836112c5565b9150611912826118ab565b604082019050919050565b60006020820190508181036000830152611936816118fa565b9050919050565b600081519050919050565b600081905092915050565b60005b83811015611971578082015181840152602081019050611956565b60008484015250505050565b60006119888261193d565b6119928185611948565b93506119a2818560208601611953565b80840191505092915050565b60006119ba828461197d565b915081905092915050565b7f416464726573733a2063616c6c20746f206e6f6e2d636f6e7472616374000000600082015250565b60006119fb601d836112c5565b9150611a06826119c5565b602082019050919050565b60006020820190508181036000830152611a2a816119ee565b9050919050565b600081519050919050565b6000601f19601f8301169050919050565b6000611a5882611a31565b611a6281856112c5565b9350611a72818560208601611953565b611a7b81611a3c565b840191505092915050565b60006020820190508181036000830152611aa08184611a4d565b90509291505056fea26469706673582212201977eda5ccfbbba7fda76d89d5bff8e9a0b1575f1c8e47d036eb3ec243af2b2664736f6c63430008110033","linkReferences":{}},"methodIdentifiers":{"armToken()":"54c98d8e","getLockedBalance(address)":"c4086893","getPastLockedBalance(address,uint256)":"802829d4","getPastTotalLocked(uint256)":"2146042e","lock(uint256)":"dd467064","numCheckpoints(address)":"6fcfff45","totalLocked()":"56891412","unlock(uint256)":"6198e339"},"id":12}