{
  "_format": "hh-sol-artifact-1",
  "contractName": "Treasury",
  "sourceName": "contracts/railgun/treasury/Treasury.sol",
  "abi": [
    {
      "anonymous": false,
      "inputs": [
        {
          "indexed": false,
          "internalType": "uint8",
          "name": "version",
          "type": "uint8"
        }
      ],
      "name": "Initialized",
      "type": "event"
    },
    {
      "anonymous": false,
      "inputs": [
        {
          "indexed": true,
          "internalType": "bytes32",
          "name": "role",
          "type": "bytes32"
        },
        {
          "indexed": true,
          "internalType": "bytes32",
          "name": "previousAdminRole",
          "type": "bytes32"
        },
        {
          "indexed": true,
          "internalType": "bytes32",
          "name": "newAdminRole",
          "type": "bytes32"
        }
      ],
      "name": "RoleAdminChanged",
      "type": "event"
    },
    {
      "anonymous": false,
      "inputs": [
        {
          "indexed": true,
          "internalType": "bytes32",
          "name": "role",
          "type": "bytes32"
        },
        {
          "indexed": true,
          "internalType": "address",
          "name": "account",
          "type": "address"
        },
        {
          "indexed": true,
          "internalType": "address",
          "name": "sender",
          "type": "address"
        }
      ],
      "name": "RoleGranted",
      "type": "event"
    },
    {
      "anonymous": false,
      "inputs": [
        {
          "indexed": true,
          "internalType": "bytes32",
          "name": "role",
          "type": "bytes32"
        },
        {
          "indexed": true,
          "internalType": "address",
          "name": "account",
          "type": "address"
        },
        {
          "indexed": true,
          "internalType": "address",
          "name": "sender",
          "type": "address"
        }
      ],
      "name": "RoleRevoked",
      "type": "event"
    },
    {
      "inputs": [],
      "name": "DEFAULT_ADMIN_ROLE",
      "outputs": [
        {
          "internalType": "bytes32",
          "name": "",
          "type": "bytes32"
        }
      ],
      "stateMutability": "view",
      "type": "function"
    },
    {
      "inputs": [],
      "name": "TRANSFER_ROLE",
      "outputs": [
        {
          "internalType": "bytes32",
          "name": "",
          "type": "bytes32"
        }
      ],
      "stateMutability": "view",
      "type": "function"
    },
    {
      "inputs": [
        {
          "internalType": "bytes32",
          "name": "role",
          "type": "bytes32"
        }
      ],
      "name": "getRoleAdmin",
      "outputs": [
        {
          "internalType": "bytes32",
          "name": "",
          "type": "bytes32"
        }
      ],
      "stateMutability": "view",
      "type": "function"
    },
    {
      "inputs": [
        {
          "internalType": "bytes32",
          "name": "role",
          "type": "bytes32"
        },
        {
          "internalType": "address",
          "name": "account",
          "type": "address"
        }
      ],
      "name": "grantRole",
      "outputs": [],
      "stateMutability": "nonpayable",
      "type": "function"
    },
    {
      "inputs": [
        {
          "internalType": "bytes32",
          "name": "role",
          "type": "bytes32"
        },
        {
          "internalType": "address",
          "name": "account",
          "type": "address"
        }
      ],
      "name": "hasRole",
      "outputs": [
        {
          "internalType": "bool",
          "name": "",
          "type": "bool"
        }
      ],
      "stateMutability": "view",
      "type": "function"
    },
    {
      "inputs": [
        {
          "internalType": "address",
          "name": "_admin",
          "type": "address"
        }
      ],
      "name": "initializeTreasury",
      "outputs": [],
      "stateMutability": "nonpayable",
      "type": "function"
    },
    {
      "inputs": [
        {
          "internalType": "bytes32",
          "name": "role",
          "type": "bytes32"
        },
        {
          "internalType": "address",
          "name": "account",
          "type": "address"
        }
      ],
      "name": "renounceRole",
      "outputs": [],
      "stateMutability": "nonpayable",
      "type": "function"
    },
    {
      "inputs": [
        {
          "internalType": "bytes32",
          "name": "role",
          "type": "bytes32"
        },
        {
          "internalType": "address",
          "name": "account",
          "type": "address"
        }
      ],
      "name": "revokeRole",
      "outputs": [],
      "stateMutability": "nonpayable",
      "type": "function"
    },
    {
      "inputs": [
        {
          "internalType": "bytes4",
          "name": "interfaceId",
          "type": "bytes4"
        }
      ],
      "name": "supportsInterface",
      "outputs": [
        {
          "internalType": "bool",
          "name": "",
          "type": "bool"
        }
      ],
      "stateMutability": "view",
      "type": "function"
    },
    {
      "inputs": [
        {
          "internalType": "contract IERC20",
          "name": "_token",
          "type": "address"
        },
        {
          "internalType": "address",
          "name": "_to",
          "type": "address"
        },
        {
          "internalType": "uint256",
          "name": "_amount",
          "type": "uint256"
        }
      ],
      "name": "transferERC20",
      "outputs": [],
      "stateMutability": "nonpayable",
      "type": "function"
    },
    {
      "inputs": [
        {
          "internalType": "address payable",
          "name": "_to",
          "type": "address"
        },
        {
          "internalType": "uint256",
          "name": "_amount",
          "type": "uint256"
        }
      ],
      "name": "transferETH",
      "outputs": [],
      "stateMutability": "nonpayable",
      "type": "function"
    },
    {
      "stateMutability": "payable",
      "type": "receive"
    }
  ],
  "bytecode": "0x608060405234801561001057600080fd5b50610f35806100206000396000f3fe6080604052600436106100a05760003560e01c80633ed086f4116100645780633ed086f4146101835780637b1a4909146101a357806391d14854146101c35780639db5dbe4146101e3578063a217fddf14610203578063d547741f1461021857600080fd5b806301ffc9a7146100ac578063206b60f9146100e1578063248a9ca3146101115780632f2ff15d1461014157806336568abe1461016357600080fd5b366100a757005b600080fd5b3480156100b857600080fd5b506100cc6100c7366004610bfc565b610238565b60405190151581526020015b60405180910390f35b3480156100ed57600080fd5b50610103600080516020610ee083398151915281565b6040519081526020016100d8565b34801561011d57600080fd5b5061010361012c366004610c26565b60009081526065602052604090206001015490565b34801561014d57600080fd5b5061016161015c366004610c54565b61026f565b005b34801561016f57600080fd5b5061016161017e366004610c54565b610299565b34801561018f57600080fd5b5061016161019e366004610c84565b61031c565b3480156101af57600080fd5b506101616101be366004610ca1565b610450565b3480156101cf57600080fd5b506100cc6101de366004610c54565b61052e565b3480156101ef57600080fd5b506101616101fe366004610ccd565b610559565b34801561020f57600080fd5b50610103600081565b34801561022457600080fd5b50610161610233366004610c54565b6105ab565b60006001600160e01b03198216637965db0b60e01b148061026957506301ffc9a760e01b6001600160e01b03198316145b92915050565b60008281526065602052604090206001015461028a816105d0565b61029483836105dd565b505050565b6001600160a01b038116331461030e5760405162461bcd60e51b815260206004820152602f60248201527f416363657373436f6e74726f6c3a2063616e206f6e6c792072656e6f756e636560448201526e103937b632b9903337b91039b2b63360891b60648201526084015b60405180910390fd5b6103188282610663565b5050565b600054610100900460ff161580801561033c5750600054600160ff909116105b806103565750303b158015610356575060005460ff166001145b6103b95760405162461bcd60e51b815260206004820152602e60248201527f496e697469616c697a61626c653a20636f6e747261637420697320616c72656160448201526d191e481a5b9a5d1a585b1a5e995960921b6064820152608401610305565b6000805460ff1916600117905580156103dc576000805461ff0019166101001790555b6103e46106ca565b6103ef6000836105dd565b610407600080516020610ee0833981519152836105dd565b8015610318576000805461ff0019169055604051600181527f7f26b83ff96e1f2b6a682f133852f6798a09c465da95921460cefb38474024989060200160405180910390a15050565b600080516020610ee0833981519152610468816105d0565b6001600160a01b03831661048e5760405162461bcd60e51b815260040161030590610d0e565b6000836001600160a01b03168360405160006040518083038185875af1925050503d80600081146104db576040519150601f19603f3d011682016040523d82523d6000602084013e6104e0565b606091505b50509050806105285760405162461bcd60e51b81526020600482015260146024820152732330b4b632b2103a379039b2b7321022ba3432b960611b6044820152606401610305565b50505050565b60009182526065602090815260408084206001600160a01b0393909316845291905290205460ff1690565b600080516020610ee0833981519152610571816105d0565b6001600160a01b0383166105975760405162461bcd60e51b815260040161030590610d0e565b6105286001600160a01b0385168484610737565b6000828152606560205260409020600101546105c6816105d0565b6102948383610663565b6105da8133610789565b50565b6105e7828261052e565b6103185760008281526065602090815260408083206001600160a01b03851684529091529020805460ff1916600117905561061f3390565b6001600160a01b0316816001600160a01b0316837f2f8788117e7eff1d82e926ec794901d17c78024a50270940304540a733656f0d60405160405180910390a45050565b61066d828261052e565b156103185760008281526065602090815260408083206001600160a01b0385168085529252808320805460ff1916905551339285917ff6391f5c32d9c69d2a47ea670b442974b53935d1edc7fd64eb21e047a839171b9190a45050565b600054610100900460ff166107355760405162461bcd60e51b815260206004820152602b60248201527f496e697469616c697a61626c653a20636f6e7472616374206973206e6f74206960448201526a6e697469616c697a696e6760a81b6064820152608401610305565b565b604080516001600160a01b038416602482015260448082018490528251808303909101815260649091019091526020810180516001600160e01b031663a9059cbb60e01b1790526102949084906107e2565b610793828261052e565b610318576107a0816108b7565b6107ab8360206108c9565b6040516020016107bc929190610d76565b60408051601f198184030181529082905262461bcd60e51b825261030591600401610deb565b6000610837826040518060400160405280602081526020017f5361666545524332303a206c6f772d6c6576656c2063616c6c206661696c6564815250856001600160a01b0316610a6c9092919063ffffffff16565b90508051600014806108585750808060200190518101906108589190610e1e565b6102945760405162461bcd60e51b815260206004820152602a60248201527f5361666545524332303a204552433230206f7065726174696f6e20646964206e6044820152691bdd081cdd58d8d9595960b21b6064820152608401610305565b60606102696001600160a01b03831660145b606060006108d8836002610e56565b6108e3906002610e6d565b67ffffffffffffffff8111156108fb576108fb610e80565b6040519080825280601f01601f191660200182016040528015610925576020820181803683370190505b509050600360fc1b8160008151811061094057610940610e96565b60200101906001600160f81b031916908160001a905350600f60fb1b8160018151811061096f5761096f610e96565b60200101906001600160f81b031916908160001a9053506000610993846002610e56565b61099e906001610e6d565b90505b6001811115610a16576f181899199a1a9b1b9c1cb0b131b232b360811b85600f16601081106109d2576109d2610e96565b1a60f81b8282815181106109e8576109e8610e96565b60200101906001600160f81b031916908160001a90535060049490941c93610a0f81610eac565b90506109a1565b508315610a655760405162461bcd60e51b815260206004820181905260248201527f537472696e67733a20686578206c656e67746820696e73756666696369656e746044820152606401610305565b9392505050565b6060610a7b8484600085610a83565b949350505050565b606082471015610ae45760405162461bcd60e51b815260206004820152602660248201527f416464726573733a20696e73756666696369656e742062616c616e636520666f6044820152651c8818d85b1b60d21b6064820152608401610305565b600080866001600160a01b03168587604051610b009190610ec3565b60006040518083038185875af1925050503d8060008114610b3d576040519150601f19603f3d011682016040523d82523d6000602084013e610b42565b606091505b5091509150610b5387838387610b5e565b979650505050505050565b60608315610bcd578251600003610bc6576001600160a01b0385163b610bc65760405162461bcd60e51b815260206004820152601d60248201527f416464726573733a2063616c6c20746f206e6f6e2d636f6e74726163740000006044820152606401610305565b5081610a7b565b610a7b8383815115610be25781518083602001fd5b8060405162461bcd60e51b81526004016103059190610deb565b600060208284031215610c0e57600080fd5b81356001600160e01b031981168114610a6557600080fd5b600060208284031215610c3857600080fd5b5035919050565b6001600160a01b03811681146105da57600080fd5b60008060408385031215610c6757600080fd5b823591506020830135610c7981610c3f565b809150509250929050565b600060208284031215610c9657600080fd5b8135610a6581610c3f565b60008060408385031215610cb457600080fd5b8235610cbf81610c3f565b946020939093013593505050565b600080600060608486031215610ce257600080fd5b8335610ced81610c3f565b92506020840135610cfd81610c3f565b929592945050506040919091013590565b60208082526024908201527f54726561737572793a2050726576656e74696e67206163636964656e74616c20604082015263313ab93760e11b606082015260800190565b60005b83811015610d6d578181015183820152602001610d55565b50506000910152565b7f416363657373436f6e74726f6c3a206163636f756e7420000000000000000000815260008351610dae816017850160208801610d52565b7001034b99036b4b9b9b4b733903937b6329607d1b6017918401918201528351610ddf816028840160208801610d52565b01602801949350505050565b6020815260008251806020840152610e0a816040850160208701610d52565b601f01601f19169190910160400192915050565b600060208284031215610e3057600080fd5b81518015158114610a6557600080fd5b634e487b7160e01b600052601160045260246000fd5b808202811582820484141761026957610269610e40565b8082018082111561026957610269610e40565b634e487b7160e01b600052604160045260246000fd5b634e487b7160e01b600052603260045260246000fd5b600081610ebb57610ebb610e40565b506000190190565b60008251610ed5818460208701610d52565b919091019291505056fe8502233096d909befbda0999bb8ea2f3a6be3c138b9fbf003752a4c8bce86f6ca2646970667358221220f08430da87360ee3732ea72c2f9cbf1f83b3e8bf691ee4be288dfcbb0ac41a8064736f6c63430008110033",
  "linkReferences": {},
  "deployedLinkReferences": {}
}