{"abi":[{"type":"constructor","inputs":[{"name":"_owner","type":"address","internalType":"address"}],"stateMutability":"nonpayable"},{"type":"receive","stateMutability":"payable"},{"type":"function","name":"BUDGET_PERIOD","inputs":[],"outputs":[{"name":"","type":"uint256","internalType":"uint256"}],"stateMutability":"view"},{"type":"function","name":"STEWARD_BUDGET_BPS","inputs":[],"outputs":[{"name":"","type":"uint256","internalType":"uint256"}],"stateMutability":"view"},{"type":"function","name":"budgetSpentThisPeriod","inputs":[{"name":"","type":"address","internalType":"address"}],"outputs":[{"name":"","type":"uint256","internalType":"uint256"}],"stateMutability":"view"},{"type":"function","name":"claimCount","inputs":[],"outputs":[{"name":"","type":"uint256","internalType":"uint256"}],"stateMutability":"view"},{"type":"function","name":"claims","inputs":[{"name":"","type":"uint256","internalType":"uint256"}],"outputs":[{"name":"token","type":"address","internalType":"address"},{"name":"beneficiary","type":"address","internalType":"address"},{"name":"amount","type":"uint256","internalType":"uint256"},{"name":"exercised","type":"uint256","internalType":"uint256"},{"name":"createdAt","type":"uint256","internalType":"uint256"}],"stateMutability":"view"},{"type":"function","name":"createClaim","inputs":[{"name":"token","type":"address","internalType":"address"},{"name":"beneficiary","type":"address","internalType":"address"},{"name":"amount","type":"uint256","internalType":"uint256"}],"outputs":[{"name":"","type":"uint256","internalType":"uint256"}],"stateMutability":"nonpayable"},{"type":"function","name":"distribute","inputs":[{"name":"token","type":"address","internalType":"address"},{"name":"recipient","type":"address","internalType":"address"},{"name":"amount","type":"uint256","internalType":"uint256"}],"outputs":[],"stateMutability":"nonpayable"},{"type":"function","name":"exerciseClaim","inputs":[{"name":"claimId","type":"uint256","internalType":"uint256"},{"name":"amount","type":"uint256","internalType":"uint256"}],"outputs":[],"stateMutability":"nonpayable"},{"type":"function","name":"getBalance","inputs":[{"name":"token","type":"address","internalType":"address"}],"outputs":[{"name":"","type":"uint256","internalType":"uint256"}],"stateMutability":"view"},{"type":"function","name":"getBeneficiaryClaims","inputs":[{"name":"beneficiary","type":"address","internalType":"address"}],"outputs":[{"name":"","type":"uint256[]","internalType":"uint256[]"}],"stateMutability":"view"},{"type":"function","name":"getClaimRemaining","inputs":[{"name":"claimId","type":"uint256","internalType":"uint256"}],"outputs":[{"name":"","type":"uint256","internalType":"uint256"}],"stateMutability":"view"},{"type":"function","name":"getStewardBudget","inputs":[{"name":"token","type":"address","internalType":"address"}],"outputs":[{"name":"budget","type":"uint256","internalType":"uint256"},{"name":"spent","type":"uint256","internalType":"uint256"},{"name":"remaining","type":"uint256","internalType":"uint256"}],"stateMutability":"view"},{"type":"function","name":"lastBudgetReset","inputs":[{"name":"","type":"address","internalType":"address"}],"outputs":[{"name":"","type":"uint256","internalType":"uint256"}],"stateMutability":"view"},{"type":"function","name":"owner","inputs":[],"outputs":[{"name":"","type":"address","internalType":"address"}],"stateMutability":"view"},{"type":"function","name":"setSteward","inputs":[{"name":"_steward","type":"address","internalType":"address"}],"outputs":[],"stateMutability":"nonpayable"},{"type":"function","name":"steward","inputs":[],"outputs":[{"name":"","type":"address","internalType":"address"}],"stateMutability":"view"},{"type":"function","name":"stewardSpend","inputs":[{"name":"token","type":"address","internalType":"address"},{"name":"recipient","type":"address","internalType":"address"},{"name":"amount","type":"uint256","internalType":"uint256"}],"outputs":[],"stateMutability":"nonpayable"},{"type":"function","name":"transferOwnership","inputs":[{"name":"_newOwner","type":"address","internalType":"address"}],"outputs":[],"stateMutability":"nonpayable"},{"type":"event","name":"ClaimCreated","inputs":[{"name":"claimId","type":"uint256","indexed":true,"internalType":"uint256"},{"name":"beneficiary","type":"address","indexed":true,"internalType":"address"},{"name":"token","type":"address","indexed":false,"internalType":"address"},{"name":"amount","type":"uint256","indexed":false,"internalType":"uint256"}],"anonymous":false},{"type":"event","name":"ClaimExercised","inputs":[{"name":"claimId","type":"uint256","indexed":true,"internalType":"uint256"},{"name":"beneficiary","type":"address","indexed":true,"internalType":"address"},{"name":"amount","type":"uint256","indexed":false,"internalType":"uint256"}],"anonymous":false},{"type":"event","name":"DirectDistribution","inputs":[{"name":"token","type":"address","indexed":true,"internalType":"address"},{"name":"recipient","type":"address","indexed":true,"internalType":"address"},{"name":"amount","type":"uint256","indexed":false,"internalType":"uint256"}],"anonymous":false},{"type":"event","name":"OwnerUpdated","inputs":[{"name":"oldOwner","type":"address","indexed":true,"internalType":"address"},{"name":"newOwner","type":"address","indexed":true,"internalType":"address"}],"anonymous":false},{"type":"event","name":"StewardSpent","inputs":[{"name":"token","type":"address","indexed":true,"internalType":"address"},{"name":"recipient","type":"address","indexed":true,"internalType":"address"},{"name":"amount","type":"uint256","indexed":false,"internalType":"uint256"},{"name":"budgetRemaining","type":"uint256","indexed":false,"internalType":"uint256"}],"anonymous":false},{"type":"event","name":"StewardUpdated","inputs":[{"name":"oldSteward","type":"address","indexed":true,"internalType":"address"},{"name":"newSteward","type":"address","indexed":true,"internalType":"address"}],"anonymous":false}],"bytecode":{"object":"0x60806040523480156200001157600080fd5b50604051620028f4380380620028f4833981810160405281019062000037919062000163565b6001600081905550600073ffffffffffffffffffffffffffffffffffffffff168173ffffffffffffffffffffffffffffffffffffffff1603620000b1576040517f08c379a0000000000000000000000000000000000000000000000000000000008152600401620000a890620001f6565b60405180910390fd5b80600160006101000a81548173ffffffffffffffffffffffffffffffffffffffff021916908373ffffffffffffffffffffffffffffffffffffffff1602179055505062000218565b600080fd5b600073ffffffffffffffffffffffffffffffffffffffff82169050919050565b60006200012b82620000fe565b9050919050565b6200013d816200011e565b81146200014957600080fd5b50565b6000815190506200015d8162000132565b92915050565b6000602082840312156200017c576200017b620000f9565b5b60006200018c848285016200014c565b91505092915050565b600082825260208201905092915050565b7f41726d6164615472656173757279476f763a207a65726f206f776e6572000000600082015250565b6000620001de601d8362000195565b9150620001eb82620001a6565b602082019050919050565b600060208201905081810360008301526200021181620001cf565b9050919050565b6126cc80620002286000396000f3fe60806040526004361061010d5760003560e01c8063c0f5f46e11610095578063f3d7e91811610064578063f3d7e918146103b4578063f5df127c146103dd578063f8b2cb4f14610406578063fa1bf6d214610443578063fb4445ec1461046e57610114565b8063c0f5f46e146102e8578063cc74b4fb14610311578063d100c77b1461034e578063f2fde38b1461038b57610114565b80638da5cb5b116100dc5780638da5cb5b146101eb57806392f2852c146102165780639b573cdf14610253578063a16a91831461027e578063a888c2cd146102a757610114565b806314a3673214610119578063637eea191461015657806380f15524146101815780638da4d3c9146101c057610114565b3661011457005b600080fd5b34801561012557600080fd5b50610140600480360381019061013b9190611aef565b6104ab565b60405161014d9190611b35565b60405180910390f35b34801561016257600080fd5b5061016b6104c3565b6040516101789190611b5f565b60405180910390f35b34801561018d57600080fd5b506101a860048036038101906101a39190611aef565b6104e9565b6040516101b793929190611b7a565b60405180910390f35b3480156101cc57600080fd5b506101d561064c565b6040516101e29190611b35565b60405180910390f35b3480156101f757600080fd5b50610200610652565b60405161020d9190611b5f565b60405180910390f35b34801561022257600080fd5b5061023d60048036038101906102389190611bdd565b610678565b60405161024a9190611b35565b60405180910390f35b34801561025f57600080fd5b506102686109ad565b6040516102759190611b35565b60405180910390f35b34801561028a57600080fd5b506102a560048036038101906102a09190611bdd565b6109b2565b005b3480156102b357600080fd5b506102ce60048036038101906102c99190611c30565b610b46565b6040516102df959493929190611c5d565b60405180910390f35b3480156102f457600080fd5b5061030f600480360381019061030a9190611aef565b610bbc565b005b34801561031d57600080fd5b5061033860048036038101906103339190611aef565b610d0c565b6040516103459190611b35565b60405180910390f35b34801561035a57600080fd5b5061037560048036038101906103709190611aef565b610d24565b6040516103829190611d6e565b60405180910390f35b34801561039757600080fd5b506103b260048036038101906103ad9190611aef565b610dbb565b005b3480156103c057600080fd5b506103db60048036038101906103d69190611bdd565b610f7a565b005b3480156103e957600080fd5b5061040460048036038101906103ff9190611d90565b611402565b005b34801561041257600080fd5b5061042d60048036038101906104289190611aef565b61165a565b60405161043a9190611b35565b60405180910390f35b34801561044f57600080fd5b506104586116dd565b6040516104659190611b35565b60405180910390f35b34801561047a57600080fd5b5061049560048036038101906104909190611c30565b6116e4565b6040516104a29190611b35565b60405180910390f35b60066020528060005260406000206000915090505481565b600260009054906101000a900473ffffffffffffffffffffffffffffffffffffffff1681565b6000806000808473ffffffffffffffffffffffffffffffffffffffff166370a08231306040518263ffffffff1660e01b81526004016105289190611b5f565b602060405180830381865afa158015610545573d6000803e3d6000fd5b505050506040513d601f19601f820116820180604052508101906105699190611de5565b905061271060648261057b9190611e41565b6105859190611eb2565b935062278d00600760008773ffffffffffffffffffffffffffffffffffffffff1673ffffffffffffffffffffffffffffffffffffffff168152602001908152602001600020546105d59190611ee3565b42106105e45760009250610627565b600660008673ffffffffffffffffffffffffffffffffffffffff1673ffffffffffffffffffffffffffffffffffffffff1681526020019081526020016000205492505b828411610635576000610642565b82846106419190611f17565b5b9150509193909250565b60035481565b600160009054906101000a900473ffffffffffffffffffffffffffffffffffffffff1681565b6000600160009054906101000a900473ffffffffffffffffffffffffffffffffffffffff1673ffffffffffffffffffffffffffffffffffffffff163373ffffffffffffffffffffffffffffffffffffffff161461070a576040517f08c379a000000000000000000000000000000000000000000000000000000000815260040161070190611fa8565b60405180910390fd5b600073ffffffffffffffffffffffffffffffffffffffff168373ffffffffffffffffffffffffffffffffffffffff1603610779576040517f08c379a000000000000000000000000000000000000000000000000000000000815260040161077090612014565b60405180910390fd5b600082116107bc576040517f08c379a00000000000000000000000000000000000000000000000000000000081526004016107b390612080565b60405180910390fd5b60006003600081546107cd906120a0565b91905081905590506040518060a001604052808673ffffffffffffffffffffffffffffffffffffffff1681526020018573ffffffffffffffffffffffffffffffffffffffff16815260200184815260200160008152602001428152506004600083815260200190815260200160002060008201518160000160006101000a81548173ffffffffffffffffffffffffffffffffffffffff021916908373ffffffffffffffffffffffffffffffffffffffff16021790555060208201518160010160006101000a81548173ffffffffffffffffffffffffffffffffffffffff021916908373ffffffffffffffffffffffffffffffffffffffff160217905550604082015181600201556060820151816003015560808201518160040155905050600560008573ffffffffffffffffffffffffffffffffffffffff1673ffffffffffffffffffffffffffffffffffffffff1681526020019081526020016000208190806001815401808255809150506001900390600052602060002001600090919091909150558373ffffffffffffffffffffffffffffffffffffffff16817f43075473c5f3d2a934d40868b89ac0e83a44371c88d465d6b54856e9a83f59b8878660405161099a9291906120e8565b60405180910390a3809150509392505050565b606481565b600160009054906101000a900473ffffffffffffffffffffffffffffffffffffffff1673ffffffffffffffffffffffffffffffffffffffff163373ffffffffffffffffffffffffffffffffffffffff1614610a42576040517f08c379a0000000000000000000000000000000000000000000000000000000008152600401610a3990611fa8565b60405180910390fd5b600073ffffffffffffffffffffffffffffffffffffffff168273ffffffffffffffffffffffffffffffffffffffff1603610ab1576040517f08c379a0000000000000000000000000000000000000000000000000000000008152600401610aa890612014565b60405180910390fd5b610adc82828573ffffffffffffffffffffffffffffffffffffffff166117189092919063ffffffff16565b8173ffffffffffffffffffffffffffffffffffffffff168373ffffffffffffffffffffffffffffffffffffffff167f1a0fbfc8bcff4f2812b2ab76624db121514971e32693b7bc698a818a77522f3183604051610b399190611b35565b60405180910390a3505050565b60046020528060005260406000206000915090508060000160009054906101000a900473ffffffffffffffffffffffffffffffffffffffff16908060010160009054906101000a900473ffffffffffffffffffffffffffffffffffffffff16908060020154908060030154908060040154905085565b600160009054906101000a900473ffffffffffffffffffffffffffffffffffffffff1673ffffffffffffffffffffffffffffffffffffffff163373ffffffffffffffffffffffffffffffffffffffff1614610c4c576040517f08c379a0000000000000000000000000000000000000000000000000000000008152600401610c4390611fa8565b60405180910390fd5b8073ffffffffffffffffffffffffffffffffffffffff16600260009054906101000a900473ffffffffffffffffffffffffffffffffffffffff1673ffffffffffffffffffffffffffffffffffffffff167f5860d15efed5b4bc50efbfb4bb5372ea0d455bdd9fd5a2c40cdab175a206bc9d60405160405180910390a380600260006101000a81548173ffffffffffffffffffffffffffffffffffffffff021916908373ffffffffffffffffffffffffffffffffffffffff16021790555050565b60076020528060005260406000206000915090505481565b6060600560008373ffffffffffffffffffffffffffffffffffffffff1673ffffffffffffffffffffffffffffffffffffffff168152602001908152602001600020805480602002602001604051908101604052809291908181526020018280548015610daf57602002820191906000526020600020905b815481526020019060010190808311610d9b575b50505050509050919050565b600160009054906101000a900473ffffffffffffffffffffffffffffffffffffffff1673ffffffffffffffffffffffffffffffffffffffff163373ffffffffffffffffffffffffffffffffffffffff1614610e4b576040517f08c379a0000000000000000000000000000000000000000000000000000000008152600401610e4290611fa8565b60405180910390fd5b600073ffffffffffffffffffffffffffffffffffffffff168173ffffffffffffffffffffffffffffffffffffffff1603610eba576040517f08c379a0000000000000000000000000000000000000000000000000000000008152600401610eb190612014565b60405180910390fd5b8073ffffffffffffffffffffffffffffffffffffffff16600160009054906101000a900473ffffffffffffffffffffffffffffffffffffffff1673ffffffffffffffffffffffffffffffffffffffff167f8292fce18fa69edf4db7b94ea2e58241df0ae57f97e0a6c9b29067028bf92d7660405160405180910390a380600160006101000a81548173ffffffffffffffffffffffffffffffffffffffff021916908373ffffffffffffffffffffffffffffffffffffffff16021790555050565b600260009054906101000a900473ffffffffffffffffffffffffffffffffffffffff1673ffffffffffffffffffffffffffffffffffffffff163373ffffffffffffffffffffffffffffffffffffffff161461100a576040517f08c379a00000000000000000000000000000000000000000000000000000000081526004016110019061215d565b60405180910390fd5b600073ffffffffffffffffffffffffffffffffffffffff168273ffffffffffffffffffffffffffffffffffffffff1603611079576040517f08c379a000000000000000000000000000000000000000000000000000000000815260040161107090612014565b60405180910390fd5b600081116110bc576040517f08c379a00000000000000000000000000000000000000000000000000000000081526004016110b390612080565b60405180910390fd5b62278d00600760008573ffffffffffffffffffffffffffffffffffffffff1673ffffffffffffffffffffffffffffffffffffffff1681526020019081526020016000205461110a9190611ee3565b421061119a576000600660008573ffffffffffffffffffffffffffffffffffffffff1673ffffffffffffffffffffffffffffffffffffffff1681526020019081526020016000208190555042600760008573ffffffffffffffffffffffffffffffffffffffff1673ffffffffffffffffffffffffffffffffffffffff168152602001908152602001600020819055505b60008373ffffffffffffffffffffffffffffffffffffffff166370a08231306040518263ffffffff1660e01b81526004016111d59190611b5f565b602060405180830381865afa1580156111f2573d6000803e3d6000fd5b505050506040513d601f19601f820116820180604052508101906112169190611de5565b9050600061271060648361122a9190611e41565b6112349190611eb2565b90508083600660008873ffffffffffffffffffffffffffffffffffffffff1673ffffffffffffffffffffffffffffffffffffffff168152602001908152602001600020546112829190611ee3565b11156112c3576040517f08c379a00000000000000000000000000000000000000000000000000000000081526004016112ba906121ef565b60405180910390fd5b82600660008773ffffffffffffffffffffffffffffffffffffffff1673ffffffffffffffffffffffffffffffffffffffff16815260200190815260200160002060008282546113129190611ee3565b9250508190555061134484848773ffffffffffffffffffffffffffffffffffffffff166117189092919063ffffffff16565b6000600660008773ffffffffffffffffffffffffffffffffffffffff1673ffffffffffffffffffffffffffffffffffffffff16815260200190815260200160002054826113919190611f17565b90508473ffffffffffffffffffffffffffffffffffffffff168673ffffffffffffffffffffffffffffffffffffffff167fa06f6ead2d06067e6e9f579ad48897fe75a7f4ab952caa419d95fca71483a50c86846040516113f292919061220f565b60405180910390a3505050505050565b61140a61179e565b60006004600084815260200190815260200160002090503373ffffffffffffffffffffffffffffffffffffffff168160010160009054906101000a900473ffffffffffffffffffffffffffffffffffffffff1673ffffffffffffffffffffffffffffffffffffffff16146114b3576040517f08c379a00000000000000000000000000000000000000000000000000000000081526004016114aa906122aa565b60405180910390fd5b600082116114f6576040517f08c379a00000000000000000000000000000000000000000000000000000000081526004016114ed90612080565b60405180910390fd5b806002015482826003015461150b9190611ee3565b111561154c576040517f08c379a000000000000000000000000000000000000000000000000000000000815260040161154390612316565b60405180910390fd5b818160030160008282546115609190611ee3565b925050819055506115da8160010160009054906101000a900473ffffffffffffffffffffffffffffffffffffffff16838360000160009054906101000a900473ffffffffffffffffffffffffffffffffffffffff1673ffffffffffffffffffffffffffffffffffffffff166117189092919063ffffffff16565b8060010160009054906101000a900473ffffffffffffffffffffffffffffffffffffffff1673ffffffffffffffffffffffffffffffffffffffff16837f23bf906c81c9f43f93c1da012cacc02c9560b240cedceb470c6e234e5b35b28c846040516116459190611b35565b60405180910390a3506116566117ed565b5050565b60008173ffffffffffffffffffffffffffffffffffffffff166370a08231306040518263ffffffff1660e01b81526004016116959190611b5f565b602060405180830381865afa1580156116b2573d6000803e3d6000fd5b505050506040513d601f19601f820116820180604052508101906116d69190611de5565b9050919050565b62278d0081565b600080600460008481526020019081526020016000209050806003015481600201546117109190611f17565b915050919050565b6117998363a9059cbb60e01b84846040516024016117379291906120e8565b604051602081830303815290604052907bffffffffffffffffffffffffffffffffffffffffffffffffffffffff19166020820180517bffffffffffffffffffffffffffffffffffffffffffffffffffffffff83818316178352505050506117f7565b505050565b6002600054036117e3576040517f08c379a00000000000000000000000000000000000000000000000000000000081526004016117da90612382565b60405180910390fd5b6002600081905550565b6001600081905550565b6000611859826040518060400160405280602081526020017f5361666545524332303a206c6f772d6c6576656c2063616c6c206661696c65648152508573ffffffffffffffffffffffffffffffffffffffff166118bf9092919063ffffffff16565b905060008151148061187b57508080602001905181019061187a91906123da565b5b6118ba576040517f08c379a00000000000000000000000000000000000000000000000000000000081526004016118b190612479565b60405180910390fd5b505050565b60606118ce84846000856118d7565b90509392505050565b60608247101561191c576040517f08c379a00000000000000000000000000000000000000000000000000000000081526004016119139061250b565b60405180910390fd5b6000808673ffffffffffffffffffffffffffffffffffffffff168587604051611945919061259c565b60006040518083038185875af1925050503d8060008114611982576040519150601f19603f3d011682016040523d82523d6000602084013e611987565b606091505b5091509150611998878383876119a4565b92505050949350505050565b60608315611a065760008351036119fe576119be85611a19565b6119fd576040517f08c379a00000000000000000000000000000000000000000000000000000000081526004016119f4906125ff565b60405180910390fd5b5b829050611a11565b611a108383611a3c565b5b949350505050565b6000808273ffffffffffffffffffffffffffffffffffffffff163b119050919050565b600082511115611a4f5781518083602001fd5b806040517f08c379a0000000000000000000000000000000000000000000000000000000008152600401611a839190612674565b60405180910390fd5b600080fd5b600073ffffffffffffffffffffffffffffffffffffffff82169050919050565b6000611abc82611a91565b9050919050565b611acc81611ab1565b8114611ad757600080fd5b50565b600081359050611ae981611ac3565b92915050565b600060208284031215611b0557611b04611a8c565b5b6000611b1384828501611ada565b91505092915050565b6000819050919050565b611b2f81611b1c565b82525050565b6000602082019050611b4a6000830184611b26565b92915050565b611b5981611ab1565b82525050565b6000602082019050611b746000830184611b50565b92915050565b6000606082019050611b8f6000830186611b26565b611b9c6020830185611b26565b611ba96040830184611b26565b949350505050565b611bba81611b1c565b8114611bc557600080fd5b50565b600081359050611bd781611bb1565b92915050565b600080600060608486031215611bf657611bf5611a8c565b5b6000611c0486828701611ada565b9350506020611c1586828701611ada565b9250506040611c2686828701611bc8565b9150509250925092565b600060208284031215611c4657611c45611a8c565b5b6000611c5484828501611bc8565b91505092915050565b600060a082019050611c726000830188611b50565b611c7f6020830187611b50565b611c8c6040830186611b26565b611c996060830185611b26565b611ca66080830184611b26565b9695505050505050565b600081519050919050565b600082825260208201905092915050565b6000819050602082019050919050565b611ce581611b1c565b82525050565b6000611cf78383611cdc565b60208301905092915050565b6000602082019050919050565b6000611d1b82611cb0565b611d258185611cbb565b9350611d3083611ccc565b8060005b83811015611d61578151611d488882611ceb565b9750611d5383611d03565b925050600181019050611d34565b5085935050505092915050565b60006020820190508181036000830152611d888184611d10565b905092915050565b60008060408385031215611da757611da6611a8c565b5b6000611db585828601611bc8565b9250506020611dc685828601611bc8565b9150509250929050565b600081519050611ddf81611bb1565b92915050565b600060208284031215611dfb57611dfa611a8c565b5b6000611e0984828501611dd0565b91505092915050565b7f4e487b7100000000000000000000000000000000000000000000000000000000600052601160045260246000fd5b6000611e4c82611b1c565b9150611e5783611b1c565b9250828202611e6581611b1c565b91508282048414831517611e7c57611e7b611e12565b5b5092915050565b7f4e487b7100000000000000000000000000000000000000000000000000000000600052601260045260246000fd5b6000611ebd82611b1c565b9150611ec883611b1c565b925082611ed857611ed7611e83565b5b828204905092915050565b6000611eee82611b1c565b9150611ef983611b1c565b9250828201905080821115611f1157611f10611e12565b5b92915050565b6000611f2282611b1c565b9150611f2d83611b1c565b9250828203905081811115611f4557611f44611e12565b5b92915050565b600082825260208201905092915050565b7f41726d6164615472656173757279476f763a206e6f74206f776e657200000000600082015250565b6000611f92601c83611f4b565b9150611f9d82611f5c565b602082019050919050565b60006020820190508181036000830152611fc181611f85565b9050919050565b7f41726d6164615472656173757279476f763a207a65726f206164647265737300600082015250565b6000611ffe601f83611f4b565b915061200982611fc8565b602082019050919050565b6000602082019050818103600083015261202d81611ff1565b9050919050565b7f41726d6164615472656173757279476f763a207a65726f20616d6f756e740000600082015250565b600061206a601e83611f4b565b915061207582612034565b602082019050919050565b600060208201905081810360008301526120998161205d565b9050919050565b60006120ab82611b1c565b91507fffffffffffffffffffffffffffffffffffffffffffffffffffffffffffffffff82036120dd576120dc611e12565b5b600182019050919050565b60006040820190506120fd6000830185611b50565b61210a6020830184611b26565b9392505050565b7f41726d6164615472656173757279476f763a206e6f7420737465776172640000600082015250565b6000612147601e83611f4b565b915061215282612111565b602082019050919050565b600060208201905081810360008301526121768161213a565b9050919050565b7f41726d6164615472656173757279476f763a2065786365656473206d6f6e746860008201527f6c79206275646765740000000000000000000000000000000000000000000000602082015250565b60006121d9602983611f4b565b91506121e48261217d565b604082019050919050565b60006020820190508181036000830152612208816121cc565b9050919050565b60006040820190506122246000830185611b26565b6122316020830184611b26565b9392505050565b7f41726d6164615472656173757279476f763a206e6f742062656e65666963696160008201527f7279000000000000000000000000000000000000000000000000000000000000602082015250565b6000612294602283611f4b565b915061229f82612238565b604082019050919050565b600060208201905081810360008301526122c381612287565b9050919050565b7f41726d6164615472656173757279476f763a206578636565647320636c61696d600082015250565b6000612300602083611f4b565b915061230b826122ca565b602082019050919050565b6000602082019050818103600083015261232f816122f3565b9050919050565b7f5265656e7472616e637947756172643a207265656e7472616e742063616c6c00600082015250565b600061236c601f83611f4b565b915061237782612336565b602082019050919050565b6000602082019050818103600083015261239b8161235f565b9050919050565b60008115159050919050565b6123b7816123a2565b81146123c257600080fd5b50565b6000815190506123d4816123ae565b92915050565b6000602082840312156123f0576123ef611a8c565b5b60006123fe848285016123c5565b91505092915050565b7f5361666545524332303a204552433230206f7065726174696f6e20646964206e60008201527f6f74207375636365656400000000000000000000000000000000000000000000602082015250565b6000612463602a83611f4b565b915061246e82612407565b604082019050919050565b6000602082019050818103600083015261249281612456565b9050919050565b7f416464726573733a20696e73756666696369656e742062616c616e636520666f60008201527f722063616c6c0000000000000000000000000000000000000000000000000000602082015250565b60006124f5602683611f4b565b915061250082612499565b604082019050919050565b60006020820190508181036000830152612524816124e8565b9050919050565b600081519050919050565b600081905092915050565b60005b8381101561255f578082015181840152602081019050612544565b60008484015250505050565b60006125768261252b565b6125808185612536565b9350612590818560208601612541565b80840191505092915050565b60006125a8828461256b565b915081905092915050565b7f416464726573733a2063616c6c20746f206e6f6e2d636f6e7472616374000000600082015250565b60006125e9601d83611f4b565b91506125f4826125b3565b602082019050919050565b60006020820190508181036000830152612618816125dc565b9050919050565b600081519050919050565b6000601f19601f8301169050919050565b60006126468261261f565b6126508185611f4b565b9350612660818560208601612541565b6126698161262a565b840191505092915050565b6000602082019050818103600083015261268e818461263b565b90509291505056fea2646970667358221220545bbb1fb4253277fc906318886104bc3c84d641dda6b368a1ce130ff5112a6764736f6c63430008110033","linkReferences":{}},"methodIdentifiers":{"BUDGET_PERIOD()":"fa1bf6d2","STEWARD_BUDGET_BPS()":"9b573cdf","budgetSpentThisPeriod(address)":"14a36732","claimCount()":"8da4d3c9","claims(uint256)":"a888c2cd","createClaim(address,address,uint256)":"92f2852c","distribute(address,address,uint256)":"a16a9183","exerciseClaim(uint256,uint256)":"f5df127c","getBalance(address)":"f8b2cb4f","getBeneficiaryClaims(address)":"d100c77b","getClaimRemaining(uint256)":"fb4445ec","getStewardBudget(address)":"80f15524","lastBudgetReset(address)":"cc74b4fb","owner()":"8da5cb5b","setSteward(address)":"c0f5f46e","steward()":"637eea19","stewardSpend(address,address,uint256)":"f3d7e918","transferOwnership(address)":"f2fde38b"},"id":9}