{
  "_format": "hh-sol-artifact-1",
  "contractName": "MockAaveSpoke",
  "sourceName": "contracts/aave-mock/MockAaveSpoke.sol",
  "abi": [
    {
      "inputs": [],
      "stateMutability": "nonpayable",
      "type": "constructor"
    },
    {
      "anonymous": false,
      "inputs": [
        {
          "indexed": true,
          "internalType": "uint256",
          "name": "reserveId",
          "type": "uint256"
        },
        {
          "indexed": true,
          "internalType": "address",
          "name": "underlying",
          "type": "address"
        },
        {
          "indexed": false,
          "internalType": "uint256",
          "name": "annualYieldBps",
          "type": "uint256"
        }
      ],
      "name": "ReserveAdded",
      "type": "event"
    },
    {
      "anonymous": false,
      "inputs": [
        {
          "indexed": true,
          "internalType": "uint256",
          "name": "reserveId",
          "type": "uint256"
        },
        {
          "indexed": true,
          "internalType": "address",
          "name": "caller",
          "type": "address"
        },
        {
          "indexed": true,
          "internalType": "address",
          "name": "user",
          "type": "address"
        },
        {
          "indexed": false,
          "internalType": "uint256",
          "name": "suppliedShares",
          "type": "uint256"
        },
        {
          "indexed": false,
          "internalType": "uint256",
          "name": "suppliedAmount",
          "type": "uint256"
        }
      ],
      "name": "Supply",
      "type": "event"
    },
    {
      "anonymous": false,
      "inputs": [
        {
          "indexed": true,
          "internalType": "uint256",
          "name": "reserveId",
          "type": "uint256"
        },
        {
          "indexed": true,
          "internalType": "address",
          "name": "caller",
          "type": "address"
        },
        {
          "indexed": true,
          "internalType": "address",
          "name": "user",
          "type": "address"
        },
        {
          "indexed": false,
          "internalType": "uint256",
          "name": "withdrawnShares",
          "type": "uint256"
        },
        {
          "indexed": false,
          "internalType": "uint256",
          "name": "withdrawnAmount",
          "type": "uint256"
        }
      ],
      "name": "Withdraw",
      "type": "event"
    },
    {
      "anonymous": false,
      "inputs": [
        {
          "indexed": true,
          "internalType": "uint256",
          "name": "reserveId",
          "type": "uint256"
        },
        {
          "indexed": false,
          "internalType": "uint256",
          "name": "amount",
          "type": "uint256"
        }
      ],
      "name": "YieldMinted",
      "type": "event"
    },
    {
      "anonymous": false,
      "inputs": [
        {
          "indexed": true,
          "internalType": "uint256",
          "name": "reserveId",
          "type": "uint256"
        },
        {
          "indexed": false,
          "internalType": "uint256",
          "name": "newYieldBps",
          "type": "uint256"
        }
      ],
      "name": "YieldRateUpdated",
      "type": "event"
    },
    {
      "inputs": [],
      "name": "RAY",
      "outputs": [
        {
          "internalType": "uint256",
          "name": "",
          "type": "uint256"
        }
      ],
      "stateMutability": "view",
      "type": "function"
    },
    {
      "inputs": [],
      "name": "SECONDS_PER_YEAR",
      "outputs": [
        {
          "internalType": "uint256",
          "name": "",
          "type": "uint256"
        }
      ],
      "stateMutability": "view",
      "type": "function"
    },
    {
      "inputs": [
        {
          "internalType": "address",
          "name": "underlying",
          "type": "address"
        },
        {
          "internalType": "uint256",
          "name": "annualYieldBps",
          "type": "uint256"
        },
        {
          "internalType": "bool",
          "name": "mintableYield",
          "type": "bool"
        }
      ],
      "name": "addReserve",
      "outputs": [
        {
          "internalType": "uint256",
          "name": "reserveId",
          "type": "uint256"
        }
      ],
      "stateMutability": "nonpayable",
      "type": "function"
    },
    {
      "inputs": [
        {
          "internalType": "uint256",
          "name": "reserveId",
          "type": "uint256"
        },
        {
          "internalType": "uint256",
          "name": "shares",
          "type": "uint256"
        }
      ],
      "name": "convertToAssets",
      "outputs": [
        {
          "internalType": "uint256",
          "name": "assets",
          "type": "uint256"
        }
      ],
      "stateMutability": "view",
      "type": "function"
    },
    {
      "inputs": [
        {
          "internalType": "uint256",
          "name": "reserveId",
          "type": "uint256"
        },
        {
          "internalType": "uint256",
          "name": "assets",
          "type": "uint256"
        }
      ],
      "name": "convertToShares",
      "outputs": [
        {
          "internalType": "uint256",
          "name": "shares",
          "type": "uint256"
        }
      ],
      "stateMutability": "view",
      "type": "function"
    },
    {
      "inputs": [
        {
          "internalType": "uint256",
          "name": "reserveId",
          "type": "uint256"
        }
      ],
      "name": "getReserveData",
      "outputs": [
        {
          "internalType": "address",
          "name": "underlying",
          "type": "address"
        },
        {
          "internalType": "uint256",
          "name": "totalShares",
          "type": "uint256"
        },
        {
          "internalType": "uint256",
          "name": "totalDeposited",
          "type": "uint256"
        },
        {
          "internalType": "uint256",
          "name": "liquidityIndex",
          "type": "uint256"
        },
        {
          "internalType": "uint256",
          "name": "lastUpdateTimestamp",
          "type": "uint256"
        },
        {
          "internalType": "uint256",
          "name": "annualYieldBps",
          "type": "uint256"
        },
        {
          "internalType": "bool",
          "name": "mintableYield",
          "type": "bool"
        }
      ],
      "stateMutability": "view",
      "type": "function"
    },
    {
      "inputs": [
        {
          "internalType": "uint256",
          "name": "reserveId",
          "type": "uint256"
        }
      ],
      "name": "getReserveLiquidityIndex",
      "outputs": [
        {
          "internalType": "uint256",
          "name": "",
          "type": "uint256"
        }
      ],
      "stateMutability": "view",
      "type": "function"
    },
    {
      "inputs": [
        {
          "internalType": "uint256",
          "name": "reserveId",
          "type": "uint256"
        }
      ],
      "name": "getReserveSuppliedAssets",
      "outputs": [
        {
          "internalType": "uint256",
          "name": "",
          "type": "uint256"
        }
      ],
      "stateMutability": "view",
      "type": "function"
    },
    {
      "inputs": [
        {
          "internalType": "uint256",
          "name": "reserveId",
          "type": "uint256"
        }
      ],
      "name": "getReserveSuppliedShares",
      "outputs": [
        {
          "internalType": "uint256",
          "name": "",
          "type": "uint256"
        }
      ],
      "stateMutability": "view",
      "type": "function"
    },
    {
      "inputs": [
        {
          "internalType": "uint256",
          "name": "reserveId",
          "type": "uint256"
        }
      ],
      "name": "getUnderlyingAsset",
      "outputs": [
        {
          "internalType": "address",
          "name": "",
          "type": "address"
        }
      ],
      "stateMutability": "view",
      "type": "function"
    },
    {
      "inputs": [
        {
          "internalType": "uint256",
          "name": "reserveId",
          "type": "uint256"
        },
        {
          "internalType": "address",
          "name": "user",
          "type": "address"
        }
      ],
      "name": "getUserSuppliedAssets",
      "outputs": [
        {
          "internalType": "uint256",
          "name": "",
          "type": "uint256"
        }
      ],
      "stateMutability": "view",
      "type": "function"
    },
    {
      "inputs": [
        {
          "internalType": "uint256",
          "name": "reserveId",
          "type": "uint256"
        },
        {
          "internalType": "address",
          "name": "user",
          "type": "address"
        }
      ],
      "name": "getUserSuppliedShares",
      "outputs": [
        {
          "internalType": "uint256",
          "name": "",
          "type": "uint256"
        }
      ],
      "stateMutability": "view",
      "type": "function"
    },
    {
      "inputs": [],
      "name": "nextReserveId",
      "outputs": [
        {
          "internalType": "uint256",
          "name": "",
          "type": "uint256"
        }
      ],
      "stateMutability": "view",
      "type": "function"
    },
    {
      "inputs": [],
      "name": "owner",
      "outputs": [
        {
          "internalType": "address",
          "name": "",
          "type": "address"
        }
      ],
      "stateMutability": "view",
      "type": "function"
    },
    {
      "inputs": [
        {
          "internalType": "uint256",
          "name": "",
          "type": "uint256"
        }
      ],
      "name": "reserves",
      "outputs": [
        {
          "internalType": "contract IERC20",
          "name": "underlying",
          "type": "address"
        },
        {
          "internalType": "uint256",
          "name": "totalShares",
          "type": "uint256"
        },
        {
          "internalType": "uint256",
          "name": "totalDeposited",
          "type": "uint256"
        },
        {
          "internalType": "uint256",
          "name": "liquidityIndex",
          "type": "uint256"
        },
        {
          "internalType": "uint256",
          "name": "lastUpdateTimestamp",
          "type": "uint256"
        },
        {
          "internalType": "uint256",
          "name": "annualYieldBps",
          "type": "uint256"
        },
        {
          "internalType": "bool",
          "name": "mintableYield",
          "type": "bool"
        }
      ],
      "stateMutability": "view",
      "type": "function"
    },
    {
      "inputs": [
        {
          "internalType": "uint256",
          "name": "reserveId",
          "type": "uint256"
        },
        {
          "internalType": "uint256",
          "name": "annualYieldBps",
          "type": "uint256"
        }
      ],
      "name": "setYieldRate",
      "outputs": [],
      "stateMutability": "nonpayable",
      "type": "function"
    },
    {
      "inputs": [
        {
          "internalType": "uint256",
          "name": "reserveId",
          "type": "uint256"
        },
        {
          "internalType": "uint256",
          "name": "amount",
          "type": "uint256"
        },
        {
          "internalType": "address",
          "name": "onBehalfOf",
          "type": "address"
        }
      ],
      "name": "supply",
      "outputs": [
        {
          "internalType": "uint256",
          "name": "shares",
          "type": "uint256"
        },
        {
          "internalType": "uint256",
          "name": "supplied",
          "type": "uint256"
        }
      ],
      "stateMutability": "nonpayable",
      "type": "function"
    },
    {
      "inputs": [
        {
          "internalType": "address",
          "name": "newOwner",
          "type": "address"
        }
      ],
      "name": "transferOwnership",
      "outputs": [],
      "stateMutability": "nonpayable",
      "type": "function"
    },
    {
      "inputs": [
        {
          "internalType": "uint256",
          "name": "",
          "type": "uint256"
        },
        {
          "internalType": "address",
          "name": "",
          "type": "address"
        }
      ],
      "name": "userShares",
      "outputs": [
        {
          "internalType": "uint256",
          "name": "",
          "type": "uint256"
        }
      ],
      "stateMutability": "view",
      "type": "function"
    },
    {
      "inputs": [
        {
          "internalType": "uint256",
          "name": "reserveId",
          "type": "uint256"
        },
        {
          "internalType": "uint256",
          "name": "amount",
          "type": "uint256"
        },
        {
          "internalType": "address",
          "name": "onBehalfOf",
          "type": "address"
        }
      ],
      "name": "withdraw",
      "outputs": [
        {
          "internalType": "uint256",
          "name": "shares",
          "type": "uint256"
        },
        {
          "internalType": "uint256",
          "name": "withdrawn",
          "type": "uint256"
        }
      ],
      "stateMutability": "nonpayable",
      "type": "function"
    }
  ],
  "bytecode": "0x608060405234801561001057600080fd5b50600280546001600160a01b031916331790556114f7806100326000396000f3fe608060405234801561001057600080fd5b506004361061012c5760003560e01c806391541e05116100ad578063db2088f411610071578063db2088f41461036c578063dcf56e561461037f578063e6a69ab814610392578063f1568a891461039d578063f2fde38b146103b057600080fd5b806391541e05146102cf578063ad954878146102e2578063b678c3881461030d578063c758a4a614610320578063ce6035211461034957600080fd5b8063552033c4116100f4578063552033c4146101d15780638334278d146101e3578063852a56a51461027c5780638c6b15ac1461028f5780638da5cb5b146102a457600080fd5b80630ad58d2f14610131578063181e7b3b1461015e5780632fa085441461017f5780632fd00527146101b557806346dbf589146101c8575b600080fd5b61014461013f36600461120f565b6103c3565b604080519283526020830191909152015b60405180910390f35b61017161016c366004611244565b6107dd565b604051908152602001610155565b61017161018d366004611266565b60009182526001602090815260408084206001600160a01b0393909316845291905290205490565b6101716101c3366004611292565b61083c565b61017160035481565b610171676765c793fa10079d601b1b81565b61023b6101f1366004611292565b60006020819052908152604090208054600182015460028301546003840154600485015460058601546006909601546001600160a01b039095169593949293919290919060ff1687565b604080516001600160a01b0390981688526020880196909652948601939093526060850191909152608084015260a0830152151560c082015260e001610155565b61014461028a36600461120f565b61089d565b6102a261029d366004611244565b610a7c565b005b6002546102b7906001600160a01b031681565b6040516001600160a01b039091168152602001610155565b61023b6102dd366004611292565b610b25565b6101716102f0366004611266565b600160209081526000928352604080842090915290825290205481565b61017161031b3660046112bc565b610b8b565b6102b761032e366004611292565b6000908152602081905260409020546001600160a01b031690565b610171610357366004611292565b60009081526020819052604090206001015490565b61017161037a366004611244565b610cb4565b61017161038d366004611292565b610cfe565b6101716301e1338081565b6101716103ab366004611266565b610d15565b6102a26103be3660046112fc565b610d85565b600080336001600160a01b038416146104365760405162461bcd60e51b815260206004820152602a60248201527f4d6f636b4161766553706f6b653a2063616e206f6e6c79207769746864726177604482015269206f776e2066756e647360b01b60648201526084015b60405180910390fd5b600085815260208190526040902080546001600160a01b031661046b5760405162461bcd60e51b815260040161042d9061131e565b61047481610e27565b6000610481828689610e3e565b90506000198603610490578095505b600086116104e05760405162461bcd60e51b815260206004820152601a60248201527f4d6f636b4161766553706f6b653a207a65726f20616d6f756e74000000000000604482015260640161042d565b8086111561053c5760405162461bcd60e51b815260206004820152602360248201527f4d6f636b4161766553706f6b653a20696e73756666696369656e742062616c616044820152626e636560e81b606482015260840161042d565b6003820154610556676765c793fa10079d601b1b88611369565b6105609190611380565b60008881526001602090815260408083206001600160a01b038a168452909152902054909450818703610591578094505b808511156105ec5760405162461bcd60e51b815260206004820152602260248201527f4d6f636b4161766553706f6b653a20696e73756666696369656e742073686172604482015261657360f01b606482015260840161042d565b60008881526001602090815260408083206001600160a01b038a1684529091528120805487929061061e9084906113a2565b925050819055508483600101600082825461063991906113a2565b909155505082546040516370a0823160e01b81523060048201526000916001600160a01b0316906370a0823190602401602060405180830381865afa158015610686573d6000803e3d6000fd5b505050506040513d601f19601f820116820180604052508101906106aa91906113b5565b905080881180156106bf5750600684015460ff165b156107705760006106d0828a6113a2565b85546040516340c10f1960e01b8152306004820152602481018390529192506001600160a01b0316906340c10f1990604401600060405180830381600087803b15801561071c57600080fd5b505af1158015610730573d6000803e3d6000fd5b50505050897f9c81afa0d494de2b5a90ba38e252d60e6fa4a499c8784cc15c02725b2c9557298260405161076691815260200190565b60405180910390a2505b8354610786906001600160a01b0316338a610e9b565b60408051878152602081018a90528996506001600160a01b0389169133918c917ffe7813e2866053d5c3938554e517b554fce6666a6561bed9eaa7419b29fa9b68910160405180910390a450505050935093915050565b600082815260208190526040812080546001600160a01b0316610804576000915050610836565b600061080f82610f03565b9050676765c793fa10079d601b1b6108278286611369565b6108319190611380565b925050505b92915050565b600081815260208190526040812080546001600160a01b03166108625750600092915050565b600061086d82610f03565b9050676765c793fa10079d601b1b81836001015461088b9190611369565b6108959190611380565b949350505050565b600083815260208190526040812080548291906001600160a01b03166108d55760405162461bcd60e51b815260040161042d9061131e565b600085116109255760405162461bcd60e51b815260206004820152601a60248201527f4d6f636b4161766553706f6b653a207a65726f20616d6f756e74000000000000604482015260640161042d565b61092e81610e27565b6003810154610948676765c793fa10079d601b1b87611369565b6109529190611380565b9250600083116109a45760405162461bcd60e51b815260206004820152601a60248201527f4d6f636b4161766553706f6b653a207a65726f20736861726573000000000000604482015260640161042d565b60008681526001602090815260408083206001600160a01b0388168452909152812080548592906109d69084906113ce565b92505081905550828160010160008282546109f191906113ce565b9250508190555084816002016000828254610a0c91906113ce565b90915550508054610a28906001600160a01b0316333088610fbd565b60408051848152602081018790528693506001600160a01b03861691339189917fd986db228cb1fe8392c5f45ff5f2c639b7db6cbd9ca7d1fe70b2de90c2c8c961910160405180910390a450935093915050565b6002546001600160a01b03163314610aa65760405162461bcd60e51b815260040161042d906113e1565b600082815260208190526040902080546001600160a01b0316610adb5760405162461bcd60e51b815260040161042d9061131e565b610ae481610e27565b6005810182905560405182815283907f4959ad9023bf5b492922b51fbc7c0b5e5ec66aa39700e0da6d8af9b2d430898e9060200160405180910390a2505050565b600081815260208190526040812080546001820154600283015484938493849384938493849390926001600160a01b0390911691610b6284610f03565b60048501546005860154600690960154949e939d50919b509950975091955060ff169350915050565b6002546000906001600160a01b03163314610bb85760405162461bcd60e51b815260040161042d906113e1565b60038054906000610bc883611418565b909155506040805160e0810182526001600160a01b0387811680835260006020808501828152858701838152676765c793fa10079d601b1b60608801908152426080890190815260a089018e81528d151560c08b019081528c8852878752968b902099518a546001600160a01b0319169916989098178955925160018901559051600288015551600387015551600486015592516005850155516006909301805460ff19169315159390931790925591518681529293509183917ff35c3a329a5a564d131cc337d5265aad813c691d76c4a3ee6b9ac5205930cb62910160405180910390a39392505050565b600082815260208190526040812080546001600160a01b0316610cdb576000915050610836565b6000610ce682610f03565b905080610827676765c793fa10079d601b1b86611369565b600081815260208190526040812061083690610f03565b600082815260208190526040812080546001600160a01b0316610d3c576000915050610836565b6000610d4782610f03565b60008681526001602090815260408083206001600160a01b0389168452909152902054909150676765c793fa10079d601b1b90610827908390611369565b6002546001600160a01b03163314610daf5760405162461bcd60e51b815260040161042d906113e1565b6001600160a01b038116610e055760405162461bcd60e51b815260206004820152601b60248201527f4d6f636b4161766553706f6b653a207a65726f20616464726573730000000000604482015260640161042d565b600280546001600160a01b0319166001600160a01b0392909216919091179055565b610e3081610f03565b600382015542600490910155565b600080610e4a85610f03565b60008481526001602090815260408083206001600160a01b0389168452909152902054909150676765c793fa10079d601b1b90610e88908390611369565b610e929190611380565b95945050505050565b6040516001600160a01b038316602482015260448101829052610efe90849063a9059cbb60e01b906064015b60408051601f198184030181529190526020810180516001600160e01b03166001600160e01b031990931692909217909152610ffb565b505050565b60008160040154600003610f235750676765c793fa10079d601b1b919050565b6000826004015442610f3591906113a2565b905080600003610f485750506003015490565b6000610f5a6301e13380612710611369565b82676765c793fa10079d601b1b8660050154610f769190611369565b610f809190611369565b610f8a9190611380565b610f9f90676765c793fa10079d601b1b6113ce565b9050676765c793fa10079d601b1b81856003015461088b9190611369565b6040516001600160a01b0380851660248301528316604482015260648101829052610ff59085906323b872dd60e01b90608401610ec7565b50505050565b6000611050826040518060400160405280602081526020017f5361666545524332303a206c6f772d6c6576656c2063616c6c206661696c6564815250856001600160a01b03166110d09092919063ffffffff16565b90508051600014806110715750808060200190518101906110719190611431565b610efe5760405162461bcd60e51b815260206004820152602a60248201527f5361666545524332303a204552433230206f7065726174696f6e20646964206e6044820152691bdd081cdd58d8d9595960b21b606482015260840161042d565b6060610895848460008585600080866001600160a01b031685876040516110f79190611472565b60006040518083038185875af1925050503d8060008114611134576040519150601f19603f3d011682016040523d82523d6000602084013e611139565b606091505b509150915061114a87838387611155565b979650505050505050565b606083156111c45782516000036111bd576001600160a01b0385163b6111bd5760405162461bcd60e51b815260206004820152601d60248201527f416464726573733a2063616c6c20746f206e6f6e2d636f6e7472616374000000604482015260640161042d565b5081610895565b61089583838151156111d95781518083602001fd5b8060405162461bcd60e51b815260040161042d919061148e565b80356001600160a01b038116811461120a57600080fd5b919050565b60008060006060848603121561122457600080fd5b833592506020840135915061123b604085016111f3565b90509250925092565b6000806040838503121561125757600080fd5b50508035926020909101359150565b6000806040838503121561127957600080fd5b82359150611289602084016111f3565b90509250929050565b6000602082840312156112a457600080fd5b5035919050565b80151581146112b957600080fd5b50565b6000806000606084860312156112d157600080fd5b6112da846111f3565b92506020840135915060408401356112f1816112ab565b809150509250925092565b60006020828403121561130e57600080fd5b611317826111f3565b9392505050565b6020808252818101527f4d6f636b4161766553706f6b653a2072657365727665206e6f7420666f756e64604082015260600190565b634e487b7160e01b600052601160045260246000fd5b808202811582820484141761083657610836611353565b60008261139d57634e487b7160e01b600052601260045260246000fd5b500490565b8181038181111561083657610836611353565b6000602082840312156113c757600080fd5b5051919050565b8082018082111561083657610836611353565b60208082526018908201527f4d6f636b4161766553706f6b653a206e6f74206f776e65720000000000000000604082015260600190565b60006001820161142a5761142a611353565b5060010190565b60006020828403121561144357600080fd5b8151611317816112ab565b60005b83811015611469578181015183820152602001611451565b50506000910152565b6000825161148481846020870161144e565b9190910192915050565b60208152600082518060208401526114ad81604085016020870161144e565b601f01601f1916919091016040019291505056fea26469706673582212206ebd562c58114ccec0d7b624438029ede706119bc351499e172d44e49ba15ad664736f6c63430008110033",
  "linkReferences": {},
  "deployedLinkReferences": {}
}