{"abi":[{"type":"constructor","inputs":[{"name":"_privacyPool","type":"address","internalType":"address"}],"stateMutability":"nonpayable"},{"type":"function","name":"approveAndShield","inputs":[{"name":"token","type":"address","internalType":"address"},{"name":"amount","type":"uint256","internalType":"uint256"},{"name":"_requests","type":"tuple[]","internalType":"struct ShieldRequest[]","components":[{"name":"preimage","type":"tuple","internalType":"struct CommitmentPreimage","components":[{"name":"npk","type":"bytes32","internalType":"bytes32"},{"name":"token","type":"tuple","internalType":"struct TokenData","components":[{"name":"tokenType","type":"uint8","internalType":"enum TokenType"},{"name":"tokenAddress","type":"address","internalType":"address"},{"name":"tokenSubID","type":"uint256","internalType":"uint256"}]},{"name":"value","type":"uint120","internalType":"uint120"}]},{"name":"ciphertext","type":"tuple","internalType":"struct ShieldCiphertext","components":[{"name":"encryptedBundle","type":"bytes32[3]","internalType":"bytes32[3]"},{"name":"shieldKey","type":"bytes32","internalType":"bytes32"}]}]}],"outputs":[],"stateMutability":"nonpayable"},{"type":"function","name":"privacyPool","inputs":[],"outputs":[{"name":"","type":"address","internalType":"contract IPrivacyPool"}],"stateMutability":"view"},{"type":"function","name":"shield","inputs":[{"name":"_requests","type":"tuple[]","internalType":"struct ShieldRequest[]","components":[{"name":"preimage","type":"tuple","internalType":"struct CommitmentPreimage","components":[{"name":"npk","type":"bytes32","internalType":"bytes32"},{"name":"token","type":"tuple","internalType":"struct TokenData","components":[{"name":"tokenType","type":"uint8","internalType":"enum TokenType"},{"name":"tokenAddress","type":"address","internalType":"address"},{"name":"tokenSubID","type":"uint256","internalType":"uint256"}]},{"name":"value","type":"uint120","internalType":"uint120"}]},{"name":"ciphertext","type":"tuple","internalType":"struct ShieldCiphertext","components":[{"name":"encryptedBundle","type":"bytes32[3]","internalType":"bytes32[3]"},{"name":"shieldKey","type":"bytes32","internalType":"bytes32"}]}]}],"outputs":[],"stateMutability":"nonpayable"}],"bytecode":{"object":"0x60a060405234801561001057600080fd5b50604051610add380380610add833981810160405281019061003291906100cf565b8073ffffffffffffffffffffffffffffffffffffffff1660808173ffffffffffffffffffffffffffffffffffffffff1681525050506100fc565b600080fd5b600073ffffffffffffffffffffffffffffffffffffffff82169050919050565b600061009c82610071565b9050919050565b6100ac81610091565b81146100b757600080fd5b50565b6000815190506100c9816100a3565b92915050565b6000602082840312156100e5576100e461006c565b5b60006100f3848285016100ba565b91505092915050565b6080516109b261012b60003960008181609e0152818161014b015281816101ce015261026101526109b26000f3fe608060405234801561001057600080fd5b50600436106100415760003560e01c8063044a40c31461004657806340fa638514610062578063aa77250e1461007e575b600080fd5b610060600480360381019061005b91906102f3565b61009c565b005b61007c600480360381019061007791906103d4565b61012d565b005b61008661025f565b60405161009391906104a7565b60405180910390f35b7f000000000000000000000000000000000000000000000000000000000000000073ffffffffffffffffffffffffffffffffffffffff1663044a40c383836040518363ffffffff1660e01b81526004016100f79291906108ac565b600060405180830381600087803b15801561011157600080fd5b505af1158015610125573d6000803e3d6000fd5b505050505050565b8373ffffffffffffffffffffffffffffffffffffffff1663095ea7b37f0000000000000000000000000000000000000000000000000000000000000000856040518363ffffffff1660e01b81526004016101889291906108ee565b6020604051808303816000875af11580156101a7573d6000803e3d6000fd5b505050506040513d601f19601f820116820180604052508101906101cb919061094f565b507f000000000000000000000000000000000000000000000000000000000000000073ffffffffffffffffffffffffffffffffffffffff1663044a40c383836040518363ffffffff1660e01b81526004016102279291906108ac565b600060405180830381600087803b15801561024157600080fd5b505af1158015610255573d6000803e3d6000fd5b5050505050505050565b7f000000000000000000000000000000000000000000000000000000000000000081565b600080fd5b600080fd5b600080fd5b600080fd5b600080fd5b60008083601f8401126102b2576102b161028d565b5b8235905067ffffffffffffffff8111156102cf576102ce610292565b5b602083019150836101208202830111156102ec576102eb610297565b5b9250929050565b6000806020838503121561030a57610309610283565b5b600083013567ffffffffffffffff81111561032857610327610288565b5b6103348582860161029c565b92509250509250929050565b600073ffffffffffffffffffffffffffffffffffffffff82169050919050565b600061036b82610340565b9050919050565b61037b81610360565b811461038657600080fd5b50565b60008135905061039881610372565b92915050565b6000819050919050565b6103b18161039e565b81146103bc57600080fd5b50565b6000813590506103ce816103a8565b92915050565b600080600080606085870312156103ee576103ed610283565b5b60006103fc87828801610389565b945050602061040d878288016103bf565b935050604085013567ffffffffffffffff81111561042e5761042d610288565b5b61043a8782880161029c565b925092505092959194509250565b6000819050919050565b600061046d61046861046384610340565b610448565b610340565b9050919050565b600061047f82610452565b9050919050565b600061049182610474565b9050919050565b6104a181610486565b82525050565b60006020820190506104bc6000830184610498565b92915050565b600082825260208201905092915050565b6000819050919050565b600082905092915050565b6000819050919050565b6104fb816104e8565b811461050657600080fd5b50565b600081359050610518816104f2565b92915050565b600061052d6020840184610509565b905092915050565b61053e816104e8565b82525050565b600082905092915050565b6003811061055c57600080fd5b50565b60008135905061056e8161054f565b92915050565b6000610583602084018461055f565b905092915050565b7f4e487b7100000000000000000000000000000000000000000000000000000000600052602160045260246000fd5b600381106105cb576105ca61058b565b5b50565b60008190506105dc826105ba565b919050565b60006105ec826105ce565b9050919050565b6105fc816105e1565b82525050565b60006106116020840184610389565b905092915050565b61062281610360565b82525050565b600061063760208401846103bf565b905092915050565b6106488161039e565b82525050565b6060820161065f6000830183610574565b61066c60008501826105f3565b5061067a6020830183610602565b6106876020850182610619565b506106956040830183610628565b6106a2604085018261063f565b50505050565b60006effffffffffffffffffffffffffffff82169050919050565b6106cc816106a8565b81146106d757600080fd5b50565b6000813590506106e9816106c3565b92915050565b60006106fe60208401846106da565b905092915050565b61070f816106a8565b82525050565b60a08201610726600083018361051e565b6107336000850182610535565b506107416020830183610544565b61074e602085018261064e565b5061075c60808301836106ef565b6107696080850182610706565b50505050565b600082905092915050565b600082905092915050565b82818337505050565b61079a60608383610785565b5050565b608082016107af600083018361077a565b6107bc600085018261078e565b506107ca606083018361051e565b6107d76060850182610535565b50505050565b61012082016107ef60008301836104dd565b6107fc6000850182610715565b5061080a60a083018361076f565b61081760a085018261079e565b50505050565b600061082983836107dd565b6101208301905092915050565b600082905092915050565b600061012082019050919050565b600061085b83856104c2565b9350610866826104d3565b8060005b8581101561089f5761087c8284610836565b610886888261081d565b975061089183610841565b92505060018101905061086a565b5085925050509392505050565b600060208201905081810360008301526108c781848661084f565b90509392505050565b6108d981610360565b82525050565b6108e88161039e565b82525050565b600060408201905061090360008301856108d0565b61091060208301846108df565b9392505050565b60008115159050919050565b61092c81610917565b811461093757600080fd5b50565b60008151905061094981610923565b92915050565b60006020828403121561096557610964610283565b5b60006109738482850161093a565b9150509291505056fea264697066735822122087b5efd987e7bbe1404b46acd7d7cdcf06c8c1b00172bb2e28808eb5cc709cdb64736f6c63430008110033","linkReferences":{}},"methodIdentifiers":{"approveAndShield(address,uint256,((bytes32,(uint8,address,uint256),uint120),(bytes32[3],bytes32))[])":"40fa6385","privacyPool()":"aa77250e","shield(((bytes32,(uint8,address,uint256),uint120),(bytes32[3],bytes32))[])":"044a40c3"},"id":41}