{
  "_format": "hh-sol-artifact-1",
  "contractName": "PausableUpgradableProxy",
  "sourceName": "contracts/railgun/proxy/Proxy.sol",
  "abi": [
    {
      "inputs": [
        {
          "internalType": "address",
          "name": "_admin",
          "type": "address"
        }
      ],
      "stateMutability": "nonpayable",
      "type": "constructor"
    },
    {
      "anonymous": false,
      "inputs": [
        {
          "indexed": false,
          "internalType": "address",
          "name": "previousOwner",
          "type": "address"
        },
        {
          "indexed": false,
          "internalType": "address",
          "name": "newOwner",
          "type": "address"
        }
      ],
      "name": "ProxyOwnershipTransfer",
      "type": "event"
    },
    {
      "anonymous": false,
      "inputs": [],
      "name": "ProxyPause",
      "type": "event"
    },
    {
      "anonymous": false,
      "inputs": [],
      "name": "ProxyUnpause",
      "type": "event"
    },
    {
      "anonymous": false,
      "inputs": [
        {
          "indexed": false,
          "internalType": "address",
          "name": "previousImplementation",
          "type": "address"
        },
        {
          "indexed": false,
          "internalType": "address",
          "name": "newImplementation",
          "type": "address"
        }
      ],
      "name": "ProxyUpgrade",
      "type": "event"
    },
    {
      "stateMutability": "payable",
      "type": "fallback"
    },
    {
      "inputs": [],
      "name": "pause",
      "outputs": [],
      "stateMutability": "nonpayable",
      "type": "function"
    },
    {
      "inputs": [
        {
          "internalType": "address",
          "name": "_newOwner",
          "type": "address"
        }
      ],
      "name": "transferOwnership",
      "outputs": [],
      "stateMutability": "nonpayable",
      "type": "function"
    },
    {
      "inputs": [],
      "name": "unpause",
      "outputs": [],
      "stateMutability": "nonpayable",
      "type": "function"
    },
    {
      "inputs": [
        {
          "internalType": "address",
          "name": "_newImplementation",
          "type": "address"
        }
      ],
      "name": "upgrade",
      "outputs": [],
      "stateMutability": "nonpayable",
      "type": "function"
    },
    {
      "stateMutability": "payable",
      "type": "receive"
    }
  ],
  "bytecode": "0x608060405234801561001057600080fd5b5060405161075e38038061075e83398101604081905261002f91610123565b8061007061005e60017fb53127684a568b3173ae13b9f8a6016e243e63b6e8ee1178d6a717850b5d6104610153565b60001b61012060201b6100f21760201c565b80546001600160a01b0319166001600160a01b039290921691909117905560006100be61005e60017f360894a13ba1a3210667c828492db98dca3e2076cc3735a920a3ca505d382bbd610153565b80546001600160a01b0319166001600160a01b0392909216919091179055600161010b61005e827f8dea8703c3cf94703383ce38a9c894669dccd4ca8e65ddb43267aa0248711451610153565b805460ff19169115159190911790555061017a565b90565b60006020828403121561013557600080fd5b81516001600160a01b038116811461014c57600080fd5b9392505050565b8181038181111561017457634e487b7160e01b600052601160045260246000fd5b92915050565b6105d5806101896000396000f3fe6080604052600436106100435760003560e01c80630900f0101461005a5780633f4ba83a1461007a5780638456cb591461008f578063f2fde38b146100a457610052565b36610052576100506100c4565b005b6100506100c4565b34801561006657600080fd5b50610050610075366004610528565b610205565b34801561008657600080fd5b506100506102e8565b34801561009b57600080fd5b5061005061038f565b3480156100b057600080fd5b506100506100bf366004610528565b61042e565b6100f56100f260017f8dea8703c3cf94703383ce38a9c894669dccd4ca8e65ddb43267aa0248711451610558565b90565b5460ff161561014b5760405162461bcd60e51b815260206004820152601960248201527f50726f78793a20436f6e7472616374206973207061757365640000000000000060448201526064015b60405180910390fd5b600061017b6100f260017f360894a13ba1a3210667c828492db98dca3e2076cc3735a920a3ca505d382bbd610558565b546001600160a01b03169050803b6101e15760405162461bcd60e51b815260206004820152602360248201527f50726f78793a20496d706c656d656e746174696f6e20646f65736e27742065786044820152621a5cdd60ea1b6064820152608401610142565b3660008037600080366000845af43d6000803e808015610200573d6000f35b3d6000fd5b6102216100f26001600080516020610580833981519152610558565b546001600160a01b031633036102dd5760006102616100f260017f360894a13ba1a3210667c828492db98dca3e2076cc3735a920a3ca505d382bbd610558565b80549091506001600160a01b038381169116146102d9578054604080516001600160a01b03928316815291841660208301527f85aeb0b8dd2de94a068da6d2ccd785fea888eee68ec95d9a17c74446a865839d91015b60405180910390a180546001600160a01b0319166001600160a01b0383161781555b5050565b6102e56100c4565b50565b6103046100f26001600080516020610580833981519152610558565b546001600160a01b031633036103855760006103446100f260017f8dea8703c3cf94703383ce38a9c894669dccd4ca8e65ddb43267aa0248711451610558565b805490915060ff16156102e557805460ff191681556040517f5b5349b254d5540f4586f24c7afd4c990fc8a991b611d7f2c00a020a67f2f29290600090a150565b61038d6100c4565b565b6103ab6100f26001600080516020610580833981519152610558565b546001600160a01b031633036103855760006103eb6100f260017f8dea8703c3cf94703383ce38a9c894669dccd4ca8e65ddb43267aa0248711451610558565b805490915060ff166102e557805460ff191660011781556040517fa51641ae9e6ff3082f83f718f043efc36fa8eb06274cd78c3e7251af263ebb6f90600090a150565b61044a6100f26001600080516020610580833981519152610558565b546001600160a01b031633036102dd576001600160a01b0381166104c45760405162461bcd60e51b815260206004820152602b60248201527f50726f78793a2050726576656e74696e6720706f74656e7469616c206163636960448201526a3232b73a30b610313ab93760a91b6064820152608401610142565b60006104e26100f26001600080516020610580833981519152610558565b8054604080516001600160a01b03928316815291851660208301529192507fab1e9974b911ffe4a29b0d786b57a5f5defde2e77960d0e9f954b053e7de325991016102b7565b60006020828403121561053a57600080fd5b81356001600160a01b038116811461055157600080fd5b9392505050565b8181038181111561057957634e487b7160e01b600052601160045260246000fd5b9291505056feb53127684a568b3173ae13b9f8a6016e243e63b6e8ee1178d6a717850b5d6104a2646970667358221220de1700a881e46cd9091d35af0c58ab3e8908922edc645828257db015a8712f8664736f6c63430008110033",
  "linkReferences": {},
  "deployedLinkReferences": {}
}