{
  "_format": "hh-sol-artifact-1",
  "contractName": "ArmadaYieldAdapter",
  "sourceName": "contracts/yield/ArmadaYieldAdapter.sol",
  "abi": [
    {
      "inputs": [
        {
          "internalType": "address",
          "name": "_usdc",
          "type": "address"
        },
        {
          "internalType": "address",
          "name": "_vault",
          "type": "address"
        }
      ],
      "stateMutability": "nonpayable",
      "type": "constructor"
    },
    {
      "anonymous": false,
      "inputs": [
        {
          "indexed": true,
          "internalType": "address",
          "name": "user",
          "type": "address"
        },
        {
          "indexed": false,
          "internalType": "uint256",
          "name": "usdcAmount",
          "type": "uint256"
        },
        {
          "indexed": false,
          "internalType": "uint256",
          "name": "sharesMinted",
          "type": "uint256"
        }
      ],
      "name": "Lend",
      "type": "event"
    },
    {
      "anonymous": false,
      "inputs": [
        {
          "indexed": true,
          "internalType": "bytes32",
          "name": "npk",
          "type": "bytes32"
        },
        {
          "indexed": false,
          "internalType": "uint256",
          "name": "usdcAmount",
          "type": "uint256"
        },
        {
          "indexed": false,
          "internalType": "uint256",
          "name": "sharesMinted",
          "type": "uint256"
        }
      ],
      "name": "LendAndShield",
      "type": "event"
    },
    {
      "anonymous": false,
      "inputs": [
        {
          "indexed": true,
          "internalType": "address",
          "name": "oldOwner",
          "type": "address"
        },
        {
          "indexed": true,
          "internalType": "address",
          "name": "newOwner",
          "type": "address"
        }
      ],
      "name": "OwnershipTransferred",
      "type": "event"
    },
    {
      "anonymous": false,
      "inputs": [
        {
          "indexed": true,
          "internalType": "address",
          "name": "oldPool",
          "type": "address"
        },
        {
          "indexed": true,
          "internalType": "address",
          "name": "newPool",
          "type": "address"
        }
      ],
      "name": "PrivacyPoolUpdated",
      "type": "event"
    },
    {
      "anonymous": false,
      "inputs": [
        {
          "indexed": true,
          "internalType": "address",
          "name": "user",
          "type": "address"
        },
        {
          "indexed": false,
          "internalType": "uint256",
          "name": "sharesBurned",
          "type": "uint256"
        },
        {
          "indexed": false,
          "internalType": "uint256",
          "name": "usdcRedeemed",
          "type": "uint256"
        }
      ],
      "name": "Redeem",
      "type": "event"
    },
    {
      "anonymous": false,
      "inputs": [
        {
          "indexed": true,
          "internalType": "bytes32",
          "name": "npk",
          "type": "bytes32"
        },
        {
          "indexed": false,
          "internalType": "uint256",
          "name": "sharesBurned",
          "type": "uint256"
        },
        {
          "indexed": false,
          "internalType": "uint256",
          "name": "usdcRedeemed",
          "type": "uint256"
        }
      ],
      "name": "RedeemAndShield",
      "type": "event"
    },
    {
      "anonymous": false,
      "inputs": [
        {
          "indexed": true,
          "internalType": "address",
          "name": "user",
          "type": "address"
        },
        {
          "indexed": false,
          "internalType": "uint256",
          "name": "sharesBurned",
          "type": "uint256"
        },
        {
          "indexed": false,
          "internalType": "uint256",
          "name": "usdcRedeemed",
          "type": "uint256"
        },
        {
          "indexed": false,
          "internalType": "address",
          "name": "recipient",
          "type": "address"
        }
      ],
      "name": "RedeemAndUnshield",
      "type": "event"
    },
    {
      "anonymous": false,
      "inputs": [
        {
          "indexed": true,
          "internalType": "address",
          "name": "user",
          "type": "address"
        },
        {
          "indexed": false,
          "internalType": "uint256",
          "name": "sharesBurned",
          "type": "uint256"
        },
        {
          "indexed": false,
          "internalType": "uint256",
          "name": "usdcRedeemed",
          "type": "uint256"
        },
        {
          "indexed": false,
          "internalType": "uint32",
          "name": "destinationDomain",
          "type": "uint32"
        },
        {
          "indexed": false,
          "internalType": "address",
          "name": "finalRecipient",
          "type": "address"
        },
        {
          "indexed": false,
          "internalType": "uint64",
          "name": "cctpNonce",
          "type": "uint64"
        }
      ],
      "name": "RedeemAndUnshieldCCTP",
      "type": "event"
    },
    {
      "anonymous": false,
      "inputs": [
        {
          "indexed": true,
          "internalType": "address",
          "name": "relayer",
          "type": "address"
        },
        {
          "indexed": false,
          "internalType": "bool",
          "name": "authorized",
          "type": "bool"
        }
      ],
      "name": "RelayerUpdated",
      "type": "event"
    },
    {
      "anonymous": false,
      "inputs": [
        {
          "indexed": true,
          "internalType": "address",
          "name": "oldMessenger",
          "type": "address"
        },
        {
          "indexed": true,
          "internalType": "address",
          "name": "newMessenger",
          "type": "address"
        }
      ],
      "name": "TokenMessengerUpdated",
      "type": "event"
    },
    {
      "inputs": [
        {
          "internalType": "uint256",
          "name": "amount",
          "type": "uint256"
        }
      ],
      "name": "lend",
      "outputs": [
        {
          "internalType": "uint256",
          "name": "shares",
          "type": "uint256"
        }
      ],
      "stateMutability": "nonpayable",
      "type": "function"
    },
    {
      "inputs": [
        {
          "components": [
            {
              "components": [
                {
                  "components": [
                    {
                      "internalType": "uint256",
                      "name": "x",
                      "type": "uint256"
                    },
                    {
                      "internalType": "uint256",
                      "name": "y",
                      "type": "uint256"
                    }
                  ],
                  "internalType": "struct G1Point",
                  "name": "a",
                  "type": "tuple"
                },
                {
                  "components": [
                    {
                      "internalType": "uint256[2]",
                      "name": "x",
                      "type": "uint256[2]"
                    },
                    {
                      "internalType": "uint256[2]",
                      "name": "y",
                      "type": "uint256[2]"
                    }
                  ],
                  "internalType": "struct G2Point",
                  "name": "b",
                  "type": "tuple"
                },
                {
                  "components": [
                    {
                      "internalType": "uint256",
                      "name": "x",
                      "type": "uint256"
                    },
                    {
                      "internalType": "uint256",
                      "name": "y",
                      "type": "uint256"
                    }
                  ],
                  "internalType": "struct G1Point",
                  "name": "c",
                  "type": "tuple"
                }
              ],
              "internalType": "struct SnarkProof",
              "name": "proof",
              "type": "tuple"
            },
            {
              "internalType": "bytes32",
              "name": "merkleRoot",
              "type": "bytes32"
            },
            {
              "internalType": "bytes32[]",
              "name": "nullifiers",
              "type": "bytes32[]"
            },
            {
              "internalType": "bytes32[]",
              "name": "commitments",
              "type": "bytes32[]"
            },
            {
              "components": [
                {
                  "internalType": "uint16",
                  "name": "treeNumber",
                  "type": "uint16"
                },
                {
                  "internalType": "uint72",
                  "name": "minGasPrice",
                  "type": "uint72"
                },
                {
                  "internalType": "enum UnshieldType",
                  "name": "unshield",
                  "type": "uint8"
                },
                {
                  "internalType": "uint64",
                  "name": "chainID",
                  "type": "uint64"
                },
                {
                  "internalType": "address",
                  "name": "adaptContract",
                  "type": "address"
                },
                {
                  "internalType": "bytes32",
                  "name": "adaptParams",
                  "type": "bytes32"
                },
                {
                  "components": [
                    {
                      "internalType": "bytes32[4]",
                      "name": "ciphertext",
                      "type": "bytes32[4]"
                    },
                    {
                      "internalType": "bytes32",
                      "name": "blindedSenderViewingKey",
                      "type": "bytes32"
                    },
                    {
                      "internalType": "bytes32",
                      "name": "blindedReceiverViewingKey",
                      "type": "bytes32"
                    },
                    {
                      "internalType": "bytes",
                      "name": "annotationData",
                      "type": "bytes"
                    },
                    {
                      "internalType": "bytes",
                      "name": "memo",
                      "type": "bytes"
                    }
                  ],
                  "internalType": "struct CommitmentCiphertext[]",
                  "name": "commitmentCiphertext",
                  "type": "tuple[]"
                }
              ],
              "internalType": "struct BoundParams",
              "name": "boundParams",
              "type": "tuple"
            },
            {
              "components": [
                {
                  "internalType": "bytes32",
                  "name": "npk",
                  "type": "bytes32"
                },
                {
                  "components": [
                    {
                      "internalType": "enum TokenType",
                      "name": "tokenType",
                      "type": "uint8"
                    },
                    {
                      "internalType": "address",
                      "name": "tokenAddress",
                      "type": "address"
                    },
                    {
                      "internalType": "uint256",
                      "name": "tokenSubID",
                      "type": "uint256"
                    }
                  ],
                  "internalType": "struct TokenData",
                  "name": "token",
                  "type": "tuple"
                },
                {
                  "internalType": "uint120",
                  "name": "value",
                  "type": "uint120"
                }
              ],
              "internalType": "struct CommitmentPreimage",
              "name": "unshieldPreimage",
              "type": "tuple"
            }
          ],
          "internalType": "struct Transaction",
          "name": "_transaction",
          "type": "tuple"
        },
        {
          "internalType": "bytes32",
          "name": "_npk",
          "type": "bytes32"
        },
        {
          "components": [
            {
              "internalType": "bytes32[3]",
              "name": "encryptedBundle",
              "type": "bytes32[3]"
            },
            {
              "internalType": "bytes32",
              "name": "shieldKey",
              "type": "bytes32"
            }
          ],
          "internalType": "struct ShieldCiphertext",
          "name": "_shieldCiphertext",
          "type": "tuple"
        }
      ],
      "name": "lendAndShield",
      "outputs": [
        {
          "internalType": "uint256",
          "name": "shares",
          "type": "uint256"
        }
      ],
      "stateMutability": "nonpayable",
      "type": "function"
    },
    {
      "inputs": [
        {
          "internalType": "uint256",
          "name": "amount",
          "type": "uint256"
        },
        {
          "internalType": "address",
          "name": "user",
          "type": "address"
        }
      ],
      "name": "lendPrivate",
      "outputs": [
        {
          "internalType": "uint256",
          "name": "shares",
          "type": "uint256"
        }
      ],
      "stateMutability": "nonpayable",
      "type": "function"
    },
    {
      "inputs": [],
      "name": "owner",
      "outputs": [
        {
          "internalType": "address",
          "name": "",
          "type": "address"
        }
      ],
      "stateMutability": "view",
      "type": "function"
    },
    {
      "inputs": [
        {
          "internalType": "uint256",
          "name": "amount",
          "type": "uint256"
        }
      ],
      "name": "previewLend",
      "outputs": [
        {
          "internalType": "uint256",
          "name": "",
          "type": "uint256"
        }
      ],
      "stateMutability": "view",
      "type": "function"
    },
    {
      "inputs": [
        {
          "internalType": "uint256",
          "name": "shares",
          "type": "uint256"
        }
      ],
      "name": "previewRedeem",
      "outputs": [
        {
          "internalType": "uint256",
          "name": "",
          "type": "uint256"
        }
      ],
      "stateMutability": "view",
      "type": "function"
    },
    {
      "inputs": [],
      "name": "privacyPool",
      "outputs": [
        {
          "internalType": "address",
          "name": "",
          "type": "address"
        }
      ],
      "stateMutability": "view",
      "type": "function"
    },
    {
      "inputs": [
        {
          "components": [
            {
              "components": [
                {
                  "components": [
                    {
                      "internalType": "uint256",
                      "name": "x",
                      "type": "uint256"
                    },
                    {
                      "internalType": "uint256",
                      "name": "y",
                      "type": "uint256"
                    }
                  ],
                  "internalType": "struct G1Point",
                  "name": "a",
                  "type": "tuple"
                },
                {
                  "components": [
                    {
                      "internalType": "uint256[2]",
                      "name": "x",
                      "type": "uint256[2]"
                    },
                    {
                      "internalType": "uint256[2]",
                      "name": "y",
                      "type": "uint256[2]"
                    }
                  ],
                  "internalType": "struct G2Point",
                  "name": "b",
                  "type": "tuple"
                },
                {
                  "components": [
                    {
                      "internalType": "uint256",
                      "name": "x",
                      "type": "uint256"
                    },
                    {
                      "internalType": "uint256",
                      "name": "y",
                      "type": "uint256"
                    }
                  ],
                  "internalType": "struct G1Point",
                  "name": "c",
                  "type": "tuple"
                }
              ],
              "internalType": "struct SnarkProof",
              "name": "proof",
              "type": "tuple"
            },
            {
              "internalType": "bytes32",
              "name": "merkleRoot",
              "type": "bytes32"
            },
            {
              "internalType": "bytes32[]",
              "name": "nullifiers",
              "type": "bytes32[]"
            },
            {
              "internalType": "bytes32[]",
              "name": "commitments",
              "type": "bytes32[]"
            },
            {
              "components": [
                {
                  "internalType": "uint16",
                  "name": "treeNumber",
                  "type": "uint16"
                },
                {
                  "internalType": "uint72",
                  "name": "minGasPrice",
                  "type": "uint72"
                },
                {
                  "internalType": "enum UnshieldType",
                  "name": "unshield",
                  "type": "uint8"
                },
                {
                  "internalType": "uint64",
                  "name": "chainID",
                  "type": "uint64"
                },
                {
                  "internalType": "address",
                  "name": "adaptContract",
                  "type": "address"
                },
                {
                  "internalType": "bytes32",
                  "name": "adaptParams",
                  "type": "bytes32"
                },
                {
                  "components": [
                    {
                      "internalType": "bytes32[4]",
                      "name": "ciphertext",
                      "type": "bytes32[4]"
                    },
                    {
                      "internalType": "bytes32",
                      "name": "blindedSenderViewingKey",
                      "type": "bytes32"
                    },
                    {
                      "internalType": "bytes32",
                      "name": "blindedReceiverViewingKey",
                      "type": "bytes32"
                    },
                    {
                      "internalType": "bytes",
                      "name": "annotationData",
                      "type": "bytes"
                    },
                    {
                      "internalType": "bytes",
                      "name": "memo",
                      "type": "bytes"
                    }
                  ],
                  "internalType": "struct CommitmentCiphertext[]",
                  "name": "commitmentCiphertext",
                  "type": "tuple[]"
                }
              ],
              "internalType": "struct BoundParams",
              "name": "boundParams",
              "type": "tuple"
            },
            {
              "components": [
                {
                  "internalType": "bytes32",
                  "name": "npk",
                  "type": "bytes32"
                },
                {
                  "components": [
                    {
                      "internalType": "enum TokenType",
                      "name": "tokenType",
                      "type": "uint8"
                    },
                    {
                      "internalType": "address",
                      "name": "tokenAddress",
                      "type": "address"
                    },
                    {
                      "internalType": "uint256",
                      "name": "tokenSubID",
                      "type": "uint256"
                    }
                  ],
                  "internalType": "struct TokenData",
                  "name": "token",
                  "type": "tuple"
                },
                {
                  "internalType": "uint120",
                  "name": "value",
                  "type": "uint120"
                }
              ],
              "internalType": "struct CommitmentPreimage",
              "name": "unshieldPreimage",
              "type": "tuple"
            }
          ],
          "internalType": "struct Transaction",
          "name": "_transaction",
          "type": "tuple"
        },
        {
          "internalType": "bytes32",
          "name": "_npk",
          "type": "bytes32"
        },
        {
          "components": [
            {
              "internalType": "bytes32[3]",
              "name": "encryptedBundle",
              "type": "bytes32[3]"
            },
            {
              "internalType": "bytes32",
              "name": "shieldKey",
              "type": "bytes32"
            }
          ],
          "internalType": "struct ShieldCiphertext",
          "name": "_shieldCiphertext",
          "type": "tuple"
        }
      ],
      "name": "redeemAndShield",
      "outputs": [
        {
          "internalType": "uint256",
          "name": "assets",
          "type": "uint256"
        }
      ],
      "stateMutability": "nonpayable",
      "type": "function"
    },
    {
      "inputs": [
        {
          "internalType": "uint256",
          "name": "shares",
          "type": "uint256"
        },
        {
          "internalType": "address",
          "name": "recipient",
          "type": "address"
        }
      ],
      "name": "redeemAndUnshield",
      "outputs": [
        {
          "internalType": "uint256",
          "name": "assets",
          "type": "uint256"
        }
      ],
      "stateMutability": "nonpayable",
      "type": "function"
    },
    {
      "inputs": [
        {
          "internalType": "uint256",
          "name": "shares",
          "type": "uint256"
        },
        {
          "internalType": "uint32",
          "name": "destinationDomain",
          "type": "uint32"
        },
        {
          "internalType": "address",
          "name": "finalRecipient",
          "type": "address"
        },
        {
          "internalType": "bytes32",
          "name": "destinationCaller",
          "type": "bytes32"
        }
      ],
      "name": "redeemAndUnshieldCCTP",
      "outputs": [
        {
          "internalType": "uint256",
          "name": "assets",
          "type": "uint256"
        },
        {
          "internalType": "uint64",
          "name": "nonce",
          "type": "uint64"
        }
      ],
      "stateMutability": "nonpayable",
      "type": "function"
    },
    {
      "inputs": [
        {
          "internalType": "uint256",
          "name": "shares",
          "type": "uint256"
        },
        {
          "internalType": "address",
          "name": "user",
          "type": "address"
        }
      ],
      "name": "redeemPrivate",
      "outputs": [
        {
          "internalType": "uint256",
          "name": "assets",
          "type": "uint256"
        }
      ],
      "stateMutability": "nonpayable",
      "type": "function"
    },
    {
      "inputs": [
        {
          "internalType": "uint256",
          "name": "shares",
          "type": "uint256"
        }
      ],
      "name": "redeemShares",
      "outputs": [
        {
          "internalType": "uint256",
          "name": "assets",
          "type": "uint256"
        }
      ],
      "stateMutability": "nonpayable",
      "type": "function"
    },
    {
      "inputs": [
        {
          "internalType": "address",
          "name": "",
          "type": "address"
        }
      ],
      "name": "relayers",
      "outputs": [
        {
          "internalType": "bool",
          "name": "",
          "type": "bool"
        }
      ],
      "stateMutability": "view",
      "type": "function"
    },
    {
      "inputs": [
        {
          "internalType": "address",
          "name": "token",
          "type": "address"
        },
        {
          "internalType": "address",
          "name": "to",
          "type": "address"
        },
        {
          "internalType": "uint256",
          "name": "amount",
          "type": "uint256"
        }
      ],
      "name": "rescueTokens",
      "outputs": [],
      "stateMutability": "nonpayable",
      "type": "function"
    },
    {
      "inputs": [
        {
          "internalType": "address",
          "name": "_privacyPool",
          "type": "address"
        }
      ],
      "name": "setPrivacyPool",
      "outputs": [],
      "stateMutability": "nonpayable",
      "type": "function"
    },
    {
      "inputs": [
        {
          "internalType": "address",
          "name": "relayer",
          "type": "address"
        },
        {
          "internalType": "bool",
          "name": "authorized",
          "type": "bool"
        }
      ],
      "name": "setRelayer",
      "outputs": [],
      "stateMutability": "nonpayable",
      "type": "function"
    },
    {
      "inputs": [
        {
          "internalType": "address",
          "name": "_tokenMessenger",
          "type": "address"
        }
      ],
      "name": "setTokenMessenger",
      "outputs": [],
      "stateMutability": "nonpayable",
      "type": "function"
    },
    {
      "inputs": [],
      "name": "shareToken",
      "outputs": [
        {
          "internalType": "contract IERC20",
          "name": "",
          "type": "address"
        }
      ],
      "stateMutability": "view",
      "type": "function"
    },
    {
      "inputs": [],
      "name": "tokenMessenger",
      "outputs": [
        {
          "internalType": "address",
          "name": "",
          "type": "address"
        }
      ],
      "stateMutability": "view",
      "type": "function"
    },
    {
      "inputs": [
        {
          "internalType": "address",
          "name": "newOwner",
          "type": "address"
        }
      ],
      "name": "transferOwnership",
      "outputs": [],
      "stateMutability": "nonpayable",
      "type": "function"
    },
    {
      "inputs": [],
      "name": "usdc",
      "outputs": [
        {
          "internalType": "contract IERC20",
          "name": "",
          "type": "address"
        }
      ],
      "stateMutability": "view",
      "type": "function"
    },
    {
      "inputs": [],
      "name": "vault",
      "outputs": [
        {
          "internalType": "contract IArmadaYieldVault",
          "name": "",
          "type": "address"
        }
      ],
      "stateMutability": "view",
      "type": "function"
    }
  ],
  "bytecode": "0x60e06040523480156200001157600080fd5b506040516200368e3803806200368e8339810160408190526200003491620001ae565b60016000556001600160a01b038216620000955760405162461bcd60e51b815260206004820152601d60248201527f41726d6164615969656c64416461707465723a207a65726f207573646300000060448201526064015b60405180910390fd5b6001600160a01b038116620000ed5760405162461bcd60e51b815260206004820152601e60248201527f41726d6164615969656c64416461707465723a207a65726f207661756c74000060448201526064016200008c565b6001600160a01b03828116608081905290821660a081905260c0819052600180546001600160a01b0319163317905560405163095ea7b360e01b81526004810191909152600019602482015263095ea7b3906044016020604051808303816000875af115801562000162573d6000803e3d6000fd5b505050506040513d601f19601f82011682018060405250810190620001889190620001e6565b50505062000211565b80516001600160a01b0381168114620001a957600080fd5b919050565b60008060408385031215620001c257600080fd5b620001cd8362000191565b9150620001dd6020840162000191565b90509250929050565b600060208284031215620001f957600080fd5b815180151581146200020a57600080fd5b9392505050565b60805160a05160c0516133826200030c60003960008181610262015281816104820152818161066301528181610a4501528181610cd301528181611153015281816114d701528181611a940152611b3b01526000818161036d01528181610634015281816106e801528181610a1601528181610aca01528181610ca401528181610d5801528181610fce015281816110b50152818161127f01528181611383015281816114a80152818161155c0152818161173401526119ca0152600081816101ca015281816107b90152818161086001528181610e330152818161123b015281816115e70152818161181a0152611dcf01526133826000f3fe608060405234801561001057600080fd5b50600436106101425760003560e01c8063a6aa57ce116100b8578063ecd8dc3a1161007c578063ecd8dc3a14610309578063edc063891461031c578063f2987ad11461032f578063f2fde38b14610342578063f586384f14610355578063fbfa77cf1461036857600080fd5b8063a6aa57ce146102aa578063aa77250e146102bd578063adba9804146102d0578063b423e94e146102e3578063cea9d26f146102f657600080fd5b8063461178301161010a57806346117830146102045780634cdad506146102175780635300f8411461022a5780636c9fa59e1461025d5780638da5cb5b14610284578063917c99a61461029757600080fd5b80630793b70e14610147578063249f8d401461016d5780632d8b712c146101805780632f8b34e1146101b05780633e413bee146101c5575b600080fd5b61015a610155366004612317565b61038f565b6040519081526020015b60405180910390f35b61015a61017b366004612396565b610982565b61019361018e3660046123c2565b610ba8565b604080519283526001600160401b03909116602083015201610164565b6101c36101be366004612411565b610f2f565b005b6101ec7f000000000000000000000000000000000000000000000000000000000000000081565b6040516001600160a01b039091168152602001610164565b6004546101ec906001600160a01b031681565b61015a61022536600461242c565b610fb5565b61024d610238366004612411565b60026020526000908152604090205460ff1681565b6040519015158152602001610164565b6101ec7f000000000000000000000000000000000000000000000000000000000000000081565b6001546101ec906001600160a01b031681565b61015a6102a5366004612396565b611042565b61015a6102b836600461242c565b611204565b6003546101ec906001600160a01b031681565b61015a6102de36600461242c565b611342565b61015a6102f1366004612396565b61143a565b6101c3610304366004612445565b61164f565b6101c361031736600461248f565b611692565b61015a61032a36600461242c565b61171b565b61015a61033d366004612317565b61176b565b6101c3610350366004612411565b611c45565b6101c3610363366004612411565b611d21565b6101ec7f000000000000000000000000000000000000000000000000000000000000000081565b6000610399611e41565b6003546001600160a01b03166103ca5760405162461bcd60e51b81526004016103c1906124c6565b60405180910390fd5b306103d9610160860186612508565b6103ea9060a0810190608001612411565b6001600160a01b0316146104105760405162461bcd60e51b81526004016103c190612528565b61045c610421610160860186612508565b60a001358484600001600380602002604051908101604052809291908260036020028082843760009201919091525050506060860135611e9a565b6104785760405162461bcd60e51b81526004016103c190612571565b6001600160a01b037f0000000000000000000000000000000000000000000000000000000000000000166104b46101e086016101c08701612411565b6001600160a01b03161461051f5760405162461bcd60e51b815260206004820152602c60248201527f41726d6164615969656c64416461707465723a206e6f7420736861726520746f60448201526b1ad95b881d5b9cda1a595b1960a21b60648201526084016103c1565b604080516001808252818301909252600091816020015b61053e612183565b81526020019060019003908161053657905050905061055c85612bfc565b8160008151811061056f5761056f612cc1565b6020908102919091010152600354604051636c5709b560e11b81526001600160a01b039091169063d8ae136a906105aa908490600401612f20565b600060405180830381600087803b1580156105c457600080fd5b505af11580156105d8573d6000803e3d6000fd5b50600092506105f29150506102208701610200880161303f565b6001600160781b031690506000811161061d5760405162461bcd60e51b81526004016103c19061305a565b60405163095ea7b360e01b81526001600160a01b037f000000000000000000000000000000000000000000000000000000000000000081166004830152602482018390527f0000000000000000000000000000000000000000000000000000000000000000169063095ea7b3906044016020604051808303816000875af11580156106ac573d6000803e3d6000fd5b505050506040513d601f19601f820116820180604052508101906106d09190613091565b50604051635d043b2960e11b81526001600160a01b037f0000000000000000000000000000000000000000000000000000000000000000169063ba08765290610721908490309081906004016130ae565b6020604051808303816000875af1158015610740573d6000803e3d6000fd5b505050506040513d601f19601f8201168201806040525081019061076491906130cd565b60408051600180825281830190925291945060009190816020015b610787612203565b81526020019060019003908161077f5750506040805160a08101825280820189815282516060808201855260008083527f00000000000000000000000000000000000000000000000000000000000000006001600160a01b0316602080850191909152958301528301526001600160781b038816608083015281529192508101610816368890038801886130e6565b8152508160008151811061082c5761082c612cc1565b602090810291909101015260035460405163095ea7b360e01b81526001600160a01b039182166004820152602481018690527f00000000000000000000000000000000000000000000000000000000000000009091169063095ea7b3906044016020604051808303816000875af11580156108ab573d6000803e3d6000fd5b505050506040513d601f19601f820116820180604052508101906108cf9190613091565b5060035460405163044a40c360e01b81526001600160a01b039091169063044a40c390610900908490600401613195565b600060405180830381600087803b15801561091a57600080fd5b505af115801561092e573d6000803e3d6000fd5b505060408051858152602081018890528993507f38348053c14a8a231cb682249c6b2db1b69546d2ab76277b5f25214904c07af79250015b60405180910390a250505061097b6001600055565b9392505050565b3360009081526002602052604081205460ff166109b15760405162461bcd60e51b81526004016103c190613201565b6109b9611e41565b600083116109d95760405162461bcd60e51b81526004016103c19061305a565b6001600160a01b0382166109ff5760405162461bcd60e51b81526004016103c190613238565b60405163095ea7b360e01b81526001600160a01b037f000000000000000000000000000000000000000000000000000000000000000081166004830152602482018590527f0000000000000000000000000000000000000000000000000000000000000000169063095ea7b3906044016020604051808303816000875af1158015610a8e573d6000803e3d6000fd5b505050506040513d601f19601f82011682018060405250810190610ab29190613091565b50604051635d043b2960e11b81526001600160a01b037f0000000000000000000000000000000000000000000000000000000000000000169063ba08765290610b03908690869030906004016130ae565b6020604051808303816000875af1158015610b22573d6000803e3d6000fd5b505050506040513d601f19601f82011682018060405250810190610b4691906130cd565b60408051858152602081018390526001600160a01b0385169181019190915290915033907ff5704ab5bc802018ba0db8a052bb1fbdc7657d7ba66a137addf4919668d5969e906060015b60405180910390a2610ba26001600055565b92915050565b33600090815260026020526040812054819060ff16610bd95760405162461bcd60e51b81526004016103c190613201565b610be1611e41565b60008611610c015760405162461bcd60e51b81526004016103c19061305a565b6001600160a01b038416610c275760405162461bcd60e51b81526004016103c190613238565b6004546001600160a01b0316610c8d5760405162461bcd60e51b815260206004820152602560248201527f41726d6164615969656c64416461707465723a206e6f20746f6b656e4d65737360448201526432b733b2b960d91b60648201526084016103c1565b60405163095ea7b360e01b81526001600160a01b037f000000000000000000000000000000000000000000000000000000000000000081166004830152602482018890527f0000000000000000000000000000000000000000000000000000000000000000169063095ea7b3906044016020604051808303816000875af1158015610d1c573d6000803e3d6000fd5b505050506040513d601f19601f82011682018060405250810190610d409190613091565b50604051635d043b2960e11b81526001600160a01b037f0000000000000000000000000000000000000000000000000000000000000000169063ba08765290610d91908990309081906004016130ae565b6020604051808303816000875af1158015610db0573d6000803e3d6000fd5b505050506040513d601f19601f82011682018060405250810190610dd491906130cd565b6004549092506001600160a01b0316638e0250ee8387610dfa886001600160a01b031690565b6040516001600160e01b031960e086901b168152600481019390935263ffffffff91909116602483015260448201526001600160a01b037f000000000000000000000000000000000000000000000000000000000000000016606482015260848101869052600060a48201526107d060c482015260e4016020604051808303816000875af1158015610e90573d6000803e3d6000fd5b505050506040513d601f19601f82011682018060405250810190610eb4919061327a565b604080518881526020810185905263ffffffff8816818301526001600160a01b03871660608201526001600160401b0383166080820152905191925033917f0fe60fb91e1b8a5517138c8e9371748228df4961774d94940fc1787a789c24c89181900360a00190a2610f266001600055565b94509492505050565b6001546001600160a01b03163314610f595760405162461bcd60e51b81526004016103c190613297565b6003546040516001600160a01b038084169216907fc877467b86b05b4d921f7f3af7eaec98288b4be820938c0b133682a25e1d8e4c90600090a3600380546001600160a01b0319166001600160a01b0392909216919091179055565b6040516303d1689d60e11b8152600481018290526000907f00000000000000000000000000000000000000000000000000000000000000006001600160a01b0316906307a2d13a906024015b602060405180830381865afa15801561101e573d6000803e3d6000fd5b505050506040513d601f19601f82011682018060405250810190610ba291906130cd565b3360009081526002602052604081205460ff166110715760405162461bcd60e51b81526004016103c190613201565b611079611e41565b600083116110995760405162461bcd60e51b81526004016103c1906132ce565b604051636e553f6560e01b8152600481018490523060248201527f00000000000000000000000000000000000000000000000000000000000000006001600160a01b031690636e553f65906044016020604051808303816000875af1158015611106573d6000803e3d6000fd5b505050506040513d601f19601f8201168201806040525081019061112a91906130cd565b60405163a9059cbb60e01b81526001600160a01b038481166004830152602482018390529192507f00000000000000000000000000000000000000000000000000000000000000009091169063a9059cbb906044016020604051808303816000875af115801561119e573d6000803e3d6000fd5b505050506040513d601f19601f820116820180604052508101906111c29190613091565b5060408051848152602081018390526001600160a01b038416917f8fff79b574da9a93d7a5408c2fc00c4a9b2b462321c1659b2fbbb9ff3dd221ff9101610b90565b600061120e611e41565b6000821161122e5760405162461bcd60e51b81526004016103c1906132ce565b6112636001600160a01b037f000000000000000000000000000000000000000000000000000000000000000016333085611eb4565b604051636e553f6560e01b8152600481018390523360248201527f00000000000000000000000000000000000000000000000000000000000000006001600160a01b031690636e553f65906044016020604051808303816000875af11580156112d0573d6000803e3d6000fd5b505050506040513d601f19601f820116820180604052508101906112f491906130cd565b604080518481526020810183905291925033917f8fff79b574da9a93d7a5408c2fc00c4a9b2b462321c1659b2fbbb9ff3dd221ff91015b60405180910390a261133d6001600055565b919050565b600061134c611e41565b6000821161136c5760405162461bcd60e51b81526004016103c19061305a565b604051635d043b2960e11b81526001600160a01b037f0000000000000000000000000000000000000000000000000000000000000000169063ba087652906113bc908590339081906004016130ae565b6020604051808303816000875af11580156113db573d6000803e3d6000fd5b505050506040513d601f19601f820116820180604052508101906113ff91906130cd565b604080518481526020810183905291925033917fe5b754fb1abb7f01b499791d0b820ae3b6af3424ac1c59768edb53f4ec31a929910161132b565b3360009081526002602052604081205460ff166114695760405162461bcd60e51b81526004016103c190613201565b611471611e41565b600083116114915760405162461bcd60e51b81526004016103c19061305a565b60405163095ea7b360e01b81526001600160a01b037f000000000000000000000000000000000000000000000000000000000000000081166004830152602482018590527f0000000000000000000000000000000000000000000000000000000000000000169063095ea7b3906044016020604051808303816000875af1158015611520573d6000803e3d6000fd5b505050506040513d601f19601f820116820180604052508101906115449190613091565b50604051635d043b2960e11b81526001600160a01b037f0000000000000000000000000000000000000000000000000000000000000000169063ba08765290611595908690309081906004016130ae565b6020604051808303816000875af11580156115b4573d6000803e3d6000fd5b505050506040513d601f19601f820116820180604052508101906115d891906130cd565b905061160e6001600160a01b037f0000000000000000000000000000000000000000000000000000000000000000168383611f25565b60408051848152602081018390526001600160a01b038416917fe5b754fb1abb7f01b499791d0b820ae3b6af3424ac1c59768edb53f4ec31a9299101610b90565b6001546001600160a01b031633146116795760405162461bcd60e51b81526004016103c190613297565b61168d6001600160a01b0384168383611f25565b505050565b6001546001600160a01b031633146116bc5760405162461bcd60e51b81526004016103c190613297565b6001600160a01b038216600081815260026020908152604091829020805460ff191685151590811790915591519182527f4b36b2e66f38ed349bec532105790177f1283bcbc094e6cd48565195d3033c43910160405180910390a25050565b6040516363737ac960e11b8152600481018290526000907f00000000000000000000000000000000000000000000000000000000000000006001600160a01b03169063c6e6f59290602401611001565b6000611775611e41565b6003546001600160a01b031661179d5760405162461bcd60e51b81526004016103c1906124c6565b306117ac610160860186612508565b6117bd9060a0810190608001612411565b6001600160a01b0316146117e35760405162461bcd60e51b81526004016103c190612528565b6117f4610421610160860186612508565b6118105760405162461bcd60e51b81526004016103c190612571565b6001600160a01b037f00000000000000000000000000000000000000000000000000000000000000001661184c6101e086016101c08701612411565b6001600160a01b0316146118b05760405162461bcd60e51b815260206004820152602560248201527f41726d6164615969656c64416461707465723a206e6f74205553444320756e736044820152641a1a595b1960da1b60648201526084016103c1565b604080516001808252818301909252600091816020015b6118cf612183565b8152602001906001900390816118c75790505090506118ed85612bfc565b8160008151811061190057611900612cc1565b6020908102919091010152600354604051636c5709b560e11b81526001600160a01b039091169063d8ae136a9061193b908490600401612f20565b600060405180830381600087803b15801561195557600080fd5b505af1158015611969573d6000803e3d6000fd5b50600092506119839150506102208701610200880161303f565b6001600160781b03169050600081116119ae5760405162461bcd60e51b81526004016103c1906132ce565b604051636e553f6560e01b8152600481018290523060248201527f00000000000000000000000000000000000000000000000000000000000000006001600160a01b031690636e553f65906044016020604051808303816000875af1158015611a1b573d6000803e3d6000fd5b505050506040513d601f19601f82011682018060405250810190611a3f91906130cd565b60408051600180825281830190925291945060009190816020015b611a62612203565b815260200190600190039081611a5a5750506040805160a08101825280820189815282516060808201855260008083527f00000000000000000000000000000000000000000000000000000000000000006001600160a01b0316602080850191909152958301528301526001600160781b038816608083015281529192508101611af1368890038801886130e6565b81525081600081518110611b0757611b07612cc1565b602090810291909101015260035460405163095ea7b360e01b81526001600160a01b039182166004820152602481018690527f00000000000000000000000000000000000000000000000000000000000000009091169063095ea7b3906044016020604051808303816000875af1158015611b86573d6000803e3d6000fd5b505050506040513d601f19601f82011682018060405250810190611baa9190613091565b5060035460405163044a40c360e01b81526001600160a01b039091169063044a40c390611bdb908490600401613195565b600060405180830381600087803b158015611bf557600080fd5b505af1158015611c09573d6000803e3d6000fd5b505060408051858152602081018890528993507f01d8ecbb4f71eb15a38bc60c356da93b32eb7c5e7220d532b4049eedfbc31549925001610966565b6001546001600160a01b03163314611c6f5760405162461bcd60e51b81526004016103c190613297565b6001600160a01b038116611cc55760405162461bcd60e51b815260206004820152601e60248201527f41726d6164615969656c64416461707465723a207a65726f206f776e6572000060448201526064016103c1565b6001546040516001600160a01b038084169216907f8be0079c531659141344cd1fd0a4f28419497f9722a3daafe3b4186f6b6457e090600090a3600180546001600160a01b0319166001600160a01b0392909216919091179055565b6001546001600160a01b03163314611d4b5760405162461bcd60e51b81526004016103c190613297565b6004546040516001600160a01b038084169216907f7e9741fdd4dc07cfcfd6902e9698c2ef0b5cc6c93df7de7a18b18c24863f65a990600090a3600480546001600160a01b0319166001600160a01b03831690811790915515611e3e5760405163095ea7b360e01b81526001600160a01b03828116600483015260001960248301527f0000000000000000000000000000000000000000000000000000000000000000169063095ea7b3906044016020604051808303816000875af1158015611e18573d6000803e3d6000fd5b505050506040513d601f19601f82011682018060405250810190611e3c9190613091565b505b50565b600260005403611e935760405162461bcd60e51b815260206004820152601f60248201527f5265656e7472616e637947756172643a207265656e7472616e742063616c6c0060448201526064016103c1565b6002600055565b6000611ea7848484611f55565b851490505b949350505050565b6040516001600160a01b0380851660248301528316604482015260648101829052611f1f9085906323b872dd60e01b906084015b60408051601f198184030181529190526020810180516001600160e01b03166001600160e01b031990931692909217909152611f8b565b50505050565b6040516001600160a01b03831660248201526044810182905261168d90849063a9059cbb60e01b90606401611ee8565b6000838383604051602001611f6c93929190613305565b6040516020818303038152906040528051906020012090509392505050565b6000611fe0826040518060400160405280602081526020017f5361666545524332303a206c6f772d6c6576656c2063616c6c206661696c6564815250856001600160a01b03166120609092919063ffffffff16565b90508051600014806120015750808060200190518101906120019190613091565b61168d5760405162461bcd60e51b815260206004820152602a60248201527f5361666545524332303a204552433230206f7065726174696f6e20646964206e6044820152691bdd081cdd58d8d9595960b21b60648201526084016103c1565b6060611eac848460008585600080866001600160a01b031685876040516120879190613327565b60006040518083038185875af1925050503d80600081146120c4576040519150601f19603f3d011682016040523d82523d6000602084013e6120c9565b606091505b50915091506120da878383876120e5565b979650505050505050565b6060831561215457825160000361214d576001600160a01b0385163b61214d5760405162461bcd60e51b815260206004820152601d60248201527f416464726573733a2063616c6c20746f206e6f6e2d636f6e747261637400000060448201526064016103c1565b5081611eac565b611eac83838151156121695781518083602001fd5b8060405162461bcd60e51b81526004016103c19190613339565b6040518060c00160405280612196612223565b815260006020820152606060408201819052808201526080016121f16040805160e081018252600080825260208201819052909182019081526000602082018190526040820181905260608083019190915260809091015290565b81526020016121fe61226f565b905290565b604051806040016040528061221661226f565b81526020016121fe6122a8565b6040805160a08101909152600060608201818152608083019190915281526020810161224d6122bb565b81526020016121fe604051806040016040528060008152602001600081525090565b604080516060808201835260008083528351918201845280825260208281018290529382015290918201905b8152600060209091015290565b604051806040016040528061229b6122db565b60405180604001604052806122ce6122f9565b81526020016121fe6122f9565b60405180606001604052806003906020820280368337509192915050565b60405180604001604052806002906020820280368337509192915050565b600080600083850360c081121561232d57600080fd5b84356001600160401b0381111561234357600080fd5b8501610220818803121561235657600080fd5b9350602085013592506080603f198201121561237157600080fd5b506040840190509250925092565b80356001600160a01b038116811461133d57600080fd5b600080604083850312156123a957600080fd5b823591506123b96020840161237f565b90509250929050565b600080600080608085870312156123d857600080fd5b84359350602085013563ffffffff811681146123f357600080fd5b92506124016040860161237f565b9396929550929360600135925050565b60006020828403121561242357600080fd5b61097b8261237f565b60006020828403121561243e57600080fd5b5035919050565b60008060006060848603121561245a57600080fd5b6124638461237f565b92506124716020850161237f565b9150604084013590509250925092565b8015158114611e3e57600080fd5b600080604083850312156124a257600080fd5b6124ab8361237f565b915060208301356124bb81612481565b809150509250929050565b60208082526022908201527f41726d6164615969656c64416461707465723a206e6f2070726976616379506f6040820152611bdb60f21b606082015260800190565b6000823560de1983360301811261251e57600080fd5b9190910192915050565b60208082526029908201527f41726d6164615969656c64416461707465723a20696e76616c696420616461706040820152681d10dbdb9d1c9858dd60ba1b606082015260800190565b60208082526028908201527f41726d6164615969656c64416461707465723a206164617074506172616d73206040820152670dad2e6dac2e8c6d60c31b606082015260800190565b634e487b7160e01b600052604160045260246000fd5b604080519081016001600160401b03811182821017156125f1576125f16125b9565b60405290565b604051606081016001600160401b03811182821017156125f1576125f16125b9565b60405160a081016001600160401b03811182821017156125f1576125f16125b9565b60405160e081016001600160401b03811182821017156125f1576125f16125b9565b60405160c081016001600160401b03811182821017156125f1576125f16125b9565b604051601f8201601f191681016001600160401b03811182821017156126a7576126a76125b9565b604052919050565b6000604082840312156126c157600080fd5b6126c96125cf565b9050813581526020820135602082015292915050565b600082601f8301126126f057600080fd5b604051604081018181106001600160401b0382111715612712576127126125b9565b806040525080604084018581111561272957600080fd5b845b8181101561274357803583526020928301920161272b565b509195945050505050565b600081830361010081121561276257600080fd5b61276a6125f7565b915061277684846126af565b82526080603f198201121561278a57600080fd5b50604051604081018181106001600160401b03821117156127ad576127ad6125b9565b80604052506127bf84604085016126df565b81526127ce84608085016126df565b6020820152806020830152506127e78360c084016126af565b604082015292915050565b60006001600160401b0382111561280b5761280b6125b9565b5060051b60200190565b600082601f83011261282657600080fd5b8135602061283b612836836127f2565b61267f565b82815260059290921b8401810191818101908684111561285a57600080fd5b8286015b84811015612875578035835291830191830161285e565b509695505050505050565b803561ffff8116811461133d57600080fd5b803568ffffffffffffffffff8116811461133d57600080fd5b60038110611e3e57600080fd5b803561133d816128ab565b6001600160401b0381168114611e3e57600080fd5b803561133d816128c3565b6000604051608081018181106001600160401b0382111715612907576129076125b9565b604052905080608083018481111561291e57600080fd5b835b81811015612938578035835260209283019201612920565b50505092915050565b600082601f83011261295257600080fd5b81356001600160401b0381111561296b5761296b6125b9565b61297e601f8201601f191660200161267f565b81815284602083860101111561299357600080fd5b816020850160208301376000918101602001919091529392505050565b600082601f8301126129c157600080fd5b813560206129d1612836836127f2565b82815260059290921b840181019181810190868411156129f057600080fd5b8286015b848110156128755780356001600160401b0380821115612a145760008081fd5b90880190610100828b03601f1901811315612a2f5760008081fd5b612a37612619565b8b603f850112612a475760008081fd5b612a538c8986016128e3565b815260a08401358882015260c0840135604082015260e084013583811115612a7b5760008081fd5b612a898d8a83880101612941565b606083015250908301359082821115612aa25760008081fd5b612ab08c8984870101612941565b608082015286525050509183019183016129f4565b600060e08284031215612ad757600080fd5b612adf61263b565b9050612aea82612880565b8152612af860208301612892565b6020820152612b09604083016128b8565b6040820152612b1a606083016128d8565b6060820152612b2b6080830161237f565b608082015260a082013560a082015260c08201356001600160401b03811115612b5357600080fd5b612b5f848285016129b0565b60c08301525092915050565b80356001600160781b038116811461133d57600080fd5b600081830360a0811215612b9557600080fd5b612b9d6125f7565b8335815291506060601f1982011215612bb557600080fd5b50612bbe6125f7565b6020830135612bcc816128ab565b8152612bda6040840161237f565b602082015260608301356040820152806020830152506127e760808301612b6b565b60006102208236031215612c0f57600080fd5b612c1761265d565b612c21368461274e565b815261010083013560208201526101208301356001600160401b0380821115612c4957600080fd5b612c5536838701612815565b6040840152610140850135915080821115612c6f57600080fd5b612c7b36838701612815565b6060840152610160850135915080821115612c9557600080fd5b50612ca236828601612ac5565b608083015250612cb6366101808501612b82565b60a082015292915050565b634e487b7160e01b600052603260045260246000fd5b8060005b6002811015611f1f578151845260209384019390910190600101612cdb565b600081518084526020808501945080840160005b83811015612d2a57815187529582019590820190600101612d0e565b509495945050505050565b60038110611e3e57634e487b7160e01b600052602160045260246000fd5b60005b83811015612d6e578181015183820152602001612d56565b50506000910152565b60008151808452612d8f816020860160208601612d53565b601f01601f19169290920160200192915050565b600060e0830161ffff8351168452602068ffffffffffffffffff8185015116818601526040840151612dd481612d35565b60408601526060848101516001600160401b0316818701526080808601516001600160a01b03168188015260a0808701518189015260c08088015160e0828b01528051968790526101009690860190878b0190600581901b8c0189016000805b83811015612ebf578e830360ff190185528551805184845b6004811015612e695782518252918e0191908e0190600101612e4c565b5050508b8101518a8501526040810151898501528a8101518d89860152612e928e860182612d77565b918b015185830360e0870152919050612eab8183612d77565b978d0197968d019694505050600101612e34565b50909d9c50505050505050505050505050565b8051825260208101518051612ee681612d35565b6020848101919091528101516001600160a01b031660408085019190915290810151606084015201516001600160781b0316608090910152565b60006020808301818452808551808352604092508286019150828160051b87010184880160005b8381101561303157603f1989840301855281516102208151612f7486825180518252602090810151910152565b89810151612f858a88018251612cd7565b8a01516080612f9688820183612cd7565b918a0151805160c08901526020015160e0880152838b0151610100880152838a0151610120880184905291612fcd84890184612cfa565b935060608501519250878403610140890152612fe98484612cfa565b935080850151925050508582036101608701526130068282612da3565b91505060a0820151915061301e610180860183612ed2565b9588019593505090860190600101612f47565b509098975050505050505050565b60006020828403121561305157600080fd5b61097b82612b6b565b6020808252601f908201527f41726d6164615969656c64416461707465723a207a65726f2073686172657300604082015260600190565b6000602082840312156130a357600080fd5b815161097b81612481565b9283526001600160a01b03918216602084015216604082015260600190565b6000602082840312156130df57600080fd5b5051919050565b6000608082840312156130f857600080fd5b6131006125cf565b83601f84011261310f57600080fd5b604051606081018181106001600160401b0382111715613131576131316125b9565b60405280606085018681111561314657600080fd5b855b81811015613160578035835260209283019201613148565b50918352503560208201529392505050565b8060005b6003811015611f1f578151845260209384019390910190600101613176565b6020808252825182820181905260009190848201906040850190845b818110156131f55783516131c6848251612ed2565b85015180516131d99060a0860190613172565b85015161010084015292840192610120909201916001016131b1565b50909695505050505050565b6020808252601f908201527f41726d6164615969656c64416461707465723a206e6f742072656c6179657200604082015260600190565b60208082526022908201527f41726d6164615969656c64416461707465723a207a65726f20726563697069656040820152611b9d60f21b606082015260800190565b60006020828403121561328c57600080fd5b815161097b816128c3565b6020808252601d908201527f41726d6164615969656c64416461707465723a206e6f74206f776e6572000000604082015260600190565b6020808252601f908201527f41726d6164615969656c64416461707465723a207a65726f20616d6f756e7400604082015260600190565b83815260a081016133196020830185613172565b826080830152949350505050565b6000825161251e818460208701612d53565b60208152600061097b6020830184612d7756fea264697066735822122096309fe77de6512b8946ecddd9f8b332258cdeac0e10a94aaf472772df6ad68164736f6c63430008110033",
  "linkReferences": {},
  "deployedLinkReferences": {}
}