{
  "_format": "hh-sol-artifact-1",
  "contractName": "ArmadaYieldAdapter",
  "sourceName": "contracts/yield/ArmadaYieldAdapter.sol",
  "abi": [
    {
      "inputs": [
        {
          "internalType": "address",
          "name": "_usdc",
          "type": "address"
        },
        {
          "internalType": "address",
          "name": "_vault",
          "type": "address"
        }
      ],
      "stateMutability": "nonpayable",
      "type": "constructor"
    },
    {
      "anonymous": false,
      "inputs": [
        {
          "indexed": true,
          "internalType": "address",
          "name": "user",
          "type": "address"
        },
        {
          "indexed": false,
          "internalType": "uint256",
          "name": "usdcAmount",
          "type": "uint256"
        },
        {
          "indexed": false,
          "internalType": "uint256",
          "name": "sharesMinted",
          "type": "uint256"
        }
      ],
      "name": "Lend",
      "type": "event"
    },
    {
      "anonymous": false,
      "inputs": [
        {
          "indexed": true,
          "internalType": "address",
          "name": "oldOwner",
          "type": "address"
        },
        {
          "indexed": true,
          "internalType": "address",
          "name": "newOwner",
          "type": "address"
        }
      ],
      "name": "OwnershipTransferred",
      "type": "event"
    },
    {
      "anonymous": false,
      "inputs": [
        {
          "indexed": true,
          "internalType": "address",
          "name": "oldPool",
          "type": "address"
        },
        {
          "indexed": true,
          "internalType": "address",
          "name": "newPool",
          "type": "address"
        }
      ],
      "name": "PrivacyPoolUpdated",
      "type": "event"
    },
    {
      "anonymous": false,
      "inputs": [
        {
          "indexed": true,
          "internalType": "address",
          "name": "user",
          "type": "address"
        },
        {
          "indexed": false,
          "internalType": "uint256",
          "name": "sharesBurned",
          "type": "uint256"
        },
        {
          "indexed": false,
          "internalType": "uint256",
          "name": "usdcRedeemed",
          "type": "uint256"
        }
      ],
      "name": "Redeem",
      "type": "event"
    },
    {
      "anonymous": false,
      "inputs": [
        {
          "indexed": true,
          "internalType": "address",
          "name": "user",
          "type": "address"
        },
        {
          "indexed": false,
          "internalType": "uint256",
          "name": "sharesBurned",
          "type": "uint256"
        },
        {
          "indexed": false,
          "internalType": "uint256",
          "name": "usdcRedeemed",
          "type": "uint256"
        },
        {
          "indexed": false,
          "internalType": "address",
          "name": "recipient",
          "type": "address"
        }
      ],
      "name": "RedeemAndUnshield",
      "type": "event"
    },
    {
      "anonymous": false,
      "inputs": [
        {
          "indexed": true,
          "internalType": "address",
          "name": "user",
          "type": "address"
        },
        {
          "indexed": false,
          "internalType": "uint256",
          "name": "sharesBurned",
          "type": "uint256"
        },
        {
          "indexed": false,
          "internalType": "uint256",
          "name": "usdcRedeemed",
          "type": "uint256"
        },
        {
          "indexed": false,
          "internalType": "uint32",
          "name": "destinationDomain",
          "type": "uint32"
        },
        {
          "indexed": false,
          "internalType": "address",
          "name": "finalRecipient",
          "type": "address"
        },
        {
          "indexed": false,
          "internalType": "uint64",
          "name": "cctpNonce",
          "type": "uint64"
        }
      ],
      "name": "RedeemAndUnshieldCCTP",
      "type": "event"
    },
    {
      "anonymous": false,
      "inputs": [
        {
          "indexed": true,
          "internalType": "address",
          "name": "relayer",
          "type": "address"
        },
        {
          "indexed": false,
          "internalType": "bool",
          "name": "authorized",
          "type": "bool"
        }
      ],
      "name": "RelayerUpdated",
      "type": "event"
    },
    {
      "anonymous": false,
      "inputs": [
        {
          "indexed": true,
          "internalType": "address",
          "name": "oldMessenger",
          "type": "address"
        },
        {
          "indexed": true,
          "internalType": "address",
          "name": "newMessenger",
          "type": "address"
        }
      ],
      "name": "TokenMessengerUpdated",
      "type": "event"
    },
    {
      "inputs": [
        {
          "internalType": "uint256",
          "name": "amount",
          "type": "uint256"
        }
      ],
      "name": "lend",
      "outputs": [
        {
          "internalType": "uint256",
          "name": "shares",
          "type": "uint256"
        }
      ],
      "stateMutability": "nonpayable",
      "type": "function"
    },
    {
      "inputs": [
        {
          "internalType": "uint256",
          "name": "amount",
          "type": "uint256"
        },
        {
          "internalType": "address",
          "name": "user",
          "type": "address"
        }
      ],
      "name": "lendPrivate",
      "outputs": [
        {
          "internalType": "uint256",
          "name": "shares",
          "type": "uint256"
        }
      ],
      "stateMutability": "nonpayable",
      "type": "function"
    },
    {
      "inputs": [],
      "name": "owner",
      "outputs": [
        {
          "internalType": "address",
          "name": "",
          "type": "address"
        }
      ],
      "stateMutability": "view",
      "type": "function"
    },
    {
      "inputs": [
        {
          "internalType": "uint256",
          "name": "amount",
          "type": "uint256"
        }
      ],
      "name": "previewLend",
      "outputs": [
        {
          "internalType": "uint256",
          "name": "",
          "type": "uint256"
        }
      ],
      "stateMutability": "view",
      "type": "function"
    },
    {
      "inputs": [
        {
          "internalType": "uint256",
          "name": "shares",
          "type": "uint256"
        }
      ],
      "name": "previewRedeem",
      "outputs": [
        {
          "internalType": "uint256",
          "name": "",
          "type": "uint256"
        }
      ],
      "stateMutability": "view",
      "type": "function"
    },
    {
      "inputs": [],
      "name": "privacyPool",
      "outputs": [
        {
          "internalType": "address",
          "name": "",
          "type": "address"
        }
      ],
      "stateMutability": "view",
      "type": "function"
    },
    {
      "inputs": [
        {
          "internalType": "uint256",
          "name": "shares",
          "type": "uint256"
        },
        {
          "internalType": "address",
          "name": "recipient",
          "type": "address"
        }
      ],
      "name": "redeemAndUnshield",
      "outputs": [
        {
          "internalType": "uint256",
          "name": "assets",
          "type": "uint256"
        }
      ],
      "stateMutability": "nonpayable",
      "type": "function"
    },
    {
      "inputs": [
        {
          "internalType": "uint256",
          "name": "shares",
          "type": "uint256"
        },
        {
          "internalType": "uint32",
          "name": "destinationDomain",
          "type": "uint32"
        },
        {
          "internalType": "address",
          "name": "finalRecipient",
          "type": "address"
        },
        {
          "internalType": "bytes32",
          "name": "destinationCaller",
          "type": "bytes32"
        }
      ],
      "name": "redeemAndUnshieldCCTP",
      "outputs": [
        {
          "internalType": "uint256",
          "name": "assets",
          "type": "uint256"
        },
        {
          "internalType": "uint64",
          "name": "nonce",
          "type": "uint64"
        }
      ],
      "stateMutability": "nonpayable",
      "type": "function"
    },
    {
      "inputs": [
        {
          "internalType": "uint256",
          "name": "shares",
          "type": "uint256"
        },
        {
          "internalType": "address",
          "name": "user",
          "type": "address"
        }
      ],
      "name": "redeemPrivate",
      "outputs": [
        {
          "internalType": "uint256",
          "name": "assets",
          "type": "uint256"
        }
      ],
      "stateMutability": "nonpayable",
      "type": "function"
    },
    {
      "inputs": [
        {
          "internalType": "uint256",
          "name": "shares",
          "type": "uint256"
        }
      ],
      "name": "redeemShares",
      "outputs": [
        {
          "internalType": "uint256",
          "name": "assets",
          "type": "uint256"
        }
      ],
      "stateMutability": "nonpayable",
      "type": "function"
    },
    {
      "inputs": [
        {
          "internalType": "address",
          "name": "",
          "type": "address"
        }
      ],
      "name": "relayers",
      "outputs": [
        {
          "internalType": "bool",
          "name": "",
          "type": "bool"
        }
      ],
      "stateMutability": "view",
      "type": "function"
    },
    {
      "inputs": [
        {
          "internalType": "address",
          "name": "token",
          "type": "address"
        },
        {
          "internalType": "address",
          "name": "to",
          "type": "address"
        },
        {
          "internalType": "uint256",
          "name": "amount",
          "type": "uint256"
        }
      ],
      "name": "rescueTokens",
      "outputs": [],
      "stateMutability": "nonpayable",
      "type": "function"
    },
    {
      "inputs": [
        {
          "internalType": "address",
          "name": "_privacyPool",
          "type": "address"
        }
      ],
      "name": "setPrivacyPool",
      "outputs": [],
      "stateMutability": "nonpayable",
      "type": "function"
    },
    {
      "inputs": [
        {
          "internalType": "address",
          "name": "relayer",
          "type": "address"
        },
        {
          "internalType": "bool",
          "name": "authorized",
          "type": "bool"
        }
      ],
      "name": "setRelayer",
      "outputs": [],
      "stateMutability": "nonpayable",
      "type": "function"
    },
    {
      "inputs": [
        {
          "internalType": "address",
          "name": "_tokenMessenger",
          "type": "address"
        }
      ],
      "name": "setTokenMessenger",
      "outputs": [],
      "stateMutability": "nonpayable",
      "type": "function"
    },
    {
      "inputs": [],
      "name": "shareToken",
      "outputs": [
        {
          "internalType": "contract IERC20",
          "name": "",
          "type": "address"
        }
      ],
      "stateMutability": "view",
      "type": "function"
    },
    {
      "inputs": [],
      "name": "tokenMessenger",
      "outputs": [
        {
          "internalType": "address",
          "name": "",
          "type": "address"
        }
      ],
      "stateMutability": "view",
      "type": "function"
    },
    {
      "inputs": [
        {
          "internalType": "address",
          "name": "newOwner",
          "type": "address"
        }
      ],
      "name": "transferOwnership",
      "outputs": [],
      "stateMutability": "nonpayable",
      "type": "function"
    },
    {
      "inputs": [],
      "name": "usdc",
      "outputs": [
        {
          "internalType": "contract IERC20",
          "name": "",
          "type": "address"
        }
      ],
      "stateMutability": "view",
      "type": "function"
    },
    {
      "inputs": [],
      "name": "vault",
      "outputs": [
        {
          "internalType": "contract IArmadaYieldVault",
          "name": "",
          "type": "address"
        }
      ],
      "stateMutability": "view",
      "type": "function"
    }
  ],
  "bytecode": "0x60e06040523480156200001157600080fd5b5060405162001d1b38038062001d1b8339810160408190526200003491620001ae565b60016000556001600160a01b038216620000955760405162461bcd60e51b815260206004820152601d60248201527f41726d6164615969656c64416461707465723a207a65726f207573646300000060448201526064015b60405180910390fd5b6001600160a01b038116620000ed5760405162461bcd60e51b815260206004820152601e60248201527f41726d6164615969656c64416461707465723a207a65726f207661756c74000060448201526064016200008c565b6001600160a01b03828116608081905290821660a081905260c0819052600180546001600160a01b0319163317905560405163095ea7b360e01b81526004810191909152600019602482015263095ea7b3906044016020604051808303816000875af115801562000162573d6000803e3d6000fd5b505050506040513d601f19601f82011682018060405250810190620001889190620001e6565b50505062000211565b80516001600160a01b0381168114620001a957600080fd5b919050565b60008060408385031215620001c257600080fd5b620001cd8362000191565b9150620001dd6020840162000191565b90509250929050565b600060208284031215620001f957600080fd5b815180151581146200020a57600080fd5b9392505050565b60805160a05160c051611a55620002c66000396000818161023a01528181610420015281816106b401528181610b6a0152610f23015260008181610332015281816103f1015281816104ba0152818161068501528181610745015281816109b501528181610acc01528181610cc601528181610dd601528181610ef401528181610fb401526111850152600081816101a20152818161081901528181610c820152818161103801526113460152611a556000f3fe608060405234801561001057600080fd5b506004361061012c5760003560e01c8063a6aa57ce116100ad578063ecd8dc3a11610071578063ecd8dc3a146102e1578063edc06389146102f4578063f2fde38b14610307578063f586384f1461031a578063fbfa77cf1461032d57600080fd5b8063a6aa57ce14610282578063aa77250e14610295578063adba9804146102a8578063b423e94e146102bb578063cea9d26f146102ce57600080fd5b80634cdad506116100f45780634cdad506146101ef5780635300f841146102025780636c9fa59e146102355780638da5cb5b1461025c578063917c99a61461026f57600080fd5b8063249f8d40146101315780632d8b712c146101575780632f8b34e1146101885780633e413bee1461019d57806346117830146101dc575b600080fd5b61014461013f36600461172e565b610354565b6040519081526020015b60405180910390f35b61016a61016536600461175a565b610589565b6040805192835267ffffffffffffffff90911660208301520161014e565b61019b6101963660046117a9565b610916565b005b6101c47f000000000000000000000000000000000000000000000000000000000000000081565b6040516001600160a01b03909116815260200161014e565b6004546101c4906001600160a01b031681565b6101446101fd3660046117cb565b61099c565b6102256102103660046117a9565b60026020526000908152604090205460ff1681565b604051901515815260200161014e565b6101c47f000000000000000000000000000000000000000000000000000000000000000081565b6001546101c4906001600160a01b031681565b61014461027d36600461172e565b610a29565b6101446102903660046117cb565b610c1b565b6003546101c4906001600160a01b031681565b6101446102b63660046117cb565b610d89565b6101446102c936600461172e565b610e86565b61019b6102dc3660046117e4565b6110a0565b61019b6102ef36600461182e565b6110e3565b6101446103023660046117cb565b61116c565b61019b6103153660046117a9565b6111bc565b61019b6103283660046117a9565b611298565b6101c47f000000000000000000000000000000000000000000000000000000000000000081565b3360009081526002602052604081205460ff1661038c5760405162461bcd60e51b815260040161038390611865565b60405180910390fd5b6103946113b8565b600083116103b45760405162461bcd60e51b81526004016103839061189c565b6001600160a01b0382166103da5760405162461bcd60e51b8152600401610383906118d3565b60405163095ea7b360e01b81526001600160a01b037f000000000000000000000000000000000000000000000000000000000000000081166004830152602482018590527f0000000000000000000000000000000000000000000000000000000000000000169063095ea7b3906044016020604051808303816000875af1158015610469573d6000803e3d6000fd5b505050506040513d601f19601f8201168201806040525081019061048d9190611915565b50604051635d043b2960e11b8152600481018490526001600160a01b0383811660248301523060448301527f0000000000000000000000000000000000000000000000000000000000000000169063ba087652906064016020604051808303816000875af1158015610503573d6000803e3d6000fd5b505050506040513d601f19601f820116820180604052508101906105279190611932565b60408051858152602081018390526001600160a01b0385169181019190915290915033907ff5704ab5bc802018ba0db8a052bb1fbdc7657d7ba66a137addf4919668d5969e906060015b60405180910390a26105836001600055565b92915050565b33600090815260026020526040812054819060ff166105ba5760405162461bcd60e51b815260040161038390611865565b6105c26113b8565b600086116105e25760405162461bcd60e51b81526004016103839061189c565b6001600160a01b0384166106085760405162461bcd60e51b8152600401610383906118d3565b6004546001600160a01b031661066e5760405162461bcd60e51b815260206004820152602560248201527f41726d6164615969656c64416461707465723a206e6f20746f6b656e4d65737360448201526432b733b2b960d91b6064820152608401610383565b60405163095ea7b360e01b81526001600160a01b037f000000000000000000000000000000000000000000000000000000000000000081166004830152602482018890527f0000000000000000000000000000000000000000000000000000000000000000169063095ea7b3906044016020604051808303816000875af11580156106fd573d6000803e3d6000fd5b505050506040513d601f19601f820116820180604052508101906107219190611915565b50604051635d043b2960e11b815260048101879052306024820181905260448201527f00000000000000000000000000000000000000000000000000000000000000006001600160a01b03169063ba087652906064016020604051808303816000875af1158015610796573d6000803e3d6000fd5b505050506040513d601f19601f820116820180604052508101906107ba9190611932565b6004549092506001600160a01b0316638e0250ee83876107e0886001600160a01b031690565b6040516001600160e01b031960e086901b168152600481019390935263ffffffff91909116602483015260448201526001600160a01b037f000000000000000000000000000000000000000000000000000000000000000016606482015260848101869052600060a48201526107d060c482015260e4016020604051808303816000875af1158015610876573d6000803e3d6000fd5b505050506040513d601f19601f8201168201806040525081019061089a919061194b565b604080518881526020810185905263ffffffff8816818301526001600160a01b038716606082015267ffffffffffffffff83166080820152905191925033917f0fe60fb91e1b8a5517138c8e9371748228df4961774d94940fc1787a789c24c89181900360a00190a261090d6001600055565b94509492505050565b6001546001600160a01b031633146109405760405162461bcd60e51b815260040161038390611975565b6003546040516001600160a01b038084169216907fc877467b86b05b4d921f7f3af7eaec98288b4be820938c0b133682a25e1d8e4c90600090a3600380546001600160a01b0319166001600160a01b0392909216919091179055565b6040516303d1689d60e11b8152600481018290526000907f00000000000000000000000000000000000000000000000000000000000000006001600160a01b0316906307a2d13a906024015b602060405180830381865afa158015610a05573d6000803e3d6000fd5b505050506040513d601f19601f820116820180604052508101906105839190611932565b3360009081526002602052604081205460ff16610a585760405162461bcd60e51b815260040161038390611865565b610a606113b8565b60008311610ab05760405162461bcd60e51b815260206004820152601f60248201527f41726d6164615969656c64416461707465723a207a65726f20616d6f756e74006044820152606401610383565b604051636e553f6560e01b8152600481018490523060248201527f00000000000000000000000000000000000000000000000000000000000000006001600160a01b031690636e553f65906044016020604051808303816000875af1158015610b1d573d6000803e3d6000fd5b505050506040513d601f19601f82011682018060405250810190610b419190611932565b60405163a9059cbb60e01b81526001600160a01b038481166004830152602482018390529192507f00000000000000000000000000000000000000000000000000000000000000009091169063a9059cbb906044016020604051808303816000875af1158015610bb5573d6000803e3d6000fd5b505050506040513d601f19601f82011682018060405250810190610bd99190611915565b5060408051848152602081018390526001600160a01b038416917f8fff79b574da9a93d7a5408c2fc00c4a9b2b462321c1659b2fbbb9ff3dd221ff9101610571565b6000610c256113b8565b60008211610c755760405162461bcd60e51b815260206004820152601f60248201527f41726d6164615969656c64416461707465723a207a65726f20616d6f756e74006044820152606401610383565b610caa6001600160a01b037f000000000000000000000000000000000000000000000000000000000000000016333085611411565b604051636e553f6560e01b8152600481018390523360248201527f00000000000000000000000000000000000000000000000000000000000000006001600160a01b031690636e553f65906044016020604051808303816000875af1158015610d17573d6000803e3d6000fd5b505050506040513d601f19601f82011682018060405250810190610d3b9190611932565b604080518481526020810183905291925033917f8fff79b574da9a93d7a5408c2fc00c4a9b2b462321c1659b2fbbb9ff3dd221ff91015b60405180910390a2610d846001600055565b919050565b6000610d936113b8565b60008211610db35760405162461bcd60e51b81526004016103839061189c565b604051635d043b2960e11b815260048101839052336024820181905260448201527f00000000000000000000000000000000000000000000000000000000000000006001600160a01b03169063ba087652906064016020604051808303816000875af1158015610e27573d6000803e3d6000fd5b505050506040513d601f19601f82011682018060405250810190610e4b9190611932565b604080518481526020810183905291925033917fe5b754fb1abb7f01b499791d0b820ae3b6af3424ac1c59768edb53f4ec31a9299101610d72565b3360009081526002602052604081205460ff16610eb55760405162461bcd60e51b815260040161038390611865565b610ebd6113b8565b60008311610edd5760405162461bcd60e51b81526004016103839061189c565b60405163095ea7b360e01b81526001600160a01b037f000000000000000000000000000000000000000000000000000000000000000081166004830152602482018590527f0000000000000000000000000000000000000000000000000000000000000000169063095ea7b3906044016020604051808303816000875af1158015610f6c573d6000803e3d6000fd5b505050506040513d601f19601f82011682018060405250810190610f909190611915565b50604051635d043b2960e11b815260048101849052306024820181905260448201527f00000000000000000000000000000000000000000000000000000000000000006001600160a01b03169063ba087652906064016020604051808303816000875af1158015611005573d6000803e3d6000fd5b505050506040513d601f19601f820116820180604052508101906110299190611932565b905061105f6001600160a01b037f0000000000000000000000000000000000000000000000000000000000000000168383611482565b60408051848152602081018390526001600160a01b038416917fe5b754fb1abb7f01b499791d0b820ae3b6af3424ac1c59768edb53f4ec31a9299101610571565b6001546001600160a01b031633146110ca5760405162461bcd60e51b815260040161038390611975565b6110de6001600160a01b0384168383611482565b505050565b6001546001600160a01b0316331461110d5760405162461bcd60e51b815260040161038390611975565b6001600160a01b038216600081815260026020908152604091829020805460ff191685151590811790915591519182527f4b36b2e66f38ed349bec532105790177f1283bcbc094e6cd48565195d3033c43910160405180910390a25050565b6040516363737ac960e11b8152600481018290526000907f00000000000000000000000000000000000000000000000000000000000000006001600160a01b03169063c6e6f592906024016109e8565b6001546001600160a01b031633146111e65760405162461bcd60e51b815260040161038390611975565b6001600160a01b03811661123c5760405162461bcd60e51b815260206004820152601e60248201527f41726d6164615969656c64416461707465723a207a65726f206f776e657200006044820152606401610383565b6001546040516001600160a01b038084169216907f8be0079c531659141344cd1fd0a4f28419497f9722a3daafe3b4186f6b6457e090600090a3600180546001600160a01b0319166001600160a01b0392909216919091179055565b6001546001600160a01b031633146112c25760405162461bcd60e51b815260040161038390611975565b6004546040516001600160a01b038084169216907f7e9741fdd4dc07cfcfd6902e9698c2ef0b5cc6c93df7de7a18b18c24863f65a990600090a3600480546001600160a01b0319166001600160a01b038316908117909155156113b55760405163095ea7b360e01b81526001600160a01b03828116600483015260001960248301527f0000000000000000000000000000000000000000000000000000000000000000169063095ea7b3906044016020604051808303816000875af115801561138f573d6000803e3d6000fd5b505050506040513d601f19601f820116820180604052508101906113b39190611915565b505b50565b60026000540361140a5760405162461bcd60e51b815260206004820152601f60248201527f5265656e7472616e637947756172643a207265656e7472616e742063616c6c006044820152606401610383565b6002600055565b6040516001600160a01b038085166024830152831660448201526064810182905261147c9085906323b872dd60e01b906084015b60408051601f198184030181529190526020810180516001600160e01b03166001600160e01b0319909316929092179091526114b2565b50505050565b6040516001600160a01b0383166024820152604481018290526110de90849063a9059cbb60e01b90606401611445565b6000611507826040518060400160405280602081526020017f5361666545524332303a206c6f772d6c6576656c2063616c6c206661696c6564815250856001600160a01b03166115879092919063ffffffff16565b90508051600014806115285750808060200190518101906115289190611915565b6110de5760405162461bcd60e51b815260206004820152602a60248201527f5361666545524332303a204552433230206f7065726174696f6e20646964206e6044820152691bdd081cdd58d8d9595960b21b6064820152608401610383565b6060611596848460008561159e565b949350505050565b6060824710156115ff5760405162461bcd60e51b815260206004820152602660248201527f416464726573733a20696e73756666696369656e742062616c616e636520666f6044820152651c8818d85b1b60d21b6064820152608401610383565b600080866001600160a01b0316858760405161161b91906119d0565b60006040518083038185875af1925050503d8060008114611658576040519150601f19603f3d011682016040523d82523d6000602084013e61165d565b606091505b509150915061166e87838387611679565b979650505050505050565b606083156116e85782516000036116e1576001600160a01b0385163b6116e15760405162461bcd60e51b815260206004820152601d60248201527f416464726573733a2063616c6c20746f206e6f6e2d636f6e74726163740000006044820152606401610383565b5081611596565b61159683838151156116fd5781518083602001fd5b8060405162461bcd60e51b815260040161038391906119ec565b80356001600160a01b0381168114610d8457600080fd5b6000806040838503121561174157600080fd5b8235915061175160208401611717565b90509250929050565b6000806000806080858703121561177057600080fd5b84359350602085013563ffffffff8116811461178b57600080fd5b925061179960408601611717565b9396929550929360600135925050565b6000602082840312156117bb57600080fd5b6117c482611717565b9392505050565b6000602082840312156117dd57600080fd5b5035919050565b6000806000606084860312156117f957600080fd5b61180284611717565b925061181060208501611717565b9150604084013590509250925092565b80151581146113b557600080fd5b6000806040838503121561184157600080fd5b61184a83611717565b9150602083013561185a81611820565b809150509250929050565b6020808252601f908201527f41726d6164615969656c64416461707465723a206e6f742072656c6179657200604082015260600190565b6020808252601f908201527f41726d6164615969656c64416461707465723a207a65726f2073686172657300604082015260600190565b60208082526022908201527f41726d6164615969656c64416461707465723a207a65726f20726563697069656040820152611b9d60f21b606082015260800190565b60006020828403121561192757600080fd5b81516117c481611820565b60006020828403121561194457600080fd5b5051919050565b60006020828403121561195d57600080fd5b815167ffffffffffffffff811681146117c457600080fd5b6020808252601d908201527f41726d6164615969656c64416461707465723a206e6f74206f776e6572000000604082015260600190565b60005b838110156119c75781810151838201526020016119af565b50506000910152565b600082516119e28184602087016119ac565b9190910192915050565b6020815260008251806020840152611a0b8160408501602087016119ac565b601f01601f1916919091016040019291505056fea2646970667358221220860df1bb2e2355fa6e3951a6d9988f9e9cb081c8a67c3b93891f3ce9ff3e6e7864736f6c63430008110033",
  "linkReferences": {},
  "deployedLinkReferences": {}
}