{
  "_format": "hh-sol-artifact-1",
  "contractName": "ArmadaTreasury",
  "sourceName": "contracts/yield/ArmadaTreasury.sol",
  "abi": [
    {
      "inputs": [],
      "stateMutability": "nonpayable",
      "type": "constructor"
    },
    {
      "anonymous": false,
      "inputs": [
        {
          "indexed": true,
          "internalType": "address",
          "name": "token",
          "type": "address"
        },
        {
          "indexed": true,
          "internalType": "address",
          "name": "from",
          "type": "address"
        },
        {
          "indexed": false,
          "internalType": "uint256",
          "name": "amount",
          "type": "uint256"
        }
      ],
      "name": "FeeReceived",
      "type": "event"
    },
    {
      "anonymous": false,
      "inputs": [
        {
          "indexed": true,
          "internalType": "address",
          "name": "oldOwner",
          "type": "address"
        },
        {
          "indexed": true,
          "internalType": "address",
          "name": "newOwner",
          "type": "address"
        }
      ],
      "name": "OwnershipTransferred",
      "type": "event"
    },
    {
      "anonymous": false,
      "inputs": [
        {
          "indexed": true,
          "internalType": "address",
          "name": "token",
          "type": "address"
        },
        {
          "indexed": true,
          "internalType": "address",
          "name": "to",
          "type": "address"
        },
        {
          "indexed": false,
          "internalType": "uint256",
          "name": "amount",
          "type": "uint256"
        }
      ],
      "name": "Withdrawn",
      "type": "event"
    },
    {
      "inputs": [
        {
          "internalType": "address",
          "name": "token",
          "type": "address"
        }
      ],
      "name": "getBalance",
      "outputs": [
        {
          "internalType": "uint256",
          "name": "",
          "type": "uint256"
        }
      ],
      "stateMutability": "view",
      "type": "function"
    },
    {
      "inputs": [
        {
          "internalType": "address",
          "name": "from",
          "type": "address"
        },
        {
          "internalType": "uint256",
          "name": "amount",
          "type": "uint256"
        },
        {
          "internalType": "bytes",
          "name": "",
          "type": "bytes"
        }
      ],
      "name": "onTokenTransfer",
      "outputs": [
        {
          "internalType": "bool",
          "name": "",
          "type": "bool"
        }
      ],
      "stateMutability": "nonpayable",
      "type": "function"
    },
    {
      "inputs": [],
      "name": "owner",
      "outputs": [
        {
          "internalType": "address",
          "name": "",
          "type": "address"
        }
      ],
      "stateMutability": "view",
      "type": "function"
    },
    {
      "inputs": [
        {
          "internalType": "address",
          "name": "token",
          "type": "address"
        },
        {
          "internalType": "address",
          "name": "from",
          "type": "address"
        },
        {
          "internalType": "uint256",
          "name": "amount",
          "type": "uint256"
        }
      ],
      "name": "recordFee",
      "outputs": [],
      "stateMutability": "nonpayable",
      "type": "function"
    },
    {
      "inputs": [
        {
          "internalType": "address",
          "name": "",
          "type": "address"
        }
      ],
      "name": "totalCollected",
      "outputs": [
        {
          "internalType": "uint256",
          "name": "",
          "type": "uint256"
        }
      ],
      "stateMutability": "view",
      "type": "function"
    },
    {
      "inputs": [
        {
          "internalType": "address",
          "name": "newOwner",
          "type": "address"
        }
      ],
      "name": "transferOwnership",
      "outputs": [],
      "stateMutability": "nonpayable",
      "type": "function"
    },
    {
      "inputs": [
        {
          "internalType": "address",
          "name": "token",
          "type": "address"
        },
        {
          "internalType": "address",
          "name": "to",
          "type": "address"
        },
        {
          "internalType": "uint256",
          "name": "amount",
          "type": "uint256"
        }
      ],
      "name": "withdraw",
      "outputs": [],
      "stateMutability": "nonpayable",
      "type": "function"
    },
    {
      "stateMutability": "payable",
      "type": "receive"
    }
  ],
  "bytecode": "0x608060405234801561001057600080fd5b50600080546001600160a01b03191633179055610974806100326000396000f3fe6080604052600436106100745760003560e01c8063d9caed121161004e578063d9caed121461010f578063f2fde38b1461012f578063f3f053131461014f578063f8b2cb4f1461018a57600080fd5b80632a355f7c146100805780638da5cb5b146100a2578063a4c0ed36146100df57600080fd5b3661007b57005b600080fd5b34801561008c57600080fd5b506100a061009b36600461078a565b6101aa565b005b3480156100ae57600080fd5b506000546100c2906001600160a01b031681565b6040516001600160a01b0390911681526020015b60405180910390f35b3480156100eb57600080fd5b506100ff6100fa3660046107c6565b61022b565b60405190151581526020016100d6565b34801561011b57600080fd5b506100a061012a36600461078a565b61029d565b34801561013b57600080fd5b506100a061014a36600461084d565b6103a7565b34801561015b57600080fd5b5061017c61016a36600461084d565b60016020526000908152604090205481565b6040519081526020016100d6565b34801561019657600080fd5b5061017c6101a536600461084d565b6104ae565b6001600160a01b038316600090815260016020526040812080548392906101d290849061086f565b92505081905550816001600160a01b0316836001600160a01b03167fb976ce971d9fe55f355fa5ff14a6ad1f520b70b700c7dcc5921ca0a64a2da26a8360405161021e91815260200190565b60405180910390a3505050565b3360009081526001602052604081208054859190839061024c90849061086f565b90915550506040518481526001600160a01b0386169033907fb976ce971d9fe55f355fa5ff14a6ad1f520b70b700c7dcc5921ca0a64a2da26a9060200160405180910390a35060015b949350505050565b6000546001600160a01b031633146102f85760405162461bcd60e51b815260206004820152601960248201527820b936b0b230aa3932b0b9bab93c9d103737ba1037bbb732b960391b60448201526064015b60405180910390fd5b6001600160a01b03821661034e5760405162461bcd60e51b815260206004820152601c60248201527f41726d61646154726561737572793a207a65726f20616464726573730000000060448201526064016102ef565b6103626001600160a01b038416838361051f565b816001600160a01b0316836001600160a01b03167fd1c19fbcd4551a5edfb66d43d2e337c04837afda3482b42bdf569a8fccdae5fb8360405161021e91815260200190565b6000546001600160a01b031633146103fd5760405162461bcd60e51b815260206004820152601960248201527820b936b0b230aa3932b0b9bab93c9d103737ba1037bbb732b960391b60448201526064016102ef565b6001600160a01b0381166104535760405162461bcd60e51b815260206004820152601c60248201527f41726d61646154726561737572793a207a65726f20616464726573730000000060448201526064016102ef565b600080546040516001600160a01b03808516939216917f8be0079c531659141344cd1fd0a4f28419497f9722a3daafe3b4186f6b6457e091a3600080546001600160a01b0319166001600160a01b0392909216919091179055565b6040516370a0823160e01b81523060048201526000906001600160a01b038316906370a0823190602401602060405180830381865afa1580156104f5573d6000803e3d6000fd5b505050506040513d601f19601f820116820180604052508101906105199190610890565b92915050565b604080516001600160a01b038416602482015260448082018490528251808303909101815260649091019091526020810180516001600160e01b031663a9059cbb60e01b179052610571908490610576565b505050565b60006105cb826040518060400160405280602081526020017f5361666545524332303a206c6f772d6c6576656c2063616c6c206661696c6564815250856001600160a01b031661064b9092919063ffffffff16565b90508051600014806105ec5750808060200190518101906105ec91906108a9565b6105715760405162461bcd60e51b815260206004820152602a60248201527f5361666545524332303a204552433230206f7065726174696f6e20646964206e6044820152691bdd081cdd58d8d9595960b21b60648201526084016102ef565b6060610295848460008585600080866001600160a01b0316858760405161067291906108ef565b60006040518083038185875af1925050503d80600081146106af576040519150601f19603f3d011682016040523d82523d6000602084013e6106b4565b606091505b50915091506106c5878383876106d0565b979650505050505050565b6060831561073f578251600003610738576001600160a01b0385163b6107385760405162461bcd60e51b815260206004820152601d60248201527f416464726573733a2063616c6c20746f206e6f6e2d636f6e747261637400000060448201526064016102ef565b5081610295565b61029583838151156107545781518083602001fd5b8060405162461bcd60e51b81526004016102ef919061090b565b80356001600160a01b038116811461078557600080fd5b919050565b60008060006060848603121561079f57600080fd5b6107a88461076e565b92506107b66020850161076e565b9150604084013590509250925092565b600080600080606085870312156107dc57600080fd5b6107e58561076e565b935060208501359250604085013567ffffffffffffffff8082111561080957600080fd5b818701915087601f83011261081d57600080fd5b81358181111561082c57600080fd5b88602082850101111561083e57600080fd5b95989497505060200194505050565b60006020828403121561085f57600080fd5b6108688261076e565b9392505050565b8082018082111561051957634e487b7160e01b600052601160045260246000fd5b6000602082840312156108a257600080fd5b5051919050565b6000602082840312156108bb57600080fd5b8151801515811461086857600080fd5b60005b838110156108e65781810151838201526020016108ce565b50506000910152565b600082516109018184602087016108cb565b9190910192915050565b602081526000825180602084015261092a8160408501602087016108cb565b601f01601f1916919091016040019291505056fea264697066735822122023181cf0b36114738b4028c2552c8c1ed52d601e4634fe3c9f30c50788022b4764736f6c63430008110033",
  "linkReferences": {},
  "deployedLinkReferences": {}
}