{"abi":[{"type":"constructor","inputs":[{"name":"_admin","type":"address","internalType":"address"}],"stateMutability":"nonpayable"},{"type":"function","name":"owner","inputs":[],"outputs":[{"name":"","type":"address","internalType":"address"}],"stateMutability":"view"},{"type":"function","name":"pause","inputs":[{"name":"_proxy","type":"address","internalType":"contract PausableUpgradableProxy"}],"outputs":[],"stateMutability":"nonpayable"},{"type":"function","name":"renounceOwnership","inputs":[],"outputs":[],"stateMutability":"nonpayable"},{"type":"function","name":"transferOwnership","inputs":[{"name":"newOwner","type":"address","internalType":"address"}],"outputs":[],"stateMutability":"nonpayable"},{"type":"function","name":"transferProxyOwnership","inputs":[{"name":"_proxy","type":"address","internalType":"contract PausableUpgradableProxy"},{"name":"_newOwner","type":"address","internalType":"address"}],"outputs":[],"stateMutability":"nonpayable"},{"type":"function","name":"unpause","inputs":[{"name":"_proxy","type":"address","internalType":"contract PausableUpgradableProxy"}],"outputs":[],"stateMutability":"nonpayable"},{"type":"function","name":"upgrade","inputs":[{"name":"_proxy","type":"address","internalType":"contract PausableUpgradableProxy"},{"name":"_newImplementation","type":"address","internalType":"address"}],"outputs":[],"stateMutability":"nonpayable"},{"type":"event","name":"OwnershipTransferred","inputs":[{"name":"previousOwner","type":"address","indexed":true,"internalType":"address"},{"name":"newOwner","type":"address","indexed":true,"internalType":"address"}],"anonymous":false}],"bytecode":{"object":"0x60806040523480156200001157600080fd5b5060405162000c1638038062000c168339818101604052810190620000379190620002fa565b620000576200004b6200007460201b60201c565b6200007c60201b60201c565b6200006d816200014060201b620003361760201c565b5062000447565b600033905090565b60008060009054906101000a900473ffffffffffffffffffffffffffffffffffffffff169050816000806101000a81548173ffffffffffffffffffffffffffffffffffffffff021916908373ffffffffffffffffffffffffffffffffffffffff1602179055508173ffffffffffffffffffffffffffffffffffffffff168173ffffffffffffffffffffffffffffffffffffffff167f8be0079c531659141344cd1fd0a4f28419497f9722a3daafe3b4186f6b6457e060405160405180910390a35050565b62000150620001d660201b60201c565b600073ffffffffffffffffffffffffffffffffffffffff168173ffffffffffffffffffffffffffffffffffffffff1603620001c2576040517f08c379a0000000000000000000000000000000000000000000000000000000008152600401620001b990620003b3565b60405180910390fd5b620001d3816200007c60201b60201c565b50565b620001e66200007460201b60201c565b73ffffffffffffffffffffffffffffffffffffffff166200020c6200026760201b60201c565b73ffffffffffffffffffffffffffffffffffffffff161462000265576040517f08c379a00000000000000000000000000000000000000000000000000000000081526004016200025c9062000425565b60405180910390fd5b565b60008060009054906101000a900473ffffffffffffffffffffffffffffffffffffffff16905090565b600080fd5b600073ffffffffffffffffffffffffffffffffffffffff82169050919050565b6000620002c28262000295565b9050919050565b620002d481620002b5565b8114620002e057600080fd5b50565b600081519050620002f481620002c9565b92915050565b60006020828403121562000313576200031262000290565b5b60006200032384828501620002e3565b91505092915050565b600082825260208201905092915050565b7f4f776e61626c653a206e6577206f776e657220697320746865207a65726f206160008201527f6464726573730000000000000000000000000000000000000000000000000000602082015250565b60006200039b6026836200032c565b9150620003a8826200033d565b604082019050919050565b60006020820190508181036000830152620003ce816200038c565b9050919050565b7f4f776e61626c653a2063616c6c6572206973206e6f7420746865206f776e6572600082015250565b60006200040d6020836200032c565b91506200041a82620003d5565b602082019050919050565b600060208201905081810360008301526200044081620003fe565b9050919050565b6107bf80620004576000396000f3fe608060405234801561001057600080fd5b506004361061007c5760003560e01c806376a67a511161005b57806376a67a51146100c35780638da5cb5b146100df57806399a88ec4146100fd578063f2fde38b146101195761007c565b8062361d551461008157806357b001f91461009d578063715018a6146100b9575b600080fd5b61009b600480360381019061009691906105b6565b610135565b005b6100b760048036038101906100b291906105f6565b6101ac565b005b6100c1610217565b005b6100dd60048036038101906100d891906105f6565b61022b565b005b6100e7610296565b6040516100f49190610632565b60405180910390f35b610117600480360381019061011291906105b6565b6102bf565b005b610133600480360381019061012e919061064d565b610336565b005b61013d6103b9565b8173ffffffffffffffffffffffffffffffffffffffff1663f2fde38b826040518263ffffffff1660e01b81526004016101769190610632565b600060405180830381600087803b15801561019057600080fd5b505af11580156101a4573d6000803e3d6000fd5b505050505050565b6101b46103b9565b8073ffffffffffffffffffffffffffffffffffffffff16633f4ba83a6040518163ffffffff1660e01b8152600401600060405180830381600087803b1580156101fc57600080fd5b505af1158015610210573d6000803e3d6000fd5b5050505050565b61021f6103b9565b6102296000610437565b565b6102336103b9565b8073ffffffffffffffffffffffffffffffffffffffff16638456cb596040518163ffffffff1660e01b8152600401600060405180830381600087803b15801561027b57600080fd5b505af115801561028f573d6000803e3d6000fd5b5050505050565b60008060009054906101000a900473ffffffffffffffffffffffffffffffffffffffff16905090565b6102c76103b9565b8173ffffffffffffffffffffffffffffffffffffffff16630900f010826040518263ffffffff1660e01b81526004016103009190610632565b600060405180830381600087803b15801561031a57600080fd5b505af115801561032e573d6000803e3d6000fd5b505050505050565b61033e6103b9565b600073ffffffffffffffffffffffffffffffffffffffff168173ffffffffffffffffffffffffffffffffffffffff16036103ad576040517f08c379a00000000000000000000000000000000000000000000000000000000081526004016103a4906106fd565b60405180910390fd5b6103b681610437565b50565b6103c16104fb565b73ffffffffffffffffffffffffffffffffffffffff166103df610296565b73ffffffffffffffffffffffffffffffffffffffff1614610435576040517f08c379a000000000000000000000000000000000000000000000000000000000815260040161042c90610769565b60405180910390fd5b565b60008060009054906101000a900473ffffffffffffffffffffffffffffffffffffffff169050816000806101000a81548173ffffffffffffffffffffffffffffffffffffffff021916908373ffffffffffffffffffffffffffffffffffffffff1602179055508173ffffffffffffffffffffffffffffffffffffffff168173ffffffffffffffffffffffffffffffffffffffff167f8be0079c531659141344cd1fd0a4f28419497f9722a3daafe3b4186f6b6457e060405160405180910390a35050565b600033905090565b600080fd5b600073ffffffffffffffffffffffffffffffffffffffff82169050919050565b600061053382610508565b9050919050565b600061054582610528565b9050919050565b6105558161053a565b811461056057600080fd5b50565b6000813590506105728161054c565b92915050565b600061058382610508565b9050919050565b61059381610578565b811461059e57600080fd5b50565b6000813590506105b08161058a565b92915050565b600080604083850312156105cd576105cc610503565b5b60006105db85828601610563565b92505060206105ec858286016105a1565b9150509250929050565b60006020828403121561060c5761060b610503565b5b600061061a84828501610563565b91505092915050565b61062c81610578565b82525050565b60006020820190506106476000830184610623565b92915050565b60006020828403121561066357610662610503565b5b6000610671848285016105a1565b91505092915050565b600082825260208201905092915050565b7f4f776e61626c653a206e6577206f776e657220697320746865207a65726f206160008201527f6464726573730000000000000000000000000000000000000000000000000000602082015250565b60006106e760268361067a565b91506106f28261068b565b604082019050919050565b60006020820190508181036000830152610716816106da565b9050919050565b7f4f776e61626c653a2063616c6c6572206973206e6f7420746865206f776e6572600082015250565b600061075360208361067a565b915061075e8261071d565b602082019050919050565b6000602082019050818103600083015261078281610746565b905091905056fea26469706673582212203ac043e8ea1b02ad8ff1dc846b0d6ad0b4a723a4612c57cdb3899fc129c6b0d864736f6c63430008110033","linkReferences":{}},"methodIdentifiers":{"owner()":"8da5cb5b","pause(address)":"76a67a51","renounceOwnership()":"715018a6","transferOwnership(address)":"f2fde38b","transferProxyOwnership(address,address)":"00361d55","unpause(address)":"57b001f9","upgrade(address,address)":"99a88ec4"},"id":39}