{"abi":[{"type":"function","name":"addToBlocklist","inputs":[{"name":"_tokens","type":"address[]","internalType":"address[]"}],"outputs":[],"stateMutability":"nonpayable"},{"type":"function","name":"owner","inputs":[],"outputs":[{"name":"","type":"address","internalType":"address"}],"stateMutability":"view"},{"type":"function","name":"removeFromBlocklist","inputs":[{"name":"_tokens","type":"address[]","internalType":"address[]"}],"outputs":[],"stateMutability":"nonpayable"},{"type":"function","name":"renounceOwnership","inputs":[],"outputs":[],"stateMutability":"nonpayable"},{"type":"function","name":"tokenBlocklist","inputs":[{"name":"","type":"address","internalType":"address"}],"outputs":[{"name":"","type":"bool","internalType":"bool"}],"stateMutability":"view"},{"type":"function","name":"transferOwnership","inputs":[{"name":"newOwner","type":"address","internalType":"address"}],"outputs":[],"stateMutability":"nonpayable"},{"type":"event","name":"AddToBlocklist","inputs":[{"name":"token","type":"address","indexed":true,"internalType":"address"}],"anonymous":false},{"type":"event","name":"Initialized","inputs":[{"name":"version","type":"uint8","indexed":false,"internalType":"uint8"}],"anonymous":false},{"type":"event","name":"OwnershipTransferred","inputs":[{"name":"previousOwner","type":"address","indexed":true,"internalType":"address"},{"name":"newOwner","type":"address","indexed":true,"internalType":"address"}],"anonymous":false},{"type":"event","name":"RemoveFromBlocklist","inputs":[{"name":"token","type":"address","indexed":true,"internalType":"address"}],"anonymous":false}],"bytecode":{"object":"0x608060405234801561001057600080fd5b506109e2806100206000396000f3fe608060405234801561001057600080fd5b50600436106100625760003560e01c8063715018a614610067578063815b534f146100715780638da5cb5b146100a1578063ab63e69c146100bf578063f2fde38b146100db578063f71a55f8146100f7575b600080fd5b61006f610113565b005b61008b600480360381019061008691906106c2565b610127565b604051610098919061070a565b60405180910390f35b6100a9610147565b6040516100b69190610734565b60405180910390f35b6100d960048036038101906100d491906107b4565b610171565b005b6100f560048036038101906100f091906106c2565b6102fa565b005b610111600480360381019061010c91906107b4565b61037d565b005b61011b61050e565b610125600061058c565b565b60656020528060005260406000206000915054906101000a900460ff1681565b6000603360009054906101000a900473ffffffffffffffffffffffffffffffffffffffff16905090565b61017961050e565b60005b828290508110156102f5576065600084848481811061019e5761019d610801565b5b90506020020160208101906101b391906106c2565b73ffffffffffffffffffffffffffffffffffffffff1673ffffffffffffffffffffffffffffffffffffffff16815260200190815260200160002060009054906101000a900460ff16156102e1576065600084848481811061021757610216610801565b5b905060200201602081019061022c91906106c2565b73ffffffffffffffffffffffffffffffffffffffff1673ffffffffffffffffffffffffffffffffffffffff16815260200190815260200160002060006101000a81549060ff021916905582828281811061028957610288610801565b5b905060200201602081019061029e91906106c2565b73ffffffffffffffffffffffffffffffffffffffff167f2ef13bd1aff17b0f9c85afaf228e84266c8394d9d381735e83fe23f607113e2e60405160405180910390a25b6001816102ee9190610869565b905061017c565b505050565b61030261050e565b600073ffffffffffffffffffffffffffffffffffffffff168173ffffffffffffffffffffffffffffffffffffffff1603610371576040517f08c379a000000000000000000000000000000000000000000000000000000000815260040161036890610920565b60405180910390fd5b61037a8161058c565b50565b61038561050e565b60005b8282905081101561050957606560008484848181106103aa576103a9610801565b5b90506020020160208101906103bf91906106c2565b73ffffffffffffffffffffffffffffffffffffffff1673ffffffffffffffffffffffffffffffffffffffff16815260200190815260200160002060009054906101000a900460ff166104f55760016065600085858581811061042457610423610801565b5b905060200201602081019061043991906106c2565b73ffffffffffffffffffffffffffffffffffffffff1673ffffffffffffffffffffffffffffffffffffffff16815260200190815260200160002060006101000a81548160ff02191690831515021790555082828281811061049d5761049c610801565b5b90506020020160208101906104b291906106c2565b73ffffffffffffffffffffffffffffffffffffffff167f46742f555939247f80b50a8ca895a561933c48bc9a06ccb0c812e97ac723d33f60405160405180910390a25b6001816105029190610869565b9050610388565b505050565b610516610652565b73ffffffffffffffffffffffffffffffffffffffff16610534610147565b73ffffffffffffffffffffffffffffffffffffffff161461058a576040517f08c379a00000000000000000000000000000000000000000000000000000000081526004016105819061098c565b60405180910390fd5b565b6000603360009054906101000a900473ffffffffffffffffffffffffffffffffffffffff16905081603360006101000a81548173ffffffffffffffffffffffffffffffffffffffff021916908373ffffffffffffffffffffffffffffffffffffffff1602179055508173ffffffffffffffffffffffffffffffffffffffff168173ffffffffffffffffffffffffffffffffffffffff167f8be0079c531659141344cd1fd0a4f28419497f9722a3daafe3b4186f6b6457e060405160405180910390a35050565b600033905090565b600080fd5b600080fd5b600073ffffffffffffffffffffffffffffffffffffffff82169050919050565b600061068f82610664565b9050919050565b61069f81610684565b81146106aa57600080fd5b50565b6000813590506106bc81610696565b92915050565b6000602082840312156106d8576106d761065a565b5b60006106e6848285016106ad565b91505092915050565b60008115159050919050565b610704816106ef565b82525050565b600060208201905061071f60008301846106fb565b92915050565b61072e81610684565b82525050565b60006020820190506107496000830184610725565b92915050565b600080fd5b600080fd5b600080fd5b60008083601f8401126107745761077361074f565b5b8235905067ffffffffffffffff81111561079157610790610754565b5b6020830191508360208202830111156107ad576107ac610759565b5b9250929050565b600080602083850312156107cb576107ca61065a565b5b600083013567ffffffffffffffff8111156107e9576107e861065f565b5b6107f58582860161075e565b92509250509250929050565b7f4e487b7100000000000000000000000000000000000000000000000000000000600052603260045260246000fd5b6000819050919050565b7f4e487b7100000000000000000000000000000000000000000000000000000000600052601160045260246000fd5b600061087482610830565b915061087f83610830565b92508282019050808211156108975761089661083a565b5b92915050565b600082825260208201905092915050565b7f4f776e61626c653a206e6577206f776e657220697320746865207a65726f206160008201527f6464726573730000000000000000000000000000000000000000000000000000602082015250565b600061090a60268361089d565b9150610915826108ae565b604082019050919050565b60006020820190508181036000830152610939816108fd565b9050919050565b7f4f776e61626c653a2063616c6c6572206973206e6f7420746865206f776e6572600082015250565b600061097660208361089d565b915061098182610940565b602082019050919050565b600060208201905081810360008301526109a581610969565b905091905056fea2646970667358221220719abbda07da12fb2667a8f0ba69d73ada384fb1c77e87e0ba6f192f3049bbdb64736f6c63430008110033","linkReferences":{}},"methodIdentifiers":{"addToBlocklist(address[])":"f71a55f8","owner()":"8da5cb5b","removeFromBlocklist(address[])":"ab63e69c","renounceOwnership()":"715018a6","tokenBlocklist(address)":"815b534f","transferOwnership(address)":"f2fde38b"},"id":35}