{
  "_format": "hh-sol-artifact-1",
  "contractName": "Faucet",
  "sourceName": "contracts/Faucet.sol",
  "abi": [
    {
      "inputs": [
        {
          "internalType": "address",
          "name": "_usdc",
          "type": "address"
        }
      ],
      "stateMutability": "payable",
      "type": "constructor"
    },
    {
      "anonymous": false,
      "inputs": [
        {
          "indexed": true,
          "internalType": "address",
          "name": "recipient",
          "type": "address"
        },
        {
          "indexed": false,
          "internalType": "uint256",
          "name": "usdcAmount",
          "type": "uint256"
        },
        {
          "indexed": false,
          "internalType": "uint256",
          "name": "ethAmount",
          "type": "uint256"
        }
      ],
      "name": "Drip",
      "type": "event"
    },
    {
      "inputs": [],
      "name": "COOLDOWN",
      "outputs": [
        {
          "internalType": "uint256",
          "name": "",
          "type": "uint256"
        }
      ],
      "stateMutability": "view",
      "type": "function"
    },
    {
      "inputs": [],
      "name": "ETH_AMOUNT",
      "outputs": [
        {
          "internalType": "uint256",
          "name": "",
          "type": "uint256"
        }
      ],
      "stateMutability": "view",
      "type": "function"
    },
    {
      "inputs": [],
      "name": "USDC_AMOUNT",
      "outputs": [
        {
          "internalType": "uint256",
          "name": "",
          "type": "uint256"
        }
      ],
      "stateMutability": "view",
      "type": "function"
    },
    {
      "inputs": [],
      "name": "drip",
      "outputs": [],
      "stateMutability": "nonpayable",
      "type": "function"
    },
    {
      "inputs": [
        {
          "internalType": "address",
          "name": "recipient",
          "type": "address"
        }
      ],
      "name": "dripTo",
      "outputs": [],
      "stateMutability": "nonpayable",
      "type": "function"
    },
    {
      "inputs": [],
      "name": "ethBalance",
      "outputs": [
        {
          "internalType": "uint256",
          "name": "",
          "type": "uint256"
        }
      ],
      "stateMutability": "view",
      "type": "function"
    },
    {
      "inputs": [
        {
          "internalType": "address",
          "name": "",
          "type": "address"
        }
      ],
      "name": "lastFaucetTime",
      "outputs": [
        {
          "internalType": "uint256",
          "name": "",
          "type": "uint256"
        }
      ],
      "stateMutability": "view",
      "type": "function"
    },
    {
      "inputs": [],
      "name": "usdc",
      "outputs": [
        {
          "internalType": "contract MockUSDCV2",
          "name": "",
          "type": "address"
        }
      ],
      "stateMutability": "view",
      "type": "function"
    },
    {
      "stateMutability": "payable",
      "type": "receive"
    }
  ],
  "bytecode": "0x60a060405260405161047538038061047583398101604081905261002291610033565b6001600160a01b0316608052610063565b60006020828403121561004557600080fd5b81516001600160a01b038116811461005c57600080fd5b9392505050565b6080516103f16100846000396000818160c8015261026b01526103f16000f3fe60806040526004361061007f5760003560e01c80639f678cca1161004e5780639f678cca14610142578063a2724a4d14610159578063c14033ba1461016e578063cabee26e1461018a57600080fd5b80631153ad741461008b5780633e413bee146100b65780634e6630b0146101025780637bc1f6cc1461011557600080fd5b3661008657005b600080fd5b34801561009757600080fd5b506100a3633b9aca0081565b6040519081526020015b60405180910390f35b3480156100c257600080fd5b506100ea7f000000000000000000000000000000000000000000000000000000000000000081565b6040516001600160a01b0390911681526020016100ad565b34801561010e57600080fd5b50476100a3565b34801561012157600080fd5b506100a3610130366004610364565b60006020819052908152604090205481565b34801561014e57600080fd5b506101576101aa565b005b34801561016557600080fd5b506100a3600081565b34801561017a57600080fd5b506100a3670de0b6b3a764000081565b34801561019657600080fd5b506101576101a5366004610364565b6101b5565b6101b3336101c1565b565b6101be816101c1565b50565b6001600160a01b0381166000908152602081905260408120546101e49190610394565b42101561022e5760405162461bcd60e51b815260206004820152601460248201527310dbdbdb191bdddb881b9bdd08195b185c1cd95960621b604482015260640160405180910390fd5b6001600160a01b0381811660008181526020819052604090819020429055516340c10f1960e01b81526004810191909152633b9aca0060248201527f0000000000000000000000000000000000000000000000000000000000000000909116906340c10f1990604401600060405180830381600087803b1580156102b157600080fd5b505af11580156102c5573d6000803e3d6000fd5b505050506000670de0b6b3a764000047106103185750604051670de0b6b3a7640000906001600160a01b03831690600090839082818181858883f19350505050158015610316573d6000803e3d6000fd5b505b60408051633b9aca008152602081018390526001600160a01b038416917fa4acd6546ca2a791c494afafa902f3ea075e5f5381f061cc8ec601651591a59b910160405180910390a25050565b60006020828403121561037657600080fd5b81356001600160a01b038116811461038d57600080fd5b9392505050565b808201808211156103b557634e487b7160e01b600052601160045260246000fd5b9291505056fea2646970667358221220cc6d6ac4be23c5ffc8b14b55291b46e3dd186953c4cb07af91712b1fbbbc4e8164736f6c63430008110033",
  "linkReferences": {},
  "deployedLinkReferences": {}
}