{
  "_format": "hh-sol-artifact-1",
  "contractName": "ShieldModule",
  "sourceName": "contracts/privacy-pool/modules/ShieldModule.sol",
  "abi": [
    {
      "anonymous": false,
      "inputs": [
        {
          "indexed": false,
          "internalType": "uint256",
          "name": "treeNumber",
          "type": "uint256"
        },
        {
          "indexed": false,
          "internalType": "uint256",
          "name": "startPosition",
          "type": "uint256"
        },
        {
          "components": [
            {
              "internalType": "bytes32",
              "name": "npk",
              "type": "bytes32"
            },
            {
              "components": [
                {
                  "internalType": "enum TokenType",
                  "name": "tokenType",
                  "type": "uint8"
                },
                {
                  "internalType": "address",
                  "name": "tokenAddress",
                  "type": "address"
                },
                {
                  "internalType": "uint256",
                  "name": "tokenSubID",
                  "type": "uint256"
                }
              ],
              "internalType": "struct TokenData",
              "name": "token",
              "type": "tuple"
            },
            {
              "internalType": "uint120",
              "name": "value",
              "type": "uint120"
            }
          ],
          "indexed": false,
          "internalType": "struct CommitmentPreimage[]",
          "name": "commitments",
          "type": "tuple[]"
        },
        {
          "components": [
            {
              "internalType": "bytes32[3]",
              "name": "encryptedBundle",
              "type": "bytes32[3]"
            },
            {
              "internalType": "bytes32",
              "name": "shieldKey",
              "type": "bytes32"
            }
          ],
          "indexed": false,
          "internalType": "struct ShieldCiphertext[]",
          "name": "shieldCiphertext",
          "type": "tuple[]"
        },
        {
          "indexed": false,
          "internalType": "uint256[]",
          "name": "fees",
          "type": "uint256[]"
        }
      ],
      "name": "Shield",
      "type": "event"
    },
    {
      "inputs": [],
      "name": "ZERO_VALUE",
      "outputs": [
        {
          "internalType": "bytes32",
          "name": "",
          "type": "bytes32"
        }
      ],
      "stateMutability": "view",
      "type": "function"
    },
    {
      "inputs": [],
      "name": "initialized",
      "outputs": [
        {
          "internalType": "bool",
          "name": "",
          "type": "bool"
        }
      ],
      "stateMutability": "view",
      "type": "function"
    },
    {
      "inputs": [],
      "name": "lastEventBlock",
      "outputs": [
        {
          "internalType": "uint256",
          "name": "",
          "type": "uint256"
        }
      ],
      "stateMutability": "view",
      "type": "function"
    },
    {
      "inputs": [],
      "name": "localDomain",
      "outputs": [
        {
          "internalType": "uint32",
          "name": "",
          "type": "uint32"
        }
      ],
      "stateMutability": "view",
      "type": "function"
    },
    {
      "inputs": [],
      "name": "merkleModule",
      "outputs": [
        {
          "internalType": "address",
          "name": "",
          "type": "address"
        }
      ],
      "stateMutability": "view",
      "type": "function"
    },
    {
      "inputs": [],
      "name": "merkleRoot",
      "outputs": [
        {
          "internalType": "bytes32",
          "name": "",
          "type": "bytes32"
        }
      ],
      "stateMutability": "view",
      "type": "function"
    },
    {
      "inputs": [],
      "name": "messageTransmitter",
      "outputs": [
        {
          "internalType": "address",
          "name": "",
          "type": "address"
        }
      ],
      "stateMutability": "view",
      "type": "function"
    },
    {
      "inputs": [],
      "name": "nextLeafIndex",
      "outputs": [
        {
          "internalType": "uint256",
          "name": "",
          "type": "uint256"
        }
      ],
      "stateMutability": "view",
      "type": "function"
    },
    {
      "inputs": [],
      "name": "nftFee",
      "outputs": [
        {
          "internalType": "uint120",
          "name": "",
          "type": "uint120"
        }
      ],
      "stateMutability": "view",
      "type": "function"
    },
    {
      "inputs": [
        {
          "internalType": "uint256",
          "name": "",
          "type": "uint256"
        },
        {
          "internalType": "bytes32",
          "name": "",
          "type": "bytes32"
        }
      ],
      "name": "nullifiers",
      "outputs": [
        {
          "internalType": "bool",
          "name": "",
          "type": "bool"
        }
      ],
      "stateMutability": "view",
      "type": "function"
    },
    {
      "inputs": [],
      "name": "owner",
      "outputs": [
        {
          "internalType": "address",
          "name": "",
          "type": "address"
        }
      ],
      "stateMutability": "view",
      "type": "function"
    },
    {
      "inputs": [
        {
          "internalType": "uint256",
          "name": "amount",
          "type": "uint256"
        },
        {
          "components": [
            {
              "internalType": "bytes32",
              "name": "npk",
              "type": "bytes32"
            },
            {
              "internalType": "uint120",
              "name": "value",
              "type": "uint120"
            },
            {
              "internalType": "bytes32[3]",
              "name": "encryptedBundle",
              "type": "bytes32[3]"
            },
            {
              "internalType": "bytes32",
              "name": "shieldKey",
              "type": "bytes32"
            }
          ],
          "internalType": "struct ShieldData",
          "name": "data",
          "type": "tuple"
        }
      ],
      "name": "processIncomingShield",
      "outputs": [],
      "stateMutability": "nonpayable",
      "type": "function"
    },
    {
      "inputs": [
        {
          "internalType": "uint32",
          "name": "",
          "type": "uint32"
        }
      ],
      "name": "remotePools",
      "outputs": [
        {
          "internalType": "bytes32",
          "name": "",
          "type": "bytes32"
        }
      ],
      "stateMutability": "view",
      "type": "function"
    },
    {
      "inputs": [
        {
          "internalType": "uint256",
          "name": "",
          "type": "uint256"
        },
        {
          "internalType": "bytes32",
          "name": "",
          "type": "bytes32"
        }
      ],
      "name": "rootHistory",
      "outputs": [
        {
          "internalType": "bool",
          "name": "",
          "type": "bool"
        }
      ],
      "stateMutability": "view",
      "type": "function"
    },
    {
      "inputs": [
        {
          "components": [
            {
              "components": [
                {
                  "internalType": "bytes32",
                  "name": "npk",
                  "type": "bytes32"
                },
                {
                  "components": [
                    {
                      "internalType": "enum TokenType",
                      "name": "tokenType",
                      "type": "uint8"
                    },
                    {
                      "internalType": "address",
                      "name": "tokenAddress",
                      "type": "address"
                    },
                    {
                      "internalType": "uint256",
                      "name": "tokenSubID",
                      "type": "uint256"
                    }
                  ],
                  "internalType": "struct TokenData",
                  "name": "token",
                  "type": "tuple"
                },
                {
                  "internalType": "uint120",
                  "name": "value",
                  "type": "uint120"
                }
              ],
              "internalType": "struct CommitmentPreimage",
              "name": "preimage",
              "type": "tuple"
            },
            {
              "components": [
                {
                  "internalType": "bytes32[3]",
                  "name": "encryptedBundle",
                  "type": "bytes32[3]"
                },
                {
                  "internalType": "bytes32",
                  "name": "shieldKey",
                  "type": "bytes32"
                }
              ],
              "internalType": "struct ShieldCiphertext",
              "name": "ciphertext",
              "type": "tuple"
            }
          ],
          "internalType": "struct ShieldRequest[]",
          "name": "_shieldRequests",
          "type": "tuple[]"
        }
      ],
      "name": "shield",
      "outputs": [],
      "stateMutability": "nonpayable",
      "type": "function"
    },
    {
      "inputs": [],
      "name": "shieldFee",
      "outputs": [
        {
          "internalType": "uint120",
          "name": "",
          "type": "uint120"
        }
      ],
      "stateMutability": "view",
      "type": "function"
    },
    {
      "inputs": [],
      "name": "shieldModule",
      "outputs": [
        {
          "internalType": "address",
          "name": "",
          "type": "address"
        }
      ],
      "stateMutability": "view",
      "type": "function"
    },
    {
      "inputs": [
        {
          "internalType": "uint256",
          "name": "",
          "type": "uint256"
        }
      ],
      "name": "snarkSafetyVector",
      "outputs": [
        {
          "internalType": "bool",
          "name": "",
          "type": "bool"
        }
      ],
      "stateMutability": "view",
      "type": "function"
    },
    {
      "inputs": [],
      "name": "testingMode",
      "outputs": [
        {
          "internalType": "bool",
          "name": "",
          "type": "bool"
        }
      ],
      "stateMutability": "view",
      "type": "function"
    },
    {
      "inputs": [
        {
          "internalType": "address",
          "name": "",
          "type": "address"
        }
      ],
      "name": "tokenBlocklist",
      "outputs": [
        {
          "internalType": "bool",
          "name": "",
          "type": "bool"
        }
      ],
      "stateMutability": "view",
      "type": "function"
    },
    {
      "inputs": [
        {
          "internalType": "bytes32",
          "name": "",
          "type": "bytes32"
        }
      ],
      "name": "tokenIDMapping",
      "outputs": [
        {
          "internalType": "enum TokenType",
          "name": "tokenType",
          "type": "uint8"
        },
        {
          "internalType": "address",
          "name": "tokenAddress",
          "type": "address"
        },
        {
          "internalType": "uint256",
          "name": "tokenSubID",
          "type": "uint256"
        }
      ],
      "stateMutability": "view",
      "type": "function"
    },
    {
      "inputs": [],
      "name": "tokenMessenger",
      "outputs": [
        {
          "internalType": "address",
          "name": "",
          "type": "address"
        }
      ],
      "stateMutability": "view",
      "type": "function"
    },
    {
      "inputs": [],
      "name": "transactModule",
      "outputs": [
        {
          "internalType": "address",
          "name": "",
          "type": "address"
        }
      ],
      "stateMutability": "view",
      "type": "function"
    },
    {
      "inputs": [],
      "name": "treasury",
      "outputs": [
        {
          "internalType": "address payable",
          "name": "",
          "type": "address"
        }
      ],
      "stateMutability": "view",
      "type": "function"
    },
    {
      "inputs": [],
      "name": "treeNumber",
      "outputs": [
        {
          "internalType": "uint256",
          "name": "",
          "type": "uint256"
        }
      ],
      "stateMutability": "view",
      "type": "function"
    },
    {
      "inputs": [],
      "name": "unshieldFee",
      "outputs": [
        {
          "internalType": "uint120",
          "name": "",
          "type": "uint120"
        }
      ],
      "stateMutability": "view",
      "type": "function"
    },
    {
      "inputs": [],
      "name": "usdc",
      "outputs": [
        {
          "internalType": "address",
          "name": "",
          "type": "address"
        }
      ],
      "stateMutability": "view",
      "type": "function"
    },
    {
      "inputs": [],
      "name": "verifierModule",
      "outputs": [
        {
          "internalType": "address",
          "name": "",
          "type": "address"
        }
      ],
      "stateMutability": "view",
      "type": "function"
    },
    {
      "inputs": [
        {
          "internalType": "uint256",
          "name": "",
          "type": "uint256"
        }
      ],
      "name": "zeros",
      "outputs": [
        {
          "internalType": "bytes32",
          "name": "",
          "type": "bytes32"
        }
      ],
      "stateMutability": "view",
      "type": "function"
    }
  ],
  "bytecode": "0x608060405234801561001057600080fd5b50611f5f806100206000396000f3fe608060405234801561001057600080fd5b50600436106101cf5760003560e01c80636650331511610104578063b8ceaef2116100a2578063cd3efe0611610071578063cd3efe0614610480578063e829558814610489578063ec7329591461049c578063f19ea903146104a457600080fd5b8063b8ceaef2146103e8578063c5b2d8c014610432578063c718dbda14610445578063c8f35b5d1461047357600080fd5b80638d3638f4116100de5780638d3638f4146103835780638da5cb5b146103af5780639071adc0146103c257806390de3f6e146103d557600080fd5b806366503315146103445780637b04c1811461034d578063815b534f1461036057600080fd5b80632eb4a7ab116101715780633e413bee1161014b5780633e413bee146102f857806341506fc11461030b578063461178301461031e57806361d027b31461033157600080fd5b80632eb4a7ab146102bc57806330ed93c3146102c557806335db307c146102e557600080fd5b8063053ed12a116101ad578063053ed12a146102445780630be4f4221461025e578063129458f414610275578063158ef93e146102a857600080fd5b806301c37790146101d4578063044a40c314610204578063048e099014610219575b600080fd5b6009546101e7906001600160781b031681565b6040516001600160781b0390911681526020015b60405180910390f35b610217610212366004611814565b6104d2565b005b60015461022c906001600160a01b031681565b6040516001600160a01b0390911681526020016101fb565b6009546101e790600160781b90046001600160781b031681565b610267600d5481565b6040519081526020016101fb565b61029861028336600461188a565b60356020526000908152604090205460ff1681565b60405190151581526020016101fb565b60375461029890600160a01b900460ff1681565b610267600e5481565b6102676102d33660046118a3565b60076020526000908152604090205481565b60005461022c906001600160a01b031681565b60065461022c906001600160a01b031681565b60035461022c906001600160a01b031681565b60045461022c906001600160a01b031681565b60085461022c906001600160a01b031681565b61026760105481565b60055461022c906001600160a01b031681565b61029861036e3660046118ec565b600b6020526000908152604090205460ff1681565b60065461039a90600160a01b900463ffffffff1681565b60405163ffffffff90911681526020016101fb565b60375461022c906001600160a01b031681565b600a546101e7906001600160781b031681565b60025461022c906001600160a01b031681565b6104236103f636600461188a565b600c602052600090815260409020805460019091015460ff82169161010090046001600160a01b03169083565b6040516101fb9392919061193f565b610217610440366004611967565b610898565b61029861045336600461199f565b603160209081526000928352604080842090915290825290205460ff1681565b6034546102989060ff1681565b61026760365481565b61026761049736600461188a565b610a1e565b610267610a35565b6102986104b236600461199f565b603260209081526000928352604080842090915290825290205460ff1681565b80806105255760405162461bcd60e51b815260206004820152601960248201527f536869656c644d6f64756c653a204e6f2072657175657374730000000000000060448201526064015b60405180910390fd5b60008167ffffffffffffffff811115610540576105406119c1565b604051908082528060200260200182016040528015610569578160200160208202803683370190505b50905060008267ffffffffffffffff811115610587576105876119c1565b6040519080825280602002602001820160405280156105c057816020015b6105ad611785565b8152602001906001900390816105a55790505b50905060008367ffffffffffffffff8111156105de576105de6119c1565b60405190808252806020026020018201604052801561061757816020015b6106046117be565b8152602001906001900390816105fc5790505b50905060008467ffffffffffffffff811115610635576106356119c1565b60405190808252806020026020018201604052801561065e578160200160208202803683370190505b50905060005b8581101561078b57610690888883818110610681576106816119d7565b90506101200201600001610a70565b6106b48888838181106106a5576106a56119d7565b90506101200201600001610c43565b8583815181106106c6576106c66119d7565b602002602001018484815181106106df576106df6119d7565b60200260200101828152508290525050610711848281518110610704576107046119d7565b6020026020010151610f03565b858281518110610723576107236119d7565b602002602001018181525050878782818110610741576107416119d7565b9050610120020160a00180360381019061075b9190611a16565b83828151811061076d5761076d6119d7565b6020026020010181905250808061078390611ab9565b915050610664565b50604051630c9c0c8d60e01b81526004810186905260009081903090630c9c0c8d906024015b6040805180830381865afa1580156107cd573d6000803e3d6000fd5b505050506040513d601f19601f820116820180604052508101906107f19190611ad2565b915091507f3a5b9dc26075a3801a6ddccf95fec485bb7500a91b44cec1add984c21ee6db3b828287878760405161082c959493929190611bc4565b60405180910390a160405163dc52bf9f60e01b8152309063dc52bf9f90610857908990600401611c68565b600060405180830381600087803b15801561087157600080fd5b505af1158015610885573d6000803e3d6000fd5b5050436036555050505050505050505050565b6108a86040820160208301611cac565b6001600160781b031682146108ff5760405162461bcd60e51b815260206004820152601d60248201527f536869656c644d6f64756c653a20416d6f756e74206d69736d61746368000000604482015260640161051c565b604080516001808252818301909252600091816020015b61091e6117d1565b8152602001906001900390816109165750506040805160a081018252843581830190815282516060808201855260008083526006546001600160a01b0316602080850191909152838701919091529084019190915293945090928392608084019161098d918801908801611cac565b6001600160781b0316905281526040805160a081018252602090920191908190818101908701600382826060808284376000920182905250928452505060a0870135602090920191909152915282518391906109eb576109eb6119d7565b6020026020010181905250610a1981600081518110610a0c57610a0c6119d7565b6020026020010151610fbd565b505050565b60118160108110610a2e57600080fd5b0154905081565b610a6d600080516020611f0a8339815191527f95b5e3f3c951508f13e7771152f5b7c7329a294917685c10a571c9247e3b9fff611ceb565b81565b6000610a8260a0830160808401611cac565b6001600160781b031611610ad85760405162461bcd60e51b815260206004820152601b60248201527f536869656c644d6f64756c653a20496e76616c69642076616c75650000000000604482015260640161051c565b600b6000610aec60608401604085016118ec565b6001600160a01b0316815260208101919091526040016000205460ff1615610b565760405162461bcd60e51b815260206004820152601b60248201527f536869656c644d6f64756c653a20546f6b656e20626c6f636b65640000000000604482015260640161051c565b600080516020611f0a833981519152813510610bb05760405162461bcd60e51b8152602060048201526019602482015278536869656c644d6f64756c653a20496e76616c6964206e706b60381b604482015260640161051c565b6001610bc26040830160208401611d0e565b6002811115610bd357610bd3611907565b03610c4057610be860a0820160808301611cac565b6001600160781b0316600114610c405760405162461bcd60e51b815260206004820152601f60248201527f536869656c644d6f64756c653a20496e76616c6964204e46542076616c756500604482015260640161051c565b50565b610c4b611785565b600080610c5e6040850160208601611d0e565b6002811115610c6f57610c6f611907565b14610cc75760405162461bcd60e51b815260206004820152602260248201527f536869656c644d6f64756c653a204f6e6c7920455243323020737570706f7274604482015261195960f21b606482015260840161051c565b6000610cd960608501604086016118ec565b9050600080610d09610cf160a0880160808901611cac565b6009546001600160781b0391821691600191166111c7565b9150915060405180606001604052808760000135815260200187602001803603810190610d369190611d29565b81526001600160781b038085166020909201919091526040516370a0823160e01b8152306004820152919650821694506000906001600160a01b038516906370a0823190602401602060405180830381865afa158015610d9a573d6000803e3d6000fd5b505050506040513d601f19601f82011682018060405250810190610dbe9190611d73565b9050610dde6001600160a01b03851633306001600160781b03871661126d565b6040516370a0823160e01b81523060048201526000906001600160a01b038616906370a0823190602401602060405180830381865afa158015610e25573d6000803e3d6000fd5b505050506040513d601f19601f82011682018060405250810190610e499190611d73565b90506001600160781b038416610e5f8383611d8c565b14610eac5760405162461bcd60e51b815260206004820152601d60248201527f536869656c644d6f64756c653a205472616e73666572206661696c6564000000604482015260640161051c565b6000836001600160781b0316118015610ecf57506008546001600160a01b031615155b15610ef957600854610ef9906001600160a01b03878116913391166001600160781b03871661126d565b5050505050915091565b600073__$610c11827248d0bfa646e7ca34d40f2d3f$__635a53025d604051806060016040528085600001518152602001610f4186602001516112de565b815260200185604001516001600160781b031660001b8152506040518263ffffffff1660e01b8152600401610f769190611d9f565b602060405180830381865af4158015610f93573d6000803e3d6000fd5b505050506040513d601f19601f82011682018060405250810190610fb79190611d73565b92915050565b8051610fc89061134d565b8051600954600091906001600160781b031615611066578251604001516009546000918291611006916001600160781b0390811691600191166111c7565b6001600160781b038083166040870152811695509092509050831580159061103857506008546001600160a01b031615155b1561106357600854600654611063916001600160a01b0391821691166001600160781b0384166114f0565b50505b6040805160018082528183019092526000916020808301908036833750506040805160018082528183019092529293506000929150602082015b6110a8611785565b8152602001906001900390816110a057505060408051600180825281830190925291925060009190602082015b6110dd6117be565b8152602001906001900390816110d557505060408051600180825281830190925291925060009190602080830190803683370190505090508483600081518110611129576111296119d7565b602002602001018190525086602001518260008151811061114c5761114c6119d7565b6020026020010181905250858160008151811061116b5761116b6119d7565b60200260200101818152505061118085610f03565b84600081518110611193576111936119d7565b6020908102919091010152604051630c9c0c8d60e01b81526001600482015260009081903090630c9c0c8d906024016107b1565b600080826001600160781b03166000036111e657508390506000611265565b8315611229576127106112026001600160781b03851687611dd0565b61120c9190611df9565b6112169086611e1f565b91506112228286611e46565b9050611265565b8491508161123984612710611e46565b6001600160781b031661124e87612710611dd0565b6112589190611df9565b6112629190611e1f565b90505b935093915050565b6040516001600160a01b03808516602483015283166044820152606481018290526112d89085906323b872dd60e01b906084015b60408051601f198184030181529190526020810180516001600160e01b03166001600160e01b031990931692909217909152611520565b50505050565b600080825160028111156112f4576112f4611907565b0361130a5750602001516001600160a01b031690565b600080516020611f0a8339815191528260405160200161132a9190611e66565b6040516020818303038152906040528051906020012060001c610fb79190611ceb565b600081604001516001600160781b0316116113aa5760405162461bcd60e51b815260206004820152601b60248201527f536869656c644d6f64756c653a20496e76616c69642076616c75650000000000604482015260640161051c565b6020808201518101516001600160a01b03166000908152600b909152604090205460ff161561141b5760405162461bcd60e51b815260206004820152601b60248201527f536869656c644d6f64756c653a20546f6b656e20626c6f636b65640000000000604482015260640161051c565b8051600080516020611f0a833981519152116114755760405162461bcd60e51b8152602060048201526019602482015278536869656c644d6f64756c653a20496e76616c6964206e706b60381b604482015260640161051c565b6001602082015151600281111561148e5761148e611907565b03610c405780604001516001600160781b0316600114610c405760405162461bcd60e51b815260206004820152601f60248201527f536869656c644d6f64756c653a20496e76616c6964204e46542076616c756500604482015260640161051c565b6040516001600160a01b038316602482015260448101829052610a1990849063a9059cbb60e01b906064016112a1565b6000611575826040518060400160405280602081526020017f5361666545524332303a206c6f772d6c6576656c2063616c6c206661696c6564815250856001600160a01b03166115f59092919063ffffffff16565b90508051600014806115965750808060200190518101906115969190611e74565b610a195760405162461bcd60e51b815260206004820152602a60248201527f5361666545524332303a204552433230206f7065726174696f6e20646964206e6044820152691bdd081cdd58d8d9595960b21b606482015260840161051c565b6060611604848460008561160c565b949350505050565b60608247101561166d5760405162461bcd60e51b815260206004820152602660248201527f416464726573733a20696e73756666696369656e742062616c616e636520666f6044820152651c8818d85b1b60d21b606482015260840161051c565b600080866001600160a01b031685876040516116899190611eba565b60006040518083038185875af1925050503d80600081146116c6576040519150601f19603f3d011682016040523d82523d6000602084013e6116cb565b606091505b50915091506116dc878383876116e7565b979650505050505050565b6060831561175657825160000361174f576001600160a01b0385163b61174f5760405162461bcd60e51b815260206004820152601d60248201527f416464726573733a2063616c6c20746f206e6f6e2d636f6e7472616374000000604482015260640161051c565b5081611604565b611604838381511561176b5781518083602001fd5b8060405162461bcd60e51b815260040161051c9190611ed6565b604080516060808201835260008083528351918201845280825260208281018290529382015290918201905b8152600060209091015290565b60405180604001604052806117b16117f6565b60405180604001604052806117e4611785565b81526020016117f16117be565b905290565b60405180606001604052806003906020820280368337509192915050565b6000806020838503121561182757600080fd5b823567ffffffffffffffff8082111561183f57600080fd5b818501915085601f83011261185357600080fd5b81358181111561186257600080fd5b8660206101208302850101111561187857600080fd5b60209290920196919550909350505050565b60006020828403121561189c57600080fd5b5035919050565b6000602082840312156118b557600080fd5b813563ffffffff811681146118c957600080fd5b9392505050565b80356001600160a01b03811681146118e757600080fd5b919050565b6000602082840312156118fe57600080fd5b6118c9826118d0565b634e487b7160e01b600052602160045260246000fd5b6003811061193b57634e487b7160e01b600052602160045260246000fd5b9052565b6060810161194d828661191d565b6001600160a01b0393909316602082015260400152919050565b60008082840360e081121561197b57600080fd5b8335925060c0601f198201121561199157600080fd5b506020830190509250929050565b600080604083850312156119b257600080fd5b50508035926020909101359150565b634e487b7160e01b600052604160045260246000fd5b634e487b7160e01b600052603260045260246000fd5b6040516060810167ffffffffffffffff81118282101715611a1057611a106119c1565b60405290565b600060808284031215611a2857600080fd5b6040516040810181811067ffffffffffffffff82111715611a4b57611a4b6119c1565b604052601f83018413611a5d57600080fd5b611a656119ed565b806060850186811115611a7757600080fd5b855b81811015611a91578035845260209384019301611a79565b50908352356020830152509392505050565b634e487b7160e01b600052601160045260246000fd5b600060018201611acb57611acb611aa3565b5060010190565b60008060408385031215611ae557600080fd5b505080516020909101519092909150565b611b0182825161191d565b6020818101516001600160a01b031690830152604090810151910152565b60008151808452602080850194508084016000805b84811015611b7d578251805189845b6003811015611b6057825182529187019190870190600101611b43565b505050840151606089015260809097019691830191600101611b34565b50959695505050505050565b600081518084526020808501945080840160005b83811015611bb957815187529582019590820190600101611b9d565b509495945050505050565b600060a0808301888452602088818601526040838187015282895180855260c088019150838b01945060005b81811015611c305785518051845285810151611c0e87860182611af6565b508401516001600160781b031660808401529484019491860191600101611bf0565b50508681036060880152611c44818a611b1f565b9450505050508281036080840152611c5c8185611b89565b98975050505050505050565b6020808252825182820181905260009190848201906040850190845b81811015611ca057835183529284019291840191600101611c84565b50909695505050505050565b600060208284031215611cbe57600080fd5b81356001600160781b03811681146118c957600080fd5b634e487b7160e01b600052601260045260246000fd5b600082611cfa57611cfa611cd5565b500690565b8035600381106118e757600080fd5b600060208284031215611d2057600080fd5b6118c982611cff565b600060608284031215611d3b57600080fd5b611d436119ed565b611d4c83611cff565b8152611d5a602084016118d0565b6020820152604083013560408201528091505092915050565b600060208284031215611d8557600080fd5b5051919050565b81810381811115610fb757610fb7611aa3565b60608101818360005b6003811015611dc7578151835260209283019290910190600101611da8565b50505092915050565b6001600160881b03828116828216818102831692918115828504821417611dc757611dc7611aa3565b60006001600160881b0380841680611e1357611e13611cd5565b92169190910492915050565b6001600160881b03828116828216039080821115611e3f57611e3f611aa3565b5092915050565b6001600160781b03828116828216039080821115611e3f57611e3f611aa3565b60608101610fb78284611af6565b600060208284031215611e8657600080fd5b815180151581146118c957600080fd5b60005b83811015611eb1578181015183820152602001611e99565b50506000910152565b60008251611ecc818460208701611e96565b9190910192915050565b6020815260008251806020840152611ef5816040850160208701611e96565b601f01601f1916919091016040019291505056fe30644e72e131a029b85045b68181585d2833e84879b9709143e1f593f0000001a26469706673582212204b6df3c233900a8734fcc28d2fd2b7c6eb4359607b7c5635a97b258bd8b3985664736f6c63430008110033",
  "linkReferences": {
    "contracts/railgun/logic/Poseidon.sol": {
      "PoseidonT4": [
        {
          "length": 20,
          "start": 3879
        }
      ]
    }
  },
  "deployedLinkReferences": {
    "contracts/railgun/logic/Poseidon.sol": {
      "PoseidonT4": [
        {
          "length": 20,
          "start": 3847
        }
      ]
    }
  }
}