{
  "_format": "hh-sol-artifact-1",
  "contractName": "Commitments",
  "sourceName": "contracts/railgun/logic/Commitments.sol",
  "abi": [
    {
      "anonymous": false,
      "inputs": [
        {
          "indexed": false,
          "internalType": "uint8",
          "name": "version",
          "type": "uint8"
        }
      ],
      "name": "Initialized",
      "type": "event"
    },
    {
      "inputs": [],
      "name": "ZERO_VALUE",
      "outputs": [
        {
          "internalType": "bytes32",
          "name": "",
          "type": "bytes32"
        }
      ],
      "stateMutability": "view",
      "type": "function"
    },
    {
      "inputs": [
        {
          "internalType": "uint256",
          "name": "_newCommitments",
          "type": "uint256"
        }
      ],
      "name": "getInsertionTreeNumberAndStartingIndex",
      "outputs": [
        {
          "internalType": "uint256",
          "name": "",
          "type": "uint256"
        },
        {
          "internalType": "uint256",
          "name": "",
          "type": "uint256"
        }
      ],
      "stateMutability": "view",
      "type": "function"
    },
    {
      "inputs": [
        {
          "internalType": "bytes32",
          "name": "_left",
          "type": "bytes32"
        },
        {
          "internalType": "bytes32",
          "name": "_right",
          "type": "bytes32"
        }
      ],
      "name": "hashLeftRight",
      "outputs": [
        {
          "internalType": "bytes32",
          "name": "",
          "type": "bytes32"
        }
      ],
      "stateMutability": "pure",
      "type": "function"
    },
    {
      "inputs": [],
      "name": "merkleRoot",
      "outputs": [
        {
          "internalType": "bytes32",
          "name": "",
          "type": "bytes32"
        }
      ],
      "stateMutability": "view",
      "type": "function"
    },
    {
      "inputs": [],
      "name": "nextLeafIndex",
      "outputs": [
        {
          "internalType": "uint256",
          "name": "",
          "type": "uint256"
        }
      ],
      "stateMutability": "view",
      "type": "function"
    },
    {
      "inputs": [
        {
          "internalType": "uint256",
          "name": "",
          "type": "uint256"
        },
        {
          "internalType": "bytes32",
          "name": "",
          "type": "bytes32"
        }
      ],
      "name": "nullifiers",
      "outputs": [
        {
          "internalType": "bool",
          "name": "",
          "type": "bool"
        }
      ],
      "stateMutability": "view",
      "type": "function"
    },
    {
      "inputs": [
        {
          "internalType": "uint256",
          "name": "",
          "type": "uint256"
        },
        {
          "internalType": "bytes32",
          "name": "",
          "type": "bytes32"
        }
      ],
      "name": "rootHistory",
      "outputs": [
        {
          "internalType": "bool",
          "name": "",
          "type": "bool"
        }
      ],
      "stateMutability": "view",
      "type": "function"
    },
    {
      "inputs": [],
      "name": "treeNumber",
      "outputs": [
        {
          "internalType": "uint256",
          "name": "",
          "type": "uint256"
        }
      ],
      "stateMutability": "view",
      "type": "function"
    },
    {
      "inputs": [
        {
          "internalType": "uint256",
          "name": "",
          "type": "uint256"
        }
      ],
      "name": "zeros",
      "outputs": [
        {
          "internalType": "bytes32",
          "name": "",
          "type": "bytes32"
        }
      ],
      "stateMutability": "view",
      "type": "function"
    }
  ],
  "bytecode": "0x608060405234801561001057600080fd5b506104c0806100206000396000f3fe608060405234801561001057600080fd5b50600436106100935760003560e01c8063665033151161006657806366503315146100f8578063c718dbda14610101578063e82955881461013f578063ec73295914610152578063f19ea9031461015a57600080fd5b80630be4f422146100985780630c9c0c8d146100b45780632eb4a7ab146100dc57806338bf282e146100e5575b600080fd5b6100a160025481565b6040519081526020015b60405180910390f35b6100c76100c23660046102ca565b610188565b604080519283526020830191909152016100ab565b6100a160035481565b6100a16100f33660046102e3565b6101d2565b6100a160055481565b61012f61010f3660046102e3565b602660209081526000928352604080842090915290825290205460ff1681565b60405190151581526020016100ab565b6100a161014d3660046102ca565b610266565b6100a161027d565b61012f6101683660046102e3565b600160209081526000928352604080842090915290825290205460ff1681565b600080610197601060026103ff565b836002546101a5919061040b565b11156101c3576005546101b990600161040b565b9360009350915050565b60055460025491509150915091565b60408051808201825283815260208101839052905163014cf2b360e51b815260009173__$e4b2a9d8f07fa6f22863c7e426f7b84603$__9163299e56609161021c9160040161041e565b602060405180830381865af4158015610239573d6000803e3d6000fd5b505050506040513d601f19601f8201168201806040525081019061025d919061044f565b90505b92915050565b6006816010811061027657600080fd5b0154905081565b6102c77f30644e72e131a029b85045b68181585d2833e84879b9709143e1f593f00000017f95b5e3f3c951508f13e7771152f5b7c7329a294917685c10a571c9247e3b9fff610468565b81565b6000602082840312156102dc57600080fd5b5035919050565b600080604083850312156102f657600080fd5b50508035926020909101359150565b634e487b7160e01b600052601160045260246000fd5b600181815b8085111561035657816000190482111561033c5761033c610305565b8085161561034957918102915b93841c9390800290610320565b509250929050565b60008261036d57506001610260565b8161037a57506000610260565b8160018114610390576002811461039a576103b6565b6001915050610260565b60ff8411156103ab576103ab610305565b50506001821b610260565b5060208310610133831016604e8410600b84101617156103d9575081810a610260565b6103e3838361031b565b80600019048211156103f7576103f7610305565b029392505050565b600061025d838361035e565b8082018082111561026057610260610305565b60408101818360005b6002811015610446578151835260209283019290910190600101610427565b50505092915050565b60006020828403121561046157600080fd5b5051919050565b60008261048557634e487b7160e01b600052601260045260246000fd5b50069056fea26469706673582212203754bf3537d26c6635b032c48e8688847d080f1b9cab5320a04abe13663607da64736f6c63430008110033",
  "linkReferences": {
    "contracts/railgun/logic/Poseidon.sol": {
      "PoseidonT3": [
        {
          "length": 20,
          "start": 534
        }
      ]
    }
  },
  "deployedLinkReferences": {
    "contracts/railgun/logic/Poseidon.sol": {
      "PoseidonT3": [
        {
          "length": 20,
          "start": 502
        }
      ]
    }
  }
}