{
  "_format": "hh-sol-artifact-1",
  "contractName": "RailgunLogic",
  "sourceName": "contracts/railgun/logic/RailgunLogic.sol",
  "abi": [
    {
      "anonymous": false,
      "inputs": [
        {
          "indexed": true,
          "internalType": "address",
          "name": "token",
          "type": "address"
        }
      ],
      "name": "AddToBlocklist",
      "type": "event"
    },
    {
      "anonymous": false,
      "inputs": [
        {
          "indexed": false,
          "internalType": "uint256",
          "name": "shieldFee",
          "type": "uint256"
        },
        {
          "indexed": false,
          "internalType": "uint256",
          "name": "unshieldFee",
          "type": "uint256"
        },
        {
          "indexed": false,
          "internalType": "uint256",
          "name": "nftFee",
          "type": "uint256"
        }
      ],
      "name": "FeeChange",
      "type": "event"
    },
    {
      "anonymous": false,
      "inputs": [
        {
          "indexed": false,
          "internalType": "uint8",
          "name": "version",
          "type": "uint8"
        }
      ],
      "name": "Initialized",
      "type": "event"
    },
    {
      "anonymous": false,
      "inputs": [
        {
          "indexed": false,
          "internalType": "uint16",
          "name": "treeNumber",
          "type": "uint16"
        },
        {
          "indexed": false,
          "internalType": "bytes32[]",
          "name": "nullifier",
          "type": "bytes32[]"
        }
      ],
      "name": "Nullified",
      "type": "event"
    },
    {
      "anonymous": false,
      "inputs": [
        {
          "indexed": true,
          "internalType": "address",
          "name": "previousOwner",
          "type": "address"
        },
        {
          "indexed": true,
          "internalType": "address",
          "name": "newOwner",
          "type": "address"
        }
      ],
      "name": "OwnershipTransferred",
      "type": "event"
    },
    {
      "anonymous": false,
      "inputs": [
        {
          "indexed": true,
          "internalType": "address",
          "name": "token",
          "type": "address"
        }
      ],
      "name": "RemoveFromBlocklist",
      "type": "event"
    },
    {
      "anonymous": false,
      "inputs": [
        {
          "indexed": false,
          "internalType": "uint256",
          "name": "treeNumber",
          "type": "uint256"
        },
        {
          "indexed": false,
          "internalType": "uint256",
          "name": "startPosition",
          "type": "uint256"
        },
        {
          "components": [
            {
              "internalType": "bytes32",
              "name": "npk",
              "type": "bytes32"
            },
            {
              "components": [
                {
                  "internalType": "enum TokenType",
                  "name": "tokenType",
                  "type": "uint8"
                },
                {
                  "internalType": "address",
                  "name": "tokenAddress",
                  "type": "address"
                },
                {
                  "internalType": "uint256",
                  "name": "tokenSubID",
                  "type": "uint256"
                }
              ],
              "internalType": "struct TokenData",
              "name": "token",
              "type": "tuple"
            },
            {
              "internalType": "uint120",
              "name": "value",
              "type": "uint120"
            }
          ],
          "indexed": false,
          "internalType": "struct CommitmentPreimage[]",
          "name": "commitments",
          "type": "tuple[]"
        },
        {
          "components": [
            {
              "internalType": "bytes32[3]",
              "name": "encryptedBundle",
              "type": "bytes32[3]"
            },
            {
              "internalType": "bytes32",
              "name": "shieldKey",
              "type": "bytes32"
            }
          ],
          "indexed": false,
          "internalType": "struct ShieldCiphertext[]",
          "name": "shieldCiphertext",
          "type": "tuple[]"
        },
        {
          "indexed": false,
          "internalType": "uint256[]",
          "name": "fees",
          "type": "uint256[]"
        }
      ],
      "name": "Shield",
      "type": "event"
    },
    {
      "anonymous": false,
      "inputs": [
        {
          "indexed": false,
          "internalType": "uint256",
          "name": "treeNumber",
          "type": "uint256"
        },
        {
          "indexed": false,
          "internalType": "uint256",
          "name": "startPosition",
          "type": "uint256"
        },
        {
          "indexed": false,
          "internalType": "bytes32[]",
          "name": "hash",
          "type": "bytes32[]"
        },
        {
          "components": [
            {
              "internalType": "bytes32[4]",
              "name": "ciphertext",
              "type": "bytes32[4]"
            },
            {
              "internalType": "bytes32",
              "name": "blindedSenderViewingKey",
              "type": "bytes32"
            },
            {
              "internalType": "bytes32",
              "name": "blindedReceiverViewingKey",
              "type": "bytes32"
            },
            {
              "internalType": "bytes",
              "name": "annotationData",
              "type": "bytes"
            },
            {
              "internalType": "bytes",
              "name": "memo",
              "type": "bytes"
            }
          ],
          "indexed": false,
          "internalType": "struct CommitmentCiphertext[]",
          "name": "ciphertext",
          "type": "tuple[]"
        }
      ],
      "name": "Transact",
      "type": "event"
    },
    {
      "anonymous": false,
      "inputs": [
        {
          "indexed": false,
          "internalType": "address",
          "name": "treasury",
          "type": "address"
        }
      ],
      "name": "TreasuryChange",
      "type": "event"
    },
    {
      "anonymous": false,
      "inputs": [
        {
          "indexed": false,
          "internalType": "address",
          "name": "to",
          "type": "address"
        },
        {
          "components": [
            {
              "internalType": "enum TokenType",
              "name": "tokenType",
              "type": "uint8"
            },
            {
              "internalType": "address",
              "name": "tokenAddress",
              "type": "address"
            },
            {
              "internalType": "uint256",
              "name": "tokenSubID",
              "type": "uint256"
            }
          ],
          "indexed": false,
          "internalType": "struct TokenData",
          "name": "token",
          "type": "tuple"
        },
        {
          "indexed": false,
          "internalType": "uint256",
          "name": "amount",
          "type": "uint256"
        },
        {
          "indexed": false,
          "internalType": "uint256",
          "name": "fee",
          "type": "uint256"
        }
      ],
      "name": "Unshield",
      "type": "event"
    },
    {
      "anonymous": false,
      "inputs": [
        {
          "indexed": false,
          "internalType": "uint256",
          "name": "nullifiers",
          "type": "uint256"
        },
        {
          "indexed": false,
          "internalType": "uint256",
          "name": "commitments",
          "type": "uint256"
        },
        {
          "components": [
            {
              "internalType": "string",
              "name": "artifactsIPFSHash",
              "type": "string"
            },
            {
              "components": [
                {
                  "internalType": "uint256",
                  "name": "x",
                  "type": "uint256"
                },
                {
                  "internalType": "uint256",
                  "name": "y",
                  "type": "uint256"
                }
              ],
              "internalType": "struct G1Point",
              "name": "alpha1",
              "type": "tuple"
            },
            {
              "components": [
                {
                  "internalType": "uint256[2]",
                  "name": "x",
                  "type": "uint256[2]"
                },
                {
                  "internalType": "uint256[2]",
                  "name": "y",
                  "type": "uint256[2]"
                }
              ],
              "internalType": "struct G2Point",
              "name": "beta2",
              "type": "tuple"
            },
            {
              "components": [
                {
                  "internalType": "uint256[2]",
                  "name": "x",
                  "type": "uint256[2]"
                },
                {
                  "internalType": "uint256[2]",
                  "name": "y",
                  "type": "uint256[2]"
                }
              ],
              "internalType": "struct G2Point",
              "name": "gamma2",
              "type": "tuple"
            },
            {
              "components": [
                {
                  "internalType": "uint256[2]",
                  "name": "x",
                  "type": "uint256[2]"
                },
                {
                  "internalType": "uint256[2]",
                  "name": "y",
                  "type": "uint256[2]"
                }
              ],
              "internalType": "struct G2Point",
              "name": "delta2",
              "type": "tuple"
            },
            {
              "components": [
                {
                  "internalType": "uint256",
                  "name": "x",
                  "type": "uint256"
                },
                {
                  "internalType": "uint256",
                  "name": "y",
                  "type": "uint256"
                }
              ],
              "internalType": "struct G1Point[]",
              "name": "ic",
              "type": "tuple[]"
            }
          ],
          "indexed": false,
          "internalType": "struct VerifyingKey",
          "name": "verifyingKey",
          "type": "tuple"
        }
      ],
      "name": "VerifyingKeySet",
      "type": "event"
    },
    {
      "inputs": [],
      "name": "ZERO_VALUE",
      "outputs": [
        {
          "internalType": "bytes32",
          "name": "",
          "type": "bytes32"
        }
      ],
      "stateMutability": "view",
      "type": "function"
    },
    {
      "inputs": [
        {
          "internalType": "address[]",
          "name": "_tokens",
          "type": "address[]"
        }
      ],
      "name": "addToBlocklist",
      "outputs": [],
      "stateMutability": "nonpayable",
      "type": "function"
    },
    {
      "inputs": [
        {
          "internalType": "uint256",
          "name": "vector",
          "type": "uint256"
        }
      ],
      "name": "addVector",
      "outputs": [],
      "stateMutability": "nonpayable",
      "type": "function"
    },
    {
      "inputs": [
        {
          "internalType": "uint120",
          "name": "_shieldFee",
          "type": "uint120"
        },
        {
          "internalType": "uint120",
          "name": "_unshieldFee",
          "type": "uint120"
        },
        {
          "internalType": "uint256",
          "name": "_nftFee",
          "type": "uint256"
        }
      ],
      "name": "changeFee",
      "outputs": [],
      "stateMutability": "nonpayable",
      "type": "function"
    },
    {
      "inputs": [
        {
          "internalType": "address payable",
          "name": "_treasury",
          "type": "address"
        }
      ],
      "name": "changeTreasury",
      "outputs": [],
      "stateMutability": "nonpayable",
      "type": "function"
    },
    {
      "inputs": [],
      "name": "checkSafetyVectors",
      "outputs": [],
      "stateMutability": "nonpayable",
      "type": "function"
    },
    {
      "inputs": [
        {
          "internalType": "uint136",
          "name": "_amount",
          "type": "uint136"
        },
        {
          "internalType": "bool",
          "name": "_isInclusive",
          "type": "bool"
        },
        {
          "internalType": "uint120",
          "name": "_feeBP",
          "type": "uint120"
        }
      ],
      "name": "getFee",
      "outputs": [
        {
          "internalType": "uint120",
          "name": "",
          "type": "uint120"
        },
        {
          "internalType": "uint120",
          "name": "",
          "type": "uint120"
        }
      ],
      "stateMutability": "pure",
      "type": "function"
    },
    {
      "inputs": [
        {
          "internalType": "uint256",
          "name": "_newCommitments",
          "type": "uint256"
        }
      ],
      "name": "getInsertionTreeNumberAndStartingIndex",
      "outputs": [
        {
          "internalType": "uint256",
          "name": "",
          "type": "uint256"
        },
        {
          "internalType": "uint256",
          "name": "",
          "type": "uint256"
        }
      ],
      "stateMutability": "view",
      "type": "function"
    },
    {
      "inputs": [
        {
          "components": [
            {
              "internalType": "enum TokenType",
              "name": "tokenType",
              "type": "uint8"
            },
            {
              "internalType": "address",
              "name": "tokenAddress",
              "type": "address"
            },
            {
              "internalType": "uint256",
              "name": "tokenSubID",
              "type": "uint256"
            }
          ],
          "internalType": "struct TokenData",
          "name": "_tokenData",
          "type": "tuple"
        }
      ],
      "name": "getTokenID",
      "outputs": [
        {
          "internalType": "bytes32",
          "name": "",
          "type": "bytes32"
        }
      ],
      "stateMutability": "pure",
      "type": "function"
    },
    {
      "inputs": [
        {
          "internalType": "uint256",
          "name": "_nullifiers",
          "type": "uint256"
        },
        {
          "internalType": "uint256",
          "name": "_commitments",
          "type": "uint256"
        }
      ],
      "name": "getVerificationKey",
      "outputs": [
        {
          "components": [
            {
              "internalType": "string",
              "name": "artifactsIPFSHash",
              "type": "string"
            },
            {
              "components": [
                {
                  "internalType": "uint256",
                  "name": "x",
                  "type": "uint256"
                },
                {
                  "internalType": "uint256",
                  "name": "y",
                  "type": "uint256"
                }
              ],
              "internalType": "struct G1Point",
              "name": "alpha1",
              "type": "tuple"
            },
            {
              "components": [
                {
                  "internalType": "uint256[2]",
                  "name": "x",
                  "type": "uint256[2]"
                },
                {
                  "internalType": "uint256[2]",
                  "name": "y",
                  "type": "uint256[2]"
                }
              ],
              "internalType": "struct G2Point",
              "name": "beta2",
              "type": "tuple"
            },
            {
              "components": [
                {
                  "internalType": "uint256[2]",
                  "name": "x",
                  "type": "uint256[2]"
                },
                {
                  "internalType": "uint256[2]",
                  "name": "y",
                  "type": "uint256[2]"
                }
              ],
              "internalType": "struct G2Point",
              "name": "gamma2",
              "type": "tuple"
            },
            {
              "components": [
                {
                  "internalType": "uint256[2]",
                  "name": "x",
                  "type": "uint256[2]"
                },
                {
                  "internalType": "uint256[2]",
                  "name": "y",
                  "type": "uint256[2]"
                }
              ],
              "internalType": "struct G2Point",
              "name": "delta2",
              "type": "tuple"
            },
            {
              "components": [
                {
                  "internalType": "uint256",
                  "name": "x",
                  "type": "uint256"
                },
                {
                  "internalType": "uint256",
                  "name": "y",
                  "type": "uint256"
                }
              ],
              "internalType": "struct G1Point[]",
              "name": "ic",
              "type": "tuple[]"
            }
          ],
          "internalType": "struct VerifyingKey",
          "name": "",
          "type": "tuple"
        }
      ],
      "stateMutability": "view",
      "type": "function"
    },
    {
      "inputs": [
        {
          "components": [
            {
              "internalType": "uint16",
              "name": "treeNumber",
              "type": "uint16"
            },
            {
              "internalType": "uint72",
              "name": "minGasPrice",
              "type": "uint72"
            },
            {
              "internalType": "enum UnshieldType",
              "name": "unshield",
              "type": "uint8"
            },
            {
              "internalType": "uint64",
              "name": "chainID",
              "type": "uint64"
            },
            {
              "internalType": "address",
              "name": "adaptContract",
              "type": "address"
            },
            {
              "internalType": "bytes32",
              "name": "adaptParams",
              "type": "bytes32"
            },
            {
              "components": [
                {
                  "internalType": "bytes32[4]",
                  "name": "ciphertext",
                  "type": "bytes32[4]"
                },
                {
                  "internalType": "bytes32",
                  "name": "blindedSenderViewingKey",
                  "type": "bytes32"
                },
                {
                  "internalType": "bytes32",
                  "name": "blindedReceiverViewingKey",
                  "type": "bytes32"
                },
                {
                  "internalType": "bytes",
                  "name": "annotationData",
                  "type": "bytes"
                },
                {
                  "internalType": "bytes",
                  "name": "memo",
                  "type": "bytes"
                }
              ],
              "internalType": "struct CommitmentCiphertext[]",
              "name": "commitmentCiphertext",
              "type": "tuple[]"
            }
          ],
          "internalType": "struct BoundParams",
          "name": "_boundParams",
          "type": "tuple"
        }
      ],
      "name": "hashBoundParams",
      "outputs": [
        {
          "internalType": "uint256",
          "name": "",
          "type": "uint256"
        }
      ],
      "stateMutability": "pure",
      "type": "function"
    },
    {
      "inputs": [
        {
          "components": [
            {
              "internalType": "bytes32",
              "name": "npk",
              "type": "bytes32"
            },
            {
              "components": [
                {
                  "internalType": "enum TokenType",
                  "name": "tokenType",
                  "type": "uint8"
                },
                {
                  "internalType": "address",
                  "name": "tokenAddress",
                  "type": "address"
                },
                {
                  "internalType": "uint256",
                  "name": "tokenSubID",
                  "type": "uint256"
                }
              ],
              "internalType": "struct TokenData",
              "name": "token",
              "type": "tuple"
            },
            {
              "internalType": "uint120",
              "name": "value",
              "type": "uint120"
            }
          ],
          "internalType": "struct CommitmentPreimage",
          "name": "_commitmentPreimage",
          "type": "tuple"
        }
      ],
      "name": "hashCommitment",
      "outputs": [
        {
          "internalType": "bytes32",
          "name": "",
          "type": "bytes32"
        }
      ],
      "stateMutability": "pure",
      "type": "function"
    },
    {
      "inputs": [
        {
          "internalType": "bytes32",
          "name": "_left",
          "type": "bytes32"
        },
        {
          "internalType": "bytes32",
          "name": "_right",
          "type": "bytes32"
        }
      ],
      "name": "hashLeftRight",
      "outputs": [
        {
          "internalType": "bytes32",
          "name": "",
          "type": "bytes32"
        }
      ],
      "stateMutability": "pure",
      "type": "function"
    },
    {
      "inputs": [
        {
          "internalType": "address payable",
          "name": "_treasury",
          "type": "address"
        },
        {
          "internalType": "uint120",
          "name": "_shieldFee",
          "type": "uint120"
        },
        {
          "internalType": "uint120",
          "name": "_unshieldFee",
          "type": "uint120"
        },
        {
          "internalType": "uint256",
          "name": "_nftFee",
          "type": "uint256"
        },
        {
          "internalType": "address",
          "name": "_owner",
          "type": "address"
        }
      ],
      "name": "initializeRailgunLogic",
      "outputs": [],
      "stateMutability": "nonpayable",
      "type": "function"
    },
    {
      "inputs": [],
      "name": "lastEventBlock",
      "outputs": [
        {
          "internalType": "uint256",
          "name": "",
          "type": "uint256"
        }
      ],
      "stateMutability": "view",
      "type": "function"
    },
    {
      "inputs": [],
      "name": "merkleRoot",
      "outputs": [
        {
          "internalType": "bytes32",
          "name": "",
          "type": "bytes32"
        }
      ],
      "stateMutability": "view",
      "type": "function"
    },
    {
      "inputs": [],
      "name": "nextLeafIndex",
      "outputs": [
        {
          "internalType": "uint256",
          "name": "",
          "type": "uint256"
        }
      ],
      "stateMutability": "view",
      "type": "function"
    },
    {
      "inputs": [],
      "name": "nftFee",
      "outputs": [
        {
          "internalType": "uint256",
          "name": "",
          "type": "uint256"
        }
      ],
      "stateMutability": "view",
      "type": "function"
    },
    {
      "inputs": [
        {
          "internalType": "uint256",
          "name": "",
          "type": "uint256"
        },
        {
          "internalType": "bytes32",
          "name": "",
          "type": "bytes32"
        }
      ],
      "name": "nullifiers",
      "outputs": [
        {
          "internalType": "bool",
          "name": "",
          "type": "bool"
        }
      ],
      "stateMutability": "view",
      "type": "function"
    },
    {
      "inputs": [],
      "name": "owner",
      "outputs": [
        {
          "internalType": "address",
          "name": "",
          "type": "address"
        }
      ],
      "stateMutability": "view",
      "type": "function"
    },
    {
      "inputs": [
        {
          "internalType": "address[]",
          "name": "_tokens",
          "type": "address[]"
        }
      ],
      "name": "removeFromBlocklist",
      "outputs": [],
      "stateMutability": "nonpayable",
      "type": "function"
    },
    {
      "inputs": [
        {
          "internalType": "uint256",
          "name": "vector",
          "type": "uint256"
        }
      ],
      "name": "removeVector",
      "outputs": [],
      "stateMutability": "nonpayable",
      "type": "function"
    },
    {
      "inputs": [],
      "name": "renounceOwnership",
      "outputs": [],
      "stateMutability": "nonpayable",
      "type": "function"
    },
    {
      "inputs": [
        {
          "internalType": "uint256",
          "name": "",
          "type": "uint256"
        },
        {
          "internalType": "bytes32",
          "name": "",
          "type": "bytes32"
        }
      ],
      "name": "rootHistory",
      "outputs": [
        {
          "internalType": "bool",
          "name": "",
          "type": "bool"
        }
      ],
      "stateMutability": "view",
      "type": "function"
    },
    {
      "inputs": [
        {
          "internalType": "bool",
          "name": "_testingMode",
          "type": "bool"
        }
      ],
      "name": "setTestingMode",
      "outputs": [],
      "stateMutability": "nonpayable",
      "type": "function"
    },
    {
      "inputs": [
        {
          "internalType": "uint256",
          "name": "_nullifiers",
          "type": "uint256"
        },
        {
          "internalType": "uint256",
          "name": "_commitments",
          "type": "uint256"
        },
        {
          "components": [
            {
              "internalType": "string",
              "name": "artifactsIPFSHash",
              "type": "string"
            },
            {
              "components": [
                {
                  "internalType": "uint256",
                  "name": "x",
                  "type": "uint256"
                },
                {
                  "internalType": "uint256",
                  "name": "y",
                  "type": "uint256"
                }
              ],
              "internalType": "struct G1Point",
              "name": "alpha1",
              "type": "tuple"
            },
            {
              "components": [
                {
                  "internalType": "uint256[2]",
                  "name": "x",
                  "type": "uint256[2]"
                },
                {
                  "internalType": "uint256[2]",
                  "name": "y",
                  "type": "uint256[2]"
                }
              ],
              "internalType": "struct G2Point",
              "name": "beta2",
              "type": "tuple"
            },
            {
              "components": [
                {
                  "internalType": "uint256[2]",
                  "name": "x",
                  "type": "uint256[2]"
                },
                {
                  "internalType": "uint256[2]",
                  "name": "y",
                  "type": "uint256[2]"
                }
              ],
              "internalType": "struct G2Point",
              "name": "gamma2",
              "type": "tuple"
            },
            {
              "components": [
                {
                  "internalType": "uint256[2]",
                  "name": "x",
                  "type": "uint256[2]"
                },
                {
                  "internalType": "uint256[2]",
                  "name": "y",
                  "type": "uint256[2]"
                }
              ],
              "internalType": "struct G2Point",
              "name": "delta2",
              "type": "tuple"
            },
            {
              "components": [
                {
                  "internalType": "uint256",
                  "name": "x",
                  "type": "uint256"
                },
                {
                  "internalType": "uint256",
                  "name": "y",
                  "type": "uint256"
                }
              ],
              "internalType": "struct G1Point[]",
              "name": "ic",
              "type": "tuple[]"
            }
          ],
          "internalType": "struct VerifyingKey",
          "name": "_verifyingKey",
          "type": "tuple"
        }
      ],
      "name": "setVerificationKey",
      "outputs": [],
      "stateMutability": "nonpayable",
      "type": "function"
    },
    {
      "inputs": [],
      "name": "shieldFee",
      "outputs": [
        {
          "internalType": "uint120",
          "name": "",
          "type": "uint120"
        }
      ],
      "stateMutability": "view",
      "type": "function"
    },
    {
      "inputs": [
        {
          "internalType": "uint256",
          "name": "",
          "type": "uint256"
        }
      ],
      "name": "snarkSafetyVector",
      "outputs": [
        {
          "internalType": "bool",
          "name": "",
          "type": "bool"
        }
      ],
      "stateMutability": "view",
      "type": "function"
    },
    {
      "inputs": [
        {
          "components": [
            {
              "components": [
                {
                  "components": [
                    {
                      "internalType": "uint256",
                      "name": "x",
                      "type": "uint256"
                    },
                    {
                      "internalType": "uint256",
                      "name": "y",
                      "type": "uint256"
                    }
                  ],
                  "internalType": "struct G1Point",
                  "name": "a",
                  "type": "tuple"
                },
                {
                  "components": [
                    {
                      "internalType": "uint256[2]",
                      "name": "x",
                      "type": "uint256[2]"
                    },
                    {
                      "internalType": "uint256[2]",
                      "name": "y",
                      "type": "uint256[2]"
                    }
                  ],
                  "internalType": "struct G2Point",
                  "name": "b",
                  "type": "tuple"
                },
                {
                  "components": [
                    {
                      "internalType": "uint256",
                      "name": "x",
                      "type": "uint256"
                    },
                    {
                      "internalType": "uint256",
                      "name": "y",
                      "type": "uint256"
                    }
                  ],
                  "internalType": "struct G1Point",
                  "name": "c",
                  "type": "tuple"
                }
              ],
              "internalType": "struct SnarkProof",
              "name": "proof",
              "type": "tuple"
            },
            {
              "internalType": "bytes32",
              "name": "merkleRoot",
              "type": "bytes32"
            },
            {
              "internalType": "bytes32[]",
              "name": "nullifiers",
              "type": "bytes32[]"
            },
            {
              "internalType": "bytes32[]",
              "name": "commitments",
              "type": "bytes32[]"
            },
            {
              "components": [
                {
                  "internalType": "uint16",
                  "name": "treeNumber",
                  "type": "uint16"
                },
                {
                  "internalType": "uint72",
                  "name": "minGasPrice",
                  "type": "uint72"
                },
                {
                  "internalType": "enum UnshieldType",
                  "name": "unshield",
                  "type": "uint8"
                },
                {
                  "internalType": "uint64",
                  "name": "chainID",
                  "type": "uint64"
                },
                {
                  "internalType": "address",
                  "name": "adaptContract",
                  "type": "address"
                },
                {
                  "internalType": "bytes32",
                  "name": "adaptParams",
                  "type": "bytes32"
                },
                {
                  "components": [
                    {
                      "internalType": "bytes32[4]",
                      "name": "ciphertext",
                      "type": "bytes32[4]"
                    },
                    {
                      "internalType": "bytes32",
                      "name": "blindedSenderViewingKey",
                      "type": "bytes32"
                    },
                    {
                      "internalType": "bytes32",
                      "name": "blindedReceiverViewingKey",
                      "type": "bytes32"
                    },
                    {
                      "internalType": "bytes",
                      "name": "annotationData",
                      "type": "bytes"
                    },
                    {
                      "internalType": "bytes",
                      "name": "memo",
                      "type": "bytes"
                    }
                  ],
                  "internalType": "struct CommitmentCiphertext[]",
                  "name": "commitmentCiphertext",
                  "type": "tuple[]"
                }
              ],
              "internalType": "struct BoundParams",
              "name": "boundParams",
              "type": "tuple"
            },
            {
              "components": [
                {
                  "internalType": "bytes32",
                  "name": "npk",
                  "type": "bytes32"
                },
                {
                  "components": [
                    {
                      "internalType": "enum TokenType",
                      "name": "tokenType",
                      "type": "uint8"
                    },
                    {
                      "internalType": "address",
                      "name": "tokenAddress",
                      "type": "address"
                    },
                    {
                      "internalType": "uint256",
                      "name": "tokenSubID",
                      "type": "uint256"
                    }
                  ],
                  "internalType": "struct TokenData",
                  "name": "token",
                  "type": "tuple"
                },
                {
                  "internalType": "uint120",
                  "name": "value",
                  "type": "uint120"
                }
              ],
              "internalType": "struct CommitmentPreimage",
              "name": "unshieldPreimage",
              "type": "tuple"
            }
          ],
          "internalType": "struct Transaction[]",
          "name": "_transactions",
          "type": "tuple[]"
        }
      ],
      "name": "sumCommitments",
      "outputs": [
        {
          "internalType": "uint256",
          "name": "",
          "type": "uint256"
        }
      ],
      "stateMutability": "pure",
      "type": "function"
    },
    {
      "inputs": [],
      "name": "testingMode",
      "outputs": [
        {
          "internalType": "bool",
          "name": "",
          "type": "bool"
        }
      ],
      "stateMutability": "view",
      "type": "function"
    },
    {
      "inputs": [
        {
          "internalType": "address",
          "name": "",
          "type": "address"
        }
      ],
      "name": "tokenBlocklist",
      "outputs": [
        {
          "internalType": "bool",
          "name": "",
          "type": "bool"
        }
      ],
      "stateMutability": "view",
      "type": "function"
    },
    {
      "inputs": [
        {
          "internalType": "bytes32",
          "name": "",
          "type": "bytes32"
        }
      ],
      "name": "tokenIDMapping",
      "outputs": [
        {
          "internalType": "enum TokenType",
          "name": "tokenType",
          "type": "uint8"
        },
        {
          "internalType": "address",
          "name": "tokenAddress",
          "type": "address"
        },
        {
          "internalType": "uint256",
          "name": "tokenSubID",
          "type": "uint256"
        }
      ],
      "stateMutability": "view",
      "type": "function"
    },
    {
      "inputs": [
        {
          "internalType": "address",
          "name": "newOwner",
          "type": "address"
        }
      ],
      "name": "transferOwnership",
      "outputs": [],
      "stateMutability": "nonpayable",
      "type": "function"
    },
    {
      "inputs": [],
      "name": "treasury",
      "outputs": [
        {
          "internalType": "address payable",
          "name": "",
          "type": "address"
        }
      ],
      "stateMutability": "view",
      "type": "function"
    },
    {
      "inputs": [],
      "name": "treeNumber",
      "outputs": [
        {
          "internalType": "uint256",
          "name": "",
          "type": "uint256"
        }
      ],
      "stateMutability": "view",
      "type": "function"
    },
    {
      "inputs": [],
      "name": "unshieldFee",
      "outputs": [
        {
          "internalType": "uint120",
          "name": "",
          "type": "uint120"
        }
      ],
      "stateMutability": "view",
      "type": "function"
    },
    {
      "inputs": [
        {
          "components": [
            {
              "internalType": "bytes32",
              "name": "npk",
              "type": "bytes32"
            },
            {
              "components": [
                {
                  "internalType": "enum TokenType",
                  "name": "tokenType",
                  "type": "uint8"
                },
                {
                  "internalType": "address",
                  "name": "tokenAddress",
                  "type": "address"
                },
                {
                  "internalType": "uint256",
                  "name": "tokenSubID",
                  "type": "uint256"
                }
              ],
              "internalType": "struct TokenData",
              "name": "token",
              "type": "tuple"
            },
            {
              "internalType": "uint120",
              "name": "value",
              "type": "uint120"
            }
          ],
          "internalType": "struct CommitmentPreimage",
          "name": "_note",
          "type": "tuple"
        }
      ],
      "name": "validateCommitmentPreimage",
      "outputs": [
        {
          "internalType": "bool",
          "name": "",
          "type": "bool"
        },
        {
          "internalType": "string",
          "name": "",
          "type": "string"
        }
      ],
      "stateMutability": "view",
      "type": "function"
    },
    {
      "inputs": [
        {
          "components": [
            {
              "components": [
                {
                  "components": [
                    {
                      "internalType": "uint256",
                      "name": "x",
                      "type": "uint256"
                    },
                    {
                      "internalType": "uint256",
                      "name": "y",
                      "type": "uint256"
                    }
                  ],
                  "internalType": "struct G1Point",
                  "name": "a",
                  "type": "tuple"
                },
                {
                  "components": [
                    {
                      "internalType": "uint256[2]",
                      "name": "x",
                      "type": "uint256[2]"
                    },
                    {
                      "internalType": "uint256[2]",
                      "name": "y",
                      "type": "uint256[2]"
                    }
                  ],
                  "internalType": "struct G2Point",
                  "name": "b",
                  "type": "tuple"
                },
                {
                  "components": [
                    {
                      "internalType": "uint256",
                      "name": "x",
                      "type": "uint256"
                    },
                    {
                      "internalType": "uint256",
                      "name": "y",
                      "type": "uint256"
                    }
                  ],
                  "internalType": "struct G1Point",
                  "name": "c",
                  "type": "tuple"
                }
              ],
              "internalType": "struct SnarkProof",
              "name": "proof",
              "type": "tuple"
            },
            {
              "internalType": "bytes32",
              "name": "merkleRoot",
              "type": "bytes32"
            },
            {
              "internalType": "bytes32[]",
              "name": "nullifiers",
              "type": "bytes32[]"
            },
            {
              "internalType": "bytes32[]",
              "name": "commitments",
              "type": "bytes32[]"
            },
            {
              "components": [
                {
                  "internalType": "uint16",
                  "name": "treeNumber",
                  "type": "uint16"
                },
                {
                  "internalType": "uint72",
                  "name": "minGasPrice",
                  "type": "uint72"
                },
                {
                  "internalType": "enum UnshieldType",
                  "name": "unshield",
                  "type": "uint8"
                },
                {
                  "internalType": "uint64",
                  "name": "chainID",
                  "type": "uint64"
                },
                {
                  "internalType": "address",
                  "name": "adaptContract",
                  "type": "address"
                },
                {
                  "internalType": "bytes32",
                  "name": "adaptParams",
                  "type": "bytes32"
                },
                {
                  "components": [
                    {
                      "internalType": "bytes32[4]",
                      "name": "ciphertext",
                      "type": "bytes32[4]"
                    },
                    {
                      "internalType": "bytes32",
                      "name": "blindedSenderViewingKey",
                      "type": "bytes32"
                    },
                    {
                      "internalType": "bytes32",
                      "name": "blindedReceiverViewingKey",
                      "type": "bytes32"
                    },
                    {
                      "internalType": "bytes",
                      "name": "annotationData",
                      "type": "bytes"
                    },
                    {
                      "internalType": "bytes",
                      "name": "memo",
                      "type": "bytes"
                    }
                  ],
                  "internalType": "struct CommitmentCiphertext[]",
                  "name": "commitmentCiphertext",
                  "type": "tuple[]"
                }
              ],
              "internalType": "struct BoundParams",
              "name": "boundParams",
              "type": "tuple"
            },
            {
              "components": [
                {
                  "internalType": "bytes32",
                  "name": "npk",
                  "type": "bytes32"
                },
                {
                  "components": [
                    {
                      "internalType": "enum TokenType",
                      "name": "tokenType",
                      "type": "uint8"
                    },
                    {
                      "internalType": "address",
                      "name": "tokenAddress",
                      "type": "address"
                    },
                    {
                      "internalType": "uint256",
                      "name": "tokenSubID",
                      "type": "uint256"
                    }
                  ],
                  "internalType": "struct TokenData",
                  "name": "token",
                  "type": "tuple"
                },
                {
                  "internalType": "uint120",
                  "name": "value",
                  "type": "uint120"
                }
              ],
              "internalType": "struct CommitmentPreimage",
              "name": "unshieldPreimage",
              "type": "tuple"
            }
          ],
          "internalType": "struct Transaction",
          "name": "_transaction",
          "type": "tuple"
        }
      ],
      "name": "validateTransaction",
      "outputs": [
        {
          "internalType": "bool",
          "name": "",
          "type": "bool"
        },
        {
          "internalType": "string",
          "name": "",
          "type": "string"
        }
      ],
      "stateMutability": "view",
      "type": "function"
    },
    {
      "inputs": [
        {
          "components": [
            {
              "components": [
                {
                  "components": [
                    {
                      "internalType": "uint256",
                      "name": "x",
                      "type": "uint256"
                    },
                    {
                      "internalType": "uint256",
                      "name": "y",
                      "type": "uint256"
                    }
                  ],
                  "internalType": "struct G1Point",
                  "name": "a",
                  "type": "tuple"
                },
                {
                  "components": [
                    {
                      "internalType": "uint256[2]",
                      "name": "x",
                      "type": "uint256[2]"
                    },
                    {
                      "internalType": "uint256[2]",
                      "name": "y",
                      "type": "uint256[2]"
                    }
                  ],
                  "internalType": "struct G2Point",
                  "name": "b",
                  "type": "tuple"
                },
                {
                  "components": [
                    {
                      "internalType": "uint256",
                      "name": "x",
                      "type": "uint256"
                    },
                    {
                      "internalType": "uint256",
                      "name": "y",
                      "type": "uint256"
                    }
                  ],
                  "internalType": "struct G1Point",
                  "name": "c",
                  "type": "tuple"
                }
              ],
              "internalType": "struct SnarkProof",
              "name": "proof",
              "type": "tuple"
            },
            {
              "internalType": "bytes32",
              "name": "merkleRoot",
              "type": "bytes32"
            },
            {
              "internalType": "bytes32[]",
              "name": "nullifiers",
              "type": "bytes32[]"
            },
            {
              "internalType": "bytes32[]",
              "name": "commitments",
              "type": "bytes32[]"
            },
            {
              "components": [
                {
                  "internalType": "uint16",
                  "name": "treeNumber",
                  "type": "uint16"
                },
                {
                  "internalType": "uint72",
                  "name": "minGasPrice",
                  "type": "uint72"
                },
                {
                  "internalType": "enum UnshieldType",
                  "name": "unshield",
                  "type": "uint8"
                },
                {
                  "internalType": "uint64",
                  "name": "chainID",
                  "type": "uint64"
                },
                {
                  "internalType": "address",
                  "name": "adaptContract",
                  "type": "address"
                },
                {
                  "internalType": "bytes32",
                  "name": "adaptParams",
                  "type": "bytes32"
                },
                {
                  "components": [
                    {
                      "internalType": "bytes32[4]",
                      "name": "ciphertext",
                      "type": "bytes32[4]"
                    },
                    {
                      "internalType": "bytes32",
                      "name": "blindedSenderViewingKey",
                      "type": "bytes32"
                    },
                    {
                      "internalType": "bytes32",
                      "name": "blindedReceiverViewingKey",
                      "type": "bytes32"
                    },
                    {
                      "internalType": "bytes",
                      "name": "annotationData",
                      "type": "bytes"
                    },
                    {
                      "internalType": "bytes",
                      "name": "memo",
                      "type": "bytes"
                    }
                  ],
                  "internalType": "struct CommitmentCiphertext[]",
                  "name": "commitmentCiphertext",
                  "type": "tuple[]"
                }
              ],
              "internalType": "struct BoundParams",
              "name": "boundParams",
              "type": "tuple"
            },
            {
              "components": [
                {
                  "internalType": "bytes32",
                  "name": "npk",
                  "type": "bytes32"
                },
                {
                  "components": [
                    {
                      "internalType": "enum TokenType",
                      "name": "tokenType",
                      "type": "uint8"
                    },
                    {
                      "internalType": "address",
                      "name": "tokenAddress",
                      "type": "address"
                    },
                    {
                      "internalType": "uint256",
                      "name": "tokenSubID",
                      "type": "uint256"
                    }
                  ],
                  "internalType": "struct TokenData",
                  "name": "token",
                  "type": "tuple"
                },
                {
                  "internalType": "uint120",
                  "name": "value",
                  "type": "uint120"
                }
              ],
              "internalType": "struct CommitmentPreimage",
              "name": "unshieldPreimage",
              "type": "tuple"
            }
          ],
          "internalType": "struct Transaction",
          "name": "_transaction",
          "type": "tuple"
        }
      ],
      "name": "verify",
      "outputs": [
        {
          "internalType": "bool",
          "name": "",
          "type": "bool"
        }
      ],
      "stateMutability": "view",
      "type": "function"
    },
    {
      "inputs": [
        {
          "components": [
            {
              "internalType": "string",
              "name": "artifactsIPFSHash",
              "type": "string"
            },
            {
              "components": [
                {
                  "internalType": "uint256",
                  "name": "x",
                  "type": "uint256"
                },
                {
                  "internalType": "uint256",
                  "name": "y",
                  "type": "uint256"
                }
              ],
              "internalType": "struct G1Point",
              "name": "alpha1",
              "type": "tuple"
            },
            {
              "components": [
                {
                  "internalType": "uint256[2]",
                  "name": "x",
                  "type": "uint256[2]"
                },
                {
                  "internalType": "uint256[2]",
                  "name": "y",
                  "type": "uint256[2]"
                }
              ],
              "internalType": "struct G2Point",
              "name": "beta2",
              "type": "tuple"
            },
            {
              "components": [
                {
                  "internalType": "uint256[2]",
                  "name": "x",
                  "type": "uint256[2]"
                },
                {
                  "internalType": "uint256[2]",
                  "name": "y",
                  "type": "uint256[2]"
                }
              ],
              "internalType": "struct G2Point",
              "name": "gamma2",
              "type": "tuple"
            },
            {
              "components": [
                {
                  "internalType": "uint256[2]",
                  "name": "x",
                  "type": "uint256[2]"
                },
                {
                  "internalType": "uint256[2]",
                  "name": "y",
                  "type": "uint256[2]"
                }
              ],
              "internalType": "struct G2Point",
              "name": "delta2",
              "type": "tuple"
            },
            {
              "components": [
                {
                  "internalType": "uint256",
                  "name": "x",
                  "type": "uint256"
                },
                {
                  "internalType": "uint256",
                  "name": "y",
                  "type": "uint256"
                }
              ],
              "internalType": "struct G1Point[]",
              "name": "ic",
              "type": "tuple[]"
            }
          ],
          "internalType": "struct VerifyingKey",
          "name": "_verifyingKey",
          "type": "tuple"
        },
        {
          "components": [
            {
              "components": [
                {
                  "internalType": "uint256",
                  "name": "x",
                  "type": "uint256"
                },
                {
                  "internalType": "uint256",
                  "name": "y",
                  "type": "uint256"
                }
              ],
              "internalType": "struct G1Point",
              "name": "a",
              "type": "tuple"
            },
            {
              "components": [
                {
                  "internalType": "uint256[2]",
                  "name": "x",
                  "type": "uint256[2]"
                },
                {
                  "internalType": "uint256[2]",
                  "name": "y",
                  "type": "uint256[2]"
                }
              ],
              "internalType": "struct G2Point",
              "name": "b",
              "type": "tuple"
            },
            {
              "components": [
                {
                  "internalType": "uint256",
                  "name": "x",
                  "type": "uint256"
                },
                {
                  "internalType": "uint256",
                  "name": "y",
                  "type": "uint256"
                }
              ],
              "internalType": "struct G1Point",
              "name": "c",
              "type": "tuple"
            }
          ],
          "internalType": "struct SnarkProof",
          "name": "_proof",
          "type": "tuple"
        },
        {
          "internalType": "uint256[]",
          "name": "_inputs",
          "type": "uint256[]"
        }
      ],
      "name": "verifyProof",
      "outputs": [
        {
          "internalType": "bool",
          "name": "",
          "type": "bool"
        }
      ],
      "stateMutability": "view",
      "type": "function"
    },
    {
      "inputs": [
        {
          "internalType": "uint256",
          "name": "",
          "type": "uint256"
        }
      ],
      "name": "zeros",
      "outputs": [
        {
          "internalType": "bytes32",
          "name": "",
          "type": "bytes32"
        }
      ],
      "stateMutability": "view",
      "type": "function"
    }
  ],
  "bytecode": "0x608060405234801561001057600080fd5b50613e2d806100206000396000f3fe608060405234801561001057600080fd5b50600436106102535760003560e01c806371c5345511610146578063c718dbda116100c3578063e829558811610087578063e8295588146105bf578063ec732959146105d2578063ee990783146105da578063f19ea903146105ed578063f2fde38b1461061b578063f71a55f81461062e57600080fd5b8063c718dbda14610555578063c8f35b5d14610583578063cc1f73fd14610590578063cd3efe06146105a3578063dc7c9a1f146105ac57600080fd5b806392d3c7a41161010a57806392d3c7a4146104bf578063a33952a9146104d2578063ab63e69c146104e5578063b14f2a39146104f8578063b8ceaef21461050b57600080fd5b806371c534551461044f5780637b12ae8314610462578063815b534f146104825780638da5cb5b146104a55780639071adc0146104b657600080fd5b80632ec0f359116101d4578063617e1b1711610198578063617e1b17146103ed57806361d027b314610400578063665033151461042b5780636cefafaa14610434578063715018a61461044757600080fd5b80632ec0f3591461036e57806338bf282e1461038157806343c8873014610394578063596d7a68146103c757806359bb6199146103da57600080fd5b8063129458f41161021b578063129458f4146102eb578063174768911461031e57806328f89c3a1461033f5780632eb4a7ab146103525780632ebfe12a1461035b57600080fd5b806301c3779014610258578063053ed12a146102885780630804a4ee146102a25780630be4f422146102ac5780630c9c0c8d146102c3575b600080fd5b60fa5461026b906001600160781b031681565b6040516001600160781b0390911681526020015b60405180910390f35b60fa5461026b90600160781b90046001600160781b031681565b6102aa610641565b005b6102b560665481565b60405190815260200161027f565b6102d66102d1366004612877565b6106d2565b6040805192835260208301919091520161027f565b61030e6102f9366004612877565b60fc6020526000908152604090205460ff1681565b604051901515815260200161027f565b61033161032c366004612890565b61071c565b60405161027f929190612911565b6102b561034d36600461292c565b610b81565b6102b560675481565b61030e610369366004612c71565b610bcc565b6102aa61037c366004612d84565b610bef565b6102b561038f366004612ddb565b610c5f565b6103a76103a2366004612e29565b610cf1565b604080516001600160781b0393841681529290911660208301520161027f565b6102aa6103d5366004612e7a565b610d82565b6102b56103e8366004612ee0565b610d9d565b6103316103fb366004612f15565b610e12565b60f954610413906001600160a01b031681565b6040516001600160a01b03909116815260200161027f565b6102b560695481565b6102aa610442366004612877565b610f9d565b6102aa610fc0565b6102b561045d366004612fa2565b610fd4565b610475610470366004612ddb565b611088565b60405161027f9190613030565b61030e61049036600461310c565b60956020526000908152604090205460ff1681565b6033546001600160a01b0316610413565b6102b560fb5481565b6102b56104cd366004613129565b61134d565b6102aa6104e0366004613145565b611399565b6102aa6104f3366004612ee0565b611575565b6102aa61050636600461310c565b611695565b610546610519366004612877565b60fd602052600090815260409020805460019091015460ff82169161010090046001600160a01b03169083565b60405161027f939291906131dd565b61030e610563366004612ddb565b608a60209081526000928352604080842090915290825290205460ff1681565b60c85461030e9060ff1681565b6102aa61059e366004613207565b611706565b6102b560fe5481565b6102aa6105ba366004612877565b6118b9565b6102b56105cd366004612877565b6118d9565b6102b56118f0565b61030e6105e8366004612890565b61192b565b61030e6105fb366004612ddb565b606560209081526000928352604080842090915290825290205460ff1681565b6102aa61062936600461310c565b611e37565b6102aa61063c366004612ee0565b611ead565b7f8dea8703c3cf94703383ce38a9c894669dccd4ca8e65ddb43267aa0248711450805460ff1916600117905533600090815260fc6020526040902054806106cf5760405162461bcd60e51b815260206004820152601c60248201527f5261696c67756e4c6f6769633a20556e7361666520766563746f72730000000060448201526064015b60405180910390fd5b50565b6000806106e16010600261333d565b836066546106ef9190613349565b111561070d57606954610703906001613349565b9360009350915050565b60695460665491509150915091565b6000606061072e61016084018461335c565b61073f906040810190602001613395565b68ffffffffffffffffff163a101561078357505060408051808201909152601181527047617320707269636520746f6f206c6f7760781b6020820152600092909150565b600061079361016085018561335c565b6107a49060a081019060800161310c565b6001600160a01b0316141580156107e25750336107c561016085018561335c565b6107d69060a081019060800161310c565b6001600160a01b031614155b156108285760006040518060400160405280602081526020017f496e76616c696420416461707420436f6e74726163742061732053656e64657281525091509150915091565b4661083761016085018561335c565b6108489060808101906060016133c7565b6001600160401b03161461088757505060408051808201909152601081526f086d0c2d2dc928840dad2e6dac2e8c6d60831b6020820152600092909150565b608a600061089961016086018661335c565b6108a79060208101906133f4565b61ffff16815260208082019290925260409081016000908120610100870135825290925290205460ff16610909575050604080518082019091526013815272125b9d985b1a590813595c9adb1948149bdbdd606a1b6020820152600092909150565b600061091961016085018561335c565b61092a90606081019060400161340f565b600281111561093b5761093b6131a9565b14610ad057600161095061014085018561342c565b61095b929150613475565b61096961016085018561335c565b6109779060c081019061342c565b9050146109a2576000604051806060016040528060248152602001613dd46024913991509150915091565b600060026109b461016086018661335c565b6109c590606081019060400161340f565b60028111156109d6576109d66131a9565b03610a32576040805160608101909152338152610a2b9060208101610a043688900388016101a08901613129565b8152602001610a1b61022088016102008901613488565b6001600160781b03169052610fd4565b9050610a4b565b610a4861045d3686900386016101808701612fa2565b90505b610a5961014085018561342c565b6001610a6961014088018861342c565b610a74929150613475565b818110610a8357610a836134a3565b905060200201358114610aca57600060405180604001604052806015815260200174496e76616c6964205769746864726177204e6f746560581b8152509250925050915091565b50610b27565b610ade61014084018461342c565b9050610aee61016085018561335c565b610afc9060c081019061342c565b905014610b27576000604051806060016040528060248152602001613dd46024913991509150915091565b610b308361192b565b610b6857505060408051808201909152601381527224b73b30b634b21029b730b93590283937b7b360691b6020820152600092909150565b5050604080516020810190915260008152600192909150565b6000600080516020613db483398151915282604051602001610ba39190613632565b6040516020818303038152906040528051906020012060001c610bc691906136fc565b92915050565b6000610be784610be136869003860186613710565b84611fd0565b949350505050565b610bf7612143565b600083815260c76020908152604080832085845290915290208190610c1c82826139e9565b9050507f3d09e10d1c966d01c4a2c14d0ac9af253486aa5e99b6cffe9019c4d43eb1fb23838383604051610c5293929190613aec565b60405180910390a1505050565b60408051808201825283815260208101839052905163014cf2b360e51b815260009173__$e4b2a9d8f07fa6f22863c7e426f7b84603$__9163299e566091610ca991600401613bd9565b602060405180830381865af4158015610cc6573d6000803e3d6000fd5b505050506040513d601f19601f82011682018060405250810190610cea9190613c0a565b9392505050565b6000806000808515610d3a57612710610d136001600160781b03871689613c23565b610d1d9190613c4c565b610d279088613c72565b9150610d338288613c72565b9050610d76565b86915081610d4a86612710613c99565b6001600160781b0316610d5f84612710613c23565b610d699190613c4c565b610d739190613c72565b90505b90969095509350505050565b610d8a612143565b60c8805460ff1916911515919091179055565b600080805b83811015610e0a57848482818110610dbc57610dbc6134a3565b9050602002810190610dce9190613cb9565b610ddd9061016081019061335c565b610deb9060c081019061342c565b610df6915083613349565b9150610e03600182613349565b9050610da2565b509392505050565b60006060610e2660a0840160808501613488565b6001600160781b0316600003610e69575050604080518082019091526012815271496e76616c6964204e6f74652056616c756560701b6020820152600092909150565b60956000610e7d606086016040870161310c565b6001600160a01b0316815260208101919091526040016000205460ff1615610ed15750506040805180820190915260118152702ab739bab83837b93a32b2102a37b5b2b760791b6020820152600092909150565b600080516020613db4833981519152833510610f1857505060408051808201909152601081526f496e76616c6964204e6f7465204e504b60801b6020820152600092909150565b6001610f2a604085016020860161340f565b6002811115610f3b57610f3b6131a9565b148015610f615750610f5360a0840160808501613488565b6001600160781b0316600114155b15610b68575050604080518082019091526016815275496e76616c6964204e4654204e6f74652056616c756560501b6020820152600092909150565b610fa5612143565b600090815260fc60205260409020805460ff19166001179055565b610fc8612143565b610fd2600061219d565b565b600073__$610c11827248d0bfa646e7ca34d40f2d3f$__635a53025d604051806060016040528085600001518152602001611012866020015161134d565b815260200185604001516001600160781b031660001b8152506040518263ffffffff1660e01b81526004016110479190613cd0565b602060405180830381865af4158015611064573d6000803e3d6000fd5b505050506040513d601f19601f82011682018060405250810190610bc69190613c0a565b611090612777565b600083815260c76020908152604080832085845290915290819020815160c081019092528054829082906110c390613756565b80601f01602080910402602001604051908101604052809291908181526020018280546110ef90613756565b801561113c5780601f106111115761010080835404028352916020019161113c565b820191906000526020600020905b81548152906001019060200180831161111f57829003601f168201915b505050918352505060408051808201825260018401548152600280850154602080840191909152840191909152815160808101808452938301939092600386019284929183019184919082845b81548152602001906001019080831161118957505050918352505060408051808201918290526020909201919060028481019182845b8154815260200190600101908083116111bf575050509190925250505081526040805160808101808352602090930192909160078501918391820190839060029082845b81548152602001906001019080831161120357505050918352505060408051808201918290526020909201919060028481019182845b8154815260200190600101908083116112395750505091909252505050815260408051608081018083526020909301929091600b8501918391820190839060029082845b81548152602001906001019080831161127d57505050918352505060408051808201918290526020909201919060028481019182845b8154815260200190600101908083116112b3575050505050815250508152602001600f8201805480602002602001604051908101604052809291908181526020016000905b8282101561133e578382906000526020600020906002020160405180604001604052908160008201548152602001600182015481525050815260200190600101906112f8565b50505091525090949350505050565b60008082516002811115611363576113636131a9565b036113795750602001516001600160a01b031690565b600080516020613db483398151915282604051602001610ba39190613cf8565b600054610100900460ff16158080156113b95750600054600160ff909116105b806113d35750303b1580156113d3575060005460ff166001145b6114365760405162461bcd60e51b815260206004820152602e60248201527f496e697469616c697a61626c653a20636f6e747261637420697320616c72656160448201526d191e481a5b9a5d1a585b1a5e995960921b60648201526084016106c6565b6000805460ff191660011790558015611459576000805461ff0019166101001790555b6114616121ef565b61146961221e565b61147286611695565b61147d858585611706565b61148682611e37565b60fc6020527f18a261e1efd282dd636becf59b85995514ab34d1c1c9a3e1128aac786b5472de8054600160ff1991821681179092557f35cc25be27a7e44e9e6eb23f103c8980fe6d01e7b6e981c2c07b23911ac79e8b805482168317905573cc29dbf69896278a0c6b886ef8cc30a56fa6164a6000527f7e1bfa3bd01233beed03b737790a265ae14e11664e22f82316c6f65a13e15c8c80549091169091179055801561156d576000805461ff0019169055604051600181527f7f26b83ff96e1f2b6a682f133852f6798a09c465da95921460cefb38474024989060200160405180910390a15b505050505050565b61157d612143565b60005b81811015611690576095600084848481811061159e5761159e6134a3565b90506020020160208101906115b3919061310c565b6001600160a01b0316815260208101919091526040016000205460ff161561167e57609560008484848181106115eb576115eb6134a3565b9050602002016020810190611600919061310c565b6001600160a01b031681526020810191909152604001600020805460ff19169055828282818110611633576116336134a3565b9050602002016020810190611648919061310c565b6001600160a01b03167f2ef13bd1aff17b0f9c85afaf228e84266c8394d9d381735e83fe23f607113e2e60405160405180910390a25b611689600182613349565b9050611580565b505050565b61169d612143565b60f9546001600160a01b038281169116146106cf5760f980546001600160a01b0319166001600160a01b0383169081179091556040519081527f1ac54af2084ba0e4b86b7bc54b978ce7dd4ca046d3dec89d7c8963873820c0bb9060200160405180910390a150565b61170e612143565b60fa546001600160781b038481169116141580611740575060fa546001600160781b03838116600160781b9092041614155b8061174d575060fb548114155b156116905761175f6002612710613d2e565b6001600160781b0316836001600160781b031611156117cc5760405162461bcd60e51b8152602060048201526024808201527f5261696c67756e4c6f6769633a20536869656c642046656520657863656564736044820152632035302560e01b60648201526084016106c6565b6117d96002612710613d2e565b6001600160781b0316826001600160781b031611156118495760405162461bcd60e51b815260206004820152602660248201527f5261696c67756e4c6f6769633a20556e736869656c642046656520657863656560448201526564732035302560d01b60648201526084016106c6565b60fa80546001600160781b038581166001600160f01b03199092168217600160781b9186169182021790925560fb8390556040805191825260208201929092529081018290527f472cfc031d19bcc54db01976ce486cc12dc3d489e6adced1eb5a782cd55cfdf290606001610c52565b6118c1612143565b600090815260fc60205260409020805460ff19169055565b606a81601081106118e957600080fd5b0154905081565b611928600080516020613db48339815191527f95b5e3f3c951508f13e7771152f5b7c7329a294917685c10a571c9247e3b9fff6136fc565b81565b60c85460009060ff161561194157506001919050565b600061195161012084018461342c565b91506000905061196561014085018561342c565b600084815260c760209081526040808320848452909152808220815160c081019092528054939550919350918290829061199e90613756565b80601f01602080910402602001604051908101604052809291908181526020018280546119ca90613756565b8015611a175780601f106119ec57610100808354040283529160200191611a17565b820191906000526020600020905b8154815290600101906020018083116119fa57829003601f168201915b505050918352505060408051808201825260018401548152600280850154602080840191909152840191909152815160808101808452938301939092600386019284929183019184919082845b815481526020019060010190808311611a6457505050918352505060408051808201918290526020909201919060028481019182845b815481526020019060010190808311611a9a575050509190925250505081526040805160808101808352602090930192909160078501918391820190839060029082845b815481526020019060010190808311611ade57505050918352505060408051808201918290526020909201919060028481019182845b815481526020019060010190808311611b145750505091909252505050815260408051608081018083526020909301929091600b8501918391820190839060029082845b815481526020019060010190808311611b5857505050918352505060408051808201918290526020909201919060028481019182845b815481526020019060010190808311611b8e575050505050815250508152602001600f8201805480602002602001604051908101604052809291908181526020016000905b82821015611c1957838290600052602060002090600202016040518060400160405290816000820154815260200160018201548152505081526020019060010190611bd3565b50505091525050602081015151909150600003611c705760405162461bcd60e51b815260206004820152601560248201527415995c9a599a595c8e8812d95e481b9bdd081cd95d605a1b60448201526064016106c6565b600082611c7e856002613349565b611c889190613349565b6001600160401b03811115611c9f57611c9f612966565b604051908082528060200260200182016040528015611cc8578160200160208202803683370190505b50905085610100013560001c81600081518110611ce757611ce76134a3565b6020908102919091010152611d0361034d61016088018861335c565b81600181518110611d1657611d166134a3565b60200260200101818152505060005b84811015611d8e57611d3b61012088018861342c565b82818110611d4b57611d4b6134a3565b6020029190910135905082611d61836002613349565b81518110611d7157611d716134a3565b6020908102919091010152611d87600182613349565b9050611d25565b5060005b83811015611e0657611da861014088018861342c565b82818110611db857611db86134a3565b602002919091013590508282611dcf886002613349565b611dd99190613349565b81518110611de957611de96134a3565b6020908102919091010152611dff600182613349565b9050611d92565b506000611e14838884610bcc565b905061deac193201611e2d575060019695505050505050565b9695505050505050565b611e3f612143565b6001600160a01b038116611ea45760405162461bcd60e51b815260206004820152602660248201527f4f776e61626c653a206e6577206f776e657220697320746865207a65726f206160448201526564647265737360d01b60648201526084016106c6565b6106cf8161219d565b611eb5612143565b60005b818110156116905760956000848484818110611ed657611ed66134a3565b9050602002016020810190611eeb919061310c565b6001600160a01b0316815260208101919091526040016000205460ff16611fbe57600160956000858585818110611f2457611f246134a3565b9050602002016020810190611f39919061310c565b6001600160a01b031681526020810191909152604001600020805460ff1916911515919091179055828282818110611f7357611f736134a3565b9050602002016020810190611f88919061310c565b6001600160a01b03167f46742f555939247f80b50a8ca895a561933c48bc9a06ccb0c812e97ac723d33f60405160405180910390a25b611fc9600182613349565b9050611eb8565b6040805180820190915260008082526020820181905290815b83518110156120db57600080516020613db4833981519152848281518110612013576120136134a3565b6020026020010151106120725760405162461bcd60e51b815260206004820152602160248201527f536e61726b3a20496e707574203e20534e41524b5f5343414c41525f4649454c6044820152601160fa1b60648201526084016106c6565b6120c7826120c28860a0015184600161208b9190613349565b8151811061209b5761209b6134a3565b60200260200101518785815181106120b5576120b56134a3565b6020026020010151612345565b6123e9565b91506120d4600182613349565b9050611fe9565b50612104818660a001516000815181106120f7576120f76134a3565b60200260200101516123e9565b905061213a6121168560000151612489565b856020015187602001518860400151858a606001518a604001518c608001516125cb565b95945050505050565b6033546001600160a01b03163314610fd25760405162461bcd60e51b815260206004820181905260248201527f4f776e61626c653a2063616c6c6572206973206e6f7420746865206f776e657260448201526064016106c6565b603380546001600160a01b038381166001600160a01b0319831681179093556040519116919082907f8be0079c531659141344cd1fd0a4f28419497f9722a3daafe3b4186f6b6457e090600090a35050565b600054610100900460ff166122165760405162461bcd60e51b81526004016106c690613d48565b610fd2612747565b600054610100900460ff166122455760405162461bcd60e51b81526004016106c690613d48565b61227d600080516020613db48339815191527f95b5e3f3c951508f13e7771152f5b7c7329a294917685c10a571c9247e3b9fff6136fc565b606a5560006122ba600080516020613db48339815191527f95b5e3f3c951508f13e7771152f5b7c7329a294917685c10a571c9247e3b9fff6136fc565b905060005b60108110156123125781606a82601081106122dc576122dc6134a3565b015581607a82601081106122f2576122f26134a3565b01556122fe8280610c5f565b915061230b600182613349565b90506122bf565b50606781905560688190556069546000908152608a6020908152604080832093835292905220805460ff19166001179055565b60408051808201909152600080825260208201526123616127da565b835181526020808501519082015260408082018490526000908360608460076107d05a03fa9050806123e15760405162461bcd60e51b815260206004820152602360248201527f536e61726b3a205363616c6172204d756c7469706c69636174696f6e204661696044820152621b195960ea1b60648201526084016106c6565b505092915050565b60408051808201909152600080825260208201526124056127f8565b83518152602080850151818301528351604080840191909152848201516060840152805180820182526000808252928101839052908160808560066107d05a03fa91508161213a5760405162461bcd60e51b815260206004820152601160248201527014db985c9ace881059190811985a5b1959607a1b60448201526064016106c6565b604080518082019091526000808252602082015281511580156124ae57506020820151155b156124cc575050604080518082019091526000808252602082015290565b6000600080516020613d94833981519152835180099050600080516020613d94833981519152835182099050600080516020613d948339815191526003820890506000600080516020613d948339815191526020850151800990508181146125765760405162461bcd60e51b815260206004820152601760248201527f536e61726b3a20496e76616c6964206e65676174696f6e00000000000000000060448201526064016106c6565b604051806040016040528085600001518152602001600080516020613d9483398151915286602001516125a991906136fc565b6125c190600080516020613d94833981519152613475565b9052949350505050565b6040805161030081018252895181526020808b015181830152895151928201929092528851820151606082015288820180515160808301525182015160a0820152875160c08201528782015160e08201528651516101008201528651820151610120820152868201805151610140830152518201516101608201528551610180820152858201516101a08201528451516101c082015284518201516101e08201528482018051516102008301525182015161022082015283516102408201528382015161026082015282515161028082015282518201516102a08201528282018051516102c083015251909101516102e08201526000906126ca612816565b60006020826103008560086107d05a03fa9050806127355760405162461bcd60e51b815260206004820152602260248201527f536e61726b3a2050616972696e6720566572696669636174696f6e204661696c604482015261195960f21b60648201526084016106c6565b505115159a9950505050505050505050565b600054610100900460ff1661276e5760405162461bcd60e51b81526004016106c690613d48565b610fd23361219d565b6040518060c00160405280606081526020016127a6604051806040016040528060008152602001600081525090565b81526020016127b3612834565b81526020016127c0612834565b81526020016127cd612834565b8152602001606081525090565b60405180606001604052806003906020820280368337509192915050565b60405180608001604052806004906020820280368337509192915050565b60405180602001604052806001906020820280368337509192915050565b6040518060400160405280612847612859565b8152602001612854612859565b905290565b60405180604001604052806002906020820280368337509192915050565b60006020828403121561288957600080fd5b5035919050565b6000602082840312156128a257600080fd5b81356001600160401b038111156128b857600080fd5b82016102208185031215610cea57600080fd5b6000815180845260005b818110156128f1576020818501810151868301820152016128d5565b506000602082860101526020601f19601f83011685010191505092915050565b8215158152604060208201526000610be760408301846128cb565b60006020828403121561293e57600080fd5b81356001600160401b0381111561295457600080fd5b820160e08185031215610cea57600080fd5b634e487b7160e01b600052604160045260246000fd5b604080519081016001600160401b038111828210171561299e5761299e612966565b60405290565b60405160c081016001600160401b038111828210171561299e5761299e612966565b604051606081016001600160401b038111828210171561299e5761299e612966565b604051601f8201601f191681016001600160401b0381118282101715612a1057612a10612966565b604052919050565b600082601f830112612a2957600080fd5b81356001600160401b03811115612a4257612a42612966565b612a55601f8201601f19166020016129e8565b818152846020838601011115612a6a57600080fd5b816020850160208301376000918101602001919091529392505050565b600060408284031215612a9957600080fd5b612aa161297c565b9050813581526020820135602082015292915050565b600082601f830112612ac857600080fd5b604051604081018181106001600160401b0382111715612aea57612aea612966565b8060405250806040840185811115612b0157600080fd5b845b81811015612b1b578035835260209283019201612b03565b509195945050505050565b600060808284031215612b3857600080fd5b612b4061297c565b9050612b4c8383612ab7565b8152612b5b8360408401612ab7565b602082015292915050565b60006001600160401b03821115612b7f57612b7f612966565b5060051b60200190565b600082601f830112612b9a57600080fd5b81356020612baf612baa83612b66565b6129e8565b82815260069290921b84018101918181019086841115612bce57600080fd5b8286015b84811015612bf257612be48882612a87565b835291830191604001612bd2565b509695505050505050565b60006101008284031215612c1057600080fd5b50919050565b600082601f830112612c2757600080fd5b81356020612c37612baa83612b66565b82815260059290921b84018101918181019086841115612c5657600080fd5b8286015b84811015612bf25780358352918301918301612c5a565b60008060006101408486031215612c8757600080fd5b83356001600160401b0380821115612c9e57600080fd5b908501906102008288031215612cb357600080fd5b612cbb6129a4565b823582811115612cca57600080fd5b612cd689828601612a18565b825250612ce68860208501612a87565b6020820152612cf88860608501612b26565b6040820152612d0a8860e08501612b26565b6060820152612d1d886101608501612b26565b60808201526101e083013582811115612d3557600080fd5b612d4189828601612b89565b60a0830152509450612d568760208801612bfd565b9350610120860135915080821115612d6d57600080fd5b50612d7a86828701612c16565b9150509250925092565b600080600060608486031215612d9957600080fd5b833592506020840135915060408401356001600160401b03811115612dbd57600080fd5b84016102008187031215612dd057600080fd5b809150509250925092565b60008060408385031215612dee57600080fd5b50508035926020909101359150565b80358015158114612e0d57600080fd5b919050565b80356001600160781b0381168114612e0d57600080fd5b600080600060608486031215612e3e57600080fd5b83356001600160881b0381168114612e5557600080fd5b9250612e6360208501612dfd565b9150612e7160408501612e12565b90509250925092565b600060208284031215612e8c57600080fd5b610cea82612dfd565b60008083601f840112612ea757600080fd5b5081356001600160401b03811115612ebe57600080fd5b6020830191508360208260051b8501011115612ed957600080fd5b9250929050565b60008060208385031215612ef357600080fd5b82356001600160401b03811115612f0957600080fd5b610d7685828601612e95565b600060a08284031215612c1057600080fd5b600381106106cf57600080fd5b6001600160a01b03811681146106cf57600080fd5b8035612e0d81612f34565b600060608284031215612f6657600080fd5b612f6e6129c6565b90508135612f7b81612f27565b81526020820135612f8b81612f34565b806020830152506040820135604082015292915050565b600060a08284031215612fb457600080fd5b612fbc6129c6565b82358152612fcd8460208501612f54565b6020820152612fde60808401612e12565b60408201529392505050565b8060005b600281101561300d578151845260209384019390910190600101612fee565b50505050565b61301e828251612fea565b60208101516116906040840182612fea565b600060208083528351610200808386015261304f6102208601836128cb565b915082860151604061306d8188018380518252602090810151910152565b8088015191506130806080880183613013565b60608801519150613095610100880183613013565b608088015191506130aa610180880183613013565b60a0880151878503601f190193880193909352825180855292850193850192600092505b808310156130ff576130eb84865180518252602090810151910152565b9385019392810192600192909201916130ce565b5091979650505050505050565b60006020828403121561311e57600080fd5b8135610cea81612f34565b60006060828403121561313b57600080fd5b610cea8383612f54565b600080600080600060a0868803121561315d57600080fd5b853561316881612f34565b945061317660208701612e12565b935061318460408701612e12565b925060608601359150608086013561319b81612f34565b809150509295509295909350565b634e487b7160e01b600052602160045260246000fd5b600381106106cf57634e487b7160e01b600052602160045260246000fd5b606081016131ea856131bf565b9381526001600160a01b0392909216602083015260409091015290565b60008060006060848603121561321c57600080fd5b61322584612e12565b925061323360208501612e12565b9150604084013590509250925092565b634e487b7160e01b600052601160045260246000fd5b600181815b8085111561329457816000190482111561327a5761327a613243565b8085161561328757918102915b93841c939080029061325e565b509250929050565b6000826132ab57506001610bc6565b816132b857506000610bc6565b81600181146132ce57600281146132d8576132f4565b6001915050610bc6565b60ff8411156132e9576132e9613243565b50506001821b610bc6565b5060208310610133831016604e8410600b8410161715613317575081810a610bc6565b6133218383613259565b806000190482111561333557613335613243565b029392505050565b6000610cea838361329c565b80820180821115610bc657610bc6613243565b6000823560de1983360301811261337257600080fd5b9190910192915050565b803568ffffffffffffffffff81168114612e0d57600080fd5b6000602082840312156133a757600080fd5b610cea8261337c565b80356001600160401b0381168114612e0d57600080fd5b6000602082840312156133d957600080fd5b610cea826133b0565b803561ffff81168114612e0d57600080fd5b60006020828403121561340657600080fd5b610cea826133e2565b60006020828403121561342157600080fd5b8135610cea81612f27565b6000808335601e1984360301811261344357600080fd5b8301803591506001600160401b0382111561345d57600080fd5b6020019150600581901b3603821315612ed957600080fd5b81810381811115610bc657610bc6613243565b60006020828403121561349a57600080fd5b610cea82612e12565b634e487b7160e01b600052603260045260246000fd5b6000808335601e198436030181126134d057600080fd5b83016020810192503590506001600160401b038111156134ef57600080fd5b8060051b3603821315612ed957600080fd5b6000808335601e1984360301811261351857600080fd5b83016020810192503590506001600160401b0381111561353757600080fd5b803603821315612ed957600080fd5b81835281816020850137506000828201602090810191909152601f909101601f19169091010190565b81835260006020808501808196508560051b81019150846000805b88811015613624578385038a52823560fe198936030181126135aa578283fd5b8801610100608080838937828101359088015260a0808301359088015260c06135d581840184613501565b83838b01526135e7848b018284613546565b935050505060e06135fa81840184613501565b9350888303828a015261360e838583613546565b9d8a019d9850505093870193505060010161358a565b509298975050505050505050565b6020815261ffff613642836133e2565b16602082015268ffffffffffffffffff61365e6020840161337c565b1660408201526000604083013561367481612f27565b61367d816131bf565b806060840152506001600160401b03613698606085016133b0565b1660808301526136aa60808401612f49565b6001600160a01b03811660a08401525060a083013560c08301526136d160c08401846134b9565b60e08085015261213a6101008501828461356f565b634e487b7160e01b600052601260045260246000fd5b60008261370b5761370b6136e6565b500690565b6000610100828403121561372357600080fd5b61372b6129c6565b6137358484612a87565b81526137448460408501612b26565b6020820152612fde8460c08501612a87565b600181811c9082168061376a57607f821691505b602082108103612c1057634e487b7160e01b600052602260045260246000fd5b601f82111561169057600081815260208120601f850160051c810160208610156137b15750805b601f850160051c820191505b8181101561156d578281556001016137bd565b6001600160401b038311156137e7576137e7612966565b6137fb836137f58354613756565b8361378a565b6000601f84116001811461382f57600085156138175750838201355b600019600387901b1c1916600186901b178355613889565b600083815260209020601f19861690835b828110156138605786850135825560209485019460019092019101613840565b508682101561387d5760001960f88860031b161c19848701351681555b505060018560011b0183555b5050505050565b8160005b60028110156138b157813583820155602090910190600101613894565b50506040820160005b60028082106138c9575061300d565b8235848301909101556020909101906001016138ba565b6000808335601e198436030181126138f757600080fd5b8301803591506001600160401b0382111561391157600080fd5b6020019150600681901b3603821315612ed957600080fd5b6801000000000000000083111561394257613942612966565b8054838255808410156139b05760016001600160ff1b03828116831461396a5761396a613243565b808616861461397b5761397b613243565b5060008381526020812086831b81019084841b015b808210156139ab578282558284830155600282019150613990565b505050505b5060008181526020812083915b8581101561156d57823582556020830135600183015560409290920191600291909101906001016139bd565b8135601e198336030181126139fd57600080fd5b820180356001600160401b03811115613a1557600080fd5b602082019150803603821315613a2a57600080fd5b613a358183856137d0565b50506020820135600182015560408201356002820155613a5b6060830160038301613890565b613a6b60e0830160078301613890565b613a7c6101608301600b8301613890565b613a8a6101e08301836138e0565b61300d8183600f8601613929565b6040818337604080820160408401375050565b81835260208301925060008160005b84811015613ae257813586526020808301359087015260409586019590910190600101613aba565b5093949350505050565b838152826020820152606060408201526000613b088384613501565b6102006060850152613b1f61026085018284613546565b60208601356080860152604086013560a08601529150613b3c9050565b613b4c60c0840160608601613a98565b613b5d610140840160e08601613a98565b613b6f6101c084016101608601613a98565b6101e0840135601e19853603018112613b8757600080fd5b84016020810190356001600160401b03811115613ba357600080fd5b8060061b3603821315613bb557600080fd5b848303605f1901610240860152613bcd838284613aab565b98975050505050505050565b60408101818360005b6002811015613c01578151835260209283019290910190600101613be2565b50505092915050565b600060208284031215613c1c57600080fd5b5051919050565b6001600160881b03828116828216818102831692918115828504821417613c0157613c01613243565b60006001600160881b0380841680613c6657613c666136e6565b92169190910492915050565b6001600160881b03828116828216039080821115613c9257613c92613243565b5092915050565b6001600160781b03828116828216039080821115613c9257613c92613243565b6000823561021e1983360301811261337257600080fd5b60608101818360005b6003811015613c01578151835260209283019290910190600101613cd9565b81516060820190613d08816131bf565b82526020838101516001600160a01b031690830152604092830151929091019190915290565b60006001600160781b0380841680613c6657613c666136e6565b6020808252602b908201527f496e697469616c697a61626c653a20636f6e7472616374206973206e6f74206960408201526a6e697469616c697a696e6760a81b60608201526080019056fe30644e72e131a029b85045b68181585d97816a916871ca8d3c208c16d87cfd4730644e72e131a029b85045b68181585d2833e84879b9709143e1f593f0000001496e76616c6964204e6f74652043697068657274657874204172726179204c656e677468a2646970667358221220a403892c39ddeae5bb5d0f80477f9d3a0c7d1a3a33e71be1ca593d094e7b1b4164736f6c63430008110033",
  "linkReferences": {
    "contracts/railgun/logic/Poseidon.sol": {
      "PoseidonT3": [
        {
          "length": 20,
          "start": 3235
        }
      ],
      "PoseidonT4": [
        {
          "length": 20,
          "start": 4088
        }
      ]
    }
  },
  "deployedLinkReferences": {
    "contracts/railgun/logic/Poseidon.sol": {
      "PoseidonT3": [
        {
          "length": 20,
          "start": 3203
        }
      ],
      "PoseidonT4": [
        {
          "length": 20,
          "start": 4056
        }
      ]
    }
  }
}