{"abi":[{"type":"constructor","inputs":[{"name":"_privacyPool","type":"address","internalType":"address"}],"stateMutability":"nonpayable"},{"type":"receive","stateMutability":"payable"},{"type":"function","name":"getAdaptParams","inputs":[{"name":"_transactions","type":"tuple[]","internalType":"struct Transaction[]","components":[{"name":"proof","type":"tuple","internalType":"struct SnarkProof","components":[{"name":"a","type":"tuple","internalType":"struct G1Point","components":[{"name":"x","type":"uint256","internalType":"uint256"},{"name":"y","type":"uint256","internalType":"uint256"}]},{"name":"b","type":"tuple","internalType":"struct G2Point","components":[{"name":"x","type":"uint256[2]","internalType":"uint256[2]"},{"name":"y","type":"uint256[2]","internalType":"uint256[2]"}]},{"name":"c","type":"tuple","internalType":"struct G1Point","components":[{"name":"x","type":"uint256","internalType":"uint256"},{"name":"y","type":"uint256","internalType":"uint256"}]}]},{"name":"merkleRoot","type":"bytes32","internalType":"bytes32"},{"name":"nullifiers","type":"bytes32[]","internalType":"bytes32[]"},{"name":"commitments","type":"bytes32[]","internalType":"bytes32[]"},{"name":"boundParams","type":"tuple","internalType":"struct BoundParams","components":[{"name":"treeNumber","type":"uint16","internalType":"uint16"},{"name":"minGasPrice","type":"uint72","internalType":"uint72"},{"name":"unshield","type":"uint8","internalType":"enum UnshieldType"},{"name":"chainID","type":"uint64","internalType":"uint64"},{"name":"adaptContract","type":"address","internalType":"address"},{"name":"adaptParams","type":"bytes32","internalType":"bytes32"},{"name":"commitmentCiphertext","type":"tuple[]","internalType":"struct CommitmentCiphertext[]","components":[{"name":"ciphertext","type":"bytes32[4]","internalType":"bytes32[4]"},{"name":"blindedSenderViewingKey","type":"bytes32","internalType":"bytes32"},{"name":"blindedReceiverViewingKey","type":"bytes32","internalType":"bytes32"},{"name":"annotationData","type":"bytes","internalType":"bytes"},{"name":"memo","type":"bytes","internalType":"bytes"}]}]},{"name":"unshieldPreimage","type":"tuple","internalType":"struct CommitmentPreimage","components":[{"name":"npk","type":"bytes32","internalType":"bytes32"},{"name":"token","type":"tuple","internalType":"struct TokenData","components":[{"name":"tokenType","type":"uint8","internalType":"enum TokenType"},{"name":"tokenAddress","type":"address","internalType":"address"},{"name":"tokenSubID","type":"uint256","internalType":"uint256"}]},{"name":"value","type":"uint120","internalType":"uint120"}]}]},{"name":"_actionData","type":"tuple","internalType":"struct PrivacyPoolRelayAdapt.ActionData","components":[{"name":"random","type":"bytes31","internalType":"bytes31"},{"name":"requireSuccess","type":"bool","internalType":"bool"},{"name":"minGasLimit","type":"uint256","internalType":"uint256"},{"name":"calls","type":"tuple[]","internalType":"struct PrivacyPoolRelayAdapt.Call[]","components":[{"name":"to","type":"address","internalType":"address"},{"name":"data","type":"bytes","internalType":"bytes"},{"name":"value","type":"uint256","internalType":"uint256"}]}]}],"outputs":[{"name":"","type":"bytes32","internalType":"bytes32"}],"stateMutability":"pure"},{"type":"function","name":"multicall","inputs":[{"name":"_requireSuccess","type":"bool","internalType":"bool"},{"name":"_calls","type":"tuple[]","internalType":"struct PrivacyPoolRelayAdapt.Call[]","components":[{"name":"to","type":"address","internalType":"address"},{"name":"data","type":"bytes","internalType":"bytes"},{"name":"value","type":"uint256","internalType":"uint256"}]}],"outputs":[],"stateMutability":"payable"},{"type":"function","name":"privacyPool","inputs":[],"outputs":[{"name":"","type":"address","internalType":"contract IPrivacyPool"}],"stateMutability":"view"},{"type":"function","name":"relay","inputs":[{"name":"_transactions","type":"tuple[]","internalType":"struct Transaction[]","components":[{"name":"proof","type":"tuple","internalType":"struct SnarkProof","components":[{"name":"a","type":"tuple","internalType":"struct G1Point","components":[{"name":"x","type":"uint256","internalType":"uint256"},{"name":"y","type":"uint256","internalType":"uint256"}]},{"name":"b","type":"tuple","internalType":"struct G2Point","components":[{"name":"x","type":"uint256[2]","internalType":"uint256[2]"},{"name":"y","type":"uint256[2]","internalType":"uint256[2]"}]},{"name":"c","type":"tuple","internalType":"struct G1Point","components":[{"name":"x","type":"uint256","internalType":"uint256"},{"name":"y","type":"uint256","internalType":"uint256"}]}]},{"name":"merkleRoot","type":"bytes32","internalType":"bytes32"},{"name":"nullifiers","type":"bytes32[]","internalType":"bytes32[]"},{"name":"commitments","type":"bytes32[]","internalType":"bytes32[]"},{"name":"boundParams","type":"tuple","internalType":"struct BoundParams","components":[{"name":"treeNumber","type":"uint16","internalType":"uint16"},{"name":"minGasPrice","type":"uint72","internalType":"uint72"},{"name":"unshield","type":"uint8","internalType":"enum UnshieldType"},{"name":"chainID","type":"uint64","internalType":"uint64"},{"name":"adaptContract","type":"address","internalType":"address"},{"name":"adaptParams","type":"bytes32","internalType":"bytes32"},{"name":"commitmentCiphertext","type":"tuple[]","internalType":"struct CommitmentCiphertext[]","components":[{"name":"ciphertext","type":"bytes32[4]","internalType":"bytes32[4]"},{"name":"blindedSenderViewingKey","type":"bytes32","internalType":"bytes32"},{"name":"blindedReceiverViewingKey","type":"bytes32","internalType":"bytes32"},{"name":"annotationData","type":"bytes","internalType":"bytes"},{"name":"memo","type":"bytes","internalType":"bytes"}]}]},{"name":"unshieldPreimage","type":"tuple","internalType":"struct CommitmentPreimage","components":[{"name":"npk","type":"bytes32","internalType":"bytes32"},{"name":"token","type":"tuple","internalType":"struct TokenData","components":[{"name":"tokenType","type":"uint8","internalType":"enum TokenType"},{"name":"tokenAddress","type":"address","internalType":"address"},{"name":"tokenSubID","type":"uint256","internalType":"uint256"}]},{"name":"value","type":"uint120","internalType":"uint120"}]}]},{"name":"_actionData","type":"tuple","internalType":"struct PrivacyPoolRelayAdapt.ActionData","components":[{"name":"random","type":"bytes31","internalType":"bytes31"},{"name":"requireSuccess","type":"bool","internalType":"bool"},{"name":"minGasLimit","type":"uint256","internalType":"uint256"},{"name":"calls","type":"tuple[]","internalType":"struct PrivacyPoolRelayAdapt.Call[]","components":[{"name":"to","type":"address","internalType":"address"},{"name":"data","type":"bytes","internalType":"bytes"},{"name":"value","type":"uint256","internalType":"uint256"}]}]}],"outputs":[],"stateMutability":"payable"},{"type":"function","name":"shield","inputs":[{"name":"_shieldRequests","type":"tuple[]","internalType":"struct ShieldRequest[]","components":[{"name":"preimage","type":"tuple","internalType":"struct CommitmentPreimage","components":[{"name":"npk","type":"bytes32","internalType":"bytes32"},{"name":"token","type":"tuple","internalType":"struct TokenData","components":[{"name":"tokenType","type":"uint8","internalType":"enum TokenType"},{"name":"tokenAddress","type":"address","internalType":"address"},{"name":"tokenSubID","type":"uint256","internalType":"uint256"}]},{"name":"value","type":"uint120","internalType":"uint120"}]},{"name":"ciphertext","type":"tuple","internalType":"struct ShieldCiphertext","components":[{"name":"encryptedBundle","type":"bytes32[3]","internalType":"bytes32[3]"},{"name":"shieldKey","type":"bytes32","internalType":"bytes32"}]}]}],"outputs":[],"stateMutability":"nonpayable"},{"type":"function","name":"transfer","inputs":[{"name":"_transfers","type":"tuple[]","internalType":"struct PrivacyPoolRelayAdapt.TokenTransfer[]","components":[{"name":"token","type":"tuple","internalType":"struct TokenData","components":[{"name":"tokenType","type":"uint8","internalType":"enum TokenType"},{"name":"tokenAddress","type":"address","internalType":"address"},{"name":"tokenSubID","type":"uint256","internalType":"uint256"}]},{"name":"to","type":"address","internalType":"address"},{"name":"value","type":"uint256","internalType":"uint256"}]}],"outputs":[],"stateMutability":"nonpayable"},{"type":"event","name":"CallError","inputs":[{"name":"callIndex","type":"uint256","indexed":false,"internalType":"uint256"},{"name":"revertReason","type":"bytes","indexed":false,"internalType":"bytes"}],"anonymous":false},{"type":"error","name":"CallFailed","inputs":[{"name":"callIndex","type":"uint256","internalType":"uint256"},{"name":"revertReason","type":"bytes","internalType":"bytes"}]}],"bytecode":{"object":"0x60806040526000600160006101000a81548160ff0219169083151502179055503480156200002c57600080fd5b5060405162003f9e38038062003f9e83398181016040528101906200005291906200017d565b6001600081905550600073ffffffffffffffffffffffffffffffffffffffff168173ffffffffffffffffffffffffffffffffffffffff1603620000cc576040517f08c379a0000000000000000000000000000000000000000000000000000000008152600401620000c39062000210565b60405180910390fd5b806001806101000a81548173ffffffffffffffffffffffffffffffffffffffff021916908373ffffffffffffffffffffffffffffffffffffffff1602179055505062000232565b600080fd5b600073ffffffffffffffffffffffffffffffffffffffff82169050919050565b6000620001458262000118565b9050919050565b620001578162000138565b81146200016357600080fd5b50565b60008151905062000177816200014c565b92915050565b60006020828403121562000196576200019562000113565b5b6000620001a68482850162000166565b91505092915050565b600082825260208201905092915050565b7f52656c617941646170743a207a65726f20616464726573730000000000000000600082015250565b6000620001f8601883620001af565b91506200020582620001c0565b602082019050919050565b600060208201905081810360008301526200022b81620001e9565b9050919050565b613d5c80620002426000396000f3fe6080604052600436106100595760003560e01c8063044a40c31461006557806328223a771461008e5780639643829f146100aa578063aa77250e146100e7578063c2e9ffd814610112578063e4899c131461013b57610060565b3661006057005b600080fd5b34801561007157600080fd5b5061008c60048036038101906100879190611926565b610157565b005b6100a860048036038101906100a391906119ed565b6107ec565b005b3480156100b657600080fd5b506100d160048036038101906100cc91906119ed565b610a8f565b6040516100de9190611a82565b60405180910390f35b3480156100f357600080fd5b506100fc610bd3565b6040516101099190611b1c565b60405180910390f35b34801561011e57600080fd5b5061013960048036038101906101349190611b8d565b610bf7565b005b61015560048036038101906101509190611c68565b6110a7565b005b600160009054906101000a900460ff16158061019e57503073ffffffffffffffffffffffffffffffffffffffff163373ffffffffffffffffffffffffffffffffffffffff16145b6101dd576040517f08c379a00000000000000000000000000000000000000000000000000000000081526004016101d490611d4b565b60405180910390fd5b60018060006101000a81548160ff0219169083151502179055506000808383905067ffffffffffffffff81111561021757610216611d6b565b5b6040519080825280602002602001820160405280156102455781602001602082028036833780820191505090505b50905060005b848490508110156105c0576000600281111561026a57610269611d9a565b5b85858381811061027d5761027c611dc9565b5b90506101200201600001602001600001602081019061029c9190611e1d565b60028111156102ae576102ad611d9a565b5b036105715760008585838181106102c8576102c7611dc9565b5b9050610120020160000160200160200160208101906102e79190611e88565b905060008686848181106102fe576102fd611dc9565b5b90506101200201600001608001602081019061031a9190611efc565b6effffffffffffffffffffffffffffff16036103f2578073ffffffffffffffffffffffffffffffffffffffff166370a08231306040518263ffffffff1660e01b81526004016103699190611f38565b602060405180830381865afa158015610386573d6000803e3d6000fd5b505050506040513d601f19601f820116820180604052508101906103aa9190611f89565b8383815181106103bd576103bc611dc9565b5b60200260200101906effffffffffffffffffffffffffffff1690816effffffffffffffffffffffffffffff1681525050610465565b85858381811061040557610404611dc9565b5b9050610120020160000160800160208101906104219190611efc565b83838151811061043457610433611dc9565b5b60200260200101906effffffffffffffffffffffffffffff1690816effffffffffffffffffffffffffffff16815250505b6104b160018054906101000a900473ffffffffffffffffffffffffffffffffffffffff1660008373ffffffffffffffffffffffffffffffffffffffff166111729092919063ffffffff16565b61052760018054906101000a900473ffffffffffffffffffffffffffffffffffffffff168484815181106104e8576104e7611dc9565b5b60200260200101516effffffffffffffffffffffffffffff168373ffffffffffffffffffffffffffffffffffffffff166111729092919063ffffffff16565b600083838151811061053c5761053b611dc9565b5b60200260200101516effffffffffffffffffffffffffffff16111561056b576001846105689190611fe5565b93505b506105ac565b6040517f08c379a00000000000000000000000000000000000000000000000000000000081526004016105a390612065565b60405180910390fd5b6001816105b99190611fe5565b905061024b565b50600082036105d05750506107cd565b60008267ffffffffffffffff8111156105ec576105eb611d6b565b5b60405190808252806020026020018201604052801561062557816020015b6106126117bd565b81526020019060019003908161060a5790505b5090506000805b8686905081101561073c57600084828151811061064c5761064b611dc9565b5b60200260200101516effffffffffffffffffffffffffffff16146107285786868281811061067d5761067c611dc9565b5b905061012002018036038101906106949190612342565b8383815181106106a7576106a6611dc9565b5b60200260200101819052508381815181106106c5576106c4611dc9565b5b60200260200101518383815181106106e0576106df611dc9565b5b602002602001015160000151604001906effffffffffffffffffffffffffffff1690816effffffffffffffffffffffffffffff16815250506001826107259190611fe5565b91505b6001816107359190611fe5565b905061062c565b5060018054906101000a900473ffffffffffffffffffffffffffffffffffffffff1673ffffffffffffffffffffffffffffffffffffffff1663044a40c3836040518263ffffffff1660e01b81526004016107969190612623565b600060405180830381600087803b1580156107b057600080fd5b505af11580156107c4573d6000803e3d6000fd5b50505050505050505b6000600160006101000a81548160ff0219169083151502179055505050565b600160009054906101000a900460ff16158061083357503073ffffffffffffffffffffffffffffffffffffffff163373ffffffffffffffffffffffffffffffffffffffff16145b610872576040517f08c379a000000000000000000000000000000000000000000000000000000000815260040161086990611d4b565b60405180910390fd5b60018060006101000a81548160ff02191690831515021790555080604001355a116108d2576040517f08c379a00000000000000000000000000000000000000000000000000000000081526004016108c9906126b7565b60405180910390fd5b60006108df848484610a8f565b905060005b848490508110156109b5578185858381811061090357610902611dc9565b5b905060200281019061091591906126e6565b806101600190610925919061270f565b60a001351480610962575061dead73ffffffffffffffffffffffffffffffffffffffff163273ffffffffffffffffffffffffffffffffffffffff16145b6109a1576040517f08c379a0000000000000000000000000000000000000000000000000000000008152600401610998906127a9565b60405180910390fd5b6001816109ae9190611fe5565b90506108e4565b5060018054906101000a900473ffffffffffffffffffffffffffffffffffffffff1673ffffffffffffffffffffffffffffffffffffffff1663d8ae136a85856040518363ffffffff1660e01b8152600401610a11929190613217565b600060405180830381600087803b158015610a2b57600080fd5b505af1158015610a3f573d6000803e3d6000fd5b50505050610a6e826020016020810190610a59919061323b565b838060600190610a699190613268565b6112c1565b506000600160006101000a81548160ff021916908315150217905550505050565b6000808484905067ffffffffffffffff811115610aaf57610aae611d6b565b5b604051908082528060200260200182016040528015610ae257816020015b6060815260200190600190039081610acd5790505b50905060005b85859050811015610b9a57858582818110610b0657610b05611dc9565b5b9050602002810190610b1891906126e6565b806101200190610b2891906132cb565b80806020026020016040519081016040528093929190818152602001838360200280828437600081840152601f19601f82011690508083019250505050505050828281518110610b7b57610b7a611dc9565b5b6020026020010181905250600181610b939190611fe5565b9050610ae8565b50808585905084604051602001610bb393929190613753565b604051602081830303815290604052805190602001209150509392505050565b60018054906101000a900473ffffffffffffffffffffffffffffffffffffffff1681565b600160009054906101000a900460ff161580610c3e57503073ffffffffffffffffffffffffffffffffffffffff163373ffffffffffffffffffffffffffffffffffffffff16145b610c7d576040517f08c379a0000000000000000000000000000000000000000000000000000000008152600401610c7490611d4b565b60405180910390fd5b60018060006101000a81548160ff02191690831515021790555060005b828290508110156110875760006002811115610cb957610cb8611d9a565b5b838383818110610ccc57610ccb611dc9565b5b905060a002016000016000016020810190610ce79190611e1d565b6002811115610cf957610cf8611d9a565b5b148015610d5f5750600073ffffffffffffffffffffffffffffffffffffffff16838383818110610d2c57610d2b611dc9565b5b905060a002016000016020016020810190610d479190611e88565b73ffffffffffffffffffffffffffffffffffffffff16145b15610e8c57600080848484818110610d7a57610d79611dc9565b5b905060a002016080013514610dab57838383818110610d9c57610d9b611dc9565b5b905060a0020160800135610dad565b475b90506000848484818110610dc457610dc3611dc9565b5b905060a002016060016020810190610ddc9190611e88565b73ffffffffffffffffffffffffffffffffffffffff1682604051610dff906137c9565b60006040518083038185875af1925050503d8060008114610e3c576040519150601f19603f3d011682016040523d82523d6000602084013e610e41565b606091505b5050905080610e85576040517f08c379a0000000000000000000000000000000000000000000000000000000008152600401610e7c9061382a565b60405180910390fd5b5050611073565b60006002811115610ea057610e9f611d9a565b5b838383818110610eb357610eb2611dc9565b5b905060a002016000016000016020810190610ece9190611e1d565b6002811115610ee057610edf611d9a565b5b03611037576000838383818110610efa57610ef9611dc9565b5b905060a002016000016020016020810190610f159190611e88565b9050600080858585818110610f2d57610f2c611dc9565b5b905060a002016080013514610f5e57848484818110610f4f57610f4e611dc9565b5b905060a0020160800135610fd9565b8173ffffffffffffffffffffffffffffffffffffffff166370a08231306040518263ffffffff1660e01b8152600401610f979190611f38565b602060405180830381865afa158015610fb4573d6000803e3d6000fd5b505050506040513d601f19601f82011682018060405250810190610fd89190611f89565b5b9050611030858585818110610ff157610ff0611dc9565b5b905060a0020160600160208101906110099190611e88565b828473ffffffffffffffffffffffffffffffffffffffff166114a29092919063ffffffff16565b5050611072565b6040517f08c379a000000000000000000000000000000000000000000000000000000000815260040161106990612065565b60405180910390fd5b5b6001816110809190611fe5565b9050610c9a565b506000600160006101000a81548160ff0219169083151502179055505050565b600160009054906101000a900460ff1615806110ee57503073ffffffffffffffffffffffffffffffffffffffff163373ffffffffffffffffffffffffffffffffffffffff16145b61112d576040517f08c379a000000000000000000000000000000000000000000000000000000000815260040161112490611d4b565b60405180910390fd5b60018060006101000a81548160ff0219169083151502179055506111528383836112c1565b6000600160006101000a81548160ff021916908315150217905550505050565b60008114806111fc575060008373ffffffffffffffffffffffffffffffffffffffff1663dd62ed3e30856040518363ffffffff1660e01b81526004016111b992919061384a565b602060405180830381865afa1580156111d6573d6000803e3d6000fd5b505050506040513d601f19601f820116820180604052508101906111fa9190611f89565b145b61123b576040517f08c379a0000000000000000000000000000000000000000000000000000000008152600401611232906138e5565b60405180910390fd5b6112bc8363095ea7b360e01b848460405160240161125a929190613905565b604051602081830303815290604052907bffffffffffffffffffffffffffffffffffffffffffffffffffffffff19166020820180517bffffffffffffffffffffffffffffffffffffffffffffffffffffffff8381831617835250505050611528565b505050565b60005b8282905081101561149c57368383838181106112e3576112e2611dc9565b5b90506020028101906112f5919061392e565b90506000606060018054906101000a900473ffffffffffffffffffffffffffffffffffffffff1673ffffffffffffffffffffffffffffffffffffffff168360000160208101906113459190611e88565b73ffffffffffffffffffffffffffffffffffffffff16146113f8578260000160208101906113739190611e88565b73ffffffffffffffffffffffffffffffffffffffff16836040013584806020019061139e9190613956565b6040516113ac9291906139de565b60006040518083038185875af1925050503d80600081146113e9576040519150601f19603f3d011682016040523d82523d6000602084013e6113ee565b606091505b5080925081935050505b811561140657505050611488565b861561144b5783816040517f5c0dee5d000000000000000000000000000000000000000000000000000000008152600401611442929190613a76565b60405180910390fd5b7fb8d4413b1c94556140ea4dc9a1208b4ca5a780b4057e9dcaca7046449881c392848260405161147c929190613a76565b60405180910390a15050505b6001816114959190611fe5565b90506112c4565b50505050565b6115238363a9059cbb60e01b84846040516024016114c1929190613905565b604051602081830303815290604052907bffffffffffffffffffffffffffffffffffffffffffffffffffffffff19166020820180517bffffffffffffffffffffffffffffffffffffffffffffffffffffffff8381831617835250505050611528565b505050565b600061158a826040518060400160405280602081526020017f5361666545524332303a206c6f772d6c6576656c2063616c6c206661696c65648152508573ffffffffffffffffffffffffffffffffffffffff166115f09092919063ffffffff16565b90506000815114806115ac5750808060200190518101906115ab9190613abb565b5b6115eb576040517f08c379a00000000000000000000000000000000000000000000000000000000081526004016115e290613b5a565b60405180910390fd5b505050565b60606115ff8484600085611608565b90509392505050565b60608247101561164d576040517f08c379a000000000000000000000000000000000000000000000000000000000815260040161164490613bec565b60405180910390fd5b6000808673ffffffffffffffffffffffffffffffffffffffff1685876040516116769190613c3d565b60006040518083038185875af1925050503d80600081146116b3576040519150601f19603f3d011682016040523d82523d6000602084013e6116b8565b606091505b50915091506116c9878383876116d5565b92505050949350505050565b6060831561173757600083510361172f576116ef8561174a565b61172e576040517f08c379a000000000000000000000000000000000000000000000000000000000815260040161172590613ca0565b60405180910390fd5b5b829050611742565b611741838361176d565b5b949350505050565b6000808273ffffffffffffffffffffffffffffffffffffffff163b119050919050565b6000825111156117805781518083602001fd5b806040517f08c379a00000000000000000000000000000000000000000000000000000000081526004016117b49190613d04565b60405180910390fd5b60405180604001604052806117d06117e3565b81526020016117dd61181e565b81525090565b604051806060016040528060008019168152602001611800611841565b815260200160006effffffffffffffffffffffffffffff1681525090565b604051806040016040528061183161188a565b8152602001600080191681525090565b6040518060600160405280600060028111156118605761185f611d9a565b5b8152602001600073ffffffffffffffffffffffffffffffffffffffff168152602001600081525090565b6040518060600160405280600390602082028036833780820191505090505090565b6000604051905090565b600080fd5b600080fd5b600080fd5b600080fd5b600080fd5b60008083601f8401126118e5576118e46118c0565b5b8235905067ffffffffffffffff811115611902576119016118c5565b5b6020830191508361012082028301111561191f5761191e6118ca565b5b9250929050565b6000806020838503121561193d5761193c6118b6565b5b600083013567ffffffffffffffff81111561195b5761195a6118bb565b5b611967858286016118cf565b92509250509250929050565b60008083601f840112611989576119886118c0565b5b8235905067ffffffffffffffff8111156119a6576119a56118c5565b5b6020830191508360208202830111156119c2576119c16118ca565b5b9250929050565b600080fd5b6000608082840312156119e4576119e36119c9565b5b81905092915050565b600080600060408486031215611a0657611a056118b6565b5b600084013567ffffffffffffffff811115611a2457611a236118bb565b5b611a3086828701611973565b9350935050602084013567ffffffffffffffff811115611a5357611a526118bb565b5b611a5f868287016119ce565b9150509250925092565b6000819050919050565b611a7c81611a69565b82525050565b6000602082019050611a976000830184611a73565b92915050565b600073ffffffffffffffffffffffffffffffffffffffff82169050919050565b6000819050919050565b6000611ae2611add611ad884611a9d565b611abd565b611a9d565b9050919050565b6000611af482611ac7565b9050919050565b6000611b0682611ae9565b9050919050565b611b1681611afb565b82525050565b6000602082019050611b316000830184611b0d565b92915050565b60008083601f840112611b4d57611b4c6118c0565b5b8235905067ffffffffffffffff811115611b6a57611b696118c5565b5b6020830191508360a0820283011115611b8657611b856118ca565b5b9250929050565b60008060208385031215611ba457611ba36118b6565b5b600083013567ffffffffffffffff811115611bc257611bc16118bb565b5b611bce85828601611b37565b92509250509250929050565b60008115159050919050565b611bef81611bda565b8114611bfa57600080fd5b50565b600081359050611c0c81611be6565b92915050565b60008083601f840112611c2857611c276118c0565b5b8235905067ffffffffffffffff811115611c4557611c446118c5565b5b602083019150836020820283011115611c6157611c606118ca565b5b9250929050565b600080600060408486031215611c8157611c806118b6565b5b6000611c8f86828701611bfd565b935050602084013567ffffffffffffffff811115611cb057611caf6118bb565b5b611cbc86828701611c12565b92509250509250925092565b600082825260208201905092915050565b7f52656c617941646170743a2045787465726e616c2063616c6c20746f206f6e6c60008201527f7953656c662066756e6374696f6e000000000000000000000000000000000000602082015250565b6000611d35602e83611cc8565b9150611d4082611cd9565b604082019050919050565b60006020820190508181036000830152611d6481611d28565b9050919050565b7f4e487b7100000000000000000000000000000000000000000000000000000000600052604160045260246000fd5b7f4e487b7100000000000000000000000000000000000000000000000000000000600052602160045260246000fd5b7f4e487b7100000000000000000000000000000000000000000000000000000000600052603260045260246000fd5b60038110611e0557600080fd5b50565b600081359050611e1781611df8565b92915050565b600060208284031215611e3357611e326118b6565b5b6000611e4184828501611e08565b91505092915050565b6000611e5582611a9d565b9050919050565b611e6581611e4a565b8114611e7057600080fd5b50565b600081359050611e8281611e5c565b92915050565b600060208284031215611e9e57611e9d6118b6565b5b6000611eac84828501611e73565b91505092915050565b60006effffffffffffffffffffffffffffff82169050919050565b611ed981611eb5565b8114611ee457600080fd5b50565b600081359050611ef681611ed0565b92915050565b600060208284031215611f1257611f116118b6565b5b6000611f2084828501611ee7565b91505092915050565b611f3281611e4a565b82525050565b6000602082019050611f4d6000830184611f29565b92915050565b6000819050919050565b611f6681611f53565b8114611f7157600080fd5b50565b600081519050611f8381611f5d565b92915050565b600060208284031215611f9f57611f9e6118b6565b5b6000611fad84828501611f74565b91505092915050565b7f4e487b7100000000000000000000000000000000000000000000000000000000600052601160045260246000fd5b6000611ff082611f53565b9150611ffb83611f53565b925082820190508082111561201357612012611fb6565b5b92915050565b7f52656c617941646170743a204f6e6c7920455243323020737570706f72746564600082015250565b600061204f602083611cc8565b915061205a82612019565b602082019050919050565b6000602082019050818103600083015261207e81612042565b9050919050565b600080fd5b6000601f19601f8301169050919050565b6120a48261208a565b810181811067ffffffffffffffff821117156120c3576120c2611d6b565b5b80604052505050565b60006120d66118ac565b90506120e2828261209b565b919050565b6120f081611a69565b81146120fb57600080fd5b50565b60008135905061210d816120e7565b92915050565b60008135905061212281611f5d565b92915050565b60006060828403121561213e5761213d612085565b5b61214860606120cc565b9050600061215884828501611e08565b600083015250602061216c84828501611e73565b602083015250604061218084828501612113565b60408301525092915050565b600060a082840312156121a2576121a1612085565b5b6121ac60606120cc565b905060006121bc848285016120fe565b60008301525060206121d084828501612128565b60208301525060806121e484828501611ee7565b60408301525092915050565b600067ffffffffffffffff82111561220b5761220a611d6b565b5b602082029050919050565b6000612229612224846121f0565b6120cc565b90508060208402830185811115612243576122426118ca565b5b835b8181101561226c578061225888826120fe565b845260208401935050602081019050612245565b5050509392505050565b600082601f83011261228b5761228a6118c0565b5b6003612298848285612216565b91505092915050565b6000608082840312156122b7576122b6612085565b5b6122c160406120cc565b905060006122d184828501612276565b60008301525060606122e5848285016120fe565b60208301525092915050565b6000610120828403121561230857612307612085565b5b61231260406120cc565b905060006123228482850161218c565b60008301525060a0612336848285016122a1565b60208301525092915050565b60006101208284031215612359576123586118b6565b5b6000612367848285016122f1565b91505092915050565b600081519050919050565b600082825260208201905092915050565b6000819050602082019050919050565b6123a581611a69565b82525050565b600381106123bc576123bb611d9a565b5b50565b60008190506123cd826123ab565b919050565b60006123dd826123bf565b9050919050565b6123ed816123d2565b82525050565b6123fc81611e4a565b82525050565b61240b81611f53565b82525050565b60608201600082015161242760008501826123e4565b50602082015161243a60208501826123f3565b50604082015161244d6040850182612402565b50505050565b61245c81611eb5565b82525050565b60a082016000820151612478600085018261239c565b50602082015161248b6020850182612411565b50604082015161249e6080850182612453565b50505050565b600060039050919050565b600081905092915050565b6000819050919050565b60006124d0838361239c565b60208301905092915050565b6000602082019050919050565b6124f2816124a4565b6124fc81846124af565b9250612507826124ba565b8060005b8381101561253857815161251f87826124c4565b965061252a836124dc565b92505060018101905061250b565b505050505050565b60808201600082015161255660008501826124e9565b506020820151612569606085018261239c565b50505050565b610120820160008201516125866000850182612462565b50602082015161259960a0850182612540565b50505050565b60006125ab838361256f565b6101208301905092915050565b6000602082019050919050565b60006125d082612370565b6125da818561237b565b93506125e58361238c565b8060005b838110156126165781516125fd888261259f565b9750612608836125b8565b9250506001810190506125e9565b5085935050505092915050565b6000602082019050818103600083015261263d81846125c5565b905092915050565b7f52656c617941646170743a204e6f7420656e6f7567682067617320737570706c60008201527f6965640000000000000000000000000000000000000000000000000000000000602082015250565b60006126a1602383611cc8565b91506126ac82612645565b604082019050919050565b600060208201905081810360008301526126d081612694565b9050919050565b600080fd5b600080fd5b600080fd5b60008235600161022003833603038112612703576127026126d7565b5b80830191505092915050565b60008235600160e00383360303811261272b5761272a6126d7565b5b80830191505092915050565b7f52656c617941646170743a204164617074494420506172616d6574657273204d60008201527f69736d6174636800000000000000000000000000000000000000000000000000602082015250565b6000612793602783611cc8565b915061279e82612737565b604082019050919050565b600060208201905081810360008301526127c281612786565b9050919050565b600082825260208201905092915050565b6000819050919050565b600082905092915050565b600082905092915050565b60006128096020840184612113565b905092915050565b6040820161282260008301836127fa565b61282f6000850182612402565b5061283d60208301836127fa565b61284a6020850182612402565b50505050565b600082905092915050565b600082905092915050565b82818337505050565b61287b60408383612866565b5050565b60808201612890600083018361285b565b61289d600085018261286f565b506128ab604083018361285b565b6128b8604085018261286f565b50505050565b61010082016128d060008301836127ef565b6128dd6000850182612811565b506128eb6040830183612850565b6128f8604085018261287f565b5061290660c08301836127ef565b61291360c0850182612811565b50505050565b600061292860208401846120fe565b905092915050565b600080fd5b600080fd5b600080fd5b6000808335600160200384360303811261295c5761295b61293a565b5b83810192508235915060208301925067ffffffffffffffff82111561298457612983612930565b5b60208202360383131561299a57612999612935565b5b509250929050565b600082825260208201905092915050565b600080fd5b60006129c483856129a2565b93507f07ffffffffffffffffffffffffffffffffffffffffffffffffffffffffffffff8311156129f7576129f66129b3565b5b602083029250612a08838584612866565b82840190509392505050565b60008235600160e003833603038112612a3057612a2f61293a565b5b82810191505092915050565b600061ffff82169050919050565b612a5381612a3c565b8114612a5e57600080fd5b50565b600081359050612a7081612a4a565b92915050565b6000612a856020840184612a61565b905092915050565b612a9681612a3c565b82525050565b600068ffffffffffffffffff82169050919050565b612aba81612a9c565b8114612ac557600080fd5b50565b600081359050612ad781612ab1565b92915050565b6000612aec6020840184612ac8565b905092915050565b612afd81612a9c565b82525050565b60038110612b1057600080fd5b50565b600081359050612b2281612b03565b92915050565b6000612b376020840184612b13565b905092915050565b60038110612b5057612b4f611d9a565b5b50565b6000819050612b6182612b3f565b919050565b6000612b7182612b53565b9050919050565b612b8181612b66565b82525050565b600067ffffffffffffffff82169050919050565b612ba481612b87565b8114612baf57600080fd5b50565b600081359050612bc181612b9b565b92915050565b6000612bd66020840184612bb2565b905092915050565b612be781612b87565b82525050565b6000612bfc6020840184611e73565b905092915050565b60008083356001602003843603038112612c2157612c2061293a565b5b83810192508235915060208301925067ffffffffffffffff821115612c4957612c48612930565b5b602082023603831315612c5f57612c5e612935565b5b509250929050565b600082825260208201905092915050565b6000819050919050565b600082905092915050565b612c9960808383612866565b5050565b60008083356001602003843603038112612cba57612cb961293a565b5b83810192508235915060208301925067ffffffffffffffff821115612ce257612ce1612930565b5b600182023603831315612cf857612cf7612935565b5b509250929050565b600082825260208201905092915050565b82818337600083830152505050565b6000612d2c8385612d00565b9350612d39838584612d11565b612d428361208a565b840190509392505050565b60006101008301612d616000840184612c82565b612d6e6000860182612c8d565b50612d7c6080840184612919565b612d89608086018261239c565b50612d9760a0840184612919565b612da460a086018261239c565b50612db260c0840184612c9d565b85830360c0870152612dc5838284612d20565b92505050612dd660e0840184612c9d565b85830360e0870152612de9838284612d20565b925050508091505092915050565b6000612e038383612d4d565b905092915050565b60008235600161010003833603038112612e2857612e2761293a565b5b82810191505092915050565b6000602082019050919050565b6000612e4d8385612c67565b935083602084028501612e5f84612c78565b8060005b87811015612ea3578484038952612e7a8284612e0b565b612e848582612df7565b9450612e8f83612e34565b925060208a01995050600181019050612e63565b50829750879450505050509392505050565b600060e08301612ec86000840184612a76565b612ed56000860182612a8d565b50612ee36020840184612add565b612ef06020860182612af4565b50612efe6040840184612b28565b612f0b6040860182612b78565b50612f196060840184612bc7565b612f266060860182612bde565b50612f346080840184612bed565b612f4160808601826123f3565b50612f4f60a0840184612919565b612f5c60a086018261239c565b50612f6a60c0840184612c04565b85830360c0870152612f7d838284612e41565b925050508091505092915050565b600082905092915050565b600082905092915050565b6000612fb06020840184611e08565b905092915050565b60608201612fc96000830183612fa1565b612fd660008501826123e4565b50612fe46020830183612bed565b612ff160208501826123f3565b50612fff60408301836127fa565b61300c6040850182612402565b50505050565b60006130216020840184611ee7565b905092915050565b60a0820161303a6000830183612919565b613047600085018261239c565b506130556020830183612f96565b6130626020850182612fb8565b506130706080830183613012565b61307d6080850182612453565b50505050565b6000610220830161309760008401846127e4565b6130a460008601826128be565b506130b3610100840184612919565b6130c161010086018261239c565b506130d061012084018461293f565b8583036101208701526130e48382846129b8565b925050506130f661014084018461293f565b85830361014087015261310a8382846129b8565b9250505061311c610160840184612a14565b84820361016086015261312f8282612eb5565b915050613140610180840184612f8b565b61314e610180860182613029565b508091505092915050565b60006131658383613083565b905092915050565b6000823560016102200383360303811261318a5761318961293a565b5b82810191505092915050565b6000602082019050919050565b60006131af83856127c9565b9350836020840285016131c1846127da565b8060005b878110156132055784840389526131dc828461316d565b6131e68582613159565b94506131f183613196565b925060208a019950506001810190506131c5565b50829750879450505050509392505050565b600060208201905081810360008301526132328184866131a3565b90509392505050565b600060208284031215613251576132506118b6565b5b600061325f84828501611bfd565b91505092915050565b60008083356001602003843603038112613285576132846126d7565b5b80840192508235915067ffffffffffffffff8211156132a7576132a66126dc565b5b6020830192506020820236038313156132c3576132c26126e1565b5b509250929050565b600080833560016020038436030381126132e8576132e76126d7565b5b80840192508235915067ffffffffffffffff82111561330a576133096126dc565b5b602083019250602082023603831315613326576133256126e1565b5b509250929050565b600081519050919050565b600082825260208201905092915050565b6000819050602082019050919050565b600081519050919050565b6000819050602082019050919050565b6000602082019050919050565b600061338d8261335a565b61339781856129a2565b93506133a283613365565b8060005b838110156133d35781516133ba88826124c4565b97506133c583613375565b9250506001810190506133a6565b5085935050505092915050565b60006133ec8383613382565b905092915050565b6000602082019050919050565b600061340c8261332e565b6134168185613339565b9350836020820285016134288561334a565b8060005b85811015613464578484038952815161344585826133e0565b9450613450836133f4565b925060208a0199505060018101905061342c565b50829750879550505050505092915050565b61347f81611f53565b82525050565b60007fffffffffffffffffffffffffffffffffffffffffffffffffffffffffffffff0082169050919050565b6134ba81613485565b81146134c557600080fd5b50565b6000813590506134d7816134b1565b92915050565b60006134ec60208401846134c8565b905092915050565b6134fd81613485565b82525050565b60006135126020840184611bfd565b905092915050565b61352381611bda565b82525050565b600080833560016020038436030381126135465761354561293a565b5b83810192508235915060208301925067ffffffffffffffff82111561356e5761356d612930565b5b60208202360383131561358457613583612935565b5b509250929050565b600082825260208201905092915050565b6000819050919050565b6000606083016135ba6000840184612bed565b6135c760008601826123f3565b506135d56020840184612c9d565b85830360208701526135e8838284612d20565b925050506135f960408401846127fa565b6136066040860182612402565b508091505092915050565b600061361d83836135a7565b905092915050565b6000823560016060038336030381126136415761364061293a565b5b82810191505092915050565b6000602082019050919050565b6000613666838561358c565b9350836020840285016136788461359d565b8060005b878110156136bc5784840389526136938284613625565b61369d8582613611565b94506136a88361364d565b925060208a0199505060018101905061367c565b50829750879450505050509392505050565b6000608083016136e160008401846134dd565b6136ee60008601826134f4565b506136fc6020840184613503565b613709602086018261351a565b5061371760408401846127fa565b6137246040860182612402565b506137326060840184613529565b858303606087015261374583828461365a565b925050508091505092915050565b6000606082019050818103600083015261376d8186613401565b905061377c6020830185613476565b818103604083015261378e81846136ce565b9050949350505050565b600081905092915050565b50565b60006137b3600083613798565b91506137be826137a3565b600082019050919050565b60006137d4826137a6565b9150819050919050565b7f52656c617941646170743a20455448207472616e73666572206661696c656400600082015250565b6000613814601f83611cc8565b915061381f826137de565b602082019050919050565b6000602082019050818103600083015261384381613807565b9050919050565b600060408201905061385f6000830185611f29565b61386c6020830184611f29565b9392505050565b7f5361666545524332303a20617070726f76652066726f6d206e6f6e2d7a65726f60008201527f20746f206e6f6e2d7a65726f20616c6c6f77616e636500000000000000000000602082015250565b60006138cf603683611cc8565b91506138da82613873565b604082019050919050565b600060208201905081810360008301526138fe816138c2565b9050919050565b600060408201905061391a6000830185611f29565b6139276020830184613476565b9392505050565b60008235600160600383360303811261394a576139496126d7565b5b80830191505092915050565b60008083356001602003843603038112613973576139726126d7565b5b80840192508235915067ffffffffffffffff821115613995576139946126dc565b5b6020830192506001820236038313156139b1576139b06126e1565b5b509250929050565b60006139c58385613798565b93506139d2838584612d11565b82840190509392505050565b60006139eb8284866139b9565b91508190509392505050565b600081519050919050565b600082825260208201905092915050565b60005b83811015613a31578082015181840152602081019050613a16565b60008484015250505050565b6000613a48826139f7565b613a528185613a02565b9350613a62818560208601613a13565b613a6b8161208a565b840191505092915050565b6000604082019050613a8b6000830185613476565b8181036020830152613a9d8184613a3d565b90509392505050565b600081519050613ab581611be6565b92915050565b600060208284031215613ad157613ad06118b6565b5b6000613adf84828501613aa6565b91505092915050565b7f5361666545524332303a204552433230206f7065726174696f6e20646964206e60008201527f6f74207375636365656400000000000000000000000000000000000000000000602082015250565b6000613b44602a83611cc8565b9150613b4f82613ae8565b604082019050919050565b60006020820190508181036000830152613b7381613b37565b9050919050565b7f416464726573733a20696e73756666696369656e742062616c616e636520666f60008201527f722063616c6c0000000000000000000000000000000000000000000000000000602082015250565b6000613bd6602683611cc8565b9150613be182613b7a565b604082019050919050565b60006020820190508181036000830152613c0581613bc9565b9050919050565b6000613c17826139f7565b613c218185613798565b9350613c31818560208601613a13565b80840191505092915050565b6000613c498284613c0c565b915081905092915050565b7f416464726573733a2063616c6c20746f206e6f6e2d636f6e7472616374000000600082015250565b6000613c8a601d83611cc8565b9150613c9582613c54565b602082019050919050565b60006020820190508181036000830152613cb981613c7d565b9050919050565b600081519050919050565b6000613cd682613cc0565b613ce08185611cc8565b9350613cf0818560208601613a13565b613cf98161208a565b840191505092915050565b60006020820190508181036000830152613d1e8184613ccb565b90509291505056fea2646970667358221220060b9ff7b8d57bd25f263e512395f924668936fe34edd2f02a7155abc9576d9c64736f6c63430008110033","linkReferences":{}},"methodIdentifiers":{"getAdaptParams((((uint256,uint256),(uint256[2],uint256[2]),(uint256,uint256)),bytes32,bytes32[],bytes32[],(uint16,uint72,uint8,uint64,address,bytes32,(bytes32[4],bytes32,bytes32,bytes,bytes)[]),(bytes32,(uint8,address,uint256),uint120))[],(bytes31,bool,uint256,(address,bytes,uint256)[]))":"9643829f","multicall(bool,(address,bytes,uint256)[])":"e4899c13","privacyPool()":"aa77250e","relay((((uint256,uint256),(uint256[2],uint256[2]),(uint256,uint256)),bytes32,bytes32[],bytes32[],(uint16,uint72,uint8,uint64,address,bytes32,(bytes32[4],bytes32,bytes32,bytes,bytes)[]),(bytes32,(uint8,address,uint256),uint120))[],(bytes31,bool,uint256,(address,bytes,uint256)[]))":"28223a77","shield(((bytes32,(uint8,address,uint256),uint120),(bytes32[3],bytes32))[])":"044a40c3","transfer(((uint8,address,uint256),address,uint256)[])":"c2e9ffd8"},"id":15}