{
  "_format": "hh-sol-artifact-1",
  "contractName": "PrivacyPoolClient",
  "sourceName": "contracts/privacy-pool/PrivacyPoolClient.sol",
  "abi": [
    {
      "anonymous": false,
      "inputs": [
        {
          "indexed": true,
          "internalType": "address",
          "name": "sender",
          "type": "address"
        },
        {
          "indexed": false,
          "internalType": "uint256",
          "name": "amount",
          "type": "uint256"
        },
        {
          "indexed": true,
          "internalType": "bytes32",
          "name": "npk",
          "type": "bytes32"
        },
        {
          "indexed": false,
          "internalType": "uint64",
          "name": "nonce",
          "type": "uint64"
        }
      ],
      "name": "CrossChainShieldInitiated",
      "type": "event"
    },
    {
      "anonymous": false,
      "inputs": [
        {
          "indexed": false,
          "internalType": "uint32",
          "name": "hubDomain",
          "type": "uint32"
        },
        {
          "indexed": false,
          "internalType": "bytes32",
          "name": "hubPool",
          "type": "bytes32"
        }
      ],
      "name": "HubPoolSet",
      "type": "event"
    },
    {
      "anonymous": false,
      "inputs": [
        {
          "indexed": true,
          "internalType": "address",
          "name": "recipient",
          "type": "address"
        },
        {
          "indexed": false,
          "internalType": "uint256",
          "name": "amount",
          "type": "uint256"
        }
      ],
      "name": "UnshieldReceived",
      "type": "event"
    },
    {
      "inputs": [
        {
          "internalType": "uint256",
          "name": "amount",
          "type": "uint256"
        },
        {
          "internalType": "uint256",
          "name": "maxFee",
          "type": "uint256"
        },
        {
          "internalType": "bytes32",
          "name": "npk",
          "type": "bytes32"
        },
        {
          "internalType": "bytes32[3]",
          "name": "encryptedBundle",
          "type": "bytes32[3]"
        },
        {
          "internalType": "bytes32",
          "name": "shieldKey",
          "type": "bytes32"
        },
        {
          "internalType": "bytes32",
          "name": "destinationCaller",
          "type": "bytes32"
        }
      ],
      "name": "crossChainShield",
      "outputs": [
        {
          "internalType": "uint64",
          "name": "",
          "type": "uint64"
        }
      ],
      "stateMutability": "nonpayable",
      "type": "function"
    },
    {
      "inputs": [
        {
          "internalType": "uint32",
          "name": "remoteDomain",
          "type": "uint32"
        },
        {
          "internalType": "bytes32",
          "name": "sender",
          "type": "bytes32"
        },
        {
          "internalType": "uint32",
          "name": "finalityThresholdExecuted",
          "type": "uint32"
        },
        {
          "internalType": "bytes",
          "name": "messageBody",
          "type": "bytes"
        }
      ],
      "name": "handleReceiveFinalizedMessage",
      "outputs": [
        {
          "internalType": "bool",
          "name": "",
          "type": "bool"
        }
      ],
      "stateMutability": "nonpayable",
      "type": "function"
    },
    {
      "inputs": [
        {
          "internalType": "uint32",
          "name": "",
          "type": "uint32"
        },
        {
          "internalType": "bytes32",
          "name": "",
          "type": "bytes32"
        },
        {
          "internalType": "uint32",
          "name": "",
          "type": "uint32"
        },
        {
          "internalType": "bytes",
          "name": "",
          "type": "bytes"
        }
      ],
      "name": "handleReceiveUnfinalizedMessage",
      "outputs": [
        {
          "internalType": "bool",
          "name": "",
          "type": "bool"
        }
      ],
      "stateMutability": "pure",
      "type": "function"
    },
    {
      "inputs": [],
      "name": "hubDomain",
      "outputs": [
        {
          "internalType": "uint32",
          "name": "",
          "type": "uint32"
        }
      ],
      "stateMutability": "view",
      "type": "function"
    },
    {
      "inputs": [],
      "name": "hubPool",
      "outputs": [
        {
          "internalType": "bytes32",
          "name": "",
          "type": "bytes32"
        }
      ],
      "stateMutability": "view",
      "type": "function"
    },
    {
      "inputs": [
        {
          "internalType": "address",
          "name": "_tokenMessenger",
          "type": "address"
        },
        {
          "internalType": "address",
          "name": "_messageTransmitter",
          "type": "address"
        },
        {
          "internalType": "address",
          "name": "_usdc",
          "type": "address"
        },
        {
          "internalType": "uint32",
          "name": "_localDomain",
          "type": "uint32"
        },
        {
          "internalType": "uint32",
          "name": "_hubDomain",
          "type": "uint32"
        },
        {
          "internalType": "bytes32",
          "name": "_hubPool",
          "type": "bytes32"
        },
        {
          "internalType": "address",
          "name": "_owner",
          "type": "address"
        }
      ],
      "name": "initialize",
      "outputs": [],
      "stateMutability": "nonpayable",
      "type": "function"
    },
    {
      "inputs": [],
      "name": "initialized",
      "outputs": [
        {
          "internalType": "bool",
          "name": "",
          "type": "bool"
        }
      ],
      "stateMutability": "view",
      "type": "function"
    },
    {
      "inputs": [],
      "name": "localDomain",
      "outputs": [
        {
          "internalType": "uint32",
          "name": "",
          "type": "uint32"
        }
      ],
      "stateMutability": "view",
      "type": "function"
    },
    {
      "inputs": [],
      "name": "messageTransmitter",
      "outputs": [
        {
          "internalType": "address",
          "name": "",
          "type": "address"
        }
      ],
      "stateMutability": "view",
      "type": "function"
    },
    {
      "inputs": [],
      "name": "owner",
      "outputs": [
        {
          "internalType": "address",
          "name": "",
          "type": "address"
        }
      ],
      "stateMutability": "view",
      "type": "function"
    },
    {
      "inputs": [
        {
          "internalType": "uint32",
          "name": "_hubDomain",
          "type": "uint32"
        },
        {
          "internalType": "bytes32",
          "name": "_hubPool",
          "type": "bytes32"
        }
      ],
      "name": "setHubPool",
      "outputs": [],
      "stateMutability": "nonpayable",
      "type": "function"
    },
    {
      "inputs": [],
      "name": "tokenMessenger",
      "outputs": [
        {
          "internalType": "address",
          "name": "",
          "type": "address"
        }
      ],
      "stateMutability": "view",
      "type": "function"
    },
    {
      "inputs": [],
      "name": "usdc",
      "outputs": [
        {
          "internalType": "address",
          "name": "",
          "type": "address"
        }
      ],
      "stateMutability": "view",
      "type": "function"
    }
  ],
  "bytecode": "0x608060405234801561001057600080fd5b506114bc806100206000396000f3fe608060405234801561001057600080fd5b50600436106100cf5760003560e01c80638d3638f41161008c578063a226b2cb11610066578063a226b2cb146101c6578063db215411146101dd578063e190440214610209578063e1f5eab71461022057600080fd5b80638d3638f4146101725780638da5cb5b1461019e578063948cd37e146101b157600080fd5b806311cffb67146100d4578063158ef93e146100fc5780633e413bee1461010957806346117830146101345780637b04c1811461014c5780637c92f2191461015f575b600080fd5b6100e76100e2366004610ecb565b610233565b60405190151581526020015b60405180910390f35b6000546100e79060ff1681565b60025461011c906001600160a01b031681565b6040516001600160a01b0390911681526020016100f3565b60005461011c9061010090046001600160a01b031681565b60015461011c906001600160a01b031681565b6100e761016d366004610ecb565b6104a7565b60025461018990600160a01b900463ffffffff1681565b60405163ffffffff90911681526020016100f3565b60045461011c906001600160a01b031681565b6101c46101bf366004610f66565b610509565b005b60025461018990600160c01b900463ffffffff1681565b6101f06101eb366004610f90565b6105c9565b60405167ffffffffffffffff90911681526020016100f3565b61021260035481565b6040519081526020016100f3565b6101c461022e366004611000565b6108e9565b6000805461010090046001600160a01b031633146102a75760405162461bcd60e51b815260206004820152602660248201527f50726976616379506f6f6c436c69656e743a204f6e6c7920546f6b656e4d657360448201526539b2b733b2b960d11b60648201526084015b60405180910390fd5b6107d063ffffffff851610156103105760405162461bcd60e51b815260206004820152602860248201527f50726976616379506f6f6c436c69656e743a20496e73756666696369656e742060448201526766696e616c69747960c01b606482015260840161029e565b60025463ffffffff878116600160c01b909204161461037b5760405162461bcd60e51b815260206004820152602160248201527f50726976616379506f6f6c436c69656e743a20496e76616c696420646f6d61696044820152603760f91b606482015260840161029e565b600080600061038a86866109ea565b91945092509050600061039d838561109f565b905060006103aa83610af9565b90506001815160018111156103c1576103c16110b2565b0361043e5760006103d58260200151610b28565b80516002549192506103f1916001600160a01b03169085610b4b565b80600001516001600160a01b03167f3a23ba8f7d438bac9e2fc131e7d7d780f1c4ff8bb0028c59a62cde69ff5d9b208460405161043091815260200190565b60405180910390a250610496565b60405162461bcd60e51b815260206004820152602760248201527f50726976616379506f6f6c436c69656e743a20496e76616c6964206d657373616044820152666765207479706560c81b606482015260840161029e565b5060019a9950505050505050505050565b60405162461bcd60e51b815260206004820152602e60248201527f50726976616379506f6f6c436c69656e743a20466173742066696e616c69747960448201526d081b9bdd081cdd5c1c1bdc9d195960921b606482015260009060840161029e565b6004546001600160a01b031633146105635760405162461bcd60e51b815260206004820152601d60248201527f50726976616379506f6f6c436c69656e743a204f6e6c79206f776e6572000000604482015260640161029e565b6002805463ffffffff60c01b1916600160c01b63ffffffff851690810291909117909155600382905560408051918252602082018390527f7099ee186ea98619a72d24d0e984793c21733bd8a0d76165ebc2f542a0a927f6910160405180910390a15050565b60008087116106285760405162461bcd60e51b815260206004820152602560248201527f50726976616379506f6f6c436c69656e743a20416d6f756e74206d7573742062604482015264065203e20360dc1b606482015260840161029e565b8686106106855760405162461bcd60e51b815260206004820152602560248201527f50726976616379506f6f6c436c69656e743a20466565206578636565647320616044820152641b5bdd5b9d60da1b606482015260840161029e565b6003546106e25760405162461bcd60e51b815260206004820152602560248201527f50726976616379506f6f6c436c69656e743a20487562206e6f7420636f6e666960448201526419dd5c995960da1b606482015260840161029e565b6002546106fa906001600160a01b031633308a610bb3565b60025460005460405163095ea7b360e01b81526001600160a01b0361010090920482166004820152602481018a905291169063095ea7b3906044016020604051808303816000875af1158015610754573d6000803e3d6000fd5b505050506040513d601f19601f8201168201806040525081019061077891906110c8565b50604080516080810182528681526001600160781b038916602082015281516060818101845260009383019190889060039083908390808284376000920182905250928452505060209091018690529091506107d382610bf1565b905060008060019054906101000a90046001600160a01b03166001600160a01b031663779b432d8b600260189054906101000a900463ffffffff16600354600260009054906101000a90046001600160a01b03168a8f6107d08a6040518963ffffffff1660e01b8152600401610850989796959493929190611141565b6020604051808303816000875af115801561086f573d6000803e3d6000fd5b505050506040513d601f19601f8201168201806040525081019061089391906111a4565b604080518c815267ffffffffffffffff83166020820152919250899133917fdaf951686172b5407fc7ed5c3710aead779dec053a7da31d180413a0e1bf11ae910160405180910390a39998505050505050505050565b60005460ff161561094b5760405162461bcd60e51b815260206004820152602660248201527f50726976616379506f6f6c436c69656e743a20416c726561647920696e697469604482015265185b1a5e995960d21b606482015260840161029e565b60008054600180546001600160a01b03998a166001600160a01b03199182161782556002805463ffffffff988916600160c01b0263ffffffff60c01b1999909a16600160a01b026001600160c01b03199091169a8c169a909a1799909917969096169690961790965560039290925560048054918716919093161790915560ff199390941661010002929092166001600160a81b031990911617179055565b600080606060e4841015610a405760405162461bcd60e51b815260206004820181905260248201527f4275726e4d65737361676556323a206d65737361676520746f6f2073686f7274604482015260640161029e565b84604485610a4f8260206111ce565b92610a5c939291906111e1565b610a659161120b565b92508460a485610a768260206111ce565b92610a83939291906111e1565b610a8c9161120b565b915060e4841115610ae157610aa48460e481886111e1565b8080601f016020809104026020016040519081016040528093929190818152602001838380828437600092019190915250929350610af292505050565b506040805160208101909152600081525b9250925092565b60408051808201909152600081526060602082015281806020019051810190610b229190611299565b92915050565b60408051602081019091526000815281806020019051810190610b22919061136d565b6040516001600160a01b038316602482015260448101829052610bae90849063a9059cbb60e01b906064015b60408051601f198184030181529190526020810180516001600160e01b03166001600160e01b031990931692909217909152610c4d565b505050565b6040516001600160a01b0380851660248301528316604482015260648101829052610beb9085906323b872dd60e01b90608401610b77565b50505050565b60408051808201909152606090806000815260200183604051602001610c1791906113b9565b60408051601f19818403018152918152915251610c379190602001611412565b6040516020818303038152906040529050919050565b6000610ca2826040518060400160405280602081526020017f5361666545524332303a206c6f772d6c6576656c2063616c6c206661696c6564815250856001600160a01b0316610d229092919063ffffffff16565b9050805160001480610cc3575080806020019051810190610cc391906110c8565b610bae5760405162461bcd60e51b815260206004820152602a60248201527f5361666545524332303a204552433230206f7065726174696f6e20646964206e6044820152691bdd081cdd58d8d9595960b21b606482015260840161029e565b6060610d318484600085610d39565b949350505050565b606082471015610d9a5760405162461bcd60e51b815260206004820152602660248201527f416464726573733a20696e73756666696369656e742062616c616e636520666f6044820152651c8818d85b1b60d21b606482015260840161029e565b600080866001600160a01b03168587604051610db69190611457565b60006040518083038185875af1925050503d8060008114610df3576040519150601f19603f3d011682016040523d82523d6000602084013e610df8565b606091505b5091509150610e0987838387610e14565b979650505050505050565b60608315610e83578251600003610e7c576001600160a01b0385163b610e7c5760405162461bcd60e51b815260206004820152601d60248201527f416464726573733a2063616c6c20746f206e6f6e2d636f6e7472616374000000604482015260640161029e565b5081610d31565b610d318383815115610e985781518083602001fd5b8060405162461bcd60e51b815260040161029e9190611473565b803563ffffffff81168114610ec657600080fd5b919050565b600080600080600060808688031215610ee357600080fd5b610eec86610eb2565b945060208601359350610f0160408701610eb2565b9250606086013567ffffffffffffffff80821115610f1e57600080fd5b818801915088601f830112610f3257600080fd5b813581811115610f4157600080fd5b896020828501011115610f5357600080fd5b9699959850939650602001949392505050565b60008060408385031215610f7957600080fd5b610f8283610eb2565b946020939093013593505050565b6000806000806000806101008789031215610faa57600080fd5b86359550602087013594506040870135935060c0870188811115610fcd57600080fd5b959894975092956060810195359460e0909101359350915050565b6001600160a01b0381168114610ffd57600080fd5b50565b600080600080600080600060e0888a03121561101b57600080fd5b873561102681610fe8565b9650602088013561103681610fe8565b9550604088013561104681610fe8565b945061105460608901610eb2565b935061106260808901610eb2565b925060a0880135915060c088013561107981610fe8565b8091505092959891949750929550565b634e487b7160e01b600052601160045260246000fd5b81810381811115610b2257610b22611089565b634e487b7160e01b600052602160045260246000fd5b6000602082840312156110da57600080fd5b815180151581146110ea57600080fd5b9392505050565b60005b8381101561110c5781810151838201526020016110f4565b50506000910152565b6000815180845261112d8160208601602086016110f1565b601f01601f19169290920160200192915050565b88815263ffffffff8881166020830152604082018890526001600160a01b03871660608301526080820186905260a08201859052831660c082015261010060e0820181905260009061119583820185611115565b9b9a5050505050505050505050565b6000602082840312156111b657600080fd5b815167ffffffffffffffff811681146110ea57600080fd5b80820180821115610b2257610b22611089565b600080858511156111f157600080fd5b838611156111fe57600080fd5b5050820193919092039150565b80356020831015610b2257600019602084900360031b1b1692915050565b634e487b7160e01b600052604160045260246000fd5b6040805190810167ffffffffffffffff8111828210171561126257611262611229565b60405290565b604051601f8201601f1916810167ffffffffffffffff8111828210171561129157611291611229565b604052919050565b600060208083850312156112ac57600080fd5b825167ffffffffffffffff808211156112c457600080fd5b90840190604082870312156112d857600080fd5b6112e061123f565b8251600281106112ef57600080fd5b8152828401518281111561130257600080fd5b80840193505086601f84011261131757600080fd5b82518281111561132957611329611229565b61133b601f8201601f19168601611268565b9250808352878582860101111561135157600080fd5b611360818685018787016110f1565b5092830152509392505050565b60006020828403121561137f57600080fd5b6040516020810181811067ffffffffffffffff821117156113a2576113a2611229565b60405282516113b081610fe8565b81529392505050565b815181526020808301516001600160781b03168183015260408084015160c084019291840160005b60038110156113fe578251825291830191908301906001016113e1565b50505050606083015160a083015292915050565b60208152600082516002811061143857634e487b7160e01b600052602160045260246000fd5b806020840152506020830151604080840152610d316060840182611115565b600082516114698184602087016110f1565b9190910192915050565b6020815260006110ea602083018461111556fea2646970667358221220e7930024d66ebad0a6a0c4bfcd6ba0ad246f9659372596f08d6693edf694399a64736f6c63430008110033",
  "linkReferences": {},
  "deployedLinkReferences": {}
}