{"abi":[{"type":"function","name":"getVerificationKey","inputs":[{"name":"_nullifiers","type":"uint256","internalType":"uint256"},{"name":"_commitments","type":"uint256","internalType":"uint256"}],"outputs":[{"name":"","type":"tuple","internalType":"struct VerifyingKey","components":[{"name":"artifactsIPFSHash","type":"string","internalType":"string"},{"name":"alpha1","type":"tuple","internalType":"struct G1Point","components":[{"name":"x","type":"uint256","internalType":"uint256"},{"name":"y","type":"uint256","internalType":"uint256"}]},{"name":"beta2","type":"tuple","internalType":"struct G2Point","components":[{"name":"x","type":"uint256[2]","internalType":"uint256[2]"},{"name":"y","type":"uint256[2]","internalType":"uint256[2]"}]},{"name":"gamma2","type":"tuple","internalType":"struct G2Point","components":[{"name":"x","type":"uint256[2]","internalType":"uint256[2]"},{"name":"y","type":"uint256[2]","internalType":"uint256[2]"}]},{"name":"delta2","type":"tuple","internalType":"struct G2Point","components":[{"name":"x","type":"uint256[2]","internalType":"uint256[2]"},{"name":"y","type":"uint256[2]","internalType":"uint256[2]"}]},{"name":"ic","type":"tuple[]","internalType":"struct G1Point[]","components":[{"name":"x","type":"uint256","internalType":"uint256"},{"name":"y","type":"uint256","internalType":"uint256"}]}]}],"stateMutability":"view"},{"type":"function","name":"hashBoundParams","inputs":[{"name":"_boundParams","type":"tuple","internalType":"struct BoundParams","components":[{"name":"treeNumber","type":"uint16","internalType":"uint16"},{"name":"minGasPrice","type":"uint72","internalType":"uint72"},{"name":"unshield","type":"uint8","internalType":"enum UnshieldType"},{"name":"chainID","type":"uint64","internalType":"uint64"},{"name":"adaptContract","type":"address","internalType":"address"},{"name":"adaptParams","type":"bytes32","internalType":"bytes32"},{"name":"commitmentCiphertext","type":"tuple[]","internalType":"struct CommitmentCiphertext[]","components":[{"name":"ciphertext","type":"bytes32[4]","internalType":"bytes32[4]"},{"name":"blindedSenderViewingKey","type":"bytes32","internalType":"bytes32"},{"name":"blindedReceiverViewingKey","type":"bytes32","internalType":"bytes32"},{"name":"annotationData","type":"bytes","internalType":"bytes"},{"name":"memo","type":"bytes","internalType":"bytes"}]}]}],"outputs":[{"name":"","type":"uint256","internalType":"uint256"}],"stateMutability":"pure"},{"type":"function","name":"owner","inputs":[],"outputs":[{"name":"","type":"address","internalType":"address"}],"stateMutability":"view"},{"type":"function","name":"renounceOwnership","inputs":[],"outputs":[],"stateMutability":"nonpayable"},{"type":"function","name":"setTestingMode","inputs":[{"name":"_testingMode","type":"bool","internalType":"bool"}],"outputs":[],"stateMutability":"nonpayable"},{"type":"function","name":"setVerificationKey","inputs":[{"name":"_nullifiers","type":"uint256","internalType":"uint256"},{"name":"_commitments","type":"uint256","internalType":"uint256"},{"name":"_verifyingKey","type":"tuple","internalType":"struct VerifyingKey","components":[{"name":"artifactsIPFSHash","type":"string","internalType":"string"},{"name":"alpha1","type":"tuple","internalType":"struct G1Point","components":[{"name":"x","type":"uint256","internalType":"uint256"},{"name":"y","type":"uint256","internalType":"uint256"}]},{"name":"beta2","type":"tuple","internalType":"struct G2Point","components":[{"name":"x","type":"uint256[2]","internalType":"uint256[2]"},{"name":"y","type":"uint256[2]","internalType":"uint256[2]"}]},{"name":"gamma2","type":"tuple","internalType":"struct G2Point","components":[{"name":"x","type":"uint256[2]","internalType":"uint256[2]"},{"name":"y","type":"uint256[2]","internalType":"uint256[2]"}]},{"name":"delta2","type":"tuple","internalType":"struct G2Point","components":[{"name":"x","type":"uint256[2]","internalType":"uint256[2]"},{"name":"y","type":"uint256[2]","internalType":"uint256[2]"}]},{"name":"ic","type":"tuple[]","internalType":"struct G1Point[]","components":[{"name":"x","type":"uint256","internalType":"uint256"},{"name":"y","type":"uint256","internalType":"uint256"}]}]}],"outputs":[],"stateMutability":"nonpayable"},{"type":"function","name":"testingMode","inputs":[],"outputs":[{"name":"","type":"bool","internalType":"bool"}],"stateMutability":"view"},{"type":"function","name":"transferOwnership","inputs":[{"name":"newOwner","type":"address","internalType":"address"}],"outputs":[],"stateMutability":"nonpayable"},{"type":"function","name":"verify","inputs":[{"name":"_transaction","type":"tuple","internalType":"struct Transaction","components":[{"name":"proof","type":"tuple","internalType":"struct SnarkProof","components":[{"name":"a","type":"tuple","internalType":"struct G1Point","components":[{"name":"x","type":"uint256","internalType":"uint256"},{"name":"y","type":"uint256","internalType":"uint256"}]},{"name":"b","type":"tuple","internalType":"struct G2Point","components":[{"name":"x","type":"uint256[2]","internalType":"uint256[2]"},{"name":"y","type":"uint256[2]","internalType":"uint256[2]"}]},{"name":"c","type":"tuple","internalType":"struct G1Point","components":[{"name":"x","type":"uint256","internalType":"uint256"},{"name":"y","type":"uint256","internalType":"uint256"}]}]},{"name":"merkleRoot","type":"bytes32","internalType":"bytes32"},{"name":"nullifiers","type":"bytes32[]","internalType":"bytes32[]"},{"name":"commitments","type":"bytes32[]","internalType":"bytes32[]"},{"name":"boundParams","type":"tuple","internalType":"struct BoundParams","components":[{"name":"treeNumber","type":"uint16","internalType":"uint16"},{"name":"minGasPrice","type":"uint72","internalType":"uint72"},{"name":"unshield","type":"uint8","internalType":"enum UnshieldType"},{"name":"chainID","type":"uint64","internalType":"uint64"},{"name":"adaptContract","type":"address","internalType":"address"},{"name":"adaptParams","type":"bytes32","internalType":"bytes32"},{"name":"commitmentCiphertext","type":"tuple[]","internalType":"struct CommitmentCiphertext[]","components":[{"name":"ciphertext","type":"bytes32[4]","internalType":"bytes32[4]"},{"name":"blindedSenderViewingKey","type":"bytes32","internalType":"bytes32"},{"name":"blindedReceiverViewingKey","type":"bytes32","internalType":"bytes32"},{"name":"annotationData","type":"bytes","internalType":"bytes"},{"name":"memo","type":"bytes","internalType":"bytes"}]}]},{"name":"unshieldPreimage","type":"tuple","internalType":"struct CommitmentPreimage","components":[{"name":"npk","type":"bytes32","internalType":"bytes32"},{"name":"token","type":"tuple","internalType":"struct TokenData","components":[{"name":"tokenType","type":"uint8","internalType":"enum TokenType"},{"name":"tokenAddress","type":"address","internalType":"address"},{"name":"tokenSubID","type":"uint256","internalType":"uint256"}]},{"name":"value","type":"uint120","internalType":"uint120"}]}]}],"outputs":[{"name":"","type":"bool","internalType":"bool"}],"stateMutability":"view"},{"type":"function","name":"verifyProof","inputs":[{"name":"_verifyingKey","type":"tuple","internalType":"struct VerifyingKey","components":[{"name":"artifactsIPFSHash","type":"string","internalType":"string"},{"name":"alpha1","type":"tuple","internalType":"struct G1Point","components":[{"name":"x","type":"uint256","internalType":"uint256"},{"name":"y","type":"uint256","internalType":"uint256"}]},{"name":"beta2","type":"tuple","internalType":"struct G2Point","components":[{"name":"x","type":"uint256[2]","internalType":"uint256[2]"},{"name":"y","type":"uint256[2]","internalType":"uint256[2]"}]},{"name":"gamma2","type":"tuple","internalType":"struct G2Point","components":[{"name":"x","type":"uint256[2]","internalType":"uint256[2]"},{"name":"y","type":"uint256[2]","internalType":"uint256[2]"}]},{"name":"delta2","type":"tuple","internalType":"struct G2Point","components":[{"name":"x","type":"uint256[2]","internalType":"uint256[2]"},{"name":"y","type":"uint256[2]","internalType":"uint256[2]"}]},{"name":"ic","type":"tuple[]","internalType":"struct G1Point[]","components":[{"name":"x","type":"uint256","internalType":"uint256"},{"name":"y","type":"uint256","internalType":"uint256"}]}]},{"name":"_proof","type":"tuple","internalType":"struct SnarkProof","components":[{"name":"a","type":"tuple","internalType":"struct G1Point","components":[{"name":"x","type":"uint256","internalType":"uint256"},{"name":"y","type":"uint256","internalType":"uint256"}]},{"name":"b","type":"tuple","internalType":"struct G2Point","components":[{"name":"x","type":"uint256[2]","internalType":"uint256[2]"},{"name":"y","type":"uint256[2]","internalType":"uint256[2]"}]},{"name":"c","type":"tuple","internalType":"struct G1Point","components":[{"name":"x","type":"uint256","internalType":"uint256"},{"name":"y","type":"uint256","internalType":"uint256"}]}]},{"name":"_inputs","type":"uint256[]","internalType":"uint256[]"}],"outputs":[{"name":"","type":"bool","internalType":"bool"}],"stateMutability":"view"},{"type":"event","name":"Initialized","inputs":[{"name":"version","type":"uint8","indexed":false,"internalType":"uint8"}],"anonymous":false},{"type":"event","name":"OwnershipTransferred","inputs":[{"name":"previousOwner","type":"address","indexed":true,"internalType":"address"},{"name":"newOwner","type":"address","indexed":true,"internalType":"address"}],"anonymous":false},{"type":"event","name":"VerifyingKeySet","inputs":[{"name":"nullifiers","type":"uint256","indexed":false,"internalType":"uint256"},{"name":"commitments","type":"uint256","indexed":false,"internalType":"uint256"},{"name":"verifyingKey","type":"tuple","indexed":false,"internalType":"struct VerifyingKey","components":[{"name":"artifactsIPFSHash","type":"string","internalType":"string"},{"name":"alpha1","type":"tuple","internalType":"struct G1Point","components":[{"name":"x","type":"uint256","internalType":"uint256"},{"name":"y","type":"uint256","internalType":"uint256"}]},{"name":"beta2","type":"tuple","internalType":"struct G2Point","components":[{"name":"x","type":"uint256[2]","internalType":"uint256[2]"},{"name":"y","type":"uint256[2]","internalType":"uint256[2]"}]},{"name":"gamma2","type":"tuple","internalType":"struct G2Point","components":[{"name":"x","type":"uint256[2]","internalType":"uint256[2]"},{"name":"y","type":"uint256[2]","internalType":"uint256[2]"}]},{"name":"delta2","type":"tuple","internalType":"struct G2Point","components":[{"name":"x","type":"uint256[2]","internalType":"uint256[2]"},{"name":"y","type":"uint256[2]","internalType":"uint256[2]"}]},{"name":"ic","type":"tuple[]","internalType":"struct G1Point[]","components":[{"name":"x","type":"uint256","internalType":"uint256"},{"name":"y","type":"uint256","internalType":"uint256"}]}]}],"anonymous":false}],"bytecode":{"object":"0x608060405234801561001057600080fd5b50613c99806100206000396000f3fe608060405234801561001057600080fd5b506004361061009e5760003560e01c80637b12ae83116100665780637b12ae83146101455780638da5cb5b14610175578063c8f35b5d14610193578063ee990783146101b1578063f2fde38b146101e15761009e565b806328f89c3a146100a35780632ebfe12a146100d35780632ec0f35914610103578063596d7a681461011f578063715018a61461013b575b600080fd5b6100bd60048036038101906100b89190611803565b6101fd565b6040516100ca9190611865565b60405180910390f35b6100ed60048036038101906100e89190611dd3565b61025b565b6040516100fa9190611e7b565b60405180910390f35b61011d60048036038101906101189190611eb6565b610281565b005b61013960048036038101906101349190611f51565b6102fd565b005b610143610322565b005b61015f600480360381019061015a9190611f7e565b610336565b60405161016c9190612288565b60405180910390f35b61017d61067c565b60405161018a91906122eb565b60405180910390f35b61019b6106a6565b6040516101a89190611e7b565b60405180910390f35b6101cb60048036038101906101c69190612326565b6106b9565b6040516101d89190611e7b565b60405180910390f35b6101fb60048036038101906101f6919061239b565b610cae565b005b60007f30644e72e131a029b85045b68181585d2833e84879b9709143e1f593f00000018260405160200161023191906129ba565b6040516020818303038152906040528051906020012060001c6102549190612a0b565b9050919050565b600061027884848036038101906102729190612aa1565b84610d31565b90509392505050565b610289610eac565b8060656000858152602001908152602001600020600084815260200190815260200160002081816102ba91906133e8565b9050507f3d09e10d1c966d01c4a2c14d0ac9af253486aa5e99b6cffe9019c4d43eb1fb238383836040516102f0939291906136fa565b60405180910390a1505050565b610305610eac565b80606660006101000a81548160ff02191690831515021790555050565b61032a610eac565b6103346000610f2a565b565b61033e6116b5565b6065600084815260200190815260200160002060008381526020019081526020016000206040518060c001604052908160008201805461037d90612baa565b80601f01602080910402602001604051908101604052809291908181526020018280546103a990612baa565b80156103f65780601f106103cb576101008083540402835291602001916103f6565b820191906000526020600020905b8154815290600101906020018083116103d957829003601f168201915b50505050508152602001600182016040518060400160405290816000820154815260200160018201548152505081526020016003820160405180604001604052908160008201600280602002604051908101604052809291908260028015610473576020028201915b81548152602001906001019080831161045f575b50505050508152602001600282016002806020026040519081016040528092919082600280156104b8576020028201915b8154815260200190600101908083116104a4575b50505050508152505081526020016007820160405180604001604052908160008201600280602002604051908101604052809291908260028015610511576020028201915b8154815260200190600101908083116104fd575b5050505050815260200160028201600280602002604051908101604052809291908260028015610556576020028201915b815481526020019060010190808311610542575b5050505050815250508152602001600b8201604051806040016040529081600082016002806020026040519081016040528092919082600280156105af576020028201915b81548152602001906001019080831161059b575b50505050508152602001600282016002806020026040519081016040528092919082600280156105f4576020028201915b8154815260200190600101908083116105e0575b5050505050815250508152602001600f8201805480602002602001604051908101604052809291908181526020016000905b8282101561066c57838290600052602060002090600202016040518060400160405290816000820154815260200160018201548152505081526020019060010190610626565b5050505081525050905092915050565b6000603360009054906101000a900473ffffffffffffffffffffffffffffffffffffffff16905090565b606660009054906101000a900460ff1681565b6000606660009054906101000a900460ff16156106d95760019050610ca9565b6000828061012001906106ec9190613738565b905090506000838061014001906107039190613738565b9050905060006065600084815260200190815260200160002060008381526020019081526020016000206040518060c001604052908160008201805461074890612baa565b80601f016020809104026020016040519081016040528092919081815260200182805461077490612baa565b80156107c15780601f10610796576101008083540402835291602001916107c1565b820191906000526020600020905b8154815290600101906020018083116107a457829003601f168201915b5050505050815260200160018201604051806040016040529081600082015481526020016001820154815250508152602001600382016040518060400160405290816000820160028060200260405190810160405280929190826002801561083e576020028201915b81548152602001906001019080831161082a575b5050505050815260200160028201600280602002604051908101604052809291908260028015610883576020028201915b81548152602001906001019080831161086f575b505050505081525050815260200160078201604051806040016040529081600082016002806020026040519081016040528092919082600280156108dc576020028201915b8154815260200190600101908083116108c8575b5050505050815260200160028201600280602002604051908101604052809291908260028015610921576020028201915b81548152602001906001019080831161090d575b5050505050815250508152602001600b82016040518060400160405290816000820160028060200260405190810160405280929190826002801561097a576020028201915b815481526020019060010190808311610966575b50505050508152602001600282016002806020026040519081016040528092919082600280156109bf576020028201915b8154815260200190600101908083116109ab575b5050505050815250508152602001600f8201805480602002602001604051908101604052809291908181526020016000905b82821015610a37578382906000526020600020906002020160405180604001604052908160008201548152602001600182015481525050815260200190600101906109f1565b50505050815250509050600081602001516000015103610a8c576040517f08c379a0000000000000000000000000000000000000000000000000000000008152600401610a83906137f8565b60405180910390fd5b600082846002610a9c9190613818565b610aa69190613818565b67ffffffffffffffff811115610abf57610abe611896565b5b604051908082528060200260200182016040528015610aed5781602001602082028036833780820191505090505b50905085610100013560001c81600081518110610b0d57610b0c61384c565b5b602002602001018181525050610b3286806101600190610b2d919061387b565b6101fd565b81600181518110610b4657610b4561384c565b5b60200260200101818152505060005b84811015610bc85786806101200190610b6e9190613738565b82818110610b7f57610b7e61384c565b5b9050602002013560001c82826002610b979190613818565b81518110610ba857610ba761384c565b5b602002602001018181525050600181610bc19190613818565b9050610b55565b5060005b83811015610c4a5786806101400190610be59190613738565b82818110610bf657610bf561384c565b5b9050602002013560001c8282876002610c0f9190613818565b610c199190613818565b81518110610c2a57610c2961384c565b5b602002602001018181525050600181610c439190613818565b9050610bcc565b506000610c5b83886000018461025b565b905061dead73ffffffffffffffffffffffffffffffffffffffff163273ffffffffffffffffffffffffffffffffffffffff1603610ca057600195505050505050610ca9565b80955050505050505b919050565b610cb6610eac565b600073ffffffffffffffffffffffffffffffffffffffff168173ffffffffffffffffffffffffffffffffffffffff1603610d25576040517f08c379a0000000000000000000000000000000000000000000000000000000008152600401610d1c90613915565b60405180910390fd5b610d2e81610f2a565b50565b6000806040518060400160405280600081526020016000815250905060005b8351811015610e42577f30644e72e131a029b85045b68181585d2833e84879b9709143e1f593f0000001848281518110610d8d57610d8c61384c565b5b602002602001015110610dd5576040517f08c379a0000000000000000000000000000000000000000000000000000000008152600401610dcc906139a7565b60405180910390fd5b610e2c82610e278860a00151600185610dee9190613818565b81518110610dff57610dfe61384c565b5b6020026020010151878581518110610e1a57610e1961384c565b5b6020026020010151610ff0565b6110bc565b9150600181610e3b9190613818565b9050610d50565b50610e6c818660a00151600081518110610e5f57610e5e61384c565b5b60200260200101516110bc565b9050610ea2610e7e85600001516111ba565b856020015187602001518860400151858a606001518a604001518c608001516113a5565b9150509392505050565b610eb46116ad565b73ffffffffffffffffffffffffffffffffffffffff16610ed261067c565b73ffffffffffffffffffffffffffffffffffffffff1614610f28576040517f08c379a0000000000000000000000000000000000000000000000000000000008152600401610f1f90613a13565b60405180910390fd5b565b6000603360009054906101000a900473ffffffffffffffffffffffffffffffffffffffff16905081603360006101000a81548173ffffffffffffffffffffffffffffffffffffffff021916908373ffffffffffffffffffffffffffffffffffffffff1602179055508173ffffffffffffffffffffffffffffffffffffffff168173ffffffffffffffffffffffffffffffffffffffff167f8be0079c531659141344cd1fd0a4f28419497f9722a3daafe3b4186f6b6457e060405160405180910390a35050565b610ff8611703565b61100061171d565b8360000151816000600381106110195761101861384c565b5b60200201818152505083602001518160016003811061103b5761103a61384c565b5b60200201818152505082816002600381106110595761105861384c565b5b602002018181525050600060408360608460076107d05a03fa9050806110b4576040517f08c379a00000000000000000000000000000000000000000000000000000000081526004016110ab90613aa5565b60405180910390fd5b505092915050565b6110c4611703565b6110cc61173f565b8360000151816000600481106110e5576110e461384c565b5b6020020181815250508360200151816001600481106111075761110661384c565b5b6020020181815250508260000151816002600481106111295761112861384c565b5b60200201818152505082602001518160036004811061114b5761114a61384c565b5b602002018181525050600061115e611703565b60408160808560066107d05a03fa9150816111ae576040517f08c379a00000000000000000000000000000000000000000000000000000000081526004016111a590613b11565b60405180910390fd5b80935050505092915050565b6111c2611703565b600082600001511480156111da575060008260200151145b156111fd57604051806040016040528060008152602001600081525090506113a0565b60007f30644e72e131a029b85045b68181585d97816a916871ca8d3c208c16d87cfd478061122e5761122d6129dc565b5b836000015184600001510990507f30644e72e131a029b85045b68181585d97816a916871ca8d3c208c16d87cfd478061126a576112696129dc565b5b8360000151820990507f30644e72e131a029b85045b68181585d97816a916871ca8d3c208c16d87cfd47806112a2576112a16129dc565b5b60038208905060007f30644e72e131a029b85045b68181585d97816a916871ca8d3c208c16d87cfd47806112d9576112d86129dc565b5b84602001518560200151099050818114611328576040517f08c379a000000000000000000000000000000000000000000000000000000000815260040161131f90613b7d565b60405180910390fd5b6040518060400160405280856000015181526020017f30644e72e131a029b85045b68181585d97816a916871ca8d3c208c16d87cfd47866020015161136d9190612a0b565b7f30644e72e131a029b85045b68181585d97816a916871ca8d3c208c16d87cfd476113989190613b9d565b815250925050505b919050565b6000806040518061030001604052808b6000015181526020018b6020015181526020018a600001516000600281106113e0576113df61384c565b5b602002015181526020018a600001516001600281106114025761140161384c565b5b602002015181526020018a602001516000600281106114245761142361384c565b5b602002015181526020018a602001516001600281106114465761144561384c565b5b602002015181526020018960000151815260200189602001518152602001886000015160006002811061147c5761147b61384c565b5b60200201518152602001886000015160016002811061149e5761149d61384c565b5b6020020151815260200188602001516000600281106114c0576114bf61384c565b5b6020020151815260200188602001516001600281106114e2576114e161384c565b5b60200201518152602001876000015181526020018760200151815260200186600001516000600281106115185761151761384c565b5b60200201518152602001866000015160016002811061153a5761153961384c565b5b60200201518152602001866020015160006002811061155c5761155b61384c565b5b60200201518152602001866020015160016002811061157e5761157d61384c565b5b60200201518152602001856000015181526020018560200151815260200184600001516000600281106115b4576115b361384c565b5b6020020151815260200184600001516001600281106115d6576115d561384c565b5b6020020151815260200184602001516000600281106115f8576115f761384c565b5b60200201518152602001846020015160016002811061161a5761161961384c565b5b6020020151815250905061162c611761565b60006020826103008560086107d05a03fa90508061167f576040517f08c379a000000000000000000000000000000000000000000000000000000000815260040161167690613c43565b60405180910390fd5b6000826000600181106116955761169461384c565b5b60200201511415935050505098975050505050505050565b600033905090565b6040518060c00160405280606081526020016116cf611703565b81526020016116dc611783565b81526020016116e9611783565b81526020016116f6611783565b8152602001606081525090565b604051806040016040528060008152602001600081525090565b6040518060600160405280600390602082028036833780820191505090505090565b6040518060800160405280600490602082028036833780820191505090505090565b6040518060200160405280600190602082028036833780820191505090505090565b60405180604001604052806117966117a9565b81526020016117a36117a9565b81525090565b6040518060400160405280600290602082028036833780820191505090505090565b6000604051905090565b600080fd5b600080fd5b600080fd5b600060e082840312156117fa576117f96117df565b5b81905092915050565b600060208284031215611819576118186117d5565b5b600082013567ffffffffffffffff811115611837576118366117da565b5b611843848285016117e4565b91505092915050565b6000819050919050565b61185f8161184c565b82525050565b600060208201905061187a6000830184611856565b92915050565b600080fd5b6000601f19601f8301169050919050565b7f4e487b7100000000000000000000000000000000000000000000000000000000600052604160045260246000fd5b6118ce82611885565b810181811067ffffffffffffffff821117156118ed576118ec611896565b5b80604052505050565b60006119006117cb565b905061190c82826118c5565b919050565b600080fd5b600080fd5b600080fd5b600067ffffffffffffffff82111561193b5761193a611896565b5b61194482611885565b9050602081019050919050565b82818337600083830152505050565b600061197361196e84611920565b6118f6565b90508281526020810184848401111561198f5761198e61191b565b5b61199a848285611951565b509392505050565b600082601f8301126119b7576119b6611916565b5b81356119c7848260208601611960565b91505092915050565b6119d98161184c565b81146119e457600080fd5b50565b6000813590506119f6816119d0565b92915050565b600060408284031215611a1257611a11611880565b5b611a1c60406118f6565b90506000611a2c848285016119e7565b6000830152506020611a40848285016119e7565b60208301525092915050565b600067ffffffffffffffff821115611a6757611a66611896565b5b602082029050919050565b600080fd5b6000611a8a611a8584611a4c565b6118f6565b90508060208402830185811115611aa457611aa3611a72565b5b835b81811015611acd5780611ab988826119e7565b845260208401935050602081019050611aa6565b5050509392505050565b600082601f830112611aec57611aeb611916565b5b6002611af9848285611a77565b91505092915050565b600060808284031215611b1857611b17611880565b5b611b2260406118f6565b90506000611b3284828501611ad7565b6000830152506040611b4684828501611ad7565b60208301525092915050565b600067ffffffffffffffff821115611b6d57611b6c611896565b5b602082029050602081019050919050565b6000611b91611b8c84611b52565b6118f6565b90508083825260208201905060408402830185811115611bb457611bb3611a72565b5b835b81811015611bdd5780611bc988826119fc565b845260208401935050604081019050611bb6565b5050509392505050565b600082601f830112611bfc57611bfb611916565b5b8135611c0c848260208601611b7e565b91505092915050565b60006102008284031215611c2c57611c2b611880565b5b611c3660c06118f6565b9050600082013567ffffffffffffffff811115611c5657611c55611911565b5b611c62848285016119a2565b6000830152506020611c76848285016119fc565b6020830152506060611c8a84828501611b02565b60408301525060e0611c9e84828501611b02565b606083015250610160611cb384828501611b02565b6080830152506101e082013567ffffffffffffffff811115611cd857611cd7611911565b5b611ce484828501611be7565b60a08301525092915050565b60006101008284031215611d0757611d066117df565b5b81905092915050565b600067ffffffffffffffff821115611d2b57611d2a611896565b5b602082029050602081019050919050565b6000611d4f611d4a84611d10565b6118f6565b90508083825260208201905060208402830185811115611d7257611d71611a72565b5b835b81811015611d9b5780611d8788826119e7565b845260208401935050602081019050611d74565b5050509392505050565b600082601f830112611dba57611db9611916565b5b8135611dca848260208601611d3c565b91505092915050565b60008060006101408486031215611ded57611dec6117d5565b5b600084013567ffffffffffffffff811115611e0b57611e0a6117da565b5b611e1786828701611c15565b9350506020611e2886828701611cf0565b92505061012084013567ffffffffffffffff811115611e4a57611e496117da565b5b611e5686828701611da5565b9150509250925092565b60008115159050919050565b611e7581611e60565b82525050565b6000602082019050611e906000830184611e6c565b92915050565b60006102008284031215611ead57611eac6117df565b5b81905092915050565b600080600060608486031215611ecf57611ece6117d5565b5b6000611edd868287016119e7565b9350506020611eee868287016119e7565b925050604084013567ffffffffffffffff811115611f0f57611f0e6117da565b5b611f1b86828701611e96565b9150509250925092565b611f2e81611e60565b8114611f3957600080fd5b50565b600081359050611f4b81611f25565b92915050565b600060208284031215611f6757611f666117d5565b5b6000611f7584828501611f3c565b91505092915050565b60008060408385031215611f9557611f946117d5565b5b6000611fa3858286016119e7565b9250506020611fb4858286016119e7565b9150509250929050565b600081519050919050565b600082825260208201905092915050565b60005b83811015611ff8578082015181840152602081019050611fdd565b60008484015250505050565b600061200f82611fbe565b6120198185611fc9565b9350612029818560208601611fda565b61203281611885565b840191505092915050565b6120468161184c565b82525050565b604082016000820151612062600085018261203d565b506020820151612075602085018261203d565b50505050565b600060029050919050565b600081905092915050565b6000819050919050565b60006120a7838361203d565b60208301905092915050565b6000602082019050919050565b6120c98161207b565b6120d38184612086565b92506120de82612091565b8060005b8381101561210f5781516120f6878261209b565b9650612101836120b3565b9250506001810190506120e2565b505050505050565b60808201600082015161212d60008501826120c0565b50602082015161214060408501826120c0565b50505050565b600081519050919050565b600082825260208201905092915050565b6000819050602082019050919050565b600061217e838361204c565b60408301905092915050565b6000602082019050919050565b60006121a282612146565b6121ac8185612151565b93506121b783612162565b8060005b838110156121e85781516121cf8882612172565b97506121da8361218a565b9250506001810190506121bb565b5085935050505092915050565b60006102008301600083015184820360008601526122138282612004565b9150506020830151612228602086018261204c565b50604083015161223b6060860182612117565b50606083015161224e60e0860182612117565b506080830151612262610160860182612117565b5060a08301518482036101e086015261227b8282612197565b9150508091505092915050565b600060208201905081810360008301526122a281846121f5565b905092915050565b600073ffffffffffffffffffffffffffffffffffffffff82169050919050565b60006122d5826122aa565b9050919050565b6122e5816122ca565b82525050565b600060208201905061230060008301846122dc565b92915050565b6000610220828403121561231d5761231c6117df565b5b81905092915050565b60006020828403121561233c5761233b6117d5565b5b600082013567ffffffffffffffff81111561235a576123596117da565b5b61236684828501612306565b91505092915050565b612378816122ca565b811461238357600080fd5b50565b6000813590506123958161236f565b92915050565b6000602082840312156123b1576123b06117d5565b5b60006123bf84828501612386565b91505092915050565b600061ffff82169050919050565b6123df816123c8565b81146123ea57600080fd5b50565b6000813590506123fc816123d6565b92915050565b600061241160208401846123ed565b905092915050565b612422816123c8565b82525050565b600068ffffffffffffffffff82169050919050565b61244681612428565b811461245157600080fd5b50565b6000813590506124638161243d565b92915050565b60006124786020840184612454565b905092915050565b61248981612428565b82525050565b6003811061249c57600080fd5b50565b6000813590506124ae8161248f565b92915050565b60006124c3602084018461249f565b905092915050565b7f4e487b7100000000000000000000000000000000000000000000000000000000600052602160045260246000fd5b6003811061250b5761250a6124cb565b5b50565b600081905061251c826124fa565b919050565b600061252c8261250e565b9050919050565b61253c81612521565b82525050565b600067ffffffffffffffff82169050919050565b61255f81612542565b811461256a57600080fd5b50565b60008135905061257c81612556565b92915050565b6000612591602084018461256d565b905092915050565b6125a281612542565b82525050565b60006125b76020840184612386565b905092915050565b6125c8816122ca565b82525050565b6000819050919050565b6125e1816125ce565b81146125ec57600080fd5b50565b6000813590506125fe816125d8565b92915050565b600061261360208401846125ef565b905092915050565b612624816125ce565b82525050565b600080fd5b600080fd5b600080fd5b6000808335600160200384360303811261265657612655612634565b5b83810192508235915060208301925067ffffffffffffffff82111561267e5761267d61262a565b5b6020820236038313156126945761269361262f565b5b509250929050565b600082825260208201905092915050565b6000819050919050565b600082905092915050565b82818337505050565b6126d7608083836126c2565b5050565b600080833560016020038436030381126126f8576126f7612634565b5b83810192508235915060208301925067ffffffffffffffff8211156127205761271f61262a565b5b6001820236038313156127365761273561262f565b5b509250929050565b600082825260208201905092915050565b600061275b838561273e565b9350612768838584611951565b61277183611885565b840190509392505050565b6000610100830161279060008401846126b7565b61279d60008601826126cb565b506127ab6080840184612604565b6127b8608086018261261b565b506127c660a0840184612604565b6127d360a086018261261b565b506127e160c08401846126db565b85830360c08701526127f483828461274f565b9250505061280560e08401846126db565b85830360e087015261281883828461274f565b925050508091505092915050565b6000612832838361277c565b905092915050565b6000823560016101000383360303811261285757612856612634565b5b82810191505092915050565b6000602082019050919050565b600061287c838561269c565b93508360208402850161288e846126ad565b8060005b878110156128d25784840389526128a9828461283a565b6128b38582612826565b94506128be83612863565b925060208a01995050600181019050612892565b50829750879450505050509392505050565b600060e083016128f76000840184612402565b6129046000860182612419565b506129126020840184612469565b61291f6020860182612480565b5061292d60408401846124b4565b61293a6040860182612533565b506129486060840184612582565b6129556060860182612599565b5061296360808401846125a8565b61297060808601826125bf565b5061297e60a0840184612604565b61298b60a086018261261b565b5061299960c0840184612639565b85830360c08701526129ac838284612870565b925050508091505092915050565b600060208201905081810360008301526129d481846128e4565b905092915050565b7f4e487b7100000000000000000000000000000000000000000000000000000000600052601260045260246000fd5b6000612a168261184c565b9150612a218361184c565b925082612a3157612a306129dc565b5b828206905092915050565b60006101008284031215612a5357612a52611880565b5b612a5d60606118f6565b90506000612a6d848285016119fc565b6000830152506040612a8184828501611b02565b60208301525060c0612a95848285016119fc565b60408301525092915050565b60006101008284031215612ab857612ab76117d5565b5b6000612ac684828501612a3c565b91505092915050565b7f4e487b7100000000000000000000000000000000000000000000000000000000600052600060045260246000fd5b600080fd5b600080fd5b600080fd5b60008083356001602003843603038112612b2a57612b29612afe565b5b80840192508235915067ffffffffffffffff821115612b4c57612b4b612b03565b5b602083019250600182023603831315612b6857612b67612b08565b5b509250929050565b600082905092915050565b7f4e487b7100000000000000000000000000000000000000000000000000000000600052602260045260246000fd5b60006002820490506001821680612bc257607f821691505b602082108103612bd557612bd4612b7b565b5b50919050565b60008190508160005260206000209050919050565b60006020601f8301049050919050565b600082821b905092915050565b600060088302612c3d7fffffffffffffffffffffffffffffffffffffffffffffffffffffffffffffffff82612c00565b612c478683612c00565b95508019841693508086168417925050509392505050565b6000819050919050565b6000612c84612c7f612c7a8461184c565b612c5f565b61184c565b9050919050565b6000819050919050565b612c9e83612c69565b612cb2612caa82612c8b565b848454612c0d565b825550505050565b600090565b612cc7612cba565b612cd2818484612c95565b505050565b5b81811015612cf657612ceb600082612cbf565b600181019050612cd8565b5050565b601f821115612d3b57612d0c81612bdb565b612d1584612bf0565b81016020851015612d24578190505b612d38612d3085612bf0565b830182612cd7565b50505b505050565b600082821c905092915050565b6000612d5e60001984600802612d40565b1980831691505092915050565b6000612d778383612d4d565b9150826002028217905092915050565b612d918383612b70565b67ffffffffffffffff811115612daa57612da9611896565b5b612db48254612baa565b612dbf828285612cfa565b6000601f831160018114612dee5760008415612ddc578287013590505b612de68582612d6b565b865550612e4e565b601f198416612dfc86612bdb565b60005b82811015612e2457848901358255600182019150602085019450602081019050612dff565b86831015612e415784890135612e3d601f891682612d4d565b8355505b6001600288020188555050505b50505050505050565b612e62838383612d87565b505050565b60008135612e74816119d0565b80915050919050565b60008160001b9050919050565b60007fffffffffffffffffffffffffffffffffffffffffffffffffffffffffffffffff612eb684612e7d565b9350801983169250808416831791505092915050565b612ed582612c69565b612ee8612ee182612c8b565b8354612e8a565b8255505050565b600081016000830180612f0181612e67565b9050612f0d8184612ecc565b505050600181016020830180612f2281612e67565b9050612f2e8184612ecc565b5050505050565b612f3f8282612eef565b5050565b600060029050919050565b7f4e487b7100000000000000000000000000000000000000000000000000000000600052601160045260246000fd5b6000612f888261184c565b9150612f938361184c565b9250828202612fa18161184c565b91508282048414831517612fb857612fb7612f4e565b5b5092915050565b60008190506001806001038301049050919050565b6000819050919050565b5b81811015612ffd57612ff2600082612cbf565b600181019050612fdf565b5050565b8183101561303a5761301282612fbf565b61301b84612fbf565b61302483612fd4565b8181018382016130348183612fde565b50505050505b505050565b6801000000000000000082111561305957613058611896565b5b61306281612f43565b61306d838284613001565b505050565b600060029050919050565b6000819050919050565b61309082613072565b67ffffffffffffffff8111156130a9576130a8611896565b5b6130b3818361303f565b6130bc8361307d565b6130c583612fd4565b6001830460005b818110156131045760006130df85612e67565b6130e881612c8b565b80925060208701965050508082850155506001810190506130cc565b50505050505050565b6131178282613087565b5050565b60008101600083018061312e818461310d565b505050600281016040830180613144818461310d565b5050505050565b613155828261311b565b5050565b6000808335600160200384360303811261317657613175612afe565b5b80840192508235915067ffffffffffffffff82111561319857613197612b03565b5b6020830192506040820236038313156131b4576131b3612b08565b5b509250929050565b6000819050919050565b600081549050919050565b60008190506131e1826002612f7d565b9050919050565b60008190508160005260206000209050919050565b61320a6000808301612cbf565b613218600060018301612cbf565b50565b6000821461322c5761322b612acf565b5b613235816131fd565b5050565b5b818110156132585761324d60008261321b565b60028101905061323a565b5050565b818310156132955761326d826131d1565b613276846131d1565b61327f836131e8565b81810183820161328f8183613239565b50505050505b505050565b680100000000000000008211156132b4576132b3611896565b5b6132bd816131c6565b8282556132cb83828461325c565b505050565b600082905092915050565b6132e583836132d0565b6132ef818361329a565b6132f8836131bc565b613301836131e8565b60005b8381101561332f57826133178184612f35565b60408401935060028301925050600181019050613304565b50505050505050565b6133438383836132db565b505050565b600081016000830161335a8185612b0d565b613365818386612e57565b5050505060018101602083018061337c8184612f35565b505050600381016060830180613392818461314b565b5050506007810160e08301806133a8818461314b565b505050600b81016101608301806133bf818461314b565b505050600f81016101e083016133d58185613159565b6133e0818386613338565b505050505050565b6133f28282613348565b5050565b6000808335600160200384360303811261341357613412612634565b5b83810192508235915060208301925067ffffffffffffffff82111561343b5761343a61262a565b5b6001820236038313156134515761345061262f565b5b509250929050565b60006134658385611fc9565b9350613472838584611951565b61347b83611885565b840190509392505050565b600082905092915050565b60006134a060208401846119e7565b905092915050565b604082016134b96000830183613491565b6134c6600085018261203d565b506134d46020830183613491565b6134e1602085018261203d565b50505050565b600082905092915050565b600082905092915050565b613509604083836126c2565b5050565b6080820161351e60008301836134f2565b61352b60008501826134fd565b5061353960408301836134f2565b61354660408501826134fd565b50505050565b6000808335600160200384360303811261356957613568612634565b5b83810192508235915060208301925067ffffffffffffffff8211156135915761359061262a565b5b6040820236038313156135a7576135a661262f565b5b509250929050565b60006135bb83836134a8565b60408301905092915050565b6000604082019050919050565b60006135e08385612151565b93506135eb826131bc565b8060005b85811015613624576136018284613486565b61360b88826135af565b9750613616836135c7565b9250506001810190506135ef565b5085925050509392505050565b6000610200830161364560008401846133f6565b8583036000870152613658838284613459565b925050506136696020840184613486565b61367660208601826134a8565b5061368460608401846134e7565b613691606086018261350d565b5061369f60e08401846134e7565b6136ac60e086018261350d565b506136bb6101608401846134e7565b6136c961016086018261350d565b506136d86101e084018461354c565b8583036101e08701526136ec8382846135d4565b925050508091505092915050565b600060608201905061370f6000830186611856565b61371c6020830185611856565b818103604083015261372e8184613631565b9050949350505050565b6000808335600160200384360303811261375557613754612afe565b5b80840192508235915067ffffffffffffffff82111561377757613776612b03565b5b60208301925060208202360383131561379357613792612b08565b5b509250929050565b600082825260208201905092915050565b7f56657269666965723a204b6579206e6f74207365740000000000000000000000600082015250565b60006137e260158361379b565b91506137ed826137ac565b602082019050919050565b60006020820190508181036000830152613811816137d5565b9050919050565b60006138238261184c565b915061382e8361184c565b925082820190508082111561384657613845612f4e565b5b92915050565b7f4e487b7100000000000000000000000000000000000000000000000000000000600052603260045260246000fd5b60008235600160e00383360303811261389757613896612afe565b5b80830191505092915050565b7f4f776e61626c653a206e6577206f776e657220697320746865207a65726f206160008201527f6464726573730000000000000000000000000000000000000000000000000000602082015250565b60006138ff60268361379b565b915061390a826138a3565b604082019050919050565b6000602082019050818103600083015261392e816138f2565b9050919050565b7f536e61726b3a20496e707574203e20534e41524b5f5343414c41525f4649454c60008201527f4400000000000000000000000000000000000000000000000000000000000000602082015250565b600061399160218361379b565b915061399c82613935565b604082019050919050565b600060208201905081810360008301526139c081613984565b9050919050565b7f4f776e61626c653a2063616c6c6572206973206e6f7420746865206f776e6572600082015250565b60006139fd60208361379b565b9150613a08826139c7565b602082019050919050565b60006020820190508181036000830152613a2c816139f0565b9050919050565b7f536e61726b3a205363616c6172204d756c7469706c69636174696f6e2046616960008201527f6c65640000000000000000000000000000000000000000000000000000000000602082015250565b6000613a8f60238361379b565b9150613a9a82613a33565b604082019050919050565b60006020820190508181036000830152613abe81613a82565b9050919050565b7f536e61726b3a20416464204661696c6564000000000000000000000000000000600082015250565b6000613afb60118361379b565b9150613b0682613ac5565b602082019050919050565b60006020820190508181036000830152613b2a81613aee565b9050919050565b7f536e61726b3a20496e76616c6964206e65676174696f6e000000000000000000600082015250565b6000613b6760178361379b565b9150613b7282613b31565b602082019050919050565b60006020820190508181036000830152613b9681613b5a565b9050919050565b6000613ba88261184c565b9150613bb38361184c565b9250828203905081811115613bcb57613bca612f4e565b5b92915050565b7f536e61726b3a2050616972696e6720566572696669636174696f6e204661696c60008201527f6564000000000000000000000000000000000000000000000000000000000000602082015250565b6000613c2d60228361379b565b9150613c3882613bd1565b604082019050919050565b60006020820190508181036000830152613c5c81613c20565b905091905056fea2646970667358221220cafa117396aa1efc69b196eb271fcaafb6b0397dab432d5443bdb48e3b41e3ee64736f6c63430008110033","linkReferences":{}},"methodIdentifiers":{"getVerificationKey(uint256,uint256)":"7b12ae83","hashBoundParams((uint16,uint72,uint8,uint64,address,bytes32,(bytes32[4],bytes32,bytes32,bytes,bytes)[]))":"28f89c3a","owner()":"8da5cb5b","renounceOwnership()":"715018a6","setTestingMode(bool)":"596d7a68","setVerificationKey(uint256,uint256,(string,(uint256,uint256),(uint256[2],uint256[2]),(uint256[2],uint256[2]),(uint256[2],uint256[2]),(uint256,uint256)[]))":"2ec0f359","testingMode()":"c8f35b5d","transferOwnership(address)":"f2fde38b","verify((((uint256,uint256),(uint256[2],uint256[2]),(uint256,uint256)),bytes32,bytes32[],bytes32[],(uint16,uint72,uint8,uint64,address,bytes32,(bytes32[4],bytes32,bytes32,bytes,bytes)[]),(bytes32,(uint8,address,uint256),uint120)))":"ee990783","verifyProof((string,(uint256,uint256),(uint256[2],uint256[2]),(uint256[2],uint256[2]),(uint256[2],uint256[2]),(uint256,uint256)[]),((uint256,uint256),(uint256[2],uint256[2]),(uint256,uint256)),uint256[])":"2ebfe12a"},"id":36}