{"abi":[{"type":"constructor","inputs":[{"name":"_admin","type":"address","internalType":"address"}],"stateMutability":"nonpayable"},{"type":"function","name":"callContract","inputs":[{"name":"_contract","type":"address","internalType":"address"},{"name":"_data","type":"bytes","internalType":"bytes"},{"name":"_value","type":"uint256","internalType":"uint256"}],"outputs":[{"name":"success","type":"bool","internalType":"bool"},{"name":"returnData","type":"bytes","internalType":"bytes"}],"stateMutability":"nonpayable"},{"type":"function","name":"checkPermission","inputs":[{"name":"_caller","type":"address","internalType":"address"},{"name":"_contract","type":"address","internalType":"address"},{"name":"_selector","type":"bytes4","internalType":"bytes4"}],"outputs":[{"name":"","type":"bool","internalType":"bool"}],"stateMutability":"view"},{"type":"function","name":"owner","inputs":[],"outputs":[{"name":"","type":"address","internalType":"address"}],"stateMutability":"view"},{"type":"function","name":"permissions","inputs":[{"name":"","type":"address","internalType":"address"},{"name":"","type":"address","internalType":"address"},{"name":"","type":"bytes4","internalType":"bytes4"}],"outputs":[{"name":"","type":"bool","internalType":"bool"}],"stateMutability":"view"},{"type":"function","name":"renounceOwnership","inputs":[],"outputs":[],"stateMutability":"nonpayable"},{"type":"function","name":"setPermission","inputs":[{"name":"_caller","type":"address","internalType":"address"},{"name":"_contract","type":"address","internalType":"address"},{"name":"_selector","type":"bytes4","internalType":"bytes4"},{"name":"_permission","type":"bool","internalType":"bool"}],"outputs":[],"stateMutability":"nonpayable"},{"type":"function","name":"transferOwnership","inputs":[{"name":"newOwner","type":"address","internalType":"address"}],"outputs":[],"stateMutability":"nonpayable"},{"type":"event","name":"GrantPermission","inputs":[{"name":"caller","type":"address","indexed":true,"internalType":"address"},{"name":"contractAddress","type":"address","indexed":true,"internalType":"address"},{"name":"selector","type":"bytes4","indexed":true,"internalType":"bytes4"}],"anonymous":false},{"type":"event","name":"OwnershipTransferred","inputs":[{"name":"previousOwner","type":"address","indexed":true,"internalType":"address"},{"name":"newOwner","type":"address","indexed":true,"internalType":"address"}],"anonymous":false},{"type":"event","name":"RevokePermission","inputs":[{"name":"caller","type":"address","indexed":true,"internalType":"address"},{"name":"contractAddress","type":"address","indexed":true,"internalType":"address"},{"name":"selector","type":"bytes4","indexed":true,"internalType":"bytes4"}],"anonymous":false}],"bytecode":{"object":"0x60806040523480156200001157600080fd5b5060405162001960380380620019608339818101604052810190620000379190620002fa565b620000576200004b6200007460201b60201c565b6200007c60201b60201c565b6200006d816200014060201b62000b3a1760201c565b5062000447565b600033905090565b60008060009054906101000a900473ffffffffffffffffffffffffffffffffffffffff169050816000806101000a81548173ffffffffffffffffffffffffffffffffffffffff021916908373ffffffffffffffffffffffffffffffffffffffff1602179055508173ffffffffffffffffffffffffffffffffffffffff168173ffffffffffffffffffffffffffffffffffffffff167f8be0079c531659141344cd1fd0a4f28419497f9722a3daafe3b4186f6b6457e060405160405180910390a35050565b62000150620001d660201b60201c565b600073ffffffffffffffffffffffffffffffffffffffff168173ffffffffffffffffffffffffffffffffffffffff1603620001c2576040517f08c379a0000000000000000000000000000000000000000000000000000000008152600401620001b990620003b3565b60405180910390fd5b620001d3816200007c60201b60201c565b50565b620001e66200007460201b60201c565b73ffffffffffffffffffffffffffffffffffffffff166200020c6200026760201b60201c565b73ffffffffffffffffffffffffffffffffffffffff161462000265576040517f08c379a00000000000000000000000000000000000000000000000000000000081526004016200025c9062000425565b60405180910390fd5b565b60008060009054906101000a900473ffffffffffffffffffffffffffffffffffffffff16905090565b600080fd5b600073ffffffffffffffffffffffffffffffffffffffff82169050919050565b6000620002c28262000295565b9050919050565b620002d481620002b5565b8114620002e057600080fd5b50565b600081519050620002f481620002c9565b92915050565b60006020828403121562000313576200031262000290565b5b60006200032384828501620002e3565b91505092915050565b600082825260208201905092915050565b7f4f776e61626c653a206e6577206f776e657220697320746865207a65726f206160008201527f6464726573730000000000000000000000000000000000000000000000000000602082015250565b60006200039b6026836200032c565b9150620003a8826200033d565b604082019050919050565b60006020820190508181036000830152620003ce816200038c565b9050919050565b7f4f776e61626c653a2063616c6c6572206973206e6f7420746865206f776e6572600082015250565b60006200040d6020836200032c565b91506200041a82620003d5565b602082019050919050565b600060208201905081810360008301526200044081620003fe565b9050919050565b61150980620004576000396000f3fe608060405234801561001057600080fd5b506004361061007d5760003560e01c80638da5cb5b1161005b5780638da5cb5b146100ec578063c6b295c11461010a578063e64624fa1461013b578063f2fde38b146101575761007d565b8063715018a6146100825780637aa7d3fd1461008c5780638ad2f289146100bc575b600080fd5b61008a610173565b005b6100a660048036038101906100a19190610dc7565b610187565b6040516100b39190610e35565b60405180910390f35b6100d660048036038101906100d19190610dc7565b6101c3565b6040516100e39190610e35565b60405180910390f35b6100f461054c565b6040516101019190610e5f565b60405180910390f35b610124600480360381019061011f9190610f15565b610575565b604051610132929190611019565b60405180910390f35b61015560048036038101906101509190611075565b610865565b005b610171600480360381019061016c91906110dc565b610b3a565b005b61017b610bbd565b6101856000610c3b565b565b6001602052826000526040600020602052816000526040600020602052806000526040600020600092509250509054906101000a900460ff1681565b60006101cd61054c565b73ffffffffffffffffffffffffffffffffffffffff168473ffffffffffffffffffffffffffffffffffffffff1614806102db5750600160008573ffffffffffffffffffffffffffffffffffffffff1673ffffffffffffffffffffffffffffffffffffffff16815260200190815260200160002060008473ffffffffffffffffffffffffffffffffffffffff1673ffffffffffffffffffffffffffffffffffffffff1681526020019081526020016000206000837bffffffffffffffffffffffffffffffffffffffffffffffffffffffff19167bffffffffffffffffffffffffffffffffffffffffffffffffffffffff1916815260200190815260200160002060009054906101000a900460ff165b8061039f5750600160008573ffffffffffffffffffffffffffffffffffffffff1673ffffffffffffffffffffffffffffffffffffffff16815260200190815260200160002060008473ffffffffffffffffffffffffffffffffffffffff1673ffffffffffffffffffffffffffffffffffffffff16815260200190815260200160002060008060e01b7bffffffffffffffffffffffffffffffffffffffffffffffffffffffff1916815260200190815260200160002060009054906101000a900460ff165b8061047f5750600160008573ffffffffffffffffffffffffffffffffffffffff1673ffffffffffffffffffffffffffffffffffffffff16815260200190815260200160002060008073ffffffffffffffffffffffffffffffffffffffff1673ffffffffffffffffffffffffffffffffffffffff1681526020019081526020016000206000837bffffffffffffffffffffffffffffffffffffffffffffffffffffffff19167bffffffffffffffffffffffffffffffffffffffffffffffffffffffff1916815260200190815260200160002060009054906101000a900460ff165b806105435750600160008573ffffffffffffffffffffffffffffffffffffffff1673ffffffffffffffffffffffffffffffffffffffff16815260200190815260200160002060008073ffffffffffffffffffffffffffffffffffffffff1673ffffffffffffffffffffffffffffffffffffffff16815260200190815260200160002060008060e01b7bffffffffffffffffffffffffffffffffffffffffffffffffffffffff1916815260200190815260200160002060009054906101000a900460ff165b90509392505050565b60008060009054906101000a900473ffffffffffffffffffffffffffffffffffffffff16905090565b6000606060008585906105889190611121565b90503073ffffffffffffffffffffffffffffffffffffffff168773ffffffffffffffffffffffffffffffffffffffff16036107a15763e64624fa60e01b7bffffffffffffffffffffffffffffffffffffffffffffffffffffffff1916817bffffffffffffffffffffffffffffffffffffffffffffffffffffffff19160361067d57600080600080898960049080926106229392919061118a565b604051602001610633929190611204565b6040516020818303038152906040528060200190518101906106559190611285565b935093509350935061066984848484610865565b60606001819750975050505050505061085c565b63f2fde38b60e01b7bffffffffffffffffffffffffffffffffffffffffffffffffffffffff1916817bffffffffffffffffffffffffffffffffffffffffffffffffffffffff19160361072d576000868660049080926106de9392919061118a565b6040516020016106ef929190611204565b60405160208183030381529060405280602001905181019061071191906112ec565b905061071c81610b3a565b60606001819450945050505061085c565b63715018a660e01b7bffffffffffffffffffffffffffffffffffffffffffffffffffffffff1916817bffffffffffffffffffffffffffffffffffffffffffffffffffffffff19160361079157610781610173565b606060018193509350505061085c565b606060008193509350505061085c565b6107ac3388836101c3565b6107eb576040517f08c379a00000000000000000000000000000000000000000000000000000000081526004016107e29061139c565b60405180910390fd5b8673ffffffffffffffffffffffffffffffffffffffff168487876040516108139291906113bc565b60006040518083038185875af1925050503d8060008114610850576040519150601f19603f3d011682016040523d82523d6000602084013e610855565b606091505b5092509250505b94509492505050565b61086d610bbd565b801515600160008673ffffffffffffffffffffffffffffffffffffffff1673ffffffffffffffffffffffffffffffffffffffff16815260200190815260200160002060008573ffffffffffffffffffffffffffffffffffffffff1673ffffffffffffffffffffffffffffffffffffffff1681526020019081526020016000206000847bffffffffffffffffffffffffffffffffffffffffffffffffffffffff19167bffffffffffffffffffffffffffffffffffffffffffffffffffffffff1916815260200190815260200160002060009054906101000a900460ff16151514610b345780600160008673ffffffffffffffffffffffffffffffffffffffff1673ffffffffffffffffffffffffffffffffffffffff16815260200190815260200160002060008573ffffffffffffffffffffffffffffffffffffffff1673ffffffffffffffffffffffffffffffffffffffff1681526020019081526020016000206000847bffffffffffffffffffffffffffffffffffffffffffffffffffffffff19167bffffffffffffffffffffffffffffffffffffffffffffffffffffffff1916815260200190815260200160002060006101000a81548160ff0219169083151502179055508015610ab857817bffffffffffffffffffffffffffffffffffffffffffffffffffffffff19168373ffffffffffffffffffffffffffffffffffffffff168573ffffffffffffffffffffffffffffffffffffffff167f521b363b3401f4d6404e4bd855a3edf8d254a7f55abb97b6d516b66a6f86205e60405160405180910390a4610b33565b817bffffffffffffffffffffffffffffffffffffffffffffffffffffffff19168373ffffffffffffffffffffffffffffffffffffffff168573ffffffffffffffffffffffffffffffffffffffff167f91f81f13bab4e6573f47dda4f090782eb2c9173d3d489ca191b5f4f7355cebe860405160405180910390a45b5b50505050565b610b42610bbd565b600073ffffffffffffffffffffffffffffffffffffffff168173ffffffffffffffffffffffffffffffffffffffff1603610bb1576040517f08c379a0000000000000000000000000000000000000000000000000000000008152600401610ba890611447565b60405180910390fd5b610bba81610c3b565b50565b610bc5610cff565b73ffffffffffffffffffffffffffffffffffffffff16610be361054c565b73ffffffffffffffffffffffffffffffffffffffff1614610c39576040517f08c379a0000000000000000000000000000000000000000000000000000000008152600401610c30906114b3565b60405180910390fd5b565b60008060009054906101000a900473ffffffffffffffffffffffffffffffffffffffff169050816000806101000a81548173ffffffffffffffffffffffffffffffffffffffff021916908373ffffffffffffffffffffffffffffffffffffffff1602179055508173ffffffffffffffffffffffffffffffffffffffff168173ffffffffffffffffffffffffffffffffffffffff167f8be0079c531659141344cd1fd0a4f28419497f9722a3daafe3b4186f6b6457e060405160405180910390a35050565b600033905090565b600080fd5b600080fd5b600073ffffffffffffffffffffffffffffffffffffffff82169050919050565b6000610d3c82610d11565b9050919050565b610d4c81610d31565b8114610d5757600080fd5b50565b600081359050610d6981610d43565b92915050565b60007fffffffff0000000000000000000000000000000000000000000000000000000082169050919050565b610da481610d6f565b8114610daf57600080fd5b50565b600081359050610dc181610d9b565b92915050565b600080600060608486031215610de057610ddf610d07565b5b6000610dee86828701610d5a565b9350506020610dff86828701610d5a565b9250506040610e1086828701610db2565b9150509250925092565b60008115159050919050565b610e2f81610e1a565b82525050565b6000602082019050610e4a6000830184610e26565b92915050565b610e5981610d31565b82525050565b6000602082019050610e746000830184610e50565b92915050565b600080fd5b600080fd5b600080fd5b60008083601f840112610e9f57610e9e610e7a565b5b8235905067ffffffffffffffff811115610ebc57610ebb610e7f565b5b602083019150836001820283011115610ed857610ed7610e84565b5b9250929050565b6000819050919050565b610ef281610edf565b8114610efd57600080fd5b50565b600081359050610f0f81610ee9565b92915050565b60008060008060608587031215610f2f57610f2e610d07565b5b6000610f3d87828801610d5a565b945050602085013567ffffffffffffffff811115610f5e57610f5d610d0c565b5b610f6a87828801610e89565b93509350506040610f7d87828801610f00565b91505092959194509250565b600081519050919050565b600082825260208201905092915050565b60005b83811015610fc3578082015181840152602081019050610fa8565b60008484015250505050565b6000601f19601f8301169050919050565b6000610feb82610f89565b610ff58185610f94565b9350611005818560208601610fa5565b61100e81610fcf565b840191505092915050565b600060408201905061102e6000830185610e26565b81810360208301526110408184610fe0565b90509392505050565b61105281610e1a565b811461105d57600080fd5b50565b60008135905061106f81611049565b92915050565b6000806000806080858703121561108f5761108e610d07565b5b600061109d87828801610d5a565b94505060206110ae87828801610d5a565b93505060406110bf87828801610db2565b92505060606110d087828801611060565b91505092959194509250565b6000602082840312156110f2576110f1610d07565b5b600061110084828501610d5a565b91505092915050565b600082905092915050565b600082821b905092915050565b600061112d8383611109565b826111388135610d6f565b92506004821015611178576111737fffffffff0000000000000000000000000000000000000000000000000000000083600403600802611114565b831692505b505092915050565b600080fd5b600080fd5b6000808585111561119e5761119d611180565b5b838611156111af576111ae611185565b5b6001850283019150848603905094509492505050565b600081905092915050565b82818337600083830152505050565b60006111eb83856111c5565b93506111f88385846111d0565b82840190509392505050565b60006112118284866111df565b91508190509392505050565b600061122882610d11565b9050919050565b6112388161121d565b811461124357600080fd5b50565b6000815190506112558161122f565b92915050565b60008151905061126a81610d9b565b92915050565b60008151905061127f81611049565b92915050565b6000806000806080858703121561129f5761129e610d07565b5b60006112ad87828801611246565b94505060206112be87828801611246565b93505060406112cf8782880161125b565b92505060606112e087828801611270565b91505092959194509250565b60006020828403121561130257611301610d07565b5b600061131084828501611246565b91505092915050565b600082825260208201905092915050565b7f44656c656761746f723a2043616c6c657220646f65736e27742068617665207060008201527f65726d697373696f6e0000000000000000000000000000000000000000000000602082015250565b6000611386602983611319565b91506113918261132a565b604082019050919050565b600060208201905081810360008301526113b581611379565b9050919050565b60006113c98284866111df565b91508190509392505050565b7f4f776e61626c653a206e6577206f776e657220697320746865207a65726f206160008201527f6464726573730000000000000000000000000000000000000000000000000000602082015250565b6000611431602683611319565b915061143c826113d5565b604082019050919050565b6000602082019050818103600083015261146081611424565b9050919050565b7f4f776e61626c653a2063616c6c6572206973206e6f7420746865206f776e6572600082015250565b600061149d602083611319565b91506114a882611467565b602082019050919050565b600060208201905081810360008301526114cc81611490565b905091905056fea2646970667358221220adb927988630933fa41e01073701fe926a4514e5b306c2e4fc1ddc57b7e525e064736f6c63430008110033","linkReferences":{}},"methodIdentifiers":{"callContract(address,bytes,uint256)":"c6b295c1","checkPermission(address,address,bytes4)":"8ad2f289","owner()":"8da5cb5b","permissions(address,address,bytes4)":"7aa7d3fd","renounceOwnership()":"715018a6","setPermission(address,address,bytes4,bool)":"e64624fa","transferOwnership(address)":"f2fde38b"},"id":28}