{"abi":[{"type":"constructor","inputs":[],"stateMutability":"nonpayable"},{"type":"function","name":"RAY","inputs":[],"outputs":[{"name":"","type":"uint256","internalType":"uint256"}],"stateMutability":"view"},{"type":"function","name":"SECONDS_PER_YEAR","inputs":[],"outputs":[{"name":"","type":"uint256","internalType":"uint256"}],"stateMutability":"view"},{"type":"function","name":"addReserve","inputs":[{"name":"underlying","type":"address","internalType":"address"},{"name":"annualYieldBps","type":"uint256","internalType":"uint256"},{"name":"mintableYield","type":"bool","internalType":"bool"}],"outputs":[{"name":"reserveId","type":"uint256","internalType":"uint256"}],"stateMutability":"nonpayable"},{"type":"function","name":"convertToAssets","inputs":[{"name":"reserveId","type":"uint256","internalType":"uint256"},{"name":"shares","type":"uint256","internalType":"uint256"}],"outputs":[{"name":"assets","type":"uint256","internalType":"uint256"}],"stateMutability":"view"},{"type":"function","name":"convertToShares","inputs":[{"name":"reserveId","type":"uint256","internalType":"uint256"},{"name":"assets","type":"uint256","internalType":"uint256"}],"outputs":[{"name":"shares","type":"uint256","internalType":"uint256"}],"stateMutability":"view"},{"type":"function","name":"getReserveData","inputs":[{"name":"reserveId","type":"uint256","internalType":"uint256"}],"outputs":[{"name":"underlying","type":"address","internalType":"address"},{"name":"totalShares","type":"uint256","internalType":"uint256"},{"name":"totalDeposited","type":"uint256","internalType":"uint256"},{"name":"liquidityIndex","type":"uint256","internalType":"uint256"},{"name":"lastUpdateTimestamp","type":"uint256","internalType":"uint256"},{"name":"annualYieldBps","type":"uint256","internalType":"uint256"},{"name":"mintableYield","type":"bool","internalType":"bool"}],"stateMutability":"view"},{"type":"function","name":"getReserveLiquidityIndex","inputs":[{"name":"reserveId","type":"uint256","internalType":"uint256"}],"outputs":[{"name":"","type":"uint256","internalType":"uint256"}],"stateMutability":"view"},{"type":"function","name":"getReserveSuppliedAssets","inputs":[{"name":"reserveId","type":"uint256","internalType":"uint256"}],"outputs":[{"name":"","type":"uint256","internalType":"uint256"}],"stateMutability":"view"},{"type":"function","name":"getReserveSuppliedShares","inputs":[{"name":"reserveId","type":"uint256","internalType":"uint256"}],"outputs":[{"name":"","type":"uint256","internalType":"uint256"}],"stateMutability":"view"},{"type":"function","name":"getUnderlyingAsset","inputs":[{"name":"reserveId","type":"uint256","internalType":"uint256"}],"outputs":[{"name":"","type":"address","internalType":"address"}],"stateMutability":"view"},{"type":"function","name":"getUserSuppliedAssets","inputs":[{"name":"reserveId","type":"uint256","internalType":"uint256"},{"name":"user","type":"address","internalType":"address"}],"outputs":[{"name":"","type":"uint256","internalType":"uint256"}],"stateMutability":"view"},{"type":"function","name":"getUserSuppliedShares","inputs":[{"name":"reserveId","type":"uint256","internalType":"uint256"},{"name":"user","type":"address","internalType":"address"}],"outputs":[{"name":"","type":"uint256","internalType":"uint256"}],"stateMutability":"view"},{"type":"function","name":"nextReserveId","inputs":[],"outputs":[{"name":"","type":"uint256","internalType":"uint256"}],"stateMutability":"view"},{"type":"function","name":"owner","inputs":[],"outputs":[{"name":"","type":"address","internalType":"address"}],"stateMutability":"view"},{"type":"function","name":"reserves","inputs":[{"name":"","type":"uint256","internalType":"uint256"}],"outputs":[{"name":"underlying","type":"address","internalType":"contract IERC20"},{"name":"totalShares","type":"uint256","internalType":"uint256"},{"name":"totalDeposited","type":"uint256","internalType":"uint256"},{"name":"liquidityIndex","type":"uint256","internalType":"uint256"},{"name":"lastUpdateTimestamp","type":"uint256","internalType":"uint256"},{"name":"annualYieldBps","type":"uint256","internalType":"uint256"},{"name":"mintableYield","type":"bool","internalType":"bool"}],"stateMutability":"view"},{"type":"function","name":"setYieldRate","inputs":[{"name":"reserveId","type":"uint256","internalType":"uint256"},{"name":"annualYieldBps","type":"uint256","internalType":"uint256"}],"outputs":[],"stateMutability":"nonpayable"},{"type":"function","name":"supply","inputs":[{"name":"reserveId","type":"uint256","internalType":"uint256"},{"name":"amount","type":"uint256","internalType":"uint256"},{"name":"onBehalfOf","type":"address","internalType":"address"}],"outputs":[{"name":"shares","type":"uint256","internalType":"uint256"},{"name":"supplied","type":"uint256","internalType":"uint256"}],"stateMutability":"nonpayable"},{"type":"function","name":"transferOwnership","inputs":[{"name":"newOwner","type":"address","internalType":"address"}],"outputs":[],"stateMutability":"nonpayable"},{"type":"function","name":"userShares","inputs":[{"name":"","type":"uint256","internalType":"uint256"},{"name":"","type":"address","internalType":"address"}],"outputs":[{"name":"","type":"uint256","internalType":"uint256"}],"stateMutability":"view"},{"type":"function","name":"withdraw","inputs":[{"name":"reserveId","type":"uint256","internalType":"uint256"},{"name":"amount","type":"uint256","internalType":"uint256"},{"name":"onBehalfOf","type":"address","internalType":"address"}],"outputs":[{"name":"shares","type":"uint256","internalType":"uint256"},{"name":"withdrawn","type":"uint256","internalType":"uint256"}],"stateMutability":"nonpayable"},{"type":"event","name":"ReserveAdded","inputs":[{"name":"reserveId","type":"uint256","indexed":true,"internalType":"uint256"},{"name":"underlying","type":"address","indexed":true,"internalType":"address"},{"name":"annualYieldBps","type":"uint256","indexed":false,"internalType":"uint256"}],"anonymous":false},{"type":"event","name":"Supply","inputs":[{"name":"reserveId","type":"uint256","indexed":true,"internalType":"uint256"},{"name":"caller","type":"address","indexed":true,"internalType":"address"},{"name":"user","type":"address","indexed":true,"internalType":"address"},{"name":"suppliedShares","type":"uint256","indexed":false,"internalType":"uint256"},{"name":"suppliedAmount","type":"uint256","indexed":false,"internalType":"uint256"}],"anonymous":false},{"type":"event","name":"Withdraw","inputs":[{"name":"reserveId","type":"uint256","indexed":true,"internalType":"uint256"},{"name":"caller","type":"address","indexed":true,"internalType":"address"},{"name":"user","type":"address","indexed":true,"internalType":"address"},{"name":"withdrawnShares","type":"uint256","indexed":false,"internalType":"uint256"},{"name":"withdrawnAmount","type":"uint256","indexed":false,"internalType":"uint256"}],"anonymous":false},{"type":"event","name":"YieldMinted","inputs":[{"name":"reserveId","type":"uint256","indexed":true,"internalType":"uint256"},{"name":"amount","type":"uint256","indexed":false,"internalType":"uint256"}],"anonymous":false},{"type":"event","name":"YieldRateUpdated","inputs":[{"name":"reserveId","type":"uint256","indexed":true,"internalType":"uint256"},{"name":"newYieldBps","type":"uint256","indexed":false,"internalType":"uint256"}],"anonymous":false}],"bytecode":{"object":"0x608060405234801561001057600080fd5b5033600260006101000a81548173ffffffffffffffffffffffffffffffffffffffff021916908373ffffffffffffffffffffffffffffffffffffffff16021790555061296f806100616000396000f3fe608060405234801561001057600080fd5b506004361061012c5760003560e01c806391541e05116100ad578063db2088f411610071578063db2088f4146103c5578063dcf56e56146103f5578063e6a69ab814610425578063f1568a8914610443578063f2fde38b146104735761012c565b806391541e05146102cf578063ad95487814610305578063b678c38814610335578063c758a4a614610365578063ce603521146103955761012c565b8063552033c4116100f4578063552033c4146102105780638334278d1461022e578063852a56a5146102645780638c6b15ac146102955780638da5cb5b146102b15761012c565b80630ad58d2f14610131578063181e7b3b146101625780632fa08544146101925780632fd00527146101c257806346dbf589146101f2575b600080fd5b61014b60048036038101906101469190611ce1565b61048f565b604051610159929190611d43565b60405180910390f35b61017c60048036038101906101779190611d6c565b610a25565b6040516101899190611dac565b60405180910390f35b6101ac60048036038101906101a79190611dc7565b610ad9565b6040516101b99190611dac565b60405180910390f35b6101dc60048036038101906101d79190611e07565b610b34565b6040516101e99190611dac565b60405180910390f35b6101fa610beb565b6040516102079190611dac565b60405180910390f35b610218610bf1565b6040516102259190611dac565b60405180910390f35b61024860048036038101906102439190611e07565b610c01565b60405161025b9796959493929190611eae565b60405180910390f35b61027e60048036038101906102799190611ce1565b610c70565b60405161028c929190611d43565b60405180910390f35b6102af60048036038101906102aa9190611d6c565b610f36565b005b6102b96110be565b6040516102c69190611f2c565b60405180910390f35b6102e960048036038101906102e49190611e07565b6110e4565b6040516102fc9796959493929190611f47565b60405180910390f35b61031f600480360381019061031a9190611dc7565b611172565b60405161032c9190611dac565b60405180910390f35b61034f600480360381019061034a9190611fe2565b611197565b60405161035c9190611dac565b60405180910390f35b61037f600480360381019061037a9190611e07565b61139f565b60405161038c9190611f2c565b60405180910390f35b6103af60048036038101906103aa9190611e07565b6113de565b6040516103bc9190611dac565b60405180910390f35b6103df60048036038101906103da9190611d6c565b6113fd565b6040516103ec9190611dac565b60405180910390f35b61040f600480360381019061040a9190611e07565b6114b1565b60405161041c9190611dac565b60405180910390f35b61042d6114d4565b60405161043a9190611dac565b60405180910390f35b61045d60048036038101906104589190611dc7565b6114dc565b60405161046a9190611dac565b60405180910390f35b61048d60048036038101906104889190612035565b6115e0565b005b6000808273ffffffffffffffffffffffffffffffffffffffff163373ffffffffffffffffffffffffffffffffffffffff1614610500576040517f08c379a00000000000000000000000000000000000000000000000000000000081526004016104f7906120e5565b60405180910390fd5b60008060008781526020019081526020016000209050600073ffffffffffffffffffffffffffffffffffffffff168160000160009054906101000a900473ffffffffffffffffffffffffffffffffffffffff1673ffffffffffffffffffffffffffffffffffffffff16036105a9576040517f08c379a00000000000000000000000000000000000000000000000000000000081526004016105a090612151565b60405180910390fd5b6105b281611723565b60006105bf828689611740565b90507fffffffffffffffffffffffffffffffffffffffffffffffffffffffffffffffff86036105ec578095505b6000861161062f576040517f08c379a0000000000000000000000000000000000000000000000000000000008152600401610626906121bd565b60405180910390fd5b80861115610672576040517f08c379a00000000000000000000000000000000000000000000000000000000081526004016106699061224f565b60405180910390fd5b81600301546b033b2e3c9fd0803ce80000008761068f919061229e565b610699919061230f565b935060006001600089815260200190815260200160002060008773ffffffffffffffffffffffffffffffffffffffff1673ffffffffffffffffffffffffffffffffffffffff1681526020019081526020016000205490508187036106fb578094505b8085111561073e576040517f08c379a0000000000000000000000000000000000000000000000000000000008152600401610735906123b2565b60405180910390fd5b84600160008a815260200190815260200160002060008873ffffffffffffffffffffffffffffffffffffffff1673ffffffffffffffffffffffffffffffffffffffff168152602001908152602001600020600082825461079e91906123d2565b92505081905550848360010160008282546107b991906123d2565b9250508190555060008360000160009054906101000a900473ffffffffffffffffffffffffffffffffffffffff1673ffffffffffffffffffffffffffffffffffffffff166370a08231306040518263ffffffff1660e01b815260040161081f9190611f2c565b602060405180830381865afa15801561083c573d6000803e3d6000fd5b505050506040513d601f19601f82011682018060405250810190610860919061241b565b9050808811801561087f57508360060160009054906101000a900460ff165b1561095f576000818961089291906123d2565b90508460000160009054906101000a900473ffffffffffffffffffffffffffffffffffffffff1673ffffffffffffffffffffffffffffffffffffffff166340c10f1930836040518363ffffffff1660e01b81526004016108f3929190612448565b600060405180830381600087803b15801561090d57600080fd5b505af1158015610921573d6000803e3d6000fd5b50505050897f9c81afa0d494de2b5a90ba38e252d60e6fa4a499c8784cc15c02725b2c955729826040516109559190611dac565b60405180910390a2505b6109ae33898660000160009054906101000a900473ffffffffffffffffffffffffffffffffffffffff1673ffffffffffffffffffffffffffffffffffffffff166117cb9092919063ffffffff16565b8794508673ffffffffffffffffffffffffffffffffffffffff163373ffffffffffffffffffffffffffffffffffffffff168a7ffe7813e2866053d5c3938554e517b554fce6666a6561bed9eaa7419b29fa9b688989604051610a11929190611d43565b60405180910390a450505050935093915050565b6000806000808581526020019081526020016000209050600073ffffffffffffffffffffffffffffffffffffffff168160000160009054906101000a900473ffffffffffffffffffffffffffffffffffffffff1673ffffffffffffffffffffffffffffffffffffffff1603610a9e576000915050610ad3565b6000610aa982611851565b90506b033b2e3c9fd0803ce80000008185610ac4919061229e565b610ace919061230f565b925050505b92915050565b60006001600084815260200190815260200160002060008373ffffffffffffffffffffffffffffffffffffffff1673ffffffffffffffffffffffffffffffffffffffff16815260200190815260200160002054905092915050565b6000806000808481526020019081526020016000209050600073ffffffffffffffffffffffffffffffffffffffff168160000160009054906101000a900473ffffffffffffffffffffffffffffffffffffffff1673ffffffffffffffffffffffffffffffffffffffff1603610bad576000915050610be6565b6000610bb882611851565b90506b033b2e3c9fd0803ce8000000818360010154610bd7919061229e565b610be1919061230f565b925050505b919050565b60035481565b6b033b2e3c9fd0803ce800000081565b60006020528060005260406000206000915090508060000160009054906101000a900473ffffffffffffffffffffffffffffffffffffffff16908060010154908060020154908060030154908060040154908060050154908060060160009054906101000a900460ff16905087565b60008060008060008781526020019081526020016000209050600073ffffffffffffffffffffffffffffffffffffffff168160000160009054906101000a900473ffffffffffffffffffffffffffffffffffffffff1673ffffffffffffffffffffffffffffffffffffffff1603610d1c576040517f08c379a0000000000000000000000000000000000000000000000000000000008152600401610d1390612151565b60405180910390fd5b60008511610d5f576040517f08c379a0000000000000000000000000000000000000000000000000000000008152600401610d56906121bd565b60405180910390fd5b610d6881611723565b80600301546b033b2e3c9fd0803ce800000086610d85919061229e565b610d8f919061230f565b925060008311610dd4576040517f08c379a0000000000000000000000000000000000000000000000000000000008152600401610dcb906124bd565b60405180910390fd5b826001600088815260200190815260200160002060008673ffffffffffffffffffffffffffffffffffffffff1673ffffffffffffffffffffffffffffffffffffffff1681526020019081526020016000206000828254610e3491906124dd565b9250508190555082816001016000828254610e4f91906124dd565b9250508190555084816002016000828254610e6a91906124dd565b92505081905550610ec23330878460000160009054906101000a900473ffffffffffffffffffffffffffffffffffffffff1673ffffffffffffffffffffffffffffffffffffffff1661192a909392919063ffffffff16565b8491508373ffffffffffffffffffffffffffffffffffffffff163373ffffffffffffffffffffffffffffffffffffffff16877fd986db228cb1fe8392c5f45ff5f2c639b7db6cbd9ca7d1fe70b2de90c2c8c9618686604051610f25929190611d43565b60405180910390a450935093915050565b600260009054906101000a900473ffffffffffffffffffffffffffffffffffffffff1673ffffffffffffffffffffffffffffffffffffffff163373ffffffffffffffffffffffffffffffffffffffff1614610fc6576040517f08c379a0000000000000000000000000000000000000000000000000000000008152600401610fbd9061255d565b60405180910390fd5b60008060008481526020019081526020016000209050600073ffffffffffffffffffffffffffffffffffffffff168160000160009054906101000a900473ffffffffffffffffffffffffffffffffffffffff1673ffffffffffffffffffffffffffffffffffffffff160361106f576040517f08c379a000000000000000000000000000000000000000000000000000000000815260040161106690612151565b60405180910390fd5b61107881611723565b818160050181905550827f4959ad9023bf5b492922b51fbc7c0b5e5ec66aa39700e0da6d8af9b2d430898e836040516110b19190611dac565b60405180910390a2505050565b600260009054906101000a900473ffffffffffffffffffffffffffffffffffffffff1681565b6000806000806000806000806000808a815260200190815260200160002090508060000160009054906101000a900473ffffffffffffffffffffffffffffffffffffffff168160010154826002015461113c84611851565b846004015485600501548660060160009054906101000a900460ff16975097509750975097509750975050919395979092949650565b6001602052816000526040600020602052806000526040600020600091509150505481565b6000600260009054906101000a900473ffffffffffffffffffffffffffffffffffffffff1673ffffffffffffffffffffffffffffffffffffffff163373ffffffffffffffffffffffffffffffffffffffff1614611229576040517f08c379a00000000000000000000000000000000000000000000000000000000081526004016112209061255d565b60405180910390fd5b6003600081548092919061123c9061257d565b9190505590506040518060e001604052808573ffffffffffffffffffffffffffffffffffffffff16815260200160008152602001600081526020016b033b2e3c9fd0803ce8000000815260200142815260200184815260200183151581525060008083815260200190815260200160002060008201518160000160006101000a81548173ffffffffffffffffffffffffffffffffffffffff021916908373ffffffffffffffffffffffffffffffffffffffff1602179055506020820151816001015560408201518160020155606082015181600301556080820151816004015560a0820151816005015560c08201518160060160006101000a81548160ff0219169083151502179055509050508373ffffffffffffffffffffffffffffffffffffffff16817ff35c3a329a5a564d131cc337d5265aad813c691d76c4a3ee6b9ac5205930cb62856040516113909190611dac565b60405180910390a39392505050565b600080600083815260200190815260200160002060000160009054906101000a900473ffffffffffffffffffffffffffffffffffffffff169050919050565b6000806000838152602001908152602001600020600101549050919050565b6000806000808581526020019081526020016000209050600073ffffffffffffffffffffffffffffffffffffffff168160000160009054906101000a900473ffffffffffffffffffffffffffffffffffffffff1673ffffffffffffffffffffffffffffffffffffffff16036114765760009150506114ab565b600061148182611851565b9050806b033b2e3c9fd0803ce80000008561149c919061229e565b6114a6919061230f565b925050505b92915050565b60006114cd600080848152602001908152602001600020611851565b9050919050565b6301e1338081565b6000806000808581526020019081526020016000209050600073ffffffffffffffffffffffffffffffffffffffff168160000160009054906101000a900473ffffffffffffffffffffffffffffffffffffffff1673ffffffffffffffffffffffffffffffffffffffff16036115555760009150506115da565b600061156082611851565b90506b033b2e3c9fd0803ce8000000816001600088815260200190815260200160002060008773ffffffffffffffffffffffffffffffffffffffff1673ffffffffffffffffffffffffffffffffffffffff168152602001908152602001600020546115cb919061229e565b6115d5919061230f565b925050505b92915050565b600260009054906101000a900473ffffffffffffffffffffffffffffffffffffffff1673ffffffffffffffffffffffffffffffffffffffff163373ffffffffffffffffffffffffffffffffffffffff1614611670576040517f08c379a00000000000000000000000000000000000000000000000000000000081526004016116679061255d565b60405180910390fd5b600073ffffffffffffffffffffffffffffffffffffffff168173ffffffffffffffffffffffffffffffffffffffff16036116df576040517f08c379a00000000000000000000000000000000000000000000000000000000081526004016116d690612611565b60405180910390fd5b80600260006101000a81548173ffffffffffffffffffffffffffffffffffffffff021916908373ffffffffffffffffffffffffffffffffffffffff16021790555050565b61172c81611851565b816003018190555042816004018190555050565b60008061174c85611851565b90506b033b2e3c9fd0803ce8000000816001600086815260200190815260200160002060008773ffffffffffffffffffffffffffffffffffffffff1673ffffffffffffffffffffffffffffffffffffffff168152602001908152602001600020546117b7919061229e565b6117c1919061230f565b9150509392505050565b61184c8363a9059cbb60e01b84846040516024016117ea929190612448565b604051602081830303815290604052907bffffffffffffffffffffffffffffffffffffffffffffffffffffffff19166020820180517bffffffffffffffffffffffffffffffffffffffffffffffffffffffff83818316178352505050506119b3565b505050565b600080826004015403611872576b033b2e3c9fd0803ce80000009050611925565b600082600401544261188491906123d2565b90506000810361189b578260030154915050611925565b60006301e133806127106118af919061229e565b826b033b2e3c9fd0803ce800000086600501546118cc919061229e565b6118d6919061229e565b6118e0919061230f565b6b033b2e3c9fd0803ce80000006118f791906124dd565b90506b033b2e3c9fd0803ce8000000818560030154611916919061229e565b611920919061230f565b925050505b919050565b6119ad846323b872dd60e01b85858560405160240161194b93929190612631565b604051602081830303815290604052907bffffffffffffffffffffffffffffffffffffffffffffffffffffffff19166020820180517bffffffffffffffffffffffffffffffffffffffffffffffffffffffff83818316178352505050506119b3565b50505050565b6000611a15826040518060400160405280602081526020017f5361666545524332303a206c6f772d6c6576656c2063616c6c206661696c65648152508573ffffffffffffffffffffffffffffffffffffffff16611a7b9092919063ffffffff16565b9050600081511480611a37575080806020019051810190611a36919061267d565b5b611a76576040517f08c379a0000000000000000000000000000000000000000000000000000000008152600401611a6d9061271c565b60405180910390fd5b505050565b6060611a8a8484600085611a93565b90509392505050565b606082471015611ad8576040517f08c379a0000000000000000000000000000000000000000000000000000000008152600401611acf906127ae565b60405180910390fd5b6000808673ffffffffffffffffffffffffffffffffffffffff168587604051611b01919061283f565b60006040518083038185875af1925050503d8060008114611b3e576040519150601f19603f3d011682016040523d82523d6000602084013e611b43565b606091505b5091509150611b5487838387611b60565b92505050949350505050565b60608315611bc2576000835103611bba57611b7a85611bd5565b611bb9576040517f08c379a0000000000000000000000000000000000000000000000000000000008152600401611bb0906128a2565b60405180910390fd5b5b829050611bcd565b611bcc8383611bf8565b5b949350505050565b6000808273ffffffffffffffffffffffffffffffffffffffff163b119050919050565b600082511115611c0b5781518083602001fd5b806040517f08c379a0000000000000000000000000000000000000000000000000000000008152600401611c3f9190612917565b60405180910390fd5b600080fd5b6000819050919050565b611c6081611c4d565b8114611c6b57600080fd5b50565b600081359050611c7d81611c57565b92915050565b600073ffffffffffffffffffffffffffffffffffffffff82169050919050565b6000611cae82611c83565b9050919050565b611cbe81611ca3565b8114611cc957600080fd5b50565b600081359050611cdb81611cb5565b92915050565b600080600060608486031215611cfa57611cf9611c48565b5b6000611d0886828701611c6e565b9350506020611d1986828701611c6e565b9250506040611d2a86828701611ccc565b9150509250925092565b611d3d81611c4d565b82525050565b6000604082019050611d586000830185611d34565b611d656020830184611d34565b9392505050565b60008060408385031215611d8357611d82611c48565b5b6000611d9185828601611c6e565b9250506020611da285828601611c6e565b9150509250929050565b6000602082019050611dc16000830184611d34565b92915050565b60008060408385031215611dde57611ddd611c48565b5b6000611dec85828601611c6e565b9250506020611dfd85828601611ccc565b9150509250929050565b600060208284031215611e1d57611e1c611c48565b5b6000611e2b84828501611c6e565b91505092915050565b6000819050919050565b6000611e59611e54611e4f84611c83565b611e34565b611c83565b9050919050565b6000611e6b82611e3e565b9050919050565b6000611e7d82611e60565b9050919050565b611e8d81611e72565b82525050565b60008115159050919050565b611ea881611e93565b82525050565b600060e082019050611ec3600083018a611e84565b611ed06020830189611d34565b611edd6040830188611d34565b611eea6060830187611d34565b611ef76080830186611d34565b611f0460a0830185611d34565b611f1160c0830184611e9f565b98975050505050505050565b611f2681611ca3565b82525050565b6000602082019050611f416000830184611f1d565b92915050565b600060e082019050611f5c600083018a611f1d565b611f696020830189611d34565b611f766040830188611d34565b611f836060830187611d34565b611f906080830186611d34565b611f9d60a0830185611d34565b611faa60c0830184611e9f565b98975050505050505050565b611fbf81611e93565b8114611fca57600080fd5b50565b600081359050611fdc81611fb6565b92915050565b600080600060608486031215611ffb57611ffa611c48565b5b600061200986828701611ccc565b935050602061201a86828701611c6e565b925050604061202b86828701611fcd565b9150509250925092565b60006020828403121561204b5761204a611c48565b5b600061205984828501611ccc565b91505092915050565b600082825260208201905092915050565b7f4d6f636b4161766553706f6b653a2063616e206f6e6c7920776974686472617760008201527f206f776e2066756e647300000000000000000000000000000000000000000000602082015250565b60006120cf602a83612062565b91506120da82612073565b604082019050919050565b600060208201905081810360008301526120fe816120c2565b9050919050565b7f4d6f636b4161766553706f6b653a2072657365727665206e6f7420666f756e64600082015250565b600061213b602083612062565b915061214682612105565b602082019050919050565b6000602082019050818103600083015261216a8161212e565b9050919050565b7f4d6f636b4161766553706f6b653a207a65726f20616d6f756e74000000000000600082015250565b60006121a7601a83612062565b91506121b282612171565b602082019050919050565b600060208201905081810360008301526121d68161219a565b9050919050565b7f4d6f636b4161766553706f6b653a20696e73756666696369656e742062616c6160008201527f6e63650000000000000000000000000000000000000000000000000000000000602082015250565b6000612239602383612062565b9150612244826121dd565b604082019050919050565b600060208201905081810360008301526122688161222c565b9050919050565b7f4e487b7100000000000000000000000000000000000000000000000000000000600052601160045260246000fd5b60006122a982611c4d565b91506122b483611c4d565b92508282026122c281611c4d565b915082820484148315176122d9576122d861226f565b5b5092915050565b7f4e487b7100000000000000000000000000000000000000000000000000000000600052601260045260246000fd5b600061231a82611c4d565b915061232583611c4d565b925082612335576123346122e0565b5b828204905092915050565b7f4d6f636b4161766553706f6b653a20696e73756666696369656e74207368617260008201527f6573000000000000000000000000000000000000000000000000000000000000602082015250565b600061239c602283612062565b91506123a782612340565b604082019050919050565b600060208201905081810360008301526123cb8161238f565b9050919050565b60006123dd82611c4d565b91506123e883611c4d565b9250828203905081811115612400576123ff61226f565b5b92915050565b60008151905061241581611c57565b92915050565b60006020828403121561243157612430611c48565b5b600061243f84828501612406565b91505092915050565b600060408201905061245d6000830185611f1d565b61246a6020830184611d34565b9392505050565b7f4d6f636b4161766553706f6b653a207a65726f20736861726573000000000000600082015250565b60006124a7601a83612062565b91506124b282612471565b602082019050919050565b600060208201905081810360008301526124d68161249a565b9050919050565b60006124e882611c4d565b91506124f383611c4d565b925082820190508082111561250b5761250a61226f565b5b92915050565b7f4d6f636b4161766553706f6b653a206e6f74206f776e65720000000000000000600082015250565b6000612547601883612062565b915061255282612511565b602082019050919050565b600060208201905081810360008301526125768161253a565b9050919050565b600061258882611c4d565b91507fffffffffffffffffffffffffffffffffffffffffffffffffffffffffffffffff82036125ba576125b961226f565b5b600182019050919050565b7f4d6f636b4161766553706f6b653a207a65726f20616464726573730000000000600082015250565b60006125fb601b83612062565b9150612606826125c5565b602082019050919050565b6000602082019050818103600083015261262a816125ee565b9050919050565b60006060820190506126466000830186611f1d565b6126536020830185611f1d565b6126606040830184611d34565b949350505050565b60008151905061267781611fb6565b92915050565b60006020828403121561269357612692611c48565b5b60006126a184828501612668565b91505092915050565b7f5361666545524332303a204552433230206f7065726174696f6e20646964206e60008201527f6f74207375636365656400000000000000000000000000000000000000000000602082015250565b6000612706602a83612062565b9150612711826126aa565b604082019050919050565b60006020820190508181036000830152612735816126f9565b9050919050565b7f416464726573733a20696e73756666696369656e742062616c616e636520666f60008201527f722063616c6c0000000000000000000000000000000000000000000000000000602082015250565b6000612798602683612062565b91506127a38261273c565b604082019050919050565b600060208201905081810360008301526127c78161278b565b9050919050565b600081519050919050565b600081905092915050565b60005b838110156128025780820151818401526020810190506127e7565b60008484015250505050565b6000612819826127ce565b61282381856127d9565b93506128338185602086016127e4565b80840191505092915050565b600061284b828461280e565b915081905092915050565b7f416464726573733a2063616c6c20746f206e6f6e2d636f6e7472616374000000600082015250565b600061288c601d83612062565b915061289782612856565b602082019050919050565b600060208201905081810360008301526128bb8161287f565b9050919050565b600081519050919050565b6000601f19601f8301169050919050565b60006128e9826128c2565b6128f38185612062565b93506129038185602086016127e4565b61290c816128cd565b840191505092915050565b6000602082019050818103600083015261293181846128de565b90509291505056fea264697066735822122065528a3ded5dc58079a39300233f1bdc135ef0b4f83d932634bfe4209fa2c50f64736f6c63430008110033","linkReferences":{}},"methodIdentifiers":{"RAY()":"552033c4","SECONDS_PER_YEAR()":"e6a69ab8","addReserve(address,uint256,bool)":"b678c388","convertToAssets(uint256,uint256)":"181e7b3b","convertToShares(uint256,uint256)":"db2088f4","getReserveData(uint256)":"91541e05","getReserveLiquidityIndex(uint256)":"dcf56e56","getReserveSuppliedAssets(uint256)":"2fd00527","getReserveSuppliedShares(uint256)":"ce603521","getUnderlyingAsset(uint256)":"c758a4a6","getUserSuppliedAssets(uint256,address)":"f1568a89","getUserSuppliedShares(uint256,address)":"2fa08544","nextReserveId()":"46dbf589","owner()":"8da5cb5b","reserves(uint256)":"8334278d","setYieldRate(uint256,uint256)":"8c6b15ac","supply(uint256,uint256,address)":"852a56a5","transferOwnership(address)":"f2fde38b","userShares(uint256,address)":"ad954878","withdraw(uint256,uint256,address)":"0ad58d2f"},"id":1}