{"abi":[{"type":"constructor","inputs":[{"name":"_votingLocker","type":"address","internalType":"address"},{"name":"_armToken","type":"address","internalType":"address"},{"name":"_timelock","type":"address","internalType":"address payable"},{"name":"_treasuryAddress","type":"address","internalType":"address"}],"stateMutability":"nonpayable"},{"type":"function","name":"PROPOSAL_THRESHOLD_BPS","inputs":[],"outputs":[{"name":"","type":"uint256","internalType":"uint256"}],"stateMutability":"view"},{"type":"function","name":"armToken","inputs":[],"outputs":[{"name":"","type":"address","internalType":"contract IERC20"}],"stateMutability":"view"},{"type":"function","name":"cancel","inputs":[{"name":"proposalId","type":"uint256","internalType":"uint256"}],"outputs":[],"stateMutability":"nonpayable"},{"type":"function","name":"castVote","inputs":[{"name":"proposalId","type":"uint256","internalType":"uint256"},{"name":"support","type":"uint8","internalType":"uint8"}],"outputs":[],"stateMutability":"nonpayable"},{"type":"function","name":"execute","inputs":[{"name":"proposalId","type":"uint256","internalType":"uint256"}],"outputs":[],"stateMutability":"payable"},{"type":"function","name":"getProposal","inputs":[{"name":"proposalId","type":"uint256","internalType":"uint256"}],"outputs":[{"name":"proposer","type":"address","internalType":"address"},{"name":"proposalType","type":"uint8","internalType":"enum ProposalType"},{"name":"voteStart","type":"uint256","internalType":"uint256"},{"name":"voteEnd","type":"uint256","internalType":"uint256"},{"name":"forVotes","type":"uint256","internalType":"uint256"},{"name":"againstVotes","type":"uint256","internalType":"uint256"},{"name":"abstainVotes","type":"uint256","internalType":"uint256"},{"name":"snapshotBlock","type":"uint256","internalType":"uint256"}],"stateMutability":"view"},{"type":"function","name":"getProposalActions","inputs":[{"name":"proposalId","type":"uint256","internalType":"uint256"}],"outputs":[{"name":"targets","type":"address[]","internalType":"address[]"},{"name":"values","type":"uint256[]","internalType":"uint256[]"},{"name":"calldatas","type":"bytes[]","internalType":"bytes[]"}],"stateMutability":"view"},{"type":"function","name":"hasVoted","inputs":[{"name":"","type":"uint256","internalType":"uint256"},{"name":"","type":"address","internalType":"address"}],"outputs":[{"name":"","type":"bool","internalType":"bool"}],"stateMutability":"view"},{"type":"function","name":"proposalCount","inputs":[],"outputs":[{"name":"","type":"uint256","internalType":"uint256"}],"stateMutability":"view"},{"type":"function","name":"proposalThreshold","inputs":[],"outputs":[{"name":"","type":"uint256","internalType":"uint256"}],"stateMutability":"view"},{"type":"function","name":"proposalTypeParams","inputs":[{"name":"","type":"uint8","internalType":"enum ProposalType"}],"outputs":[{"name":"votingDelay","type":"uint256","internalType":"uint256"},{"name":"votingPeriod","type":"uint256","internalType":"uint256"},{"name":"executionDelay","type":"uint256","internalType":"uint256"},{"name":"quorumBps","type":"uint256","internalType":"uint256"}],"stateMutability":"view"},{"type":"function","name":"propose","inputs":[{"name":"proposalType","type":"uint8","internalType":"enum ProposalType"},{"name":"targets","type":"address[]","internalType":"address[]"},{"name":"values","type":"uint256[]","internalType":"uint256[]"},{"name":"calldatas","type":"bytes[]","internalType":"bytes[]"},{"name":"description","type":"string","internalType":"string"}],"outputs":[{"name":"","type":"uint256","internalType":"uint256"}],"stateMutability":"nonpayable"},{"type":"function","name":"queue","inputs":[{"name":"proposalId","type":"uint256","internalType":"uint256"}],"outputs":[],"stateMutability":"nonpayable"},{"type":"function","name":"quorum","inputs":[{"name":"proposalId","type":"uint256","internalType":"uint256"}],"outputs":[{"name":"","type":"uint256","internalType":"uint256"}],"stateMutability":"view"},{"type":"function","name":"state","inputs":[{"name":"proposalId","type":"uint256","internalType":"uint256"}],"outputs":[{"name":"","type":"uint8","internalType":"enum ProposalState"}],"stateMutability":"view"},{"type":"function","name":"timelock","inputs":[],"outputs":[{"name":"","type":"address","internalType":"contract TimelockController"}],"stateMutability":"view"},{"type":"function","name":"treasuryAddress","inputs":[],"outputs":[{"name":"","type":"address","internalType":"address"}],"stateMutability":"view"},{"type":"function","name":"voteChoice","inputs":[{"name":"","type":"uint256","internalType":"uint256"},{"name":"","type":"address","internalType":"address"}],"outputs":[{"name":"","type":"uint8","internalType":"uint8"}],"stateMutability":"view"},{"type":"function","name":"votingLocker","inputs":[],"outputs":[{"name":"","type":"address","internalType":"contract IVotingLocker"}],"stateMutability":"view"},{"type":"event","name":"ProposalCanceled","inputs":[{"name":"proposalId","type":"uint256","indexed":true,"internalType":"uint256"}],"anonymous":false},{"type":"event","name":"ProposalCreated","inputs":[{"name":"proposalId","type":"uint256","indexed":true,"internalType":"uint256"},{"name":"proposer","type":"address","indexed":true,"internalType":"address"},{"name":"proposalType","type":"uint8","indexed":false,"internalType":"enum ProposalType"},{"name":"voteStart","type":"uint256","indexed":false,"internalType":"uint256"},{"name":"voteEnd","type":"uint256","indexed":false,"internalType":"uint256"},{"name":"description","type":"string","indexed":false,"internalType":"string"}],"anonymous":false},{"type":"event","name":"ProposalExecuted","inputs":[{"name":"proposalId","type":"uint256","indexed":true,"internalType":"uint256"}],"anonymous":false},{"type":"event","name":"ProposalQueued","inputs":[{"name":"proposalId","type":"uint256","indexed":true,"internalType":"uint256"},{"name":"timelockId","type":"bytes32","indexed":false,"internalType":"bytes32"}],"anonymous":false},{"type":"event","name":"VoteCast","inputs":[{"name":"voter","type":"address","indexed":true,"internalType":"address"},{"name":"proposalId","type":"uint256","indexed":true,"internalType":"uint256"},{"name":"support","type":"uint8","indexed":false,"internalType":"uint8"},{"name":"weight","type":"uint256","indexed":false,"internalType":"uint256"}],"anonymous":false}],"bytecode":{"object":"0x6101006040523480156200001257600080fd5b50604051620044ba380380620044ba83398181016040528101906200003891906200054e565b6001600081905550600073ffffffffffffffffffffffffffffffffffffffff168473ffffffffffffffffffffffffffffffffffffffff1603620000b2576040517f08c379a0000000000000000000000000000000000000000000000000000000008152600401620000a99062000647565b60405180910390fd5b600073ffffffffffffffffffffffffffffffffffffffff168373ffffffffffffffffffffffffffffffffffffffff160362000124576040517f08c379a00000000000000000000000000000000000000000000000000000000081526004016200011b90620006b9565b60405180910390fd5b600073ffffffffffffffffffffffffffffffffffffffff168273ffffffffffffffffffffffffffffffffffffffff160362000196576040517f08c379a00000000000000000000000000000000000000000000000000000000081526004016200018d906200072b565b60405180910390fd5b600073ffffffffffffffffffffffffffffffffffffffff168173ffffffffffffffffffffffffffffffffffffffff160362000208576040517f08c379a0000000000000000000000000000000000000000000000000000000008152600401620001ff906200079d565b60405180910390fd5b8373ffffffffffffffffffffffffffffffffffffffff1660808173ffffffffffffffffffffffffffffffffffffffff16815250508273ffffffffffffffffffffffffffffffffffffffff1660a08173ffffffffffffffffffffffffffffffffffffffff16815250508173ffffffffffffffffffffffffffffffffffffffff1660c08173ffffffffffffffffffffffffffffffffffffffff16815250508073ffffffffffffffffffffffffffffffffffffffff1660e08173ffffffffffffffffffffffffffffffffffffffff168152505060405180608001604052806202a30081526020016206978081526020016202a30081526020016107d0815250600560008060028111156200031e576200031d620007bf565b5b6002811115620003335762000332620007bf565b5b81526020019081526020016000206000820151816000015560208201518160010155604082015181600201556060820151816003015590505060405180608001604052806202a30081526020016206978081526020016202a30081526020016107d08152506005600060016002811115620003b357620003b2620007bf565b5b6002811115620003c857620003c7620007bf565b5b81526020019081526020016000206000820151816000015560208201518160010155604082015181600201556060820151816003015590505060405180608001604052806202a300815260200162093a808152602001620546008152602001610bb881525060056000600280811115620004475762000446620007bf565b5b60028111156200045c576200045b620007bf565b5b81526020019081526020016000206000820151816000015560208201518160010155604082015181600201556060820151816003015590505050505050620007ee565b600080fd5b600073ffffffffffffffffffffffffffffffffffffffff82169050919050565b6000620004d182620004a4565b9050919050565b620004e381620004c4565b8114620004ef57600080fd5b50565b6000815190506200050381620004d8565b92915050565b60006200051682620004a4565b9050919050565b620005288162000509565b81146200053457600080fd5b50565b60008151905062000548816200051d565b92915050565b600080600080608085870312156200056b576200056a6200049f565b5b60006200057b87828801620004f2565b94505060206200058e87828801620004f2565b9350506040620005a18782880162000537565b9250506060620005b487828801620004f2565b91505092959194509250565b600082825260208201905092915050565b7f41726d616461476f7665726e6f723a207a65726f20766f74696e674c6f636b6560008201527f7200000000000000000000000000000000000000000000000000000000000000602082015250565b60006200062f602183620005c0565b91506200063c82620005d1565b604082019050919050565b60006020820190508181036000830152620006628162000620565b9050919050565b7f41726d616461476f7665726e6f723a207a65726f2061726d546f6b656e000000600082015250565b6000620006a1601d83620005c0565b9150620006ae8262000669565b602082019050919050565b60006020820190508181036000830152620006d48162000692565b9050919050565b7f41726d616461476f7665726e6f723a207a65726f2074696d656c6f636b000000600082015250565b600062000713601d83620005c0565b91506200072082620006db565b602082019050919050565b60006020820190508181036000830152620007468162000704565b9050919050565b7f41726d616461476f7665726e6f723a207a65726f207472656173757279000000600082015250565b600062000785601d83620005c0565b915062000792826200074d565b602082019050919050565b60006020820190508181036000830152620007b88162000776565b9050919050565b7f4e487b7100000000000000000000000000000000000000000000000000000000600052602160045260246000fd5b60805160a05160c05160e051613c4c6200086e60003960008181610ee101526114d2015260008181610f99015281816110680152818161111e01526116b10152600081816107d101528181610c79015281816114030152818161149601526118ad0152600081816109c801528181610c4901526117fc0152613c4c6000f3fe6080604052600436106101145760003560e01c8063b923ec1b116100a0578063ddf0b00911610064578063ddf0b009146103d3578063e26b2bea146103fc578063f8ce560a1461043b578063fb46885514610478578063fe0d94c1146104b557610114565b8063b923ec1b146102ce578063c5f956af1461030e578063c7f758a814610339578063d33219b41461037d578063da35c664146103a857610114565b806356781388116100e757806356781388146101e75780639722d57614610210578063a7d54d3f1461023b578063b58131b014610266578063b59a972b1461029157610114565b80633e4f49e61461011957806340e58ee514610156578063438596321461017f57806354c98d8e146101bc575b600080fd5b34801561012557600080fd5b50610140600480360381019061013b9190611d32565b6104d1565b60405161014d9190611dd6565b60405180910390f35b34801561016257600080fd5b5061017d60048036038101906101789190611d32565b6105f3565b005b34801561018b57600080fd5b506101a660048036038101906101a19190611e4f565b6107a0565b6040516101b39190611eaa565b60405180910390f35b3480156101c857600080fd5b506101d16107cf565b6040516101de9190611f24565b60405180910390f35b3480156101f357600080fd5b5061020e60048036038101906102099190611f78565b6107f3565b005b34801561021c57600080fd5b50610225610c47565b6040516102329190611fd9565b60405180910390f35b34801561024757600080fd5b50610250610c6b565b60405161025d9190612003565b60405180910390f35b34801561027257600080fd5b5061027b610c70565b6040516102889190612003565b60405180910390f35b34801561029d57600080fd5b506102b860048036038101906102b39190612496565b610d1f565b6040516102c59190612003565b60405180910390f35b3480156102da57600080fd5b506102f560048036038101906102f09190612581565b610eaf565b60405161030594939291906125ae565b60405180910390f35b34801561031a57600080fd5b50610323610edf565b6040516103309190612602565b60405180910390f35b34801561034557600080fd5b50610360600480360381019061035b9190611d32565b610f03565b604051610374989796959493929190612665565b60405180910390f35b34801561038957600080fd5b50610392610f97565b60405161039f9190612716565b60405180910390f35b3480156103b457600080fd5b506103bd610fbb565b6040516103ca9190612003565b60405180910390f35b3480156103df57600080fd5b506103fa60048036038101906103f59190611d32565b610fc1565b005b34801561040857600080fd5b50610423600480360381019061041e9190611d32565b611204565b604051610432939291906129ee565b60405180910390f35b34801561044757600080fd5b50610462600480360381019061045d9190611d32565b6113e7565b60405161046f9190612003565b60405180910390f35b34801561048457600080fd5b5061049f600480360381019061049a9190611e4f565b6115d5565b6040516104ac9190612a49565b60405180910390f35b6104cf60048036038101906104ca9190611d32565b611604565b005b6000806002600084815260200190815260200160002090506000816000015403610530576040517f08c379a000000000000000000000000000000000000000000000000000000000815260040161052790612ac1565b60405180910390fd5b8060090160019054906101000a900460ff16156105515760069150506105ee565b8060090160009054906101000a900460ff16156105725760059150506105ee565b80600201544210156105885760009150506105ee565b8060030154421161059d5760019150506105ee565b6105a68361178e565b15806105b857506105b6836117cd565b155b156105c75760029150506105ee565b8060090160029054906101000a900460ff16156105e85760049150506105ee565b60039150505b919050565b60006002600083815260200190815260200160002090506000816000015403610651576040517f08c379a000000000000000000000000000000000000000000000000000000000815260040161064890612ac1565b60405180910390fd5b8060010160009054906101000a900473ffffffffffffffffffffffffffffffffffffffff1673ffffffffffffffffffffffffffffffffffffffff163373ffffffffffffffffffffffffffffffffffffffff16146106e3576040517f08c379a00000000000000000000000000000000000000000000000000000000081526004016106da90612b2d565b60405180910390fd5b600060068111156106f7576106f6611d5f565b5b610700836104d1565b600681111561071257610711611d5f565b5b14610752576040517f08c379a000000000000000000000000000000000000000000000000000000000815260040161074990612b99565b60405180910390fd5b60018160090160016101000a81548160ff021916908315150217905550817f789cf55be980739dad1d0699b93b58e806b51c9d96619bfa8fe0a28abaa7b30c60405160405180910390a25050565b60036020528160005260406000206020528060005260406000206000915091509054906101000a900460ff1681565b7f000000000000000000000000000000000000000000000000000000000000000081565b60006002600084815260200190815260200160002090506000816000015403610851576040517f08c379a000000000000000000000000000000000000000000000000000000000815260040161084890612ac1565b60405180910390fd5b8060020154421015610898576040517f08c379a000000000000000000000000000000000000000000000000000000000815260040161088f90612c2b565b60405180910390fd5b80600301544211156108df576040517f08c379a00000000000000000000000000000000000000000000000000000000081526004016108d690612c97565b60405180910390fd5b6003600084815260200190815260200160002060003373ffffffffffffffffffffffffffffffffffffffff1673ffffffffffffffffffffffffffffffffffffffff16815260200190815260200160002060009054906101000a900460ff161561097d576040517f08c379a000000000000000000000000000000000000000000000000000000000815260040161097490612d03565b60405180910390fd5b60028260ff1611156109c4576040517f08c379a00000000000000000000000000000000000000000000000000000000081526004016109bb90612d95565b60405180910390fd5b60007f000000000000000000000000000000000000000000000000000000000000000073ffffffffffffffffffffffffffffffffffffffff1663802829d43384600501546040518363ffffffff1660e01b8152600401610a25929190612db5565b602060405180830381865afa158015610a42573d6000803e3d6000fd5b505050506040513d601f19601f82011682018060405250810190610a669190612df3565b905060008111610aab576040517f08c379a0000000000000000000000000000000000000000000000000000000008152600401610aa290612e6c565b60405180910390fd5b60016003600086815260200190815260200160002060003373ffffffffffffffffffffffffffffffffffffffff1673ffffffffffffffffffffffffffffffffffffffff16815260200190815260200160002060006101000a81548160ff021916908315150217905550826004600086815260200190815260200160002060003373ffffffffffffffffffffffffffffffffffffffff1673ffffffffffffffffffffffffffffffffffffffff16815260200190815260200160002060006101000a81548160ff021916908360ff16021790555060008360ff1603610ba85780826007016000828254610b9c9190612ebb565b92505081905550610bf0565b60018360ff1603610bd35780826006016000828254610bc79190612ebb565b92505081905550610bef565b80826008016000828254610be79190612ebb565b925050819055505b5b833373ffffffffffffffffffffffffffffffffffffffff167f2c9deb38f462962eadbd85a9d3a4120503ee091f1582eaaa10aa8c6797651d298584604051610c39929190612eef565b60405180910390a350505050565b7f000000000000000000000000000000000000000000000000000000000000000081565b600a81565b6000612710600a7f000000000000000000000000000000000000000000000000000000000000000073ffffffffffffffffffffffffffffffffffffffff166318160ddd6040518163ffffffff1660e01b8152600401602060405180830381865afa158015610ce2573d6000803e3d6000fd5b505050506040513d601f19601f82011682018060405250810190610d069190612df3565b610d109190612f18565b610d1a9190612f89565b905090565b600080855111610d64576040517f08c379a0000000000000000000000000000000000000000000000000000000008152600401610d5b90613006565b60405180910390fd5b83518551148015610d76575082518551145b610db5576040517f08c379a0000000000000000000000000000000000000000000000000000000008152600401610dac90613072565b60405180910390fd5b610dbe336117f8565b6000600160008154610dcf90613092565b9190508190559050610de2818885611998565b60006002600083815260200190815260200160002090508681600a019080519060200190610e11929190611b37565b508581600b019080519060200190610e2a929190611bc1565b508481600c019080519060200190610e43929190611c0e565b503373ffffffffffffffffffffffffffffffffffffffff16827f4cc6c8aa8b03faf0cbdc1a3e16c0756adfa0b609afe2222f40e94ca1897b1e398a8460020154856003015489604051610e99949392919061311e565b60405180910390a3819250505095945050505050565b60056020528060005260406000206000915090508060000154908060010154908060020154908060030154905084565b7f000000000000000000000000000000000000000000000000000000000000000081565b6000806000806000806000806000600260008b815260200190815260200160002090508060010160009054906101000a900473ffffffffffffffffffffffffffffffffffffffff168160010160149054906101000a900460ff168260020154836003015484600601548560070154866008015487600501549850985098509850985098509850985050919395975091939597565b7f000000000000000000000000000000000000000000000000000000000000000081565b60015481565b60036006811115610fd557610fd4611d5f565b5b610fde826104d1565b6006811115610ff057610fef611d5f565b5b14611030576040517f08c379a0000000000000000000000000000000000000000000000000000000008152600401611027906131b6565b60405180910390fd5b600060026000838152602001908152602001600020905060018160090160026101000a81548160ff02191690831515021790555060007f000000000000000000000000000000000000000000000000000000000000000073ffffffffffffffffffffffffffffffffffffffff1663b1c5f42783600a0184600b0185600c0160006110b989611ad1565b6040518663ffffffff1660e01b81526004016110d995949392919061359a565b602060405180830381865afa1580156110f6573d6000803e3d6000fd5b505050506040513d601f19601f8201168201806040525081019061111a919061362e565b90507f000000000000000000000000000000000000000000000000000000000000000073ffffffffffffffffffffffffffffffffffffffff16638f2a0bb083600a0184600b0185600c01600061116f89611ad1565b88600401546040518763ffffffff1660e01b81526004016111959695949392919061365b565b600060405180830381600087803b1580156111af57600080fd5b505af11580156111c3573d6000803e3d6000fd5b50505050827f025b0c83fe178c6c2484be14bc8ffaaadb46e5136f7aba5e4fa7059edcd7161a826040516111f791906136d1565b60405180910390a2505050565b6060806060600060026000868152602001908152602001600020905080600a0181600b0182600c01828054806020026020016040519081016040528092919081815260200182805480156112ad57602002820191906000526020600020905b8160009054906101000a900473ffffffffffffffffffffffffffffffffffffffff1673ffffffffffffffffffffffffffffffffffffffff1681526020019060010190808311611263575b50505050509250818054806020026020016040519081016040528092919081815260200182805480156112ff57602002820191906000526020600020905b8154815260200190600101908083116112eb575b5050505050915080805480602002602001604051908101604052809291908181526020016000905b828210156113d3578382906000526020600020018054611346906133da565b80601f0160208091040260200160405190810160405280929190818152602001828054611372906133da565b80156113bf5780601f10611394576101008083540402835291602001916113bf565b820191906000526020600020905b8154815290600101906020018083116113a257829003601f168201915b505050505081526020019060010190611327565b505050509050935093509350509193909250565b60008060026000848152602001908152602001600020905060007f000000000000000000000000000000000000000000000000000000000000000073ffffffffffffffffffffffffffffffffffffffff166318160ddd6040518163ffffffff1660e01b8152600401602060405180830381865afa15801561146c573d6000803e3d6000fd5b505050506040513d601f19601f820116820180604052508101906114909190612df3565b905060007f000000000000000000000000000000000000000000000000000000000000000073ffffffffffffffffffffffffffffffffffffffff166370a082317f00000000000000000000000000000000000000000000000000000000000000006040518263ffffffff1660e01b815260040161150d9190612602565b602060405180830381865afa15801561152a573d6000803e3d6000fd5b505050506040513d601f19601f8201168201806040525081019061154e9190612df3565b90506000818361155e91906136ec565b90506000600560008660010160149054906101000a900460ff16600281111561158a57611589611d5f565b5b600281111561159c5761159b611d5f565b5b815260200190815260200160002060030154905061271081836115bf9190612f18565b6115c99190612f89565b95505050505050919050565b60046020528160005260406000206020528060005260406000206000915091509054906101000a900460ff1681565b61160c611ade565b600460068111156116205761161f611d5f565b5b611629826104d1565b600681111561163b5761163a611d5f565b5b1461167b576040517f08c379a00000000000000000000000000000000000000000000000000000000081526004016116729061376c565b60405180910390fd5b600060026000838152602001908152602001600020905060018160090160006101000a81548160ff0219169083151502179055507f000000000000000000000000000000000000000000000000000000000000000073ffffffffffffffffffffffffffffffffffffffff1663e38335e53483600a0184600b0185600c01600061170389611ad1565b6040518763ffffffff1660e01b815260040161172395949392919061359a565b6000604051808303818588803b15801561173c57600080fd5b505af1158015611750573d6000803e3d6000fd5b5050505050817f712ae1383f79ac853f8d882153778e0260ef8f03b504e2866e0593e04d2b291f60405160405180910390a25061178b611b2d565b50565b6000806002600084815260200190815260200160002090506117af836113e7565b816008015482600601546117c39190612ebb565b1015915050919050565b6000806002600084815260200190815260200160002090508060070154816006015411915050919050565b60007f000000000000000000000000000000000000000000000000000000000000000073ffffffffffffffffffffffffffffffffffffffff1663802829d48360014361184491906136ec565b6040518363ffffffff1660e01b8152600401611861929190612db5565b602060405180830381865afa15801561187e573d6000803e3d6000fd5b505050506040513d601f19601f820116820180604052508101906118a29190612df3565b90506000612710600a7f000000000000000000000000000000000000000000000000000000000000000073ffffffffffffffffffffffffffffffffffffffff166318160ddd6040518163ffffffff1660e01b8152600401602060405180830381865afa158015611916573d6000803e3d6000fd5b505050506040513d601f19601f8201168201806040525081019061193a9190612df3565b6119449190612f18565b61194e9190612f89565b905080821015611993576040517f08c379a000000000000000000000000000000000000000000000000000000000815260040161198a906137fe565b60405180910390fd5b505050565b6000600560008460028111156119b1576119b0611d5f565b5b60028111156119c3576119c2611d5f565b5b815260200190815260200160002090506000600260008681526020019081526020016000209050848160000181905550338160010160006101000a81548173ffffffffffffffffffffffffffffffffffffffff021916908373ffffffffffffffffffffffffffffffffffffffff160217905550838160010160146101000a81548160ff02191690836002811115611a5d57611a5c611d5f565b5b0217905550600143611a6f91906136ec565b8160050181905550816000015442611a879190612ebb565b816002018190555081600101548160020154611aa39190612ebb565b8160030181905550816002015481600401819055508281600d019081611ac991906139c0565b505050505050565b60008160001b9050919050565b600260005403611b23576040517f08c379a0000000000000000000000000000000000000000000000000000000008152600401611b1a90613ade565b60405180910390fd5b6002600081905550565b6001600081905550565b828054828255906000526020600020908101928215611bb0579160200282015b82811115611baf5782518260006101000a81548173ffffffffffffffffffffffffffffffffffffffff021916908373ffffffffffffffffffffffffffffffffffffffff16021790555091602001919060010190611b57565b5b509050611bbd9190611c67565b5090565b828054828255906000526020600020908101928215611bfd579160200282015b82811115611bfc578251825591602001919060010190611be1565b5b509050611c0a9190611c67565b5090565b828054828255906000526020600020908101928215611c56579160200282015b82811115611c55578251829081611c459190613b44565b5091602001919060010190611c2e565b5b509050611c639190611c84565b5090565b5b80821115611c80576000816000905550600101611c68565b5090565b5b80821115611ca45760008181611c9b9190611ca8565b50600101611c85565b5090565b508054611cb4906133da565b6000825580601f10611cc65750611ce5565b601f016020900490600052602060002090810190611ce49190611c67565b5b50565b6000604051905090565b600080fd5b600080fd5b6000819050919050565b611d0f81611cfc565b8114611d1a57600080fd5b50565b600081359050611d2c81611d06565b92915050565b600060208284031215611d4857611d47611cf2565b5b6000611d5684828501611d1d565b91505092915050565b7f4e487b7100000000000000000000000000000000000000000000000000000000600052602160045260246000fd5b60078110611d9f57611d9e611d5f565b5b50565b6000819050611db082611d8e565b919050565b6000611dc082611da2565b9050919050565b611dd081611db5565b82525050565b6000602082019050611deb6000830184611dc7565b92915050565b600073ffffffffffffffffffffffffffffffffffffffff82169050919050565b6000611e1c82611df1565b9050919050565b611e2c81611e11565b8114611e3757600080fd5b50565b600081359050611e4981611e23565b92915050565b60008060408385031215611e6657611e65611cf2565b5b6000611e7485828601611d1d565b9250506020611e8585828601611e3a565b9150509250929050565b60008115159050919050565b611ea481611e8f565b82525050565b6000602082019050611ebf6000830184611e9b565b92915050565b6000819050919050565b6000611eea611ee5611ee084611df1565b611ec5565b611df1565b9050919050565b6000611efc82611ecf565b9050919050565b6000611f0e82611ef1565b9050919050565b611f1e81611f03565b82525050565b6000602082019050611f396000830184611f15565b92915050565b600060ff82169050919050565b611f5581611f3f565b8114611f6057600080fd5b50565b600081359050611f7281611f4c565b92915050565b60008060408385031215611f8f57611f8e611cf2565b5b6000611f9d85828601611d1d565b9250506020611fae85828601611f63565b9150509250929050565b6000611fc382611ef1565b9050919050565b611fd381611fb8565b82525050565b6000602082019050611fee6000830184611fca565b92915050565b611ffd81611cfc565b82525050565b60006020820190506120186000830184611ff4565b92915050565b6003811061202b57600080fd5b50565b60008135905061203d8161201e565b92915050565b600080fd5b6000601f19601f8301169050919050565b7f4e487b7100000000000000000000000000000000000000000000000000000000600052604160045260246000fd5b61209182612048565b810181811067ffffffffffffffff821117156120b0576120af612059565b5b80604052505050565b60006120c3611ce8565b90506120cf8282612088565b919050565b600067ffffffffffffffff8211156120ef576120ee612059565b5b602082029050602081019050919050565b600080fd5b6000612118612113846120d4565b6120b9565b9050808382526020820190506020840283018581111561213b5761213a612100565b5b835b8181101561216457806121508882611e3a565b84526020840193505060208101905061213d565b5050509392505050565b600082601f83011261218357612182612043565b5b8135612193848260208601612105565b91505092915050565b600067ffffffffffffffff8211156121b7576121b6612059565b5b602082029050602081019050919050565b60006121db6121d68461219c565b6120b9565b905080838252602082019050602084028301858111156121fe576121fd612100565b5b835b8181101561222757806122138882611d1d565b845260208401935050602081019050612200565b5050509392505050565b600082601f83011261224657612245612043565b5b81356122568482602086016121c8565b91505092915050565b600067ffffffffffffffff82111561227a57612279612059565b5b602082029050602081019050919050565b600080fd5b600067ffffffffffffffff8211156122ab576122aa612059565b5b6122b482612048565b9050602081019050919050565b82818337600083830152505050565b60006122e36122de84612290565b6120b9565b9050828152602081018484840111156122ff576122fe61228b565b5b61230a8482856122c1565b509392505050565b600082601f83011261232757612326612043565b5b81356123378482602086016122d0565b91505092915050565b600061235361234e8461225f565b6120b9565b9050808382526020820190506020840283018581111561237657612375612100565b5b835b818110156123bd57803567ffffffffffffffff81111561239b5761239a612043565b5b8086016123a88982612312565b85526020850194505050602081019050612378565b5050509392505050565b600082601f8301126123dc576123db612043565b5b81356123ec848260208601612340565b91505092915050565b600067ffffffffffffffff8211156124105761240f612059565b5b61241982612048565b9050602081019050919050565b6000612439612434846123f5565b6120b9565b9050828152602081018484840111156124555761245461228b565b5b6124608482856122c1565b509392505050565b600082601f83011261247d5761247c612043565b5b813561248d848260208601612426565b91505092915050565b600080600080600060a086880312156124b2576124b1611cf2565b5b60006124c08882890161202e565b955050602086013567ffffffffffffffff8111156124e1576124e0611cf7565b5b6124ed8882890161216e565b945050604086013567ffffffffffffffff81111561250e5761250d611cf7565b5b61251a88828901612231565b935050606086013567ffffffffffffffff81111561253b5761253a611cf7565b5b612547888289016123c7565b925050608086013567ffffffffffffffff81111561256857612567611cf7565b5b61257488828901612468565b9150509295509295909350565b60006020828403121561259757612596611cf2565b5b60006125a58482850161202e565b91505092915050565b60006080820190506125c36000830187611ff4565b6125d06020830186611ff4565b6125dd6040830185611ff4565b6125ea6060830184611ff4565b95945050505050565b6125fc81611e11565b82525050565b600060208201905061261760008301846125f3565b92915050565b6003811061262e5761262d611d5f565b5b50565b600081905061263f8261261d565b919050565b600061264f82612631565b9050919050565b61265f81612644565b82525050565b60006101008201905061267b600083018b6125f3565b612688602083018a612656565b6126956040830189611ff4565b6126a26060830188611ff4565b6126af6080830187611ff4565b6126bc60a0830186611ff4565b6126c960c0830185611ff4565b6126d660e0830184611ff4565b9998505050505050505050565b60006126ee82611ecf565b9050919050565b6000612700826126e3565b9050919050565b612710816126f5565b82525050565b600060208201905061272b6000830184612707565b92915050565b600081519050919050565b600082825260208201905092915050565b6000819050602082019050919050565b61276681611e11565b82525050565b6000612778838361275d565b60208301905092915050565b6000602082019050919050565b600061279c82612731565b6127a6818561273c565b93506127b18361274d565b8060005b838110156127e25781516127c9888261276c565b97506127d483612784565b9250506001810190506127b5565b5085935050505092915050565b600081519050919050565b600082825260208201905092915050565b6000819050602082019050919050565b61282481611cfc565b82525050565b6000612836838361281b565b60208301905092915050565b6000602082019050919050565b600061285a826127ef565b61286481856127fa565b935061286f8361280b565b8060005b838110156128a0578151612887888261282a565b975061289283612842565b925050600181019050612873565b5085935050505092915050565b600081519050919050565b600082825260208201905092915050565b6000819050602082019050919050565b600081519050919050565b600082825260208201905092915050565b60005b838110156129135780820151818401526020810190506128f8565b60008484015250505050565b600061292a826128d9565b61293481856128e4565b93506129448185602086016128f5565b61294d81612048565b840191505092915050565b6000612964838361291f565b905092915050565b6000602082019050919050565b6000612984826128ad565b61298e81856128b8565b9350836020820285016129a0856128c9565b8060005b858110156129dc57848403895281516129bd8582612958565b94506129c88361296c565b925060208a019950506001810190506129a4565b50829750879550505050505092915050565b60006060820190508181036000830152612a088186612791565b90508181036020830152612a1c818561284f565b90508181036040830152612a308184612979565b9050949350505050565b612a4381611f3f565b82525050565b6000602082019050612a5e6000830184612a3a565b92915050565b600082825260208201905092915050565b7f41726d616461476f7665726e6f723a20756e6b6e6f776e2070726f706f73616c600082015250565b6000612aab602083612a64565b9150612ab682612a75565b602082019050919050565b60006020820190508181036000830152612ada81612a9e565b9050919050565b7f41726d616461476f7665726e6f723a206e6f742070726f706f73657200000000600082015250565b6000612b17601c83612a64565b9150612b2282612ae1565b602082019050919050565b60006020820190508181036000830152612b4681612b0a565b9050919050565b7f41726d616461476f7665726e6f723a206e6f742070656e64696e670000000000600082015250565b6000612b83601b83612a64565b9150612b8e82612b4d565b602082019050919050565b60006020820190508181036000830152612bb281612b76565b9050919050565b7f41726d616461476f7665726e6f723a20766f74696e67206e6f7420737461727460008201527f6564000000000000000000000000000000000000000000000000000000000000602082015250565b6000612c15602283612a64565b9150612c2082612bb9565b604082019050919050565b60006020820190508181036000830152612c4481612c08565b9050919050565b7f41726d616461476f7665726e6f723a20766f74696e6720656e64656400000000600082015250565b6000612c81601c83612a64565b9150612c8c82612c4b565b602082019050919050565b60006020820190508181036000830152612cb081612c74565b9050919050565b7f41726d616461476f7665726e6f723a20616c726561647920766f746564000000600082015250565b6000612ced601d83612a64565b9150612cf882612cb7565b602082019050919050565b60006020820190508181036000830152612d1c81612ce0565b9050919050565b7f41726d616461476f7665726e6f723a20696e76616c696420766f74652074797060008201527f6500000000000000000000000000000000000000000000000000000000000000602082015250565b6000612d7f602183612a64565b9150612d8a82612d23565b604082019050919050565b60006020820190508181036000830152612dae81612d72565b9050919050565b6000604082019050612dca60008301856125f3565b612dd76020830184611ff4565b9392505050565b600081519050612ded81611d06565b92915050565b600060208284031215612e0957612e08611cf2565b5b6000612e1784828501612dde565b91505092915050565b7f41726d616461476f7665726e6f723a206e6f20766f74696e6720706f77657200600082015250565b6000612e56601f83612a64565b9150612e6182612e20565b602082019050919050565b60006020820190508181036000830152612e8581612e49565b9050919050565b7f4e487b7100000000000000000000000000000000000000000000000000000000600052601160045260246000fd5b6000612ec682611cfc565b9150612ed183611cfc565b9250828201905080821115612ee957612ee8612e8c565b5b92915050565b6000604082019050612f046000830185612a3a565b612f116020830184611ff4565b9392505050565b6000612f2382611cfc565b9150612f2e83611cfc565b9250828202612f3c81611cfc565b91508282048414831517612f5357612f52612e8c565b5b5092915050565b7f4e487b7100000000000000000000000000000000000000000000000000000000600052601260045260246000fd5b6000612f9482611cfc565b9150612f9f83611cfc565b925082612faf57612fae612f5a565b5b828204905092915050565b7f41726d616461476f7665726e6f723a20656d7074792070726f706f73616c0000600082015250565b6000612ff0601e83612a64565b9150612ffb82612fba565b602082019050919050565b6000602082019050818103600083015261301f81612fe3565b9050919050565b7f41726d616461476f7665726e6f723a206c656e677468206d69736d6174636800600082015250565b600061305c601f83612a64565b915061306782613026565b602082019050919050565b6000602082019050818103600083015261308b8161304f565b9050919050565b600061309d82611cfc565b91507fffffffffffffffffffffffffffffffffffffffffffffffffffffffffffffffff82036130cf576130ce612e8c565b5b600182019050919050565b600081519050919050565b60006130f0826130da565b6130fa8185612a64565b935061310a8185602086016128f5565b61311381612048565b840191505092915050565b60006080820190506131336000830187612656565b6131406020830186611ff4565b61314d6040830185611ff4565b818103606083015261315f81846130e5565b905095945050505050565b7f41726d616461476f7665726e6f723a206e6f7420737563636565646564000000600082015250565b60006131a0601d83612a64565b91506131ab8261316a565b602082019050919050565b600060208201905081810360008301526131cf81613193565b9050919050565b600081549050919050565b60008190508160005260206000209050919050565b60008160001c9050919050565b600073ffffffffffffffffffffffffffffffffffffffff82169050919050565b6000613236613231836131f6565b613203565b9050919050565b60006132498254613223565b9050919050565b6000600182019050919050565b6000613268826131d6565b613272818561273c565b935061327d836131e1565b8060005b838110156132b5576132928261323d565b61329c888261276c565b97506132a783613250565b925050600181019050613281565b5085935050505092915050565b600081549050919050565b60008190508160005260206000209050919050565b6000819050919050565b60006132ff6132fa836131f6565b6132e2565b9050919050565b600061331282546132ec565b9050919050565b6000600182019050919050565b6000613331826132c2565b61333b81856127fa565b9350613346836132cd565b8060005b8381101561337e5761335b82613306565b613365888261282a565b975061337083613319565b92505060018101905061334a565b5085935050505092915050565b600081549050919050565b60008190508160005260206000209050919050565b7f4e487b7100000000000000000000000000000000000000000000000000000000600052602260045260246000fd5b600060028204905060018216806133f257607f821691505b602082108103613405576134046133ab565b5b50919050565b60008190508160005260206000209050919050565b6000815461342d816133da565b61343781866128e4565b9450600182166000811461345257600181146134685761349b565b60ff19831686528115156020028601935061349b565b6134718561340b565b60005b8381101561349357815481890152600182019150602081019050613474565b808801955050505b50505092915050565b60006134b08383613420565b905092915050565b6000600182019050919050565b60006134d08261338b565b6134da81856128b8565b9350836020820285016134ec85613396565b8060005b858110156135275784840389528161350885826134a4565b9450613513836134b8565b925060208a019950506001810190506134f0565b50829750879550505050505092915050565b6000819050919050565b6000819050919050565b60008160001b9050919050565b600061357561357061356b84613539565b61354d565b613543565b9050919050565b6135858161355a565b82525050565b61359481613543565b82525050565b600060a08201905081810360008301526135b4818861325d565b905081810360208301526135c88187613326565b905081810360408301526135dc81866134c5565b90506135eb606083018561357c565b6135f8608083018461358b565b9695505050505050565b61360b81613543565b811461361657600080fd5b50565b60008151905061362881613602565b92915050565b60006020828403121561364457613643611cf2565b5b600061365284828501613619565b91505092915050565b600060c0820190508181036000830152613675818961325d565b905081810360208301526136898188613326565b9050818103604083015261369d81876134c5565b90506136ac606083018661357c565b6136b9608083018561358b565b6136c660a0830184611ff4565b979650505050505050565b60006020820190506136e6600083018461358b565b92915050565b60006136f782611cfc565b915061370283611cfc565b925082820390508181111561371a57613719612e8c565b5b92915050565b7f41726d616461476f7665726e6f723a206e6f7420717565756564000000000000600082015250565b6000613756601a83612a64565b915061376182613720565b602082019050919050565b6000602082019050818103600083015261378581613749565b9050919050565b7f41726d616461476f7665726e6f723a2062656c6f772070726f706f73616c207460008201527f68726573686f6c64000000000000000000000000000000000000000000000000602082015250565b60006137e8602883612a64565b91506137f38261378c565b604082019050919050565b60006020820190508181036000830152613817816137db565b9050919050565b60008190508160005260206000209050919050565b60006020601f8301049050919050565b600082821b905092915050565b6000600883026138807fffffffffffffffffffffffffffffffffffffffffffffffffffffffffffffffff82613843565b61388a8683613843565b95508019841693508086168417925050509392505050565b60006138bd6138b86138b384611cfc565b611ec5565b611cfc565b9050919050565b6000819050919050565b6138d7836138a2565b6138eb6138e3826138c4565b848454613850565b825550505050565b600090565b6139006138f3565b61390b8184846138ce565b505050565b5b8181101561392f576139246000826138f8565b600181019050613911565b5050565b601f821115613974576139458161381e565b61394e84613833565b8101602085101561395d578190505b61397161396985613833565b830182613910565b50505b505050565b600082821c905092915050565b600061399760001984600802613979565b1980831691505092915050565b60006139b08383613986565b9150826002028217905092915050565b6139c9826130da565b67ffffffffffffffff8111156139e2576139e1612059565b5b6139ec82546133da565b6139f7828285613933565b600060209050601f831160018114613a2a5760008415613a18578287015190505b613a2285826139a4565b865550613a8a565b601f198416613a388661381e565b60005b82811015613a6057848901518255600182019150602085019450602081019050613a3b565b86831015613a7d5784890151613a79601f891682613986565b8355505b6001600288020188555050505b505050505050565b7f5265656e7472616e637947756172643a207265656e7472616e742063616c6c00600082015250565b6000613ac8601f83612a64565b9150613ad382613a92565b602082019050919050565b60006020820190508181036000830152613af781613abb565b9050919050565b601f821115613b3f57613b108161340b565b613b1984613833565b81016020851015613b28578190505b613b3c613b3485613833565b830182613910565b50505b505050565b613b4d826128d9565b67ffffffffffffffff811115613b6657613b65612059565b5b613b7082546133da565b613b7b828285613afe565b600060209050601f831160018114613bae5760008415613b9c578287015190505b613ba685826139a4565b865550613c0e565b601f198416613bbc8661340b565b60005b82811015613be457848901518255600182019150602085019450602081019050613bbf565b86831015613c015784890151613bfd601f891682613986565b8355505b6001600288020188555050505b50505050505056fea26469706673582212208aa58ad0fb7030878a98258e14dfcd865538c56e26b2068708c81ce7d082ac0564736f6c63430008110033","linkReferences":{}},"methodIdentifiers":{"PROPOSAL_THRESHOLD_BPS()":"a7d54d3f","armToken()":"54c98d8e","cancel(uint256)":"40e58ee5","castVote(uint256,uint8)":"56781388","execute(uint256)":"fe0d94c1","getProposal(uint256)":"c7f758a8","getProposalActions(uint256)":"e26b2bea","hasVoted(uint256,address)":"43859632","proposalCount()":"da35c664","proposalThreshold()":"b58131b0","proposalTypeParams(uint8)":"b923ec1b","propose(uint8,address[],uint256[],bytes[],string)":"b59a972b","queue(uint256)":"ddf0b009","quorum(uint256)":"f8ce560a","state(uint256)":"3e4f49e6","timelock()":"d33219b4","treasuryAddress()":"c5f956af","voteChoice(uint256,address)":"fb468855","votingLocker()":"9722d576"},"id":7}