{"abi":[{"type":"receive","stateMutability":"payable"},{"type":"function","name":"DEFAULT_ADMIN_ROLE","inputs":[],"outputs":[{"name":"","type":"bytes32","internalType":"bytes32"}],"stateMutability":"view"},{"type":"function","name":"TRANSFER_ROLE","inputs":[],"outputs":[{"name":"","type":"bytes32","internalType":"bytes32"}],"stateMutability":"view"},{"type":"function","name":"getRoleAdmin","inputs":[{"name":"role","type":"bytes32","internalType":"bytes32"}],"outputs":[{"name":"","type":"bytes32","internalType":"bytes32"}],"stateMutability":"view"},{"type":"function","name":"grantRole","inputs":[{"name":"role","type":"bytes32","internalType":"bytes32"},{"name":"account","type":"address","internalType":"address"}],"outputs":[],"stateMutability":"nonpayable"},{"type":"function","name":"hasRole","inputs":[{"name":"role","type":"bytes32","internalType":"bytes32"},{"name":"account","type":"address","internalType":"address"}],"outputs":[{"name":"","type":"bool","internalType":"bool"}],"stateMutability":"view"},{"type":"function","name":"initializeTreasury","inputs":[{"name":"_admin","type":"address","internalType":"address"}],"outputs":[],"stateMutability":"nonpayable"},{"type":"function","name":"renounceRole","inputs":[{"name":"role","type":"bytes32","internalType":"bytes32"},{"name":"account","type":"address","internalType":"address"}],"outputs":[],"stateMutability":"nonpayable"},{"type":"function","name":"revokeRole","inputs":[{"name":"role","type":"bytes32","internalType":"bytes32"},{"name":"account","type":"address","internalType":"address"}],"outputs":[],"stateMutability":"nonpayable"},{"type":"function","name":"supportsInterface","inputs":[{"name":"interfaceId","type":"bytes4","internalType":"bytes4"}],"outputs":[{"name":"","type":"bool","internalType":"bool"}],"stateMutability":"view"},{"type":"function","name":"transferERC20","inputs":[{"name":"_token","type":"address","internalType":"contract IERC20"},{"name":"_to","type":"address","internalType":"address"},{"name":"_amount","type":"uint256","internalType":"uint256"}],"outputs":[],"stateMutability":"nonpayable"},{"type":"function","name":"transferETH","inputs":[{"name":"_to","type":"address","internalType":"address payable"},{"name":"_amount","type":"uint256","internalType":"uint256"}],"outputs":[],"stateMutability":"nonpayable"},{"type":"event","name":"Initialized","inputs":[{"name":"version","type":"uint8","indexed":false,"internalType":"uint8"}],"anonymous":false},{"type":"event","name":"RoleAdminChanged","inputs":[{"name":"role","type":"bytes32","indexed":true,"internalType":"bytes32"},{"name":"previousAdminRole","type":"bytes32","indexed":true,"internalType":"bytes32"},{"name":"newAdminRole","type":"bytes32","indexed":true,"internalType":"bytes32"}],"anonymous":false},{"type":"event","name":"RoleGranted","inputs":[{"name":"role","type":"bytes32","indexed":true,"internalType":"bytes32"},{"name":"account","type":"address","indexed":true,"internalType":"address"},{"name":"sender","type":"address","indexed":true,"internalType":"address"}],"anonymous":false},{"type":"event","name":"RoleRevoked","inputs":[{"name":"role","type":"bytes32","indexed":true,"internalType":"bytes32"},{"name":"account","type":"address","indexed":true,"internalType":"address"},{"name":"sender","type":"address","indexed":true,"internalType":"address"}],"anonymous":false}],"bytecode":{"object":"0x608060405234801561001057600080fd5b50611dca806100206000396000f3fe6080604052600436106100a05760003560e01c80633ed086f4116100645780633ed086f4146101a35780637b1a4909146101cc57806391d14854146101f55780639db5dbe414610232578063a217fddf1461025b578063d547741f14610286576100a7565b806301ffc9a7146100ac578063206b60f9146100e9578063248a9ca3146101145780632f2ff15d1461015157806336568abe1461017a576100a7565b366100a757005b600080fd5b3480156100b857600080fd5b506100d360048036038101906100ce9190611152565b6102af565b6040516100e0919061119a565b60405180910390f35b3480156100f557600080fd5b506100fe610329565b60405161010b91906111ce565b60405180910390f35b34801561012057600080fd5b5061013b60048036038101906101369190611215565b61034d565b60405161014891906111ce565b60405180910390f35b34801561015d57600080fd5b50610178600480360381019061017391906112a0565b61036d565b005b34801561018657600080fd5b506101a1600480360381019061019c91906112a0565b61038e565b005b3480156101af57600080fd5b506101ca60048036038101906101c591906112e0565b610411565b005b3480156101d857600080fd5b506101f360048036038101906101ee9190611381565b610587565b005b34801561020157600080fd5b5061021c600480360381019061021791906112a0565b6106d2565b604051610229919061119a565b60405180910390f35b34801561023e57600080fd5b50610259600480360381019061025491906113ff565b61073d565b005b34801561026757600080fd5b50610270610807565b60405161027d91906111ce565b60405180910390f35b34801561029257600080fd5b506102ad60048036038101906102a891906112a0565b61080e565b005b60007f7965db0b000000000000000000000000000000000000000000000000000000007bffffffffffffffffffffffffffffffffffffffffffffffffffffffff1916827bffffffffffffffffffffffffffffffffffffffffffffffffffffffff1916148061032257506103218261082f565b5b9050919050565b7f8502233096d909befbda0999bb8ea2f3a6be3c138b9fbf003752a4c8bce86f6c81565b600060656000838152602001908152602001600020600101549050919050565b6103768261034d565b61037f81610899565b61038983836108ad565b505050565b61039661098e565b73ffffffffffffffffffffffffffffffffffffffff168173ffffffffffffffffffffffffffffffffffffffff1614610403576040517f08c379a00000000000000000000000000000000000000000000000000000000081526004016103fa906114d5565b60405180910390fd5b61040d8282610996565b5050565b60008060019054906101000a900460ff161590508080156104425750600160008054906101000a900460ff1660ff16105b8061046f575061045130610a78565b15801561046e5750600160008054906101000a900460ff1660ff16145b5b6104ae576040517f08c379a00000000000000000000000000000000000000000000000000000000081526004016104a590611567565b60405180910390fd5b60016000806101000a81548160ff021916908360ff16021790555080156104eb576001600060016101000a81548160ff0219169083151502179055505b6104f3610a9b565b6105006000801b836108ad565b61052a7f8502233096d909befbda0999bb8ea2f3a6be3c138b9fbf003752a4c8bce86f6c836108ad565b80156105835760008060016101000a81548160ff0219169083151502179055507f7f26b83ff96e1f2b6a682f133852f6798a09c465da95921460cefb3847402498600160405161057a91906115d9565b60405180910390a15b5050565b7f8502233096d909befbda0999bb8ea2f3a6be3c138b9fbf003752a4c8bce86f6c6105b181610899565b600073ffffffffffffffffffffffffffffffffffffffff168373ffffffffffffffffffffffffffffffffffffffff1603610620576040517f08c379a000000000000000000000000000000000000000000000000000000000815260040161061790611666565b60405180910390fd5b60008373ffffffffffffffffffffffffffffffffffffffff1683604051610646906116b7565b60006040518083038185875af1925050503d8060008114610683576040519150601f19603f3d011682016040523d82523d6000602084013e610688565b606091505b50509050806106cc576040517f08c379a00000000000000000000000000000000000000000000000000000000081526004016106c390611718565b60405180910390fd5b50505050565b60006065600084815260200190815260200160002060000160008373ffffffffffffffffffffffffffffffffffffffff1673ffffffffffffffffffffffffffffffffffffffff16815260200190815260200160002060009054906101000a900460ff16905092915050565b7f8502233096d909befbda0999bb8ea2f3a6be3c138b9fbf003752a4c8bce86f6c61076781610899565b600073ffffffffffffffffffffffffffffffffffffffff168373ffffffffffffffffffffffffffffffffffffffff16036107d6576040517f08c379a00000000000000000000000000000000000000000000000000000000081526004016107cd90611666565b60405180910390fd5b61080183838673ffffffffffffffffffffffffffffffffffffffff16610aec9092919063ffffffff16565b50505050565b6000801b81565b6108178261034d565b61082081610899565b61082a8383610996565b505050565b60007f01ffc9a7000000000000000000000000000000000000000000000000000000007bffffffffffffffffffffffffffffffffffffffffffffffffffffffff1916827bffffffffffffffffffffffffffffffffffffffffffffffffffffffff1916149050919050565b6108aa816108a561098e565b610b72565b50565b6108b782826106d2565b61098a5760016065600084815260200190815260200160002060000160008373ffffffffffffffffffffffffffffffffffffffff1673ffffffffffffffffffffffffffffffffffffffff16815260200190815260200160002060006101000a81548160ff02191690831515021790555061092f61098e565b73ffffffffffffffffffffffffffffffffffffffff168173ffffffffffffffffffffffffffffffffffffffff16837f2f8788117e7eff1d82e926ec794901d17c78024a50270940304540a733656f0d60405160405180910390a45b5050565b600033905090565b6109a082826106d2565b15610a745760006065600084815260200190815260200160002060000160008373ffffffffffffffffffffffffffffffffffffffff1673ffffffffffffffffffffffffffffffffffffffff16815260200190815260200160002060006101000a81548160ff021916908315150217905550610a1961098e565b73ffffffffffffffffffffffffffffffffffffffff168173ffffffffffffffffffffffffffffffffffffffff16837ff6391f5c32d9c69d2a47ea670b442974b53935d1edc7fd64eb21e047a839171b60405160405180910390a45b5050565b6000808273ffffffffffffffffffffffffffffffffffffffff163b119050919050565b600060019054906101000a900460ff16610aea576040517f08c379a0000000000000000000000000000000000000000000000000000000008152600401610ae1906117aa565b60405180910390fd5b565b610b6d8363a9059cbb60e01b8484604051602401610b0b9291906117e8565b604051602081830303815290604052907bffffffffffffffffffffffffffffffffffffffffffffffffffffffff19166020820180517bffffffffffffffffffffffffffffffffffffffffffffffffffffffff8381831617835250505050610bf7565b505050565b610b7c82826106d2565b610bf357610b8981610cbf565b610b978360001c6020610cec565b604051602001610ba892919061191a565b6040516020818303038152906040526040517f08c379a0000000000000000000000000000000000000000000000000000000008152600401610bea919061199e565b60405180910390fd5b5050565b6000610c59826040518060400160405280602081526020017f5361666545524332303a206c6f772d6c6576656c2063616c6c206661696c65648152508573ffffffffffffffffffffffffffffffffffffffff16610f289092919063ffffffff16565b9050600081511480610c7b575080806020019051810190610c7a91906119ec565b5b610cba576040517f08c379a0000000000000000000000000000000000000000000000000000000008152600401610cb190611a8b565b60405180910390fd5b505050565b6060610ce58273ffffffffffffffffffffffffffffffffffffffff16601460ff16610cec565b9050919050565b606060006002836002610cff9190611ada565b610d099190611b1c565b67ffffffffffffffff811115610d2257610d21611b50565b5b6040519080825280601f01601f191660200182016040528015610d545781602001600182028036833780820191505090505b5090507f300000000000000000000000000000000000000000000000000000000000000081600081518110610d8c57610d8b611b7f565b5b60200101907effffffffffffffffffffffffffffffffffffffffffffffffffffffffffffff1916908160001a9053507f780000000000000000000000000000000000000000000000000000000000000081600181518110610df057610def611b7f565b5b60200101907effffffffffffffffffffffffffffffffffffffffffffffffffffffffffffff1916908160001a90535060006001846002610e309190611ada565b610e3a9190611b1c565b90505b6001811115610eda577f3031323334353637383961626364656600000000000000000000000000000000600f861660108110610e7c57610e7b611b7f565b5b1a60f81b828281518110610e9357610e92611b7f565b5b60200101907effffffffffffffffffffffffffffffffffffffffffffffffffffffffffffff1916908160001a905350600485901c945080610ed390611bae565b9050610e3d565b5060008414610f1e576040517f08c379a0000000000000000000000000000000000000000000000000000000008152600401610f1590611c23565b60405180910390fd5b8091505092915050565b6060610f378484600085610f40565b90509392505050565b606082471015610f85576040517f08c379a0000000000000000000000000000000000000000000000000000000008152600401610f7c90611cb5565b60405180910390fd5b6000808673ffffffffffffffffffffffffffffffffffffffff168587604051610fae9190611d11565b60006040518083038185875af1925050503d8060008114610feb576040519150601f19603f3d011682016040523d82523d6000602084013e610ff0565b606091505b50915091506110018783838761100d565b92505050949350505050565b6060831561106f5760008351036110675761102785611082565b611066576040517f08c379a000000000000000000000000000000000000000000000000000000000815260040161105d90611d74565b60405180910390fd5b5b82905061107a565b61107983836110a5565b5b949350505050565b6000808273ffffffffffffffffffffffffffffffffffffffff163b119050919050565b6000825111156110b85781518083602001fd5b806040517f08c379a00000000000000000000000000000000000000000000000000000000081526004016110ec919061199e565b60405180910390fd5b600080fd5b60007fffffffff0000000000000000000000000000000000000000000000000000000082169050919050565b61112f816110fa565b811461113a57600080fd5b50565b60008135905061114c81611126565b92915050565b600060208284031215611168576111676110f5565b5b60006111768482850161113d565b91505092915050565b60008115159050919050565b6111948161117f565b82525050565b60006020820190506111af600083018461118b565b92915050565b6000819050919050565b6111c8816111b5565b82525050565b60006020820190506111e360008301846111bf565b92915050565b6111f2816111b5565b81146111fd57600080fd5b50565b60008135905061120f816111e9565b92915050565b60006020828403121561122b5761122a6110f5565b5b600061123984828501611200565b91505092915050565b600073ffffffffffffffffffffffffffffffffffffffff82169050919050565b600061126d82611242565b9050919050565b61127d81611262565b811461128857600080fd5b50565b60008135905061129a81611274565b92915050565b600080604083850312156112b7576112b66110f5565b5b60006112c585828601611200565b92505060206112d68582860161128b565b9150509250929050565b6000602082840312156112f6576112f56110f5565b5b60006113048482850161128b565b91505092915050565b600061131882611242565b9050919050565b6113288161130d565b811461133357600080fd5b50565b6000813590506113458161131f565b92915050565b6000819050919050565b61135e8161134b565b811461136957600080fd5b50565b60008135905061137b81611355565b92915050565b60008060408385031215611398576113976110f5565b5b60006113a685828601611336565b92505060206113b78582860161136c565b9150509250929050565b60006113cc82611262565b9050919050565b6113dc816113c1565b81146113e757600080fd5b50565b6000813590506113f9816113d3565b92915050565b600080600060608486031215611418576114176110f5565b5b6000611426868287016113ea565b93505060206114378682870161128b565b92505060406114488682870161136c565b9150509250925092565b600082825260208201905092915050565b7f416363657373436f6e74726f6c3a2063616e206f6e6c792072656e6f756e636560008201527f20726f6c657320666f722073656c660000000000000000000000000000000000602082015250565b60006114bf602f83611452565b91506114ca82611463565b604082019050919050565b600060208201905081810360008301526114ee816114b2565b9050919050565b7f496e697469616c697a61626c653a20636f6e747261637420697320616c72656160008201527f647920696e697469616c697a6564000000000000000000000000000000000000602082015250565b6000611551602e83611452565b915061155c826114f5565b604082019050919050565b6000602082019050818103600083015261158081611544565b9050919050565b6000819050919050565b600060ff82169050919050565b6000819050919050565b60006115c36115be6115b984611587565b61159e565b611591565b9050919050565b6115d3816115a8565b82525050565b60006020820190506115ee60008301846115ca565b92915050565b7f54726561737572793a2050726576656e74696e67206163636964656e74616c2060008201527f6275726e00000000000000000000000000000000000000000000000000000000602082015250565b6000611650602483611452565b915061165b826115f4565b604082019050919050565b6000602082019050818103600083015261167f81611643565b9050919050565b600081905092915050565b50565b60006116a1600083611686565b91506116ac82611691565b600082019050919050565b60006116c282611694565b9150819050919050565b7f4661696c656420746f2073656e64204574686572000000000000000000000000600082015250565b6000611702601483611452565b915061170d826116cc565b602082019050919050565b60006020820190508181036000830152611731816116f5565b9050919050565b7f496e697469616c697a61626c653a20636f6e7472616374206973206e6f74206960008201527f6e697469616c697a696e67000000000000000000000000000000000000000000602082015250565b6000611794602b83611452565b915061179f82611738565b604082019050919050565b600060208201905081810360008301526117c381611787565b9050919050565b6117d381611262565b82525050565b6117e28161134b565b82525050565b60006040820190506117fd60008301856117ca565b61180a60208301846117d9565b9392505050565b600081905092915050565b7f416363657373436f6e74726f6c3a206163636f756e7420000000000000000000600082015250565b6000611852601783611811565b915061185d8261181c565b601782019050919050565b600081519050919050565b60005b83811015611891578082015181840152602081019050611876565b60008484015250505050565b60006118a882611868565b6118b28185611811565b93506118c2818560208601611873565b80840191505092915050565b7f206973206d697373696e6720726f6c6520000000000000000000000000000000600082015250565b6000611904601183611811565b915061190f826118ce565b601182019050919050565b600061192582611845565b9150611931828561189d565b915061193c826118f7565b9150611948828461189d565b91508190509392505050565b6000601f19601f8301169050919050565b600061197082611868565b61197a8185611452565b935061198a818560208601611873565b61199381611954565b840191505092915050565b600060208201905081810360008301526119b88184611965565b905092915050565b6119c98161117f565b81146119d457600080fd5b50565b6000815190506119e6816119c0565b92915050565b600060208284031215611a0257611a016110f5565b5b6000611a10848285016119d7565b91505092915050565b7f5361666545524332303a204552433230206f7065726174696f6e20646964206e60008201527f6f74207375636365656400000000000000000000000000000000000000000000602082015250565b6000611a75602a83611452565b9150611a8082611a19565b604082019050919050565b60006020820190508181036000830152611aa481611a68565b9050919050565b7f4e487b7100000000000000000000000000000000000000000000000000000000600052601160045260246000fd5b6000611ae58261134b565b9150611af08361134b565b9250828202611afe8161134b565b91508282048414831517611b1557611b14611aab565b5b5092915050565b6000611b278261134b565b9150611b328361134b565b9250828201905080821115611b4a57611b49611aab565b5b92915050565b7f4e487b7100000000000000000000000000000000000000000000000000000000600052604160045260246000fd5b7f4e487b7100000000000000000000000000000000000000000000000000000000600052603260045260246000fd5b6000611bb98261134b565b915060008203611bcc57611bcb611aab565b5b600182039050919050565b7f537472696e67733a20686578206c656e67746820696e73756666696369656e74600082015250565b6000611c0d602083611452565b9150611c1882611bd7565b602082019050919050565b60006020820190508181036000830152611c3c81611c00565b9050919050565b7f416464726573733a20696e73756666696369656e742062616c616e636520666f60008201527f722063616c6c0000000000000000000000000000000000000000000000000000602082015250565b6000611c9f602683611452565b9150611caa82611c43565b604082019050919050565b60006020820190508181036000830152611cce81611c92565b9050919050565b600081519050919050565b6000611ceb82611cd5565b611cf58185611686565b9350611d05818560208601611873565b80840191505092915050565b6000611d1d8284611ce0565b915081905092915050565b7f416464726573733a2063616c6c20746f206e6f6e2d636f6e7472616374000000600082015250565b6000611d5e601d83611452565b9150611d6982611d28565b602082019050919050565b60006020820190508181036000830152611d8d81611d51565b905091905056fea2646970667358221220ac2de82532766b17a52e0fdf3d3fece6a5abd195346b48a38f970c82d307072e64736f6c63430008110033","linkReferences":{}},"methodIdentifiers":{"DEFAULT_ADMIN_ROLE()":"a217fddf","TRANSFER_ROLE()":"206b60f9","getRoleAdmin(bytes32)":"248a9ca3","grantRole(bytes32,address)":"2f2ff15d","hasRole(bytes32,address)":"91d14854","initializeTreasury(address)":"3ed086f4","renounceRole(bytes32,address)":"36568abe","revokeRole(bytes32,address)":"d547741f","supportsInterface(bytes4)":"01ffc9a7","transferERC20(address,address,uint256)":"9db5dbe4","transferETH(address,uint256)":"7b1a4909"},"storageLayout":{"storage":[{"astId":59715,"contract":"contracts/railgun/treasury/Treasury.sol:Treasury","label":"_initialized","offset":0,"slot":"0","type":"t_uint8"},{"astId":59718,"contract":"contracts/railgun/treasury/Treasury.sol:Treasury","label":"_initializing","offset":1,"slot":"0","type":"t_bool"},{"astId":60257,"contract":"contracts/railgun/treasury/Treasury.sol:Treasury","label":"__gap","offset":0,"slot":"1","type":"t_array(t_uint256)50_storage"},{"astId":60531,"contract":"contracts/railgun/treasury/Treasury.sol:Treasury","label":"__gap","offset":0,"slot":"51","type":"t_array(t_uint256)50_storage"},{"astId":59194,"contract":"contracts/railgun/treasury/Treasury.sol:Treasury","label":"_roles","offset":0,"slot":"101","type":"t_mapping(t_bytes32,t_struct(RoleData)59189_storage)"},{"astId":59501,"contract":"contracts/railgun/treasury/Treasury.sol:Treasury","label":"__gap","offset":0,"slot":"102","type":"t_array(t_uint256)49_storage"}],"types":{"t_address":{"encoding":"inplace","label":"address","numberOfBytes":"20"},"t_array(t_uint256)49_storage":{"encoding":"inplace","label":"uint256[49]","numberOfBytes":"1568","base":"t_uint256"},"t_array(t_uint256)50_storage":{"encoding":"inplace","label":"uint256[50]","numberOfBytes":"1600","base":"t_uint256"},"t_bool":{"encoding":"inplace","label":"bool","numberOfBytes":"1"},"t_bytes32":{"encoding":"inplace","label":"bytes32","numberOfBytes":"32"},"t_mapping(t_address,t_bool)":{"encoding":"mapping","key":"t_address","label":"mapping(address => bool)","numberOfBytes":"32","value":"t_bool"},"t_mapping(t_bytes32,t_struct(RoleData)59189_storage)":{"encoding":"mapping","key":"t_bytes32","label":"mapping(bytes32 => struct AccessControlUpgradeable.RoleData)","numberOfBytes":"32","value":"t_struct(RoleData)59189_storage"},"t_struct(RoleData)59189_storage":{"encoding":"inplace","label":"struct AccessControlUpgradeable.RoleData","numberOfBytes":"64","members":[{"astId":59186,"contract":"contracts/railgun/treasury/Treasury.sol:Treasury","label":"members","offset":0,"slot":"0","type":"t_mapping(t_address,t_bool)"},{"astId":59188,"contract":"contracts/railgun/treasury/Treasury.sol:Treasury","label":"adminRole","offset":0,"slot":"1","type":"t_bytes32"}]},"t_uint256":{"encoding":"inplace","label":"uint256","numberOfBytes":"32"},"t_uint8":{"encoding":"inplace","label":"uint8","numberOfBytes":"1"}}},"id":40}