{"abi":[{"type":"function","name":"ZERO_VALUE","inputs":[],"outputs":[{"name":"","type":"bytes32","internalType":"bytes32"}],"stateMutability":"view"},{"type":"function","name":"atomicCrossChainUnshield","inputs":[{"name":"_transaction","type":"tuple","internalType":"struct Transaction","components":[{"name":"proof","type":"tuple","internalType":"struct SnarkProof","components":[{"name":"a","type":"tuple","internalType":"struct G1Point","components":[{"name":"x","type":"uint256","internalType":"uint256"},{"name":"y","type":"uint256","internalType":"uint256"}]},{"name":"b","type":"tuple","internalType":"struct G2Point","components":[{"name":"x","type":"uint256[2]","internalType":"uint256[2]"},{"name":"y","type":"uint256[2]","internalType":"uint256[2]"}]},{"name":"c","type":"tuple","internalType":"struct G1Point","components":[{"name":"x","type":"uint256","internalType":"uint256"},{"name":"y","type":"uint256","internalType":"uint256"}]}]},{"name":"merkleRoot","type":"bytes32","internalType":"bytes32"},{"name":"nullifiers","type":"bytes32[]","internalType":"bytes32[]"},{"name":"commitments","type":"bytes32[]","internalType":"bytes32[]"},{"name":"boundParams","type":"tuple","internalType":"struct BoundParams","components":[{"name":"treeNumber","type":"uint16","internalType":"uint16"},{"name":"minGasPrice","type":"uint72","internalType":"uint72"},{"name":"unshield","type":"uint8","internalType":"enum UnshieldType"},{"name":"chainID","type":"uint64","internalType":"uint64"},{"name":"adaptContract","type":"address","internalType":"address"},{"name":"adaptParams","type":"bytes32","internalType":"bytes32"},{"name":"commitmentCiphertext","type":"tuple[]","internalType":"struct CommitmentCiphertext[]","components":[{"name":"ciphertext","type":"bytes32[4]","internalType":"bytes32[4]"},{"name":"blindedSenderViewingKey","type":"bytes32","internalType":"bytes32"},{"name":"blindedReceiverViewingKey","type":"bytes32","internalType":"bytes32"},{"name":"annotationData","type":"bytes","internalType":"bytes"},{"name":"memo","type":"bytes","internalType":"bytes"}]}]},{"name":"unshieldPreimage","type":"tuple","internalType":"struct CommitmentPreimage","components":[{"name":"npk","type":"bytes32","internalType":"bytes32"},{"name":"token","type":"tuple","internalType":"struct TokenData","components":[{"name":"tokenType","type":"uint8","internalType":"enum TokenType"},{"name":"tokenAddress","type":"address","internalType":"address"},{"name":"tokenSubID","type":"uint256","internalType":"uint256"}]},{"name":"value","type":"uint120","internalType":"uint120"}]}]},{"name":"destinationDomain","type":"uint32","internalType":"uint32"},{"name":"finalRecipient","type":"address","internalType":"address"},{"name":"destinationCaller","type":"bytes32","internalType":"bytes32"},{"name":"maxFee","type":"uint256","internalType":"uint256"}],"outputs":[{"name":"nonce","type":"uint64","internalType":"uint64"}],"stateMutability":"nonpayable"},{"type":"function","name":"initialized","inputs":[],"outputs":[{"name":"","type":"bool","internalType":"bool"}],"stateMutability":"view"},{"type":"function","name":"lastEventBlock","inputs":[],"outputs":[{"name":"","type":"uint256","internalType":"uint256"}],"stateMutability":"view"},{"type":"function","name":"localDomain","inputs":[],"outputs":[{"name":"","type":"uint32","internalType":"uint32"}],"stateMutability":"view"},{"type":"function","name":"merkleModule","inputs":[],"outputs":[{"name":"","type":"address","internalType":"address"}],"stateMutability":"view"},{"type":"function","name":"merkleRoot","inputs":[],"outputs":[{"name":"","type":"bytes32","internalType":"bytes32"}],"stateMutability":"view"},{"type":"function","name":"messageTransmitter","inputs":[],"outputs":[{"name":"","type":"address","internalType":"address"}],"stateMutability":"view"},{"type":"function","name":"nextLeafIndex","inputs":[],"outputs":[{"name":"","type":"uint256","internalType":"uint256"}],"stateMutability":"view"},{"type":"function","name":"nftFee","inputs":[],"outputs":[{"name":"","type":"uint120","internalType":"uint120"}],"stateMutability":"view"},{"type":"function","name":"nullifiers","inputs":[{"name":"","type":"uint256","internalType":"uint256"},{"name":"","type":"bytes32","internalType":"bytes32"}],"outputs":[{"name":"","type":"bool","internalType":"bool"}],"stateMutability":"view"},{"type":"function","name":"owner","inputs":[],"outputs":[{"name":"","type":"address","internalType":"address"}],"stateMutability":"view"},{"type":"function","name":"privilegedShieldCallers","inputs":[{"name":"","type":"address","internalType":"address"}],"outputs":[{"name":"","type":"bool","internalType":"bool"}],"stateMutability":"view"},{"type":"function","name":"remotePools","inputs":[{"name":"","type":"uint32","internalType":"uint32"}],"outputs":[{"name":"","type":"bytes32","internalType":"bytes32"}],"stateMutability":"view"},{"type":"function","name":"rootHistory","inputs":[{"name":"","type":"uint256","internalType":"uint256"},{"name":"","type":"bytes32","internalType":"bytes32"}],"outputs":[{"name":"","type":"bool","internalType":"bool"}],"stateMutability":"view"},{"type":"function","name":"shieldFee","inputs":[],"outputs":[{"name":"","type":"uint120","internalType":"uint120"}],"stateMutability":"view"},{"type":"function","name":"shieldModule","inputs":[],"outputs":[{"name":"","type":"address","internalType":"address"}],"stateMutability":"view"},{"type":"function","name":"snarkSafetyVector","inputs":[{"name":"","type":"uint256","internalType":"uint256"}],"outputs":[{"name":"","type":"bool","internalType":"bool"}],"stateMutability":"view"},{"type":"function","name":"testingMode","inputs":[],"outputs":[{"name":"","type":"bool","internalType":"bool"}],"stateMutability":"view"},{"type":"function","name":"tokenBlocklist","inputs":[{"name":"","type":"address","internalType":"address"}],"outputs":[{"name":"","type":"bool","internalType":"bool"}],"stateMutability":"view"},{"type":"function","name":"tokenIDMapping","inputs":[{"name":"","type":"bytes32","internalType":"bytes32"}],"outputs":[{"name":"tokenType","type":"uint8","internalType":"enum TokenType"},{"name":"tokenAddress","type":"address","internalType":"address"},{"name":"tokenSubID","type":"uint256","internalType":"uint256"}],"stateMutability":"view"},{"type":"function","name":"tokenMessenger","inputs":[],"outputs":[{"name":"","type":"address","internalType":"address"}],"stateMutability":"view"},{"type":"function","name":"transact","inputs":[{"name":"_transactions","type":"tuple[]","internalType":"struct Transaction[]","components":[{"name":"proof","type":"tuple","internalType":"struct SnarkProof","components":[{"name":"a","type":"tuple","internalType":"struct G1Point","components":[{"name":"x","type":"uint256","internalType":"uint256"},{"name":"y","type":"uint256","internalType":"uint256"}]},{"name":"b","type":"tuple","internalType":"struct G2Point","components":[{"name":"x","type":"uint256[2]","internalType":"uint256[2]"},{"name":"y","type":"uint256[2]","internalType":"uint256[2]"}]},{"name":"c","type":"tuple","internalType":"struct G1Point","components":[{"name":"x","type":"uint256","internalType":"uint256"},{"name":"y","type":"uint256","internalType":"uint256"}]}]},{"name":"merkleRoot","type":"bytes32","internalType":"bytes32"},{"name":"nullifiers","type":"bytes32[]","internalType":"bytes32[]"},{"name":"commitments","type":"bytes32[]","internalType":"bytes32[]"},{"name":"boundParams","type":"tuple","internalType":"struct BoundParams","components":[{"name":"treeNumber","type":"uint16","internalType":"uint16"},{"name":"minGasPrice","type":"uint72","internalType":"uint72"},{"name":"unshield","type":"uint8","internalType":"enum UnshieldType"},{"name":"chainID","type":"uint64","internalType":"uint64"},{"name":"adaptContract","type":"address","internalType":"address"},{"name":"adaptParams","type":"bytes32","internalType":"bytes32"},{"name":"commitmentCiphertext","type":"tuple[]","internalType":"struct CommitmentCiphertext[]","components":[{"name":"ciphertext","type":"bytes32[4]","internalType":"bytes32[4]"},{"name":"blindedSenderViewingKey","type":"bytes32","internalType":"bytes32"},{"name":"blindedReceiverViewingKey","type":"bytes32","internalType":"bytes32"},{"name":"annotationData","type":"bytes","internalType":"bytes"},{"name":"memo","type":"bytes","internalType":"bytes"}]}]},{"name":"unshieldPreimage","type":"tuple","internalType":"struct CommitmentPreimage","components":[{"name":"npk","type":"bytes32","internalType":"bytes32"},{"name":"token","type":"tuple","internalType":"struct TokenData","components":[{"name":"tokenType","type":"uint8","internalType":"enum TokenType"},{"name":"tokenAddress","type":"address","internalType":"address"},{"name":"tokenSubID","type":"uint256","internalType":"uint256"}]},{"name":"value","type":"uint120","internalType":"uint120"}]}]}],"outputs":[],"stateMutability":"nonpayable"},{"type":"function","name":"transactModule","inputs":[],"outputs":[{"name":"","type":"address","internalType":"address"}],"stateMutability":"view"},{"type":"function","name":"treasury","inputs":[],"outputs":[{"name":"","type":"address","internalType":"address payable"}],"stateMutability":"view"},{"type":"function","name":"treeNumber","inputs":[],"outputs":[{"name":"","type":"uint256","internalType":"uint256"}],"stateMutability":"view"},{"type":"function","name":"unshieldFee","inputs":[],"outputs":[{"name":"","type":"uint120","internalType":"uint120"}],"stateMutability":"view"},{"type":"function","name":"usdc","inputs":[],"outputs":[{"name":"","type":"address","internalType":"address"}],"stateMutability":"view"},{"type":"function","name":"verifierModule","inputs":[],"outputs":[{"name":"","type":"address","internalType":"address"}],"stateMutability":"view"},{"type":"function","name":"zeros","inputs":[{"name":"","type":"uint256","internalType":"uint256"}],"outputs":[{"name":"","type":"bytes32","internalType":"bytes32"}],"stateMutability":"view"},{"type":"event","name":"CrossChainUnshieldInitiated","inputs":[{"name":"destinationDomain","type":"uint32","indexed":true,"internalType":"uint32"},{"name":"recipient","type":"address","indexed":true,"internalType":"address"},{"name":"amount","type":"uint256","indexed":false,"internalType":"uint256"},{"name":"nonce","type":"uint64","indexed":false,"internalType":"uint64"}],"anonymous":false},{"type":"event","name":"Nullified","inputs":[{"name":"treeNumber","type":"uint16","indexed":false,"internalType":"uint16"},{"name":"nullifier","type":"bytes32[]","indexed":false,"internalType":"bytes32[]"}],"anonymous":false},{"type":"event","name":"Transact","inputs":[{"name":"treeNumber","type":"uint256","indexed":false,"internalType":"uint256"},{"name":"startPosition","type":"uint256","indexed":false,"internalType":"uint256"},{"name":"hash","type":"bytes32[]","indexed":false,"internalType":"bytes32[]"},{"name":"ciphertext","type":"tuple[]","indexed":false,"internalType":"struct CommitmentCiphertext[]","components":[{"name":"ciphertext","type":"bytes32[4]","internalType":"bytes32[4]"},{"name":"blindedSenderViewingKey","type":"bytes32","internalType":"bytes32"},{"name":"blindedReceiverViewingKey","type":"bytes32","internalType":"bytes32"},{"name":"annotationData","type":"bytes","internalType":"bytes"},{"name":"memo","type":"bytes","internalType":"bytes"}]}],"anonymous":false},{"type":"event","name":"Unshield","inputs":[{"name":"to","type":"address","indexed":false,"internalType":"address"},{"name":"token","type":"tuple","indexed":false,"internalType":"struct TokenData","components":[{"name":"tokenType","type":"uint8","internalType":"enum TokenType"},{"name":"tokenAddress","type":"address","internalType":"address"},{"name":"tokenSubID","type":"uint256","internalType":"uint256"}]},{"name":"amount","type":"uint256","indexed":false,"internalType":"uint256"},{"name":"fee","type":"uint256","indexed":false,"internalType":"uint256"}],"anonymous":false}],"bytecode":{"object":"0x608060405234801561001057600080fd5b5061550a806100206000396000f3fe608060405234801561001057600080fd5b50600436106101da5760003560e01c8063815b534f11610104578063c718dbda116100a2578063e484d40811610071578063e484d40814610557578063e829558814610587578063ec732959146105b7578063f19ea903146105d5576101da565b8063c718dbda146104cf578063c8f35b5d146104ff578063cd3efe061461051d578063d8ae136a1461053b576101da565b80639071adc0116100de5780639071adc01461043157806390de3f6e1461044f578063b069b70f1461046d578063b8ceaef21461049d576101da565b8063815b534f146103c55780638d3638f4146103f55780638da5cb5b14610413576101da565b806330ed93c31161017c578063461178301161014b578063461178301461034d57806361d027b31461036b57806366503315146103895780637b04c181146103a7576101da565b806330ed93c3146102c357806335db307c146102f35780633e413bee1461031157806341506fc11461032f576101da565b80630be4f422116101b85780630be4f42214610239578063129458f414610257578063158ef93e146102875780632eb4a7ab146102a5576101da565b806301c37790146101df578063048e0990146101fd578063053ed12a1461021b575b600080fd5b6101e7610605565b6040516101f49190612ad7565b60405180910390f35b610205610626565b6040516102129190612b33565b60405180910390f35b61022361064c565b6040516102309190612ad7565b60405180910390f35b61024161066d565b60405161024e9190612b67565b60405180910390f35b610271600480360381019061026c9190612bc2565b610673565b60405161027e9190612c0a565b60405180910390f35b61028f610693565b60405161029c9190612c0a565b60405180910390f35b6102ad6106a6565b6040516102ba9190612c3e565b60405180910390f35b6102dd60048036038101906102d89190612c95565b6106ac565b6040516102ea9190612c3e565b60405180910390f35b6102fb6106c4565b6040516103089190612b33565b60405180910390f35b6103196106e8565b6040516103269190612b33565b60405180910390f35b61033761070e565b6040516103449190612b33565b60405180910390f35b610355610734565b6040516103629190612b33565b60405180910390f35b61037361075a565b6040516103809190612ce3565b60405180910390f35b610391610780565b60405161039e9190612b67565b60405180910390f35b6103af610786565b6040516103bc9190612b33565b60405180910390f35b6103df60048036038101906103da9190612d2a565b6107ac565b6040516103ec9190612c0a565b60405180910390f35b6103fd6107cc565b60405161040a9190612d66565b60405180910390f35b61041b6107e2565b6040516104289190612b33565b60405180910390f35b610439610808565b6040516104469190612ad7565b60405180910390f35b610457610829565b6040516104649190612b33565b60405180910390f35b61048760048036038101906104829190612d2a565b61084f565b6040516104949190612c0a565b60405180910390f35b6104b760048036038101906104b29190612dad565b61086f565b6040516104c693929190612e51565b60405180910390f35b6104e960048036038101906104e49190612e88565b6108c6565b6040516104f69190612c0a565b60405180910390f35b6105076108f5565b6040516105149190612c0a565b60405180910390f35b610525610908565b6040516105329190612b67565b60405180910390f35b61055560048036038101906105509190612f2d565b61090e565b005b610571600480360381019061056c9190612f9f565b610cfe565b60405161057e9190613059565b60405180910390f35b6105a1600480360381019061059c9190612bc2565b610d2c565b6040516105ae9190612c3e565b60405180910390f35b6105bf610d47565b6040516105cc9190612c3e565b60405180910390f35b6105ef60048036038101906105ea9190612e88565b610d9c565b6040516105fc9190612c0a565b60405180910390f35b600960009054906101000a90046effffffffffffffffffffffffffffff1681565b600160009054906101000a900473ffffffffffffffffffffffffffffffffffffffff1681565b6009600f9054906101000a90046effffffffffffffffffffffffffffff1681565b600e5481565b60366020528060005260406000206000915054906101000a900460ff1681565b603860149054906101000a900460ff1681565b600f5481565b60076020528060005260406000206000915090505481565b60008054906101000a900473ffffffffffffffffffffffffffffffffffffffff1681565b600660009054906101000a900473ffffffffffffffffffffffffffffffffffffffff1681565b600360009054906101000a900473ffffffffffffffffffffffffffffffffffffffff1681565b600460009054906101000a900473ffffffffffffffffffffffffffffffffffffffff1681565b600860009054906101000a900473ffffffffffffffffffffffffffffffffffffffff1681565b60115481565b600560009054906101000a900473ffffffffffffffffffffffffffffffffffffffff1681565b600c6020528060005260406000206000915054906101000a900460ff1681565b600660149054906101000a900463ffffffff1681565b603860009054906101000a900473ffffffffffffffffffffffffffffffffffffffff1681565b600a60009054906101000a90046effffffffffffffffffffffffffffff1681565b600260009054906101000a900473ffffffffffffffffffffffffffffffffffffffff1681565b600b6020528060005260406000206000915054906101000a900460ff1681565b600d6020528060005260406000206000915090508060000160009054906101000a900460ff16908060000160019054906101000a900473ffffffffffffffffffffffffffffffffffffffff16908060010154905083565b60326020528160005260406000206020528060005260406000206000915091509054906101000a900460ff1681565b603560009054906101000a900460ff1681565b60375481565b60008282905011610954576040517f08c379a000000000000000000000000000000000000000000000000000000000815260040161094b906130d1565b60405180910390fd5b60006109608383610dcb565b905060008167ffffffffffffffff81111561097e5761097d6130f1565b5b6040519080825280602002602001820160405280156109ac5781602001602082028036833780820191505090505b50905060008267ffffffffffffffff8111156109cb576109ca6130f1565b5b604051908082528060200260200182016040528015610a0457816020015b6109f1612a50565b8152602001906001900390816109e95790505b5090506000805b86869050811015610af457600080610a46898985818110610a2f57610a2e613120565b5b9050602002810190610a41919061315e565b610e51565b915091508181604051602001610a5c9190613244565b60405160208183030381529060405290610aac576040517f08c379a0000000000000000000000000000000000000000000000000000000008152600401610aa391906132b0565b60405180910390fd5b50610add898985818110610ac357610ac2613120565b5b9050602002810190610ad5919061315e565b878688611485565b935050508080610aec90613301565b915050610a0b565b5060005b86869050811015610bba5760006002811115610b1757610b16612dda565b5b878783818110610b2a57610b29613120565b5b9050602002810190610b3c919061315e565b806101600190610b4c9190613349565b6040016020810190610b5e9190613396565b6002811115610b7057610b6f612dda565b5b14610ba757610ba6878783818110610b8b57610b8a613120565b5b9050602002810190610b9d919061315e565b61018001611758565b5b8080610bb290613301565b915050610af8565b506000841115610cef576000803073ffffffffffffffffffffffffffffffffffffffff16630c9c0c8d876040518263ffffffff1660e01b8152600401610c009190612b67565b6040805180830381865afa158015610c1c573d6000803e3d6000fd5b505050506040513d601f19601f82011682018060405250810190610c4091906133d8565b915091507f56a618cda1e34057b7f849a5792f6c8587a2dbe11c83d0254e72cb3daffda7d182828787604051610c7994939291906136ef565b60405180910390a13073ffffffffffffffffffffffffffffffffffffffff1663dc52bf9f866040518263ffffffff1660e01b8152600401610cba9190613742565b600060405180830381600087803b158015610cd457600080fd5b505af1158015610ce8573d6000803e3d6000fd5b5050505050505b43603781905550505050505050565b6000610d0b868686611a19565b610d1486611c4f565b610d218686868686611f1c565b905095945050505050565b60128160108110610d3c57600080fd5b016000915090505481565b7f30644e72e131a029b85045b68181585d2833e84879b9709143e1f593f00000017f95b5e3f3c951508f13e7771152f5b7c7329a294917685c10a571c9247e3b9fff60001c610d969190613793565b60001b81565b60336020528160005260406000206020528060005260406000206000915091509054906101000a900460ff1681565b6000806000905060005b84849050811015610e4657848482818110610df357610df2613120565b5b9050602002810190610e05919061315e565b806101600190610e159190613349565b8060c00190610e2491906137c4565b905082610e319190613827565b91508080610e3e90613301565b915050610dd5565b508091505092915050565b6000606082806101600190610e669190613349565b6020016020810190610e78919061389c565b68ffffffffffffffffff163a1015610ecb5760006040518060400160405280601181526020017f47617320707269636520746f6f206c6f7700000000000000000000000000000081525091509150611480565b600073ffffffffffffffffffffffffffffffffffffffff1683806101600190610ef49190613349565b6080016020810190610f069190612d2a565b73ffffffffffffffffffffffffffffffffffffffff1614158015610f7857503373ffffffffffffffffffffffffffffffffffffffff1683806101600190610f4d9190613349565b6080016020810190610f5f9190612d2a565b73ffffffffffffffffffffffffffffffffffffffff1614155b15610fbe5760006040518060400160405280601681526020017f496e76616c696420416461707420436f6e74726163740000000000000000000081525091509150611480565b4683806101600190610fd09190613349565b6060016020810190610fe291906138f5565b67ffffffffffffffff16146110325760006040518060400160405280601081526020017f436861696e4944206d69736d617463680000000000000000000000000000000081525091509150611480565b60326000848061016001906110479190613349565b6000016020810190611059919061395c565b61ffff1681526020019081526020016000206000846101000135815260200190815260200160002060009054906101000a900460ff166110d45760006040518060400160405280601381526020017f496e76616c6964204d65726b6c6520526f6f740000000000000000000000000081525091509150611480565b600060028111156110e8576110e7612dda565b5b838061016001906110f99190613349565b604001602081019061110b9190613396565b600281111561111d5761111c612dda565b5b1461132e576001838061014001906111359190613989565b905061114191906139ec565b838061016001906111529190613349565b8060c0019061116191906137c4565b9050146111a95760006040518060400160405280601981526020017f496e76616c69642043697068657274657874204c656e6774680000000000000081525091509150611480565b60006002808111156111be576111bd612dda565b5b848061016001906111cf9190613349565b60400160208101906111e19190613396565b60028111156111f3576111f2612dda565b5b036112795761127260405180606001604052803373ffffffffffffffffffffffffffffffffffffffff1660001b8152602001866101800160200180360381019061123d9190613aff565b8152602001866101800160800160208101906112599190613b58565b6effffffffffffffffffffffffffffff16815250612314565b9050611299565b61129684610180018036038101906112919190613be9565b612314565b90505b838061014001906112aa9190613989565b6001868061014001906112bd9190613989565b90506112c991906139ec565b8181106112d9576112d8613120565b5b9050602002013581146113285760006040518060400160405280601581526020017f496e76616c696420556e736869656c64204e6f746500000000000000000000008152509250925050611480565b506113aa565b8280610140019061133f9190613989565b9050838061016001906113529190613349565b8060c0019061136191906137c4565b9050146113a95760006040518060400160405280601981526020017f496e76616c69642043697068657274657874204c656e6774680000000000000081525091509150611480565b5b3073ffffffffffffffffffffffffffffffffffffffff1663ee990783846040518263ffffffff1660e01b81526004016113e391906144d6565b602060405180830381865afa158015611400573d6000803e3d6000fd5b505050506040513d601f19601f820116820180604052508101906114249190614524565b6114695760006040518060400160405280600d81526020017f496e76616c69642050726f6f660000000000000000000000000000000000000081525091509150611480565b600160405180602001604052806000815250915091505b915091565b600080600090505b8580610120019061149e9190613989565b90508110156115c7576000868061012001906114ba9190613989565b838181106114cb576114ca613120565b5b9050602002013590506000878061016001906114e79190613349565b60000160208101906114f9919061395c565b9050603360008261ffff168152602001908152602001600020600083815260200190815260200160002060009054906101000a900460ff1615611571576040517f08c379a0000000000000000000000000000000000000000000000000000000008152600401611568906145c3565b60405180910390fd5b6001603360008361ffff168152602001908152602001600020600084815260200190815260200160002060006101000a81548160ff021916908315150217905550505080806115bf90613301565b91505061148d565b507f781745c57906dc2f175fec80a9c691744c91c48a34a83672c41c2604774eb11f858061016001906115fa9190613349565b600001602081019061160c919061395c565b8680610120019061161d9190613989565b60405161162c9392919061464e565b60405180910390a16000858061016001906116479190613349565b8060c0019061165691906137c4565b9050905060005b8181101561174057868061014001906116769190613989565b8281811061168757611686613120565b5b9050602002013586828761169b9190613827565b815181106116ac576116ab613120565b5b602002602001018181525050868061016001906116c99190613349565b8060c001906116d891906137c4565b828181106116e9576116e8613120565b5b90506020028101906116fb9190614680565b611704906148c5565b8482876117119190613827565b8151811061172257611721613120565b5b6020026020010181905250808061173890613301565b91505061165d565b50808461174d9190613827565b915050949350505050565b6000600281111561176c5761176b612dda565b5b81602001600001602081019061178291906148d8565b600281111561179457611793612dda565b5b146117d4576040517f08c379a00000000000000000000000000000000000000000000000000000000081526004016117cb90614977565b60405180910390fd5b60008160200160200160208101906117ec9190612d2a565b90506000826000013560001c9050600080600b60008473ffffffffffffffffffffffffffffffffffffffff1673ffffffffffffffffffffffffffffffffffffffff16815260200190815260200160002060009054906101000a900460ff161561186d578460800160208101906118629190613b58565b9150600090506118c2565b6118b98560800160208101906118839190613b58565b6effffffffffffffffffffffffffffff1660016009600f9054906101000a90046effffffffffffffffffffffffffffff166123d7565b80925081935050505b6118fe83836effffffffffffffffffffffffffffff168673ffffffffffffffffffffffffffffffffffffffff166124c29092919063ffffffff16565b6000816effffffffffffffffffffffffffffff1611801561196e5750600073ffffffffffffffffffffffffffffffffffffffff16600860009054906101000a900473ffffffffffffffffffffffffffffffffffffffff1673ffffffffffffffffffffffffffffffffffffffff1614155b156119d2576119d1600860009054906101000a900473ffffffffffffffffffffffffffffffffffffffff16826effffffffffffffffffffffffffffff168673ffffffffffffffffffffffffffffffffffffffff166124c29092919063ffffffff16565b5b7fd93cf895c7d5b2cd7dc7a098b678b3089f37d91f48d9b83a0800a91cbdf0528483866020018484604051611a0a9493929190614a2c565b60405180910390a15050505050565b600660149054906101000a900463ffffffff1663ffffffff168263ffffffff1603611a79576040517f08c379a0000000000000000000000000000000000000000000000000000000008152600401611a7090614ae3565b60405180910390fd5b600073ffffffffffffffffffffffffffffffffffffffff168173ffffffffffffffffffffffffffffffffffffffff1603611ae8576040517f08c379a0000000000000000000000000000000000000000000000000000000008152600401611adf90614b75565b60405180910390fd5b60006002811115611afc57611afb612dda565b5b83806101600190611b0d9190613349565b6040016020810190611b1f9190613396565b6002811115611b3157611b30612dda565b5b03611b71576040517f08c379a0000000000000000000000000000000000000000000000000000000008152600401611b6890614c07565b60405180910390fd5b6000801b600760008463ffffffff1663ffffffff1681526020019081526020016000205403611bd5576040517f08c379a0000000000000000000000000000000000000000000000000000000008152600401611bcc90614c99565b60405180910390fd5b600080611be185610e51565b915091508181604051602001611bf79190613244565b60405160208183030381529060405290611c47576040517f08c379a0000000000000000000000000000000000000000000000000000000008152600401611c3e91906132b0565b60405180910390fd5b505050505050565b600081806101600190611c629190613349565b8060c00190611c7191906137c4565b905090506000811115611e625760008167ffffffffffffffff811115611c9a57611c996130f1565b5b604051908082528060200260200182016040528015611cc85781602001602082028036833780820191505090505b50905060008267ffffffffffffffff811115611ce757611ce66130f1565b5b604051908082528060200260200182016040528015611d2057816020015b611d0d612a50565b815260200190600190039081611d055790505b509050611d308483600084611485565b506000803073ffffffffffffffffffffffffffffffffffffffff16630c9c0c8d866040518263ffffffff1660e01b8152600401611d6d9190612b67565b6040805180830381865afa158015611d89573d6000803e3d6000fd5b505050506040513d601f19601f82011682018060405250810190611dad91906133d8565b915091507f56a618cda1e34057b7f849a5792f6c8587a2dbe11c83d0254e72cb3daffda7d182828686604051611de694939291906136ef565b60405180910390a13073ffffffffffffffffffffffffffffffffffffffff1663dc52bf9f856040518263ffffffff1660e01b8152600401611e279190613742565b600060405180830381600087803b158015611e4157600080fd5b505af1158015611e55573d6000803e3d6000fd5b5050505050505050611f18565b60008067ffffffffffffffff811115611e7e57611e7d6130f1565b5b604051908082528060200260200182016040528015611eac5781602001602082028036833780820191505090505b50905060008067ffffffffffffffff811115611ecb57611eca6130f1565b5b604051908082528060200260200182016040528015611f0457816020015b611ef1612a50565b815260200190600190039081611ee95790505b509050611f148483600084611485565b5050505b5050565b60008086610180016080016020810190611f369190613b58565b9050600080611f75836effffffffffffffffffffffffffffff1660016009600f9054906101000a90046effffffffffffffffffffffffffffff166123d7565b91509150816effffffffffffffffffffffffffffff16851115611fcd576040517f08c379a0000000000000000000000000000000000000000000000000000000008152600401611fc490614d2b565b60405180910390fd5b6000816effffffffffffffffffffffffffffff1611801561203d5750600073ffffffffffffffffffffffffffffffffffffffff16600860009054906101000a900473ffffffffffffffffffffffffffffffffffffffff1673ffffffffffffffffffffffffffffffffffffffff1614155b156120c3576120c2600860009054906101000a900473ffffffffffffffffffffffffffffffffffffffff16826effffffffffffffffffffffffffffff16600660009054906101000a900473ffffffffffffffffffffffffffffffffffffffff1673ffffffffffffffffffffffffffffffffffffffff166124c29092919063ffffffff16565b5b60006120f260405180602001604052808a73ffffffffffffffffffffffffffffffffffffffff16815250612548565b9050612174600460009054906101000a900473ffffffffffffffffffffffffffffffffffffffff16846effffffffffffffffffffffffffffff16600660009054906101000a900473ffffffffffffffffffffffffffffffffffffffff1673ffffffffffffffffffffffffffffffffffffffff166125b69092919063ffffffff16565b600460009054906101000a900473ffffffffffffffffffffffffffffffffffffffff1673ffffffffffffffffffffffffffffffffffffffff1663779b432d848b600760008e63ffffffff1663ffffffff16815260200190815260200160002054600660009054906101000a900473ffffffffffffffffffffffffffffffffffffffff168c8c6107d0896040518963ffffffff1660e01b8152600401612220989796959493929190614d95565b6020604051808303816000875af115801561223f573d6000803e3d6000fd5b505050506040513d601f19601f820116820180604052508101906122639190614e2f565b94508773ffffffffffffffffffffffffffffffffffffffff168963ffffffff167f9a8234aef148991bd0f1e08df206eb275078881051bd92a2d81a1afd0ff37f4a85886040516122b4929190614e5c565b60405180910390a37fd93cf895c7d5b2cd7dc7a098b678b3089f37d91f48d9b83a0800a91cbdf05284888b6101800160200185856040516122f89493929190614a2c565b60405180910390a1436037819055505050505095945050505050565b600073__$610c11827248d0bfa646e7ca34d40f2d3f$__635a53025d6040518060600160405280856000015181526020016123528660200151612705565b815260200185604001516effffffffffffffffffffffffffffff1660001b8152506040518263ffffffff1660e01b815260040161238f9190614f30565b602060405180830381865af41580156123ac573d6000803e3d6000fd5b505050506040513d601f19601f820116820180604052508101906123d09190614f60565b9050919050565b6000806000836effffffffffffffffffffffffffffff16036123ff57846000915091506124ba565b8315612460576127106effffffffffffffffffffffffffffff16836effffffffffffffffffffffffffffff16866124369190614faa565b6124409190614fec565b8561244b919061501d565b915081856124599190615062565b90506124b9565b84915084836127106124729190615062565b6effffffffffffffffffffffffffffff16866127106effffffffffffffffffffffffffffff166124a29190614faa565b6124ac9190614fec565b6124b6919061501d565b90505b5b935093915050565b6125438363a9059cbb60e01b84846040516024016124e19291906150a5565b604051602081830303815290604052907bffffffffffffffffffffffffffffffffffffffffffffffffffffffff19166020820180517bffffffffffffffffffffffffffffffffffffffffffffffffffffffff83818316178352505050506127bb565b505050565b6060604051806040016040528060018081111561256857612567612dda565b5b81526020018360405160200161257e91906150ea565b6040516020818303038152906040528152506040516020016125a0919061518a565b6040516020818303038152906040529050919050565b6000811480612640575060008373ffffffffffffffffffffffffffffffffffffffff1663dd62ed3e30856040518363ffffffff1660e01b81526004016125fd9291906151ac565b602060405180830381865afa15801561261a573d6000803e3d6000fd5b505050506040513d601f19601f8201168201806040525081019061263e91906151d5565b145b61267f576040517f08c379a000000000000000000000000000000000000000000000000000000000815260040161267690615274565b60405180910390fd5b6127008363095ea7b360e01b848460405160240161269e9291906150a5565b604051602081830303815290604052907bffffffffffffffffffffffffffffffffffffffffffffffffffffffff19166020820180517bffffffffffffffffffffffffffffffffffffffffffffffffffffffff83818316178352505050506127bb565b505050565b600080600281111561271a57612719612dda565b5b8260000151600281111561273157612730612dda565b5b0361275b57816020015173ffffffffffffffffffffffffffffffffffffffff1660001b90506127b6565b7f30644e72e131a029b85045b68181585d2833e84879b9709143e1f593f00000018260405160200161278d91906152d6565b6040516020818303038152906040528051906020012060001c6127b09190613793565b60001b90505b919050565b600061281d826040518060400160405280602081526020017f5361666545524332303a206c6f772d6c6576656c2063616c6c206661696c65648152508573ffffffffffffffffffffffffffffffffffffffff166128839092919063ffffffff16565b905060008151148061283f57508080602001905181019061283e9190614524565b5b61287e576040517f08c379a000000000000000000000000000000000000000000000000000000000815260040161287590615363565b60405180910390fd5b505050565b6060612892848460008561289b565b90509392505050565b6060824710156128e0576040517f08c379a00000000000000000000000000000000000000000000000000000000081526004016128d7906153f5565b60405180910390fd5b6000808673ffffffffffffffffffffffffffffffffffffffff1685876040516129099190615451565b60006040518083038185875af1925050503d8060008114612946576040519150601f19603f3d011682016040523d82523d6000602084013e61294b565b606091505b509150915061295c87838387612968565b92505050949350505050565b606083156129ca5760008351036129c257612982856129dd565b6129c1576040517f08c379a00000000000000000000000000000000000000000000000000000000081526004016129b8906154b4565b60405180910390fd5b5b8290506129d5565b6129d48383612a00565b5b949350505050565b6000808273ffffffffffffffffffffffffffffffffffffffff163b119050919050565b600082511115612a135781518083602001fd5b806040517f08c379a0000000000000000000000000000000000000000000000000000000008152600401612a4791906132b0565b60405180910390fd5b6040518060a00160405280612a63612a8b565b8152602001600080191681526020016000801916815260200160608152602001606081525090565b6040518060800160405280600490602082028036833780820191505090505090565b60006effffffffffffffffffffffffffffff82169050919050565b612ad181612aad565b82525050565b6000602082019050612aec6000830184612ac8565b92915050565b600073ffffffffffffffffffffffffffffffffffffffff82169050919050565b6000612b1d82612af2565b9050919050565b612b2d81612b12565b82525050565b6000602082019050612b486000830184612b24565b92915050565b6000819050919050565b612b6181612b4e565b82525050565b6000602082019050612b7c6000830184612b58565b92915050565b6000604051905090565b600080fd5b600080fd5b612b9f81612b4e565b8114612baa57600080fd5b50565b600081359050612bbc81612b96565b92915050565b600060208284031215612bd857612bd7612b8c565b5b6000612be684828501612bad565b91505092915050565b60008115159050919050565b612c0481612bef565b82525050565b6000602082019050612c1f6000830184612bfb565b92915050565b6000819050919050565b612c3881612c25565b82525050565b6000602082019050612c536000830184612c2f565b92915050565b600063ffffffff82169050919050565b612c7281612c59565b8114612c7d57600080fd5b50565b600081359050612c8f81612c69565b92915050565b600060208284031215612cab57612caa612b8c565b5b6000612cb984828501612c80565b91505092915050565b6000612ccd82612af2565b9050919050565b612cdd81612cc2565b82525050565b6000602082019050612cf86000830184612cd4565b92915050565b612d0781612b12565b8114612d1257600080fd5b50565b600081359050612d2481612cfe565b92915050565b600060208284031215612d4057612d3f612b8c565b5b6000612d4e84828501612d15565b91505092915050565b612d6081612c59565b82525050565b6000602082019050612d7b6000830184612d57565b92915050565b612d8a81612c25565b8114612d9557600080fd5b50565b600081359050612da781612d81565b92915050565b600060208284031215612dc357612dc2612b8c565b5b6000612dd184828501612d98565b91505092915050565b7f4e487b7100000000000000000000000000000000000000000000000000000000600052602160045260246000fd5b60038110612e1a57612e19612dda565b5b50565b6000819050612e2b82612e09565b919050565b6000612e3b82612e1d565b9050919050565b612e4b81612e30565b82525050565b6000606082019050612e666000830186612e42565b612e736020830185612b24565b612e806040830184612b58565b949350505050565b60008060408385031215612e9f57612e9e612b8c565b5b6000612ead85828601612bad565b9250506020612ebe85828601612d98565b9150509250929050565b600080fd5b600080fd5b600080fd5b60008083601f840112612eed57612eec612ec8565b5b8235905067ffffffffffffffff811115612f0a57612f09612ecd565b5b602083019150836020820283011115612f2657612f25612ed2565b5b9250929050565b60008060208385031215612f4457612f43612b8c565b5b600083013567ffffffffffffffff811115612f6257612f61612b91565b5b612f6e85828601612ed7565b92509250509250929050565b600080fd5b60006102208284031215612f9657612f95612f7a565b5b81905092915050565b600080600080600060a08688031215612fbb57612fba612b8c565b5b600086013567ffffffffffffffff811115612fd957612fd8612b91565b5b612fe588828901612f7f565b9550506020612ff688828901612c80565b945050604061300788828901612d15565b935050606061301888828901612d98565b925050608061302988828901612bad565b9150509295509295909350565b600067ffffffffffffffff82169050919050565b61305381613036565b82525050565b600060208201905061306e600083018461304a565b92915050565b600082825260208201905092915050565b7f5472616e736163744d6f64756c653a204e6f207472616e73616374696f6e7300600082015250565b60006130bb601f83613074565b91506130c682613085565b602082019050919050565b600060208201905081810360008301526130ea816130ae565b9050919050565b7f4e487b7100000000000000000000000000000000000000000000000000000000600052604160045260246000fd5b7f4e487b7100000000000000000000000000000000000000000000000000000000600052603260045260246000fd5b600080fd5b600080fd5b600080fd5b6000823560016102200383360303811261317b5761317a61314f565b5b80830191505092915050565b600081905092915050565b7f5472616e736163744d6f64756c653a2000000000000000000000000000000000600082015250565b60006131c8601083613187565b91506131d382613192565b601082019050919050565b600081519050919050565b60005b838110156132075780820151818401526020810190506131ec565b60008484015250505050565b600061321e826131de565b6132288185613187565b93506132388185602086016131e9565b80840191505092915050565b600061324f826131bb565b915061325b8284613213565b915081905092915050565b6000601f19601f8301169050919050565b6000613282826131de565b61328c8185613074565b935061329c8185602086016131e9565b6132a581613266565b840191505092915050565b600060208201905081810360008301526132ca8184613277565b905092915050565b7f4e487b7100000000000000000000000000000000000000000000000000000000600052601160045260246000fd5b600061330c82612b4e565b91507fffffffffffffffffffffffffffffffffffffffffffffffffffffffffffffffff820361333e5761333d6132d2565b5b600182019050919050565b60008235600160e0038336030381126133655761336461314f565b5b80830191505092915050565b6003811061337e57600080fd5b50565b60008135905061339081613371565b92915050565b6000602082840312156133ac576133ab612b8c565b5b60006133ba84828501613381565b91505092915050565b6000815190506133d281612b96565b92915050565b600080604083850312156133ef576133ee612b8c565b5b60006133fd858286016133c3565b925050602061340e858286016133c3565b9150509250929050565b600081519050919050565b600082825260208201905092915050565b6000819050602082019050919050565b61344d81612c25565b82525050565b600061345f8383613444565b60208301905092915050565b6000602082019050919050565b600061348382613418565b61348d8185613423565b935061349883613434565b8060005b838110156134c95781516134b08882613453565b97506134bb8361346b565b92505060018101905061349c565b5085935050505092915050565b600081519050919050565b600082825260208201905092915050565b6000819050602082019050919050565b600060049050919050565b600081905092915050565b6000819050919050565b6000602082019050919050565b61353881613502565b613542818461350d565b925061354d82613518565b8060005b8381101561357e5781516135658782613453565b965061357083613522565b925050600181019050613551565b505050505050565b600081519050919050565b600082825260208201905092915050565b60006135ad82613586565b6135b78185613591565b93506135c78185602086016131e9565b6135d081613266565b840191505092915050565b6000610100830160008301516135f4600086018261352f565b5060208301516136076080860182613444565b50604083015161361a60a0860182613444565b50606083015184820360c086015261363282826135a2565b915050608083015184820360e086015261364c82826135a2565b9150508091505092915050565b600061366583836135db565b905092915050565b6000602082019050919050565b6000613685826134d6565b61368f81856134e1565b9350836020820285016136a1856134f2565b8060005b858110156136dd57848403895281516136be8582613659565b94506136c98361366d565b925060208a019950506001810190506136a5565b50829750879550505050505092915050565b60006080820190506137046000830187612b58565b6137116020830186612b58565b81810360408301526137238185613478565b90508181036060830152613737818461367a565b905095945050505050565b6000602082019050818103600083015261375c8184613478565b905092915050565b7f4e487b7100000000000000000000000000000000000000000000000000000000600052601260045260246000fd5b600061379e82612b4e565b91506137a983612b4e565b9250826137b9576137b8613764565b5b828206905092915050565b600080833560016020038436030381126137e1576137e061314f565b5b80840192508235915067ffffffffffffffff82111561380357613802613154565b5b60208301925060208202360383131561381f5761381e613159565b5b509250929050565b600061383282612b4e565b915061383d83612b4e565b9250828201905080821115613855576138546132d2565b5b92915050565b600068ffffffffffffffffff82169050919050565b6138798161385b565b811461388457600080fd5b50565b60008135905061389681613870565b92915050565b6000602082840312156138b2576138b1612b8c565b5b60006138c084828501613887565b91505092915050565b6138d281613036565b81146138dd57600080fd5b50565b6000813590506138ef816138c9565b92915050565b60006020828403121561390b5761390a612b8c565b5b6000613919848285016138e0565b91505092915050565b600061ffff82169050919050565b61393981613922565b811461394457600080fd5b50565b60008135905061395681613930565b92915050565b60006020828403121561397257613971612b8c565b5b600061398084828501613947565b91505092915050565b600080833560016020038436030381126139a6576139a561314f565b5b80840192508235915067ffffffffffffffff8211156139c8576139c7613154565b5b6020830192506020820236038313156139e4576139e3613159565b5b509250929050565b60006139f782612b4e565b9150613a0283612b4e565b9250828203905081811115613a1a57613a196132d2565b5b92915050565b600080fd5b613a2e82613266565b810181811067ffffffffffffffff82111715613a4d57613a4c6130f1565b5b80604052505050565b6000613a60612b82565b9050613a6c8282613a25565b919050565b600080fd5b60038110613a8357600080fd5b50565b600081359050613a9581613a76565b92915050565b600060608284031215613ab157613ab0613a20565b5b613abb6060613a56565b90506000613acb84828501613a86565b6000830152506020613adf84828501612d15565b6020830152506040613af384828501612bad565b60408301525092915050565b600060608284031215613b1557613b14612b8c565b5b6000613b2384828501613a9b565b91505092915050565b613b3581612aad565b8114613b4057600080fd5b50565b600081359050613b5281613b2c565b92915050565b600060208284031215613b6e57613b6d612b8c565b5b6000613b7c84828501613b43565b91505092915050565b600060a08284031215613b9b57613b9a613a20565b5b613ba56060613a56565b90506000613bb584828501612d98565b6000830152506020613bc984828501613a9b565b6020830152506080613bdd84828501613b43565b60408301525092915050565b600060a08284031215613bff57613bfe612b8c565b5b6000613c0d84828501613b85565b91505092915050565b600082905092915050565b600082905092915050565b6000613c3b6020840184612bad565b905092915050565b613c4c81612b4e565b82525050565b60408201613c636000830183613c2c565b613c706000850182613c43565b50613c7e6020830183613c2c565b613c8b6020850182613c43565b50505050565b600082905092915050565b600082905092915050565b82818337505050565b613cbc60408383613ca7565b5050565b60808201613cd16000830183613c9c565b613cde6000850182613cb0565b50613cec6040830183613c9c565b613cf96040850182613cb0565b50505050565b6101008201613d116000830183613c21565b613d1e6000850182613c52565b50613d2c6040830183613c91565b613d396040850182613cc0565b50613d4760c0830183613c21565b613d5460c0850182613c52565b50505050565b6000613d696020840184612d98565b905092915050565b600080fd5b600080fd5b600080fd5b60008083356001602003843603038112613d9d57613d9c613d7b565b5b83810192508235915060208301925067ffffffffffffffff821115613dc557613dc4613d71565b5b602082023603831315613ddb57613dda613d76565b5b509250929050565b600082825260208201905092915050565b600080fd5b6000613e058385613de3565b93507f07ffffffffffffffffffffffffffffffffffffffffffffffffffffffffffffff831115613e3857613e37613df4565b5b602083029250613e49838584613ca7565b82840190509392505050565b60008235600160e003833603038112613e7157613e70613d7b565b5b82810191505092915050565b6000613e8c6020840184613947565b905092915050565b613e9d81613922565b82525050565b6000613eb26020840184613887565b905092915050565b613ec38161385b565b82525050565b6000613ed86020840184613381565b905092915050565b60038110613ef157613ef0612dda565b5b50565b6000819050613f0282613ee0565b919050565b6000613f1282613ef4565b9050919050565b613f2281613f07565b82525050565b6000613f3760208401846138e0565b905092915050565b613f4881613036565b82525050565b6000613f5d6020840184612d15565b905092915050565b613f6e81612b12565b82525050565b60008083356001602003843603038112613f9157613f90613d7b565b5b83810192508235915060208301925067ffffffffffffffff821115613fb957613fb8613d71565b5b602082023603831315613fcf57613fce613d76565b5b509250929050565b600082825260208201905092915050565b6000819050919050565b600082905092915050565b61400960808383613ca7565b5050565b6000808335600160200384360303811261402a57614029613d7b565b5b83810192508235915060208301925067ffffffffffffffff82111561405257614051613d71565b5b60018202360383131561406857614067613d76565b5b509250929050565b82818337600083830152505050565b600061408b8385613591565b9350614098838584614070565b6140a183613266565b840190509392505050565b600061010083016140c06000840184613ff2565b6140cd6000860182613ffd565b506140db6080840184613d5a565b6140e86080860182613444565b506140f660a0840184613d5a565b61410360a0860182613444565b5061411160c084018461400d565b85830360c087015261412483828461407f565b9250505061413560e084018461400d565b85830360e087015261414883828461407f565b925050508091505092915050565b600061416283836140ac565b905092915050565b6000823560016101000383360303811261418757614186613d7b565b5b82810191505092915050565b6000602082019050919050565b60006141ac8385613fd7565b9350836020840285016141be84613fe8565b8060005b878110156142025784840389526141d9828461416a565b6141e38582614156565b94506141ee83614193565b925060208a019950506001810190506141c2565b50829750879450505050509392505050565b600060e083016142276000840184613e7d565b6142346000860182613e94565b506142426020840184613ea3565b61424f6020860182613eba565b5061425d6040840184613ec9565b61426a6040860182613f19565b506142786060840184613f28565b6142856060860182613f3f565b506142936080840184613f4e565b6142a06080860182613f65565b506142ae60a0840184613d5a565b6142bb60a0860182613444565b506142c960c0840184613f74565b85830360c08701526142dc8382846141a0565b925050508091505092915050565b600082905092915050565b600082905092915050565b600061430f6020840184613a86565b905092915050565b61432081612e30565b82525050565b606082016143376000830183614300565b6143446000850182614317565b506143526020830183613f4e565b61435f6020850182613f65565b5061436d6040830183613c2c565b61437a6040850182613c43565b50505050565b600061438f6020840184613b43565b905092915050565b6143a081612aad565b82525050565b60a082016143b76000830183613d5a565b6143c46000850182613444565b506143d260208301836142f5565b6143df6020850182614326565b506143ed6080830183614380565b6143fa6080850182614397565b50505050565b600061022083016144146000840184613c16565b6144216000860182613cff565b50614430610100840184613d5a565b61443e610100860182613444565b5061444d610120840184613d80565b858303610120870152614461838284613df9565b92505050614473610140840184613d80565b858303610140870152614487838284613df9565b92505050614499610160840184613e55565b8482036101608601526144ac8282614214565b9150506144bd6101808401846142ea565b6144cb6101808601826143a6565b508091505092915050565b600060208201905081810360008301526144f08184614400565b905092915050565b61450181612bef565b811461450c57600080fd5b50565b60008151905061451e816144f8565b92915050565b60006020828403121561453a57614539612b8c565b5b60006145488482850161450f565b91505092915050565b7f5472616e736163744d6f64756c653a204e6f746520616c72656164792073706560008201527f6e74000000000000000000000000000000000000000000000000000000000000602082015250565b60006145ad602283613074565b91506145b882614551565b604082019050919050565b600060208201905081810360008301526145dc816145a0565b9050919050565b6145ec81613922565b82525050565b60006145fe8385613423565b93507f07ffffffffffffffffffffffffffffffffffffffffffffffffffffffffffffff83111561463157614630613df4565b5b602083029250614642838584613ca7565b82840190509392505050565b600060408201905061466360008301866145e3565b81810360208301526146768184866145f2565b9050949350505050565b6000823560016101000383360303811261469d5761469c61314f565b5b80830191505092915050565b600067ffffffffffffffff8211156146c4576146c36130f1565b5b602082029050919050565b60006146e26146dd846146a9565b613a56565b905080602084028301858111156146fc576146fb612ed2565b5b835b8181101561472557806147118882612d98565b8452602084019350506020810190506146fe565b5050509392505050565b600082601f83011261474457614743612ec8565b5b60046147518482856146cf565b91505092915050565b600080fd5b600067ffffffffffffffff82111561477a576147796130f1565b5b61478382613266565b9050602081019050919050565b60006147a361479e8461475f565b613a56565b9050828152602081018484840111156147bf576147be61475a565b5b6147ca848285614070565b509392505050565b600082601f8301126147e7576147e6612ec8565b5b81356147f7848260208601614790565b91505092915050565b6000610100828403121561481757614816613a20565b5b61482160a0613a56565b905060006148318482850161472f565b600083015250608061484584828501612d98565b60208301525060a061485984828501612d98565b60408301525060c082013567ffffffffffffffff81111561487d5761487c613a71565b5b614889848285016147d2565b60608301525060e082013567ffffffffffffffff8111156148ad576148ac613a71565b5b6148b9848285016147d2565b60808301525092915050565b60006148d13683614800565b9050919050565b6000602082840312156148ee576148ed612b8c565b5b60006148fc84828501613a86565b91505092915050565b7f5472616e736163744d6f64756c653a204f6e6c7920455243323020737570706f60008201527f7274656400000000000000000000000000000000000000000000000000000000602082015250565b6000614961602483613074565b915061496c82614905565b604082019050919050565b6000602082019050818103600083015261499081614954565b9050919050565b606082016149a86000830183614300565b6149b56000850182614317565b506149c36020830183613f4e565b6149d06020850182613f65565b506149de6040830183613c2c565b6149eb6040850182613c43565b50505050565b6000819050919050565b6000614a16614a11614a0c84612aad565b6149f1565b612b4e565b9050919050565b614a26816149fb565b82525050565b600060c082019050614a416000830187612b24565b614a4e6020830186614997565b614a5b6080830185614a1d565b614a6860a0830184614a1d565b95945050505050565b7f5472616e736163744d6f64756c653a20557365206c6f63616c20756e7368696560008201527f6c64000000000000000000000000000000000000000000000000000000000000602082015250565b6000614acd602283613074565b9150614ad882614a71565b604082019050919050565b60006020820190508181036000830152614afc81614ac0565b9050919050565b7f5472616e736163744d6f64756c653a20496e76616c696420726563697069656e60008201527f7400000000000000000000000000000000000000000000000000000000000000602082015250565b6000614b5f602183613074565b9150614b6a82614b03565b604082019050919050565b60006020820190508181036000830152614b8e81614b52565b9050919050565b7f5472616e736163744d6f64756c653a204d75737420696e636c75646520756e7360008201527f6869656c64000000000000000000000000000000000000000000000000000000602082015250565b6000614bf1602583613074565b9150614bfc82614b95565b604082019050919050565b60006020820190508181036000830152614c2081614be4565b9050919050565b7f5472616e736163744d6f64756c653a20556e6b6e6f776e2064657374696e617460008201527f696f6e0000000000000000000000000000000000000000000000000000000000602082015250565b6000614c83602383613074565b9150614c8e82614c27565b604082019050919050565b60006020820190508181036000830152614cb281614c76565b9050919050565b7f5472616e736163744d6f64756c653a206d61784665652065786365656473206260008201527f6173650000000000000000000000000000000000000000000000000000000000602082015250565b6000614d15602383613074565b9150614d2082614cb9565b604082019050919050565b60006020820190508181036000830152614d4481614d08565b9050919050565b600082825260208201905092915050565b6000614d6782613586565b614d718185614d4b565b9350614d818185602086016131e9565b614d8a81613266565b840191505092915050565b600061010082019050614dab600083018b614a1d565b614db8602083018a612d57565b614dc56040830189612c2f565b614dd26060830188612b24565b614ddf6080830187612c2f565b614dec60a0830186612b58565b614df960c0830185612d57565b81810360e0830152614e0b8184614d5c565b90509998505050505050505050565b600081519050614e29816138c9565b92915050565b600060208284031215614e4557614e44612b8c565b5b6000614e5384828501614e1a565b91505092915050565b6000604082019050614e716000830185614a1d565b614e7e602083018461304a565b9392505050565b600060039050919050565b600081905092915050565b6000819050919050565b614eae81612c25565b82525050565b6000614ec08383614ea5565b60208301905092915050565b6000602082019050919050565b614ee281614e85565b614eec8184614e90565b9250614ef782614e9b565b8060005b83811015614f28578151614f0f8782614eb4565b9650614f1a83614ecc565b925050600181019050614efb565b505050505050565b6000606082019050614f456000830184614ed9565b92915050565b600081519050614f5a81612d81565b92915050565b600060208284031215614f7657614f75612b8c565b5b6000614f8484828501614f4b565b91505092915050565b600070ffffffffffffffffffffffffffffffffff82169050919050565b6000614fb582614f8d565b9150614fc083614f8d565b9250828202614fce81614f8d565b91508282048414831517614fe557614fe46132d2565b5b5092915050565b6000614ff782614f8d565b915061500283614f8d565b92508261501257615011613764565b5b828204905092915050565b600061502882614f8d565b915061503383614f8d565b9250828203905070ffffffffffffffffffffffffffffffffff81111561505c5761505b6132d2565b5b92915050565b600061506d82612aad565b915061507883612aad565b925082820390506effffffffffffffffffffffffffffff81111561509f5761509e6132d2565b5b92915050565b60006040820190506150ba6000830185612b24565b6150c76020830184612b58565b9392505050565b6020820160008201516150e46000850182613f65565b50505050565b60006020820190506150ff60008301846150ce565b92915050565b6002811061511657615115612dda565b5b50565b600081905061512782615105565b919050565b600061513782615119565b9050919050565b6151478161512c565b82525050565b6000604083016000830151615165600086018261513e565b506020830151848203602086015261517d82826135a2565b9150508091505092915050565b600060208201905081810360008301526151a4818461514d565b905092915050565b60006040820190506151c16000830185612b24565b6151ce6020830184612b24565b9392505050565b6000602082840312156151eb576151ea612b8c565b5b60006151f9848285016133c3565b91505092915050565b7f5361666545524332303a20617070726f76652066726f6d206e6f6e2d7a65726f60008201527f20746f206e6f6e2d7a65726f20616c6c6f77616e636500000000000000000000602082015250565b600061525e603683613074565b915061526982615202565b604082019050919050565b6000602082019050818103600083015261528d81615251565b9050919050565b6060820160008201516152aa6000850182614317565b5060208201516152bd6020850182613f65565b5060408201516152d06040850182613c43565b50505050565b60006060820190506152eb6000830184615294565b92915050565b7f5361666545524332303a204552433230206f7065726174696f6e20646964206e60008201527f6f74207375636365656400000000000000000000000000000000000000000000602082015250565b600061534d602a83613074565b9150615358826152f1565b604082019050919050565b6000602082019050818103600083015261537c81615340565b9050919050565b7f416464726573733a20696e73756666696369656e742062616c616e636520666f60008201527f722063616c6c0000000000000000000000000000000000000000000000000000602082015250565b60006153df602683613074565b91506153ea82615383565b604082019050919050565b6000602082019050818103600083015261540e816153d2565b9050919050565b600081905092915050565b600061542b82613586565b6154358185615415565b93506154458185602086016131e9565b80840191505092915050565b600061545d8284615420565b915081905092915050565b7f416464726573733a2063616c6c20746f206e6f6e2d636f6e7472616374000000600082015250565b600061549e601d83613074565b91506154a982615468565b602082019050919050565b600060208201905081810360008301526154cd81615491565b905091905056fea2646970667358221220b01a5f8d6081d7dbc1c7e70c3ca0337d14528e87d8aad7a052ea2b054f8067d264736f6c63430008110033","linkReferences":{"contracts/railgun/logic/Poseidon.sol":{"PoseidonT4":[{"start":9016,"length":20}]}}},"methodIdentifiers":{"ZERO_VALUE()":"ec732959","atomicCrossChainUnshield((((uint256,uint256),(uint256[2],uint256[2]),(uint256,uint256)),bytes32,bytes32[],bytes32[],(uint16,uint72,uint8,uint64,address,bytes32,(bytes32[4],bytes32,bytes32,bytes,bytes)[]),(bytes32,(uint8,address,uint256),uint120)),uint32,address,bytes32,uint256)":"e484d408","initialized()":"158ef93e","lastEventBlock()":"cd3efe06","localDomain()":"8d3638f4","merkleModule()":"90de3f6e","merkleRoot()":"2eb4a7ab","messageTransmitter()":"7b04c181","nextLeafIndex()":"0be4f422","nftFee()":"9071adc0","nullifiers(uint256,bytes32)":"f19ea903","owner()":"8da5cb5b","privilegedShieldCallers(address)":"b069b70f","remotePools(uint32)":"30ed93c3","rootHistory(uint256,bytes32)":"c718dbda","shieldFee()":"01c37790","shieldModule()":"35db307c","snarkSafetyVector(uint256)":"129458f4","testingMode()":"c8f35b5d","tokenBlocklist(address)":"815b534f","tokenIDMapping(bytes32)":"b8ceaef2","tokenMessenger()":"46117830","transact((((uint256,uint256),(uint256[2],uint256[2]),(uint256,uint256)),bytes32,bytes32[],bytes32[],(uint16,uint72,uint8,uint64,address,bytes32,(bytes32[4],bytes32,bytes32,bytes,bytes)[]),(bytes32,(uint8,address,uint256),uint120))[])":"d8ae136a","transactModule()":"048e0990","treasury()":"61d027b3","treeNumber()":"66503315","unshieldFee()":"053ed12a","usdc()":"3e413bee","verifierModule()":"41506fc1","zeros(uint256)":"e8295588"},"id":23}