{"abi":[{"type":"function","name":"ZERO_VALUE","inputs":[],"outputs":[{"name":"","type":"bytes32","internalType":"bytes32"}],"stateMutability":"view"},{"type":"function","name":"atomicCrossChainUnshield","inputs":[{"name":"_transaction","type":"tuple","internalType":"struct Transaction","components":[{"name":"proof","type":"tuple","internalType":"struct SnarkProof","components":[{"name":"a","type":"tuple","internalType":"struct G1Point","components":[{"name":"x","type":"uint256","internalType":"uint256"},{"name":"y","type":"uint256","internalType":"uint256"}]},{"name":"b","type":"tuple","internalType":"struct G2Point","components":[{"name":"x","type":"uint256[2]","internalType":"uint256[2]"},{"name":"y","type":"uint256[2]","internalType":"uint256[2]"}]},{"name":"c","type":"tuple","internalType":"struct G1Point","components":[{"name":"x","type":"uint256","internalType":"uint256"},{"name":"y","type":"uint256","internalType":"uint256"}]}]},{"name":"merkleRoot","type":"bytes32","internalType":"bytes32"},{"name":"nullifiers","type":"bytes32[]","internalType":"bytes32[]"},{"name":"commitments","type":"bytes32[]","internalType":"bytes32[]"},{"name":"boundParams","type":"tuple","internalType":"struct BoundParams","components":[{"name":"treeNumber","type":"uint16","internalType":"uint16"},{"name":"minGasPrice","type":"uint72","internalType":"uint72"},{"name":"unshield","type":"uint8","internalType":"enum UnshieldType"},{"name":"chainID","type":"uint64","internalType":"uint64"},{"name":"adaptContract","type":"address","internalType":"address"},{"name":"adaptParams","type":"bytes32","internalType":"bytes32"},{"name":"commitmentCiphertext","type":"tuple[]","internalType":"struct CommitmentCiphertext[]","components":[{"name":"ciphertext","type":"bytes32[4]","internalType":"bytes32[4]"},{"name":"blindedSenderViewingKey","type":"bytes32","internalType":"bytes32"},{"name":"blindedReceiverViewingKey","type":"bytes32","internalType":"bytes32"},{"name":"annotationData","type":"bytes","internalType":"bytes"},{"name":"memo","type":"bytes","internalType":"bytes"}]}]},{"name":"unshieldPreimage","type":"tuple","internalType":"struct CommitmentPreimage","components":[{"name":"npk","type":"bytes32","internalType":"bytes32"},{"name":"token","type":"tuple","internalType":"struct TokenData","components":[{"name":"tokenType","type":"uint8","internalType":"enum TokenType"},{"name":"tokenAddress","type":"address","internalType":"address"},{"name":"tokenSubID","type":"uint256","internalType":"uint256"}]},{"name":"value","type":"uint120","internalType":"uint120"}]}]},{"name":"destinationDomain","type":"uint32","internalType":"uint32"},{"name":"finalRecipient","type":"address","internalType":"address"},{"name":"destinationCaller","type":"bytes32","internalType":"bytes32"},{"name":"maxFee","type":"uint256","internalType":"uint256"}],"outputs":[{"name":"nonce","type":"uint64","internalType":"uint64"}],"stateMutability":"nonpayable"},{"type":"function","name":"initialized","inputs":[],"outputs":[{"name":"","type":"bool","internalType":"bool"}],"stateMutability":"view"},{"type":"function","name":"lastEventBlock","inputs":[],"outputs":[{"name":"","type":"uint256","internalType":"uint256"}],"stateMutability":"view"},{"type":"function","name":"localDomain","inputs":[],"outputs":[{"name":"","type":"uint32","internalType":"uint32"}],"stateMutability":"view"},{"type":"function","name":"merkleModule","inputs":[],"outputs":[{"name":"","type":"address","internalType":"address"}],"stateMutability":"view"},{"type":"function","name":"merkleRoot","inputs":[],"outputs":[{"name":"","type":"bytes32","internalType":"bytes32"}],"stateMutability":"view"},{"type":"function","name":"messageTransmitter","inputs":[],"outputs":[{"name":"","type":"address","internalType":"address"}],"stateMutability":"view"},{"type":"function","name":"nextLeafIndex","inputs":[],"outputs":[{"name":"","type":"uint256","internalType":"uint256"}],"stateMutability":"view"},{"type":"function","name":"nftFee","inputs":[],"outputs":[{"name":"","type":"uint120","internalType":"uint120"}],"stateMutability":"view"},{"type":"function","name":"nullifiers","inputs":[{"name":"","type":"uint256","internalType":"uint256"},{"name":"","type":"bytes32","internalType":"bytes32"}],"outputs":[{"name":"","type":"bool","internalType":"bool"}],"stateMutability":"view"},{"type":"function","name":"owner","inputs":[],"outputs":[{"name":"","type":"address","internalType":"address"}],"stateMutability":"view"},{"type":"function","name":"remotePools","inputs":[{"name":"","type":"uint32","internalType":"uint32"}],"outputs":[{"name":"","type":"bytes32","internalType":"bytes32"}],"stateMutability":"view"},{"type":"function","name":"rootHistory","inputs":[{"name":"","type":"uint256","internalType":"uint256"},{"name":"","type":"bytes32","internalType":"bytes32"}],"outputs":[{"name":"","type":"bool","internalType":"bool"}],"stateMutability":"view"},{"type":"function","name":"shieldFee","inputs":[],"outputs":[{"name":"","type":"uint120","internalType":"uint120"}],"stateMutability":"view"},{"type":"function","name":"shieldModule","inputs":[],"outputs":[{"name":"","type":"address","internalType":"address"}],"stateMutability":"view"},{"type":"function","name":"snarkSafetyVector","inputs":[{"name":"","type":"uint256","internalType":"uint256"}],"outputs":[{"name":"","type":"bool","internalType":"bool"}],"stateMutability":"view"},{"type":"function","name":"testingMode","inputs":[],"outputs":[{"name":"","type":"bool","internalType":"bool"}],"stateMutability":"view"},{"type":"function","name":"tokenBlocklist","inputs":[{"name":"","type":"address","internalType":"address"}],"outputs":[{"name":"","type":"bool","internalType":"bool"}],"stateMutability":"view"},{"type":"function","name":"tokenIDMapping","inputs":[{"name":"","type":"bytes32","internalType":"bytes32"}],"outputs":[{"name":"tokenType","type":"uint8","internalType":"enum TokenType"},{"name":"tokenAddress","type":"address","internalType":"address"},{"name":"tokenSubID","type":"uint256","internalType":"uint256"}],"stateMutability":"view"},{"type":"function","name":"tokenMessenger","inputs":[],"outputs":[{"name":"","type":"address","internalType":"address"}],"stateMutability":"view"},{"type":"function","name":"transact","inputs":[{"name":"_transactions","type":"tuple[]","internalType":"struct Transaction[]","components":[{"name":"proof","type":"tuple","internalType":"struct SnarkProof","components":[{"name":"a","type":"tuple","internalType":"struct G1Point","components":[{"name":"x","type":"uint256","internalType":"uint256"},{"name":"y","type":"uint256","internalType":"uint256"}]},{"name":"b","type":"tuple","internalType":"struct G2Point","components":[{"name":"x","type":"uint256[2]","internalType":"uint256[2]"},{"name":"y","type":"uint256[2]","internalType":"uint256[2]"}]},{"name":"c","type":"tuple","internalType":"struct G1Point","components":[{"name":"x","type":"uint256","internalType":"uint256"},{"name":"y","type":"uint256","internalType":"uint256"}]}]},{"name":"merkleRoot","type":"bytes32","internalType":"bytes32"},{"name":"nullifiers","type":"bytes32[]","internalType":"bytes32[]"},{"name":"commitments","type":"bytes32[]","internalType":"bytes32[]"},{"name":"boundParams","type":"tuple","internalType":"struct BoundParams","components":[{"name":"treeNumber","type":"uint16","internalType":"uint16"},{"name":"minGasPrice","type":"uint72","internalType":"uint72"},{"name":"unshield","type":"uint8","internalType":"enum UnshieldType"},{"name":"chainID","type":"uint64","internalType":"uint64"},{"name":"adaptContract","type":"address","internalType":"address"},{"name":"adaptParams","type":"bytes32","internalType":"bytes32"},{"name":"commitmentCiphertext","type":"tuple[]","internalType":"struct CommitmentCiphertext[]","components":[{"name":"ciphertext","type":"bytes32[4]","internalType":"bytes32[4]"},{"name":"blindedSenderViewingKey","type":"bytes32","internalType":"bytes32"},{"name":"blindedReceiverViewingKey","type":"bytes32","internalType":"bytes32"},{"name":"annotationData","type":"bytes","internalType":"bytes"},{"name":"memo","type":"bytes","internalType":"bytes"}]}]},{"name":"unshieldPreimage","type":"tuple","internalType":"struct CommitmentPreimage","components":[{"name":"npk","type":"bytes32","internalType":"bytes32"},{"name":"token","type":"tuple","internalType":"struct TokenData","components":[{"name":"tokenType","type":"uint8","internalType":"enum TokenType"},{"name":"tokenAddress","type":"address","internalType":"address"},{"name":"tokenSubID","type":"uint256","internalType":"uint256"}]},{"name":"value","type":"uint120","internalType":"uint120"}]}]}],"outputs":[],"stateMutability":"nonpayable"},{"type":"function","name":"transactModule","inputs":[],"outputs":[{"name":"","type":"address","internalType":"address"}],"stateMutability":"view"},{"type":"function","name":"treasury","inputs":[],"outputs":[{"name":"","type":"address","internalType":"address payable"}],"stateMutability":"view"},{"type":"function","name":"treeNumber","inputs":[],"outputs":[{"name":"","type":"uint256","internalType":"uint256"}],"stateMutability":"view"},{"type":"function","name":"unshieldFee","inputs":[],"outputs":[{"name":"","type":"uint120","internalType":"uint120"}],"stateMutability":"view"},{"type":"function","name":"usdc","inputs":[],"outputs":[{"name":"","type":"address","internalType":"address"}],"stateMutability":"view"},{"type":"function","name":"verifierModule","inputs":[],"outputs":[{"name":"","type":"address","internalType":"address"}],"stateMutability":"view"},{"type":"function","name":"zeros","inputs":[{"name":"","type":"uint256","internalType":"uint256"}],"outputs":[{"name":"","type":"bytes32","internalType":"bytes32"}],"stateMutability":"view"},{"type":"event","name":"CrossChainUnshieldInitiated","inputs":[{"name":"destinationDomain","type":"uint32","indexed":true,"internalType":"uint32"},{"name":"recipient","type":"address","indexed":true,"internalType":"address"},{"name":"amount","type":"uint256","indexed":false,"internalType":"uint256"},{"name":"nonce","type":"uint64","indexed":false,"internalType":"uint64"}],"anonymous":false},{"type":"event","name":"Nullified","inputs":[{"name":"treeNumber","type":"uint16","indexed":false,"internalType":"uint16"},{"name":"nullifier","type":"bytes32[]","indexed":false,"internalType":"bytes32[]"}],"anonymous":false},{"type":"event","name":"Transact","inputs":[{"name":"treeNumber","type":"uint256","indexed":false,"internalType":"uint256"},{"name":"startPosition","type":"uint256","indexed":false,"internalType":"uint256"},{"name":"hash","type":"bytes32[]","indexed":false,"internalType":"bytes32[]"},{"name":"ciphertext","type":"tuple[]","indexed":false,"internalType":"struct CommitmentCiphertext[]","components":[{"name":"ciphertext","type":"bytes32[4]","internalType":"bytes32[4]"},{"name":"blindedSenderViewingKey","type":"bytes32","internalType":"bytes32"},{"name":"blindedReceiverViewingKey","type":"bytes32","internalType":"bytes32"},{"name":"annotationData","type":"bytes","internalType":"bytes"},{"name":"memo","type":"bytes","internalType":"bytes"}]}],"anonymous":false},{"type":"event","name":"Unshield","inputs":[{"name":"to","type":"address","indexed":false,"internalType":"address"},{"name":"token","type":"tuple","indexed":false,"internalType":"struct TokenData","components":[{"name":"tokenType","type":"uint8","internalType":"enum TokenType"},{"name":"tokenAddress","type":"address","internalType":"address"},{"name":"tokenSubID","type":"uint256","internalType":"uint256"}]},{"name":"amount","type":"uint256","indexed":false,"internalType":"uint256"},{"name":"fee","type":"uint256","indexed":false,"internalType":"uint256"}],"anonymous":false}],"bytecode":{"object":"0x608060405234801561001057600080fd5b5061543a806100206000396000f3fe608060405234801561001057600080fd5b50600436106101cf5760003560e01c80637b04c18111610104578063c718dbda116100a2578063e484d40811610071578063e484d4081461051c578063e82955881461054c578063ec7329591461057c578063f19ea9031461059a576101cf565b8063c718dbda14610494578063c8f35b5d146104c4578063cd3efe06146104e2578063d8ae136a14610500576101cf565b80638da5cb5b116100de5780638da5cb5b146104085780639071adc01461042657806390de3f6e14610444578063b8ceaef214610462576101cf565b80637b04c1811461039c578063815b534f146103ba5780638d3638f4146103ea576101cf565b806330ed93c31161017157806341506fc11161014b57806341506fc114610324578063461178301461034257806361d027b314610360578063665033151461037e576101cf565b806330ed93c3146102b857806335db307c146102e85780633e413bee14610306576101cf565b80630be4f422116101ad5780630be4f4221461022e578063129458f41461024c578063158ef93e1461027c5780632eb4a7ab1461029a576101cf565b806301c37790146101d4578063048e0990146101f2578063053ed12a14610210575b600080fd5b6101dc6105ca565b6040516101e99190612a07565b60405180910390f35b6101fa6105eb565b6040516102079190612a63565b60405180910390f35b610218610611565b6040516102259190612a07565b60405180910390f35b610236610632565b6040516102439190612a97565b60405180910390f35b61026660048036038101906102619190612af2565b610638565b6040516102739190612b3a565b60405180910390f35b610284610658565b6040516102919190612b3a565b60405180910390f35b6102a261066b565b6040516102af9190612b6e565b60405180910390f35b6102d260048036038101906102cd9190612bc5565b610671565b6040516102df9190612b6e565b60405180910390f35b6102f0610689565b6040516102fd9190612a63565b60405180910390f35b61030e6106ad565b60405161031b9190612a63565b60405180910390f35b61032c6106d3565b6040516103399190612a63565b60405180910390f35b61034a6106f9565b6040516103579190612a63565b60405180910390f35b61036861071f565b6040516103759190612c13565b60405180910390f35b610386610745565b6040516103939190612a97565b60405180910390f35b6103a461074b565b6040516103b19190612a63565b60405180910390f35b6103d460048036038101906103cf9190612c5a565b610771565b6040516103e19190612b3a565b60405180910390f35b6103f2610791565b6040516103ff9190612c96565b60405180910390f35b6104106107a7565b60405161041d9190612a63565b60405180910390f35b61042e6107cd565b60405161043b9190612a07565b60405180910390f35b61044c6107ee565b6040516104599190612a63565b60405180910390f35b61047c60048036038101906104779190612cdd565b610814565b60405161048b93929190612d81565b60405180910390f35b6104ae60048036038101906104a99190612db8565b61086b565b6040516104bb9190612b3a565b60405180910390f35b6104cc61089a565b6040516104d99190612b3a565b60405180910390f35b6104ea6108ad565b6040516104f79190612a97565b60405180910390f35b61051a60048036038101906105159190612e5d565b6108b3565b005b61053660048036038101906105319190612ecf565b610ca3565b6040516105439190612f89565b60405180910390f35b61056660048036038101906105619190612af2565b610cd1565b6040516105739190612b6e565b60405180910390f35b610584610cec565b6040516105919190612b6e565b60405180910390f35b6105b460048036038101906105af9190612db8565b610d41565b6040516105c19190612b3a565b60405180910390f35b600960009054906101000a90046effffffffffffffffffffffffffffff1681565b600160009054906101000a900473ffffffffffffffffffffffffffffffffffffffff1681565b6009600f9054906101000a90046effffffffffffffffffffffffffffff1681565b600d5481565b60356020528060005260406000206000915054906101000a900460ff1681565b603760149054906101000a900460ff1681565b600e5481565b60076020528060005260406000206000915090505481565b60008054906101000a900473ffffffffffffffffffffffffffffffffffffffff1681565b600660009054906101000a900473ffffffffffffffffffffffffffffffffffffffff1681565b600360009054906101000a900473ffffffffffffffffffffffffffffffffffffffff1681565b600460009054906101000a900473ffffffffffffffffffffffffffffffffffffffff1681565b600860009054906101000a900473ffffffffffffffffffffffffffffffffffffffff1681565b60105481565b600560009054906101000a900473ffffffffffffffffffffffffffffffffffffffff1681565b600b6020528060005260406000206000915054906101000a900460ff1681565b600660149054906101000a900463ffffffff1681565b603760009054906101000a900473ffffffffffffffffffffffffffffffffffffffff1681565b600a60009054906101000a90046effffffffffffffffffffffffffffff1681565b600260009054906101000a900473ffffffffffffffffffffffffffffffffffffffff1681565b600c6020528060005260406000206000915090508060000160009054906101000a900460ff16908060000160019054906101000a900473ffffffffffffffffffffffffffffffffffffffff16908060010154905083565b60316020528160005260406000206020528060005260406000206000915091509054906101000a900460ff1681565b603460009054906101000a900460ff1681565b60365481565b600082829050116108f9576040517f08c379a00000000000000000000000000000000000000000000000000000000081526004016108f090613001565b60405180910390fd5b60006109058383610d70565b905060008167ffffffffffffffff81111561092357610922613021565b5b6040519080825280602002602001820160405280156109515781602001602082028036833780820191505090505b50905060008267ffffffffffffffff8111156109705761096f613021565b5b6040519080825280602002602001820160405280156109a957816020015b610996612980565b81526020019060019003908161098e5790505b5090506000805b86869050811015610a99576000806109eb8989858181106109d4576109d3613050565b5b90506020028101906109e6919061308e565b610df6565b915091508181604051602001610a019190613174565b60405160208183030381529060405290610a51576040517f08c379a0000000000000000000000000000000000000000000000000000000008152600401610a4891906131e0565b60405180910390fd5b50610a82898985818110610a6857610a67613050565b5b9050602002810190610a7a919061308e565b87868861142a565b935050508080610a9190613231565b9150506109b0565b5060005b86869050811015610b5f5760006002811115610abc57610abb612d0a565b5b878783818110610acf57610ace613050565b5b9050602002810190610ae1919061308e565b806101600190610af19190613279565b6040016020810190610b0391906132c6565b6002811115610b1557610b14612d0a565b5b14610b4c57610b4b878783818110610b3057610b2f613050565b5b9050602002810190610b42919061308e565b610180016116fd565b5b8080610b5790613231565b915050610a9d565b506000841115610c94576000803073ffffffffffffffffffffffffffffffffffffffff16630c9c0c8d876040518263ffffffff1660e01b8152600401610ba59190612a97565b6040805180830381865afa158015610bc1573d6000803e3d6000fd5b505050506040513d601f19601f82011682018060405250810190610be59190613308565b915091507f56a618cda1e34057b7f849a5792f6c8587a2dbe11c83d0254e72cb3daffda7d182828787604051610c1e949392919061361f565b60405180910390a13073ffffffffffffffffffffffffffffffffffffffff1663dc52bf9f866040518263ffffffff1660e01b8152600401610c5f9190613672565b600060405180830381600087803b158015610c7957600080fd5b505af1158015610c8d573d6000803e3d6000fd5b5050505050505b43603681905550505050505050565b6000610cb0868686611949565b610cb986611b7f565b610cc68686868686611e4c565b905095945050505050565b60118160108110610ce157600080fd5b016000915090505481565b7f30644e72e131a029b85045b68181585d2833e84879b9709143e1f593f00000017f95b5e3f3c951508f13e7771152f5b7c7329a294917685c10a571c9247e3b9fff60001c610d3b91906136c3565b60001b81565b60326020528160005260406000206020528060005260406000206000915091509054906101000a900460ff1681565b6000806000905060005b84849050811015610deb57848482818110610d9857610d97613050565b5b9050602002810190610daa919061308e565b806101600190610dba9190613279565b8060c00190610dc991906136f4565b905082610dd69190613757565b91508080610de390613231565b915050610d7a565b508091505092915050565b6000606082806101600190610e0b9190613279565b6020016020810190610e1d91906137cc565b68ffffffffffffffffff163a1015610e705760006040518060400160405280601181526020017f47617320707269636520746f6f206c6f7700000000000000000000000000000081525091509150611425565b600073ffffffffffffffffffffffffffffffffffffffff1683806101600190610e999190613279565b6080016020810190610eab9190612c5a565b73ffffffffffffffffffffffffffffffffffffffff1614158015610f1d57503373ffffffffffffffffffffffffffffffffffffffff1683806101600190610ef29190613279565b6080016020810190610f049190612c5a565b73ffffffffffffffffffffffffffffffffffffffff1614155b15610f635760006040518060400160405280601681526020017f496e76616c696420416461707420436f6e74726163740000000000000000000081525091509150611425565b4683806101600190610f759190613279565b6060016020810190610f879190613825565b67ffffffffffffffff1614610fd75760006040518060400160405280601081526020017f436861696e4944206d69736d617463680000000000000000000000000000000081525091509150611425565b6031600084806101600190610fec9190613279565b6000016020810190610ffe919061388c565b61ffff1681526020019081526020016000206000846101000135815260200190815260200160002060009054906101000a900460ff166110795760006040518060400160405280601381526020017f496e76616c6964204d65726b6c6520526f6f740000000000000000000000000081525091509150611425565b6000600281111561108d5761108c612d0a565b5b8380610160019061109e9190613279565b60400160208101906110b091906132c6565b60028111156110c2576110c1612d0a565b5b146112d3576001838061014001906110da91906138b9565b90506110e6919061391c565b838061016001906110f79190613279565b8060c0019061110691906136f4565b90501461114e5760006040518060400160405280601981526020017f496e76616c69642043697068657274657874204c656e6774680000000000000081525091509150611425565b600060028081111561116357611162612d0a565b5b848061016001906111749190613279565b604001602081019061118691906132c6565b600281111561119857611197612d0a565b5b0361121e5761121760405180606001604052803373ffffffffffffffffffffffffffffffffffffffff1660001b815260200186610180016020018036038101906111e29190613a2f565b8152602001866101800160800160208101906111fe9190613a88565b6effffffffffffffffffffffffffffff16815250612244565b905061123e565b61123b84610180018036038101906112369190613b19565b612244565b90505b8380610140019061124f91906138b9565b60018680610140019061126291906138b9565b905061126e919061391c565b81811061127e5761127d613050565b5b9050602002013581146112cd5760006040518060400160405280601581526020017f496e76616c696420556e736869656c64204e6f746500000000000000000000008152509250925050611425565b5061134f565b828061014001906112e491906138b9565b9050838061016001906112f79190613279565b8060c0019061130691906136f4565b90501461134e5760006040518060400160405280601981526020017f496e76616c69642043697068657274657874204c656e6774680000000000000081525091509150611425565b5b3073ffffffffffffffffffffffffffffffffffffffff1663ee990783846040518263ffffffff1660e01b81526004016113889190614406565b602060405180830381865afa1580156113a5573d6000803e3d6000fd5b505050506040513d601f19601f820116820180604052508101906113c99190614454565b61140e5760006040518060400160405280600d81526020017f496e76616c69642050726f6f660000000000000000000000000000000000000081525091509150611425565b600160405180602001604052806000815250915091505b915091565b600080600090505b8580610120019061144391906138b9565b905081101561156c5760008680610120019061145f91906138b9565b838181106114705761146f613050565b5b90506020020135905060008780610160019061148c9190613279565b600001602081019061149e919061388c565b9050603260008261ffff168152602001908152602001600020600083815260200190815260200160002060009054906101000a900460ff1615611516576040517f08c379a000000000000000000000000000000000000000000000000000000000815260040161150d906144f3565b60405180910390fd5b6001603260008361ffff168152602001908152602001600020600084815260200190815260200160002060006101000a81548160ff0219169083151502179055505050808061156490613231565b915050611432565b507f781745c57906dc2f175fec80a9c691744c91c48a34a83672c41c2604774eb11f8580610160019061159f9190613279565b60000160208101906115b1919061388c565b868061012001906115c291906138b9565b6040516115d19392919061457e565b60405180910390a16000858061016001906115ec9190613279565b8060c001906115fb91906136f4565b9050905060005b818110156116e5578680610140019061161b91906138b9565b8281811061162c5761162b613050565b5b905060200201358682876116409190613757565b8151811061165157611650613050565b5b6020026020010181815250508680610160019061166e9190613279565b8060c0019061167d91906136f4565b8281811061168e5761168d613050565b5b90506020028101906116a091906145b0565b6116a9906147f5565b8482876116b69190613757565b815181106116c7576116c6613050565b5b602002602001018190525080806116dd90613231565b915050611602565b5080846116f29190613757565b915050949350505050565b6000600281111561171157611710612d0a565b5b8160200160000160208101906117279190614808565b600281111561173957611738612d0a565b5b14611779576040517f08c379a0000000000000000000000000000000000000000000000000000000008152600401611770906148a7565b60405180910390fd5b60008160200160200160208101906117919190612c5a565b90506000806117e28460800160208101906117ac9190613a88565b6effffffffffffffffffffffffffffff1660016009600f9054906101000a90046effffffffffffffffffffffffffffff16612307565b915091506000846000013560001c905061182e81846effffffffffffffffffffffffffffff168673ffffffffffffffffffffffffffffffffffffffff166123f29092919063ffffffff16565b6000826effffffffffffffffffffffffffffff1611801561189e5750600073ffffffffffffffffffffffffffffffffffffffff16600860009054906101000a900473ffffffffffffffffffffffffffffffffffffffff1673ffffffffffffffffffffffffffffffffffffffff1614155b1561190257611901600860009054906101000a900473ffffffffffffffffffffffffffffffffffffffff16836effffffffffffffffffffffffffffff168673ffffffffffffffffffffffffffffffffffffffff166123f29092919063ffffffff16565b5b7fd93cf895c7d5b2cd7dc7a098b678b3089f37d91f48d9b83a0800a91cbdf052848186602001858560405161193a949392919061495c565b60405180910390a15050505050565b600660149054906101000a900463ffffffff1663ffffffff168263ffffffff16036119a9576040517f08c379a00000000000000000000000000000000000000000000000000000000081526004016119a090614a13565b60405180910390fd5b600073ffffffffffffffffffffffffffffffffffffffff168173ffffffffffffffffffffffffffffffffffffffff1603611a18576040517f08c379a0000000000000000000000000000000000000000000000000000000008152600401611a0f90614aa5565b60405180910390fd5b60006002811115611a2c57611a2b612d0a565b5b83806101600190611a3d9190613279565b6040016020810190611a4f91906132c6565b6002811115611a6157611a60612d0a565b5b03611aa1576040517f08c379a0000000000000000000000000000000000000000000000000000000008152600401611a9890614b37565b60405180910390fd5b6000801b600760008463ffffffff1663ffffffff1681526020019081526020016000205403611b05576040517f08c379a0000000000000000000000000000000000000000000000000000000008152600401611afc90614bc9565b60405180910390fd5b600080611b1185610df6565b915091508181604051602001611b279190613174565b60405160208183030381529060405290611b77576040517f08c379a0000000000000000000000000000000000000000000000000000000008152600401611b6e91906131e0565b60405180910390fd5b505050505050565b600081806101600190611b929190613279565b8060c00190611ba191906136f4565b905090506000811115611d925760008167ffffffffffffffff811115611bca57611bc9613021565b5b604051908082528060200260200182016040528015611bf85781602001602082028036833780820191505090505b50905060008267ffffffffffffffff811115611c1757611c16613021565b5b604051908082528060200260200182016040528015611c5057816020015b611c3d612980565b815260200190600190039081611c355790505b509050611c60848360008461142a565b506000803073ffffffffffffffffffffffffffffffffffffffff16630c9c0c8d866040518263ffffffff1660e01b8152600401611c9d9190612a97565b6040805180830381865afa158015611cb9573d6000803e3d6000fd5b505050506040513d601f19601f82011682018060405250810190611cdd9190613308565b915091507f56a618cda1e34057b7f849a5792f6c8587a2dbe11c83d0254e72cb3daffda7d182828686604051611d16949392919061361f565b60405180910390a13073ffffffffffffffffffffffffffffffffffffffff1663dc52bf9f856040518263ffffffff1660e01b8152600401611d579190613672565b600060405180830381600087803b158015611d7157600080fd5b505af1158015611d85573d6000803e3d6000fd5b5050505050505050611e48565b60008067ffffffffffffffff811115611dae57611dad613021565b5b604051908082528060200260200182016040528015611ddc5781602001602082028036833780820191505090505b50905060008067ffffffffffffffff811115611dfb57611dfa613021565b5b604051908082528060200260200182016040528015611e3457816020015b611e21612980565b815260200190600190039081611e195790505b509050611e44848360008461142a565b5050505b5050565b60008086610180016080016020810190611e669190613a88565b9050600080611ea5836effffffffffffffffffffffffffffff1660016009600f9054906101000a90046effffffffffffffffffffffffffffff16612307565b91509150816effffffffffffffffffffffffffffff16851115611efd576040517f08c379a0000000000000000000000000000000000000000000000000000000008152600401611ef490614c5b565b60405180910390fd5b6000816effffffffffffffffffffffffffffff16118015611f6d5750600073ffffffffffffffffffffffffffffffffffffffff16600860009054906101000a900473ffffffffffffffffffffffffffffffffffffffff1673ffffffffffffffffffffffffffffffffffffffff1614155b15611ff357611ff2600860009054906101000a900473ffffffffffffffffffffffffffffffffffffffff16826effffffffffffffffffffffffffffff16600660009054906101000a900473ffffffffffffffffffffffffffffffffffffffff1673ffffffffffffffffffffffffffffffffffffffff166123f29092919063ffffffff16565b5b600061202260405180602001604052808a73ffffffffffffffffffffffffffffffffffffffff16815250612478565b90506120a4600460009054906101000a900473ffffffffffffffffffffffffffffffffffffffff16846effffffffffffffffffffffffffffff16600660009054906101000a900473ffffffffffffffffffffffffffffffffffffffff1673ffffffffffffffffffffffffffffffffffffffff166124e69092919063ffffffff16565b600460009054906101000a900473ffffffffffffffffffffffffffffffffffffffff1673ffffffffffffffffffffffffffffffffffffffff1663779b432d848b600760008e63ffffffff1663ffffffff16815260200190815260200160002054600660009054906101000a900473ffffffffffffffffffffffffffffffffffffffff168c8c6107d0896040518963ffffffff1660e01b8152600401612150989796959493929190614cc5565b6020604051808303816000875af115801561216f573d6000803e3d6000fd5b505050506040513d601f19601f820116820180604052508101906121939190614d5f565b94508773ffffffffffffffffffffffffffffffffffffffff168963ffffffff167f9a8234aef148991bd0f1e08df206eb275078881051bd92a2d81a1afd0ff37f4a85886040516121e4929190614d8c565b60405180910390a37fd93cf895c7d5b2cd7dc7a098b678b3089f37d91f48d9b83a0800a91cbdf05284888b610180016020018585604051612228949392919061495c565b60405180910390a1436036819055505050505095945050505050565b600073__$610c11827248d0bfa646e7ca34d40f2d3f$__635a53025d6040518060600160405280856000015181526020016122828660200151612635565b815260200185604001516effffffffffffffffffffffffffffff1660001b8152506040518263ffffffff1660e01b81526004016122bf9190614e60565b602060405180830381865af41580156122dc573d6000803e3d6000fd5b505050506040513d601f19601f820116820180604052508101906123009190614e90565b9050919050565b6000806000836effffffffffffffffffffffffffffff160361232f57846000915091506123ea565b8315612390576127106effffffffffffffffffffffffffffff16836effffffffffffffffffffffffffffff16866123669190614eda565b6123709190614f1c565b8561237b9190614f4d565b915081856123899190614f92565b90506123e9565b84915084836127106123a29190614f92565b6effffffffffffffffffffffffffffff16866127106effffffffffffffffffffffffffffff166123d29190614eda565b6123dc9190614f1c565b6123e69190614f4d565b90505b5b935093915050565b6124738363a9059cbb60e01b8484604051602401612411929190614fd5565b604051602081830303815290604052907bffffffffffffffffffffffffffffffffffffffffffffffffffffffff19166020820180517bffffffffffffffffffffffffffffffffffffffffffffffffffffffff83818316178352505050506126eb565b505050565b6060604051806040016040528060018081111561249857612497612d0a565b5b8152602001836040516020016124ae919061501a565b6040516020818303038152906040528152506040516020016124d091906150ba565b6040516020818303038152906040529050919050565b6000811480612570575060008373ffffffffffffffffffffffffffffffffffffffff1663dd62ed3e30856040518363ffffffff1660e01b815260040161252d9291906150dc565b602060405180830381865afa15801561254a573d6000803e3d6000fd5b505050506040513d601f19601f8201168201806040525081019061256e9190615105565b145b6125af576040517f08c379a00000000000000000000000000000000000000000000000000000000081526004016125a6906151a4565b60405180910390fd5b6126308363095ea7b360e01b84846040516024016125ce929190614fd5565b604051602081830303815290604052907bffffffffffffffffffffffffffffffffffffffffffffffffffffffff19166020820180517bffffffffffffffffffffffffffffffffffffffffffffffffffffffff83818316178352505050506126eb565b505050565b600080600281111561264a57612649612d0a565b5b8260000151600281111561266157612660612d0a565b5b0361268b57816020015173ffffffffffffffffffffffffffffffffffffffff1660001b90506126e6565b7f30644e72e131a029b85045b68181585d2833e84879b9709143e1f593f0000001826040516020016126bd9190615206565b6040516020818303038152906040528051906020012060001c6126e091906136c3565b60001b90505b919050565b600061274d826040518060400160405280602081526020017f5361666545524332303a206c6f772d6c6576656c2063616c6c206661696c65648152508573ffffffffffffffffffffffffffffffffffffffff166127b39092919063ffffffff16565b905060008151148061276f57508080602001905181019061276e9190614454565b5b6127ae576040517f08c379a00000000000000000000000000000000000000000000000000000000081526004016127a590615293565b60405180910390fd5b505050565b60606127c284846000856127cb565b90509392505050565b606082471015612810576040517f08c379a000000000000000000000000000000000000000000000000000000000815260040161280790615325565b60405180910390fd5b6000808673ffffffffffffffffffffffffffffffffffffffff1685876040516128399190615381565b60006040518083038185875af1925050503d8060008114612876576040519150601f19603f3d011682016040523d82523d6000602084013e61287b565b606091505b509150915061288c87838387612898565b92505050949350505050565b606083156128fa5760008351036128f2576128b28561290d565b6128f1576040517f08c379a00000000000000000000000000000000000000000000000000000000081526004016128e8906153e4565b60405180910390fd5b5b829050612905565b6129048383612930565b5b949350505050565b6000808273ffffffffffffffffffffffffffffffffffffffff163b119050919050565b6000825111156129435781518083602001fd5b806040517f08c379a000000000000000000000000000000000000000000000000000000000815260040161297791906131e0565b60405180910390fd5b6040518060a001604052806129936129bb565b8152602001600080191681526020016000801916815260200160608152602001606081525090565b6040518060800160405280600490602082028036833780820191505090505090565b60006effffffffffffffffffffffffffffff82169050919050565b612a01816129dd565b82525050565b6000602082019050612a1c60008301846129f8565b92915050565b600073ffffffffffffffffffffffffffffffffffffffff82169050919050565b6000612a4d82612a22565b9050919050565b612a5d81612a42565b82525050565b6000602082019050612a786000830184612a54565b92915050565b6000819050919050565b612a9181612a7e565b82525050565b6000602082019050612aac6000830184612a88565b92915050565b6000604051905090565b600080fd5b600080fd5b612acf81612a7e565b8114612ada57600080fd5b50565b600081359050612aec81612ac6565b92915050565b600060208284031215612b0857612b07612abc565b5b6000612b1684828501612add565b91505092915050565b60008115159050919050565b612b3481612b1f565b82525050565b6000602082019050612b4f6000830184612b2b565b92915050565b6000819050919050565b612b6881612b55565b82525050565b6000602082019050612b836000830184612b5f565b92915050565b600063ffffffff82169050919050565b612ba281612b89565b8114612bad57600080fd5b50565b600081359050612bbf81612b99565b92915050565b600060208284031215612bdb57612bda612abc565b5b6000612be984828501612bb0565b91505092915050565b6000612bfd82612a22565b9050919050565b612c0d81612bf2565b82525050565b6000602082019050612c286000830184612c04565b92915050565b612c3781612a42565b8114612c4257600080fd5b50565b600081359050612c5481612c2e565b92915050565b600060208284031215612c7057612c6f612abc565b5b6000612c7e84828501612c45565b91505092915050565b612c9081612b89565b82525050565b6000602082019050612cab6000830184612c87565b92915050565b612cba81612b55565b8114612cc557600080fd5b50565b600081359050612cd781612cb1565b92915050565b600060208284031215612cf357612cf2612abc565b5b6000612d0184828501612cc8565b91505092915050565b7f4e487b7100000000000000000000000000000000000000000000000000000000600052602160045260246000fd5b60038110612d4a57612d49612d0a565b5b50565b6000819050612d5b82612d39565b919050565b6000612d6b82612d4d565b9050919050565b612d7b81612d60565b82525050565b6000606082019050612d966000830186612d72565b612da36020830185612a54565b612db06040830184612a88565b949350505050565b60008060408385031215612dcf57612dce612abc565b5b6000612ddd85828601612add565b9250506020612dee85828601612cc8565b9150509250929050565b600080fd5b600080fd5b600080fd5b60008083601f840112612e1d57612e1c612df8565b5b8235905067ffffffffffffffff811115612e3a57612e39612dfd565b5b602083019150836020820283011115612e5657612e55612e02565b5b9250929050565b60008060208385031215612e7457612e73612abc565b5b600083013567ffffffffffffffff811115612e9257612e91612ac1565b5b612e9e85828601612e07565b92509250509250929050565b600080fd5b60006102208284031215612ec657612ec5612eaa565b5b81905092915050565b600080600080600060a08688031215612eeb57612eea612abc565b5b600086013567ffffffffffffffff811115612f0957612f08612ac1565b5b612f1588828901612eaf565b9550506020612f2688828901612bb0565b9450506040612f3788828901612c45565b9350506060612f4888828901612cc8565b9250506080612f5988828901612add565b9150509295509295909350565b600067ffffffffffffffff82169050919050565b612f8381612f66565b82525050565b6000602082019050612f9e6000830184612f7a565b92915050565b600082825260208201905092915050565b7f5472616e736163744d6f64756c653a204e6f207472616e73616374696f6e7300600082015250565b6000612feb601f83612fa4565b9150612ff682612fb5565b602082019050919050565b6000602082019050818103600083015261301a81612fde565b9050919050565b7f4e487b7100000000000000000000000000000000000000000000000000000000600052604160045260246000fd5b7f4e487b7100000000000000000000000000000000000000000000000000000000600052603260045260246000fd5b600080fd5b600080fd5b600080fd5b600082356001610220038336030381126130ab576130aa61307f565b5b80830191505092915050565b600081905092915050565b7f5472616e736163744d6f64756c653a2000000000000000000000000000000000600082015250565b60006130f86010836130b7565b9150613103826130c2565b601082019050919050565b600081519050919050565b60005b8381101561313757808201518184015260208101905061311c565b60008484015250505050565b600061314e8261310e565b61315881856130b7565b9350613168818560208601613119565b80840191505092915050565b600061317f826130eb565b915061318b8284613143565b915081905092915050565b6000601f19601f8301169050919050565b60006131b28261310e565b6131bc8185612fa4565b93506131cc818560208601613119565b6131d581613196565b840191505092915050565b600060208201905081810360008301526131fa81846131a7565b905092915050565b7f4e487b7100000000000000000000000000000000000000000000000000000000600052601160045260246000fd5b600061323c82612a7e565b91507fffffffffffffffffffffffffffffffffffffffffffffffffffffffffffffffff820361326e5761326d613202565b5b600182019050919050565b60008235600160e0038336030381126132955761329461307f565b5b80830191505092915050565b600381106132ae57600080fd5b50565b6000813590506132c0816132a1565b92915050565b6000602082840312156132dc576132db612abc565b5b60006132ea848285016132b1565b91505092915050565b60008151905061330281612ac6565b92915050565b6000806040838503121561331f5761331e612abc565b5b600061332d858286016132f3565b925050602061333e858286016132f3565b9150509250929050565b600081519050919050565b600082825260208201905092915050565b6000819050602082019050919050565b61337d81612b55565b82525050565b600061338f8383613374565b60208301905092915050565b6000602082019050919050565b60006133b382613348565b6133bd8185613353565b93506133c883613364565b8060005b838110156133f95781516133e08882613383565b97506133eb8361339b565b9250506001810190506133cc565b5085935050505092915050565b600081519050919050565b600082825260208201905092915050565b6000819050602082019050919050565b600060049050919050565b600081905092915050565b6000819050919050565b6000602082019050919050565b61346881613432565b613472818461343d565b925061347d82613448565b8060005b838110156134ae5781516134958782613383565b96506134a083613452565b925050600181019050613481565b505050505050565b600081519050919050565b600082825260208201905092915050565b60006134dd826134b6565b6134e781856134c1565b93506134f7818560208601613119565b61350081613196565b840191505092915050565b600061010083016000830151613524600086018261345f565b5060208301516135376080860182613374565b50604083015161354a60a0860182613374565b50606083015184820360c086015261356282826134d2565b915050608083015184820360e086015261357c82826134d2565b9150508091505092915050565b6000613595838361350b565b905092915050565b6000602082019050919050565b60006135b582613406565b6135bf8185613411565b9350836020820285016135d185613422565b8060005b8581101561360d57848403895281516135ee8582613589565b94506135f98361359d565b925060208a019950506001810190506135d5565b50829750879550505050505092915050565b60006080820190506136346000830187612a88565b6136416020830186612a88565b818103604083015261365381856133a8565b9050818103606083015261366781846135aa565b905095945050505050565b6000602082019050818103600083015261368c81846133a8565b905092915050565b7f4e487b7100000000000000000000000000000000000000000000000000000000600052601260045260246000fd5b60006136ce82612a7e565b91506136d983612a7e565b9250826136e9576136e8613694565b5b828206905092915050565b600080833560016020038436030381126137115761371061307f565b5b80840192508235915067ffffffffffffffff82111561373357613732613084565b5b60208301925060208202360383131561374f5761374e613089565b5b509250929050565b600061376282612a7e565b915061376d83612a7e565b925082820190508082111561378557613784613202565b5b92915050565b600068ffffffffffffffffff82169050919050565b6137a98161378b565b81146137b457600080fd5b50565b6000813590506137c6816137a0565b92915050565b6000602082840312156137e2576137e1612abc565b5b60006137f0848285016137b7565b91505092915050565b61380281612f66565b811461380d57600080fd5b50565b60008135905061381f816137f9565b92915050565b60006020828403121561383b5761383a612abc565b5b600061384984828501613810565b91505092915050565b600061ffff82169050919050565b61386981613852565b811461387457600080fd5b50565b60008135905061388681613860565b92915050565b6000602082840312156138a2576138a1612abc565b5b60006138b084828501613877565b91505092915050565b600080833560016020038436030381126138d6576138d561307f565b5b80840192508235915067ffffffffffffffff8211156138f8576138f7613084565b5b60208301925060208202360383131561391457613913613089565b5b509250929050565b600061392782612a7e565b915061393283612a7e565b925082820390508181111561394a57613949613202565b5b92915050565b600080fd5b61395e82613196565b810181811067ffffffffffffffff8211171561397d5761397c613021565b5b80604052505050565b6000613990612ab2565b905061399c8282613955565b919050565b600080fd5b600381106139b357600080fd5b50565b6000813590506139c5816139a6565b92915050565b6000606082840312156139e1576139e0613950565b5b6139eb6060613986565b905060006139fb848285016139b6565b6000830152506020613a0f84828501612c45565b6020830152506040613a2384828501612add565b60408301525092915050565b600060608284031215613a4557613a44612abc565b5b6000613a53848285016139cb565b91505092915050565b613a65816129dd565b8114613a7057600080fd5b50565b600081359050613a8281613a5c565b92915050565b600060208284031215613a9e57613a9d612abc565b5b6000613aac84828501613a73565b91505092915050565b600060a08284031215613acb57613aca613950565b5b613ad56060613986565b90506000613ae584828501612cc8565b6000830152506020613af9848285016139cb565b6020830152506080613b0d84828501613a73565b60408301525092915050565b600060a08284031215613b2f57613b2e612abc565b5b6000613b3d84828501613ab5565b91505092915050565b600082905092915050565b600082905092915050565b6000613b6b6020840184612add565b905092915050565b613b7c81612a7e565b82525050565b60408201613b936000830183613b5c565b613ba06000850182613b73565b50613bae6020830183613b5c565b613bbb6020850182613b73565b50505050565b600082905092915050565b600082905092915050565b82818337505050565b613bec60408383613bd7565b5050565b60808201613c016000830183613bcc565b613c0e6000850182613be0565b50613c1c6040830183613bcc565b613c296040850182613be0565b50505050565b6101008201613c416000830183613b51565b613c4e6000850182613b82565b50613c5c6040830183613bc1565b613c696040850182613bf0565b50613c7760c0830183613b51565b613c8460c0850182613b82565b50505050565b6000613c996020840184612cc8565b905092915050565b600080fd5b600080fd5b600080fd5b60008083356001602003843603038112613ccd57613ccc613cab565b5b83810192508235915060208301925067ffffffffffffffff821115613cf557613cf4613ca1565b5b602082023603831315613d0b57613d0a613ca6565b5b509250929050565b600082825260208201905092915050565b600080fd5b6000613d358385613d13565b93507f07ffffffffffffffffffffffffffffffffffffffffffffffffffffffffffffff831115613d6857613d67613d24565b5b602083029250613d79838584613bd7565b82840190509392505050565b60008235600160e003833603038112613da157613da0613cab565b5b82810191505092915050565b6000613dbc6020840184613877565b905092915050565b613dcd81613852565b82525050565b6000613de260208401846137b7565b905092915050565b613df38161378b565b82525050565b6000613e0860208401846132b1565b905092915050565b60038110613e2157613e20612d0a565b5b50565b6000819050613e3282613e10565b919050565b6000613e4282613e24565b9050919050565b613e5281613e37565b82525050565b6000613e676020840184613810565b905092915050565b613e7881612f66565b82525050565b6000613e8d6020840184612c45565b905092915050565b613e9e81612a42565b82525050565b60008083356001602003843603038112613ec157613ec0613cab565b5b83810192508235915060208301925067ffffffffffffffff821115613ee957613ee8613ca1565b5b602082023603831315613eff57613efe613ca6565b5b509250929050565b600082825260208201905092915050565b6000819050919050565b600082905092915050565b613f3960808383613bd7565b5050565b60008083356001602003843603038112613f5a57613f59613cab565b5b83810192508235915060208301925067ffffffffffffffff821115613f8257613f81613ca1565b5b600182023603831315613f9857613f97613ca6565b5b509250929050565b82818337600083830152505050565b6000613fbb83856134c1565b9350613fc8838584613fa0565b613fd183613196565b840190509392505050565b60006101008301613ff06000840184613f22565b613ffd6000860182613f2d565b5061400b6080840184613c8a565b6140186080860182613374565b5061402660a0840184613c8a565b61403360a0860182613374565b5061404160c0840184613f3d565b85830360c0870152614054838284613faf565b9250505061406560e0840184613f3d565b85830360e0870152614078838284613faf565b925050508091505092915050565b60006140928383613fdc565b905092915050565b600082356001610100038336030381126140b7576140b6613cab565b5b82810191505092915050565b6000602082019050919050565b60006140dc8385613f07565b9350836020840285016140ee84613f18565b8060005b87811015614132578484038952614109828461409a565b6141138582614086565b945061411e836140c3565b925060208a019950506001810190506140f2565b50829750879450505050509392505050565b600060e083016141576000840184613dad565b6141646000860182613dc4565b506141726020840184613dd3565b61417f6020860182613dea565b5061418d6040840184613df9565b61419a6040860182613e49565b506141a86060840184613e58565b6141b56060860182613e6f565b506141c36080840184613e7e565b6141d06080860182613e95565b506141de60a0840184613c8a565b6141eb60a0860182613374565b506141f960c0840184613ea4565b85830360c087015261420c8382846140d0565b925050508091505092915050565b600082905092915050565b600082905092915050565b600061423f60208401846139b6565b905092915050565b61425081612d60565b82525050565b606082016142676000830183614230565b6142746000850182614247565b506142826020830183613e7e565b61428f6020850182613e95565b5061429d6040830183613b5c565b6142aa6040850182613b73565b50505050565b60006142bf6020840184613a73565b905092915050565b6142d0816129dd565b82525050565b60a082016142e76000830183613c8a565b6142f46000850182613374565b506143026020830183614225565b61430f6020850182614256565b5061431d60808301836142b0565b61432a60808501826142c7565b50505050565b600061022083016143446000840184613b46565b6143516000860182613c2f565b50614360610100840184613c8a565b61436e610100860182613374565b5061437d610120840184613cb0565b858303610120870152614391838284613d29565b925050506143a3610140840184613cb0565b8583036101408701526143b7838284613d29565b925050506143c9610160840184613d85565b8482036101608601526143dc8282614144565b9150506143ed61018084018461421a565b6143fb6101808601826142d6565b508091505092915050565b600060208201905081810360008301526144208184614330565b905092915050565b61443181612b1f565b811461443c57600080fd5b50565b60008151905061444e81614428565b92915050565b60006020828403121561446a57614469612abc565b5b60006144788482850161443f565b91505092915050565b7f5472616e736163744d6f64756c653a204e6f746520616c72656164792073706560008201527f6e74000000000000000000000000000000000000000000000000000000000000602082015250565b60006144dd602283612fa4565b91506144e882614481565b604082019050919050565b6000602082019050818103600083015261450c816144d0565b9050919050565b61451c81613852565b82525050565b600061452e8385613353565b93507f07ffffffffffffffffffffffffffffffffffffffffffffffffffffffffffffff83111561456157614560613d24565b5b602083029250614572838584613bd7565b82840190509392505050565b60006040820190506145936000830186614513565b81810360208301526145a6818486614522565b9050949350505050565b600082356001610100038336030381126145cd576145cc61307f565b5b80830191505092915050565b600067ffffffffffffffff8211156145f4576145f3613021565b5b602082029050919050565b600061461261460d846145d9565b613986565b9050806020840283018581111561462c5761462b612e02565b5b835b8181101561465557806146418882612cc8565b84526020840193505060208101905061462e565b5050509392505050565b600082601f83011261467457614673612df8565b5b60046146818482856145ff565b91505092915050565b600080fd5b600067ffffffffffffffff8211156146aa576146a9613021565b5b6146b382613196565b9050602081019050919050565b60006146d36146ce8461468f565b613986565b9050828152602081018484840111156146ef576146ee61468a565b5b6146fa848285613fa0565b509392505050565b600082601f83011261471757614716612df8565b5b81356147278482602086016146c0565b91505092915050565b6000610100828403121561474757614746613950565b5b61475160a0613986565b905060006147618482850161465f565b600083015250608061477584828501612cc8565b60208301525060a061478984828501612cc8565b60408301525060c082013567ffffffffffffffff8111156147ad576147ac6139a1565b5b6147b984828501614702565b60608301525060e082013567ffffffffffffffff8111156147dd576147dc6139a1565b5b6147e984828501614702565b60808301525092915050565b60006148013683614730565b9050919050565b60006020828403121561481e5761481d612abc565b5b600061482c848285016139b6565b91505092915050565b7f5472616e736163744d6f64756c653a204f6e6c7920455243323020737570706f60008201527f7274656400000000000000000000000000000000000000000000000000000000602082015250565b6000614891602483612fa4565b915061489c82614835565b604082019050919050565b600060208201905081810360008301526148c081614884565b9050919050565b606082016148d86000830183614230565b6148e56000850182614247565b506148f36020830183613e7e565b6149006020850182613e95565b5061490e6040830183613b5c565b61491b6040850182613b73565b50505050565b6000819050919050565b600061494661494161493c846129dd565b614921565b612a7e565b9050919050565b6149568161492b565b82525050565b600060c0820190506149716000830187612a54565b61497e60208301866148c7565b61498b608083018561494d565b61499860a083018461494d565b95945050505050565b7f5472616e736163744d6f64756c653a20557365206c6f63616c20756e7368696560008201527f6c64000000000000000000000000000000000000000000000000000000000000602082015250565b60006149fd602283612fa4565b9150614a08826149a1565b604082019050919050565b60006020820190508181036000830152614a2c816149f0565b9050919050565b7f5472616e736163744d6f64756c653a20496e76616c696420726563697069656e60008201527f7400000000000000000000000000000000000000000000000000000000000000602082015250565b6000614a8f602183612fa4565b9150614a9a82614a33565b604082019050919050565b60006020820190508181036000830152614abe81614a82565b9050919050565b7f5472616e736163744d6f64756c653a204d75737420696e636c75646520756e7360008201527f6869656c64000000000000000000000000000000000000000000000000000000602082015250565b6000614b21602583612fa4565b9150614b2c82614ac5565b604082019050919050565b60006020820190508181036000830152614b5081614b14565b9050919050565b7f5472616e736163744d6f64756c653a20556e6b6e6f776e2064657374696e617460008201527f696f6e0000000000000000000000000000000000000000000000000000000000602082015250565b6000614bb3602383612fa4565b9150614bbe82614b57565b604082019050919050565b60006020820190508181036000830152614be281614ba6565b9050919050565b7f5472616e736163744d6f64756c653a206d61784665652065786365656473206260008201527f6173650000000000000000000000000000000000000000000000000000000000602082015250565b6000614c45602383612fa4565b9150614c5082614be9565b604082019050919050565b60006020820190508181036000830152614c7481614c38565b9050919050565b600082825260208201905092915050565b6000614c97826134b6565b614ca18185614c7b565b9350614cb1818560208601613119565b614cba81613196565b840191505092915050565b600061010082019050614cdb600083018b61494d565b614ce8602083018a612c87565b614cf56040830189612b5f565b614d026060830188612a54565b614d0f6080830187612b5f565b614d1c60a0830186612a88565b614d2960c0830185612c87565b81810360e0830152614d3b8184614c8c565b90509998505050505050505050565b600081519050614d59816137f9565b92915050565b600060208284031215614d7557614d74612abc565b5b6000614d8384828501614d4a565b91505092915050565b6000604082019050614da1600083018561494d565b614dae6020830184612f7a565b9392505050565b600060039050919050565b600081905092915050565b6000819050919050565b614dde81612b55565b82525050565b6000614df08383614dd5565b60208301905092915050565b6000602082019050919050565b614e1281614db5565b614e1c8184614dc0565b9250614e2782614dcb565b8060005b83811015614e58578151614e3f8782614de4565b9650614e4a83614dfc565b925050600181019050614e2b565b505050505050565b6000606082019050614e756000830184614e09565b92915050565b600081519050614e8a81612cb1565b92915050565b600060208284031215614ea657614ea5612abc565b5b6000614eb484828501614e7b565b91505092915050565b600070ffffffffffffffffffffffffffffffffff82169050919050565b6000614ee582614ebd565b9150614ef083614ebd565b9250828202614efe81614ebd565b91508282048414831517614f1557614f14613202565b5b5092915050565b6000614f2782614ebd565b9150614f3283614ebd565b925082614f4257614f41613694565b5b828204905092915050565b6000614f5882614ebd565b9150614f6383614ebd565b9250828203905070ffffffffffffffffffffffffffffffffff811115614f8c57614f8b613202565b5b92915050565b6000614f9d826129dd565b9150614fa8836129dd565b925082820390506effffffffffffffffffffffffffffff811115614fcf57614fce613202565b5b92915050565b6000604082019050614fea6000830185612a54565b614ff76020830184612a88565b9392505050565b6020820160008201516150146000850182613e95565b50505050565b600060208201905061502f6000830184614ffe565b92915050565b6002811061504657615045612d0a565b5b50565b600081905061505782615035565b919050565b600061506782615049565b9050919050565b6150778161505c565b82525050565b6000604083016000830151615095600086018261506e565b50602083015184820360208601526150ad82826134d2565b9150508091505092915050565b600060208201905081810360008301526150d4818461507d565b905092915050565b60006040820190506150f16000830185612a54565b6150fe6020830184612a54565b9392505050565b60006020828403121561511b5761511a612abc565b5b6000615129848285016132f3565b91505092915050565b7f5361666545524332303a20617070726f76652066726f6d206e6f6e2d7a65726f60008201527f20746f206e6f6e2d7a65726f20616c6c6f77616e636500000000000000000000602082015250565b600061518e603683612fa4565b915061519982615132565b604082019050919050565b600060208201905081810360008301526151bd81615181565b9050919050565b6060820160008201516151da6000850182614247565b5060208201516151ed6020850182613e95565b5060408201516152006040850182613b73565b50505050565b600060608201905061521b60008301846151c4565b92915050565b7f5361666545524332303a204552433230206f7065726174696f6e20646964206e60008201527f6f74207375636365656400000000000000000000000000000000000000000000602082015250565b600061527d602a83612fa4565b915061528882615221565b604082019050919050565b600060208201905081810360008301526152ac81615270565b9050919050565b7f416464726573733a20696e73756666696369656e742062616c616e636520666f60008201527f722063616c6c0000000000000000000000000000000000000000000000000000602082015250565b600061530f602683612fa4565b915061531a826152b3565b604082019050919050565b6000602082019050818103600083015261533e81615302565b9050919050565b600081905092915050565b600061535b826134b6565b6153658185615345565b9350615375818560208601613119565b80840191505092915050565b600061538d8284615350565b915081905092915050565b7f416464726573733a2063616c6c20746f206e6f6e2d636f6e7472616374000000600082015250565b60006153ce601d83612fa4565b91506153d982615398565b602082019050919050565b600060208201905081810360008301526153fd816153c1565b905091905056fea26469706673582212204d51a6bfce8e53b71ecfd9eb174c53ee00e65e6be79184b9b0e9777c64d4d28864736f6c63430008110033","linkReferences":{"contracts/railgun/logic/Poseidon.sol":{"PoseidonT4":[{"start":8808,"length":20}]}}},"methodIdentifiers":{"ZERO_VALUE()":"ec732959","atomicCrossChainUnshield((((uint256,uint256),(uint256[2],uint256[2]),(uint256,uint256)),bytes32,bytes32[],bytes32[],(uint16,uint72,uint8,uint64,address,bytes32,(bytes32[4],bytes32,bytes32,bytes,bytes)[]),(bytes32,(uint8,address,uint256),uint120)),uint32,address,bytes32,uint256)":"e484d408","initialized()":"158ef93e","lastEventBlock()":"cd3efe06","localDomain()":"8d3638f4","merkleModule()":"90de3f6e","merkleRoot()":"2eb4a7ab","messageTransmitter()":"7b04c181","nextLeafIndex()":"0be4f422","nftFee()":"9071adc0","nullifiers(uint256,bytes32)":"f19ea903","owner()":"8da5cb5b","remotePools(uint32)":"30ed93c3","rootHistory(uint256,bytes32)":"c718dbda","shieldFee()":"01c37790","shieldModule()":"35db307c","snarkSafetyVector(uint256)":"129458f4","testingMode()":"c8f35b5d","tokenBlocklist(address)":"815b534f","tokenIDMapping(bytes32)":"b8ceaef2","tokenMessenger()":"46117830","transact((((uint256,uint256),(uint256[2],uint256[2]),(uint256,uint256)),bytes32,bytes32[],bytes32[],(uint16,uint72,uint8,uint64,address,bytes32,(bytes32[4],bytes32,bytes32,bytes,bytes)[]),(bytes32,(uint8,address,uint256),uint120))[])":"d8ae136a","transactModule()":"048e0990","treasury()":"61d027b3","treeNumber()":"66503315","unshieldFee()":"053ed12a","usdc()":"3e413bee","verifierModule()":"41506fc1","zeros(uint256)":"e8295588"},"id":24}