{"abi":[{"type":"constructor","inputs":[],"stateMutability":"nonpayable"},{"type":"receive","stateMutability":"payable"},{"type":"function","name":"getBalance","inputs":[{"name":"token","type":"address","internalType":"address"}],"outputs":[{"name":"","type":"uint256","internalType":"uint256"}],"stateMutability":"view"},{"type":"function","name":"onTokenTransfer","inputs":[{"name":"from","type":"address","internalType":"address"},{"name":"amount","type":"uint256","internalType":"uint256"},{"name":"","type":"bytes","internalType":"bytes"}],"outputs":[{"name":"","type":"bool","internalType":"bool"}],"stateMutability":"nonpayable"},{"type":"function","name":"owner","inputs":[],"outputs":[{"name":"","type":"address","internalType":"address"}],"stateMutability":"view"},{"type":"function","name":"recordFee","inputs":[{"name":"token","type":"address","internalType":"address"},{"name":"from","type":"address","internalType":"address"},{"name":"amount","type":"uint256","internalType":"uint256"}],"outputs":[],"stateMutability":"nonpayable"},{"type":"function","name":"totalCollected","inputs":[{"name":"","type":"address","internalType":"address"}],"outputs":[{"name":"","type":"uint256","internalType":"uint256"}],"stateMutability":"view"},{"type":"function","name":"transferOwnership","inputs":[{"name":"newOwner","type":"address","internalType":"address"}],"outputs":[],"stateMutability":"nonpayable"},{"type":"function","name":"withdraw","inputs":[{"name":"token","type":"address","internalType":"address"},{"name":"to","type":"address","internalType":"address"},{"name":"amount","type":"uint256","internalType":"uint256"}],"outputs":[],"stateMutability":"nonpayable"},{"type":"event","name":"FeeReceived","inputs":[{"name":"token","type":"address","indexed":true,"internalType":"address"},{"name":"from","type":"address","indexed":true,"internalType":"address"},{"name":"amount","type":"uint256","indexed":false,"internalType":"uint256"}],"anonymous":false},{"type":"event","name":"OwnershipTransferred","inputs":[{"name":"oldOwner","type":"address","indexed":true,"internalType":"address"},{"name":"newOwner","type":"address","indexed":true,"internalType":"address"}],"anonymous":false},{"type":"event","name":"Withdrawn","inputs":[{"name":"token","type":"address","indexed":true,"internalType":"address"},{"name":"to","type":"address","indexed":true,"internalType":"address"},{"name":"amount","type":"uint256","indexed":false,"internalType":"uint256"}],"anonymous":false}],"bytecode":{"object":"0x608060405234801561001057600080fd5b50336000806101000a81548173ffffffffffffffffffffffffffffffffffffffff021916908373ffffffffffffffffffffffffffffffffffffffff1602179055506111e2806100606000396000f3fe6080604052600436106100745760003560e01c8063d9caed121161004e578063d9caed1214610111578063f2fde38b1461013a578063f3f0531314610163578063f8b2cb4f146101a05761007b565b80632a355f7c146100805780638da5cb5b146100a9578063a4c0ed36146100d45761007b565b3661007b57005b600080fd5b34801561008c57600080fd5b506100a760048036038101906100a29190610b2a565b6101dd565b005b3480156100b557600080fd5b506100be61029d565b6040516100cb9190610b8c565b60405180910390f35b3480156100e057600080fd5b506100fb60048036038101906100f69190610c0c565b6102c1565b6040516101089190610c9b565b60405180910390f35b34801561011d57600080fd5b5061013860048036038101906101339190610b2a565b61038a565b005b34801561014657600080fd5b50610161600480360381019061015c9190610cb6565b61051c565b005b34801561016f57600080fd5b5061018a60048036038101906101859190610cb6565b6106d6565b6040516101979190610cf2565b60405180910390f35b3480156101ac57600080fd5b506101c760048036038101906101c29190610cb6565b6106ee565b6040516101d49190610cf2565b60405180910390f35b80600160008573ffffffffffffffffffffffffffffffffffffffff1673ffffffffffffffffffffffffffffffffffffffff168152602001908152602001600020600082825461022c9190610d3c565b925050819055508173ffffffffffffffffffffffffffffffffffffffff168373ffffffffffffffffffffffffffffffffffffffff167fb976ce971d9fe55f355fa5ff14a6ad1f520b70b700c7dcc5921ca0a64a2da26a836040516102909190610cf2565b60405180910390a3505050565b60008054906101000a900473ffffffffffffffffffffffffffffffffffffffff1681565b600083600160003373ffffffffffffffffffffffffffffffffffffffff1673ffffffffffffffffffffffffffffffffffffffff16815260200190815260200160002060008282546103129190610d3c565b925050819055508473ffffffffffffffffffffffffffffffffffffffff163373ffffffffffffffffffffffffffffffffffffffff167fb976ce971d9fe55f355fa5ff14a6ad1f520b70b700c7dcc5921ca0a64a2da26a866040516103769190610cf2565b60405180910390a360019050949350505050565b60008054906101000a900473ffffffffffffffffffffffffffffffffffffffff1673ffffffffffffffffffffffffffffffffffffffff163373ffffffffffffffffffffffffffffffffffffffff1614610418576040517f08c379a000000000000000000000000000000000000000000000000000000000815260040161040f90610dcd565b60405180910390fd5b600073ffffffffffffffffffffffffffffffffffffffff168273ffffffffffffffffffffffffffffffffffffffff1603610487576040517f08c379a000000000000000000000000000000000000000000000000000000000815260040161047e90610e39565b60405180910390fd5b6104b282828573ffffffffffffffffffffffffffffffffffffffff166107719092919063ffffffff16565b8173ffffffffffffffffffffffffffffffffffffffff168373ffffffffffffffffffffffffffffffffffffffff167fd1c19fbcd4551a5edfb66d43d2e337c04837afda3482b42bdf569a8fccdae5fb8360405161050f9190610cf2565b60405180910390a3505050565b60008054906101000a900473ffffffffffffffffffffffffffffffffffffffff1673ffffffffffffffffffffffffffffffffffffffff163373ffffffffffffffffffffffffffffffffffffffff16146105aa576040517f08c379a00000000000000000000000000000000000000000000000000000000081526004016105a190610dcd565b60405180910390fd5b600073ffffffffffffffffffffffffffffffffffffffff168173ffffffffffffffffffffffffffffffffffffffff1603610619576040517f08c379a000000000000000000000000000000000000000000000000000000000815260040161061090610e39565b60405180910390fd5b8073ffffffffffffffffffffffffffffffffffffffff1660008054906101000a900473ffffffffffffffffffffffffffffffffffffffff1673ffffffffffffffffffffffffffffffffffffffff167f8be0079c531659141344cd1fd0a4f28419497f9722a3daafe3b4186f6b6457e060405160405180910390a3806000806101000a81548173ffffffffffffffffffffffffffffffffffffffff021916908373ffffffffffffffffffffffffffffffffffffffff16021790555050565b60016020528060005260406000206000915090505481565b60008173ffffffffffffffffffffffffffffffffffffffff166370a08231306040518263ffffffff1660e01b81526004016107299190610b8c565b602060405180830381865afa158015610746573d6000803e3d6000fd5b505050506040513d601f19601f8201168201806040525081019061076a9190610e6e565b9050919050565b6107f28363a9059cbb60e01b8484604051602401610790929190610e9b565b604051602081830303815290604052907bffffffffffffffffffffffffffffffffffffffffffffffffffffffff19166020820180517bffffffffffffffffffffffffffffffffffffffffffffffffffffffff83818316178352505050506107f7565b505050565b6000610859826040518060400160405280602081526020017f5361666545524332303a206c6f772d6c6576656c2063616c6c206661696c65648152508573ffffffffffffffffffffffffffffffffffffffff166108bf9092919063ffffffff16565b905060008151148061087b57508080602001905181019061087a9190610ef0565b5b6108ba576040517f08c379a00000000000000000000000000000000000000000000000000000000081526004016108b190610f8f565b60405180910390fd5b505050565b60606108ce84846000856108d7565b90509392505050565b60608247101561091c576040517f08c379a000000000000000000000000000000000000000000000000000000000815260040161091390611021565b60405180910390fd5b6000808673ffffffffffffffffffffffffffffffffffffffff16858760405161094591906110b2565b60006040518083038185875af1925050503d8060008114610982576040519150601f19603f3d011682016040523d82523d6000602084013e610987565b606091505b5091509150610998878383876109a4565b92505050949350505050565b60608315610a065760008351036109fe576109be85610a19565b6109fd576040517f08c379a00000000000000000000000000000000000000000000000000000000081526004016109f490611115565b60405180910390fd5b5b829050610a11565b610a108383610a3c565b5b949350505050565b6000808273ffffffffffffffffffffffffffffffffffffffff163b119050919050565b600082511115610a4f5781518083602001fd5b806040517f08c379a0000000000000000000000000000000000000000000000000000000008152600401610a83919061118a565b60405180910390fd5b600080fd5b600080fd5b600073ffffffffffffffffffffffffffffffffffffffff82169050919050565b6000610ac182610a96565b9050919050565b610ad181610ab6565b8114610adc57600080fd5b50565b600081359050610aee81610ac8565b92915050565b6000819050919050565b610b0781610af4565b8114610b1257600080fd5b50565b600081359050610b2481610afe565b92915050565b600080600060608486031215610b4357610b42610a8c565b5b6000610b5186828701610adf565b9350506020610b6286828701610adf565b9250506040610b7386828701610b15565b9150509250925092565b610b8681610ab6565b82525050565b6000602082019050610ba16000830184610b7d565b92915050565b600080fd5b600080fd5b600080fd5b60008083601f840112610bcc57610bcb610ba7565b5b8235905067ffffffffffffffff811115610be957610be8610bac565b5b602083019150836001820283011115610c0557610c04610bb1565b5b9250929050565b60008060008060608587031215610c2657610c25610a8c565b5b6000610c3487828801610adf565b9450506020610c4587828801610b15565b935050604085013567ffffffffffffffff811115610c6657610c65610a91565b5b610c7287828801610bb6565b925092505092959194509250565b60008115159050919050565b610c9581610c80565b82525050565b6000602082019050610cb06000830184610c8c565b92915050565b600060208284031215610ccc57610ccb610a8c565b5b6000610cda84828501610adf565b91505092915050565b610cec81610af4565b82525050565b6000602082019050610d076000830184610ce3565b92915050565b7f4e487b7100000000000000000000000000000000000000000000000000000000600052601160045260246000fd5b6000610d4782610af4565b9150610d5283610af4565b9250828201905080821115610d6a57610d69610d0d565b5b92915050565b600082825260208201905092915050565b7f41726d61646154726561737572793a206e6f74206f776e657200000000000000600082015250565b6000610db7601983610d70565b9150610dc282610d81565b602082019050919050565b60006020820190508181036000830152610de681610daa565b9050919050565b7f41726d61646154726561737572793a207a65726f206164647265737300000000600082015250565b6000610e23601c83610d70565b9150610e2e82610ded565b602082019050919050565b60006020820190508181036000830152610e5281610e16565b9050919050565b600081519050610e6881610afe565b92915050565b600060208284031215610e8457610e83610a8c565b5b6000610e9284828501610e59565b91505092915050565b6000604082019050610eb06000830185610b7d565b610ebd6020830184610ce3565b9392505050565b610ecd81610c80565b8114610ed857600080fd5b50565b600081519050610eea81610ec4565b92915050565b600060208284031215610f0657610f05610a8c565b5b6000610f1484828501610edb565b91505092915050565b7f5361666545524332303a204552433230206f7065726174696f6e20646964206e60008201527f6f74207375636365656400000000000000000000000000000000000000000000602082015250565b6000610f79602a83610d70565b9150610f8482610f1d565b604082019050919050565b60006020820190508181036000830152610fa881610f6c565b9050919050565b7f416464726573733a20696e73756666696369656e742062616c616e636520666f60008201527f722063616c6c0000000000000000000000000000000000000000000000000000602082015250565b600061100b602683610d70565b915061101682610faf565b604082019050919050565b6000602082019050818103600083015261103a81610ffe565b9050919050565b600081519050919050565b600081905092915050565b60005b8381101561107557808201518184015260208101905061105a565b60008484015250505050565b600061108c82611041565b611096818561104c565b93506110a6818560208601611057565b80840191505092915050565b60006110be8284611081565b915081905092915050565b7f416464726573733a2063616c6c20746f206e6f6e2d636f6e7472616374000000600082015250565b60006110ff601d83610d70565b915061110a826110c9565b602082019050919050565b6000602082019050818103600083015261112e816110f2565b9050919050565b600081519050919050565b6000601f19601f8301169050919050565b600061115c82611135565b6111668185610d70565b9350611176818560208601611057565b61117f81611140565b840191505092915050565b600060208201905081810360008301526111a48184611151565b90509291505056fea2646970667358221220342c92a27d423cc979f23bc45832c77885e5ce1f8c84e4ead3db8b7a336a95eb64736f6c63430008110033","linkReferences":{}},"methodIdentifiers":{"getBalance(address)":"f8b2cb4f","onTokenTransfer(address,uint256,bytes)":"a4c0ed36","owner()":"8da5cb5b","recordFee(address,address,uint256)":"2a355f7c","totalCollected(address)":"f3f05313","transferOwnership(address)":"f2fde38b","withdraw(address,address,uint256)":"d9caed12"},"id":42}