{
  "_format": "hh-sol-artifact-1",
  "contractName": "ArmadaYieldVault",
  "sourceName": "contracts/yield/ArmadaYieldVault.sol",
  "abi": [
    {
      "inputs": [
        {
          "internalType": "address",
          "name": "_spoke",
          "type": "address"
        },
        {
          "internalType": "uint256",
          "name": "_reserveId",
          "type": "uint256"
        },
        {
          "internalType": "address",
          "name": "_treasury",
          "type": "address"
        },
        {
          "internalType": "string",
          "name": "_name",
          "type": "string"
        },
        {
          "internalType": "string",
          "name": "_symbol",
          "type": "string"
        }
      ],
      "stateMutability": "nonpayable",
      "type": "constructor"
    },
    {
      "anonymous": false,
      "inputs": [
        {
          "indexed": true,
          "internalType": "address",
          "name": "oldAdapter",
          "type": "address"
        },
        {
          "indexed": true,
          "internalType": "address",
          "name": "newAdapter",
          "type": "address"
        }
      ],
      "name": "AdapterUpdated",
      "type": "event"
    },
    {
      "anonymous": false,
      "inputs": [
        {
          "indexed": true,
          "internalType": "address",
          "name": "owner",
          "type": "address"
        },
        {
          "indexed": true,
          "internalType": "address",
          "name": "spender",
          "type": "address"
        },
        {
          "indexed": false,
          "internalType": "uint256",
          "name": "value",
          "type": "uint256"
        }
      ],
      "name": "Approval",
      "type": "event"
    },
    {
      "anonymous": false,
      "inputs": [
        {
          "indexed": true,
          "internalType": "address",
          "name": "caller",
          "type": "address"
        },
        {
          "indexed": true,
          "internalType": "address",
          "name": "receiver",
          "type": "address"
        },
        {
          "indexed": false,
          "internalType": "uint256",
          "name": "assets",
          "type": "uint256"
        },
        {
          "indexed": false,
          "internalType": "uint256",
          "name": "shares",
          "type": "uint256"
        }
      ],
      "name": "Deposit",
      "type": "event"
    },
    {
      "anonymous": false,
      "inputs": [
        {
          "indexed": true,
          "internalType": "address",
          "name": "oldOwner",
          "type": "address"
        },
        {
          "indexed": true,
          "internalType": "address",
          "name": "newOwner",
          "type": "address"
        }
      ],
      "name": "OwnershipTransferred",
      "type": "event"
    },
    {
      "anonymous": false,
      "inputs": [
        {
          "indexed": true,
          "internalType": "address",
          "name": "from",
          "type": "address"
        },
        {
          "indexed": true,
          "internalType": "address",
          "name": "to",
          "type": "address"
        },
        {
          "indexed": false,
          "internalType": "uint256",
          "name": "value",
          "type": "uint256"
        }
      ],
      "name": "Transfer",
      "type": "event"
    },
    {
      "anonymous": false,
      "inputs": [
        {
          "indexed": true,
          "internalType": "address",
          "name": "oldTreasury",
          "type": "address"
        },
        {
          "indexed": true,
          "internalType": "address",
          "name": "newTreasury",
          "type": "address"
        }
      ],
      "name": "TreasuryUpdated",
      "type": "event"
    },
    {
      "anonymous": false,
      "inputs": [
        {
          "indexed": true,
          "internalType": "address",
          "name": "caller",
          "type": "address"
        },
        {
          "indexed": true,
          "internalType": "address",
          "name": "receiver",
          "type": "address"
        },
        {
          "indexed": true,
          "internalType": "address",
          "name": "owner",
          "type": "address"
        },
        {
          "indexed": false,
          "internalType": "uint256",
          "name": "assets",
          "type": "uint256"
        },
        {
          "indexed": false,
          "internalType": "uint256",
          "name": "shares",
          "type": "uint256"
        },
        {
          "indexed": false,
          "internalType": "uint256",
          "name": "yieldFee",
          "type": "uint256"
        }
      ],
      "name": "Withdraw",
      "type": "event"
    },
    {
      "inputs": [],
      "name": "BPS_DENOMINATOR",
      "outputs": [
        {
          "internalType": "uint256",
          "name": "",
          "type": "uint256"
        }
      ],
      "stateMutability": "view",
      "type": "function"
    },
    {
      "inputs": [],
      "name": "YIELD_FEE_BPS",
      "outputs": [
        {
          "internalType": "uint256",
          "name": "",
          "type": "uint256"
        }
      ],
      "stateMutability": "view",
      "type": "function"
    },
    {
      "inputs": [],
      "name": "adapter",
      "outputs": [
        {
          "internalType": "address",
          "name": "",
          "type": "address"
        }
      ],
      "stateMutability": "view",
      "type": "function"
    },
    {
      "inputs": [
        {
          "internalType": "address",
          "name": "owner",
          "type": "address"
        },
        {
          "internalType": "address",
          "name": "spender",
          "type": "address"
        }
      ],
      "name": "allowance",
      "outputs": [
        {
          "internalType": "uint256",
          "name": "",
          "type": "uint256"
        }
      ],
      "stateMutability": "view",
      "type": "function"
    },
    {
      "inputs": [
        {
          "internalType": "address",
          "name": "spender",
          "type": "address"
        },
        {
          "internalType": "uint256",
          "name": "amount",
          "type": "uint256"
        }
      ],
      "name": "approve",
      "outputs": [
        {
          "internalType": "bool",
          "name": "",
          "type": "bool"
        }
      ],
      "stateMutability": "nonpayable",
      "type": "function"
    },
    {
      "inputs": [
        {
          "internalType": "address",
          "name": "account",
          "type": "address"
        }
      ],
      "name": "balanceOf",
      "outputs": [
        {
          "internalType": "uint256",
          "name": "",
          "type": "uint256"
        }
      ],
      "stateMutability": "view",
      "type": "function"
    },
    {
      "inputs": [
        {
          "internalType": "uint256",
          "name": "shares",
          "type": "uint256"
        }
      ],
      "name": "convertToAssets",
      "outputs": [
        {
          "internalType": "uint256",
          "name": "",
          "type": "uint256"
        }
      ],
      "stateMutability": "view",
      "type": "function"
    },
    {
      "inputs": [
        {
          "internalType": "uint256",
          "name": "assets",
          "type": "uint256"
        }
      ],
      "name": "convertToShares",
      "outputs": [
        {
          "internalType": "uint256",
          "name": "",
          "type": "uint256"
        }
      ],
      "stateMutability": "view",
      "type": "function"
    },
    {
      "inputs": [],
      "name": "decimals",
      "outputs": [
        {
          "internalType": "uint8",
          "name": "",
          "type": "uint8"
        }
      ],
      "stateMutability": "view",
      "type": "function"
    },
    {
      "inputs": [
        {
          "internalType": "address",
          "name": "spender",
          "type": "address"
        },
        {
          "internalType": "uint256",
          "name": "subtractedValue",
          "type": "uint256"
        }
      ],
      "name": "decreaseAllowance",
      "outputs": [
        {
          "internalType": "bool",
          "name": "",
          "type": "bool"
        }
      ],
      "stateMutability": "nonpayable",
      "type": "function"
    },
    {
      "inputs": [
        {
          "internalType": "uint256",
          "name": "assets",
          "type": "uint256"
        },
        {
          "internalType": "address",
          "name": "receiver",
          "type": "address"
        }
      ],
      "name": "deposit",
      "outputs": [
        {
          "internalType": "uint256",
          "name": "shares",
          "type": "uint256"
        }
      ],
      "stateMutability": "nonpayable",
      "type": "function"
    },
    {
      "inputs": [
        {
          "internalType": "address",
          "name": "user",
          "type": "address"
        }
      ],
      "name": "getUserAssets",
      "outputs": [
        {
          "internalType": "uint256",
          "name": "",
          "type": "uint256"
        }
      ],
      "stateMutability": "view",
      "type": "function"
    },
    {
      "inputs": [
        {
          "internalType": "address",
          "name": "user",
          "type": "address"
        }
      ],
      "name": "getUserYield",
      "outputs": [
        {
          "internalType": "uint256",
          "name": "yield_",
          "type": "uint256"
        }
      ],
      "stateMutability": "view",
      "type": "function"
    },
    {
      "inputs": [
        {
          "internalType": "address",
          "name": "spender",
          "type": "address"
        },
        {
          "internalType": "uint256",
          "name": "addedValue",
          "type": "uint256"
        }
      ],
      "name": "increaseAllowance",
      "outputs": [
        {
          "internalType": "bool",
          "name": "",
          "type": "bool"
        }
      ],
      "stateMutability": "nonpayable",
      "type": "function"
    },
    {
      "inputs": [],
      "name": "name",
      "outputs": [
        {
          "internalType": "string",
          "name": "",
          "type": "string"
        }
      ],
      "stateMutability": "view",
      "type": "function"
    },
    {
      "inputs": [],
      "name": "owner",
      "outputs": [
        {
          "internalType": "address",
          "name": "",
          "type": "address"
        }
      ],
      "stateMutability": "view",
      "type": "function"
    },
    {
      "inputs": [
        {
          "internalType": "uint256",
          "name": "shares",
          "type": "uint256"
        },
        {
          "internalType": "address",
          "name": "owner_",
          "type": "address"
        }
      ],
      "name": "previewRedeem",
      "outputs": [
        {
          "internalType": "uint256",
          "name": "assets",
          "type": "uint256"
        }
      ],
      "stateMutability": "view",
      "type": "function"
    },
    {
      "inputs": [
        {
          "internalType": "uint256",
          "name": "shares",
          "type": "uint256"
        },
        {
          "internalType": "address",
          "name": "receiver",
          "type": "address"
        },
        {
          "internalType": "address",
          "name": "owner_",
          "type": "address"
        }
      ],
      "name": "redeem",
      "outputs": [
        {
          "internalType": "uint256",
          "name": "assets",
          "type": "uint256"
        }
      ],
      "stateMutability": "nonpayable",
      "type": "function"
    },
    {
      "inputs": [],
      "name": "reserveId",
      "outputs": [
        {
          "internalType": "uint256",
          "name": "",
          "type": "uint256"
        }
      ],
      "stateMutability": "view",
      "type": "function"
    },
    {
      "inputs": [
        {
          "internalType": "address",
          "name": "_adapter",
          "type": "address"
        }
      ],
      "name": "setAdapter",
      "outputs": [],
      "stateMutability": "nonpayable",
      "type": "function"
    },
    {
      "inputs": [
        {
          "internalType": "address",
          "name": "_treasury",
          "type": "address"
        }
      ],
      "name": "setTreasury",
      "outputs": [],
      "stateMutability": "nonpayable",
      "type": "function"
    },
    {
      "inputs": [],
      "name": "spoke",
      "outputs": [
        {
          "internalType": "contract IAaveSpoke",
          "name": "",
          "type": "address"
        }
      ],
      "stateMutability": "view",
      "type": "function"
    },
    {
      "inputs": [],
      "name": "symbol",
      "outputs": [
        {
          "internalType": "string",
          "name": "",
          "type": "string"
        }
      ],
      "stateMutability": "view",
      "type": "function"
    },
    {
      "inputs": [],
      "name": "totalAssets",
      "outputs": [
        {
          "internalType": "uint256",
          "name": "",
          "type": "uint256"
        }
      ],
      "stateMutability": "view",
      "type": "function"
    },
    {
      "inputs": [],
      "name": "totalPrincipal",
      "outputs": [
        {
          "internalType": "uint256",
          "name": "",
          "type": "uint256"
        }
      ],
      "stateMutability": "view",
      "type": "function"
    },
    {
      "inputs": [],
      "name": "totalSupply",
      "outputs": [
        {
          "internalType": "uint256",
          "name": "",
          "type": "uint256"
        }
      ],
      "stateMutability": "view",
      "type": "function"
    },
    {
      "inputs": [
        {
          "internalType": "address",
          "name": "to",
          "type": "address"
        },
        {
          "internalType": "uint256",
          "name": "amount",
          "type": "uint256"
        }
      ],
      "name": "transfer",
      "outputs": [
        {
          "internalType": "bool",
          "name": "",
          "type": "bool"
        }
      ],
      "stateMutability": "nonpayable",
      "type": "function"
    },
    {
      "inputs": [
        {
          "internalType": "address",
          "name": "from",
          "type": "address"
        },
        {
          "internalType": "address",
          "name": "to",
          "type": "address"
        },
        {
          "internalType": "uint256",
          "name": "amount",
          "type": "uint256"
        }
      ],
      "name": "transferFrom",
      "outputs": [
        {
          "internalType": "bool",
          "name": "",
          "type": "bool"
        }
      ],
      "stateMutability": "nonpayable",
      "type": "function"
    },
    {
      "inputs": [
        {
          "internalType": "address",
          "name": "newOwner",
          "type": "address"
        }
      ],
      "name": "transferOwnership",
      "outputs": [],
      "stateMutability": "nonpayable",
      "type": "function"
    },
    {
      "inputs": [],
      "name": "treasury",
      "outputs": [
        {
          "internalType": "address",
          "name": "",
          "type": "address"
        }
      ],
      "stateMutability": "view",
      "type": "function"
    },
    {
      "inputs": [],
      "name": "underlying",
      "outputs": [
        {
          "internalType": "contract IERC20",
          "name": "",
          "type": "address"
        }
      ],
      "stateMutability": "view",
      "type": "function"
    },
    {
      "inputs": [
        {
          "internalType": "address",
          "name": "",
          "type": "address"
        }
      ],
      "name": "userCostBasisPerShare",
      "outputs": [
        {
          "internalType": "uint256",
          "name": "",
          "type": "uint256"
        }
      ],
      "stateMutability": "view",
      "type": "function"
    }
  ],
  "bytecode": "0x60e06040523480156200001157600080fd5b50604051620023e1380380620023e18339810160408190526200003491620002a1565b81816003620000448382620003ca565b506004620000538282620003ca565b50506001600555506001600160a01b038516620000b75760405162461bcd60e51b815260206004820152601c60248201527f41726d6164615969656c645661756c743a207a65726f2073706f6b650000000060448201526064015b60405180910390fd5b6001600160a01b0383166200010f5760405162461bcd60e51b815260206004820152601f60248201527f41726d6164615969656c645661756c743a207a65726f207472656173757279006044820152606401620000ae565b6001600160a01b038516608081905260c08590526040516363ac525360e11b81526004810186905263c758a4a690602401602060405180830381865afa1580156200015e573d6000803e3d6000fd5b505050506040513d601f19601f8201168201806040525081019062000184919062000496565b6001600160a01b0390811660a05260068054949091166001600160a01b03199485161790555050600780549091163317905550620004bb9050565b80516001600160a01b0381168114620001d757600080fd5b919050565b634e487b7160e01b600052604160045260246000fd5b600082601f8301126200020457600080fd5b81516001600160401b0380821115620002215762000221620001dc565b604051601f8301601f19908116603f011681019082821181831017156200024c576200024c620001dc565b816040528381526020925086838588010111156200026957600080fd5b600091505b838210156200028d57858201830151818301840152908201906200026e565b600093810190920192909252949350505050565b600080600080600060a08688031215620002ba57600080fd5b620002c586620001bf565b945060208601519350620002dc60408701620001bf565b60608701519093506001600160401b0380821115620002fa57600080fd5b6200030889838a01620001f2565b935060808801519150808211156200031f57600080fd5b506200032e88828901620001f2565b9150509295509295909350565b600181811c908216806200035057607f821691505b6020821081036200037157634e487b7160e01b600052602260045260246000fd5b50919050565b601f821115620003c557600081815260208120601f850160051c81016020861015620003a05750805b601f850160051c820191505b81811015620003c157828155600101620003ac565b5050505b505050565b81516001600160401b03811115620003e657620003e6620001dc565b620003fe81620003f784546200033b565b8462000377565b602080601f8311600181146200043657600084156200041d5750858301515b600019600386901b1c1916600185901b178555620003c1565b600085815260208120601f198616915b82811015620004675788860151825594840194600190910190840162000446565b5085821015620004865787850151600019600388901b60f8161c191681555b5050505050600190811b01905550565b600060208284031215620004a957600080fd5b620004b482620001bf565b9392505050565b60805160a05160c051611ea26200053f60003960008181610448015281816104bf01528181610a6e0152610e8301526000818161034401528181610983015281816109f101528181610f8401528181610fc701526110490152600081816102ee015281816104ee015281816109c201528181610aa10152610eb60152611ea26000f3fe608060405234801561001057600080fd5b50600436106101f05760003560e01c806370a082311161010f578063c6e6f592116100a2578063ea8d1f0a11610071578063ea8d1f0a14610443578063f0f442601461046a578063f2fde38b1461047d578063f777b51a1461049057600080fd5b8063c6e6f5921461040b578063dd62ed3e1461041e578063e1a4521814610431578063e4c940cd1461043a57600080fd5b8063a457c2d7116100de578063a457c2d7146103bd578063a9059cbb146103d0578063ab1da79c146103e3578063ba087652146103f857600080fd5b806370a0823114610366578063765ff0611461038f5780638da5cb5b146103a257806395d89b41146103b557600080fd5b8063313ce567116101875780634b1533b2116101565780634b1533b21461031057806361d027b3146103195780636e553f651461032c5780636f307dc31461033f57600080fd5b8063313ce567146102b457806339509351146102c35780634229abdd146102d657806347bfbcc6146102e957600080fd5b8063095ea7b3116101c3578063095ea7b31461026357806318160ddd146102865780631daea4431461028e57806323b872dd146102a157600080fd5b806301e1d114146101f557806303eadcfc1461021057806306fdde031461023b57806307a2d13a14610250575b600080fd5b6101fd6104b0565b6040519081526020015b60405180910390f35b600854610223906001600160a01b031681565b6040516001600160a01b039091168152602001610207565b610243610566565b6040516102079190611b90565b6101fd61025e366004611bc3565b6105f8565b610276610271366004611bf8565b610609565b6040519015158152602001610207565b6002546101fd565b6101fd61029c366004611c22565b610621565b6102766102af366004611c4e565b6106bb565b60405160068152602001610207565b6102766102d1366004611bf8565b6106e1565b6101fd6102e4366004611c8a565b610703565b6102237f000000000000000000000000000000000000000000000000000000000000000081565b6101fd60095481565b600654610223906001600160a01b031681565b6101fd61033a366004611c22565b610785565b6102237f000000000000000000000000000000000000000000000000000000000000000081565b6101fd610374366004611c8a565b6001600160a01b031660009081526020819052604090205490565b6101fd61039d366004611c8a565b610b72565b600754610223906001600160a01b031681565b610243610b94565b6102766103cb366004611bf8565b610ba3565b6102766103de366004611bf8565b610c29565b6103f66103f1366004611c8a565b610c37565b005b6101fd610406366004611ca5565b610cbd565b6101fd610419366004611bc3565b6110d1565b6101fd61042c366004611ce1565b6110dc565b6101fd61271081565b6101fd6103e881565b6101fd7f000000000000000000000000000000000000000000000000000000000000000081565b6103f6610478366004611c8a565b611107565b6103f661048b366004611c8a565b6111e3565b6101fd61049e366004611c8a565b600a6020526000908152604090205481565b60405163f1568a8960e01b81527f000000000000000000000000000000000000000000000000000000000000000060048201523060248201526000907f00000000000000000000000000000000000000000000000000000000000000006001600160a01b03169063f1568a8990604401602060405180830381865afa15801561053d573d6000803e3d6000fd5b505050506040513d601f19601f820116820180604052508101906105619190611d0b565b905090565b60606003805461057590611d24565b80601f01602080910402602001604051908101604052809291908181526020018280546105a190611d24565b80156105ee5780601f106105c3576101008083540402835291602001916105ee565b820191906000526020600020905b8154815290600101906020018083116105d157829003601f168201915b5050505050905090565b6000610603826112bf565b92915050565b6000336106178185856112f9565b5060019392505050565b60008061062d846112bf565b6001600160a01b0384166000908152600a6020526040812054919250670de0b6b3a764000061065c8388611d74565b6106669190611d8b565b9050808311156106ae57600061067c8285611dad565b9050600061271061068f6103e884611d74565b6106999190611d8b565b90506106a58186611dad565b955050506106b2565b8293505b50505092915050565b6000336106c985828561141e565b6106d4858585611498565b60019150505b9392505050565b6000336106178185856106f483836110dc565b6106fe9190611dc0565b6112f9565b6001600160a01b0381166000908152602081905260408120546000610727826112bf565b6001600160a01b0385166000908152600a602052604081205491925090670de0b6b3a7640000906107589085611d74565b6107629190611d8b565b905080821161077257600061077c565b61077c8183611dad565b95945050505050565b600061078f61163c565b600083116107e45760405162461bcd60e51b815260206004820152601d60248201527f41726d6164615969656c645661756c743a207a65726f2061737365747300000060448201526064015b60405180910390fd5b6001600160a01b03821661083a5760405162461bcd60e51b815260206004820152601f60248201527f41726d6164615969656c645661756c743a207a65726f2072656365697665720060448201526064016107db565b61084383611695565b9050600081116108955760405162461bcd60e51b815260206004820152601d60248201527f41726d6164615969656c645661756c743a207a65726f2073686172657300000060448201526064016107db565b82600960008282546108a79190611dc0565b90915550506001600160a01b0382166000908152602081905260408120549081900361090857816108e0670de0b6b3a764000086611d74565b6108ea9190611d8b565b6001600160a01b0384166000908152600a6020526040902055610976565b6001600160a01b0383166000908152600a602052604090205461092b8383611dc0565b61093d670de0b6b3a764000087611d74565b6109478484611d74565b6109519190611dc0565b61095b9190611d8b565b6001600160a01b0385166000908152600a6020526040902055505b6109ab6001600160a01b037f0000000000000000000000000000000000000000000000000000000000000000163330876116eb565b60405163095ea7b360e01b81526001600160a01b037f000000000000000000000000000000000000000000000000000000000000000081166004830152602482018690527f0000000000000000000000000000000000000000000000000000000000000000169063095ea7b3906044016020604051808303816000875af1158015610a3a573d6000803e3d6000fd5b505050506040513d601f19601f82011682018060405250810190610a5e9190611dd3565b5060405163852a56a560e01b81527f00000000000000000000000000000000000000000000000000000000000000006004820152602481018590523060448201527f00000000000000000000000000000000000000000000000000000000000000006001600160a01b03169063852a56a59060640160408051808303816000875af1158015610af1573d6000803e3d6000fd5b505050506040513d601f19601f82011682018060405250810190610b159190611df5565b5050610b218383611756565b60408051858152602081018490526001600160a01b0385169133917fdcbc1c05240f31ff3ad067ef1ee35ce4997762752e3a095284754544f4c709d7910160405180910390a3506106036001600555565b6001600160a01b038116600090815260208190526040812054610603906112bf565b60606004805461057590611d24565b60003381610bb182866110dc565b905083811015610c115760405162461bcd60e51b815260206004820152602560248201527f45524332303a2064656372656173656420616c6c6f77616e63652062656c6f77604482015264207a65726f60d81b60648201526084016107db565b610c1e82868684036112f9565b506001949350505050565b600033610617818585611498565b6007546001600160a01b03163314610c615760405162461bcd60e51b81526004016107db90611e19565b6008546040516001600160a01b038084169216907fdf69d4ddaf9fd7d35c9293931e2b3f205a06dc3b5b9ca4bef1f1d7c1d420284890600090a3600880546001600160a01b0319166001600160a01b0392909216919091179055565b6000610cc761163c565b60008411610d175760405162461bcd60e51b815260206004820152601d60248201527f41726d6164615969656c645661756c743a207a65726f2073686172657300000060448201526064016107db565b6001600160a01b038316610d6d5760405162461bcd60e51b815260206004820152601f60248201527f41726d6164615969656c645661756c743a207a65726f2072656365697665720060448201526064016107db565b336001600160a01b03831614610dfd576000610d8983336110dc565b905084811015610dec5760405162461bcd60e51b815260206004820152602860248201527f41726d6164615969656c645661756c743a20696e73756666696369656e7420616044820152676c6c6f77616e636560c01b60648201526084016107db565b610dfb83336106fe8885611dad565b505b6000610e08856112bf565b6001600160a01b0384166000908152600a6020526040812054919250670de0b6b3a7640000610e378389611d74565b610e419190611d8b565b9050600954811115610e5257506009545b8060096000828254610e649190611dad565b90915550610e7490508588611815565b604051630ad58d2f60e01b81527f00000000000000000000000000000000000000000000000000000000000000006004820152602481018490523060448201527f00000000000000000000000000000000000000000000000000000000000000006001600160a01b031690630ad58d2f9060640160408051808303816000875af1158015610f06573d6000803e3d6000fd5b505050506040513d601f19601f82011682018060405250810190610f2a9190611df5565b5050600081841115610f61576000610f428386611dad565b9050612710610f536103e883611d74565b610f5d9190611d8b565b9150505b610f6b8185611dad565b9450801561103c57600654610fad906001600160a01b037f00000000000000000000000000000000000000000000000000000000000000008116911683611944565b600654604051630a8d57df60e21b81526001600160a01b037f00000000000000000000000000000000000000000000000000000000000000008116600483015288811660248301526044820184905290911690632a355f7c90606401600060405180830381600087803b15801561102357600080fd5b505af1158015611037573d6000803e3d6000fd5b505050505b6110706001600160a01b037f0000000000000000000000000000000000000000000000000000000000000000168887611944565b60408051868152602081018a90529081018290526001600160a01b03808816919089169033907fbbbdee62287b5bf3bee13cab60a29ad729cf38109bccbd2a986a11c99b8ca7049060600160405180910390a4505050506106da6001600555565b600061060382611695565b6001600160a01b03918216600090815260016020908152604080832093909416825291909152205490565b6007546001600160a01b031633146111315760405162461bcd60e51b81526004016107db90611e19565b6001600160a01b0381166111875760405162461bcd60e51b815260206004820152601f60248201527f41726d6164615969656c645661756c743a207a65726f2074726561737572790060448201526064016107db565b6006546040516001600160a01b038084169216907f4ab5be82436d353e61ca18726e984e561f5c1cc7c6d38b29d2553c790434705a90600090a3600680546001600160a01b0319166001600160a01b0392909216919091179055565b6007546001600160a01b0316331461120d5760405162461bcd60e51b81526004016107db90611e19565b6001600160a01b0381166112635760405162461bcd60e51b815260206004820152601c60248201527f41726d6164615969656c645661756c743a207a65726f206f776e65720000000060448201526064016107db565b6007546040516001600160a01b038084169216907f8be0079c531659141344cd1fd0a4f28419497f9722a3daafe3b4186f6b6457e090600090a3600780546001600160a01b0319166001600160a01b0392909216919091179055565b6000806112cb60025490565b9050806000036112dc575090919050565b806112e56104b0565b6112ef9085611d74565b6106da9190611d8b565b6001600160a01b03831661135b5760405162461bcd60e51b8152602060048201526024808201527f45524332303a20617070726f76652066726f6d20746865207a65726f206164646044820152637265737360e01b60648201526084016107db565b6001600160a01b0382166113bc5760405162461bcd60e51b815260206004820152602260248201527f45524332303a20617070726f766520746f20746865207a65726f206164647265604482015261737360f01b60648201526084016107db565b6001600160a01b0383811660008181526001602090815260408083209487168084529482529182902085905590518481527f8c5be1e5ebec7d5bd14f71427d1e84f3dd0314c0f7b2291e5b200ac8c7c3b92591015b60405180910390a3505050565b600061142a84846110dc565b9050600019811461149257818110156114855760405162461bcd60e51b815260206004820152601d60248201527f45524332303a20696e73756666696369656e7420616c6c6f77616e636500000060448201526064016107db565b61149284848484036112f9565b50505050565b6001600160a01b0383166114fc5760405162461bcd60e51b815260206004820152602560248201527f45524332303a207472616e736665722066726f6d20746865207a65726f206164604482015264647265737360d81b60648201526084016107db565b6001600160a01b03821661155e5760405162461bcd60e51b815260206004820152602360248201527f45524332303a207472616e7366657220746f20746865207a65726f206164647260448201526265737360e81b60648201526084016107db565b6001600160a01b038316600090815260208190526040902054818110156115d65760405162461bcd60e51b815260206004820152602660248201527f45524332303a207472616e7366657220616d6f756e7420657863656564732062604482015265616c616e636560d01b60648201526084016107db565b6001600160a01b03848116600081815260208181526040808320878703905593871680835291849020805487019055925185815290927fddf252ad1be2c89b69c2b068fc378daa952ba7f163c4a11628f55a4df523b3ef910160405180910390a3611492565b60026005540361168e5760405162461bcd60e51b815260206004820152601f60248201527f5265656e7472616e637947756172643a207265656e7472616e742063616c6c0060448201526064016107db565b6002600555565b6000806116a160025490565b9050806000036116b2575090919050565b60006116bc6104b0565b9050806000036116ce57509192915050565b806116d98386611d74565b6116e39190611d8b565b949350505050565b6040516001600160a01b03808516602483015283166044820152606481018290526114929085906323b872dd60e01b906084015b60408051601f198184030181529190526020810180516001600160e01b03166001600160e01b031990931692909217909152611974565b6001600160a01b0382166117ac5760405162461bcd60e51b815260206004820152601f60248201527f45524332303a206d696e7420746f20746865207a65726f20616464726573730060448201526064016107db565b80600260008282546117be9190611dc0565b90915550506001600160a01b038216600081815260208181526040808320805486019055518481527fddf252ad1be2c89b69c2b068fc378daa952ba7f163c4a11628f55a4df523b3ef910160405180910390a35050565b6001600160a01b0382166118755760405162461bcd60e51b815260206004820152602160248201527f45524332303a206275726e2066726f6d20746865207a65726f206164647265736044820152607360f81b60648201526084016107db565b6001600160a01b038216600090815260208190526040902054818110156118e95760405162461bcd60e51b815260206004820152602260248201527f45524332303a206275726e20616d6f756e7420657863656564732062616c616e604482015261636560f01b60648201526084016107db565b6001600160a01b0383166000818152602081815260408083208686039055600280548790039055518581529192917fddf252ad1be2c89b69c2b068fc378daa952ba7f163c4a11628f55a4df523b3ef9101611411565b505050565b6040516001600160a01b03831660248201526044810182905261193f90849063a9059cbb60e01b9060640161171f565b60006119c9826040518060400160405280602081526020017f5361666545524332303a206c6f772d6c6576656c2063616c6c206661696c6564815250856001600160a01b0316611a499092919063ffffffff16565b90508051600014806119ea5750808060200190518101906119ea9190611dd3565b61193f5760405162461bcd60e51b815260206004820152602a60248201527f5361666545524332303a204552433230206f7065726174696f6e20646964206e6044820152691bdd081cdd58d8d9595960b21b60648201526084016107db565b60606116e3848460008585600080866001600160a01b03168587604051611a709190611e50565b60006040518083038185875af1925050503d8060008114611aad576040519150601f19603f3d011682016040523d82523d6000602084013e611ab2565b606091505b5091509150611ac387838387611ace565b979650505050505050565b60608315611b3d578251600003611b36576001600160a01b0385163b611b365760405162461bcd60e51b815260206004820152601d60248201527f416464726573733a2063616c6c20746f206e6f6e2d636f6e747261637400000060448201526064016107db565b50816116e3565b6116e38383815115611b525781518083602001fd5b8060405162461bcd60e51b81526004016107db9190611b90565b60005b83811015611b87578181015183820152602001611b6f565b50506000910152565b6020815260008251806020840152611baf816040850160208701611b6c565b601f01601f19169190910160400192915050565b600060208284031215611bd557600080fd5b5035919050565b80356001600160a01b0381168114611bf357600080fd5b919050565b60008060408385031215611c0b57600080fd5b611c1483611bdc565b946020939093013593505050565b60008060408385031215611c3557600080fd5b82359150611c4560208401611bdc565b90509250929050565b600080600060608486031215611c6357600080fd5b611c6c84611bdc565b9250611c7a60208501611bdc565b9150604084013590509250925092565b600060208284031215611c9c57600080fd5b6106da82611bdc565b600080600060608486031215611cba57600080fd5b83359250611cca60208501611bdc565b9150611cd860408501611bdc565b90509250925092565b60008060408385031215611cf457600080fd5b611cfd83611bdc565b9150611c4560208401611bdc565b600060208284031215611d1d57600080fd5b5051919050565b600181811c90821680611d3857607f821691505b602082108103611d5857634e487b7160e01b600052602260045260246000fd5b50919050565b634e487b7160e01b600052601160045260246000fd5b808202811582820484141761060357610603611d5e565b600082611da857634e487b7160e01b600052601260045260246000fd5b500490565b8181038181111561060357610603611d5e565b8082018082111561060357610603611d5e565b600060208284031215611de557600080fd5b815180151581146106da57600080fd5b60008060408385031215611e0857600080fd5b505080516020909101519092909150565b6020808252601b908201527f41726d6164615969656c645661756c743a206e6f74206f776e65720000000000604082015260600190565b60008251611e62818460208701611b6c565b919091019291505056fea264697066735822122050df64988a44fdb4a0b2ef0ab74a644563e4fcdaf6491b396e60c1d27a1f028364736f6c63430008110033",
  "linkReferences": {},
  "deployedLinkReferences": {}
}