{"abi":[{"type":"function","name":"ZERO_VALUE","inputs":[],"outputs":[{"name":"","type":"bytes32","internalType":"bytes32"}],"stateMutability":"view"},{"type":"function","name":"addToBlocklist","inputs":[{"name":"_tokens","type":"address[]","internalType":"address[]"}],"outputs":[],"stateMutability":"nonpayable"},{"type":"function","name":"addVector","inputs":[{"name":"vector","type":"uint256","internalType":"uint256"}],"outputs":[],"stateMutability":"nonpayable"},{"type":"function","name":"changeFee","inputs":[{"name":"_shieldFee","type":"uint120","internalType":"uint120"},{"name":"_unshieldFee","type":"uint120","internalType":"uint120"},{"name":"_nftFee","type":"uint256","internalType":"uint256"}],"outputs":[],"stateMutability":"nonpayable"},{"type":"function","name":"changeTreasury","inputs":[{"name":"_treasury","type":"address","internalType":"address payable"}],"outputs":[],"stateMutability":"nonpayable"},{"type":"function","name":"checkSafetyVectors","inputs":[],"outputs":[],"stateMutability":"nonpayable"},{"type":"function","name":"getFee","inputs":[{"name":"_amount","type":"uint136","internalType":"uint136"},{"name":"_isInclusive","type":"bool","internalType":"bool"},{"name":"_feeBP","type":"uint120","internalType":"uint120"}],"outputs":[{"name":"","type":"uint120","internalType":"uint120"},{"name":"","type":"uint120","internalType":"uint120"}],"stateMutability":"pure"},{"type":"function","name":"getInsertionTreeNumberAndStartingIndex","inputs":[{"name":"_newCommitments","type":"uint256","internalType":"uint256"}],"outputs":[{"name":"","type":"uint256","internalType":"uint256"},{"name":"","type":"uint256","internalType":"uint256"}],"stateMutability":"view"},{"type":"function","name":"getTokenID","inputs":[{"name":"_tokenData","type":"tuple","internalType":"struct TokenData","components":[{"name":"tokenType","type":"uint8","internalType":"enum TokenType"},{"name":"tokenAddress","type":"address","internalType":"address"},{"name":"tokenSubID","type":"uint256","internalType":"uint256"}]}],"outputs":[{"name":"","type":"bytes32","internalType":"bytes32"}],"stateMutability":"pure"},{"type":"function","name":"getVerificationKey","inputs":[{"name":"_nullifiers","type":"uint256","internalType":"uint256"},{"name":"_commitments","type":"uint256","internalType":"uint256"}],"outputs":[{"name":"","type":"tuple","internalType":"struct VerifyingKey","components":[{"name":"artifactsIPFSHash","type":"string","internalType":"string"},{"name":"alpha1","type":"tuple","internalType":"struct G1Point","components":[{"name":"x","type":"uint256","internalType":"uint256"},{"name":"y","type":"uint256","internalType":"uint256"}]},{"name":"beta2","type":"tuple","internalType":"struct G2Point","components":[{"name":"x","type":"uint256[2]","internalType":"uint256[2]"},{"name":"y","type":"uint256[2]","internalType":"uint256[2]"}]},{"name":"gamma2","type":"tuple","internalType":"struct G2Point","components":[{"name":"x","type":"uint256[2]","internalType":"uint256[2]"},{"name":"y","type":"uint256[2]","internalType":"uint256[2]"}]},{"name":"delta2","type":"tuple","internalType":"struct G2Point","components":[{"name":"x","type":"uint256[2]","internalType":"uint256[2]"},{"name":"y","type":"uint256[2]","internalType":"uint256[2]"}]},{"name":"ic","type":"tuple[]","internalType":"struct G1Point[]","components":[{"name":"x","type":"uint256","internalType":"uint256"},{"name":"y","type":"uint256","internalType":"uint256"}]}]}],"stateMutability":"view"},{"type":"function","name":"hashBoundParams","inputs":[{"name":"_boundParams","type":"tuple","internalType":"struct BoundParams","components":[{"name":"treeNumber","type":"uint16","internalType":"uint16"},{"name":"minGasPrice","type":"uint72","internalType":"uint72"},{"name":"unshield","type":"uint8","internalType":"enum UnshieldType"},{"name":"chainID","type":"uint64","internalType":"uint64"},{"name":"adaptContract","type":"address","internalType":"address"},{"name":"adaptParams","type":"bytes32","internalType":"bytes32"},{"name":"commitmentCiphertext","type":"tuple[]","internalType":"struct CommitmentCiphertext[]","components":[{"name":"ciphertext","type":"bytes32[4]","internalType":"bytes32[4]"},{"name":"blindedSenderViewingKey","type":"bytes32","internalType":"bytes32"},{"name":"blindedReceiverViewingKey","type":"bytes32","internalType":"bytes32"},{"name":"annotationData","type":"bytes","internalType":"bytes"},{"name":"memo","type":"bytes","internalType":"bytes"}]}]}],"outputs":[{"name":"","type":"uint256","internalType":"uint256"}],"stateMutability":"pure"},{"type":"function","name":"hashCommitment","inputs":[{"name":"_commitmentPreimage","type":"tuple","internalType":"struct CommitmentPreimage","components":[{"name":"npk","type":"bytes32","internalType":"bytes32"},{"name":"token","type":"tuple","internalType":"struct TokenData","components":[{"name":"tokenType","type":"uint8","internalType":"enum TokenType"},{"name":"tokenAddress","type":"address","internalType":"address"},{"name":"tokenSubID","type":"uint256","internalType":"uint256"}]},{"name":"value","type":"uint120","internalType":"uint120"}]}],"outputs":[{"name":"","type":"bytes32","internalType":"bytes32"}],"stateMutability":"pure"},{"type":"function","name":"hashLeftRight","inputs":[{"name":"_left","type":"bytes32","internalType":"bytes32"},{"name":"_right","type":"bytes32","internalType":"bytes32"}],"outputs":[{"name":"","type":"bytes32","internalType":"bytes32"}],"stateMutability":"pure"},{"type":"function","name":"initializeRailgunLogic","inputs":[{"name":"_treasury","type":"address","internalType":"address payable"},{"name":"_shieldFee","type":"uint120","internalType":"uint120"},{"name":"_unshieldFee","type":"uint120","internalType":"uint120"},{"name":"_nftFee","type":"uint256","internalType":"uint256"},{"name":"_owner","type":"address","internalType":"address"}],"outputs":[],"stateMutability":"nonpayable"},{"type":"function","name":"lastEventBlock","inputs":[],"outputs":[{"name":"","type":"uint256","internalType":"uint256"}],"stateMutability":"view"},{"type":"function","name":"merkleRoot","inputs":[],"outputs":[{"name":"","type":"bytes32","internalType":"bytes32"}],"stateMutability":"view"},{"type":"function","name":"nextLeafIndex","inputs":[],"outputs":[{"name":"","type":"uint256","internalType":"uint256"}],"stateMutability":"view"},{"type":"function","name":"nftFee","inputs":[],"outputs":[{"name":"","type":"uint256","internalType":"uint256"}],"stateMutability":"view"},{"type":"function","name":"nullifiers","inputs":[{"name":"","type":"uint256","internalType":"uint256"},{"name":"","type":"bytes32","internalType":"bytes32"}],"outputs":[{"name":"","type":"bool","internalType":"bool"}],"stateMutability":"view"},{"type":"function","name":"owner","inputs":[],"outputs":[{"name":"","type":"address","internalType":"address"}],"stateMutability":"view"},{"type":"function","name":"removeFromBlocklist","inputs":[{"name":"_tokens","type":"address[]","internalType":"address[]"}],"outputs":[],"stateMutability":"nonpayable"},{"type":"function","name":"removeVector","inputs":[{"name":"vector","type":"uint256","internalType":"uint256"}],"outputs":[],"stateMutability":"nonpayable"},{"type":"function","name":"renounceOwnership","inputs":[],"outputs":[],"stateMutability":"nonpayable"},{"type":"function","name":"rootHistory","inputs":[{"name":"","type":"uint256","internalType":"uint256"},{"name":"","type":"bytes32","internalType":"bytes32"}],"outputs":[{"name":"","type":"bool","internalType":"bool"}],"stateMutability":"view"},{"type":"function","name":"setTestingMode","inputs":[{"name":"_testingMode","type":"bool","internalType":"bool"}],"outputs":[],"stateMutability":"nonpayable"},{"type":"function","name":"setVerificationKey","inputs":[{"name":"_nullifiers","type":"uint256","internalType":"uint256"},{"name":"_commitments","type":"uint256","internalType":"uint256"},{"name":"_verifyingKey","type":"tuple","internalType":"struct VerifyingKey","components":[{"name":"artifactsIPFSHash","type":"string","internalType":"string"},{"name":"alpha1","type":"tuple","internalType":"struct G1Point","components":[{"name":"x","type":"uint256","internalType":"uint256"},{"name":"y","type":"uint256","internalType":"uint256"}]},{"name":"beta2","type":"tuple","internalType":"struct G2Point","components":[{"name":"x","type":"uint256[2]","internalType":"uint256[2]"},{"name":"y","type":"uint256[2]","internalType":"uint256[2]"}]},{"name":"gamma2","type":"tuple","internalType":"struct G2Point","components":[{"name":"x","type":"uint256[2]","internalType":"uint256[2]"},{"name":"y","type":"uint256[2]","internalType":"uint256[2]"}]},{"name":"delta2","type":"tuple","internalType":"struct G2Point","components":[{"name":"x","type":"uint256[2]","internalType":"uint256[2]"},{"name":"y","type":"uint256[2]","internalType":"uint256[2]"}]},{"name":"ic","type":"tuple[]","internalType":"struct G1Point[]","components":[{"name":"x","type":"uint256","internalType":"uint256"},{"name":"y","type":"uint256","internalType":"uint256"}]}]}],"outputs":[],"stateMutability":"nonpayable"},{"type":"function","name":"shieldFee","inputs":[],"outputs":[{"name":"","type":"uint120","internalType":"uint120"}],"stateMutability":"view"},{"type":"function","name":"snarkSafetyVector","inputs":[{"name":"","type":"uint256","internalType":"uint256"}],"outputs":[{"name":"","type":"bool","internalType":"bool"}],"stateMutability":"view"},{"type":"function","name":"sumCommitments","inputs":[{"name":"_transactions","type":"tuple[]","internalType":"struct Transaction[]","components":[{"name":"proof","type":"tuple","internalType":"struct SnarkProof","components":[{"name":"a","type":"tuple","internalType":"struct G1Point","components":[{"name":"x","type":"uint256","internalType":"uint256"},{"name":"y","type":"uint256","internalType":"uint256"}]},{"name":"b","type":"tuple","internalType":"struct G2Point","components":[{"name":"x","type":"uint256[2]","internalType":"uint256[2]"},{"name":"y","type":"uint256[2]","internalType":"uint256[2]"}]},{"name":"c","type":"tuple","internalType":"struct G1Point","components":[{"name":"x","type":"uint256","internalType":"uint256"},{"name":"y","type":"uint256","internalType":"uint256"}]}]},{"name":"merkleRoot","type":"bytes32","internalType":"bytes32"},{"name":"nullifiers","type":"bytes32[]","internalType":"bytes32[]"},{"name":"commitments","type":"bytes32[]","internalType":"bytes32[]"},{"name":"boundParams","type":"tuple","internalType":"struct BoundParams","components":[{"name":"treeNumber","type":"uint16","internalType":"uint16"},{"name":"minGasPrice","type":"uint72","internalType":"uint72"},{"name":"unshield","type":"uint8","internalType":"enum UnshieldType"},{"name":"chainID","type":"uint64","internalType":"uint64"},{"name":"adaptContract","type":"address","internalType":"address"},{"name":"adaptParams","type":"bytes32","internalType":"bytes32"},{"name":"commitmentCiphertext","type":"tuple[]","internalType":"struct CommitmentCiphertext[]","components":[{"name":"ciphertext","type":"bytes32[4]","internalType":"bytes32[4]"},{"name":"blindedSenderViewingKey","type":"bytes32","internalType":"bytes32"},{"name":"blindedReceiverViewingKey","type":"bytes32","internalType":"bytes32"},{"name":"annotationData","type":"bytes","internalType":"bytes"},{"name":"memo","type":"bytes","internalType":"bytes"}]}]},{"name":"unshieldPreimage","type":"tuple","internalType":"struct CommitmentPreimage","components":[{"name":"npk","type":"bytes32","internalType":"bytes32"},{"name":"token","type":"tuple","internalType":"struct TokenData","components":[{"name":"tokenType","type":"uint8","internalType":"enum TokenType"},{"name":"tokenAddress","type":"address","internalType":"address"},{"name":"tokenSubID","type":"uint256","internalType":"uint256"}]},{"name":"value","type":"uint120","internalType":"uint120"}]}]}],"outputs":[{"name":"","type":"uint256","internalType":"uint256"}],"stateMutability":"pure"},{"type":"function","name":"testingMode","inputs":[],"outputs":[{"name":"","type":"bool","internalType":"bool"}],"stateMutability":"view"},{"type":"function","name":"tokenBlocklist","inputs":[{"name":"","type":"address","internalType":"address"}],"outputs":[{"name":"","type":"bool","internalType":"bool"}],"stateMutability":"view"},{"type":"function","name":"tokenIDMapping","inputs":[{"name":"","type":"bytes32","internalType":"bytes32"}],"outputs":[{"name":"tokenType","type":"uint8","internalType":"enum TokenType"},{"name":"tokenAddress","type":"address","internalType":"address"},{"name":"tokenSubID","type":"uint256","internalType":"uint256"}],"stateMutability":"view"},{"type":"function","name":"transferOwnership","inputs":[{"name":"newOwner","type":"address","internalType":"address"}],"outputs":[],"stateMutability":"nonpayable"},{"type":"function","name":"treasury","inputs":[],"outputs":[{"name":"","type":"address","internalType":"address payable"}],"stateMutability":"view"},{"type":"function","name":"treeNumber","inputs":[],"outputs":[{"name":"","type":"uint256","internalType":"uint256"}],"stateMutability":"view"},{"type":"function","name":"unshieldFee","inputs":[],"outputs":[{"name":"","type":"uint120","internalType":"uint120"}],"stateMutability":"view"},{"type":"function","name":"validateCommitmentPreimage","inputs":[{"name":"_note","type":"tuple","internalType":"struct CommitmentPreimage","components":[{"name":"npk","type":"bytes32","internalType":"bytes32"},{"name":"token","type":"tuple","internalType":"struct TokenData","components":[{"name":"tokenType","type":"uint8","internalType":"enum TokenType"},{"name":"tokenAddress","type":"address","internalType":"address"},{"name":"tokenSubID","type":"uint256","internalType":"uint256"}]},{"name":"value","type":"uint120","internalType":"uint120"}]}],"outputs":[{"name":"","type":"bool","internalType":"bool"},{"name":"","type":"string","internalType":"string"}],"stateMutability":"view"},{"type":"function","name":"validateTransaction","inputs":[{"name":"_transaction","type":"tuple","internalType":"struct Transaction","components":[{"name":"proof","type":"tuple","internalType":"struct SnarkProof","components":[{"name":"a","type":"tuple","internalType":"struct G1Point","components":[{"name":"x","type":"uint256","internalType":"uint256"},{"name":"y","type":"uint256","internalType":"uint256"}]},{"name":"b","type":"tuple","internalType":"struct G2Point","components":[{"name":"x","type":"uint256[2]","internalType":"uint256[2]"},{"name":"y","type":"uint256[2]","internalType":"uint256[2]"}]},{"name":"c","type":"tuple","internalType":"struct G1Point","components":[{"name":"x","type":"uint256","internalType":"uint256"},{"name":"y","type":"uint256","internalType":"uint256"}]}]},{"name":"merkleRoot","type":"bytes32","internalType":"bytes32"},{"name":"nullifiers","type":"bytes32[]","internalType":"bytes32[]"},{"name":"commitments","type":"bytes32[]","internalType":"bytes32[]"},{"name":"boundParams","type":"tuple","internalType":"struct BoundParams","components":[{"name":"treeNumber","type":"uint16","internalType":"uint16"},{"name":"minGasPrice","type":"uint72","internalType":"uint72"},{"name":"unshield","type":"uint8","internalType":"enum UnshieldType"},{"name":"chainID","type":"uint64","internalType":"uint64"},{"name":"adaptContract","type":"address","internalType":"address"},{"name":"adaptParams","type":"bytes32","internalType":"bytes32"},{"name":"commitmentCiphertext","type":"tuple[]","internalType":"struct CommitmentCiphertext[]","components":[{"name":"ciphertext","type":"bytes32[4]","internalType":"bytes32[4]"},{"name":"blindedSenderViewingKey","type":"bytes32","internalType":"bytes32"},{"name":"blindedReceiverViewingKey","type":"bytes32","internalType":"bytes32"},{"name":"annotationData","type":"bytes","internalType":"bytes"},{"name":"memo","type":"bytes","internalType":"bytes"}]}]},{"name":"unshieldPreimage","type":"tuple","internalType":"struct CommitmentPreimage","components":[{"name":"npk","type":"bytes32","internalType":"bytes32"},{"name":"token","type":"tuple","internalType":"struct TokenData","components":[{"name":"tokenType","type":"uint8","internalType":"enum TokenType"},{"name":"tokenAddress","type":"address","internalType":"address"},{"name":"tokenSubID","type":"uint256","internalType":"uint256"}]},{"name":"value","type":"uint120","internalType":"uint120"}]}]}],"outputs":[{"name":"","type":"bool","internalType":"bool"},{"name":"","type":"string","internalType":"string"}],"stateMutability":"view"},{"type":"function","name":"verify","inputs":[{"name":"_transaction","type":"tuple","internalType":"struct Transaction","components":[{"name":"proof","type":"tuple","internalType":"struct SnarkProof","components":[{"name":"a","type":"tuple","internalType":"struct G1Point","components":[{"name":"x","type":"uint256","internalType":"uint256"},{"name":"y","type":"uint256","internalType":"uint256"}]},{"name":"b","type":"tuple","internalType":"struct G2Point","components":[{"name":"x","type":"uint256[2]","internalType":"uint256[2]"},{"name":"y","type":"uint256[2]","internalType":"uint256[2]"}]},{"name":"c","type":"tuple","internalType":"struct G1Point","components":[{"name":"x","type":"uint256","internalType":"uint256"},{"name":"y","type":"uint256","internalType":"uint256"}]}]},{"name":"merkleRoot","type":"bytes32","internalType":"bytes32"},{"name":"nullifiers","type":"bytes32[]","internalType":"bytes32[]"},{"name":"commitments","type":"bytes32[]","internalType":"bytes32[]"},{"name":"boundParams","type":"tuple","internalType":"struct BoundParams","components":[{"name":"treeNumber","type":"uint16","internalType":"uint16"},{"name":"minGasPrice","type":"uint72","internalType":"uint72"},{"name":"unshield","type":"uint8","internalType":"enum UnshieldType"},{"name":"chainID","type":"uint64","internalType":"uint64"},{"name":"adaptContract","type":"address","internalType":"address"},{"name":"adaptParams","type":"bytes32","internalType":"bytes32"},{"name":"commitmentCiphertext","type":"tuple[]","internalType":"struct CommitmentCiphertext[]","components":[{"name":"ciphertext","type":"bytes32[4]","internalType":"bytes32[4]"},{"name":"blindedSenderViewingKey","type":"bytes32","internalType":"bytes32"},{"name":"blindedReceiverViewingKey","type":"bytes32","internalType":"bytes32"},{"name":"annotationData","type":"bytes","internalType":"bytes"},{"name":"memo","type":"bytes","internalType":"bytes"}]}]},{"name":"unshieldPreimage","type":"tuple","internalType":"struct CommitmentPreimage","components":[{"name":"npk","type":"bytes32","internalType":"bytes32"},{"name":"token","type":"tuple","internalType":"struct TokenData","components":[{"name":"tokenType","type":"uint8","internalType":"enum TokenType"},{"name":"tokenAddress","type":"address","internalType":"address"},{"name":"tokenSubID","type":"uint256","internalType":"uint256"}]},{"name":"value","type":"uint120","internalType":"uint120"}]}]}],"outputs":[{"name":"","type":"bool","internalType":"bool"}],"stateMutability":"view"},{"type":"function","name":"verifyProof","inputs":[{"name":"_verifyingKey","type":"tuple","internalType":"struct VerifyingKey","components":[{"name":"artifactsIPFSHash","type":"string","internalType":"string"},{"name":"alpha1","type":"tuple","internalType":"struct G1Point","components":[{"name":"x","type":"uint256","internalType":"uint256"},{"name":"y","type":"uint256","internalType":"uint256"}]},{"name":"beta2","type":"tuple","internalType":"struct G2Point","components":[{"name":"x","type":"uint256[2]","internalType":"uint256[2]"},{"name":"y","type":"uint256[2]","internalType":"uint256[2]"}]},{"name":"gamma2","type":"tuple","internalType":"struct G2Point","components":[{"name":"x","type":"uint256[2]","internalType":"uint256[2]"},{"name":"y","type":"uint256[2]","internalType":"uint256[2]"}]},{"name":"delta2","type":"tuple","internalType":"struct G2Point","components":[{"name":"x","type":"uint256[2]","internalType":"uint256[2]"},{"name":"y","type":"uint256[2]","internalType":"uint256[2]"}]},{"name":"ic","type":"tuple[]","internalType":"struct G1Point[]","components":[{"name":"x","type":"uint256","internalType":"uint256"},{"name":"y","type":"uint256","internalType":"uint256"}]}]},{"name":"_proof","type":"tuple","internalType":"struct SnarkProof","components":[{"name":"a","type":"tuple","internalType":"struct G1Point","components":[{"name":"x","type":"uint256","internalType":"uint256"},{"name":"y","type":"uint256","internalType":"uint256"}]},{"name":"b","type":"tuple","internalType":"struct G2Point","components":[{"name":"x","type":"uint256[2]","internalType":"uint256[2]"},{"name":"y","type":"uint256[2]","internalType":"uint256[2]"}]},{"name":"c","type":"tuple","internalType":"struct G1Point","components":[{"name":"x","type":"uint256","internalType":"uint256"},{"name":"y","type":"uint256","internalType":"uint256"}]}]},{"name":"_inputs","type":"uint256[]","internalType":"uint256[]"}],"outputs":[{"name":"","type":"bool","internalType":"bool"}],"stateMutability":"view"},{"type":"function","name":"zeros","inputs":[{"name":"","type":"uint256","internalType":"uint256"}],"outputs":[{"name":"","type":"bytes32","internalType":"bytes32"}],"stateMutability":"view"},{"type":"event","name":"AddToBlocklist","inputs":[{"name":"token","type":"address","indexed":true,"internalType":"address"}],"anonymous":false},{"type":"event","name":"FeeChange","inputs":[{"name":"shieldFee","type":"uint256","indexed":false,"internalType":"uint256"},{"name":"unshieldFee","type":"uint256","indexed":false,"internalType":"uint256"},{"name":"nftFee","type":"uint256","indexed":false,"internalType":"uint256"}],"anonymous":false},{"type":"event","name":"Initialized","inputs":[{"name":"version","type":"uint8","indexed":false,"internalType":"uint8"}],"anonymous":false},{"type":"event","name":"Nullified","inputs":[{"name":"treeNumber","type":"uint16","indexed":false,"internalType":"uint16"},{"name":"nullifier","type":"bytes32[]","indexed":false,"internalType":"bytes32[]"}],"anonymous":false},{"type":"event","name":"OwnershipTransferred","inputs":[{"name":"previousOwner","type":"address","indexed":true,"internalType":"address"},{"name":"newOwner","type":"address","indexed":true,"internalType":"address"}],"anonymous":false},{"type":"event","name":"RemoveFromBlocklist","inputs":[{"name":"token","type":"address","indexed":true,"internalType":"address"}],"anonymous":false},{"type":"event","name":"Shield","inputs":[{"name":"treeNumber","type":"uint256","indexed":false,"internalType":"uint256"},{"name":"startPosition","type":"uint256","indexed":false,"internalType":"uint256"},{"name":"commitments","type":"tuple[]","indexed":false,"internalType":"struct CommitmentPreimage[]","components":[{"name":"npk","type":"bytes32","internalType":"bytes32"},{"name":"token","type":"tuple","internalType":"struct TokenData","components":[{"name":"tokenType","type":"uint8","internalType":"enum TokenType"},{"name":"tokenAddress","type":"address","internalType":"address"},{"name":"tokenSubID","type":"uint256","internalType":"uint256"}]},{"name":"value","type":"uint120","internalType":"uint120"}]},{"name":"shieldCiphertext","type":"tuple[]","indexed":false,"internalType":"struct ShieldCiphertext[]","components":[{"name":"encryptedBundle","type":"bytes32[3]","internalType":"bytes32[3]"},{"name":"shieldKey","type":"bytes32","internalType":"bytes32"}]},{"name":"fees","type":"uint256[]","indexed":false,"internalType":"uint256[]"}],"anonymous":false},{"type":"event","name":"Transact","inputs":[{"name":"treeNumber","type":"uint256","indexed":false,"internalType":"uint256"},{"name":"startPosition","type":"uint256","indexed":false,"internalType":"uint256"},{"name":"hash","type":"bytes32[]","indexed":false,"internalType":"bytes32[]"},{"name":"ciphertext","type":"tuple[]","indexed":false,"internalType":"struct CommitmentCiphertext[]","components":[{"name":"ciphertext","type":"bytes32[4]","internalType":"bytes32[4]"},{"name":"blindedSenderViewingKey","type":"bytes32","internalType":"bytes32"},{"name":"blindedReceiverViewingKey","type":"bytes32","internalType":"bytes32"},{"name":"annotationData","type":"bytes","internalType":"bytes"},{"name":"memo","type":"bytes","internalType":"bytes"}]}],"anonymous":false},{"type":"event","name":"TreasuryChange","inputs":[{"name":"treasury","type":"address","indexed":false,"internalType":"address"}],"anonymous":false},{"type":"event","name":"Unshield","inputs":[{"name":"to","type":"address","indexed":false,"internalType":"address"},{"name":"token","type":"tuple","indexed":false,"internalType":"struct TokenData","components":[{"name":"tokenType","type":"uint8","internalType":"enum TokenType"},{"name":"tokenAddress","type":"address","internalType":"address"},{"name":"tokenSubID","type":"uint256","internalType":"uint256"}]},{"name":"amount","type":"uint256","indexed":false,"internalType":"uint256"},{"name":"fee","type":"uint256","indexed":false,"internalType":"uint256"}],"anonymous":false},{"type":"event","name":"VerifyingKeySet","inputs":[{"name":"nullifiers","type":"uint256","indexed":false,"internalType":"uint256"},{"name":"commitments","type":"uint256","indexed":false,"internalType":"uint256"},{"name":"verifyingKey","type":"tuple","indexed":false,"internalType":"struct VerifyingKey","components":[{"name":"artifactsIPFSHash","type":"string","internalType":"string"},{"name":"alpha1","type":"tuple","internalType":"struct G1Point","components":[{"name":"x","type":"uint256","internalType":"uint256"},{"name":"y","type":"uint256","internalType":"uint256"}]},{"name":"beta2","type":"tuple","internalType":"struct G2Point","components":[{"name":"x","type":"uint256[2]","internalType":"uint256[2]"},{"name":"y","type":"uint256[2]","internalType":"uint256[2]"}]},{"name":"gamma2","type":"tuple","internalType":"struct G2Point","components":[{"name":"x","type":"uint256[2]","internalType":"uint256[2]"},{"name":"y","type":"uint256[2]","internalType":"uint256[2]"}]},{"name":"delta2","type":"tuple","internalType":"struct G2Point","components":[{"name":"x","type":"uint256[2]","internalType":"uint256[2]"},{"name":"y","type":"uint256[2]","internalType":"uint256[2]"}]},{"name":"ic","type":"tuple[]","internalType":"struct G1Point[]","components":[{"name":"x","type":"uint256","internalType":"uint256"},{"name":"y","type":"uint256","internalType":"uint256"}]}]}],"anonymous":false}],"bytecode":{"object":"0x608060405234801561001057600080fd5b50616e5880620000216000396000f3fe608060405234801561001057600080fd5b50600436106102535760003560e01c806371c5345511610146578063c718dbda116100c3578063e829558811610087578063e82955881461074e578063ec7329591461077e578063ee9907831461079c578063f19ea903146107cc578063f2fde38b146107fc578063f71a55f81461081857610253565b8063c718dbda146106aa578063c8f35b5d146106da578063cc1f73fd146106f8578063cd3efe0614610714578063dc7c9a1f1461073257610253565b806392d3c7a41161010a57806392d3c7a4146105f4578063a33952a914610624578063ab63e69c14610640578063b14f2a391461065c578063b8ceaef21461067857610253565b806371c53455146105285780637b12ae8314610558578063815b534f146105885780638da5cb5b146105b85780639071adc0146105d657610253565b80632ec0f359116101d4578063617e1b1711610198578063617e1b171461049557806361d027b3146104c657806366503315146104e45780636cefafaa14610502578063715018a61461051e57610253565b80632ec0f359146103cc57806338bf282e146103e857806343c8873014610418578063596d7a681461044957806359bb61991461046557610253565b8063129458f41161021b578063129458f4146102ed578063174768911461031d57806328f89c3a1461034e5780632eb4a7ab1461037e5780632ebfe12a1461039c57610253565b806301c3779014610258578063053ed12a146102765780630804a4ee146102945780630be4f4221461029e5780630c9c0c8d146102bc575b600080fd5b610260610834565b60405161026d91906137be565b60405180910390f35b61027e610855565b60405161028b91906137be565b60405180910390f35b61029c610876565b005b6102a6610916565b6040516102b391906137f2565b60405180910390f35b6102d660048036038101906102d1919061384d565b61091c565b6040516102e492919061387a565b60405180910390f35b6103076004803603810190610302919061384d565b61096b565b60405161031491906138be565b60405180910390f35b610337600480360381019061033291906138fe565b61098b565b6040516103459291906139d7565b60405180910390f35b61036860048036038101906103639190613a26565b610f14565b60405161037591906137f2565b60405180910390f35b610386610f72565b6040516103939190613a88565b60405180910390f35b6103b660048036038101906103b19190613fb9565b610f78565b6040516103c391906138be565b60405180910390f35b6103e660048036038101906103e19190614066565b610f9e565b005b61040260048036038101906103fd9190614101565b61101a565b60405161040f9190613a88565b60405180910390f35b610432600480360381019061042d91906141e2565b6110b0565b604051610440929190614235565b60405180910390f35b610463600480360381019061045e919061425e565b611180565b005b61047f600480360381019061047a91906142e6565b6111a5565b60405161048c91906137f2565b60405180910390f35b6104af60048036038101906104aa9190614352565b61122c565b6040516104bd9291906139d7565b60405180910390f35b6104ce611482565b6040516104db91906143c0565b60405180910390f35b6104ec6114a8565b6040516104f991906137f2565b60405180910390f35b61051c6004803603810190610517919061384d565b6114ae565b005b6105266114e5565b005b610542600480360381019061053d9190614506565b6114f9565b60405161054f9190613a88565b60405180910390f35b610572600480360381019061056d9190614533565b6115bc565b60405161057f9190614808565b60405180910390f35b6105a2600480360381019061059d919061482a565b611902565b6040516105af91906138be565b60405180910390f35b6105c0611922565b6040516105cd9190614866565b60405180910390f35b6105de61194c565b6040516105eb91906137f2565b60405180910390f35b61060e60048036038101906106099190614881565b611952565b60405161061b9190613a88565b60405180910390f35b61063e600480360381019061063991906148da565b611a08565b005b61065a600480360381019061065591906149ab565b611c30565b005b610676600480360381019061067191906149f8565b611db9565b005b610692600480360381019061068d9190614a25565b611e92565b6040516106a193929190614ac9565b60405180910390f35b6106c460048036038101906106bf9190614b00565b611ee9565b6040516106d191906138be565b60405180910390f35b6106e2611f18565b6040516106ef91906138be565b60405180910390f35b610712600480360381019061070d9190614b40565b611f2b565b005b61071c61216e565b60405161072991906137f2565b60405180910390f35b61074c6004803603810190610747919061384d565b612174565b005b6107686004803603810190610763919061384d565b6121ab565b6040516107759190613a88565b60405180910390f35b6107866121c6565b6040516107939190613a88565b60405180910390f35b6107b660048036038101906107b191906138fe565b61221b565b6040516107c391906138be565b60405180910390f35b6107e660048036038101906107e19190614b00565b612810565b6040516107f391906138be565b60405180910390f35b6108166004803603810190610811919061482a565b61283f565b005b610832600480360381019061082d91906149ab565b6128c2565b005b60fa60009054906101000a90046effffffffffffffffffffffffffffff1681565b60fa600f9054906101000a90046effffffffffffffffffffffffffffff1681565b60016108a47f8dea8703c3cf94703383ce38a9c894669dccd4ca8e65ddb43267aa024871145060001b612a53565b60000160006101000a81548160ff02191690831515021790555060003360005260fc6020526040600020805491505080610913576040517f08c379a000000000000000000000000000000000000000000000000000000000815260040161090a90614bdf565b60405180910390fd5b50565b60665481565b6000806010600261092d9190614d61565b8360665461093b9190614dac565b111561095b5760016069546109509190614dac565b600091509150610966565b606954606654915091505b915091565b60fc6020528060005260406000206000915054906101000a900460ff1681565b60006060828061016001906109a09190614def565b60200160208101906109b29190614e58565b68ffffffffffffffffff163a1015610a055760006040518060400160405280601181526020017f47617320707269636520746f6f206c6f7700000000000000000000000000000081525091509150610f0f565b600073ffffffffffffffffffffffffffffffffffffffff1683806101600190610a2e9190614def565b6080016020810190610a40919061482a565b73ffffffffffffffffffffffffffffffffffffffff1614158015610ab257503373ffffffffffffffffffffffffffffffffffffffff1683806101600190610a879190614def565b6080016020810190610a99919061482a565b73ffffffffffffffffffffffffffffffffffffffff1614155b15610af85760006040518060400160405280602081526020017f496e76616c696420416461707420436f6e74726163742061732053656e64657281525091509150610f0f565b4683806101600190610b0a9190614def565b6060016020810190610b1c9190614ec5565b67ffffffffffffffff1614610b6c5760006040518060400160405280601081526020017f436861696e4944206d69736d617463680000000000000000000000000000000081525091509150610f0f565b608a600084806101600190610b819190614def565b6000016020810190610b939190614f2c565b61ffff1681526020019081526020016000206000846101000135815260200190815260200160002060009054906101000a900460ff16610c0e5760006040518060400160405280601381526020017f496e76616c6964204d65726b6c6520526f6f740000000000000000000000000081525091509150610f0f565b60006002811115610c2257610c21614a52565b5b83806101600190610c339190614def565b6040016020810190610c459190614f7e565b6002811115610c5757610c56614a52565b5b14610e4b57600183806101400190610c6f9190614fab565b9050610c7b919061500e565b83806101600190610c8c9190614def565b8060c00190610c9b9190615042565b905014610cc6576000604051806060016040528060248152602001616dff6024913991509150610f0f565b6000600280811115610cdb57610cda614a52565b5b84806101600190610cec9190614def565b6040016020810190610cfe9190614f7e565b6002811115610d1057610d0f614a52565b5b03610d9657610d8f60405180606001604052803373ffffffffffffffffffffffffffffffffffffffff1660001b81526020018661018001602001803603810190610d5a9190614881565b815260200186610180016080016020810190610d7691906150a5565b6effffffffffffffffffffffffffffff168152506114f9565b9050610db6565b610db38461018001803603810190610dae9190614506565b6114f9565b90505b83806101400190610dc79190614fab565b600186806101400190610dda9190614fab565b9050610de6919061500e565b818110610df657610df56150d2565b5b905060200201358114610e455760006040518060400160405280601581526020017f496e76616c6964205769746864726177204e6f746500000000000000000000008152509250925050610f0f565b50610eaa565b82806101400190610e5c9190614fab565b905083806101600190610e6f9190614def565b8060c00190610e7e9190615042565b905014610ea9576000604051806060016040528060248152602001616dff6024913991509150610f0f565b5b610eb38361221b565b610ef85760006040518060400160405280601381526020017f496e76616c696420536e61726b2050726f6f660000000000000000000000000081525091509150610f0f565b600160405180602001604052806000815250915091505b915091565b60007f30644e72e131a029b85045b68181585d2833e84879b9709143e1f593f000000182604051602001610f4891906155ae565b6040516020818303038152906040528051906020012060001c610f6b91906155ff565b9050919050565b60675481565b6000610f958484803603810190610f8f9190615695565b84612a5d565b90509392505050565b610fa6612bd8565b8060c7600085815260200190815260200160002060008481526020019081526020016000208181610fd79190615f9e565b9050507f3d09e10d1c966d01c4a2c14d0ac9af253486aa5e99b6cffe9019c4d43eb1fb2383838360405161100d939291906162b0565b60405180910390a1505050565b600073__$e4b2a9d8f07fa6f22863c7e426f7b84603$__63299e56606040518060400160405280868152602001858152506040518263ffffffff1660e01b81526004016110679190616399565b602060405180830381865af4158015611084573d6000803e3d6000fd5b505050506040513d601f19601f820116820180604052508101906110a891906163c9565b905092915050565b6000806000808515611117576127106effffffffffffffffffffffffffffff16856effffffffffffffffffffffffffffff16886110ed91906163f6565b6110f79190616438565b876111029190616469565b915081876111109190616469565b9050611170565b869150818561271061112991906164ae565b6effffffffffffffffffffffffffffff16836127106effffffffffffffffffffffffffffff1661115991906163f6565b6111639190616438565b61116d9190616469565b90505b8181935093505050935093915050565b611188612bd8565b8060c860006101000a81548160ff02191690831515021790555050565b6000806000905060005b84849050811015611221578484828181106111cd576111cc6150d2565b5b90506020028101906111df91906164f1565b8061016001906111ef9190614def565b8060c001906111fe9190615042565b90508261120b9190614dac565b915060018161121a9190614dac565b90506111af565b508091505092915050565b60006060600083608001602081019061124591906150a5565b6effffffffffffffffffffffffffffff160361129c5760006040518060400160405280601281526020017f496e76616c6964204e6f74652056616c756500000000000000000000000000008152509150915061147d565b609560008460200160200160208101906112b6919061482a565b73ffffffffffffffffffffffffffffffffffffffff1673ffffffffffffffffffffffffffffffffffffffff16815260200190815260200160002060009054906101000a900460ff16156113445760006040518060400160405280601181526020017f556e737570706f7274656420546f6b656e0000000000000000000000000000008152509150915061147d565b7f30644e72e131a029b85045b68181585d2833e84879b9709143e1f593f0000001836000013560001c106113b35760006040518060400160405280601081526020017f496e76616c6964204e6f7465204e504b000000000000000000000000000000008152509150915061147d565b600160028111156113c7576113c6614a52565b5b8360200160000160208101906113dd919061651a565b60028111156113ef576113ee614a52565b5b1480156114205750600183608001602081019061140c91906150a5565b6effffffffffffffffffffffffffffff1614155b156114665760006040518060400160405280601681526020017f496e76616c6964204e4654204e6f74652056616c7565000000000000000000008152509150915061147d565b600160405180602001604052806000815250915091505b915091565b60f960009054906101000a900473ffffffffffffffffffffffffffffffffffffffff1681565b60695481565b6114b6612bd8565b600160fc600083815260200190815260200160002060006101000a81548160ff02191690831515021790555050565b6114ed612bd8565b6114f76000612c56565b565b600073__$610c11827248d0bfa646e7ca34d40f2d3f$__635a53025d6040518060600160405280856000015181526020016115378660200151611952565b815260200185604001516effffffffffffffffffffffffffffff1660001b8152506040518263ffffffff1660e01b815260040161157491906165cb565b602060405180830381865af4158015611591573d6000803e3d6000fd5b505050506040513d601f19601f820116820180604052508101906115b591906163c9565b9050919050565b6115c461367e565b60c7600084815260200190815260200160002060008381526020019081526020016000206040518060c00160405290816000820180546116039061578f565b80601f016020809104026020016040519081016040528092919081815260200182805461162f9061578f565b801561167c5780601f106116515761010080835404028352916020019161167c565b820191906000526020600020905b81548152906001019060200180831161165f57829003601f168201915b505050505081526020016001820160405180604001604052908160008201548152602001600182015481525050815260200160038201604051806040016040529081600082016002806020026040519081016040528092919082600280156116f9576020028201915b8154815260200190600101908083116116e5575b505050505081526020016002820160028060200260405190810160405280929190826002801561173e576020028201915b81548152602001906001019080831161172a575b50505050508152505081526020016007820160405180604001604052908160008201600280602002604051908101604052809291908260028015611797576020028201915b815481526020019060010190808311611783575b50505050508152602001600282016002806020026040519081016040528092919082600280156117dc576020028201915b8154815260200190600101908083116117c8575b5050505050815250508152602001600b820160405180604001604052908160008201600280602002604051908101604052809291908260028015611835576020028201915b815481526020019060010190808311611821575b505050505081526020016002820160028060200260405190810160405280929190826002801561187a576020028201915b815481526020019060010190808311611866575b5050505050815250508152602001600f8201805480602002602001604051908101604052809291908181526020016000905b828210156118f2578382906000526020600020906002020160405180604001604052908160008201548152602001600182015481525050815260200190600101906118ac565b5050505081525050905092915050565b60956020528060005260406000206000915054906101000a900460ff1681565b6000603360009054906101000a900473ffffffffffffffffffffffffffffffffffffffff16905090565b60fb5481565b600080600281111561196757611966614a52565b5b8260000151600281111561197e5761197d614a52565b5b036119a857816020015173ffffffffffffffffffffffffffffffffffffffff1660001b9050611a03565b7f30644e72e131a029b85045b68181585d2833e84879b9709143e1f593f0000001826040516020016119da9190616637565b6040516020818303038152906040528051906020012060001c6119fd91906155ff565b60001b90505b919050565b60008060019054906101000a900460ff16159050808015611a395750600160008054906101000a900460ff1660ff16105b80611a665750611a4830612d1c565b158015611a655750600160008054906101000a900460ff1660ff16145b5b611aa5576040517f08c379a0000000000000000000000000000000000000000000000000000000008152600401611a9c906166c4565b60405180910390fd5b60016000806101000a81548160ff021916908360ff1602179055508015611ae2576001600060016101000a81548160ff0219169083151502179055505b611aea612d3f565b611af2612d98565b611afb86611db9565b611b06858585611f2b565b611b0f8261283f565b600160fc6000730219b4c1adcec8f4206b528832f66ab76766873d815260200190815260200160002060006101000a81548160ff021916908315150217905550600160fc60007317cf6db98b05a0329c983f3a3b45d37d9cf1de86815260200190815260200160002060006101000a81548160ff021916908315150217905550600160fc600073cc29dbf69896278a0c6b886ef8cc30a56fa6164a815260200190815260200160002060006101000a81548160ff0219169083151502179055508015611c285760008060016101000a81548160ff0219169083151502179055507f7f26b83ff96e1f2b6a682f133852f6798a09c465da95921460cefb38474024986001604051611c1f919061672c565b60405180910390a15b505050505050565b611c38612bd8565b60005b82829050811015611db45760956000848484818110611c5d57611c5c6150d2565b5b9050602002016020810190611c72919061482a565b73ffffffffffffffffffffffffffffffffffffffff1673ffffffffffffffffffffffffffffffffffffffff16815260200190815260200160002060009054906101000a900460ff1615611da05760956000848484818110611cd657611cd56150d2565b5b9050602002016020810190611ceb919061482a565b73ffffffffffffffffffffffffffffffffffffffff1673ffffffffffffffffffffffffffffffffffffffff16815260200190815260200160002060006101000a81549060ff0219169055828282818110611d4857611d476150d2565b5b9050602002016020810190611d5d919061482a565b73ffffffffffffffffffffffffffffffffffffffff167f2ef13bd1aff17b0f9c85afaf228e84266c8394d9d381735e83fe23f607113e2e60405160405180910390a25b600181611dad9190614dac565b9050611c3b565b505050565b611dc1612bd8565b8073ffffffffffffffffffffffffffffffffffffffff1660f960009054906101000a900473ffffffffffffffffffffffffffffffffffffffff1673ffffffffffffffffffffffffffffffffffffffff1614611e8f578060f960006101000a81548173ffffffffffffffffffffffffffffffffffffffff021916908373ffffffffffffffffffffffffffffffffffffffff1602179055507f1ac54af2084ba0e4b86b7bc54b978ce7dd4ca046d3dec89d7c8963873820c0bb81604051611e86919061679c565b60405180910390a15b50565b60fd6020528060005260406000206000915090508060000160009054906101000a900460ff16908060000160019054906101000a900473ffffffffffffffffffffffffffffffffffffffff16908060010154905083565b608a6020528160005260406000206020528060005260406000206000915091509054906101000a900460ff1681565b60c860009054906101000a900460ff1681565b611f33612bd8565b60fa60009054906101000a90046effffffffffffffffffffffffffffff166effffffffffffffffffffffffffffff16836effffffffffffffffffffffffffffff16141580611fc0575060fa600f9054906101000a90046effffffffffffffffffffffffffffff166effffffffffffffffffffffffffffff16826effffffffffffffffffffffffffffff1614155b80611fcd575060fb548114155b15612169576002612710611fe191906167b7565b6effffffffffffffffffffffffffffff16836effffffffffffffffffffffffffffff161115612045576040517f08c379a000000000000000000000000000000000000000000000000000000000815260040161203c9061685a565b60405180910390fd5b600261271061205491906167b7565b6effffffffffffffffffffffffffffff16826effffffffffffffffffffffffffffff1611156120b8576040517f08c379a00000000000000000000000000000000000000000000000000000000081526004016120af906168ec565b60405180910390fd5b8260fa60006101000a8154816effffffffffffffffffffffffffffff02191690836effffffffffffffffffffffffffffff1602179055508160fa600f6101000a8154816effffffffffffffffffffffffffffff02191690836effffffffffffffffffffffffffffff1602179055508060fb819055507f472cfc031d19bcc54db01976ce486cc12dc3d489e6adced1eb5a782cd55cfdf28383836040516121609392919061693d565b60405180910390a15b505050565b60fe5481565b61217c612bd8565b600060fc600083815260200190815260200160002060006101000a81548160ff02191690831515021790555050565b606a81601081106121bb57600080fd5b016000915090505481565b7f30644e72e131a029b85045b68181585d2833e84879b9709143e1f593f00000017f95b5e3f3c951508f13e7771152f5b7c7329a294917685c10a571c9247e3b9fff60001c61221591906155ff565b60001b81565b600060c860009054906101000a900460ff161561223b576001905061280b565b60008280610120019061224e9190614fab565b905090506000838061014001906122659190614fab565b90509050600060c7600084815260200190815260200160002060008381526020019081526020016000206040518060c00160405290816000820180546122aa9061578f565b80601f01602080910402602001604051908101604052809291908181526020018280546122d69061578f565b80156123235780601f106122f857610100808354040283529160200191612323565b820191906000526020600020905b81548152906001019060200180831161230657829003601f168201915b505050505081526020016001820160405180604001604052908160008201548152602001600182015481525050815260200160038201604051806040016040529081600082016002806020026040519081016040528092919082600280156123a0576020028201915b81548152602001906001019080831161238c575b50505050508152602001600282016002806020026040519081016040528092919082600280156123e5576020028201915b8154815260200190600101908083116123d1575b5050505050815250508152602001600782016040518060400160405290816000820160028060200260405190810160405280929190826002801561243e576020028201915b81548152602001906001019080831161242a575b5050505050815260200160028201600280602002604051908101604052809291908260028015612483576020028201915b81548152602001906001019080831161246f575b5050505050815250508152602001600b8201604051806040016040529081600082016002806020026040519081016040528092919082600280156124dc576020028201915b8154815260200190600101908083116124c8575b5050505050815260200160028201600280602002604051908101604052809291908260028015612521576020028201915b81548152602001906001019080831161250d575b5050505050815250508152602001600f8201805480602002602001604051908101604052809291908181526020016000905b8282101561259957838290600052602060002090600202016040518060400160405290816000820154815260200160018201548152505081526020019060010190612553565b505050508152505090506000816020015160000151036125ee576040517f08c379a00000000000000000000000000000000000000000000000000000000081526004016125e5906169c0565b60405180910390fd5b6000828460026125fe9190614dac565b6126089190614dac565b67ffffffffffffffff81111561262157612620613aa8565b5b60405190808252806020026020018201604052801561264f5781602001602082028036833780820191505090505b50905085610100013560001c8160008151811061266f5761266e6150d2565b5b6020026020010181815250506126948680610160019061268f9190614def565b610f14565b816001815181106126a8576126a76150d2565b5b60200260200101818152505060005b8481101561272a57868061012001906126d09190614fab565b828181106126e1576126e06150d2565b5b9050602002013560001c828260026126f99190614dac565b8151811061270a576127096150d2565b5b6020026020010181815250506001816127239190614dac565b90506126b7565b5060005b838110156127ac57868061014001906127479190614fab565b82818110612758576127576150d2565b5b9050602002013560001c82828760026127719190614dac565b61277b9190614dac565b8151811061278c5761278b6150d2565b5b6020026020010181815250506001816127a59190614dac565b905061272e565b5060006127bd838860000184610f78565b905061dead73ffffffffffffffffffffffffffffffffffffffff163273ffffffffffffffffffffffffffffffffffffffff16036128025760019550505050505061280b565b80955050505050505b919050565b60656020528160005260406000206020528060005260406000206000915091509054906101000a900460ff1681565b612847612bd8565b600073ffffffffffffffffffffffffffffffffffffffff168173ffffffffffffffffffffffffffffffffffffffff16036128b6576040517f08c379a00000000000000000000000000000000000000000000000000000000081526004016128ad90616a52565b60405180910390fd5b6128bf81612c56565b50565b6128ca612bd8565b60005b82829050811015612a4e57609560008484848181106128ef576128ee6150d2565b5b9050602002016020810190612904919061482a565b73ffffffffffffffffffffffffffffffffffffffff1673ffffffffffffffffffffffffffffffffffffffff16815260200190815260200160002060009054906101000a900460ff16612a3a57600160956000858585818110612969576129686150d2565b5b905060200201602081019061297e919061482a565b73ffffffffffffffffffffffffffffffffffffffff1673ffffffffffffffffffffffffffffffffffffffff16815260200190815260200160002060006101000a81548160ff0219169083151502179055508282828181106129e2576129e16150d2565b5b90506020020160208101906129f7919061482a565b73ffffffffffffffffffffffffffffffffffffffff167f46742f555939247f80b50a8ca895a561933c48bc9a06ccb0c812e97ac723d33f60405160405180910390a25b600181612a479190614dac565b90506128cd565b505050565b6000819050919050565b6000806040518060400160405280600081526020016000815250905060005b8351811015612b6e577f30644e72e131a029b85045b68181585d2833e84879b9709143e1f593f0000001848281518110612ab957612ab86150d2565b5b602002602001015110612b01576040517f08c379a0000000000000000000000000000000000000000000000000000000008152600401612af890616ae4565b60405180910390fd5b612b5882612b538860a00151600185612b1a9190614dac565b81518110612b2b57612b2a6150d2565b5b6020026020010151878581518110612b4657612b456150d2565b5b6020026020010151612f58565b613024565b9150600181612b679190614dac565b9050612a7c565b50612b98818660a00151600081518110612b8b57612b8a6150d2565b5b6020026020010151613024565b9050612bce612baa8560000151613122565b856020015187602001518860400151858a606001518a604001518c6080015161330d565b9150509392505050565b612be0613615565b73ffffffffffffffffffffffffffffffffffffffff16612bfe611922565b73ffffffffffffffffffffffffffffffffffffffff1614612c54576040517f08c379a0000000000000000000000000000000000000000000000000000000008152600401612c4b90616b50565b60405180910390fd5b565b6000603360009054906101000a900473ffffffffffffffffffffffffffffffffffffffff16905081603360006101000a81548173ffffffffffffffffffffffffffffffffffffffff021916908373ffffffffffffffffffffffffffffffffffffffff1602179055508173ffffffffffffffffffffffffffffffffffffffff168173ffffffffffffffffffffffffffffffffffffffff167f8be0079c531659141344cd1fd0a4f28419497f9722a3daafe3b4186f6b6457e060405160405180910390a35050565b6000808273ffffffffffffffffffffffffffffffffffffffff163b119050919050565b600060019054906101000a900460ff16612d8e576040517f08c379a0000000000000000000000000000000000000000000000000000000008152600401612d8590616be2565b60405180910390fd5b612d9661361d565b565b600060019054906101000a900460ff16612de7576040517f08c379a0000000000000000000000000000000000000000000000000000000008152600401612dde90616be2565b60405180910390fd5b7f30644e72e131a029b85045b68181585d2833e84879b9709143e1f593f00000017f95b5e3f3c951508f13e7771152f5b7c7329a294917685c10a571c9247e3b9fff60001c612e3691906155ff565b60001b606a600060108110612e4e57612e4d6150d2565b5b018190555060007f30644e72e131a029b85045b68181585d2833e84879b9709143e1f593f00000017f95b5e3f3c951508f13e7771152f5b7c7329a294917685c10a571c9247e3b9fff60001c612ea491906155ff565b60001b905060005b6010811015612f095781606a8260108110612eca57612ec96150d2565b5b018190555081607a8260108110612ee457612ee36150d2565b5b0181905550612ef3828361101a565b9150600181612f029190614dac565b9050612eac565b508060678190556068819055506001608a60006069548152602001908152602001600020600083815260200190815260200160002060006101000a81548160ff02191690831515021790555050565b612f606136cc565b612f686136e6565b836000015181600060038110612f8157612f806150d2565b5b602002018181525050836020015181600160038110612fa357612fa26150d2565b5b6020020181815250508281600260038110612fc157612fc06150d2565b5b602002018181525050600060408360608460076107d05a03fa90508061301c576040517f08c379a000000000000000000000000000000000000000000000000000000000815260040161301390616c74565b60405180910390fd5b505092915050565b61302c6136cc565b613034613708565b83600001518160006004811061304d5761304c6150d2565b5b60200201818152505083602001518160016004811061306f5761306e6150d2565b5b602002018181525050826000015181600260048110613091576130906150d2565b5b6020020181815250508260200151816003600481106130b3576130b26150d2565b5b60200201818152505060006130c66136cc565b60408160808560066107d05a03fa915081613116576040517f08c379a000000000000000000000000000000000000000000000000000000000815260040161310d90616ce0565b60405180910390fd5b80935050505092915050565b61312a6136cc565b60008260000151148015613142575060008260200151145b156131655760405180604001604052806000815260200160008152509050613308565b60007f30644e72e131a029b85045b68181585d97816a916871ca8d3c208c16d87cfd4780613196576131956155d0565b5b836000015184600001510990507f30644e72e131a029b85045b68181585d97816a916871ca8d3c208c16d87cfd47806131d2576131d16155d0565b5b8360000151820990507f30644e72e131a029b85045b68181585d97816a916871ca8d3c208c16d87cfd478061320a576132096155d0565b5b60038208905060007f30644e72e131a029b85045b68181585d97816a916871ca8d3c208c16d87cfd4780613241576132406155d0565b5b84602001518560200151099050818114613290576040517f08c379a000000000000000000000000000000000000000000000000000000000815260040161328790616d4c565b60405180910390fd5b6040518060400160405280856000015181526020017f30644e72e131a029b85045b68181585d97816a916871ca8d3c208c16d87cfd4786602001516132d591906155ff565b7f30644e72e131a029b85045b68181585d97816a916871ca8d3c208c16d87cfd47613300919061500e565b815250925050505b919050565b6000806040518061030001604052808b6000015181526020018b6020015181526020018a60000151600060028110613348576133476150d2565b5b602002015181526020018a6000015160016002811061336a576133696150d2565b5b602002015181526020018a6020015160006002811061338c5761338b6150d2565b5b602002015181526020018a602001516001600281106133ae576133ad6150d2565b5b60200201518152602001896000015181526020018960200151815260200188600001516000600281106133e4576133e36150d2565b5b602002015181526020018860000151600160028110613406576134056150d2565b5b602002015181526020018860200151600060028110613428576134276150d2565b5b60200201518152602001886020015160016002811061344a576134496150d2565b5b60200201518152602001876000015181526020018760200151815260200186600001516000600281106134805761347f6150d2565b5b6020020151815260200186600001516001600281106134a2576134a16150d2565b5b6020020151815260200186602001516000600281106134c4576134c36150d2565b5b6020020151815260200186602001516001600281106134e6576134e56150d2565b5b602002015181526020018560000151815260200185602001518152602001846000015160006002811061351c5761351b6150d2565b5b60200201518152602001846000015160016002811061353e5761353d6150d2565b5b6020020151815260200184602001516000600281106135605761355f6150d2565b5b602002015181526020018460200151600160028110613582576135816150d2565b5b6020020151815250905061359461372a565b60006020826103008560086107d05a03fa9050806135e7576040517f08c379a00000000000000000000000000000000000000000000000000000000081526004016135de90616dde565b60405180910390fd5b6000826000600181106135fd576135fc6150d2565b5b60200201511415935050505098975050505050505050565b600033905090565b600060019054906101000a900460ff1661366c576040517f08c379a000000000000000000000000000000000000000000000000000000000815260040161366390616be2565b60405180910390fd5b61367c613677613615565b612c56565b565b6040518060c00160405280606081526020016136986136cc565b81526020016136a561374c565b81526020016136b261374c565b81526020016136bf61374c565b8152602001606081525090565b604051806040016040528060008152602001600081525090565b6040518060600160405280600390602082028036833780820191505090505090565b6040518060800160405280600490602082028036833780820191505090505090565b6040518060200160405280600190602082028036833780820191505090505090565b604051806040016040528061375f613772565b815260200161376c613772565b81525090565b6040518060400160405280600290602082028036833780820191505090505090565b60006effffffffffffffffffffffffffffff82169050919050565b6137b881613794565b82525050565b60006020820190506137d360008301846137af565b92915050565b6000819050919050565b6137ec816137d9565b82525050565b600060208201905061380760008301846137e3565b92915050565b6000604051905090565b600080fd5b600080fd5b61382a816137d9565b811461383557600080fd5b50565b60008135905061384781613821565b92915050565b60006020828403121561386357613862613817565b5b600061387184828501613838565b91505092915050565b600060408201905061388f60008301856137e3565b61389c60208301846137e3565b9392505050565b60008115159050919050565b6138b8816138a3565b82525050565b60006020820190506138d360008301846138af565b92915050565b600080fd5b600061022082840312156138f5576138f46138d9565b5b81905092915050565b60006020828403121561391457613913613817565b5b600082013567ffffffffffffffff8111156139325761393161381c565b5b61393e848285016138de565b91505092915050565b600081519050919050565b600082825260208201905092915050565b60005b83811015613981578082015181840152602081019050613966565b60008484015250505050565b6000601f19601f8301169050919050565b60006139a982613947565b6139b38185613952565b93506139c3818560208601613963565b6139cc8161398d565b840191505092915050565b60006040820190506139ec60008301856138af565b81810360208301526139fe818461399e565b90509392505050565b600060e08284031215613a1d57613a1c6138d9565b5b81905092915050565b600060208284031215613a3c57613a3b613817565b5b600082013567ffffffffffffffff811115613a5a57613a5961381c565b5b613a6684828501613a07565b91505092915050565b6000819050919050565b613a8281613a6f565b82525050565b6000602082019050613a9d6000830184613a79565b92915050565b600080fd5b7f4e487b7100000000000000000000000000000000000000000000000000000000600052604160045260246000fd5b613ae08261398d565b810181811067ffffffffffffffff82111715613aff57613afe613aa8565b5b80604052505050565b6000613b1261380d565b9050613b1e8282613ad7565b919050565b600080fd5b600080fd5b600080fd5b600067ffffffffffffffff821115613b4d57613b4c613aa8565b5b613b568261398d565b9050602081019050919050565b82818337600083830152505050565b6000613b85613b8084613b32565b613b08565b905082815260208101848484011115613ba157613ba0613b2d565b5b613bac848285613b63565b509392505050565b600082601f830112613bc957613bc8613b28565b5b8135613bd9848260208601613b72565b91505092915050565b600060408284031215613bf857613bf7613aa3565b5b613c026040613b08565b90506000613c1284828501613838565b6000830152506020613c2684828501613838565b60208301525092915050565b600067ffffffffffffffff821115613c4d57613c4c613aa8565b5b602082029050919050565b600080fd5b6000613c70613c6b84613c32565b613b08565b90508060208402830185811115613c8a57613c89613c58565b5b835b81811015613cb35780613c9f8882613838565b845260208401935050602081019050613c8c565b5050509392505050565b600082601f830112613cd257613cd1613b28565b5b6002613cdf848285613c5d565b91505092915050565b600060808284031215613cfe57613cfd613aa3565b5b613d086040613b08565b90506000613d1884828501613cbd565b6000830152506040613d2c84828501613cbd565b60208301525092915050565b600067ffffffffffffffff821115613d5357613d52613aa8565b5b602082029050602081019050919050565b6000613d77613d7284613d38565b613b08565b90508083825260208201905060408402830185811115613d9a57613d99613c58565b5b835b81811015613dc35780613daf8882613be2565b845260208401935050604081019050613d9c565b5050509392505050565b600082601f830112613de257613de1613b28565b5b8135613df2848260208601613d64565b91505092915050565b60006102008284031215613e1257613e11613aa3565b5b613e1c60c0613b08565b9050600082013567ffffffffffffffff811115613e3c57613e3b613b23565b5b613e4884828501613bb4565b6000830152506020613e5c84828501613be2565b6020830152506060613e7084828501613ce8565b60408301525060e0613e8484828501613ce8565b606083015250610160613e9984828501613ce8565b6080830152506101e082013567ffffffffffffffff811115613ebe57613ebd613b23565b5b613eca84828501613dcd565b60a08301525092915050565b60006101008284031215613eed57613eec6138d9565b5b81905092915050565b600067ffffffffffffffff821115613f1157613f10613aa8565b5b602082029050602081019050919050565b6000613f35613f3084613ef6565b613b08565b90508083825260208201905060208402830185811115613f5857613f57613c58565b5b835b81811015613f815780613f6d8882613838565b845260208401935050602081019050613f5a565b5050509392505050565b600082601f830112613fa057613f9f613b28565b5b8135613fb0848260208601613f22565b91505092915050565b60008060006101408486031215613fd357613fd2613817565b5b600084013567ffffffffffffffff811115613ff157613ff061381c565b5b613ffd86828701613dfb565b935050602061400e86828701613ed6565b92505061012084013567ffffffffffffffff8111156140305761402f61381c565b5b61403c86828701613f8b565b9150509250925092565b6000610200828403121561405d5761405c6138d9565b5b81905092915050565b60008060006060848603121561407f5761407e613817565b5b600061408d86828701613838565b935050602061409e86828701613838565b925050604084013567ffffffffffffffff8111156140bf576140be61381c565b5b6140cb86828701614046565b9150509250925092565b6140de81613a6f565b81146140e957600080fd5b50565b6000813590506140fb816140d5565b92915050565b6000806040838503121561411857614117613817565b5b6000614126858286016140ec565b9250506020614137858286016140ec565b9150509250929050565b600070ffffffffffffffffffffffffffffffffff82169050919050565b61416781614141565b811461417257600080fd5b50565b6000813590506141848161415e565b92915050565b614193816138a3565b811461419e57600080fd5b50565b6000813590506141b08161418a565b92915050565b6141bf81613794565b81146141ca57600080fd5b50565b6000813590506141dc816141b6565b92915050565b6000806000606084860312156141fb576141fa613817565b5b600061420986828701614175565b935050602061421a868287016141a1565b925050604061422b868287016141cd565b9150509250925092565b600060408201905061424a60008301856137af565b61425760208301846137af565b9392505050565b60006020828403121561427457614273613817565b5b6000614282848285016141a1565b91505092915050565b600080fd5b60008083601f8401126142a6576142a5613b28565b5b8235905067ffffffffffffffff8111156142c3576142c261428b565b5b6020830191508360208202830111156142df576142de613c58565b5b9250929050565b600080602083850312156142fd576142fc613817565b5b600083013567ffffffffffffffff81111561431b5761431a61381c565b5b61432785828601614290565b92509250509250929050565b600060a08284031215614349576143486138d9565b5b81905092915050565b600060a0828403121561436857614367613817565b5b600061437684828501614333565b91505092915050565b600073ffffffffffffffffffffffffffffffffffffffff82169050919050565b60006143aa8261437f565b9050919050565b6143ba8161439f565b82525050565b60006020820190506143d560008301846143b1565b92915050565b600381106143e857600080fd5b50565b6000813590506143fa816143db565b92915050565b600061440b8261437f565b9050919050565b61441b81614400565b811461442657600080fd5b50565b60008135905061443881614412565b92915050565b60006060828403121561445457614453613aa3565b5b61445e6060613b08565b9050600061446e848285016143eb565b600083015250602061448284828501614429565b602083015250604061449684828501613838565b60408301525092915050565b600060a082840312156144b8576144b7613aa3565b5b6144c26060613b08565b905060006144d2848285016140ec565b60008301525060206144e68482850161443e565b60208301525060806144fa848285016141cd565b60408301525092915050565b600060a0828403121561451c5761451b613817565b5b600061452a848285016144a2565b91505092915050565b6000806040838503121561454a57614549613817565b5b600061455885828601613838565b925050602061456985828601613838565b9150509250929050565b600082825260208201905092915050565b600061458f82613947565b6145998185614573565b93506145a9818560208601613963565b6145b28161398d565b840191505092915050565b6145c6816137d9565b82525050565b6040820160008201516145e260008501826145bd565b5060208201516145f560208501826145bd565b50505050565b600060029050919050565b600081905092915050565b6000819050919050565b600061462783836145bd565b60208301905092915050565b6000602082019050919050565b614649816145fb565b6146538184614606565b925061465e82614611565b8060005b8381101561468f578151614676878261461b565b965061468183614633565b925050600181019050614662565b505050505050565b6080820160008201516146ad6000850182614640565b5060208201516146c06040850182614640565b50505050565b600081519050919050565b600082825260208201905092915050565b6000819050602082019050919050565b60006146fe83836145cc565b60408301905092915050565b6000602082019050919050565b6000614722826146c6565b61472c81856146d1565b9350614737836146e2565b8060005b8381101561476857815161474f88826146f2565b975061475a8361470a565b92505060018101905061473b565b5085935050505092915050565b60006102008301600083015184820360008601526147938282614584565b91505060208301516147a860208601826145cc565b5060408301516147bb6060860182614697565b5060608301516147ce60e0860182614697565b5060808301516147e2610160860182614697565b5060a08301518482036101e08601526147fb8282614717565b9150508091505092915050565b600060208201905081810360008301526148228184614775565b905092915050565b6000602082840312156148405761483f613817565b5b600061484e84828501614429565b91505092915050565b61486081614400565b82525050565b600060208201905061487b6000830184614857565b92915050565b60006060828403121561489757614896613817565b5b60006148a58482850161443e565b91505092915050565b6148b78161439f565b81146148c257600080fd5b50565b6000813590506148d4816148ae565b92915050565b600080600080600060a086880312156148f6576148f5613817565b5b6000614904888289016148c5565b9550506020614915888289016141cd565b9450506040614926888289016141cd565b935050606061493788828901613838565b925050608061494888828901614429565b9150509295509295909350565b60008083601f84011261496b5761496a613b28565b5b8235905067ffffffffffffffff8111156149885761498761428b565b5b6020830191508360208202830111156149a4576149a3613c58565b5b9250929050565b600080602083850312156149c2576149c1613817565b5b600083013567ffffffffffffffff8111156149e0576149df61381c565b5b6149ec85828601614955565b92509250509250929050565b600060208284031215614a0e57614a0d613817565b5b6000614a1c848285016148c5565b91505092915050565b600060208284031215614a3b57614a3a613817565b5b6000614a49848285016140ec565b91505092915050565b7f4e487b7100000000000000000000000000000000000000000000000000000000600052602160045260246000fd5b60038110614a9257614a91614a52565b5b50565b6000819050614aa382614a81565b919050565b6000614ab382614a95565b9050919050565b614ac381614aa8565b82525050565b6000606082019050614ade6000830186614aba565b614aeb6020830185614857565b614af860408301846137e3565b949350505050565b60008060408385031215614b1757614b16613817565b5b6000614b2585828601613838565b9250506020614b36858286016140ec565b9150509250929050565b600080600060608486031215614b5957614b58613817565b5b6000614b67868287016141cd565b9350506020614b78868287016141cd565b9250506040614b8986828701613838565b9150509250925092565b7f5261696c67756e4c6f6769633a20556e7361666520766563746f727300000000600082015250565b6000614bc9601c83613952565b9150614bd482614b93565b602082019050919050565b60006020820190508181036000830152614bf881614bbc565b9050919050565b7f4e487b7100000000000000000000000000000000000000000000000000000000600052601160045260246000fd5b60008160011c9050919050565b6000808291508390505b6001851115614c8557808604811115614c6157614c60614bff565b5b6001851615614c705780820291505b8081029050614c7e85614c2e565b9450614c45565b94509492505050565b600082614c9e5760019050614d5a565b81614cac5760009050614d5a565b8160018114614cc25760028114614ccc57614cfb565b6001915050614d5a565b60ff841115614cde57614cdd614bff565b5b8360020a915084821115614cf557614cf4614bff565b5b50614d5a565b5060208310610133831016604e8410600b8410161715614d305782820a905083811115614d2b57614d2a614bff565b5b614d5a565b614d3d8484846001614c3b565b92509050818404811115614d5457614d53614bff565b5b81810290505b9392505050565b6000614d6c826137d9565b9150614d77836137d9565b9250614da47fffffffffffffffffffffffffffffffffffffffffffffffffffffffffffffffff8484614c8e565b905092915050565b6000614db7826137d9565b9150614dc2836137d9565b9250828201905080821115614dda57614dd9614bff565b5b92915050565b600080fd5b600080fd5b600080fd5b60008235600160e003833603038112614e0b57614e0a614de0565b5b80830191505092915050565b600068ffffffffffffffffff82169050919050565b614e3581614e17565b8114614e4057600080fd5b50565b600081359050614e5281614e2c565b92915050565b600060208284031215614e6e57614e6d613817565b5b6000614e7c84828501614e43565b91505092915050565b600067ffffffffffffffff82169050919050565b614ea281614e85565b8114614ead57600080fd5b50565b600081359050614ebf81614e99565b92915050565b600060208284031215614edb57614eda613817565b5b6000614ee984828501614eb0565b91505092915050565b600061ffff82169050919050565b614f0981614ef2565b8114614f1457600080fd5b50565b600081359050614f2681614f00565b92915050565b600060208284031215614f4257614f41613817565b5b6000614f5084828501614f17565b91505092915050565b60038110614f6657600080fd5b50565b600081359050614f7881614f59565b92915050565b600060208284031215614f9457614f93613817565b5b6000614fa284828501614f69565b91505092915050565b60008083356001602003843603038112614fc857614fc7614de0565b5b80840192508235915067ffffffffffffffff821115614fea57614fe9614de5565b5b60208301925060208202360383131561500657615005614dea565b5b509250929050565b6000615019826137d9565b9150615024836137d9565b925082820390508181111561503c5761503b614bff565b5b92915050565b6000808335600160200384360303811261505f5761505e614de0565b5b80840192508235915067ffffffffffffffff82111561508157615080614de5565b5b60208301925060208202360383131561509d5761509c614dea565b5b509250929050565b6000602082840312156150bb576150ba613817565b5b60006150c9848285016141cd565b91505092915050565b7f4e487b7100000000000000000000000000000000000000000000000000000000600052603260045260246000fd5b60006151106020840184614f17565b905092915050565b61512181614ef2565b82525050565b60006151366020840184614e43565b905092915050565b61514781614e17565b82525050565b600061515c6020840184614f69565b905092915050565b6003811061517557615174614a52565b5b50565b600081905061518682615164565b919050565b600061519682615178565b9050919050565b6151a68161518b565b82525050565b60006151bb6020840184614eb0565b905092915050565b6151cc81614e85565b82525050565b60006151e16020840184614429565b905092915050565b6151f281614400565b82525050565b600061520760208401846140ec565b905092915050565b61521881613a6f565b82525050565b600080fd5b600080fd5b600080fd5b6000808335600160200384360303811261524a57615249615228565b5b83810192508235915060208301925067ffffffffffffffff8211156152725761527161521e565b5b60208202360383131561528857615287615223565b5b509250929050565b600082825260208201905092915050565b6000819050919050565b600082905092915050565b82818337505050565b6152cb608083836152b6565b5050565b600080833560016020038436030381126152ec576152eb615228565b5b83810192508235915060208301925067ffffffffffffffff8211156153145761531361521e565b5b60018202360383131561532a57615329615223565b5b509250929050565b600082825260208201905092915050565b600061534f8385615332565b935061535c838584613b63565b6153658361398d565b840190509392505050565b6000610100830161538460008401846152ab565b61539160008601826152bf565b5061539f60808401846151f8565b6153ac608086018261520f565b506153ba60a08401846151f8565b6153c760a086018261520f565b506153d560c08401846152cf565b85830360c08701526153e8838284615343565b925050506153f960e08401846152cf565b85830360e087015261540c838284615343565b925050508091505092915050565b60006154268383615370565b905092915050565b6000823560016101000383360303811261544b5761544a615228565b5b82810191505092915050565b6000602082019050919050565b60006154708385615290565b935083602084028501615482846152a1565b8060005b878110156154c657848403895261549d828461542e565b6154a7858261541a565b94506154b283615457565b925060208a01995050600181019050615486565b50829750879450505050509392505050565b600060e083016154eb6000840184615101565b6154f86000860182615118565b506155066020840184615127565b615513602086018261513e565b50615521604084018461514d565b61552e604086018261519d565b5061553c60608401846151ac565b61554960608601826151c3565b5061555760808401846151d2565b61556460808601826151e9565b5061557260a08401846151f8565b61557f60a086018261520f565b5061558d60c084018461522d565b85830360c08701526155a0838284615464565b925050508091505092915050565b600060208201905081810360008301526155c881846154d8565b905092915050565b7f4e487b7100000000000000000000000000000000000000000000000000000000600052601260045260246000fd5b600061560a826137d9565b9150615615836137d9565b925082615625576156246155d0565b5b828206905092915050565b6000610100828403121561564757615646613aa3565b5b6156516060613b08565b9050600061566184828501613be2565b600083015250604061567584828501613ce8565b60208301525060c061568984828501613be2565b60408301525092915050565b600061010082840312156156ac576156ab613817565b5b60006156ba84828501615630565b91505092915050565b7f4e487b7100000000000000000000000000000000000000000000000000000000600052600060045260246000fd5b6000808335600160200384360303811261570f5761570e614de0565b5b80840192508235915067ffffffffffffffff82111561573157615730614de5565b5b60208301925060018202360383131561574d5761574c614dea565b5b509250929050565b600082905092915050565b7f4e487b7100000000000000000000000000000000000000000000000000000000600052602260045260246000fd5b600060028204905060018216806157a757607f821691505b6020821081036157ba576157b9615760565b5b50919050565b60008190508160005260206000209050919050565b60006020601f8301049050919050565b600082821b905092915050565b6000600883026158227fffffffffffffffffffffffffffffffffffffffffffffffffffffffffffffffff826157e5565b61582c86836157e5565b95508019841693508086168417925050509392505050565b6000819050919050565b600061586961586461585f846137d9565b615844565b6137d9565b9050919050565b6000819050919050565b6158838361584e565b61589761588f82615870565b8484546157f2565b825550505050565b600090565b6158ac61589f565b6158b781848461587a565b505050565b5b818110156158db576158d06000826158a4565b6001810190506158bd565b5050565b601f821115615920576158f1816157c0565b6158fa846157d5565b81016020851015615909578190505b61591d615915856157d5565b8301826158bc565b50505b505050565b600082821c905092915050565b600061594360001984600802615925565b1980831691505092915050565b600061595c8383615932565b9150826002028217905092915050565b6159768383615755565b67ffffffffffffffff81111561598f5761598e613aa8565b5b615999825461578f565b6159a48282856158df565b6000601f8311600181146159d357600084156159c1578287013590505b6159cb8582615950565b865550615a33565b601f1984166159e1866157c0565b60005b82811015615a09578489013582556001820191506020850194506020810190506159e4565b86831015615a265784890135615a22601f891682615932565b8355505b6001600288020188555050505b50505050505050565b615a4783838361596c565b505050565b60008135615a5981613821565b80915050919050565b60008160001b9050919050565b60007fffffffffffffffffffffffffffffffffffffffffffffffffffffffffffffffff615a9b84615a62565b9350801983169250808416831791505092915050565b615aba8261584e565b615acd615ac682615870565b8354615a6f565b8255505050565b600081016000830180615ae681615a4c565b9050615af28184615ab1565b505050600181016020830180615b0781615a4c565b9050615b138184615ab1565b5050505050565b615b248282615ad4565b5050565b600060029050919050565b6000615b3e826137d9565b9150615b49836137d9565b9250828202615b57816137d9565b91508282048414831517615b6e57615b6d614bff565b5b5092915050565b60008190506001806001038301049050919050565b6000819050919050565b5b81811015615bb357615ba86000826158a4565b600181019050615b95565b5050565b81831015615bf057615bc882615b75565b615bd184615b75565b615bda83615b8a565b818101838201615bea8183615b94565b50505050505b505050565b68010000000000000000821115615c0f57615c0e613aa8565b5b615c1881615b28565b615c23838284615bb7565b505050565b600060029050919050565b6000819050919050565b615c4682615c28565b67ffffffffffffffff811115615c5f57615c5e613aa8565b5b615c698183615bf5565b615c7283615c33565b615c7b83615b8a565b6001830460005b81811015615cba576000615c9585615a4c565b615c9e81615870565b8092506020870196505050808285015550600181019050615c82565b50505050505050565b615ccd8282615c3d565b5050565b600081016000830180615ce48184615cc3565b505050600281016040830180615cfa8184615cc3565b5050505050565b615d0b8282615cd1565b5050565b60008083356001602003843603038112615d2c57615d2b614de0565b5b80840192508235915067ffffffffffffffff821115615d4e57615d4d614de5565b5b602083019250604082023603831315615d6a57615d69614dea565b5b509250929050565b6000819050919050565b600081549050919050565b6000819050615d97826002615b33565b9050919050565b60008190508160005260206000209050919050565b615dc060008083016158a4565b615dce6000600183016158a4565b50565b60008214615de257615de16156c3565b5b615deb81615db3565b5050565b5b81811015615e0e57615e03600082615dd1565b600281019050615df0565b5050565b81831015615e4b57615e2382615d87565b615e2c84615d87565b615e3583615d9e565b818101838201615e458183615def565b50505050505b505050565b68010000000000000000821115615e6a57615e69613aa8565b5b615e7381615d7c565b828255615e81838284615e12565b505050565b600082905092915050565b615e9b8383615e86565b615ea58183615e50565b615eae83615d72565b615eb783615d9e565b60005b83811015615ee55782615ecd8184615b1a565b60408401935060028301925050600181019050615eba565b50505050505050565b615ef9838383615e91565b505050565b6000810160008301615f1081856156f2565b615f1b818386615a3c565b50505050600181016020830180615f328184615b1a565b505050600381016060830180615f488184615d01565b5050506007810160e0830180615f5e8184615d01565b505050600b8101610160830180615f758184615d01565b505050600f81016101e08301615f8b8185615d0f565b615f96818386615eee565b505050505050565b615fa88282615efe565b5050565b60008083356001602003843603038112615fc957615fc8615228565b5b83810192508235915060208301925067ffffffffffffffff821115615ff157615ff061521e565b5b60018202360383131561600757616006615223565b5b509250929050565b600061601b8385614573565b9350616028838584613b63565b6160318361398d565b840190509392505050565b600082905092915050565b60006160566020840184613838565b905092915050565b6040820161606f6000830183616047565b61607c60008501826145bd565b5061608a6020830183616047565b61609760208501826145bd565b50505050565b600082905092915050565b600082905092915050565b6160bf604083836152b6565b5050565b608082016160d460008301836160a8565b6160e160008501826160b3565b506160ef60408301836160a8565b6160fc60408501826160b3565b50505050565b6000808335600160200384360303811261611f5761611e615228565b5b83810192508235915060208301925067ffffffffffffffff8211156161475761614661521e565b5b60408202360383131561615d5761615c615223565b5b509250929050565b6000616171838361605e565b60408301905092915050565b6000604082019050919050565b600061619683856146d1565b93506161a182615d72565b8060005b858110156161da576161b7828461603c565b6161c18882616165565b97506161cc8361617d565b9250506001810190506161a5565b5085925050509392505050565b600061020083016161fb6000840184615fac565b858303600087015261620e83828461600f565b9250505061621f602084018461603c565b61622c602086018261605e565b5061623a606084018461609d565b61624760608601826160c3565b5061625560e084018461609d565b61626260e08601826160c3565b5061627161016084018461609d565b61627f6101608601826160c3565b5061628e6101e0840184616102565b8583036101e08701526162a283828461618a565b925050508091505092915050565b60006060820190506162c560008301866137e3565b6162d260208301856137e3565b81810360408301526162e481846161e7565b9050949350505050565b600060029050919050565b600081905092915050565b6000819050919050565b61631781613a6f565b82525050565b6000616329838361630e565b60208301905092915050565b6000602082019050919050565b61634b816162ee565b61635581846162f9565b925061636082616304565b8060005b83811015616391578151616378878261631d565b965061638383616335565b925050600181019050616364565b505050505050565b60006040820190506163ae6000830184616342565b92915050565b6000815190506163c3816140d5565b92915050565b6000602082840312156163df576163de613817565b5b60006163ed848285016163b4565b91505092915050565b600061640182614141565b915061640c83614141565b925082820261641a81614141565b9150828204841483151761643157616430614bff565b5b5092915050565b600061644382614141565b915061644e83614141565b92508261645e5761645d6155d0565b5b828204905092915050565b600061647482614141565b915061647f83614141565b9250828203905070ffffffffffffffffffffffffffffffffff8111156164a8576164a7614bff565b5b92915050565b60006164b982613794565b91506164c483613794565b925082820390506effffffffffffffffffffffffffffff8111156164eb576164ea614bff565b5b92915050565b6000823560016102200383360303811261650e5761650d614de0565b5b80830191505092915050565b6000602082840312156165305761652f613817565b5b600061653e848285016143eb565b91505092915050565b600060039050919050565b600081905092915050565b6000819050919050565b6000602082019050919050565b61657d81616547565b6165878184616552565b92506165928261655d565b8060005b838110156165c35781516165aa878261631d565b96506165b583616567565b925050600181019050616596565b505050505050565b60006060820190506165e06000830184616574565b92915050565b6165ef81614aa8565b82525050565b60608201600082015161660b60008501826165e6565b50602082015161661e60208501826151e9565b50604082015161663160408501826145bd565b50505050565b600060608201905061664c60008301846165f5565b92915050565b7f496e697469616c697a61626c653a20636f6e747261637420697320616c72656160008201527f647920696e697469616c697a6564000000000000000000000000000000000000602082015250565b60006166ae602e83613952565b91506166b982616652565b604082019050919050565b600060208201905081810360008301526166dd816166a1565b9050919050565b6000819050919050565b600060ff82169050919050565b600061671661671161670c846166e4565b615844565b6166ee565b9050919050565b616726816166fb565b82525050565b6000602082019050616741600083018461671d565b92915050565b600061676261675d6167588461437f565b615844565b61437f565b9050919050565b600061677482616747565b9050919050565b600061678682616769565b9050919050565b6167968161677b565b82525050565b60006020820190506167b1600083018461678d565b92915050565b60006167c282613794565b91506167cd83613794565b9250826167dd576167dc6155d0565b5b828204905092915050565b7f5261696c67756e4c6f6769633a20536869656c6420466565206578636565647360008201527f2035302500000000000000000000000000000000000000000000000000000000602082015250565b6000616844602483613952565b915061684f826167e8565b604082019050919050565b6000602082019050818103600083015261687381616837565b9050919050565b7f5261696c67756e4c6f6769633a20556e736869656c642046656520657863656560008201527f6473203530250000000000000000000000000000000000000000000000000000602082015250565b60006168d6602683613952565b91506168e18261687a565b604082019050919050565b60006020820190508181036000830152616905816168c9565b9050919050565b600061692761692261691d84613794565b615844565b6137d9565b9050919050565b6169378161690c565b82525050565b6000606082019050616952600083018661692e565b61695f602083018561692e565b61696c60408301846137e3565b949350505050565b7f56657269666965723a204b6579206e6f74207365740000000000000000000000600082015250565b60006169aa601583613952565b91506169b582616974565b602082019050919050565b600060208201905081810360008301526169d98161699d565b9050919050565b7f4f776e61626c653a206e6577206f776e657220697320746865207a65726f206160008201527f6464726573730000000000000000000000000000000000000000000000000000602082015250565b6000616a3c602683613952565b9150616a47826169e0565b604082019050919050565b60006020820190508181036000830152616a6b81616a2f565b9050919050565b7f536e61726b3a20496e707574203e20534e41524b5f5343414c41525f4649454c60008201527f4400000000000000000000000000000000000000000000000000000000000000602082015250565b6000616ace602183613952565b9150616ad982616a72565b604082019050919050565b60006020820190508181036000830152616afd81616ac1565b9050919050565b7f4f776e61626c653a2063616c6c6572206973206e6f7420746865206f776e6572600082015250565b6000616b3a602083613952565b9150616b4582616b04565b602082019050919050565b60006020820190508181036000830152616b6981616b2d565b9050919050565b7f496e697469616c697a61626c653a20636f6e7472616374206973206e6f74206960008201527f6e697469616c697a696e67000000000000000000000000000000000000000000602082015250565b6000616bcc602b83613952565b9150616bd782616b70565b604082019050919050565b60006020820190508181036000830152616bfb81616bbf565b9050919050565b7f536e61726b3a205363616c6172204d756c7469706c69636174696f6e2046616960008201527f6c65640000000000000000000000000000000000000000000000000000000000602082015250565b6000616c5e602383613952565b9150616c6982616c02565b604082019050919050565b60006020820190508181036000830152616c8d81616c51565b9050919050565b7f536e61726b3a20416464204661696c6564000000000000000000000000000000600082015250565b6000616cca601183613952565b9150616cd582616c94565b602082019050919050565b60006020820190508181036000830152616cf981616cbd565b9050919050565b7f536e61726b3a20496e76616c6964206e65676174696f6e000000000000000000600082015250565b6000616d36601783613952565b9150616d4182616d00565b602082019050919050565b60006020820190508181036000830152616d6581616d29565b9050919050565b7f536e61726b3a2050616972696e6720566572696669636174696f6e204661696c60008201527f6564000000000000000000000000000000000000000000000000000000000000602082015250565b6000616dc8602283613952565b9150616dd382616d6c565b604082019050919050565b60006020820190508181036000830152616df781616dbb565b905091905056fe496e76616c6964204e6f74652043697068657274657874204172726179204c656e677468a2646970667358221220ecd09ffe986b7cc24ac6af393264a7bce6c396f29527bcdd1ced659224da231c64736f6c63430008110033","linkReferences":{"contracts/railgun/logic/Poseidon.sol":{"PoseidonT3":[{"start":4159,"length":20}],"PoseidonT4":[{"start":5406,"length":20}]}}},"methodIdentifiers":{"ZERO_VALUE()":"ec732959","addToBlocklist(address[])":"f71a55f8","addVector(uint256)":"6cefafaa","changeFee(uint120,uint120,uint256)":"cc1f73fd","changeTreasury(address)":"b14f2a39","checkSafetyVectors()":"0804a4ee","getFee(uint136,bool,uint120)":"43c88730","getInsertionTreeNumberAndStartingIndex(uint256)":"0c9c0c8d","getTokenID((uint8,address,uint256))":"92d3c7a4","getVerificationKey(uint256,uint256)":"7b12ae83","hashBoundParams((uint16,uint72,uint8,uint64,address,bytes32,(bytes32[4],bytes32,bytes32,bytes,bytes)[]))":"28f89c3a","hashCommitment((bytes32,(uint8,address,uint256),uint120))":"71c53455","hashLeftRight(bytes32,bytes32)":"38bf282e","initializeRailgunLogic(address,uint120,uint120,uint256,address)":"a33952a9","lastEventBlock()":"cd3efe06","merkleRoot()":"2eb4a7ab","nextLeafIndex()":"0be4f422","nftFee()":"9071adc0","nullifiers(uint256,bytes32)":"f19ea903","owner()":"8da5cb5b","removeFromBlocklist(address[])":"ab63e69c","removeVector(uint256)":"dc7c9a1f","renounceOwnership()":"715018a6","rootHistory(uint256,bytes32)":"c718dbda","setTestingMode(bool)":"596d7a68","setVerificationKey(uint256,uint256,(string,(uint256,uint256),(uint256[2],uint256[2]),(uint256[2],uint256[2]),(uint256[2],uint256[2]),(uint256,uint256)[]))":"2ec0f359","shieldFee()":"01c37790","snarkSafetyVector(uint256)":"129458f4","sumCommitments((((uint256,uint256),(uint256[2],uint256[2]),(uint256,uint256)),bytes32,bytes32[],bytes32[],(uint16,uint72,uint8,uint64,address,bytes32,(bytes32[4],bytes32,bytes32,bytes,bytes)[]),(bytes32,(uint8,address,uint256),uint120))[])":"59bb6199","testingMode()":"c8f35b5d","tokenBlocklist(address)":"815b534f","tokenIDMapping(bytes32)":"b8ceaef2","transferOwnership(address)":"f2fde38b","treasury()":"61d027b3","treeNumber()":"66503315","unshieldFee()":"053ed12a","validateCommitmentPreimage((bytes32,(uint8,address,uint256),uint120))":"617e1b17","validateTransaction((((uint256,uint256),(uint256[2],uint256[2]),(uint256,uint256)),bytes32,bytes32[],bytes32[],(uint16,uint72,uint8,uint64,address,bytes32,(bytes32[4],bytes32,bytes32,bytes,bytes)[]),(bytes32,(uint8,address,uint256),uint120)))":"17476891","verify((((uint256,uint256),(uint256[2],uint256[2]),(uint256,uint256)),bytes32,bytes32[],bytes32[],(uint16,uint72,uint8,uint64,address,bytes32,(bytes32[4],bytes32,bytes32,bytes,bytes)[]),(bytes32,(uint8,address,uint256),uint120)))":"ee990783","verifyProof((string,(uint256,uint256),(uint256[2],uint256[2]),(uint256[2],uint256[2]),(uint256[2],uint256[2]),(uint256,uint256)[]),((uint256,uint256),(uint256[2],uint256[2]),(uint256,uint256)),uint256[])":"2ebfe12a","zeros(uint256)":"e8295588"},"id":32}