{"abi":[{"type":"constructor","inputs":[{"name":"_spoke","type":"address","internalType":"address"},{"name":"_reserveId","type":"uint256","internalType":"uint256"},{"name":"_treasury","type":"address","internalType":"address"},{"name":"_name","type":"string","internalType":"string"},{"name":"_symbol","type":"string","internalType":"string"}],"stateMutability":"nonpayable"},{"type":"function","name":"BPS_DENOMINATOR","inputs":[],"outputs":[{"name":"","type":"uint256","internalType":"uint256"}],"stateMutability":"view"},{"type":"function","name":"YIELD_FEE_BPS","inputs":[],"outputs":[{"name":"","type":"uint256","internalType":"uint256"}],"stateMutability":"view"},{"type":"function","name":"adapter","inputs":[],"outputs":[{"name":"","type":"address","internalType":"address"}],"stateMutability":"view"},{"type":"function","name":"allowance","inputs":[{"name":"owner","type":"address","internalType":"address"},{"name":"spender","type":"address","internalType":"address"}],"outputs":[{"name":"","type":"uint256","internalType":"uint256"}],"stateMutability":"view"},{"type":"function","name":"approve","inputs":[{"name":"spender","type":"address","internalType":"address"},{"name":"amount","type":"uint256","internalType":"uint256"}],"outputs":[{"name":"","type":"bool","internalType":"bool"}],"stateMutability":"nonpayable"},{"type":"function","name":"balanceOf","inputs":[{"name":"account","type":"address","internalType":"address"}],"outputs":[{"name":"","type":"uint256","internalType":"uint256"}],"stateMutability":"view"},{"type":"function","name":"convertToAssets","inputs":[{"name":"shares","type":"uint256","internalType":"uint256"}],"outputs":[{"name":"","type":"uint256","internalType":"uint256"}],"stateMutability":"view"},{"type":"function","name":"convertToShares","inputs":[{"name":"assets","type":"uint256","internalType":"uint256"}],"outputs":[{"name":"","type":"uint256","internalType":"uint256"}],"stateMutability":"view"},{"type":"function","name":"decimals","inputs":[],"outputs":[{"name":"","type":"uint8","internalType":"uint8"}],"stateMutability":"view"},{"type":"function","name":"decreaseAllowance","inputs":[{"name":"spender","type":"address","internalType":"address"},{"name":"subtractedValue","type":"uint256","internalType":"uint256"}],"outputs":[{"name":"","type":"bool","internalType":"bool"}],"stateMutability":"nonpayable"},{"type":"function","name":"deposit","inputs":[{"name":"assets","type":"uint256","internalType":"uint256"},{"name":"receiver","type":"address","internalType":"address"}],"outputs":[{"name":"shares","type":"uint256","internalType":"uint256"}],"stateMutability":"nonpayable"},{"type":"function","name":"getUserAssets","inputs":[{"name":"user","type":"address","internalType":"address"}],"outputs":[{"name":"","type":"uint256","internalType":"uint256"}],"stateMutability":"view"},{"type":"function","name":"getUserYield","inputs":[{"name":"user","type":"address","internalType":"address"}],"outputs":[{"name":"yield_","type":"uint256","internalType":"uint256"}],"stateMutability":"view"},{"type":"function","name":"increaseAllowance","inputs":[{"name":"spender","type":"address","internalType":"address"},{"name":"addedValue","type":"uint256","internalType":"uint256"}],"outputs":[{"name":"","type":"bool","internalType":"bool"}],"stateMutability":"nonpayable"},{"type":"function","name":"name","inputs":[],"outputs":[{"name":"","type":"string","internalType":"string"}],"stateMutability":"view"},{"type":"function","name":"owner","inputs":[],"outputs":[{"name":"","type":"address","internalType":"address"}],"stateMutability":"view"},{"type":"function","name":"previewRedeem","inputs":[{"name":"shares","type":"uint256","internalType":"uint256"},{"name":"owner_","type":"address","internalType":"address"}],"outputs":[{"name":"assets","type":"uint256","internalType":"uint256"}],"stateMutability":"view"},{"type":"function","name":"redeem","inputs":[{"name":"shares","type":"uint256","internalType":"uint256"},{"name":"receiver","type":"address","internalType":"address"},{"name":"owner_","type":"address","internalType":"address"}],"outputs":[{"name":"assets","type":"uint256","internalType":"uint256"}],"stateMutability":"nonpayable"},{"type":"function","name":"reserveId","inputs":[],"outputs":[{"name":"","type":"uint256","internalType":"uint256"}],"stateMutability":"view"},{"type":"function","name":"setAdapter","inputs":[{"name":"_adapter","type":"address","internalType":"address"}],"outputs":[],"stateMutability":"nonpayable"},{"type":"function","name":"setTreasury","inputs":[{"name":"_treasury","type":"address","internalType":"address"}],"outputs":[],"stateMutability":"nonpayable"},{"type":"function","name":"spoke","inputs":[],"outputs":[{"name":"","type":"address","internalType":"contract IAaveSpoke"}],"stateMutability":"view"},{"type":"function","name":"symbol","inputs":[],"outputs":[{"name":"","type":"string","internalType":"string"}],"stateMutability":"view"},{"type":"function","name":"totalAssets","inputs":[],"outputs":[{"name":"","type":"uint256","internalType":"uint256"}],"stateMutability":"view"},{"type":"function","name":"totalPrincipal","inputs":[],"outputs":[{"name":"","type":"uint256","internalType":"uint256"}],"stateMutability":"view"},{"type":"function","name":"totalSupply","inputs":[],"outputs":[{"name":"","type":"uint256","internalType":"uint256"}],"stateMutability":"view"},{"type":"function","name":"transfer","inputs":[{"name":"to","type":"address","internalType":"address"},{"name":"amount","type":"uint256","internalType":"uint256"}],"outputs":[{"name":"","type":"bool","internalType":"bool"}],"stateMutability":"nonpayable"},{"type":"function","name":"transferFrom","inputs":[{"name":"from","type":"address","internalType":"address"},{"name":"to","type":"address","internalType":"address"},{"name":"amount","type":"uint256","internalType":"uint256"}],"outputs":[{"name":"","type":"bool","internalType":"bool"}],"stateMutability":"nonpayable"},{"type":"function","name":"transferOwnership","inputs":[{"name":"newOwner","type":"address","internalType":"address"}],"outputs":[],"stateMutability":"nonpayable"},{"type":"function","name":"treasury","inputs":[],"outputs":[{"name":"","type":"address","internalType":"address"}],"stateMutability":"view"},{"type":"function","name":"underlying","inputs":[],"outputs":[{"name":"","type":"address","internalType":"contract IERC20"}],"stateMutability":"view"},{"type":"function","name":"userCostBasisPerShare","inputs":[{"name":"","type":"address","internalType":"address"}],"outputs":[{"name":"","type":"uint256","internalType":"uint256"}],"stateMutability":"view"},{"type":"event","name":"AdapterUpdated","inputs":[{"name":"oldAdapter","type":"address","indexed":true,"internalType":"address"},{"name":"newAdapter","type":"address","indexed":true,"internalType":"address"}],"anonymous":false},{"type":"event","name":"Approval","inputs":[{"name":"owner","type":"address","indexed":true,"internalType":"address"},{"name":"spender","type":"address","indexed":true,"internalType":"address"},{"name":"value","type":"uint256","indexed":false,"internalType":"uint256"}],"anonymous":false},{"type":"event","name":"Deposit","inputs":[{"name":"caller","type":"address","indexed":true,"internalType":"address"},{"name":"receiver","type":"address","indexed":true,"internalType":"address"},{"name":"assets","type":"uint256","indexed":false,"internalType":"uint256"},{"name":"shares","type":"uint256","indexed":false,"internalType":"uint256"}],"anonymous":false},{"type":"event","name":"OwnershipTransferred","inputs":[{"name":"oldOwner","type":"address","indexed":true,"internalType":"address"},{"name":"newOwner","type":"address","indexed":true,"internalType":"address"}],"anonymous":false},{"type":"event","name":"Transfer","inputs":[{"name":"from","type":"address","indexed":true,"internalType":"address"},{"name":"to","type":"address","indexed":true,"internalType":"address"},{"name":"value","type":"uint256","indexed":false,"internalType":"uint256"}],"anonymous":false},{"type":"event","name":"TreasuryUpdated","inputs":[{"name":"oldTreasury","type":"address","indexed":true,"internalType":"address"},{"name":"newTreasury","type":"address","indexed":true,"internalType":"address"}],"anonymous":false},{"type":"event","name":"Withdraw","inputs":[{"name":"caller","type":"address","indexed":true,"internalType":"address"},{"name":"receiver","type":"address","indexed":true,"internalType":"address"},{"name":"owner","type":"address","indexed":true,"internalType":"address"},{"name":"assets","type":"uint256","indexed":false,"internalType":"uint256"},{"name":"shares","type":"uint256","indexed":false,"internalType":"uint256"},{"name":"yieldFee","type":"uint256","indexed":false,"internalType":"uint256"}],"anonymous":false}],"bytecode":{"object":"0x60e06040523480156200001157600080fd5b5060405162004678380380620046788339818101604052810190620000379190620004fb565b818181600390816200004a919062000802565b5080600490816200005c919062000802565b5050506001600581905550600073ffffffffffffffffffffffffffffffffffffffff168573ffffffffffffffffffffffffffffffffffffffff1603620000d9576040517f08c379a0000000000000000000000000000000000000000000000000000000008152600401620000d0906200094a565b60405180910390fd5b600073ffffffffffffffffffffffffffffffffffffffff168373ffffffffffffffffffffffffffffffffffffffff16036200014b576040517f08c379a00000000000000000000000000000000000000000000000000000000081526004016200014290620009bc565b60405180910390fd5b8473ffffffffffffffffffffffffffffffffffffffff1660808173ffffffffffffffffffffffffffffffffffffffff16815250508360c0818152505060805173ffffffffffffffffffffffffffffffffffffffff1663c758a4a6856040518263ffffffff1660e01b8152600401620001c49190620009ef565b602060405180830381865afa158015620001e2573d6000803e3d6000fd5b505050506040513d601f19601f8201168201806040525081019062000208919062000a0c565b73ffffffffffffffffffffffffffffffffffffffff1660a08173ffffffffffffffffffffffffffffffffffffffff168152505082600660006101000a81548173ffffffffffffffffffffffffffffffffffffffff021916908373ffffffffffffffffffffffffffffffffffffffff16021790555033600760006101000a81548173ffffffffffffffffffffffffffffffffffffffff021916908373ffffffffffffffffffffffffffffffffffffffff160217905550505050505062000a3e565b6000604051905090565b600080fd5b600080fd5b600073ffffffffffffffffffffffffffffffffffffffff82169050919050565b60006200030982620002dc565b9050919050565b6200031b81620002fc565b81146200032757600080fd5b50565b6000815190506200033b8162000310565b92915050565b6000819050919050565b620003568162000341565b81146200036257600080fd5b50565b60008151905062000376816200034b565b92915050565b600080fd5b600080fd5b6000601f19601f8301169050919050565b7f4e487b7100000000000000000000000000000000000000000000000000000000600052604160045260246000fd5b620003d18262000386565b810181811067ffffffffffffffff82111715620003f357620003f262000397565b5b80604052505050565b600062000408620002c8565b9050620004168282620003c6565b919050565b600067ffffffffffffffff82111562000439576200043862000397565b5b620004448262000386565b9050602081019050919050565b60005b838110156200047157808201518184015260208101905062000454565b60008484015250505050565b6000620004946200048e846200041b565b620003fc565b905082815260208101848484011115620004b357620004b262000381565b5b620004c084828562000451565b509392505050565b600082601f830112620004e057620004df6200037c565b5b8151620004f28482602086016200047d565b91505092915050565b600080600080600060a086880312156200051a5762000519620002d2565b5b60006200052a888289016200032a565b95505060206200053d8882890162000365565b945050604062000550888289016200032a565b935050606086015167ffffffffffffffff811115620005745762000573620002d7565b5b6200058288828901620004c8565b925050608086015167ffffffffffffffff811115620005a657620005a5620002d7565b5b620005b488828901620004c8565b9150509295509295909350565b600081519050919050565b7f4e487b7100000000000000000000000000000000000000000000000000000000600052602260045260246000fd5b600060028204905060018216806200061457607f821691505b6020821081036200062a5762000629620005cc565b5b50919050565b60008190508160005260206000209050919050565b60006020601f8301049050919050565b600082821b905092915050565b600060088302620006947fffffffffffffffffffffffffffffffffffffffffffffffffffffffffffffffff8262000655565b620006a0868362000655565b95508019841693508086168417925050509392505050565b6000819050919050565b6000620006e3620006dd620006d78462000341565b620006b8565b62000341565b9050919050565b6000819050919050565b620006ff83620006c2565b620007176200070e82620006ea565b84845462000662565b825550505050565b600090565b6200072e6200071f565b6200073b818484620006f4565b505050565b5b8181101562000763576200075760008262000724565b60018101905062000741565b5050565b601f821115620007b2576200077c8162000630565b620007878462000645565b8101602085101562000797578190505b620007af620007a68562000645565b83018262000740565b50505b505050565b600082821c905092915050565b6000620007d760001984600802620007b7565b1980831691505092915050565b6000620007f28383620007c4565b9150826002028217905092915050565b6200080d82620005c1565b67ffffffffffffffff81111562000829576200082862000397565b5b620008358254620005fb565b6200084282828562000767565b600060209050601f8311600181146200087a576000841562000865578287015190505b620008718582620007e4565b865550620008e1565b601f1984166200088a8662000630565b60005b82811015620008b4578489015182556001820191506020850194506020810190506200088d565b86831015620008d45784890151620008d0601f891682620007c4565b8355505b6001600288020188555050505b505050505050565b600082825260208201905092915050565b7f41726d6164615969656c645661756c743a207a65726f2073706f6b6500000000600082015250565b600062000932601c83620008e9565b91506200093f82620008fa565b602082019050919050565b60006020820190508181036000830152620009658162000923565b9050919050565b7f41726d6164615969656c645661756c743a207a65726f20747265617375727900600082015250565b6000620009a4601f83620008e9565b9150620009b1826200096c565b602082019050919050565b60006020820190508181036000830152620009d78162000995565b9050919050565b620009e98162000341565b82525050565b600060208201905062000a066000830184620009de565b92915050565b60006020828403121562000a255762000a24620002d2565b5b600062000a35848285016200032a565b91505092915050565b60805160a05160c051613bb662000ac2600039600081816106fd01528181610e58015281816114c00152611837015260008181610d1601528181610d5d01528181610f5d015281816115bc0152818161164001526116b90152600081816106c101528181610a5801528181610d9901528181610e1c01526114840152613bb66000f3fe608060405234801561001057600080fd5b50600436106101f05760003560e01c806370a082311161010f578063c6e6f592116100a2578063ea8d1f0a11610071578063ea8d1f0a14610637578063f0f4426014610655578063f2fde38b14610671578063f777b51a1461068d576101f0565b8063c6e6f5921461059b578063dd62ed3e146105cb578063e1a45218146105fb578063e4c940cd14610619576101f0565b8063a457c2d7116100de578063a457c2d7146104ef578063a9059cbb1461051f578063ab1da79c1461054f578063ba0876521461056b576101f0565b806370a0823114610453578063765ff061146104835780638da5cb5b146104b357806395d89b41146104d1576101f0565b8063313ce567116101875780634b1533b2116101565780634b1533b2146103c957806361d027b3146103e75780636e553f65146104055780636f307dc314610435576101f0565b8063313ce5671461032d578063395093511461034b5780634229abdd1461037b57806347bfbcc6146103ab576101f0565b8063095ea7b3116101c3578063095ea7b31461027f57806318160ddd146102af5780631daea443146102cd57806323b872dd146102fd576101f0565b806301e1d114146101f557806303eadcfc1461021357806306fdde031461023157806307a2d13a1461024f575b600080fd5b6101fd6106bd565b60405161020a91906128a7565b60405180910390f35b61021b610780565b6040516102289190612903565b60405180910390f35b6102396107a6565b60405161024691906129ae565b60405180910390f35b61026960048036038101906102649190612a01565b610838565b60405161027691906128a7565b60405180910390f35b61029960048036038101906102949190612a5a565b61084a565b6040516102a69190612ab5565b60405180910390f35b6102b761086d565b6040516102c491906128a7565b60405180910390f35b6102e760048036038101906102e29190612ad0565b610877565b6040516102f491906128a7565b60405180910390f35b61031760048036038101906103129190612b10565b610945565b6040516103249190612ab5565b60405180910390f35b610335610974565b6040516103429190612b7f565b60405180910390f35b61036560048036038101906103609190612a5a565b61097d565b6040516103729190612ab5565b60405180910390f35b61039560048036038101906103909190612b9a565b6109b4565b6040516103a291906128a7565b60405180910390f35b6103b3610a56565b6040516103c09190612c26565b60405180910390f35b6103d1610a7a565b6040516103de91906128a7565b60405180910390f35b6103ef610a80565b6040516103fc9190612903565b60405180910390f35b61041f600480360381019061041a9190612ad0565b610aa6565b60405161042c91906128a7565b60405180910390f35b61043d610f5b565b60405161044a9190612c62565b60405180910390f35b61046d60048036038101906104689190612b9a565b610f7f565b60405161047a91906128a7565b60405180910390f35b61049d60048036038101906104989190612b9a565b610fc7565b6040516104aa91906128a7565b60405180910390f35b6104bb610fe1565b6040516104c89190612903565b60405180910390f35b6104d9611007565b6040516104e691906129ae565b60405180910390f35b61050960048036038101906105049190612a5a565b611099565b6040516105169190612ab5565b60405180910390f35b61053960048036038101906105349190612a5a565b611110565b6040516105469190612ab5565b60405180910390f35b61056960048036038101906105649190612b9a565b611133565b005b61058560048036038101906105809190612c7d565b611283565b60405161059291906128a7565b60405180910390f35b6105b560048036038101906105b09190612a01565b611790565b6040516105c291906128a7565b60405180910390f35b6105e560048036038101906105e09190612cd0565b6117a2565b6040516105f291906128a7565b60405180910390f35b610603611829565b60405161061091906128a7565b60405180910390f35b61062161182f565b60405161062e91906128a7565b60405180910390f35b61063f611835565b60405161064c91906128a7565b60405180910390f35b61066f600480360381019061066a9190612b9a565b611859565b005b61068b60048036038101906106869190612b9a565b611a18565b005b6106a760048036038101906106a29190612b9a565b611bd7565b6040516106b491906128a7565b60405180910390f35b60007f000000000000000000000000000000000000000000000000000000000000000073ffffffffffffffffffffffffffffffffffffffff1663f1568a897f0000000000000000000000000000000000000000000000000000000000000000306040518363ffffffff1660e01b815260040161073a929190612d10565b602060405180830381865afa158015610757573d6000803e3d6000fd5b505050506040513d601f19601f8201168201806040525081019061077b9190612d4e565b905090565b600860009054906101000a900473ffffffffffffffffffffffffffffffffffffffff1681565b6060600380546107b590612daa565b80601f01602080910402602001604051908101604052809291908181526020018280546107e190612daa565b801561082e5780601f106108035761010080835404028352916020019161082e565b820191906000526020600020905b81548152906001019060200180831161081157829003601f168201915b5050505050905090565b600061084382611bef565b9050919050565b600080610855611c34565b9050610862818585611c3c565b600191505092915050565b6000600254905090565b60008061088384611bef565b90506000600a60008573ffffffffffffffffffffffffffffffffffffffff1673ffffffffffffffffffffffffffffffffffffffff1681526020019081526020016000205490506000670de0b6b3a764000082876108e09190612e0a565b6108ea9190612e7b565b90508083111561093857600081846109029190612eac565b905060006127106103e8836109179190612e0a565b6109219190612e7b565b9050808561092f9190612eac565b9550505061093c565b8293505b50505092915050565b600080610950611c34565b905061095d858285611e05565b610968858585611e91565b60019150509392505050565b60006006905090565b600080610988611c34565b90506109a981858561099a85896117a2565b6109a49190612ee0565b611c3c565b600191505092915050565b6000806109c083610f7f565b905060006109cd82611bef565b90506000670de0b6b3a7640000600a60008773ffffffffffffffffffffffffffffffffffffffff1673ffffffffffffffffffffffffffffffffffffffff1681526020019081526020016000205484610a259190612e0a565b610a2f9190612e7b565b9050808211610a3f576000610a4c565b8082610a4b9190612eac565b5b9350505050919050565b7f000000000000000000000000000000000000000000000000000000000000000081565b60095481565b600660009054906101000a900473ffffffffffffffffffffffffffffffffffffffff1681565b6000610ab0612107565b60008311610af3576040517f08c379a0000000000000000000000000000000000000000000000000000000008152600401610aea90612f60565b60405180910390fd5b600073ffffffffffffffffffffffffffffffffffffffff168273ffffffffffffffffffffffffffffffffffffffff1603610b62576040517f08c379a0000000000000000000000000000000000000000000000000000000008152600401610b5990612fcc565b60405180910390fd5b610b6b83612156565b905060008111610bb0576040517f08c379a0000000000000000000000000000000000000000000000000000000008152600401610ba790613038565b60405180910390fd5b8260096000828254610bc29190612ee0565b925050819055506000610bd483610f7f565b905060008103610c455781670de0b6b3a764000085610bf39190612e0a565b610bfd9190612e7b565b600a60008573ffffffffffffffffffffffffffffffffffffffff1673ffffffffffffffffffffffffffffffffffffffff16815260200190815260200160002081905550610d0e565b6000600a60008573ffffffffffffffffffffffffffffffffffffffff1673ffffffffffffffffffffffffffffffffffffffff1681526020019081526020016000205490508282610c959190612ee0565b670de0b6b3a764000086610ca99190612e0a565b8383610cb59190612e0a565b610cbf9190612ee0565b610cc99190612e7b565b600a60008673ffffffffffffffffffffffffffffffffffffffff1673ffffffffffffffffffffffffffffffffffffffff16815260200190815260200160002081905550505b610d5b3330867f000000000000000000000000000000000000000000000000000000000000000073ffffffffffffffffffffffffffffffffffffffff166121b3909392919063ffffffff16565b7f000000000000000000000000000000000000000000000000000000000000000073ffffffffffffffffffffffffffffffffffffffff1663095ea7b37f0000000000000000000000000000000000000000000000000000000000000000866040518363ffffffff1660e01b8152600401610dd6929190613058565b6020604051808303816000875af1158015610df5573d6000803e3d6000fd5b505050506040513d601f19601f82011682018060405250810190610e1991906130ad565b507f000000000000000000000000000000000000000000000000000000000000000073ffffffffffffffffffffffffffffffffffffffff1663852a56a57f000000000000000000000000000000000000000000000000000000000000000086306040518463ffffffff1660e01b8152600401610e97939291906130da565b60408051808303816000875af1158015610eb5573d6000803e3d6000fd5b505050506040513d601f19601f82011682018060405250810190610ed99190613111565b5050610ee5838361223c565b8273ffffffffffffffffffffffffffffffffffffffff163373ffffffffffffffffffffffffffffffffffffffff167fdcbc1c05240f31ff3ad067ef1ee35ce4997762752e3a095284754544f4c709d78685604051610f44929190613151565b60405180910390a350610f55612392565b92915050565b7f000000000000000000000000000000000000000000000000000000000000000081565b60008060008373ffffffffffffffffffffffffffffffffffffffff1673ffffffffffffffffffffffffffffffffffffffff168152602001908152602001600020549050919050565b6000610fda610fd583610f7f565b611bef565b9050919050565b600760009054906101000a900473ffffffffffffffffffffffffffffffffffffffff1681565b60606004805461101690612daa565b80601f016020809104026020016040519081016040528092919081815260200182805461104290612daa565b801561108f5780601f106110645761010080835404028352916020019161108f565b820191906000526020600020905b81548152906001019060200180831161107257829003601f168201915b5050505050905090565b6000806110a4611c34565b905060006110b282866117a2565b9050838110156110f7576040517f08c379a00000000000000000000000000000000000000000000000000000000081526004016110ee906131ec565b60405180910390fd5b6111048286868403611c3c565b60019250505092915050565b60008061111b611c34565b9050611128818585611e91565b600191505092915050565b600760009054906101000a900473ffffffffffffffffffffffffffffffffffffffff1673ffffffffffffffffffffffffffffffffffffffff163373ffffffffffffffffffffffffffffffffffffffff16146111c3576040517f08c379a00000000000000000000000000000000000000000000000000000000081526004016111ba90613258565b60405180910390fd5b8073ffffffffffffffffffffffffffffffffffffffff16600860009054906101000a900473ffffffffffffffffffffffffffffffffffffffff1673ffffffffffffffffffffffffffffffffffffffff167fdf69d4ddaf9fd7d35c9293931e2b3f205a06dc3b5b9ca4bef1f1d7c1d420284860405160405180910390a380600860006101000a81548173ffffffffffffffffffffffffffffffffffffffff021916908373ffffffffffffffffffffffffffffffffffffffff16021790555050565b600061128d612107565b600084116112d0576040517f08c379a00000000000000000000000000000000000000000000000000000000081526004016112c790613038565b60405180910390fd5b600073ffffffffffffffffffffffffffffffffffffffff168373ffffffffffffffffffffffffffffffffffffffff160361133f576040517f08c379a000000000000000000000000000000000000000000000000000000000815260040161133690612fcc565b60405180910390fd5b8173ffffffffffffffffffffffffffffffffffffffff163373ffffffffffffffffffffffffffffffffffffffff16146113db57600061137e83336117a2565b9050848110156113c3576040517f08c379a00000000000000000000000000000000000000000000000000000000081526004016113ba906132ea565b60405180910390fd5b6113d9833387846113d49190612eac565b611c3c565b505b60006113e685611bef565b90506000600a60008573ffffffffffffffffffffffffffffffffffffffff1673ffffffffffffffffffffffffffffffffffffffff1681526020019081526020016000205490506000670de0b6b3a764000082886114439190612e0a565b61144d9190612e7b565b905060095481111561145f5760095490505b80600960008282546114719190612eac565b92505081905550611482858861239c565b7f000000000000000000000000000000000000000000000000000000000000000073ffffffffffffffffffffffffffffffffffffffff16630ad58d2f7f000000000000000000000000000000000000000000000000000000000000000085306040518463ffffffff1660e01b81526004016114ff939291906130da565b60408051808303816000875af115801561151d573d6000803e3d6000fd5b505050506040513d601f19601f820116820180604052508101906115419190613111565b505060008184111561157c576000828561155b9190612eac565b90506127106103e88261156e9190612e0a565b6115789190612e7b565b9150505b80846115889190612eac565b945060008111156116b257611600600660009054906101000a900473ffffffffffffffffffffffffffffffffffffffff16827f000000000000000000000000000000000000000000000000000000000000000073ffffffffffffffffffffffffffffffffffffffff166125699092919063ffffffff16565b600660009054906101000a900473ffffffffffffffffffffffffffffffffffffffff1673ffffffffffffffffffffffffffffffffffffffff16632a355f7c7f000000000000000000000000000000000000000000000000000000000000000088846040518463ffffffff1660e01b815260040161167f9392919061330a565b600060405180830381600087803b15801561169957600080fd5b505af11580156116ad573d6000803e3d6000fd5b505050505b6116fd87867f000000000000000000000000000000000000000000000000000000000000000073ffffffffffffffffffffffffffffffffffffffff166125699092919063ffffffff16565b8573ffffffffffffffffffffffffffffffffffffffff168773ffffffffffffffffffffffffffffffffffffffff163373ffffffffffffffffffffffffffffffffffffffff167fbbbdee62287b5bf3bee13cab60a29ad729cf38109bccbd2a986a11c99b8ca704888c8660405161177593929190613341565b60405180910390a450505050611789612392565b9392505050565b600061179b82612156565b9050919050565b6000600160008473ffffffffffffffffffffffffffffffffffffffff1673ffffffffffffffffffffffffffffffffffffffff16815260200190815260200160002060008373ffffffffffffffffffffffffffffffffffffffff1673ffffffffffffffffffffffffffffffffffffffff16815260200190815260200160002054905092915050565b61271081565b6103e881565b7f000000000000000000000000000000000000000000000000000000000000000081565b600760009054906101000a900473ffffffffffffffffffffffffffffffffffffffff1673ffffffffffffffffffffffffffffffffffffffff163373ffffffffffffffffffffffffffffffffffffffff16146118e9576040517f08c379a00000000000000000000000000000000000000000000000000000000081526004016118e090613258565b60405180910390fd5b600073ffffffffffffffffffffffffffffffffffffffff168173ffffffffffffffffffffffffffffffffffffffff1603611958576040517f08c379a000000000000000000000000000000000000000000000000000000000815260040161194f906133c4565b60405180910390fd5b8073ffffffffffffffffffffffffffffffffffffffff16600660009054906101000a900473ffffffffffffffffffffffffffffffffffffffff1673ffffffffffffffffffffffffffffffffffffffff167f4ab5be82436d353e61ca18726e984e561f5c1cc7c6d38b29d2553c790434705a60405160405180910390a380600660006101000a81548173ffffffffffffffffffffffffffffffffffffffff021916908373ffffffffffffffffffffffffffffffffffffffff16021790555050565b600760009054906101000a900473ffffffffffffffffffffffffffffffffffffffff1673ffffffffffffffffffffffffffffffffffffffff163373ffffffffffffffffffffffffffffffffffffffff1614611aa8576040517f08c379a0000000000000000000000000000000000000000000000000000000008152600401611a9f90613258565b60405180910390fd5b600073ffffffffffffffffffffffffffffffffffffffff168173ffffffffffffffffffffffffffffffffffffffff1603611b17576040517f08c379a0000000000000000000000000000000000000000000000000000000008152600401611b0e90613430565b60405180910390fd5b8073ffffffffffffffffffffffffffffffffffffffff16600760009054906101000a900473ffffffffffffffffffffffffffffffffffffffff1673ffffffffffffffffffffffffffffffffffffffff167f8be0079c531659141344cd1fd0a4f28419497f9722a3daafe3b4186f6b6457e060405160405180910390a380600760006101000a81548173ffffffffffffffffffffffffffffffffffffffff021916908373ffffffffffffffffffffffffffffffffffffffff16021790555050565b600a6020528060005260406000206000915090505481565b600080611bfa61086d565b905060008103611c0d5782915050611c2f565b80611c166106bd565b84611c219190612e0a565b611c2b9190612e7b565b9150505b919050565b600033905090565b600073ffffffffffffffffffffffffffffffffffffffff168373ffffffffffffffffffffffffffffffffffffffff1603611cab576040517f08c379a0000000000000000000000000000000000000000000000000000000008152600401611ca2906134c2565b60405180910390fd5b600073ffffffffffffffffffffffffffffffffffffffff168273ffffffffffffffffffffffffffffffffffffffff1603611d1a576040517f08c379a0000000000000000000000000000000000000000000000000000000008152600401611d1190613554565b60405180910390fd5b80600160008573ffffffffffffffffffffffffffffffffffffffff1673ffffffffffffffffffffffffffffffffffffffff16815260200190815260200160002060008473ffffffffffffffffffffffffffffffffffffffff1673ffffffffffffffffffffffffffffffffffffffff168152602001908152602001600020819055508173ffffffffffffffffffffffffffffffffffffffff168373ffffffffffffffffffffffffffffffffffffffff167f8c5be1e5ebec7d5bd14f71427d1e84f3dd0314c0f7b2291e5b200ac8c7c3b92583604051611df891906128a7565b60405180910390a3505050565b6000611e1184846117a2565b90507fffffffffffffffffffffffffffffffffffffffffffffffffffffffffffffffff8114611e8b5781811015611e7d576040517f08c379a0000000000000000000000000000000000000000000000000000000008152600401611e74906135c0565b60405180910390fd5b611e8a8484848403611c3c565b5b50505050565b600073ffffffffffffffffffffffffffffffffffffffff168373ffffffffffffffffffffffffffffffffffffffff1603611f00576040517f08c379a0000000000000000000000000000000000000000000000000000000008152600401611ef790613652565b60405180910390fd5b600073ffffffffffffffffffffffffffffffffffffffff168273ffffffffffffffffffffffffffffffffffffffff1603611f6f576040517f08c379a0000000000000000000000000000000000000000000000000000000008152600401611f66906136e4565b60405180910390fd5b611f7a8383836125ef565b60008060008573ffffffffffffffffffffffffffffffffffffffff1673ffffffffffffffffffffffffffffffffffffffff16815260200190815260200160002054905081811015612000576040517f08c379a0000000000000000000000000000000000000000000000000000000008152600401611ff790613776565b60405180910390fd5b8181036000808673ffffffffffffffffffffffffffffffffffffffff1673ffffffffffffffffffffffffffffffffffffffff16815260200190815260200160002081905550816000808573ffffffffffffffffffffffffffffffffffffffff1673ffffffffffffffffffffffffffffffffffffffff168152602001908152602001600020600082825401925050819055508273ffffffffffffffffffffffffffffffffffffffff168473ffffffffffffffffffffffffffffffffffffffff167fddf252ad1be2c89b69c2b068fc378daa952ba7f163c4a11628f55a4df523b3ef846040516120ee91906128a7565b60405180910390a36121018484846125f4565b50505050565b60026005540361214c576040517f08c379a0000000000000000000000000000000000000000000000000000000008152600401612143906137e2565b60405180910390fd5b6002600581905550565b60008061216161086d565b90506000810361217457829150506121ae565b600061217e6106bd565b9050600081036121925783925050506121ae565b80828561219f9190612e0a565b6121a99190612e7b565b925050505b919050565b612236846323b872dd60e01b8585856040516024016121d49392919061330a565b604051602081830303815290604052907bffffffffffffffffffffffffffffffffffffffffffffffffffffffff19166020820180517bffffffffffffffffffffffffffffffffffffffffffffffffffffffff83818316178352505050506125f9565b50505050565b600073ffffffffffffffffffffffffffffffffffffffff168273ffffffffffffffffffffffffffffffffffffffff16036122ab576040517f08c379a00000000000000000000000000000000000000000000000000000000081526004016122a29061384e565b60405180910390fd5b6122b7600083836125ef565b80600260008282546122c99190612ee0565b92505081905550806000808473ffffffffffffffffffffffffffffffffffffffff1673ffffffffffffffffffffffffffffffffffffffff168152602001908152602001600020600082825401925050819055508173ffffffffffffffffffffffffffffffffffffffff16600073ffffffffffffffffffffffffffffffffffffffff167fddf252ad1be2c89b69c2b068fc378daa952ba7f163c4a11628f55a4df523b3ef8360405161237a91906128a7565b60405180910390a361238e600083836125f4565b5050565b6001600581905550565b600073ffffffffffffffffffffffffffffffffffffffff168273ffffffffffffffffffffffffffffffffffffffff160361240b576040517f08c379a0000000000000000000000000000000000000000000000000000000008152600401612402906138e0565b60405180910390fd5b612417826000836125ef565b60008060008473ffffffffffffffffffffffffffffffffffffffff1673ffffffffffffffffffffffffffffffffffffffff1681526020019081526020016000205490508181101561249d576040517f08c379a000000000000000000000000000000000000000000000000000000000815260040161249490613972565b60405180910390fd5b8181036000808573ffffffffffffffffffffffffffffffffffffffff1673ffffffffffffffffffffffffffffffffffffffff1681526020019081526020016000208190555081600260008282540392505081905550600073ffffffffffffffffffffffffffffffffffffffff168373ffffffffffffffffffffffffffffffffffffffff167fddf252ad1be2c89b69c2b068fc378daa952ba7f163c4a11628f55a4df523b3ef8460405161255091906128a7565b60405180910390a3612564836000846125f4565b505050565b6125ea8363a9059cbb60e01b8484604051602401612588929190613058565b604051602081830303815290604052907bffffffffffffffffffffffffffffffffffffffffffffffffffffffff19166020820180517bffffffffffffffffffffffffffffffffffffffffffffffffffffffff83818316178352505050506125f9565b505050565b505050565b505050565b600061265b826040518060400160405280602081526020017f5361666545524332303a206c6f772d6c6576656c2063616c6c206661696c65648152508573ffffffffffffffffffffffffffffffffffffffff166126c19092919063ffffffff16565b905060008151148061267d57508080602001905181019061267c91906130ad565b5b6126bc576040517f08c379a00000000000000000000000000000000000000000000000000000000081526004016126b390613a04565b60405180910390fd5b505050565b60606126d084846000856126d9565b90509392505050565b60608247101561271e576040517f08c379a000000000000000000000000000000000000000000000000000000000815260040161271590613a96565b60405180910390fd5b6000808673ffffffffffffffffffffffffffffffffffffffff1685876040516127479190613afd565b60006040518083038185875af1925050503d8060008114612784576040519150601f19603f3d011682016040523d82523d6000602084013e612789565b606091505b509150915061279a878383876127a6565b92505050949350505050565b60608315612808576000835103612800576127c08561281b565b6127ff576040517f08c379a00000000000000000000000000000000000000000000000000000000081526004016127f690613b60565b60405180910390fd5b5b829050612813565b612812838361283e565b5b949350505050565b6000808273ffffffffffffffffffffffffffffffffffffffff163b119050919050565b6000825111156128515781518083602001fd5b806040517f08c379a000000000000000000000000000000000000000000000000000000000815260040161288591906129ae565b60405180910390fd5b6000819050919050565b6128a18161288e565b82525050565b60006020820190506128bc6000830184612898565b92915050565b600073ffffffffffffffffffffffffffffffffffffffff82169050919050565b60006128ed826128c2565b9050919050565b6128fd816128e2565b82525050565b600060208201905061291860008301846128f4565b92915050565b600081519050919050565b600082825260208201905092915050565b60005b8381101561295857808201518184015260208101905061293d565b60008484015250505050565b6000601f19601f8301169050919050565b60006129808261291e565b61298a8185612929565b935061299a81856020860161293a565b6129a381612964565b840191505092915050565b600060208201905081810360008301526129c88184612975565b905092915050565b600080fd5b6129de8161288e565b81146129e957600080fd5b50565b6000813590506129fb816129d5565b92915050565b600060208284031215612a1757612a166129d0565b5b6000612a25848285016129ec565b91505092915050565b612a37816128e2565b8114612a4257600080fd5b50565b600081359050612a5481612a2e565b92915050565b60008060408385031215612a7157612a706129d0565b5b6000612a7f85828601612a45565b9250506020612a90858286016129ec565b9150509250929050565b60008115159050919050565b612aaf81612a9a565b82525050565b6000602082019050612aca6000830184612aa6565b92915050565b60008060408385031215612ae757612ae66129d0565b5b6000612af5858286016129ec565b9250506020612b0685828601612a45565b9150509250929050565b600080600060608486031215612b2957612b286129d0565b5b6000612b3786828701612a45565b9350506020612b4886828701612a45565b9250506040612b59868287016129ec565b9150509250925092565b600060ff82169050919050565b612b7981612b63565b82525050565b6000602082019050612b946000830184612b70565b92915050565b600060208284031215612bb057612baf6129d0565b5b6000612bbe84828501612a45565b91505092915050565b6000819050919050565b6000612bec612be7612be2846128c2565b612bc7565b6128c2565b9050919050565b6000612bfe82612bd1565b9050919050565b6000612c1082612bf3565b9050919050565b612c2081612c05565b82525050565b6000602082019050612c3b6000830184612c17565b92915050565b6000612c4c82612bf3565b9050919050565b612c5c81612c41565b82525050565b6000602082019050612c776000830184612c53565b92915050565b600080600060608486031215612c9657612c956129d0565b5b6000612ca4868287016129ec565b9350506020612cb586828701612a45565b9250506040612cc686828701612a45565b9150509250925092565b60008060408385031215612ce757612ce66129d0565b5b6000612cf585828601612a45565b9250506020612d0685828601612a45565b9150509250929050565b6000604082019050612d256000830185612898565b612d3260208301846128f4565b9392505050565b600081519050612d48816129d5565b92915050565b600060208284031215612d6457612d636129d0565b5b6000612d7284828501612d39565b91505092915050565b7f4e487b7100000000000000000000000000000000000000000000000000000000600052602260045260246000fd5b60006002820490506001821680612dc257607f821691505b602082108103612dd557612dd4612d7b565b5b50919050565b7f4e487b7100000000000000000000000000000000000000000000000000000000600052601160045260246000fd5b6000612e158261288e565b9150612e208361288e565b9250828202612e2e8161288e565b91508282048414831517612e4557612e44612ddb565b5b5092915050565b7f4e487b7100000000000000000000000000000000000000000000000000000000600052601260045260246000fd5b6000612e868261288e565b9150612e918361288e565b925082612ea157612ea0612e4c565b5b828204905092915050565b6000612eb78261288e565b9150612ec28361288e565b9250828203905081811115612eda57612ed9612ddb565b5b92915050565b6000612eeb8261288e565b9150612ef68361288e565b9250828201905080821115612f0e57612f0d612ddb565b5b92915050565b7f41726d6164615969656c645661756c743a207a65726f20617373657473000000600082015250565b6000612f4a601d83612929565b9150612f5582612f14565b602082019050919050565b60006020820190508181036000830152612f7981612f3d565b9050919050565b7f41726d6164615969656c645661756c743a207a65726f20726563656976657200600082015250565b6000612fb6601f83612929565b9150612fc182612f80565b602082019050919050565b60006020820190508181036000830152612fe581612fa9565b9050919050565b7f41726d6164615969656c645661756c743a207a65726f20736861726573000000600082015250565b6000613022601d83612929565b915061302d82612fec565b602082019050919050565b6000602082019050818103600083015261305181613015565b9050919050565b600060408201905061306d60008301856128f4565b61307a6020830184612898565b9392505050565b61308a81612a9a565b811461309557600080fd5b50565b6000815190506130a781613081565b92915050565b6000602082840312156130c3576130c26129d0565b5b60006130d184828501613098565b91505092915050565b60006060820190506130ef6000830186612898565b6130fc6020830185612898565b61310960408301846128f4565b949350505050565b60008060408385031215613128576131276129d0565b5b600061313685828601612d39565b925050602061314785828601612d39565b9150509250929050565b60006040820190506131666000830185612898565b6131736020830184612898565b9392505050565b7f45524332303a2064656372656173656420616c6c6f77616e63652062656c6f7760008201527f207a65726f000000000000000000000000000000000000000000000000000000602082015250565b60006131d6602583612929565b91506131e18261317a565b604082019050919050565b60006020820190508181036000830152613205816131c9565b9050919050565b7f41726d6164615969656c645661756c743a206e6f74206f776e65720000000000600082015250565b6000613242601b83612929565b915061324d8261320c565b602082019050919050565b6000602082019050818103600083015261327181613235565b9050919050565b7f41726d6164615969656c645661756c743a20696e73756666696369656e74206160008201527f6c6c6f77616e6365000000000000000000000000000000000000000000000000602082015250565b60006132d4602883612929565b91506132df82613278565b604082019050919050565b60006020820190508181036000830152613303816132c7565b9050919050565b600060608201905061331f60008301866128f4565b61332c60208301856128f4565b6133396040830184612898565b949350505050565b60006060820190506133566000830186612898565b6133636020830185612898565b6133706040830184612898565b949350505050565b7f41726d6164615969656c645661756c743a207a65726f20747265617375727900600082015250565b60006133ae601f83612929565b91506133b982613378565b602082019050919050565b600060208201905081810360008301526133dd816133a1565b9050919050565b7f41726d6164615969656c645661756c743a207a65726f206f776e657200000000600082015250565b600061341a601c83612929565b9150613425826133e4565b602082019050919050565b600060208201905081810360008301526134498161340d565b9050919050565b7f45524332303a20617070726f76652066726f6d20746865207a65726f2061646460008201527f7265737300000000000000000000000000000000000000000000000000000000602082015250565b60006134ac602483612929565b91506134b782613450565b604082019050919050565b600060208201905081810360008301526134db8161349f565b9050919050565b7f45524332303a20617070726f766520746f20746865207a65726f20616464726560008201527f7373000000000000000000000000000000000000000000000000000000000000602082015250565b600061353e602283612929565b9150613549826134e2565b604082019050919050565b6000602082019050818103600083015261356d81613531565b9050919050565b7f45524332303a20696e73756666696369656e7420616c6c6f77616e6365000000600082015250565b60006135aa601d83612929565b91506135b582613574565b602082019050919050565b600060208201905081810360008301526135d98161359d565b9050919050565b7f45524332303a207472616e736665722066726f6d20746865207a65726f20616460008201527f6472657373000000000000000000000000000000000000000000000000000000602082015250565b600061363c602583612929565b9150613647826135e0565b604082019050919050565b6000602082019050818103600083015261366b8161362f565b9050919050565b7f45524332303a207472616e7366657220746f20746865207a65726f206164647260008201527f6573730000000000000000000000000000000000000000000000000000000000602082015250565b60006136ce602383612929565b91506136d982613672565b604082019050919050565b600060208201905081810360008301526136fd816136c1565b9050919050565b7f45524332303a207472616e7366657220616d6f756e742065786365656473206260008201527f616c616e63650000000000000000000000000000000000000000000000000000602082015250565b6000613760602683612929565b915061376b82613704565b604082019050919050565b6000602082019050818103600083015261378f81613753565b9050919050565b7f5265656e7472616e637947756172643a207265656e7472616e742063616c6c00600082015250565b60006137cc601f83612929565b91506137d782613796565b602082019050919050565b600060208201905081810360008301526137fb816137bf565b9050919050565b7f45524332303a206d696e7420746f20746865207a65726f206164647265737300600082015250565b6000613838601f83612929565b915061384382613802565b602082019050919050565b600060208201905081810360008301526138678161382b565b9050919050565b7f45524332303a206275726e2066726f6d20746865207a65726f2061646472657360008201527f7300000000000000000000000000000000000000000000000000000000000000602082015250565b60006138ca602183612929565b91506138d58261386e565b604082019050919050565b600060208201905081810360008301526138f9816138bd565b9050919050565b7f45524332303a206275726e20616d6f756e7420657863656564732062616c616e60008201527f6365000000000000000000000000000000000000000000000000000000000000602082015250565b600061395c602283612929565b915061396782613900565b604082019050919050565b6000602082019050818103600083015261398b8161394f565b9050919050565b7f5361666545524332303a204552433230206f7065726174696f6e20646964206e60008201527f6f74207375636365656400000000000000000000000000000000000000000000602082015250565b60006139ee602a83612929565b91506139f982613992565b604082019050919050565b60006020820190508181036000830152613a1d816139e1565b9050919050565b7f416464726573733a20696e73756666696369656e742062616c616e636520666f60008201527f722063616c6c0000000000000000000000000000000000000000000000000000602082015250565b6000613a80602683612929565b9150613a8b82613a24565b604082019050919050565b60006020820190508181036000830152613aaf81613a73565b9050919050565b600081519050919050565b600081905092915050565b6000613ad782613ab6565b613ae18185613ac1565b9350613af181856020860161293a565b80840191505092915050565b6000613b098284613acc565b915081905092915050565b7f416464726573733a2063616c6c20746f206e6f6e2d636f6e7472616374000000600082015250565b6000613b4a601d83612929565b9150613b5582613b14565b602082019050919050565b60006020820190508181036000830152613b7981613b3d565b905091905056fea264697066735822122008cbf717ac003b888e7b98a90138bda576ca5dc74650f8340f170d90bc23504d64736f6c63430008110033","linkReferences":{}},"methodIdentifiers":{"BPS_DENOMINATOR()":"e1a45218","YIELD_FEE_BPS()":"e4c940cd","adapter()":"03eadcfc","allowance(address,address)":"dd62ed3e","approve(address,uint256)":"095ea7b3","balanceOf(address)":"70a08231","convertToAssets(uint256)":"07a2d13a","convertToShares(uint256)":"c6e6f592","decimals()":"313ce567","decreaseAllowance(address,uint256)":"a457c2d7","deposit(uint256,address)":"6e553f65","getUserAssets(address)":"765ff061","getUserYield(address)":"4229abdd","increaseAllowance(address,uint256)":"39509351","name()":"06fdde03","owner()":"8da5cb5b","previewRedeem(uint256,address)":"1daea443","redeem(uint256,address,address)":"ba087652","reserveId()":"ea8d1f0a","setAdapter(address)":"ab1da79c","setTreasury(address)":"f0f44260","spoke()":"47bfbcc6","symbol()":"95d89b41","totalAssets()":"01e1d114","totalPrincipal()":"4b1533b2","totalSupply()":"18160ddd","transfer(address,uint256)":"a9059cbb","transferFrom(address,address,uint256)":"23b872dd","transferOwnership(address)":"f2fde38b","treasury()":"61d027b3","underlying()":"6f307dc3","userCostBasisPerShare(address)":"f777b51a"},"storageLayout":{"storage":[{"astId":63085,"contract":"contracts/yield/ArmadaYieldVault.sol:ArmadaYieldVault","label":"_balances","offset":0,"slot":"0","type":"t_mapping(t_address,t_uint256)"},{"astId":63091,"contract":"contracts/yield/ArmadaYieldVault.sol:ArmadaYieldVault","label":"_allowances","offset":0,"slot":"1","type":"t_mapping(t_address,t_mapping(t_address,t_uint256))"},{"astId":63093,"contract":"contracts/yield/ArmadaYieldVault.sol:ArmadaYieldVault","label":"_totalSupply","offset":0,"slot":"2","type":"t_uint256"},{"astId":63095,"contract":"contracts/yield/ArmadaYieldVault.sol:ArmadaYieldVault","label":"_name","offset":0,"slot":"3","type":"t_string_storage"},{"astId":63097,"contract":"contracts/yield/ArmadaYieldVault.sol:ArmadaYieldVault","label":"_symbol","offset":0,"slot":"4","type":"t_string_storage"},{"astId":62974,"contract":"contracts/yield/ArmadaYieldVault.sol:ArmadaYieldVault","label":"_status","offset":0,"slot":"5","type":"t_uint256"},{"astId":18316,"contract":"contracts/yield/ArmadaYieldVault.sol:ArmadaYieldVault","label":"treasury","offset":0,"slot":"6","type":"t_address"},{"astId":18319,"contract":"contracts/yield/ArmadaYieldVault.sol:ArmadaYieldVault","label":"owner","offset":0,"slot":"7","type":"t_address"},{"astId":18322,"contract":"contracts/yield/ArmadaYieldVault.sol:ArmadaYieldVault","label":"adapter","offset":0,"slot":"8","type":"t_address"},{"astId":18325,"contract":"contracts/yield/ArmadaYieldVault.sol:ArmadaYieldVault","label":"totalPrincipal","offset":0,"slot":"9","type":"t_uint256"},{"astId":18330,"contract":"contracts/yield/ArmadaYieldVault.sol:ArmadaYieldVault","label":"userCostBasisPerShare","offset":0,"slot":"10","type":"t_mapping(t_address,t_uint256)"}],"types":{"t_address":{"encoding":"inplace","label":"address","numberOfBytes":"20"},"t_mapping(t_address,t_mapping(t_address,t_uint256))":{"encoding":"mapping","key":"t_address","label":"mapping(address => mapping(address => uint256))","numberOfBytes":"32","value":"t_mapping(t_address,t_uint256)"},"t_mapping(t_address,t_uint256)":{"encoding":"mapping","key":"t_address","label":"mapping(address => uint256)","numberOfBytes":"32","value":"t_uint256"},"t_string_storage":{"encoding":"bytes","label":"string","numberOfBytes":"32"},"t_uint256":{"encoding":"inplace","label":"uint256","numberOfBytes":"32"}}},"id":44}