{"abi":[{"type":"constructor","inputs":[{"name":"_target","type":"address","internalType":"address"},{"name":"_armToken","type":"address","internalType":"address"}],"stateMutability":"nonpayable"},{"type":"receive","stateMutability":"payable"},{"type":"function","name":"armToken","inputs":[],"outputs":[{"name":"","type":"address","internalType":"contract IERC20"}],"stateMutability":"view"},{"type":"function","name":"attackCount","inputs":[],"outputs":[{"name":"","type":"uint256","internalType":"uint256"}],"stateMutability":"view"},{"type":"function","name":"attackUnlock","inputs":[{"name":"amount","type":"uint256","internalType":"uint256"}],"outputs":[],"stateMutability":"nonpayable"},{"type":"function","name":"lockTokens","inputs":[{"name":"amount","type":"uint256","internalType":"uint256"}],"outputs":[],"stateMutability":"nonpayable"},{"type":"function","name":"target","inputs":[],"outputs":[{"name":"","type":"address","internalType":"contract IVotingLockerAttack"}],"stateMutability":"view"}],"bytecode":{"object":"0x608060405234801561001057600080fd5b506040516108903803806108908339818101604052810190610032919061011d565b816000806101000a81548173ffffffffffffffffffffffffffffffffffffffff021916908373ffffffffffffffffffffffffffffffffffffffff16021790555080600160006101000a81548173ffffffffffffffffffffffffffffffffffffffff021916908373ffffffffffffffffffffffffffffffffffffffff160217905550505061015d565b600080fd5b600073ffffffffffffffffffffffffffffffffffffffff82169050919050565b60006100ea826100bf565b9050919050565b6100fa816100df565b811461010557600080fd5b50565b600081519050610117816100f1565b92915050565b60008060408385031215610134576101336100ba565b5b600061014285828601610108565b925050602061015385828601610108565b9150509250929050565b6107248061016c6000396000f3fe60806040526004361061004e5760003560e01c8063407c28211461010a57806354c98d8e146101355780636e27d88914610160578063d4b8399214610189578063e7d2014e146101b457610105565b366101055760016002541015610103576002600081548092919061007190610443565b919050555060008054906101000a900473ffffffffffffffffffffffffffffffffffffffff1673ffffffffffffffffffffffffffffffffffffffff16636198e33960016040518263ffffffff1660e01b81526004016100d091906104d0565b600060405180830381600087803b1580156100ea57600080fd5b505af11580156100fe573d6000803e3d6000fd5b505050505b005b600080fd5b34801561011657600080fd5b5061011f6101dd565b60405161012c91906104fa565b60405180910390f35b34801561014157600080fd5b5061014a6101e3565b604051610157919061058a565b60405180910390f35b34801561016c57600080fd5b50610187600480360381019061018291906105d6565b610209565b005b34801561019557600080fd5b5061019e610358565b6040516101ab9190610624565b60405180910390f35b3480156101c057600080fd5b506101db60048036038101906101d691906105d6565b61037c565b005b60025481565b600160009054906101000a900473ffffffffffffffffffffffffffffffffffffffff1681565b600160009054906101000a900473ffffffffffffffffffffffffffffffffffffffff1673ffffffffffffffffffffffffffffffffffffffff1663095ea7b360008054906101000a900473ffffffffffffffffffffffffffffffffffffffff16836040518363ffffffff1660e01b8152600401610286929190610660565b6020604051808303816000875af11580156102a5573d6000803e3d6000fd5b505050506040513d601f19601f820116820180604052508101906102c991906106c1565b5060008054906101000a900473ffffffffffffffffffffffffffffffffffffffff1673ffffffffffffffffffffffffffffffffffffffff1663dd467064826040518263ffffffff1660e01b815260040161032391906104fa565b600060405180830381600087803b15801561033d57600080fd5b505af1158015610351573d6000803e3d6000fd5b5050505050565b60008054906101000a900473ffffffffffffffffffffffffffffffffffffffff1681565b60008054906101000a900473ffffffffffffffffffffffffffffffffffffffff1673ffffffffffffffffffffffffffffffffffffffff16636198e339826040518263ffffffff1660e01b81526004016103d591906104fa565b600060405180830381600087803b1580156103ef57600080fd5b505af1158015610403573d6000803e3d6000fd5b5050505050565b7f4e487b7100000000000000000000000000000000000000000000000000000000600052601160045260246000fd5b6000819050919050565b600061044e82610439565b91507fffffffffffffffffffffffffffffffffffffffffffffffffffffffffffffffff82036104805761047f61040a565b5b600182019050919050565b6000819050919050565b6000819050919050565b60006104ba6104b56104b08461048b565b610495565b610439565b9050919050565b6104ca8161049f565b82525050565b60006020820190506104e560008301846104c1565b92915050565b6104f481610439565b82525050565b600060208201905061050f60008301846104eb565b92915050565b600073ffffffffffffffffffffffffffffffffffffffff82169050919050565b600061055061054b61054684610515565b610495565b610515565b9050919050565b600061056282610535565b9050919050565b600061057482610557565b9050919050565b61058481610569565b82525050565b600060208201905061059f600083018461057b565b92915050565b600080fd5b6105b381610439565b81146105be57600080fd5b50565b6000813590506105d0816105aa565b92915050565b6000602082840312156105ec576105eb6105a5565b5b60006105fa848285016105c1565b91505092915050565b600061060e82610557565b9050919050565b61061e81610603565b82525050565b60006020820190506106396000830184610615565b92915050565b600061064a82610515565b9050919050565b61065a8161063f565b82525050565b60006040820190506106756000830185610651565b61068260208301846104eb565b9392505050565b60008115159050919050565b61069e81610689565b81146106a957600080fd5b50565b6000815190506106bb81610695565b92915050565b6000602082840312156106d7576106d66105a5565b5b60006106e5848285016106ac565b9150509291505056fea264697066735822122044726ef3fa5f1eb7e61867fdc1f689dd880435c37bc76d30e8ef4ad95b273d9164736f6c63430008110033","linkReferences":{}},"methodIdentifiers":{"armToken()":"54c98d8e","attackCount()":"407c2821","attackUnlock(uint256)":"e7d2014e","lockTokens(uint256)":"6e27d889","target()":"d4b83992"},"id":41}