{"abi":[{"type":"function","name":"ZERO_VALUE","inputs":[],"outputs":[{"name":"","type":"bytes32","internalType":"bytes32"}],"stateMutability":"view"},{"type":"function","name":"initialized","inputs":[],"outputs":[{"name":"","type":"bool","internalType":"bool"}],"stateMutability":"view"},{"type":"function","name":"lastEventBlock","inputs":[],"outputs":[{"name":"","type":"uint256","internalType":"uint256"}],"stateMutability":"view"},{"type":"function","name":"localDomain","inputs":[],"outputs":[{"name":"","type":"uint32","internalType":"uint32"}],"stateMutability":"view"},{"type":"function","name":"merkleModule","inputs":[],"outputs":[{"name":"","type":"address","internalType":"address"}],"stateMutability":"view"},{"type":"function","name":"merkleRoot","inputs":[],"outputs":[{"name":"","type":"bytes32","internalType":"bytes32"}],"stateMutability":"view"},{"type":"function","name":"messageTransmitter","inputs":[],"outputs":[{"name":"","type":"address","internalType":"address"}],"stateMutability":"view"},{"type":"function","name":"nextLeafIndex","inputs":[],"outputs":[{"name":"","type":"uint256","internalType":"uint256"}],"stateMutability":"view"},{"type":"function","name":"nftFee","inputs":[],"outputs":[{"name":"","type":"uint120","internalType":"uint120"}],"stateMutability":"view"},{"type":"function","name":"nullifiers","inputs":[{"name":"","type":"uint256","internalType":"uint256"},{"name":"","type":"bytes32","internalType":"bytes32"}],"outputs":[{"name":"","type":"bool","internalType":"bool"}],"stateMutability":"view"},{"type":"function","name":"owner","inputs":[],"outputs":[{"name":"","type":"address","internalType":"address"}],"stateMutability":"view"},{"type":"function","name":"processIncomingShield","inputs":[{"name":"amount","type":"uint256","internalType":"uint256"},{"name":"data","type":"tuple","internalType":"struct ShieldData","components":[{"name":"npk","type":"bytes32","internalType":"bytes32"},{"name":"value","type":"uint120","internalType":"uint120"},{"name":"encryptedBundle","type":"bytes32[3]","internalType":"bytes32[3]"},{"name":"shieldKey","type":"bytes32","internalType":"bytes32"}]}],"outputs":[],"stateMutability":"nonpayable"},{"type":"function","name":"remotePools","inputs":[{"name":"","type":"uint32","internalType":"uint32"}],"outputs":[{"name":"","type":"bytes32","internalType":"bytes32"}],"stateMutability":"view"},{"type":"function","name":"rootHistory","inputs":[{"name":"","type":"uint256","internalType":"uint256"},{"name":"","type":"bytes32","internalType":"bytes32"}],"outputs":[{"name":"","type":"bool","internalType":"bool"}],"stateMutability":"view"},{"type":"function","name":"shield","inputs":[{"name":"_shieldRequests","type":"tuple[]","internalType":"struct ShieldRequest[]","components":[{"name":"preimage","type":"tuple","internalType":"struct CommitmentPreimage","components":[{"name":"npk","type":"bytes32","internalType":"bytes32"},{"name":"token","type":"tuple","internalType":"struct TokenData","components":[{"name":"tokenType","type":"uint8","internalType":"enum TokenType"},{"name":"tokenAddress","type":"address","internalType":"address"},{"name":"tokenSubID","type":"uint256","internalType":"uint256"}]},{"name":"value","type":"uint120","internalType":"uint120"}]},{"name":"ciphertext","type":"tuple","internalType":"struct ShieldCiphertext","components":[{"name":"encryptedBundle","type":"bytes32[3]","internalType":"bytes32[3]"},{"name":"shieldKey","type":"bytes32","internalType":"bytes32"}]}]}],"outputs":[],"stateMutability":"nonpayable"},{"type":"function","name":"shieldFee","inputs":[],"outputs":[{"name":"","type":"uint120","internalType":"uint120"}],"stateMutability":"view"},{"type":"function","name":"shieldModule","inputs":[],"outputs":[{"name":"","type":"address","internalType":"address"}],"stateMutability":"view"},{"type":"function","name":"snarkSafetyVector","inputs":[{"name":"","type":"uint256","internalType":"uint256"}],"outputs":[{"name":"","type":"bool","internalType":"bool"}],"stateMutability":"view"},{"type":"function","name":"testingMode","inputs":[],"outputs":[{"name":"","type":"bool","internalType":"bool"}],"stateMutability":"view"},{"type":"function","name":"tokenBlocklist","inputs":[{"name":"","type":"address","internalType":"address"}],"outputs":[{"name":"","type":"bool","internalType":"bool"}],"stateMutability":"view"},{"type":"function","name":"tokenIDMapping","inputs":[{"name":"","type":"bytes32","internalType":"bytes32"}],"outputs":[{"name":"tokenType","type":"uint8","internalType":"enum TokenType"},{"name":"tokenAddress","type":"address","internalType":"address"},{"name":"tokenSubID","type":"uint256","internalType":"uint256"}],"stateMutability":"view"},{"type":"function","name":"tokenMessenger","inputs":[],"outputs":[{"name":"","type":"address","internalType":"address"}],"stateMutability":"view"},{"type":"function","name":"transactModule","inputs":[],"outputs":[{"name":"","type":"address","internalType":"address"}],"stateMutability":"view"},{"type":"function","name":"treasury","inputs":[],"outputs":[{"name":"","type":"address","internalType":"address payable"}],"stateMutability":"view"},{"type":"function","name":"treeNumber","inputs":[],"outputs":[{"name":"","type":"uint256","internalType":"uint256"}],"stateMutability":"view"},{"type":"function","name":"unshieldFee","inputs":[],"outputs":[{"name":"","type":"uint120","internalType":"uint120"}],"stateMutability":"view"},{"type":"function","name":"usdc","inputs":[],"outputs":[{"name":"","type":"address","internalType":"address"}],"stateMutability":"view"},{"type":"function","name":"verifierModule","inputs":[],"outputs":[{"name":"","type":"address","internalType":"address"}],"stateMutability":"view"},{"type":"function","name":"zeros","inputs":[{"name":"","type":"uint256","internalType":"uint256"}],"outputs":[{"name":"","type":"bytes32","internalType":"bytes32"}],"stateMutability":"view"},{"type":"event","name":"Shield","inputs":[{"name":"treeNumber","type":"uint256","indexed":false,"internalType":"uint256"},{"name":"startPosition","type":"uint256","indexed":false,"internalType":"uint256"},{"name":"commitments","type":"tuple[]","indexed":false,"internalType":"struct CommitmentPreimage[]","components":[{"name":"npk","type":"bytes32","internalType":"bytes32"},{"name":"token","type":"tuple","internalType":"struct TokenData","components":[{"name":"tokenType","type":"uint8","internalType":"enum TokenType"},{"name":"tokenAddress","type":"address","internalType":"address"},{"name":"tokenSubID","type":"uint256","internalType":"uint256"}]},{"name":"value","type":"uint120","internalType":"uint120"}]},{"name":"shieldCiphertext","type":"tuple[]","indexed":false,"internalType":"struct ShieldCiphertext[]","components":[{"name":"encryptedBundle","type":"bytes32[3]","internalType":"bytes32[3]"},{"name":"shieldKey","type":"bytes32","internalType":"bytes32"}]},{"name":"fees","type":"uint256[]","indexed":false,"internalType":"uint256[]"}],"anonymous":false}],"bytecode":{"object":"0x608060405234801561001057600080fd5b50613b88806100206000396000f3fe608060405234801561001057600080fd5b50600436106101cf5760003560e01c80636650331511610104578063b8ceaef2116100a2578063cd3efe0611610071578063cd3efe061461051a578063e829558814610538578063ec73295914610568578063f19ea90314610586576101cf565b8063b8ceaef21461047e578063c5b2d8c0146104b0578063c718dbda146104cc578063c8f35b5d146104fc576101cf565b80638d3638f4116100de5780638d3638f4146104065780638da5cb5b146104245780639071adc01461044257806390de3f6e14610460576101cf565b8063665033151461039a5780637b04c181146103b8578063815b534f146103d6576101cf565b80632eb4a7ab116101715780633e413bee1161014b5780633e413bee1461032257806341506fc114610340578063461178301461035e57806361d027b31461037c576101cf565b80632eb4a7ab146102b657806330ed93c3146102d457806335db307c14610304576101cf565b8063053ed12a116101ad578063053ed12a1461022c5780630be4f4221461024a578063129458f414610268578063158ef93e14610298576101cf565b806301c37790146101d4578063044a40c3146101f2578063048e09901461020e575b600080fd5b6101dc6105b6565b6040516101e9919061231c565b60405180910390f35b61020c600480360381019061020791906123b1565b6105d7565b005b6102166109db565b604051610223919061243f565b60405180910390f35b610234610a01565b604051610241919061231c565b60405180910390f35b610252610a22565b60405161025f9190612473565b60405180910390f35b610282600480360381019061027d91906124ba565b610a28565b60405161028f9190612502565b60405180910390f35b6102a0610a48565b6040516102ad9190612502565b60405180910390f35b6102be610a5b565b6040516102cb9190612536565b60405180910390f35b6102ee60048036038101906102e9919061258d565b610a61565b6040516102fb9190612536565b60405180910390f35b61030c610a79565b604051610319919061243f565b60405180910390f35b61032a610a9d565b604051610337919061243f565b60405180910390f35b610348610ac3565b604051610355919061243f565b60405180910390f35b610366610ae9565b604051610373919061243f565b60405180910390f35b610384610b0f565b60405161039191906125db565b60405180910390f35b6103a2610b35565b6040516103af9190612473565b60405180910390f35b6103c0610b3b565b6040516103cd919061243f565b60405180910390f35b6103f060048036038101906103eb9190612622565b610b61565b6040516103fd9190612502565b60405180910390f35b61040e610b81565b60405161041b919061265e565b60405180910390f35b61042c610b97565b604051610439919061243f565b60405180910390f35b61044a610bbd565b604051610457919061231c565b60405180910390f35b610468610bde565b604051610475919061243f565b60405180910390f35b610498600480360381019061049391906126a5565b610c04565b6040516104a793929190612749565b60405180910390f35b6104ca60048036038101906104c591906127a4565b610c5b565b005b6104e660048036038101906104e191906127e4565b610e64565b6040516104f39190612502565b60405180910390f35b610504610e93565b6040516105119190612502565b60405180910390f35b610522610ea6565b60405161052f9190612473565b60405180910390f35b610552600480360381019061054d91906124ba565b610eac565b60405161055f9190612536565b60405180910390f35b610570610ec7565b60405161057d9190612536565b60405180910390f35b6105a0600480360381019061059b91906127e4565b610f1c565b6040516105ad9190612502565b60405180910390f35b600960009054906101000a90046effffffffffffffffffffffffffffff1681565b600082829050905060008111610622576040517f08c379a000000000000000000000000000000000000000000000000000000000815260040161061990612881565b60405180910390fd5b60008167ffffffffffffffff81111561063e5761063d6128a1565b5b60405190808252806020026020018201604052801561066c5781602001602082028036833780820191505090505b50905060008267ffffffffffffffff81111561068b5761068a6128a1565b5b6040519080825280602002602001820160405280156106c457816020015b6106b1612203565b8152602001906001900390816106a95790505b50905060008367ffffffffffffffff8111156106e3576106e26128a1565b5b60405190808252806020026020018201604052801561071c57816020015b61070961223e565b8152602001906001900390816107015790505b50905060008467ffffffffffffffff81111561073b5761073a6128a1565b5b6040519080825280602002602001820160405280156107695781602001602082028036833780820191505090505b50905060005b8581101561089e5761079c88888381811061078d5761078c6128d0565b5b90506101200201600001610f4b565b6107c18888838181106107b2576107b16128d0565b5b90506101200201600001611167565b8583815181106107d4576107d36128d0565b5b602002602001018484815181106107ee576107ed6128d0565b5b60200260200101828152508290525050610821848281518110610814576108136128d0565b5b602002602001015161152a565b858281518110610834576108336128d0565b5b602002602001018181525050878782818110610853576108526128d0565b5b9050610120020160a00180360381019061086d9190612a62565b8382815181106108805761087f6128d0565b5b6020026020010181905250808061089690612abe565b91505061076f565b506000803073ffffffffffffffffffffffffffffffffffffffff16630c9c0c8d886040518263ffffffff1660e01b81526004016108db9190612473565b6040805180830381865afa1580156108f7573d6000803e3d6000fd5b505050506040513d601f19601f8201168201806040525081019061091b9190612b1b565b915091507f3a5b9dc26075a3801a6ddccf95fec485bb7500a91b44cec1add984c21ee6db3b8282878787604051610956959493929190612f02565b60405180910390a13073ffffffffffffffffffffffffffffffffffffffff1663dc52bf9f876040518263ffffffff1660e01b81526004016109979190613001565b600060405180830381600087803b1580156109b157600080fd5b505af11580156109c5573d6000803e3d6000fd5b5050505043603681905550505050505050505050565b600160009054906101000a900473ffffffffffffffffffffffffffffffffffffffff1681565b6009600f9054906101000a90046effffffffffffffffffffffffffffff1681565b600d5481565b60356020528060005260406000206000915054906101000a900460ff1681565b603760149054906101000a900460ff1681565b600e5481565b60076020528060005260406000206000915090505481565b60008054906101000a900473ffffffffffffffffffffffffffffffffffffffff1681565b600660009054906101000a900473ffffffffffffffffffffffffffffffffffffffff1681565b600360009054906101000a900473ffffffffffffffffffffffffffffffffffffffff1681565b600460009054906101000a900473ffffffffffffffffffffffffffffffffffffffff1681565b600860009054906101000a900473ffffffffffffffffffffffffffffffffffffffff1681565b60105481565b600560009054906101000a900473ffffffffffffffffffffffffffffffffffffffff1681565b600b6020528060005260406000206000915054906101000a900460ff1681565b600660149054906101000a900463ffffffff1681565b603760009054906101000a900473ffffffffffffffffffffffffffffffffffffffff1681565b600a60009054906101000a90046effffffffffffffffffffffffffffff1681565b600260009054906101000a900473ffffffffffffffffffffffffffffffffffffffff1681565b600c6020528060005260406000206000915090508060000160009054906101000a900460ff16908060000160019054906101000a900473ffffffffffffffffffffffffffffffffffffffff16908060010154905083565b806020016020810190610c6e919061304f565b6effffffffffffffffffffffffffffff16821115610cc1576040517f08c379a0000000000000000000000000000000000000000000000000000000008152600401610cb8906130ee565b60405180910390fd5b60008290506000600167ffffffffffffffff811115610ce357610ce26128a1565b5b604051908082528060200260200182016040528015610d1c57816020015b610d09612261565b815260200190600190039081610d015790505b5090506040518060400160405280604051806060016040528086600001358152602001604051806060016040528060006002811115610d5e57610d5d6126d2565b5b8152602001600660009054906101000a900473ffffffffffffffffffffffffffffffffffffffff1673ffffffffffffffffffffffffffffffffffffffff16815260200160008152508152602001856effffffffffffffffffffffffffffff1681525081526020016040518060400160405280866040016003806020026040519081016040528092919082600360200280828437600081840152601f19601f82011690508083019250505050505081526020018660a0013581525081525081600081518110610e2f57610e2e6128d0565b5b6020026020010181905250610e5e81600081518110610e5157610e506128d0565b5b60200260200101516115ed565b50505050565b60316020528160005260406000206020528060005260406000206000915091509054906101000a900460ff1681565b603460009054906101000a900460ff1681565b60365481565b60118160108110610ebc57600080fd5b016000915090505481565b7f30644e72e131a029b85045b68181585d2833e84879b9709143e1f593f00000017f95b5e3f3c951508f13e7771152f5b7c7329a294917685c10a571c9247e3b9fff60001c610f16919061313d565b60001b81565b60326020528160005260406000206020528060005260406000206000915091509054906101000a900460ff1681565b6000816080016020810190610f60919061304f565b6effffffffffffffffffffffffffffff1611610fb1576040517f08c379a0000000000000000000000000000000000000000000000000000000008152600401610fa8906131ba565b60405180910390fd5b600b6000826020016020016020810190610fcb9190612622565b73ffffffffffffffffffffffffffffffffffffffff1673ffffffffffffffffffffffffffffffffffffffff16815260200190815260200160002060009054906101000a900460ff1615611053576040517f08c379a000000000000000000000000000000000000000000000000000000000815260040161104a90613226565b60405180910390fd5b7f30644e72e131a029b85045b68181585d2833e84879b9709143e1f593f0000001816000013560001c106110bc576040517f08c379a00000000000000000000000000000000000000000000000000000000081526004016110b390613292565b60405180910390fd5b600160028111156110d0576110cf6126d2565b5b8160200160000160208101906110e691906132d7565b60028111156110f8576110f76126d2565b5b03611164576001816080016020810190611112919061304f565b6effffffffffffffffffffffffffffff1614611163576040517f08c379a000000000000000000000000000000000000000000000000000000000815260040161115a90613350565b60405180910390fd5b5b50565b61116f612203565b6000806002811115611184576111836126d2565b5b83602001600001602081019061119a91906132d7565b60028111156111ac576111ab6126d2565b5b146111ec576040517f08c379a00000000000000000000000000000000000000000000000000000000081526004016111e3906133e2565b60405180910390fd5b60008360200160200160208101906112049190612622565b905060008061125586608001602081019061121f919061304f565b6effffffffffffffffffffffffffffff166001600960009054906101000a90046effffffffffffffffffffffffffffff16611ad8565b91509150604051806060016040528087600001358152602001876020018036038101906112829190613466565b8152602001836effffffffffffffffffffffffffffff168152509450806effffffffffffffffffffffffffffff16935060008373ffffffffffffffffffffffffffffffffffffffff166370a08231306040518263ffffffff1660e01b81526004016112ed919061243f565b602060405180830381865afa15801561130a573d6000803e3d6000fd5b505050506040513d601f19601f8201168201806040525081019061132e9190613493565b905061136e3330856effffffffffffffffffffffffffffff168773ffffffffffffffffffffffffffffffffffffffff16611bc3909392919063ffffffff16565b60008473ffffffffffffffffffffffffffffffffffffffff166370a08231306040518263ffffffff1660e01b81526004016113a9919061243f565b602060405180830381865afa1580156113c6573d6000803e3d6000fd5b505050506040513d601f19601f820116820180604052508101906113ea9190613493565b9050836effffffffffffffffffffffffffffff16828261140a91906134c0565b1461144a576040517f08c379a000000000000000000000000000000000000000000000000000000000815260040161144190613540565b60405180910390fd5b6000836effffffffffffffffffffffffffffff161180156114ba5750600073ffffffffffffffffffffffffffffffffffffffff16600860009054906101000a900473ffffffffffffffffffffffffffffffffffffffff1673ffffffffffffffffffffffffffffffffffffffff1614155b156115205761151f33600860009054906101000a900473ffffffffffffffffffffffffffffffffffffffff16856effffffffffffffffffffffffffffff168873ffffffffffffffffffffffffffffffffffffffff16611bc3909392919063ffffffff16565b5b5050505050915091565b600073__$610c11827248d0bfa646e7ca34d40f2d3f$__635a53025d6040518060600160405280856000015181526020016115688660200151611c4c565b815260200185604001516effffffffffffffffffffffffffffff1660001b8152506040518263ffffffff1660e01b81526004016115a591906135e9565b602060405180830381865af41580156115c2573d6000803e3d6000fd5b505050506040513d601f19601f820116820180604052508101906115e69190613619565b9050919050565b6115fa8160000151611d02565b600080826000015190506000600960009054906101000a90046effffffffffffffffffffffffffffff166effffffffffffffffffffffffffffff1611156117bf576000806116808560000151604001516effffffffffffffffffffffffffffff166001600960009054906101000a90046effffffffffffffffffffffffffffff16611ad8565b915091508183604001906effffffffffffffffffffffffffffff1690816effffffffffffffffffffffffffffff1681525050806effffffffffffffffffffffffffffff1693506000816effffffffffffffffffffffffffffff161180156117365750600073ffffffffffffffffffffffffffffffffffffffff16600860009054906101000a900473ffffffffffffffffffffffffffffffffffffffff1673ffffffffffffffffffffffffffffffffffffffff1614155b156117bc576117bb600860009054906101000a900473ffffffffffffffffffffffffffffffffffffffff16826effffffffffffffffffffffffffffff16600660009054906101000a900473ffffffffffffffffffffffffffffffffffffffff1673ffffffffffffffffffffffffffffffffffffffff16611ee89092919063ffffffff16565b5b50505b6000600167ffffffffffffffff8111156117dc576117db6128a1565b5b60405190808252806020026020018201604052801561180a5781602001602082028036833780820191505090505b5090506000600167ffffffffffffffff81111561182a576118296128a1565b5b60405190808252806020026020018201604052801561186357816020015b611850612203565b8152602001906001900390816118485790505b5090506000600167ffffffffffffffff811115611883576118826128a1565b5b6040519080825280602002602001820160405280156118bc57816020015b6118a961223e565b8152602001906001900390816118a15790505b5090506000600167ffffffffffffffff8111156118dc576118db6128a1565b5b60405190808252806020026020018201604052801561190a5781602001602082028036833780820191505090505b5090508483600081518110611922576119216128d0565b5b6020026020010181905250866020015182600081518110611946576119456128d0565b5b60200260200101819052508581600081518110611966576119656128d0565b5b60200260200101818152505061197b8561152a565b8460008151811061198f5761198e6128d0565b5b6020026020010181815250506000803073ffffffffffffffffffffffffffffffffffffffff16630c9c0c8d60016040518263ffffffff1660e01b81526004016119d8919061368b565b6040805180830381865afa1580156119f4573d6000803e3d6000fd5b505050506040513d601f19601f82011682018060405250810190611a189190612b1b565b915091507f3a5b9dc26075a3801a6ddccf95fec485bb7500a91b44cec1add984c21ee6db3b8282878787604051611a53959493929190612f02565b60405180910390a13073ffffffffffffffffffffffffffffffffffffffff1663dc52bf9f876040518263ffffffff1660e01b8152600401611a949190613001565b600060405180830381600087803b158015611aae57600080fd5b505af1158015611ac2573d6000803e3d6000fd5b5050505043603681905550505050505050505050565b6000806000836effffffffffffffffffffffffffffff1603611b005784600091509150611bbb565b8315611b61576127106effffffffffffffffffffffffffffff16836effffffffffffffffffffffffffffff1686611b3791906136c3565b611b419190613705565b85611b4c9190613736565b91508185611b5a919061377b565b9050611bba565b8491508483612710611b73919061377b565b6effffffffffffffffffffffffffffff16866127106effffffffffffffffffffffffffffff16611ba391906136c3565b611bad9190613705565b611bb79190613736565b90505b5b935093915050565b611c46846323b872dd60e01b858585604051602401611be4939291906137be565b604051602081830303815290604052907bffffffffffffffffffffffffffffffffffffffffffffffffffffffff19166020820180517bffffffffffffffffffffffffffffffffffffffffffffffffffffffff8381831617835250505050611f6e565b50505050565b6000806002811115611c6157611c606126d2565b5b82600001516002811115611c7857611c776126d2565b5b03611ca257816020015173ffffffffffffffffffffffffffffffffffffffff1660001b9050611cfd565b7f30644e72e131a029b85045b68181585d2833e84879b9709143e1f593f000000182604051602001611cd49190613837565b6040516020818303038152906040528051906020012060001c611cf7919061313d565b60001b90505b919050565b600081604001516effffffffffffffffffffffffffffff1611611d5a576040517f08c379a0000000000000000000000000000000000000000000000000000000008152600401611d51906131ba565b60405180910390fd5b600b600082602001516020015173ffffffffffffffffffffffffffffffffffffffff1673ffffffffffffffffffffffffffffffffffffffff16815260200190815260200160002060009054906101000a900460ff1615611def576040517f08c379a0000000000000000000000000000000000000000000000000000000008152600401611de690613226565b60405180910390fd5b7f30644e72e131a029b85045b68181585d2833e84879b9709143e1f593f0000001816000015160001c10611e58576040517f08c379a0000000000000000000000000000000000000000000000000000000008152600401611e4f90613292565b60405180910390fd5b60016002811115611e6c57611e6b6126d2565b5b8160200151600001516002811115611e8757611e866126d2565b5b03611ee557600181604001516effffffffffffffffffffffffffffff1614611ee4576040517f08c379a0000000000000000000000000000000000000000000000000000000008152600401611edb90613350565b60405180910390fd5b5b50565b611f698363a9059cbb60e01b8484604051602401611f07929190613852565b604051602081830303815290604052907bffffffffffffffffffffffffffffffffffffffffffffffffffffffff19166020820180517bffffffffffffffffffffffffffffffffffffffffffffffffffffffff8381831617835250505050611f6e565b505050565b6000611fd0826040518060400160405280602081526020017f5361666545524332303a206c6f772d6c6576656c2063616c6c206661696c65648152508573ffffffffffffffffffffffffffffffffffffffff166120369092919063ffffffff16565b9050600081511480611ff2575080806020019051810190611ff191906138a7565b5b612031576040517f08c379a000000000000000000000000000000000000000000000000000000000815260040161202890613946565b60405180910390fd5b505050565b6060612045848460008561204e565b90509392505050565b606082471015612093576040517f08c379a000000000000000000000000000000000000000000000000000000000815260040161208a906139d8565b60405180910390fd5b6000808673ffffffffffffffffffffffffffffffffffffffff1685876040516120bc9190613a69565b60006040518083038185875af1925050503d80600081146120f9576040519150601f19603f3d011682016040523d82523d6000602084013e6120fe565b606091505b509150915061210f8783838761211b565b92505050949350505050565b6060831561217d5760008351036121755761213585612190565b612174576040517f08c379a000000000000000000000000000000000000000000000000000000000815260040161216b90613acc565b60405180910390fd5b5b829050612188565b61218783836121b3565b5b949350505050565b6000808273ffffffffffffffffffffffffffffffffffffffff163b119050919050565b6000825111156121c65781518083602001fd5b806040517f08c379a00000000000000000000000000000000000000000000000000000000081526004016121fa9190613b30565b60405180910390fd5b604051806060016040528060008019168152602001612220612287565b815260200160006effffffffffffffffffffffffffffff1681525090565b60405180604001604052806122516122d0565b8152602001600080191681525090565b6040518060400160405280612274612203565b815260200161228161223e565b81525090565b6040518060600160405280600060028111156122a6576122a56126d2565b5b8152602001600073ffffffffffffffffffffffffffffffffffffffff168152602001600081525090565b6040518060600160405280600390602082028036833780820191505090505090565b60006effffffffffffffffffffffffffffff82169050919050565b612316816122f2565b82525050565b6000602082019050612331600083018461230d565b92915050565b6000604051905090565b600080fd5b600080fd5b600080fd5b600080fd5b600080fd5b60008083601f8401126123705761236f61234b565b5b8235905067ffffffffffffffff81111561238d5761238c612350565b5b602083019150836101208202830111156123aa576123a9612355565b5b9250929050565b600080602083850312156123c8576123c7612341565b5b600083013567ffffffffffffffff8111156123e6576123e5612346565b5b6123f28582860161235a565b92509250509250929050565b600073ffffffffffffffffffffffffffffffffffffffff82169050919050565b6000612429826123fe565b9050919050565b6124398161241e565b82525050565b60006020820190506124546000830184612430565b92915050565b6000819050919050565b61246d8161245a565b82525050565b60006020820190506124886000830184612464565b92915050565b6124978161245a565b81146124a257600080fd5b50565b6000813590506124b48161248e565b92915050565b6000602082840312156124d0576124cf612341565b5b60006124de848285016124a5565b91505092915050565b60008115159050919050565b6124fc816124e7565b82525050565b600060208201905061251760008301846124f3565b92915050565b6000819050919050565b6125308161251d565b82525050565b600060208201905061254b6000830184612527565b92915050565b600063ffffffff82169050919050565b61256a81612551565b811461257557600080fd5b50565b60008135905061258781612561565b92915050565b6000602082840312156125a3576125a2612341565b5b60006125b184828501612578565b91505092915050565b60006125c5826123fe565b9050919050565b6125d5816125ba565b82525050565b60006020820190506125f060008301846125cc565b92915050565b6125ff8161241e565b811461260a57600080fd5b50565b60008135905061261c816125f6565b92915050565b60006020828403121561263857612637612341565b5b60006126468482850161260d565b91505092915050565b61265881612551565b82525050565b6000602082019050612673600083018461264f565b92915050565b6126828161251d565b811461268d57600080fd5b50565b60008135905061269f81612679565b92915050565b6000602082840312156126bb576126ba612341565b5b60006126c984828501612690565b91505092915050565b7f4e487b7100000000000000000000000000000000000000000000000000000000600052602160045260246000fd5b60038110612712576127116126d2565b5b50565b600081905061272382612701565b919050565b600061273382612715565b9050919050565b61274381612728565b82525050565b600060608201905061275e600083018661273a565b61276b6020830185612430565b6127786040830184612464565b949350505050565b600080fd5b600060c0828403121561279b5761279a612780565b5b81905092915050565b60008060e083850312156127bb576127ba612341565b5b60006127c9858286016124a5565b92505060206127da85828601612785565b9150509250929050565b600080604083850312156127fb576127fa612341565b5b6000612809858286016124a5565b925050602061281a85828601612690565b9150509250929050565b600082825260208201905092915050565b7f536869656c644d6f64756c653a204e6f20726571756573747300000000000000600082015250565b600061286b601983612824565b915061287682612835565b602082019050919050565b6000602082019050818103600083015261289a8161285e565b9050919050565b7f4e487b7100000000000000000000000000000000000000000000000000000000600052604160045260246000fd5b7f4e487b7100000000000000000000000000000000000000000000000000000000600052603260045260246000fd5b600080fd5b6000601f19601f8301169050919050565b61291e82612904565b810181811067ffffffffffffffff8211171561293d5761293c6128a1565b5b80604052505050565b6000612950612337565b905061295c8282612915565b919050565b600067ffffffffffffffff82111561297c5761297b6128a1565b5b602082029050919050565b600061299a61299584612961565b612946565b905080602084028301858111156129b4576129b3612355565b5b835b818110156129dd57806129c98882612690565b8452602084019350506020810190506129b6565b5050509392505050565b600082601f8301126129fc576129fb61234b565b5b6003612a09848285612987565b91505092915050565b600060808284031215612a2857612a276128ff565b5b612a326040612946565b90506000612a42848285016129e7565b6000830152506060612a5684828501612690565b60208301525092915050565b600060808284031215612a7857612a77612341565b5b6000612a8684828501612a12565b91505092915050565b7f4e487b7100000000000000000000000000000000000000000000000000000000600052601160045260246000fd5b6000612ac98261245a565b91507fffffffffffffffffffffffffffffffffffffffffffffffffffffffffffffffff8203612afb57612afa612a8f565b5b600182019050919050565b600081519050612b158161248e565b92915050565b60008060408385031215612b3257612b31612341565b5b6000612b4085828601612b06565b9250506020612b5185828601612b06565b9150509250929050565b600081519050919050565b600082825260208201905092915050565b6000819050602082019050919050565b612b908161251d565b82525050565b612b9f81612728565b82525050565b612bae8161241e565b82525050565b612bbd8161245a565b82525050565b606082016000820151612bd96000850182612b96565b506020820151612bec6020850182612ba5565b506040820151612bff6040850182612bb4565b50505050565b612c0e816122f2565b82525050565b60a082016000820151612c2a6000850182612b87565b506020820151612c3d6020850182612bc3565b506040820151612c506080850182612c05565b50505050565b6000612c628383612c14565b60a08301905092915050565b6000602082019050919050565b6000612c8682612b5b565b612c908185612b66565b9350612c9b83612b77565b8060005b83811015612ccc578151612cb38882612c56565b9750612cbe83612c6e565b925050600181019050612c9f565b5085935050505092915050565b600081519050919050565b600082825260208201905092915050565b6000819050602082019050919050565b600060039050919050565b600081905092915050565b6000819050919050565b6000612d318383612b87565b60208301905092915050565b6000602082019050919050565b612d5381612d05565b612d5d8184612d10565b9250612d6882612d1b565b8060005b83811015612d99578151612d808782612d25565b9650612d8b83612d3d565b925050600181019050612d6c565b505050505050565b608082016000820151612db76000850182612d4a565b506020820151612dca6060850182612b87565b50505050565b6000612ddc8383612da1565b60808301905092915050565b6000602082019050919050565b6000612e0082612cd9565b612e0a8185612ce4565b9350612e1583612cf5565b8060005b83811015612e46578151612e2d8882612dd0565b9750612e3883612de8565b925050600181019050612e19565b5085935050505092915050565b600081519050919050565b600082825260208201905092915050565b6000819050602082019050919050565b6000612e8b8383612bb4565b60208301905092915050565b6000602082019050919050565b6000612eaf82612e53565b612eb98185612e5e565b9350612ec483612e6f565b8060005b83811015612ef5578151612edc8882612e7f565b9750612ee783612e97565b925050600181019050612ec8565b5085935050505092915050565b600060a082019050612f176000830188612464565b612f246020830187612464565b8181036040830152612f368186612c7b565b90508181036060830152612f4a8185612df5565b90508181036080830152612f5e8184612ea4565b90509695505050505050565b600081519050919050565b600082825260208201905092915050565b6000819050602082019050919050565b6000602082019050919050565b6000612fae82612f6a565b612fb88185612f75565b9350612fc383612f86565b8060005b83811015612ff4578151612fdb8882612d25565b9750612fe683612f96565b925050600181019050612fc7565b5085935050505092915050565b6000602082019050818103600083015261301b8184612fa3565b905092915050565b61302c816122f2565b811461303757600080fd5b50565b60008135905061304981613023565b92915050565b60006020828403121561306557613064612341565b5b60006130738482850161303a565b91505092915050565b7f536869656c644d6f64756c653a20416d6f756e7420657863656564732064656360008201527f6c617265642076616c7565000000000000000000000000000000000000000000602082015250565b60006130d8602b83612824565b91506130e38261307c565b604082019050919050565b60006020820190508181036000830152613107816130cb565b9050919050565b7f4e487b7100000000000000000000000000000000000000000000000000000000600052601260045260246000fd5b60006131488261245a565b91506131538361245a565b9250826131635761316261310e565b5b828206905092915050565b7f536869656c644d6f64756c653a20496e76616c69642076616c75650000000000600082015250565b60006131a4601b83612824565b91506131af8261316e565b602082019050919050565b600060208201905081810360008301526131d381613197565b9050919050565b7f536869656c644d6f64756c653a20546f6b656e20626c6f636b65640000000000600082015250565b6000613210601b83612824565b915061321b826131da565b602082019050919050565b6000602082019050818103600083015261323f81613203565b9050919050565b7f536869656c644d6f64756c653a20496e76616c6964206e706b00000000000000600082015250565b600061327c601983612824565b915061328782613246565b602082019050919050565b600060208201905081810360008301526132ab8161326f565b9050919050565b600381106132bf57600080fd5b50565b6000813590506132d1816132b2565b92915050565b6000602082840312156132ed576132ec612341565b5b60006132fb848285016132c2565b91505092915050565b7f536869656c644d6f64756c653a20496e76616c6964204e46542076616c756500600082015250565b600061333a601f83612824565b915061334582613304565b602082019050919050565b600060208201905081810360008301526133698161332d565b9050919050565b7f536869656c644d6f64756c653a204f6e6c7920455243323020737570706f727460008201527f6564000000000000000000000000000000000000000000000000000000000000602082015250565b60006133cc602283612824565b91506133d782613370565b604082019050919050565b600060208201905081810360008301526133fb816133bf565b9050919050565b600060608284031215613418576134176128ff565b5b6134226060612946565b90506000613432848285016132c2565b60008301525060206134468482850161260d565b602083015250604061345a848285016124a5565b60408301525092915050565b60006060828403121561347c5761347b612341565b5b600061348a84828501613402565b91505092915050565b6000602082840312156134a9576134a8612341565b5b60006134b784828501612b06565b91505092915050565b60006134cb8261245a565b91506134d68361245a565b92508282039050818111156134ee576134ed612a8f565b5b92915050565b7f536869656c644d6f64756c653a205472616e73666572206661696c6564000000600082015250565b600061352a601d83612824565b9150613535826134f4565b602082019050919050565b600060208201905081810360008301526135598161351d565b9050919050565b600081905092915050565b6135748161251d565b82525050565b6000613586838361356b565b60208301905092915050565b61359b81612d05565b6135a58184613560565b92506135b082612d1b565b8060005b838110156135e15781516135c8878261357a565b96506135d383612d3d565b9250506001810190506135b4565b505050505050565b60006060820190506135fe6000830184613592565b92915050565b60008151905061361381612679565b92915050565b60006020828403121561362f5761362e612341565b5b600061363d84828501613604565b91505092915050565b6000819050919050565b6000819050919050565b600061367561367061366b84613646565b613650565b61245a565b9050919050565b6136858161365a565b82525050565b60006020820190506136a0600083018461367c565b92915050565b600070ffffffffffffffffffffffffffffffffff82169050919050565b60006136ce826136a6565b91506136d9836136a6565b92508282026136e7816136a6565b915082820484148315176136fe576136fd612a8f565b5b5092915050565b6000613710826136a6565b915061371b836136a6565b92508261372b5761372a61310e565b5b828204905092915050565b6000613741826136a6565b915061374c836136a6565b9250828203905070ffffffffffffffffffffffffffffffffff81111561377557613774612a8f565b5b92915050565b6000613786826122f2565b9150613791836122f2565b925082820390506effffffffffffffffffffffffffffff8111156137b8576137b7612a8f565b5b92915050565b60006060820190506137d36000830186612430565b6137e06020830185612430565b6137ed6040830184612464565b949350505050565b60608201600082015161380b6000850182612b96565b50602082015161381e6020850182612ba5565b5060408201516138316040850182612bb4565b50505050565b600060608201905061384c60008301846137f5565b92915050565b60006040820190506138676000830185612430565b6138746020830184612464565b9392505050565b613884816124e7565b811461388f57600080fd5b50565b6000815190506138a18161387b565b92915050565b6000602082840312156138bd576138bc612341565b5b60006138cb84828501613892565b91505092915050565b7f5361666545524332303a204552433230206f7065726174696f6e20646964206e60008201527f6f74207375636365656400000000000000000000000000000000000000000000602082015250565b6000613930602a83612824565b915061393b826138d4565b604082019050919050565b6000602082019050818103600083015261395f81613923565b9050919050565b7f416464726573733a20696e73756666696369656e742062616c616e636520666f60008201527f722063616c6c0000000000000000000000000000000000000000000000000000602082015250565b60006139c2602683612824565b91506139cd82613966565b604082019050919050565b600060208201905081810360008301526139f1816139b5565b9050919050565b600081519050919050565b600081905092915050565b60005b83811015613a2c578082015181840152602081019050613a11565b60008484015250505050565b6000613a43826139f8565b613a4d8185613a03565b9350613a5d818560208601613a0e565b80840191505092915050565b6000613a758284613a38565b915081905092915050565b7f416464726573733a2063616c6c20746f206e6f6e2d636f6e7472616374000000600082015250565b6000613ab6601d83612824565b9150613ac182613a80565b602082019050919050565b60006020820190508181036000830152613ae581613aa9565b9050919050565b600081519050919050565b6000613b0282613aec565b613b0c8185612824565b9350613b1c818560208601613a0e565b613b2581612904565b840191505092915050565b60006020820190508181036000830152613b4a8184613af7565b90509291505056fea2646970667358221220eb198d7ffe5f8a13c983169bb991cb0edb48f8da87571963320d68bced73518564736f6c63430008110033","linkReferences":{"contracts/railgun/logic/Poseidon.sol":{"PoseidonT4":[{"start":5454,"length":20}]}}},"methodIdentifiers":{"ZERO_VALUE()":"ec732959","initialized()":"158ef93e","lastEventBlock()":"cd3efe06","localDomain()":"8d3638f4","merkleModule()":"90de3f6e","merkleRoot()":"2eb4a7ab","messageTransmitter()":"7b04c181","nextLeafIndex()":"0be4f422","nftFee()":"9071adc0","nullifiers(uint256,bytes32)":"f19ea903","owner()":"8da5cb5b","processIncomingShield(uint256,(bytes32,uint120,bytes32[3],bytes32))":"c5b2d8c0","remotePools(uint32)":"30ed93c3","rootHistory(uint256,bytes32)":"c718dbda","shield(((bytes32,(uint8,address,uint256),uint120),(bytes32[3],bytes32))[])":"044a40c3","shieldFee()":"01c37790","shieldModule()":"35db307c","snarkSafetyVector(uint256)":"129458f4","testingMode()":"c8f35b5d","tokenBlocklist(address)":"815b534f","tokenIDMapping(bytes32)":"b8ceaef2","tokenMessenger()":"46117830","transactModule()":"048e0990","treasury()":"61d027b3","treeNumber()":"66503315","unshieldFee()":"053ed12a","usdc()":"3e413bee","verifierModule()":"41506fc1","zeros(uint256)":"e8295588"},"id":23}