{"abi":[{"type":"function","name":"ZERO_VALUE","inputs":[],"outputs":[{"name":"","type":"bytes32","internalType":"bytes32"}],"stateMutability":"view"},{"type":"function","name":"initialized","inputs":[],"outputs":[{"name":"","type":"bool","internalType":"bool"}],"stateMutability":"view"},{"type":"function","name":"lastEventBlock","inputs":[],"outputs":[{"name":"","type":"uint256","internalType":"uint256"}],"stateMutability":"view"},{"type":"function","name":"localDomain","inputs":[],"outputs":[{"name":"","type":"uint32","internalType":"uint32"}],"stateMutability":"view"},{"type":"function","name":"merkleModule","inputs":[],"outputs":[{"name":"","type":"address","internalType":"address"}],"stateMutability":"view"},{"type":"function","name":"merkleRoot","inputs":[],"outputs":[{"name":"","type":"bytes32","internalType":"bytes32"}],"stateMutability":"view"},{"type":"function","name":"messageTransmitter","inputs":[],"outputs":[{"name":"","type":"address","internalType":"address"}],"stateMutability":"view"},{"type":"function","name":"nextLeafIndex","inputs":[],"outputs":[{"name":"","type":"uint256","internalType":"uint256"}],"stateMutability":"view"},{"type":"function","name":"nftFee","inputs":[],"outputs":[{"name":"","type":"uint120","internalType":"uint120"}],"stateMutability":"view"},{"type":"function","name":"nullifiers","inputs":[{"name":"","type":"uint256","internalType":"uint256"},{"name":"","type":"bytes32","internalType":"bytes32"}],"outputs":[{"name":"","type":"bool","internalType":"bool"}],"stateMutability":"view"},{"type":"function","name":"owner","inputs":[],"outputs":[{"name":"","type":"address","internalType":"address"}],"stateMutability":"view"},{"type":"function","name":"privilegedShieldCallers","inputs":[{"name":"","type":"address","internalType":"address"}],"outputs":[{"name":"","type":"bool","internalType":"bool"}],"stateMutability":"view"},{"type":"function","name":"processIncomingShield","inputs":[{"name":"amount","type":"uint256","internalType":"uint256"},{"name":"data","type":"tuple","internalType":"struct ShieldData","components":[{"name":"npk","type":"bytes32","internalType":"bytes32"},{"name":"value","type":"uint120","internalType":"uint120"},{"name":"encryptedBundle","type":"bytes32[3]","internalType":"bytes32[3]"},{"name":"shieldKey","type":"bytes32","internalType":"bytes32"}]}],"outputs":[],"stateMutability":"nonpayable"},{"type":"function","name":"remotePools","inputs":[{"name":"","type":"uint32","internalType":"uint32"}],"outputs":[{"name":"","type":"bytes32","internalType":"bytes32"}],"stateMutability":"view"},{"type":"function","name":"rootHistory","inputs":[{"name":"","type":"uint256","internalType":"uint256"},{"name":"","type":"bytes32","internalType":"bytes32"}],"outputs":[{"name":"","type":"bool","internalType":"bool"}],"stateMutability":"view"},{"type":"function","name":"shield","inputs":[{"name":"_shieldRequests","type":"tuple[]","internalType":"struct ShieldRequest[]","components":[{"name":"preimage","type":"tuple","internalType":"struct CommitmentPreimage","components":[{"name":"npk","type":"bytes32","internalType":"bytes32"},{"name":"token","type":"tuple","internalType":"struct TokenData","components":[{"name":"tokenType","type":"uint8","internalType":"enum TokenType"},{"name":"tokenAddress","type":"address","internalType":"address"},{"name":"tokenSubID","type":"uint256","internalType":"uint256"}]},{"name":"value","type":"uint120","internalType":"uint120"}]},{"name":"ciphertext","type":"tuple","internalType":"struct ShieldCiphertext","components":[{"name":"encryptedBundle","type":"bytes32[3]","internalType":"bytes32[3]"},{"name":"shieldKey","type":"bytes32","internalType":"bytes32"}]}]}],"outputs":[],"stateMutability":"nonpayable"},{"type":"function","name":"shieldFee","inputs":[],"outputs":[{"name":"","type":"uint120","internalType":"uint120"}],"stateMutability":"view"},{"type":"function","name":"shieldModule","inputs":[],"outputs":[{"name":"","type":"address","internalType":"address"}],"stateMutability":"view"},{"type":"function","name":"snarkSafetyVector","inputs":[{"name":"","type":"uint256","internalType":"uint256"}],"outputs":[{"name":"","type":"bool","internalType":"bool"}],"stateMutability":"view"},{"type":"function","name":"testingMode","inputs":[],"outputs":[{"name":"","type":"bool","internalType":"bool"}],"stateMutability":"view"},{"type":"function","name":"tokenBlocklist","inputs":[{"name":"","type":"address","internalType":"address"}],"outputs":[{"name":"","type":"bool","internalType":"bool"}],"stateMutability":"view"},{"type":"function","name":"tokenIDMapping","inputs":[{"name":"","type":"bytes32","internalType":"bytes32"}],"outputs":[{"name":"tokenType","type":"uint8","internalType":"enum TokenType"},{"name":"tokenAddress","type":"address","internalType":"address"},{"name":"tokenSubID","type":"uint256","internalType":"uint256"}],"stateMutability":"view"},{"type":"function","name":"tokenMessenger","inputs":[],"outputs":[{"name":"","type":"address","internalType":"address"}],"stateMutability":"view"},{"type":"function","name":"transactModule","inputs":[],"outputs":[{"name":"","type":"address","internalType":"address"}],"stateMutability":"view"},{"type":"function","name":"treasury","inputs":[],"outputs":[{"name":"","type":"address","internalType":"address payable"}],"stateMutability":"view"},{"type":"function","name":"treeNumber","inputs":[],"outputs":[{"name":"","type":"uint256","internalType":"uint256"}],"stateMutability":"view"},{"type":"function","name":"unshieldFee","inputs":[],"outputs":[{"name":"","type":"uint120","internalType":"uint120"}],"stateMutability":"view"},{"type":"function","name":"usdc","inputs":[],"outputs":[{"name":"","type":"address","internalType":"address"}],"stateMutability":"view"},{"type":"function","name":"verifierModule","inputs":[],"outputs":[{"name":"","type":"address","internalType":"address"}],"stateMutability":"view"},{"type":"function","name":"zeros","inputs":[{"name":"","type":"uint256","internalType":"uint256"}],"outputs":[{"name":"","type":"bytes32","internalType":"bytes32"}],"stateMutability":"view"},{"type":"event","name":"Shield","inputs":[{"name":"treeNumber","type":"uint256","indexed":false,"internalType":"uint256"},{"name":"startPosition","type":"uint256","indexed":false,"internalType":"uint256"},{"name":"commitments","type":"tuple[]","indexed":false,"internalType":"struct CommitmentPreimage[]","components":[{"name":"npk","type":"bytes32","internalType":"bytes32"},{"name":"token","type":"tuple","internalType":"struct TokenData","components":[{"name":"tokenType","type":"uint8","internalType":"enum TokenType"},{"name":"tokenAddress","type":"address","internalType":"address"},{"name":"tokenSubID","type":"uint256","internalType":"uint256"}]},{"name":"value","type":"uint120","internalType":"uint120"}]},{"name":"shieldCiphertext","type":"tuple[]","indexed":false,"internalType":"struct ShieldCiphertext[]","components":[{"name":"encryptedBundle","type":"bytes32[3]","internalType":"bytes32[3]"},{"name":"shieldKey","type":"bytes32","internalType":"bytes32"}]},{"name":"fees","type":"uint256[]","indexed":false,"internalType":"uint256[]"}],"anonymous":false}],"bytecode":{"object":"0x608060405234801561001057600080fd5b50613cae806100206000396000f3fe608060405234801561001057600080fd5b50600436106101da5760003560e01c80637b04c18111610104578063b8ceaef2116100a2578063cd3efe0611610071578063cd3efe0614610555578063e829558814610573578063ec732959146105a3578063f19ea903146105c1576101da565b8063b8ceaef2146104b9578063c5b2d8c0146104eb578063c718dbda14610507578063c8f35b5d14610537576101da565b80638da5cb5b116100de5780638da5cb5b1461042f5780639071adc01461044d57806390de3f6e1461046b578063b069b70f14610489576101da565b80637b04c181146103c3578063815b534f146103e15780638d3638f414610411576101da565b80632eb4a7ab1161017c57806341506fc11161014b57806341506fc11461034b578063461178301461036957806361d027b31461038757806366503315146103a5576101da565b80632eb4a7ab146102c157806330ed93c3146102df57806335db307c1461030f5780633e413bee1461032d576101da565b8063053ed12a116101b8578063053ed12a146102375780630be4f42214610255578063129458f414610273578063158ef93e146102a3576101da565b806301c37790146101df578063044a40c3146101fd578063048e099014610219575b600080fd5b6101e76105f1565b6040516101f49190612442565b60405180910390f35b610217600480360381019061021291906124d7565b610612565b005b610221610a16565b60405161022e9190612565565b60405180910390f35b61023f610a3c565b60405161024c9190612442565b60405180910390f35b61025d610a5d565b60405161026a9190612599565b60405180910390f35b61028d600480360381019061028891906125e0565b610a63565b60405161029a9190612628565b60405180910390f35b6102ab610a83565b6040516102b89190612628565b60405180910390f35b6102c9610a96565b6040516102d6919061265c565b60405180910390f35b6102f960048036038101906102f491906126b3565b610a9c565b604051610306919061265c565b60405180910390f35b610317610ab4565b6040516103249190612565565b60405180910390f35b610335610ad8565b6040516103429190612565565b60405180910390f35b610353610afe565b6040516103609190612565565b60405180910390f35b610371610b24565b60405161037e9190612565565b60405180910390f35b61038f610b4a565b60405161039c9190612701565b60405180910390f35b6103ad610b70565b6040516103ba9190612599565b60405180910390f35b6103cb610b76565b6040516103d89190612565565b60405180910390f35b6103fb60048036038101906103f69190612748565b610b9c565b6040516104089190612628565b60405180910390f35b610419610bbc565b6040516104269190612784565b60405180910390f35b610437610bd2565b6040516104449190612565565b60405180910390f35b610455610bf8565b6040516104629190612442565b60405180910390f35b610473610c19565b6040516104809190612565565b60405180910390f35b6104a3600480360381019061049e9190612748565b610c3f565b6040516104b09190612628565b60405180910390f35b6104d360048036038101906104ce91906127cb565b610c5f565b6040516104e29392919061286f565b60405180910390f35b610505600480360381019061050091906128ca565b610cb6565b005b610521600480360381019061051c919061290a565b610ebf565b60405161052e9190612628565b60405180910390f35b61053f610eee565b60405161054c9190612628565b60405180910390f35b61055d610f01565b60405161056a9190612599565b60405180910390f35b61058d600480360381019061058891906125e0565b610f07565b60405161059a919061265c565b60405180910390f35b6105ab610f22565b6040516105b8919061265c565b60405180910390f35b6105db60048036038101906105d6919061290a565b610f77565b6040516105e89190612628565b60405180910390f35b600960009054906101000a90046effffffffffffffffffffffffffffff1681565b60008282905090506000811161065d576040517f08c379a0000000000000000000000000000000000000000000000000000000008152600401610654906129a7565b60405180910390fd5b60008167ffffffffffffffff811115610679576106786129c7565b5b6040519080825280602002602001820160405280156106a75781602001602082028036833780820191505090505b50905060008267ffffffffffffffff8111156106c6576106c56129c7565b5b6040519080825280602002602001820160405280156106ff57816020015b6106ec612329565b8152602001906001900390816106e45790505b50905060008367ffffffffffffffff81111561071e5761071d6129c7565b5b60405190808252806020026020018201604052801561075757816020015b610744612364565b81526020019060019003908161073c5790505b50905060008467ffffffffffffffff811115610776576107756129c7565b5b6040519080825280602002602001820160405280156107a45781602001602082028036833780820191505090505b50905060005b858110156108d9576107d78888838181106107c8576107c76129f6565b5b90506101200201600001610fa6565b6107fc8888838181106107ed576107ec6129f6565b5b905061012002016000016111c2565b85838151811061080f5761080e6129f6565b5b60200260200101848481518110610829576108286129f6565b5b6020026020010182815250829052505061085c84828151811061084f5761084e6129f6565b5b60200260200101516115fa565b85828151811061086f5761086e6129f6565b5b60200260200101818152505087878281811061088e5761088d6129f6565b5b9050610120020160a0018036038101906108a89190612b88565b8382815181106108bb576108ba6129f6565b5b602002602001018190525080806108d190612be4565b9150506107aa565b506000803073ffffffffffffffffffffffffffffffffffffffff16630c9c0c8d886040518263ffffffff1660e01b81526004016109169190612599565b6040805180830381865afa158015610932573d6000803e3d6000fd5b505050506040513d601f19601f820116820180604052508101906109569190612c41565b915091507f3a5b9dc26075a3801a6ddccf95fec485bb7500a91b44cec1add984c21ee6db3b8282878787604051610991959493929190613028565b60405180910390a13073ffffffffffffffffffffffffffffffffffffffff1663dc52bf9f876040518263ffffffff1660e01b81526004016109d29190613127565b600060405180830381600087803b1580156109ec57600080fd5b505af1158015610a00573d6000803e3d6000fd5b5050505043603781905550505050505050505050565b600160009054906101000a900473ffffffffffffffffffffffffffffffffffffffff1681565b6009600f9054906101000a90046effffffffffffffffffffffffffffff1681565b600e5481565b60366020528060005260406000206000915054906101000a900460ff1681565b603860149054906101000a900460ff1681565b600f5481565b60076020528060005260406000206000915090505481565b60008054906101000a900473ffffffffffffffffffffffffffffffffffffffff1681565b600660009054906101000a900473ffffffffffffffffffffffffffffffffffffffff1681565b600360009054906101000a900473ffffffffffffffffffffffffffffffffffffffff1681565b600460009054906101000a900473ffffffffffffffffffffffffffffffffffffffff1681565b600860009054906101000a900473ffffffffffffffffffffffffffffffffffffffff1681565b60115481565b600560009054906101000a900473ffffffffffffffffffffffffffffffffffffffff1681565b600c6020528060005260406000206000915054906101000a900460ff1681565b600660149054906101000a900463ffffffff1681565b603860009054906101000a900473ffffffffffffffffffffffffffffffffffffffff1681565b600a60009054906101000a90046effffffffffffffffffffffffffffff1681565b600260009054906101000a900473ffffffffffffffffffffffffffffffffffffffff1681565b600b6020528060005260406000206000915054906101000a900460ff1681565b600d6020528060005260406000206000915090508060000160009054906101000a900460ff16908060000160019054906101000a900473ffffffffffffffffffffffffffffffffffffffff16908060010154905083565b806020016020810190610cc99190613175565b6effffffffffffffffffffffffffffff16821115610d1c576040517f08c379a0000000000000000000000000000000000000000000000000000000008152600401610d1390613214565b60405180910390fd5b60008290506000600167ffffffffffffffff811115610d3e57610d3d6129c7565b5b604051908082528060200260200182016040528015610d7757816020015b610d64612387565b815260200190600190039081610d5c5790505b5090506040518060400160405280604051806060016040528086600001358152602001604051806060016040528060006002811115610db957610db86127f8565b5b8152602001600660009054906101000a900473ffffffffffffffffffffffffffffffffffffffff1673ffffffffffffffffffffffffffffffffffffffff16815260200160008152508152602001856effffffffffffffffffffffffffffff1681525081526020016040518060400160405280866040016003806020026040519081016040528092919082600360200280828437600081840152601f19601f82011690508083019250505050505081526020018660a0013581525081525081600081518110610e8a57610e896129f6565b5b6020026020010181905250610eb981600081518110610eac57610eab6129f6565b5b60200260200101516116bd565b50505050565b60326020528160005260406000206020528060005260406000206000915091509054906101000a900460ff1681565b603560009054906101000a900460ff1681565b60375481565b60128160108110610f1757600080fd5b016000915090505481565b7f30644e72e131a029b85045b68181585d2833e84879b9709143e1f593f00000017f95b5e3f3c951508f13e7771152f5b7c7329a294917685c10a571c9247e3b9fff60001c610f719190613263565b60001b81565b60336020528160005260406000206020528060005260406000206000915091509054906101000a900460ff1681565b6000816080016020810190610fbb9190613175565b6effffffffffffffffffffffffffffff161161100c576040517f08c379a0000000000000000000000000000000000000000000000000000000008152600401611003906132e0565b60405180910390fd5b600c60008260200160200160208101906110269190612748565b73ffffffffffffffffffffffffffffffffffffffff1673ffffffffffffffffffffffffffffffffffffffff16815260200190815260200160002060009054906101000a900460ff16156110ae576040517f08c379a00000000000000000000000000000000000000000000000000000000081526004016110a59061334c565b60405180910390fd5b7f30644e72e131a029b85045b68181585d2833e84879b9709143e1f593f0000001816000013560001c10611117576040517f08c379a000000000000000000000000000000000000000000000000000000000815260040161110e906133b8565b60405180910390fd5b6001600281111561112b5761112a6127f8565b5b81602001600001602081019061114191906133fd565b6002811115611153576111526127f8565b5b036111bf57600181608001602081019061116d9190613175565b6effffffffffffffffffffffffffffff16146111be576040517f08c379a00000000000000000000000000000000000000000000000000000000081526004016111b590613476565b60405180910390fd5b5b50565b6111ca612329565b60008060028111156111df576111de6127f8565b5b8360200160000160208101906111f591906133fd565b6002811115611207576112066127f8565b5b14611247576040517f08c379a000000000000000000000000000000000000000000000000000000000815260040161123e90613508565b60405180910390fd5b600083602001602001602081019061125f9190612748565b9050600080600b60003373ffffffffffffffffffffffffffffffffffffffff1673ffffffffffffffffffffffffffffffffffffffff16815260200190815260200160002060009054906101000a900460ff16156112d4578560800160208101906112c99190613175565b915060009050611329565b6113208660800160208101906112ea9190613175565b6effffffffffffffffffffffffffffff166001600960009054906101000a90046effffffffffffffffffffffffffffff16611bfe565b80925081935050505b60405180606001604052808760000135815260200187602001803603810190611352919061358c565b8152602001836effffffffffffffffffffffffffffff168152509450806effffffffffffffffffffffffffffff16935060008373ffffffffffffffffffffffffffffffffffffffff166370a08231306040518263ffffffff1660e01b81526004016113bd9190612565565b602060405180830381865afa1580156113da573d6000803e3d6000fd5b505050506040513d601f19601f820116820180604052508101906113fe91906135b9565b905061143e3330856effffffffffffffffffffffffffffff168773ffffffffffffffffffffffffffffffffffffffff16611ce9909392919063ffffffff16565b60008473ffffffffffffffffffffffffffffffffffffffff166370a08231306040518263ffffffff1660e01b81526004016114799190612565565b602060405180830381865afa158015611496573d6000803e3d6000fd5b505050506040513d601f19601f820116820180604052508101906114ba91906135b9565b9050836effffffffffffffffffffffffffffff1682826114da91906135e6565b1461151a576040517f08c379a000000000000000000000000000000000000000000000000000000000815260040161151190613666565b60405180910390fd5b6000836effffffffffffffffffffffffffffff1611801561158a5750600073ffffffffffffffffffffffffffffffffffffffff16600860009054906101000a900473ffffffffffffffffffffffffffffffffffffffff1673ffffffffffffffffffffffffffffffffffffffff1614155b156115f0576115ef33600860009054906101000a900473ffffffffffffffffffffffffffffffffffffffff16856effffffffffffffffffffffffffffff168873ffffffffffffffffffffffffffffffffffffffff16611ce9909392919063ffffffff16565b5b5050505050915091565b600073__$610c11827248d0bfa646e7ca34d40f2d3f$__635a53025d6040518060600160405280856000015181526020016116388660200151611d72565b815260200185604001516effffffffffffffffffffffffffffff1660001b8152506040518263ffffffff1660e01b8152600401611675919061370f565b602060405180830381865af4158015611692573d6000803e3d6000fd5b505050506040513d601f19601f820116820180604052508101906116b6919061373f565b9050919050565b6116ca8160000151611e28565b600080826000015190506000600960009054906101000a90046effffffffffffffffffffffffffffff166effffffffffffffffffffffffffffff1611801561175c5750600b60003373ffffffffffffffffffffffffffffffffffffffff1673ffffffffffffffffffffffffffffffffffffffff16815260200190815260200160002060009054906101000a900460ff16155b156118e5576000806117a68560000151604001516effffffffffffffffffffffffffffff166001600960009054906101000a90046effffffffffffffffffffffffffffff16611bfe565b915091508183604001906effffffffffffffffffffffffffffff1690816effffffffffffffffffffffffffffff1681525050806effffffffffffffffffffffffffffff1693506000816effffffffffffffffffffffffffffff1611801561185c5750600073ffffffffffffffffffffffffffffffffffffffff16600860009054906101000a900473ffffffffffffffffffffffffffffffffffffffff1673ffffffffffffffffffffffffffffffffffffffff1614155b156118e2576118e1600860009054906101000a900473ffffffffffffffffffffffffffffffffffffffff16826effffffffffffffffffffffffffffff16600660009054906101000a900473ffffffffffffffffffffffffffffffffffffffff1673ffffffffffffffffffffffffffffffffffffffff1661200e9092919063ffffffff16565b5b50505b6000600167ffffffffffffffff811115611902576119016129c7565b5b6040519080825280602002602001820160405280156119305781602001602082028036833780820191505090505b5090506000600167ffffffffffffffff8111156119505761194f6129c7565b5b60405190808252806020026020018201604052801561198957816020015b611976612329565b81526020019060019003908161196e5790505b5090506000600167ffffffffffffffff8111156119a9576119a86129c7565b5b6040519080825280602002602001820160405280156119e257816020015b6119cf612364565b8152602001906001900390816119c75790505b5090506000600167ffffffffffffffff811115611a0257611a016129c7565b5b604051908082528060200260200182016040528015611a305781602001602082028036833780820191505090505b5090508483600081518110611a4857611a476129f6565b5b6020026020010181905250866020015182600081518110611a6c57611a6b6129f6565b5b60200260200101819052508581600081518110611a8c57611a8b6129f6565b5b602002602001018181525050611aa1856115fa565b84600081518110611ab557611ab46129f6565b5b6020026020010181815250506000803073ffffffffffffffffffffffffffffffffffffffff16630c9c0c8d60016040518263ffffffff1660e01b8152600401611afe91906137b1565b6040805180830381865afa158015611b1a573d6000803e3d6000fd5b505050506040513d601f19601f82011682018060405250810190611b3e9190612c41565b915091507f3a5b9dc26075a3801a6ddccf95fec485bb7500a91b44cec1add984c21ee6db3b8282878787604051611b79959493929190613028565b60405180910390a13073ffffffffffffffffffffffffffffffffffffffff1663dc52bf9f876040518263ffffffff1660e01b8152600401611bba9190613127565b600060405180830381600087803b158015611bd457600080fd5b505af1158015611be8573d6000803e3d6000fd5b5050505043603781905550505050505050505050565b6000806000836effffffffffffffffffffffffffffff1603611c265784600091509150611ce1565b8315611c87576127106effffffffffffffffffffffffffffff16836effffffffffffffffffffffffffffff1686611c5d91906137e9565b611c67919061382b565b85611c72919061385c565b91508185611c8091906138a1565b9050611ce0565b8491508483612710611c9991906138a1565b6effffffffffffffffffffffffffffff16866127106effffffffffffffffffffffffffffff16611cc991906137e9565b611cd3919061382b565b611cdd919061385c565b90505b5b935093915050565b611d6c846323b872dd60e01b858585604051602401611d0a939291906138e4565b604051602081830303815290604052907bffffffffffffffffffffffffffffffffffffffffffffffffffffffff19166020820180517bffffffffffffffffffffffffffffffffffffffffffffffffffffffff8381831617835250505050612094565b50505050565b6000806002811115611d8757611d866127f8565b5b82600001516002811115611d9e57611d9d6127f8565b5b03611dc857816020015173ffffffffffffffffffffffffffffffffffffffff1660001b9050611e23565b7f30644e72e131a029b85045b68181585d2833e84879b9709143e1f593f000000182604051602001611dfa919061395d565b6040516020818303038152906040528051906020012060001c611e1d9190613263565b60001b90505b919050565b600081604001516effffffffffffffffffffffffffffff1611611e80576040517f08c379a0000000000000000000000000000000000000000000000000000000008152600401611e77906132e0565b60405180910390fd5b600c600082602001516020015173ffffffffffffffffffffffffffffffffffffffff1673ffffffffffffffffffffffffffffffffffffffff16815260200190815260200160002060009054906101000a900460ff1615611f15576040517f08c379a0000000000000000000000000000000000000000000000000000000008152600401611f0c9061334c565b60405180910390fd5b7f30644e72e131a029b85045b68181585d2833e84879b9709143e1f593f0000001816000015160001c10611f7e576040517f08c379a0000000000000000000000000000000000000000000000000000000008152600401611f75906133b8565b60405180910390fd5b60016002811115611f9257611f916127f8565b5b8160200151600001516002811115611fad57611fac6127f8565b5b0361200b57600181604001516effffffffffffffffffffffffffffff161461200a576040517f08c379a000000000000000000000000000000000000000000000000000000000815260040161200190613476565b60405180910390fd5b5b50565b61208f8363a9059cbb60e01b848460405160240161202d929190613978565b604051602081830303815290604052907bffffffffffffffffffffffffffffffffffffffffffffffffffffffff19166020820180517bffffffffffffffffffffffffffffffffffffffffffffffffffffffff8381831617835250505050612094565b505050565b60006120f6826040518060400160405280602081526020017f5361666545524332303a206c6f772d6c6576656c2063616c6c206661696c65648152508573ffffffffffffffffffffffffffffffffffffffff1661215c9092919063ffffffff16565b905060008151148061211857508080602001905181019061211791906139cd565b5b612157576040517f08c379a000000000000000000000000000000000000000000000000000000000815260040161214e90613a6c565b60405180910390fd5b505050565b606061216b8484600085612174565b90509392505050565b6060824710156121b9576040517f08c379a00000000000000000000000000000000000000000000000000000000081526004016121b090613afe565b60405180910390fd5b6000808673ffffffffffffffffffffffffffffffffffffffff1685876040516121e29190613b8f565b60006040518083038185875af1925050503d806000811461221f576040519150601f19603f3d011682016040523d82523d6000602084013e612224565b606091505b509150915061223587838387612241565b92505050949350505050565b606083156122a357600083510361229b5761225b856122b6565b61229a576040517f08c379a000000000000000000000000000000000000000000000000000000000815260040161229190613bf2565b60405180910390fd5b5b8290506122ae565b6122ad83836122d9565b5b949350505050565b6000808273ffffffffffffffffffffffffffffffffffffffff163b119050919050565b6000825111156122ec5781518083602001fd5b806040517f08c379a00000000000000000000000000000000000000000000000000000000081526004016123209190613c56565b60405180910390fd5b6040518060600160405280600080191681526020016123466123ad565b815260200160006effffffffffffffffffffffffffffff1681525090565b60405180604001604052806123776123f6565b8152602001600080191681525090565b604051806040016040528061239a612329565b81526020016123a7612364565b81525090565b6040518060600160405280600060028111156123cc576123cb6127f8565b5b8152602001600073ffffffffffffffffffffffffffffffffffffffff168152602001600081525090565b6040518060600160405280600390602082028036833780820191505090505090565b60006effffffffffffffffffffffffffffff82169050919050565b61243c81612418565b82525050565b60006020820190506124576000830184612433565b92915050565b6000604051905090565b600080fd5b600080fd5b600080fd5b600080fd5b600080fd5b60008083601f84011261249657612495612471565b5b8235905067ffffffffffffffff8111156124b3576124b2612476565b5b602083019150836101208202830111156124d0576124cf61247b565b5b9250929050565b600080602083850312156124ee576124ed612467565b5b600083013567ffffffffffffffff81111561250c5761250b61246c565b5b61251885828601612480565b92509250509250929050565b600073ffffffffffffffffffffffffffffffffffffffff82169050919050565b600061254f82612524565b9050919050565b61255f81612544565b82525050565b600060208201905061257a6000830184612556565b92915050565b6000819050919050565b61259381612580565b82525050565b60006020820190506125ae600083018461258a565b92915050565b6125bd81612580565b81146125c857600080fd5b50565b6000813590506125da816125b4565b92915050565b6000602082840312156125f6576125f5612467565b5b6000612604848285016125cb565b91505092915050565b60008115159050919050565b6126228161260d565b82525050565b600060208201905061263d6000830184612619565b92915050565b6000819050919050565b61265681612643565b82525050565b6000602082019050612671600083018461264d565b92915050565b600063ffffffff82169050919050565b61269081612677565b811461269b57600080fd5b50565b6000813590506126ad81612687565b92915050565b6000602082840312156126c9576126c8612467565b5b60006126d78482850161269e565b91505092915050565b60006126eb82612524565b9050919050565b6126fb816126e0565b82525050565b600060208201905061271660008301846126f2565b92915050565b61272581612544565b811461273057600080fd5b50565b6000813590506127428161271c565b92915050565b60006020828403121561275e5761275d612467565b5b600061276c84828501612733565b91505092915050565b61277e81612677565b82525050565b60006020820190506127996000830184612775565b92915050565b6127a881612643565b81146127b357600080fd5b50565b6000813590506127c58161279f565b92915050565b6000602082840312156127e1576127e0612467565b5b60006127ef848285016127b6565b91505092915050565b7f4e487b7100000000000000000000000000000000000000000000000000000000600052602160045260246000fd5b60038110612838576128376127f8565b5b50565b600081905061284982612827565b919050565b60006128598261283b565b9050919050565b6128698161284e565b82525050565b60006060820190506128846000830186612860565b6128916020830185612556565b61289e604083018461258a565b949350505050565b600080fd5b600060c082840312156128c1576128c06128a6565b5b81905092915050565b60008060e083850312156128e1576128e0612467565b5b60006128ef858286016125cb565b9250506020612900858286016128ab565b9150509250929050565b6000806040838503121561292157612920612467565b5b600061292f858286016125cb565b9250506020612940858286016127b6565b9150509250929050565b600082825260208201905092915050565b7f536869656c644d6f64756c653a204e6f20726571756573747300000000000000600082015250565b600061299160198361294a565b915061299c8261295b565b602082019050919050565b600060208201905081810360008301526129c081612984565b9050919050565b7f4e487b7100000000000000000000000000000000000000000000000000000000600052604160045260246000fd5b7f4e487b7100000000000000000000000000000000000000000000000000000000600052603260045260246000fd5b600080fd5b6000601f19601f8301169050919050565b612a4482612a2a565b810181811067ffffffffffffffff82111715612a6357612a626129c7565b5b80604052505050565b6000612a7661245d565b9050612a828282612a3b565b919050565b600067ffffffffffffffff821115612aa257612aa16129c7565b5b602082029050919050565b6000612ac0612abb84612a87565b612a6c565b90508060208402830185811115612ada57612ad961247b565b5b835b81811015612b035780612aef88826127b6565b845260208401935050602081019050612adc565b5050509392505050565b600082601f830112612b2257612b21612471565b5b6003612b2f848285612aad565b91505092915050565b600060808284031215612b4e57612b4d612a25565b5b612b586040612a6c565b90506000612b6884828501612b0d565b6000830152506060612b7c848285016127b6565b60208301525092915050565b600060808284031215612b9e57612b9d612467565b5b6000612bac84828501612b38565b91505092915050565b7f4e487b7100000000000000000000000000000000000000000000000000000000600052601160045260246000fd5b6000612bef82612580565b91507fffffffffffffffffffffffffffffffffffffffffffffffffffffffffffffffff8203612c2157612c20612bb5565b5b600182019050919050565b600081519050612c3b816125b4565b92915050565b60008060408385031215612c5857612c57612467565b5b6000612c6685828601612c2c565b9250506020612c7785828601612c2c565b9150509250929050565b600081519050919050565b600082825260208201905092915050565b6000819050602082019050919050565b612cb681612643565b82525050565b612cc58161284e565b82525050565b612cd481612544565b82525050565b612ce381612580565b82525050565b606082016000820151612cff6000850182612cbc565b506020820151612d126020850182612ccb565b506040820151612d256040850182612cda565b50505050565b612d3481612418565b82525050565b60a082016000820151612d506000850182612cad565b506020820151612d636020850182612ce9565b506040820151612d766080850182612d2b565b50505050565b6000612d888383612d3a565b60a08301905092915050565b6000602082019050919050565b6000612dac82612c81565b612db68185612c8c565b9350612dc183612c9d565b8060005b83811015612df2578151612dd98882612d7c565b9750612de483612d94565b925050600181019050612dc5565b5085935050505092915050565b600081519050919050565b600082825260208201905092915050565b6000819050602082019050919050565b600060039050919050565b600081905092915050565b6000819050919050565b6000612e578383612cad565b60208301905092915050565b6000602082019050919050565b612e7981612e2b565b612e838184612e36565b9250612e8e82612e41565b8060005b83811015612ebf578151612ea68782612e4b565b9650612eb183612e63565b925050600181019050612e92565b505050505050565b608082016000820151612edd6000850182612e70565b506020820151612ef06060850182612cad565b50505050565b6000612f028383612ec7565b60808301905092915050565b6000602082019050919050565b6000612f2682612dff565b612f308185612e0a565b9350612f3b83612e1b565b8060005b83811015612f6c578151612f538882612ef6565b9750612f5e83612f0e565b925050600181019050612f3f565b5085935050505092915050565b600081519050919050565b600082825260208201905092915050565b6000819050602082019050919050565b6000612fb18383612cda565b60208301905092915050565b6000602082019050919050565b6000612fd582612f79565b612fdf8185612f84565b9350612fea83612f95565b8060005b8381101561301b5781516130028882612fa5565b975061300d83612fbd565b925050600181019050612fee565b5085935050505092915050565b600060a08201905061303d600083018861258a565b61304a602083018761258a565b818103604083015261305c8186612da1565b905081810360608301526130708185612f1b565b905081810360808301526130848184612fca565b90509695505050505050565b600081519050919050565b600082825260208201905092915050565b6000819050602082019050919050565b6000602082019050919050565b60006130d482613090565b6130de818561309b565b93506130e9836130ac565b8060005b8381101561311a5781516131018882612e4b565b975061310c836130bc565b9250506001810190506130ed565b5085935050505092915050565b6000602082019050818103600083015261314181846130c9565b905092915050565b61315281612418565b811461315d57600080fd5b50565b60008135905061316f81613149565b92915050565b60006020828403121561318b5761318a612467565b5b600061319984828501613160565b91505092915050565b7f536869656c644d6f64756c653a20416d6f756e7420657863656564732064656360008201527f6c617265642076616c7565000000000000000000000000000000000000000000602082015250565b60006131fe602b8361294a565b9150613209826131a2565b604082019050919050565b6000602082019050818103600083015261322d816131f1565b9050919050565b7f4e487b7100000000000000000000000000000000000000000000000000000000600052601260045260246000fd5b600061326e82612580565b915061327983612580565b92508261328957613288613234565b5b828206905092915050565b7f536869656c644d6f64756c653a20496e76616c69642076616c75650000000000600082015250565b60006132ca601b8361294a565b91506132d582613294565b602082019050919050565b600060208201905081810360008301526132f9816132bd565b9050919050565b7f536869656c644d6f64756c653a20546f6b656e20626c6f636b65640000000000600082015250565b6000613336601b8361294a565b915061334182613300565b602082019050919050565b6000602082019050818103600083015261336581613329565b9050919050565b7f536869656c644d6f64756c653a20496e76616c6964206e706b00000000000000600082015250565b60006133a260198361294a565b91506133ad8261336c565b602082019050919050565b600060208201905081810360008301526133d181613395565b9050919050565b600381106133e557600080fd5b50565b6000813590506133f7816133d8565b92915050565b60006020828403121561341357613412612467565b5b6000613421848285016133e8565b91505092915050565b7f536869656c644d6f64756c653a20496e76616c6964204e46542076616c756500600082015250565b6000613460601f8361294a565b915061346b8261342a565b602082019050919050565b6000602082019050818103600083015261348f81613453565b9050919050565b7f536869656c644d6f64756c653a204f6e6c7920455243323020737570706f727460008201527f6564000000000000000000000000000000000000000000000000000000000000602082015250565b60006134f260228361294a565b91506134fd82613496565b604082019050919050565b60006020820190508181036000830152613521816134e5565b9050919050565b60006060828403121561353e5761353d612a25565b5b6135486060612a6c565b90506000613558848285016133e8565b600083015250602061356c84828501612733565b6020830152506040613580848285016125cb565b60408301525092915050565b6000606082840312156135a2576135a1612467565b5b60006135b084828501613528565b91505092915050565b6000602082840312156135cf576135ce612467565b5b60006135dd84828501612c2c565b91505092915050565b60006135f182612580565b91506135fc83612580565b925082820390508181111561361457613613612bb5565b5b92915050565b7f536869656c644d6f64756c653a205472616e73666572206661696c6564000000600082015250565b6000613650601d8361294a565b915061365b8261361a565b602082019050919050565b6000602082019050818103600083015261367f81613643565b9050919050565b600081905092915050565b61369a81612643565b82525050565b60006136ac8383613691565b60208301905092915050565b6136c181612e2b565b6136cb8184613686565b92506136d682612e41565b8060005b838110156137075781516136ee87826136a0565b96506136f983612e63565b9250506001810190506136da565b505050505050565b600060608201905061372460008301846136b8565b92915050565b6000815190506137398161279f565b92915050565b60006020828403121561375557613754612467565b5b60006137638482850161372a565b91505092915050565b6000819050919050565b6000819050919050565b600061379b6137966137918461376c565b613776565b612580565b9050919050565b6137ab81613780565b82525050565b60006020820190506137c660008301846137a2565b92915050565b600070ffffffffffffffffffffffffffffffffff82169050919050565b60006137f4826137cc565b91506137ff836137cc565b925082820261380d816137cc565b9150828204841483151761382457613823612bb5565b5b5092915050565b6000613836826137cc565b9150613841836137cc565b92508261385157613850613234565b5b828204905092915050565b6000613867826137cc565b9150613872836137cc565b9250828203905070ffffffffffffffffffffffffffffffffff81111561389b5761389a612bb5565b5b92915050565b60006138ac82612418565b91506138b783612418565b925082820390506effffffffffffffffffffffffffffff8111156138de576138dd612bb5565b5b92915050565b60006060820190506138f96000830186612556565b6139066020830185612556565b613913604083018461258a565b949350505050565b6060820160008201516139316000850182612cbc565b5060208201516139446020850182612ccb565b5060408201516139576040850182612cda565b50505050565b6000606082019050613972600083018461391b565b92915050565b600060408201905061398d6000830185612556565b61399a602083018461258a565b9392505050565b6139aa8161260d565b81146139b557600080fd5b50565b6000815190506139c7816139a1565b92915050565b6000602082840312156139e3576139e2612467565b5b60006139f1848285016139b8565b91505092915050565b7f5361666545524332303a204552433230206f7065726174696f6e20646964206e60008201527f6f74207375636365656400000000000000000000000000000000000000000000602082015250565b6000613a56602a8361294a565b9150613a61826139fa565b604082019050919050565b60006020820190508181036000830152613a8581613a49565b9050919050565b7f416464726573733a20696e73756666696369656e742062616c616e636520666f60008201527f722063616c6c0000000000000000000000000000000000000000000000000000602082015250565b6000613ae860268361294a565b9150613af382613a8c565b604082019050919050565b60006020820190508181036000830152613b1781613adb565b9050919050565b600081519050919050565b600081905092915050565b60005b83811015613b52578082015181840152602081019050613b37565b60008484015250505050565b6000613b6982613b1e565b613b738185613b29565b9350613b83818560208601613b34565b80840191505092915050565b6000613b9b8284613b5e565b915081905092915050565b7f416464726573733a2063616c6c20746f206e6f6e2d636f6e7472616374000000600082015250565b6000613bdc601d8361294a565b9150613be782613ba6565b602082019050919050565b60006020820190508181036000830152613c0b81613bcf565b9050919050565b600081519050919050565b6000613c2882613c12565b613c32818561294a565b9350613c42818560208601613b34565b613c4b81612a2a565b840191505092915050565b60006020820190508181036000830152613c708184613c1d565b90509291505056fea26469706673582212205e9ad71105efe2594908ad7b51ce90300d0e271afa841222c5d9ab4a2bf2914964736f6c63430008110033","linkReferences":{"contracts/railgun/logic/Poseidon.sol":{"PoseidonT4":[{"start":5662,"length":20}]}}},"methodIdentifiers":{"ZERO_VALUE()":"ec732959","initialized()":"158ef93e","lastEventBlock()":"cd3efe06","localDomain()":"8d3638f4","merkleModule()":"90de3f6e","merkleRoot()":"2eb4a7ab","messageTransmitter()":"7b04c181","nextLeafIndex()":"0be4f422","nftFee()":"9071adc0","nullifiers(uint256,bytes32)":"f19ea903","owner()":"8da5cb5b","privilegedShieldCallers(address)":"b069b70f","processIncomingShield(uint256,(bytes32,uint120,bytes32[3],bytes32))":"c5b2d8c0","remotePools(uint32)":"30ed93c3","rootHistory(uint256,bytes32)":"c718dbda","shield(((bytes32,(uint8,address,uint256),uint120),(bytes32[3],bytes32))[])":"044a40c3","shieldFee()":"01c37790","shieldModule()":"35db307c","snarkSafetyVector(uint256)":"129458f4","testingMode()":"c8f35b5d","tokenBlocklist(address)":"815b534f","tokenIDMapping(bytes32)":"b8ceaef2","tokenMessenger()":"46117830","transactModule()":"048e0990","treasury()":"61d027b3","treeNumber()":"66503315","unshieldFee()":"053ed12a","usdc()":"3e413bee","verifierModule()":"41506fc1","zeros(uint256)":"e8295588"},"id":22}