{"abi":[{"type":"function","name":"crossChainShield","inputs":[{"name":"amount","type":"uint256","internalType":"uint256"},{"name":"maxFee","type":"uint256","internalType":"uint256"},{"name":"npk","type":"bytes32","internalType":"bytes32"},{"name":"encryptedBundle","type":"bytes32[3]","internalType":"bytes32[3]"},{"name":"shieldKey","type":"bytes32","internalType":"bytes32"},{"name":"destinationCaller","type":"bytes32","internalType":"bytes32"}],"outputs":[{"name":"","type":"uint64","internalType":"uint64"}],"stateMutability":"nonpayable"},{"type":"function","name":"handleReceiveFinalizedMessage","inputs":[{"name":"remoteDomain","type":"uint32","internalType":"uint32"},{"name":"sender","type":"bytes32","internalType":"bytes32"},{"name":"finalityThresholdExecuted","type":"uint32","internalType":"uint32"},{"name":"messageBody","type":"bytes","internalType":"bytes"}],"outputs":[{"name":"","type":"bool","internalType":"bool"}],"stateMutability":"nonpayable"},{"type":"function","name":"handleReceiveUnfinalizedMessage","inputs":[{"name":"","type":"uint32","internalType":"uint32"},{"name":"","type":"bytes32","internalType":"bytes32"},{"name":"","type":"uint32","internalType":"uint32"},{"name":"","type":"bytes","internalType":"bytes"}],"outputs":[{"name":"","type":"bool","internalType":"bool"}],"stateMutability":"pure"},{"type":"function","name":"hubDomain","inputs":[],"outputs":[{"name":"","type":"uint32","internalType":"uint32"}],"stateMutability":"view"},{"type":"function","name":"hubPool","inputs":[],"outputs":[{"name":"","type":"bytes32","internalType":"bytes32"}],"stateMutability":"view"},{"type":"function","name":"initialize","inputs":[{"name":"_tokenMessenger","type":"address","internalType":"address"},{"name":"_messageTransmitter","type":"address","internalType":"address"},{"name":"_usdc","type":"address","internalType":"address"},{"name":"_localDomain","type":"uint32","internalType":"uint32"},{"name":"_hubDomain","type":"uint32","internalType":"uint32"},{"name":"_hubPool","type":"bytes32","internalType":"bytes32"},{"name":"_owner","type":"address","internalType":"address"}],"outputs":[],"stateMutability":"nonpayable"},{"type":"function","name":"initialized","inputs":[],"outputs":[{"name":"","type":"bool","internalType":"bool"}],"stateMutability":"view"},{"type":"function","name":"localDomain","inputs":[],"outputs":[{"name":"","type":"uint32","internalType":"uint32"}],"stateMutability":"view"},{"type":"function","name":"messageTransmitter","inputs":[],"outputs":[{"name":"","type":"address","internalType":"address"}],"stateMutability":"view"},{"type":"function","name":"owner","inputs":[],"outputs":[{"name":"","type":"address","internalType":"address"}],"stateMutability":"view"},{"type":"function","name":"setHubPool","inputs":[{"name":"_hubDomain","type":"uint32","internalType":"uint32"},{"name":"_hubPool","type":"bytes32","internalType":"bytes32"}],"outputs":[],"stateMutability":"nonpayable"},{"type":"function","name":"tokenMessenger","inputs":[],"outputs":[{"name":"","type":"address","internalType":"address"}],"stateMutability":"view"},{"type":"function","name":"usdc","inputs":[],"outputs":[{"name":"","type":"address","internalType":"address"}],"stateMutability":"view"},{"type":"event","name":"CrossChainShieldInitiated","inputs":[{"name":"sender","type":"address","indexed":true,"internalType":"address"},{"name":"amount","type":"uint256","indexed":false,"internalType":"uint256"},{"name":"npk","type":"bytes32","indexed":true,"internalType":"bytes32"},{"name":"nonce","type":"uint64","indexed":false,"internalType":"uint64"}],"anonymous":false},{"type":"event","name":"HubPoolSet","inputs":[{"name":"hubDomain","type":"uint32","indexed":false,"internalType":"uint32"},{"name":"hubPool","type":"bytes32","indexed":false,"internalType":"bytes32"}],"anonymous":false},{"type":"event","name":"UnshieldReceived","inputs":[{"name":"recipient","type":"address","indexed":true,"internalType":"address"},{"name":"amount","type":"uint256","indexed":false,"internalType":"uint256"}],"anonymous":false}],"bytecode":{"object":"0x608060405234801561001057600080fd5b50612ada806100206000396000f3fe608060405234801561001057600080fd5b50600436106100cf5760003560e01c80638d3638f41161008c578063a226b2cb11610066578063a226b2cb14610204578063db21541114610222578063e190440214610252578063e1f5eab714610270576100cf565b80638d3638f4146101ac5780638da5cb5b146101ca578063948cd37e146101e8576100cf565b806311cffb67146100d4578063158ef93e146101045780633e413bee1461012257806346117830146101405780637b04c1811461015e5780637c92f2191461017c575b600080fd5b6100ee60048036038101906100e991906114d5565b61028c565b6040516100fb9190611578565b60405180910390f35b61010c610536565b6040516101199190611578565b60405180910390f35b61012a610547565b60405161013791906115d4565b60405180910390f35b61014861056d565b60405161015591906115d4565b60405180910390f35b610166610593565b60405161017391906115d4565b60405180910390f35b610196600480360381019061019191906114d5565b6105b9565b6040516101a39190611578565b60405180910390f35b6101b46105f6565b6040516101c191906115fe565b60405180910390f35b6101d261060c565b6040516101df91906115d4565b60405180910390f35b61020260048036038101906101fd9190611619565b610632565b005b61020c610727565b60405161021991906115fe565b60405180910390f35b61023c600480360381019061023791906116b1565b61073d565b6040516102499190611762565b60405180910390f35b61025a610afa565b604051610267919061178c565b60405180910390f35b61028a600480360381019061028591906117d3565b610b00565b005b60008060019054906101000a900473ffffffffffffffffffffffffffffffffffffffff1673ffffffffffffffffffffffffffffffffffffffff163373ffffffffffffffffffffffffffffffffffffffff161461031d576040517f08c379a0000000000000000000000000000000000000000000000000000000008152600401610314906118f8565b60405180910390fd5b6107d063ffffffff168463ffffffff16101561036e576040517f08c379a00000000000000000000000000000000000000000000000000000000081526004016103659061198a565b60405180910390fd5b600260189054906101000a900463ffffffff1663ffffffff168663ffffffff16146103ce576040517f08c379a00000000000000000000000000000000000000000000000000000000081526004016103c590611a1c565b60405180910390fd5b60008060006103dd8686610cbe565b925092509250600082846103f19190611a6b565b905060006103fe83610ded565b905060018081111561041357610412611a9f565b5b8160000151600181111561042a57610429611a9f565b5b036104e957600061043e8260200151610e10565b9050610491816000015184600260009054906101000a900473ffffffffffffffffffffffffffffffffffffffff1673ffffffffffffffffffffffffffffffffffffffff16610e339092919063ffffffff16565b806000015173ffffffffffffffffffffffffffffffffffffffff167f3a23ba8f7d438bac9e2fc131e7d7d780f1c4ff8bb0028c59a62cde69ff5d9b20846040516104db9190611add565b60405180910390a250610524565b6040517f08c379a000000000000000000000000000000000000000000000000000000000815260040161051b90611b6a565b60405180910390fd5b60019550505050505095945050505050565b60008054906101000a900460ff1681565b600260009054906101000a900473ffffffffffffffffffffffffffffffffffffffff1681565b600060019054906101000a900473ffffffffffffffffffffffffffffffffffffffff1681565b600160009054906101000a900473ffffffffffffffffffffffffffffffffffffffff1681565b60006040517f08c379a00000000000000000000000000000000000000000000000000000000081526004016105ed90611bfc565b60405180910390fd5b600260149054906101000a900463ffffffff1681565b600460009054906101000a900473ffffffffffffffffffffffffffffffffffffffff1681565b600460009054906101000a900473ffffffffffffffffffffffffffffffffffffffff1673ffffffffffffffffffffffffffffffffffffffff163373ffffffffffffffffffffffffffffffffffffffff16146106c2576040517f08c379a00000000000000000000000000000000000000000000000000000000081526004016106b990611c68565b60405180910390fd5b81600260186101000a81548163ffffffff021916908363ffffffff160217905550806003819055507f7099ee186ea98619a72d24d0e984793c21733bd8a0d76165ebc2f542a0a927f6828260405161071b929190611c88565b60405180910390a15050565b600260189054906101000a900463ffffffff1681565b6000808711610781576040517f08c379a000000000000000000000000000000000000000000000000000000000815260040161077890611d23565b60405180910390fd5b8686106107c3576040517f08c379a00000000000000000000000000000000000000000000000000000000081526004016107ba90611db5565b60405180910390fd5b6000801b6003540361080a576040517f08c379a000000000000000000000000000000000000000000000000000000000815260040161080190611e47565b60405180910390fd5b610859333089600260009054906101000a900473ffffffffffffffffffffffffffffffffffffffff1673ffffffffffffffffffffffffffffffffffffffff16610eb9909392919063ffffffff16565b6108c9600060019054906101000a900473ffffffffffffffffffffffffffffffffffffffff166000600260009054906101000a900473ffffffffffffffffffffffffffffffffffffffff1673ffffffffffffffffffffffffffffffffffffffff16610f429092919063ffffffff16565b610938600060019054906101000a900473ffffffffffffffffffffffffffffffffffffffff1688600260009054906101000a900473ffffffffffffffffffffffffffffffffffffffff1673ffffffffffffffffffffffffffffffffffffffff16610f429092919063ffffffff16565b60006040518060800160405280878152602001896effffffffffffffffffffffffffffff168152602001866003806020026040519081016040528092919082600360200280828437600081840152601f19601f820116905080830192505050505050815260200185815250905060006109b082611091565b905060008060019054906101000a900473ffffffffffffffffffffffffffffffffffffffff1673ffffffffffffffffffffffffffffffffffffffff1663779b432d8b600260189054906101000a900463ffffffff16600354600260009054906101000a900473ffffffffffffffffffffffffffffffffffffffff168a8f6107d08a6040518963ffffffff1660e01b8152600401610a54989796959493929190611ef7565b6020604051808303816000875af1158015610a73573d6000803e3d6000fd5b505050506040513d601f19601f82011682018060405250810190610a979190611fa8565b9050873373ffffffffffffffffffffffffffffffffffffffff167fdaf951686172b5407fc7ed5c3710aead779dec053a7da31d180413a0e1bf11ae8c84604051610ae2929190611fd5565b60405180910390a38093505050509695505050505050565b60035481565b60008054906101000a900460ff1615610b4e576040517f08c379a0000000000000000000000000000000000000000000000000000000008152600401610b4590612070565b60405180910390fd5b86600060016101000a81548173ffffffffffffffffffffffffffffffffffffffff021916908373ffffffffffffffffffffffffffffffffffffffff16021790555085600160006101000a81548173ffffffffffffffffffffffffffffffffffffffff021916908373ffffffffffffffffffffffffffffffffffffffff16021790555084600260006101000a81548173ffffffffffffffffffffffffffffffffffffffff021916908373ffffffffffffffffffffffffffffffffffffffff16021790555083600260146101000a81548163ffffffff021916908363ffffffff16021790555082600260186101000a81548163ffffffff021916908363ffffffff1602179055508160038190555080600460006101000a81548173ffffffffffffffffffffffffffffffffffffffff021916908373ffffffffffffffffffffffffffffffffffffffff16021790555060016000806101000a81548160ff02191690831515021790555050505050505050565b600080606060e4858590501015610d0a576040517f08c379a0000000000000000000000000000000000000000000000000000000008152600401610d01906120dc565b60405180910390fd5b848460449060206044610d1d91906120fc565b92610d2a9392919061213a565b90610d35919061218d565b60001c9250848460a490602060a4610d4d91906120fc565b92610d5a9392919061213a565b90610d65919061218d565b60001c915060e4858590501115610dd357848460e4908092610d899392919061213a565b8080601f016020809104026020016040519081016040528093929190818152602001838380828437600081840152601f19601f820116905080830192505050505050509050610de6565b6040518060200160405280600081525090505b9250925092565b610df5611395565b81806020019051810190610e0991906123a8565b9050919050565b610e186113c1565b81806020019051810190610e2c9190612442565b9050919050565b610eb48363a9059cbb60e01b8484604051602401610e5292919061246f565b604051602081830303815290604052907bffffffffffffffffffffffffffffffffffffffffffffffffffffffff19166020820180517bffffffffffffffffffffffffffffffffffffffffffffffffffffffff8381831617835250505050611100565b505050565b610f3c846323b872dd60e01b858585604051602401610eda93929190612498565b604051602081830303815290604052907bffffffffffffffffffffffffffffffffffffffffffffffffffffffff19166020820180517bffffffffffffffffffffffffffffffffffffffffffffffffffffffff8381831617835250505050611100565b50505050565b6000811480610fcc575060008373ffffffffffffffffffffffffffffffffffffffff1663dd62ed3e30856040518363ffffffff1660e01b8152600401610f899291906124cf565b602060405180830381865afa158015610fa6573d6000803e3d6000fd5b505050506040513d601f19601f82011682018060405250810190610fca919061250d565b145b61100b576040517f08c379a0000000000000000000000000000000000000000000000000000000008152600401611002906125ac565b60405180910390fd5b61108c8363095ea7b360e01b848460405160240161102a92919061246f565b604051602081830303815290604052907bffffffffffffffffffffffffffffffffffffffffffffffffffffffff19166020820180517bffffffffffffffffffffffffffffffffffffffffffffffffffffffff8381831617835250505050611100565b505050565b60606040518060400160405280600060018111156110b2576110b1611a9f565b5b8152602001836040516020016110c891906126f6565b6040516020818303038152906040528152506040516020016110ea91906127e0565b6040516020818303038152906040529050919050565b6000611162826040518060400160405280602081526020017f5361666545524332303a206c6f772d6c6576656c2063616c6c206661696c65648152508573ffffffffffffffffffffffffffffffffffffffff166111c89092919063ffffffff16565b9050600081511480611184575080806020019051810190611183919061282e565b5b6111c3576040517f08c379a00000000000000000000000000000000000000000000000000000000081526004016111ba906128cd565b60405180910390fd5b505050565b60606111d784846000856111e0565b90509392505050565b606082471015611225576040517f08c379a000000000000000000000000000000000000000000000000000000000815260040161121c9061295f565b60405180910390fd5b6000808673ffffffffffffffffffffffffffffffffffffffff16858760405161124e91906129bb565b60006040518083038185875af1925050503d806000811461128b576040519150601f19603f3d011682016040523d82523d6000602084013e611290565b606091505b50915091506112a1878383876112ad565b92505050949350505050565b6060831561130f576000835103611307576112c785611322565b611306576040517f08c379a00000000000000000000000000000000000000000000000000000000081526004016112fd90612a1e565b60405180910390fd5b5b82905061131a565b6113198383611345565b5b949350505050565b6000808273ffffffffffffffffffffffffffffffffffffffff163b119050919050565b6000825111156113585781518083602001fd5b806040517f08c379a000000000000000000000000000000000000000000000000000000000815260040161138c9190612a82565b60405180910390fd5b6040518060400160405280600060018111156113b4576113b3611a9f565b5b8152602001606081525090565b6040518060200160405280600073ffffffffffffffffffffffffffffffffffffffff1681525090565b6000604051905090565b600080fd5b600080fd5b600063ffffffff82169050919050565b611417816113fe565b811461142257600080fd5b50565b6000813590506114348161140e565b92915050565b6000819050919050565b61144d8161143a565b811461145857600080fd5b50565b60008135905061146a81611444565b92915050565b600080fd5b600080fd5b600080fd5b60008083601f84011261149557611494611470565b5b8235905067ffffffffffffffff8111156114b2576114b1611475565b5b6020830191508360018202830111156114ce576114cd61147a565b5b9250929050565b6000806000806000608086880312156114f1576114f06113f4565b5b60006114ff88828901611425565b95505060206115108882890161145b565b945050604061152188828901611425565b935050606086013567ffffffffffffffff811115611542576115416113f9565b5b61154e8882890161147f565b92509250509295509295909350565b60008115159050919050565b6115728161155d565b82525050565b600060208201905061158d6000830184611569565b92915050565b600073ffffffffffffffffffffffffffffffffffffffff82169050919050565b60006115be82611593565b9050919050565b6115ce816115b3565b82525050565b60006020820190506115e960008301846115c5565b92915050565b6115f8816113fe565b82525050565b600060208201905061161360008301846115ef565b92915050565b600080604083850312156116305761162f6113f4565b5b600061163e85828601611425565b925050602061164f8582860161145b565b9150509250929050565b6000819050919050565b61166c81611659565b811461167757600080fd5b50565b60008135905061168981611663565b92915050565b6000819050826020600302820111156116ab576116aa61147a565b5b92915050565b60008060008060008061010087890312156116cf576116ce6113f4565b5b60006116dd89828a0161167a565b96505060206116ee89828a0161167a565b95505060406116ff89828a0161145b565b945050606061171089828a0161168f565b93505060c061172189828a0161145b565b92505060e061173289828a0161145b565b9150509295509295509295565b600067ffffffffffffffff82169050919050565b61175c8161173f565b82525050565b60006020820190506117776000830184611753565b92915050565b6117868161143a565b82525050565b60006020820190506117a1600083018461177d565b92915050565b6117b0816115b3565b81146117bb57600080fd5b50565b6000813590506117cd816117a7565b92915050565b600080600080600080600060e0888a0312156117f2576117f16113f4565b5b60006118008a828b016117be565b97505060206118118a828b016117be565b96505060406118228a828b016117be565b95505060606118338a828b01611425565b94505060806118448a828b01611425565b93505060a06118558a828b0161145b565b92505060c06118668a828b016117be565b91505092959891949750929550565b600082825260208201905092915050565b7f50726976616379506f6f6c436c69656e743a204f6e6c7920546f6b656e4d657360008201527f73656e6765720000000000000000000000000000000000000000000000000000602082015250565b60006118e2602683611875565b91506118ed82611886565b604082019050919050565b60006020820190508181036000830152611911816118d5565b9050919050565b7f50726976616379506f6f6c436c69656e743a20496e73756666696369656e742060008201527f66696e616c697479000000000000000000000000000000000000000000000000602082015250565b6000611974602883611875565b915061197f82611918565b604082019050919050565b600060208201905081810360008301526119a381611967565b9050919050565b7f50726976616379506f6f6c436c69656e743a20496e76616c696420646f6d616960008201527f6e00000000000000000000000000000000000000000000000000000000000000602082015250565b6000611a06602183611875565b9150611a11826119aa565b604082019050919050565b60006020820190508181036000830152611a35816119f9565b9050919050565b7f4e487b7100000000000000000000000000000000000000000000000000000000600052601160045260246000fd5b6000611a7682611659565b9150611a8183611659565b9250828203905081811115611a9957611a98611a3c565b5b92915050565b7f4e487b7100000000000000000000000000000000000000000000000000000000600052602160045260246000fd5b611ad781611659565b82525050565b6000602082019050611af26000830184611ace565b92915050565b7f50726976616379506f6f6c436c69656e743a20496e76616c6964206d6573736160008201527f6765207479706500000000000000000000000000000000000000000000000000602082015250565b6000611b54602783611875565b9150611b5f82611af8565b604082019050919050565b60006020820190508181036000830152611b8381611b47565b9050919050565b7f50726976616379506f6f6c436c69656e743a20466173742066696e616c69747960008201527f206e6f7420737570706f72746564000000000000000000000000000000000000602082015250565b6000611be6602e83611875565b9150611bf182611b8a565b604082019050919050565b60006020820190508181036000830152611c1581611bd9565b9050919050565b7f50726976616379506f6f6c436c69656e743a204f6e6c79206f776e6572000000600082015250565b6000611c52601d83611875565b9150611c5d82611c1c565b602082019050919050565b60006020820190508181036000830152611c8181611c45565b9050919050565b6000604082019050611c9d60008301856115ef565b611caa602083018461177d565b9392505050565b7f50726976616379506f6f6c436c69656e743a20416d6f756e74206d757374206260008201527f65203e2030000000000000000000000000000000000000000000000000000000602082015250565b6000611d0d602583611875565b9150611d1882611cb1565b604082019050919050565b60006020820190508181036000830152611d3c81611d00565b9050919050565b7f50726976616379506f6f6c436c69656e743a204665652065786365656473206160008201527f6d6f756e74000000000000000000000000000000000000000000000000000000602082015250565b6000611d9f602583611875565b9150611daa82611d43565b604082019050919050565b60006020820190508181036000830152611dce81611d92565b9050919050565b7f50726976616379506f6f6c436c69656e743a20487562206e6f7420636f6e666960008201527f6775726564000000000000000000000000000000000000000000000000000000602082015250565b6000611e31602583611875565b9150611e3c82611dd5565b604082019050919050565b60006020820190508181036000830152611e6081611e24565b9050919050565b600081519050919050565b600082825260208201905092915050565b60005b83811015611ea1578082015181840152602081019050611e86565b60008484015250505050565b6000601f19601f8301169050919050565b6000611ec982611e67565b611ed38185611e72565b9350611ee3818560208601611e83565b611eec81611ead565b840191505092915050565b600061010082019050611f0d600083018b611ace565b611f1a602083018a6115ef565b611f27604083018961177d565b611f3460608301886115c5565b611f41608083018761177d565b611f4e60a0830186611ace565b611f5b60c08301856115ef565b81810360e0830152611f6d8184611ebe565b90509998505050505050505050565b611f858161173f565b8114611f9057600080fd5b50565b600081519050611fa281611f7c565b92915050565b600060208284031215611fbe57611fbd6113f4565b5b6000611fcc84828501611f93565b91505092915050565b6000604082019050611fea6000830185611ace565b611ff76020830184611753565b9392505050565b7f50726976616379506f6f6c436c69656e743a20416c726561647920696e69746960008201527f616c697a65640000000000000000000000000000000000000000000000000000602082015250565b600061205a602683611875565b915061206582611ffe565b604082019050919050565b600060208201905081810360008301526120898161204d565b9050919050565b7f4275726e4d65737361676556323a206d65737361676520746f6f2073686f7274600082015250565b60006120c6602083611875565b91506120d182612090565b602082019050919050565b600060208201905081810360008301526120f5816120b9565b9050919050565b600061210782611659565b915061211283611659565b925082820190508082111561212a57612129611a3c565b5b92915050565b600080fd5b600080fd5b6000808585111561214e5761214d612130565b5b8386111561215f5761215e612135565b5b6001850283019150848603905094509492505050565b600082905092915050565b600082821b905092915050565b60006121998383612175565b826121a4813561143a565b925060208210156121e4576121df7fffffffffffffffffffffffffffffffffffffffffffffffffffffffffffffffff83602003600802612180565b831692505b505092915050565b600080fd5b7f4e487b7100000000000000000000000000000000000000000000000000000000600052604160045260246000fd5b61222982611ead565b810181811067ffffffffffffffff82111715612248576122476121f1565b5b80604052505050565b600061225b6113ea565b90506122678282612220565b919050565b600080fd5b6002811061227e57600080fd5b50565b60008151905061229081612271565b92915050565b600080fd5b600067ffffffffffffffff8211156122b6576122b56121f1565b5b6122bf82611ead565b9050602081019050919050565b60006122df6122da8461229b565b612251565b9050828152602081018484840111156122fb576122fa612296565b5b612306848285611e83565b509392505050565b600082601f83011261232357612322611470565b5b81516123338482602086016122cc565b91505092915050565b600060408284031215612352576123516121ec565b5b61235c6040612251565b9050600061236c84828501612281565b600083015250602082015167ffffffffffffffff8111156123905761238f61226c565b5b61239c8482850161230e565b60208301525092915050565b6000602082840312156123be576123bd6113f4565b5b600082015167ffffffffffffffff8111156123dc576123db6113f9565b5b6123e88482850161233c565b91505092915050565b600081519050612400816117a7565b92915050565b60006020828403121561241c5761241b6121ec565b5b6124266020612251565b90506000612436848285016123f1565b60008301525092915050565b600060208284031215612458576124576113f4565b5b600061246684828501612406565b91505092915050565b600060408201905061248460008301856115c5565b6124916020830184611ace565b9392505050565b60006060820190506124ad60008301866115c5565b6124ba60208301856115c5565b6124c76040830184611ace565b949350505050565b60006040820190506124e460008301856115c5565b6124f160208301846115c5565b9392505050565b60008151905061250781611663565b92915050565b600060208284031215612523576125226113f4565b5b6000612531848285016124f8565b91505092915050565b7f5361666545524332303a20617070726f76652066726f6d206e6f6e2d7a65726f60008201527f20746f206e6f6e2d7a65726f20616c6c6f77616e636500000000000000000000602082015250565b6000612596603683611875565b91506125a18261253a565b604082019050919050565b600060208201905081810360008301526125c581612589565b9050919050565b6125d58161143a565b82525050565b60006effffffffffffffffffffffffffffff82169050919050565b6125ff816125db565b82525050565b600060039050919050565b600081905092915050565b6000819050919050565b600061263183836125cc565b60208301905092915050565b6000602082019050919050565b61265381612605565b61265d8184612610565b92506126688261261b565b8060005b838110156126995781516126808782612625565b965061268b8361263d565b92505060018101905061266c565b505050505050565b60c0820160008201516126b760008501826125cc565b5060208201516126ca60208501826125f6565b5060408201516126dd604085018261264a565b5060608201516126f060a08501826125cc565b50505050565b600060c08201905061270b60008301846126a1565b92915050565b6002811061272257612721611a9f565b5b50565b600081905061273382612711565b919050565b600061274382612725565b9050919050565b61275381612738565b82525050565b600082825260208201905092915050565b600061277582611e67565b61277f8185612759565b935061278f818560208601611e83565b61279881611ead565b840191505092915050565b60006040830160008301516127bb600086018261274a565b50602083015184820360208601526127d3828261276a565b9150508091505092915050565b600060208201905081810360008301526127fa81846127a3565b905092915050565b61280b8161155d565b811461281657600080fd5b50565b60008151905061282881612802565b92915050565b600060208284031215612844576128436113f4565b5b600061285284828501612819565b91505092915050565b7f5361666545524332303a204552433230206f7065726174696f6e20646964206e60008201527f6f74207375636365656400000000000000000000000000000000000000000000602082015250565b60006128b7602a83611875565b91506128c28261285b565b604082019050919050565b600060208201905081810360008301526128e6816128aa565b9050919050565b7f416464726573733a20696e73756666696369656e742062616c616e636520666f60008201527f722063616c6c0000000000000000000000000000000000000000000000000000602082015250565b6000612949602683611875565b9150612954826128ed565b604082019050919050565b600060208201905081810360008301526129788161293c565b9050919050565b600081905092915050565b600061299582611e67565b61299f818561297f565b93506129af818560208601611e83565b80840191505092915050565b60006129c7828461298a565b915081905092915050565b7f416464726573733a2063616c6c20746f206e6f6e2d636f6e7472616374000000600082015250565b6000612a08601d83611875565b9150612a13826129d2565b602082019050919050565b60006020820190508181036000830152612a37816129fb565b9050919050565b600081519050919050565b6000612a5482612a3e565b612a5e8185611875565b9350612a6e818560208601611e83565b612a7781611ead565b840191505092915050565b60006020820190508181036000830152612a9c8184612a49565b90509291505056fea26469706673582212205f3061f0d5a94059a96dbfc7b5ec585eb15a8ce7cd0b1d08c08d7a7af37a44eb64736f6c63430008110033","linkReferences":{}},"methodIdentifiers":{"crossChainShield(uint256,uint256,bytes32,bytes32[3],bytes32,bytes32)":"db215411","handleReceiveFinalizedMessage(uint32,bytes32,uint32,bytes)":"11cffb67","handleReceiveUnfinalizedMessage(uint32,bytes32,uint32,bytes)":"7c92f219","hubDomain()":"a226b2cb","hubPool()":"e1904402","initialize(address,address,address,uint32,uint32,bytes32,address)":"e1f5eab7","initialized()":"158ef93e","localDomain()":"8d3638f4","messageTransmitter()":"7b04c181","owner()":"8da5cb5b","setHubPool(uint32,bytes32)":"948cd37e","tokenMessenger()":"46117830","usdc()":"3e413bee"},"id":14}