{"abi":[{"type":"constructor","inputs":[{"name":"_usdc","type":"address","internalType":"address"},{"name":"_armToken","type":"address","internalType":"address"},{"name":"_admin","type":"address","internalType":"address"}],"stateMutability":"nonpayable"},{"type":"function","name":"ARM_PRICE","inputs":[],"outputs":[{"name":"","type":"uint256","internalType":"uint256"}],"stateMutability":"view"},{"type":"function","name":"BASE_SALE","inputs":[],"outputs":[{"name":"","type":"uint256","internalType":"uint256"}],"stateMutability":"view"},{"type":"function","name":"COMMITMENT_DURATION","inputs":[],"outputs":[{"name":"","type":"uint256","internalType":"uint256"}],"stateMutability":"view"},{"type":"function","name":"ELASTIC_TRIGGER","inputs":[],"outputs":[{"name":"","type":"uint256","internalType":"uint256"}],"stateMutability":"view"},{"type":"function","name":"HOP1_ROLLOVER_MIN","inputs":[],"outputs":[{"name":"","type":"uint32","internalType":"uint32"}],"stateMutability":"view"},{"type":"function","name":"HOP2_ROLLOVER_MIN","inputs":[],"outputs":[{"name":"","type":"uint32","internalType":"uint32"}],"stateMutability":"view"},{"type":"function","name":"INVITATION_DURATION","inputs":[],"outputs":[{"name":"","type":"uint256","internalType":"uint256"}],"stateMutability":"view"},{"type":"function","name":"MAX_SALE","inputs":[],"outputs":[{"name":"","type":"uint256","internalType":"uint256"}],"stateMutability":"view"},{"type":"function","name":"MIN_SALE","inputs":[],"outputs":[{"name":"","type":"uint256","internalType":"uint256"}],"stateMutability":"view"},{"type":"function","name":"NUM_HOPS","inputs":[],"outputs":[{"name":"","type":"uint8","internalType":"uint8"}],"stateMutability":"view"},{"type":"function","name":"addSeed","inputs":[{"name":"seed","type":"address","internalType":"address"}],"outputs":[],"stateMutability":"nonpayable"},{"type":"function","name":"addSeeds","inputs":[{"name":"seeds","type":"address[]","internalType":"address[]"}],"outputs":[],"stateMutability":"nonpayable"},{"type":"function","name":"admin","inputs":[],"outputs":[{"name":"","type":"address","internalType":"address"}],"stateMutability":"view"},{"type":"function","name":"armToken","inputs":[],"outputs":[{"name":"","type":"address","internalType":"contract IERC20"}],"stateMutability":"view"},{"type":"function","name":"claim","inputs":[],"outputs":[],"stateMutability":"nonpayable"},{"type":"function","name":"commit","inputs":[{"name":"amount","type":"uint256","internalType":"uint256"}],"outputs":[],"stateMutability":"nonpayable"},{"type":"function","name":"commitmentEnd","inputs":[],"outputs":[{"name":"","type":"uint256","internalType":"uint256"}],"stateMutability":"view"},{"type":"function","name":"commitmentStart","inputs":[],"outputs":[{"name":"","type":"uint256","internalType":"uint256"}],"stateMutability":"view"},{"type":"function","name":"finalDemands","inputs":[{"name":"","type":"uint256","internalType":"uint256"}],"outputs":[{"name":"","type":"uint256","internalType":"uint256"}],"stateMutability":"view"},{"type":"function","name":"finalReserves","inputs":[{"name":"","type":"uint256","internalType":"uint256"}],"outputs":[{"name":"","type":"uint256","internalType":"uint256"}],"stateMutability":"view"},{"type":"function","name":"finalize","inputs":[],"outputs":[],"stateMutability":"nonpayable"},{"type":"function","name":"getAllocation","inputs":[{"name":"addr","type":"address","internalType":"address"}],"outputs":[{"name":"allocation","type":"uint256","internalType":"uint256"},{"name":"_refund","type":"uint256","internalType":"uint256"},{"name":"claimed","type":"bool","internalType":"bool"}],"stateMutability":"view"},{"type":"function","name":"getCommitment","inputs":[{"name":"addr","type":"address","internalType":"address"}],"outputs":[{"name":"committed","type":"uint256","internalType":"uint256"},{"name":"hop","type":"uint8","internalType":"uint8"}],"stateMutability":"view"},{"type":"function","name":"getHopStats","inputs":[{"name":"hop","type":"uint8","internalType":"uint8"}],"outputs":[{"name":"_totalCommitted","type":"uint256","internalType":"uint256"},{"name":"_uniqueCommitters","type":"uint32","internalType":"uint32"},{"name":"_whitelistCount","type":"uint32","internalType":"uint32"}],"stateMutability":"view"},{"type":"function","name":"getInviteEdge","inputs":[{"name":"invitee","type":"address","internalType":"address"}],"outputs":[{"name":"inviter","type":"address","internalType":"address"},{"name":"hop","type":"uint8","internalType":"uint8"}],"stateMutability":"view"},{"type":"function","name":"getInvitesRemaining","inputs":[{"name":"addr","type":"address","internalType":"address"}],"outputs":[{"name":"","type":"uint8","internalType":"uint8"}],"stateMutability":"view"},{"type":"function","name":"getParticipantCount","inputs":[],"outputs":[{"name":"","type":"uint256","internalType":"uint256"}],"stateMutability":"view"},{"type":"function","name":"getSaleStats","inputs":[],"outputs":[{"name":"_totalCommitted","type":"uint256","internalType":"uint256"},{"name":"_phase","type":"uint8","internalType":"enum Phase"},{"name":"_invitationEnd","type":"uint256","internalType":"uint256"},{"name":"_commitmentEnd","type":"uint256","internalType":"uint256"}],"stateMutability":"view"},{"type":"function","name":"hopConfigs","inputs":[{"name":"","type":"uint256","internalType":"uint256"}],"outputs":[{"name":"reserveBps","type":"uint16","internalType":"uint16"},{"name":"capUsdc","type":"uint256","internalType":"uint256"},{"name":"maxInvites","type":"uint8","internalType":"uint8"}],"stateMutability":"view"},{"type":"function","name":"hopStats","inputs":[{"name":"","type":"uint256","internalType":"uint256"}],"outputs":[{"name":"totalCommitted","type":"uint256","internalType":"uint256"},{"name":"uniqueCommitters","type":"uint32","internalType":"uint32"},{"name":"whitelistCount","type":"uint32","internalType":"uint32"}],"stateMutability":"view"},{"type":"function","name":"invitationEnd","inputs":[],"outputs":[{"name":"","type":"uint256","internalType":"uint256"}],"stateMutability":"view"},{"type":"function","name":"invitationStart","inputs":[],"outputs":[{"name":"","type":"uint256","internalType":"uint256"}],"stateMutability":"view"},{"type":"function","name":"invite","inputs":[{"name":"invitee","type":"address","internalType":"address"}],"outputs":[],"stateMutability":"nonpayable"},{"type":"function","name":"isWhitelisted","inputs":[{"name":"addr","type":"address","internalType":"address"}],"outputs":[{"name":"","type":"bool","internalType":"bool"}],"stateMutability":"view"},{"type":"function","name":"participantList","inputs":[{"name":"","type":"uint256","internalType":"uint256"}],"outputs":[{"name":"","type":"address","internalType":"address"}],"stateMutability":"view"},{"type":"function","name":"participants","inputs":[{"name":"","type":"address","internalType":"address"}],"outputs":[{"name":"hop","type":"uint8","internalType":"uint8"},{"name":"isWhitelisted","type":"bool","internalType":"bool"},{"name":"committed","type":"uint256","internalType":"uint256"},{"name":"allocation","type":"uint256","internalType":"uint256"},{"name":"refund","type":"uint256","internalType":"uint256"},{"name":"claimed","type":"bool","internalType":"bool"},{"name":"invitedBy","type":"address","internalType":"address"},{"name":"invitesSent","type":"uint8","internalType":"uint8"}],"stateMutability":"view"},{"type":"function","name":"phase","inputs":[],"outputs":[{"name":"","type":"uint8","internalType":"enum Phase"}],"stateMutability":"view"},{"type":"function","name":"proceedsWithdrawnAmount","inputs":[],"outputs":[{"name":"","type":"uint256","internalType":"uint256"}],"stateMutability":"view"},{"type":"function","name":"refund","inputs":[],"outputs":[],"stateMutability":"nonpayable"},{"type":"function","name":"saleSize","inputs":[],"outputs":[{"name":"","type":"uint256","internalType":"uint256"}],"stateMutability":"view"},{"type":"function","name":"startInvitations","inputs":[],"outputs":[],"stateMutability":"nonpayable"},{"type":"function","name":"totalAllocated","inputs":[],"outputs":[{"name":"","type":"uint256","internalType":"uint256"}],"stateMutability":"view"},{"type":"function","name":"totalAllocatedUsdc","inputs":[],"outputs":[{"name":"","type":"uint256","internalType":"uint256"}],"stateMutability":"view"},{"type":"function","name":"totalArmClaimed","inputs":[],"outputs":[{"name":"","type":"uint256","internalType":"uint256"}],"stateMutability":"view"},{"type":"function","name":"totalCommitted","inputs":[],"outputs":[{"name":"","type":"uint256","internalType":"uint256"}],"stateMutability":"view"},{"type":"function","name":"totalProceedsAccrued","inputs":[],"outputs":[{"name":"","type":"uint256","internalType":"uint256"}],"stateMutability":"view"},{"type":"function","name":"unallocatedArmWithdrawn","inputs":[],"outputs":[{"name":"","type":"bool","internalType":"bool"}],"stateMutability":"view"},{"type":"function","name":"usdc","inputs":[],"outputs":[{"name":"","type":"address","internalType":"contract IERC20"}],"stateMutability":"view"},{"type":"function","name":"withdrawProceeds","inputs":[{"name":"treasury","type":"address","internalType":"address"}],"outputs":[],"stateMutability":"nonpayable"},{"type":"function","name":"withdrawUnallocatedArm","inputs":[{"name":"treasury","type":"address","internalType":"address"}],"outputs":[],"stateMutability":"nonpayable"},{"type":"event","name":"Claimed","inputs":[{"name":"participant","type":"address","indexed":true,"internalType":"address"},{"name":"armAmount","type":"uint256","indexed":false,"internalType":"uint256"},{"name":"usdcRefund","type":"uint256","indexed":false,"internalType":"uint256"}],"anonymous":false},{"type":"event","name":"Committed","inputs":[{"name":"participant","type":"address","indexed":true,"internalType":"address"},{"name":"amount","type":"uint256","indexed":false,"internalType":"uint256"},{"name":"totalForParticipant","type":"uint256","indexed":false,"internalType":"uint256"},{"name":"hop","type":"uint8","indexed":false,"internalType":"uint8"}],"anonymous":false},{"type":"event","name":"InvitationStarted","inputs":[{"name":"invitationEnd","type":"uint256","indexed":false,"internalType":"uint256"},{"name":"commitmentStart","type":"uint256","indexed":false,"internalType":"uint256"},{"name":"commitmentEnd","type":"uint256","indexed":false,"internalType":"uint256"}],"anonymous":false},{"type":"event","name":"Invited","inputs":[{"name":"inviter","type":"address","indexed":true,"internalType":"address"},{"name":"invitee","type":"address","indexed":true,"internalType":"address"},{"name":"hop","type":"uint8","indexed":false,"internalType":"uint8"}],"anonymous":false},{"type":"event","name":"ProceedsWithdrawn","inputs":[{"name":"treasury","type":"address","indexed":true,"internalType":"address"},{"name":"amount","type":"uint256","indexed":false,"internalType":"uint256"}],"anonymous":false},{"type":"event","name":"Refunded","inputs":[{"name":"participant","type":"address","indexed":true,"internalType":"address"},{"name":"amount","type":"uint256","indexed":false,"internalType":"uint256"}],"anonymous":false},{"type":"event","name":"SaleCanceled","inputs":[{"name":"totalCommitted","type":"uint256","indexed":false,"internalType":"uint256"}],"anonymous":false},{"type":"event","name":"SaleFinalized","inputs":[{"name":"saleSize","type":"uint256","indexed":false,"internalType":"uint256"},{"name":"totalAllocUsdc","type":"uint256","indexed":false,"internalType":"uint256"},{"name":"totalAllocArm","type":"uint256","indexed":false,"internalType":"uint256"},{"name":"treasuryLeftoverUsdc","type":"uint256","indexed":false,"internalType":"uint256"}],"anonymous":false},{"type":"event","name":"SeedAdded","inputs":[{"name":"seed","type":"address","indexed":true,"internalType":"address"}],"anonymous":false},{"type":"event","name":"UnallocatedArmWithdrawn","inputs":[{"name":"treasury","type":"address","indexed":true,"internalType":"address"},{"name":"amount","type":"uint256","indexed":false,"internalType":"uint256"}],"anonymous":false}],"bytecode":{"object":"0x60e06040523480156200001157600080fd5b50604051620057df380380620057df8339818101604052810190620000379190620003b1565b6001600081905550600073ffffffffffffffffffffffffffffffffffffffff168173ffffffffffffffffffffffffffffffffffffffff1603620000b1576040517f08c379a0000000000000000000000000000000000000000000000000000000008152600401620000a8906200046e565b60405180910390fd5b8273ffffffffffffffffffffffffffffffffffffffff1660808173ffffffffffffffffffffffffffffffffffffffff16815250508173ffffffffffffffffffffffffffffffffffffffff1660a08173ffffffffffffffffffffffffffffffffffffffff16815250508073ffffffffffffffffffffffffffffffffffffffff1660c08173ffffffffffffffffffffffffffffffffffffffff16815250506000600160006101000a81548160ff0219169083600481111562000176576200017562000490565b5b02179055506040518060600160405280611b5861ffff16815260200164037e11d6008152602001600360ff168152506006600060038110620001bd57620001bc620004bf565b5b6003020160008201518160000160006101000a81548161ffff021916908361ffff1602179055506020820151816001015560408201518160020160006101000a81548160ff021916908360ff16021790555090505060405180606001604052806109c461ffff16815260200163ee6b28008152602001600260ff168152506006600160038110620002535762000252620004bf565b5b6003020160008201518160000160006101000a81548161ffff021916908361ffff1602179055506020820151816001015560408201518160020160006101000a81548160ff021916908360ff16021790555090505060405180606001604052806101f461ffff168152602001633b9aca008152602001600060ff168152506006600260038110620002e957620002e8620004bf565b5b6003020160008201518160000160006101000a81548161ffff021916908361ffff1602179055506020820151816001015560408201518160020160006101000a81548160ff021916908360ff160217905550905050505050620004ee565b600080fd5b600073ffffffffffffffffffffffffffffffffffffffff82169050919050565b600062000379826200034c565b9050919050565b6200038b816200036c565b81146200039757600080fd5b50565b600081519050620003ab8162000380565b92915050565b600080600060608486031215620003cd57620003cc62000347565b5b6000620003dd868287016200039a565b9350506020620003f0868287016200039a565b925050604062000403868287016200039a565b9150509250925092565b600082825260208201905092915050565b7f41726d61646143726f776466756e643a207a65726f2061646d696e0000000000600082015250565b600062000456601b836200040d565b915062000463826200041e565b602082019050919050565b60006020820190508181036000830152620004898162000447565b9050919050565b7f4e487b7100000000000000000000000000000000000000000000000000000000600052602160045260246000fd5b7f4e487b7100000000000000000000000000000000000000000000000000000000600052603260045260246000fd5b60805160a05160c05161525f6200058060003960008181610b5301528181610cc30152818161161701528181612355015281816127e701528181612a5a0152612f75015260008181610ea301528181610f710152818161188d01528181611ff201526120ec015260008181611065015281816120470152818161229a0152818161253d0152612eca015261525f6000f3fe608060405234801561001057600080fd5b50600436106102d65760003560e01c806363a7a21111610182578063ad605729116100e9578063d9e163fe116100a2578063f4f98ad51161007c578063f4f98ad5146108ab578063f851a440146108c7578063fa1026dd146108e5578063fc5167fc14610916576102d6565b8063d9e163fe14610851578063eafa77661461086f578063ee872f1a1461088d576102d6565b8063ad6057291461078b578063b1c9fe6e146107a9578063b5742c87146107c7578063b9cfdad7146107e5578063cf0d61fc14610803578063d41afee01461081f576102d6565b80638b02237c1161013b5780638b02237c146106eb5780638cf37ea9146106f55780639662a488146107135780639a1c4e44146107315780639fb5398b1461074f578063a63f1aea1461076d576102d6565b806363a7a211146105fd57806363cbdfb91461061b5780636f9c2f051461064d57806370f509731461067f578063826cb0ec1461069d578063842595d4146106cd576102d6565b80633e413bee116102415780634e71d92d116101fa578063590e1ae3116101d4578063590e1ae3146105895780636022dcd51461059357806362810c81146105c3578063633694e1146105df576102d6565b80634e71d92d1461054357806354c98d8e1461054d57806356a67e881461056b576102d6565b80633e413bee146104a5578063407d1417146104c357806345f7f249146104e15780634b77c468146104ff5780634bb278f31461051b5780634d7c4f5e14610525576102d6565b8063136f3cfc11610293578063136f3cfc146103cf5780631abe0518146103ed5780631d3231d41461041d578063315cb2e21461043b57806332ee7f46146104595780633af32abf14610475576102d6565b806309e69ede146102db5780630dfe56a1146103125780630e022923146103305780630e6fdaa11461036257806310cb98a514610392578063136ea674146103ae575b600080fd5b6102f560048036038101906102f091906139c2565b610947565b604051610309989796959493929190613a4e565b60405180910390f35b61031a6109e3565b6040516103279190613acc565b60405180910390f35b61034a600480360381019061034591906139c2565b6109e9565b60405161035993929190613ae7565b60405180910390f35b61037c60048036038101906103779190613b4a565b610b12565b6040516103899190613b77565b60405180910390f35b6103ac60048036038101906103a791906139c2565b610b51565b005b6103b6610c63565b6040516103c69493929190613c09565b60405180910390f35b6103d7610c90565b6040516103e49190613acc565b60405180910390f35b61040760048036038101906104029190613b4a565b610c9a565b6040516104149190613acc565b60405180910390f35b610425610cb5565b6040516104329190613acc565b60405180910390f35b610443610cbb565b6040516104509190613acc565b60405180910390f35b610473600480360381019061046e91906139c2565b610cc1565b005b61048f600480360381019061048a91906139c2565b61100a565b60405161049c9190613c4e565b60405180910390f35b6104ad611063565b6040516104ba9190613cc8565b60405180910390f35b6104cb611087565b6040516104d89190613acc565b60405180910390f35b6104e961108d565b6040516104f69190613acc565b60405180910390f35b610519600480360381019061051491906139c2565b611093565b005b610523611615565b005b61052d611df8565b60405161053a9190613ce3565b60405180910390f35b61054b611dfd565b005b6105556120ea565b6040516105629190613cc8565b60405180910390f35b61057361210e565b6040516105809190613acc565b60405180910390f35b610591612114565b005b6105ad60048036038101906105a89190613b4a565b612338565b6040516105ba9190613acc565b60405180910390f35b6105dd60048036038101906105d891906139c2565b612353565b005b6105e76125d3565b6040516105f49190613d1d565b60405180910390f35b6106056125d8565b6040516106129190613acc565b60405180910390f35b61063560048036038101906106309190613d64565b6125df565b60405161064493929190613d91565b60405180910390f35b61066760048036038101906106629190613b4a565b612689565b60405161067693929190613de5565b60405180910390f35b6106876126d4565b6040516106949190613c4e565b60405180910390f35b6106b760048036038101906106b291906139c2565b6126e7565b6040516106c49190613ce3565b60405180910390f35b6106d56127dc565b6040516106e29190613acc565b60405180910390f35b6106f36127e5565b005b6106fd612a09565b60405161070a9190613d1d565b60405180910390f35b61071b612a0e565b6040516107289190613acc565b60405180910390f35b610739612a14565b6040516107469190613acc565b60405180910390f35b610757612a1e565b6040516107649190613acc565b60405180910390f35b610775612a24565b6040516107829190613acc565b60405180910390f35b610793612a2b565b6040516107a09190613acc565b60405180910390f35b6107b1612a38565b6040516107be9190613e1c565b60405180910390f35b6107cf612a4b565b6040516107dc9190613acc565b60405180910390f35b6107ed612a51565b6040516107fa9190613acc565b60405180910390f35b61081d60048036038101906108189190613e9c565b612a58565b005b61083960048036038101906108349190613b4a565b612bb4565b60405161084893929190613d91565b60405180910390f35b610859612c04565b6040516108669190613acc565b60405180910390f35b610877612c0a565b6040516108849190613acc565b60405180910390f35b610895612c2c565b6040516108a29190613acc565b60405180910390f35b6108c560048036038101906108c09190613b4a565b612c32565b005b6108cf612f73565b6040516108dc9190613b77565b60405180910390f35b6108ff60048036038101906108fa91906139c2565b612f97565b60405161090d929190613ee9565b60405180910390f35b610930600480360381019061092b91906139c2565b612ffe565b60405161093e929190613f12565b60405180910390f35b600f6020528060005260406000206000915090508060000160009054906101000a900460ff16908060000160019054906101000a900460ff16908060010154908060020154908060030154908060040160009054906101000a900460ff16908060040160019054906101000a900473ffffffffffffffffffffffffffffffffffffffff16908060040160159054906101000a900460ff16905088565b60235481565b600080600060036004811115610a0257610a01613b92565b5b600160009054906101000a900460ff166004811115610a2457610a23613b92565b5b14610a64576040517f08c379a0000000000000000000000000000000000000000000000000000000008152600401610a5b90613f98565b60405180910390fd5b6000600f60008673ffffffffffffffffffffffffffffffffffffffff1673ffffffffffffffffffffffffffffffffffffffff16815260200190815260200160002090508060040160009054906101000a900460ff1615610ad65780600201548160030154600193509350935050610b0b565b600080610af883600101548460000160009054906101000a900460ff16613138565b9250509150818160009550955095505050505b9193909250565b60108181548110610b2257600080fd5b906000526020600020016000915054906101000a900473ffffffffffffffffffffffffffffffffffffffff1681565b7f000000000000000000000000000000000000000000000000000000000000000073ffffffffffffffffffffffffffffffffffffffff163373ffffffffffffffffffffffffffffffffffffffff1614610bdf576040517f08c379a0000000000000000000000000000000000000000000000000000000008152600401610bd690614004565b60405180910390fd5b6000806004811115610bf457610bf3613b92565b5b600160009054906101000a900460ff166004811115610c1657610c15613b92565b5b14610c56576040517f08c379a0000000000000000000000000000000000000000000000000000000008152600401610c4d90614070565b60405180910390fd5b610c5f82613281565b5050565b600080600080601754600160009054906101000a900460ff16600354600554935093509350935090919293565b6501a3185c500081565b601e8160038110610caa57600080fd5b016000915090505481565b60175481565b60035481565b7f000000000000000000000000000000000000000000000000000000000000000073ffffffffffffffffffffffffffffffffffffffff163373ffffffffffffffffffffffffffffffffffffffff1614610d4f576040517f08c379a0000000000000000000000000000000000000000000000000000000008152600401610d4690614004565b60405180910390fd5b60036004811115610d6357610d62613b92565b5b600160009054906101000a900460ff166004811115610d8557610d84613b92565b5b14610dc5576040517f08c379a0000000000000000000000000000000000000000000000000000000008152600401610dbc90613f98565b60405180910390fd5b600073ffffffffffffffffffffffffffffffffffffffff168173ffffffffffffffffffffffffffffffffffffffff1603610e34576040517f08c379a0000000000000000000000000000000000000000000000000000000008152600401610e2b906140dc565b60405180910390fd5b602460009054906101000a900460ff1615610e84576040517f08c379a0000000000000000000000000000000000000000000000000000000008152600401610e7b9061416e565b60405180910390fd5b6001602460006101000a81548160ff02191690831515021790555060007f000000000000000000000000000000000000000000000000000000000000000073ffffffffffffffffffffffffffffffffffffffff166370a08231306040518263ffffffff1660e01b8152600401610efa9190613b77565b602060405180830381865afa158015610f17573d6000803e3d6000fd5b505050506040513d601f19601f82011682018060405250810190610f3b91906141a3565b90506000602254601954610f4f91906141ff565b905060008183610f5f91906141ff565b90506000811115610fb657610fb584827f000000000000000000000000000000000000000000000000000000000000000073ffffffffffffffffffffffffffffffffffffffff1661353b9092919063ffffffff16565b5b8373ffffffffffffffffffffffffffffffffffffffff167fee7b187981aee06234c04efa64f01a073e90d2509ce6409a93e556dfbd06ee4682604051610ffc9190613acc565b60405180910390a250505050565b6000600f60008373ffffffffffffffffffffffffffffffffffffffff1673ffffffffffffffffffffffffffffffffffffffff16815260200190815260200160002060000160019054906101000a900460ff169050919050565b7f000000000000000000000000000000000000000000000000000000000000000081565b60185481565b60195481565b60025442101580156110a757506003544211155b6110e6576040517f08c379a00000000000000000000000000000000000000000000000000000000081526004016110dd906142a5565b60405180910390fd5b6000600f60003373ffffffffffffffffffffffffffffffffffffffff1673ffffffffffffffffffffffffffffffffffffffff16815260200190815260200160002090508060000160019054906101000a900460ff1661117a576040517f08c379a000000000000000000000000000000000000000000000000000000000815260040161117190614311565b60405180910390fd5b60008160000160009054906101000a900460ff1690506001600361119e9190614331565b60ff168160ff16106111e5576040517f08c379a00000000000000000000000000000000000000000000000000000000081526004016111dc906143b2565b60405180910390fd5b60068160ff16600381106111fc576111fb6143d2565b5b6003020160020160009054906101000a900460ff1660ff168260040160159054906101000a900460ff1660ff1610611269576040517f08c379a000000000000000000000000000000000000000000000000000000000815260040161126090614473565b60405180910390fd5b600073ffffffffffffffffffffffffffffffffffffffff168373ffffffffffffffffffffffffffffffffffffffff16036112d8576040517f08c379a00000000000000000000000000000000000000000000000000000000081526004016112cf906140dc565b60405180910390fd5b600f60008473ffffffffffffffffffffffffffffffffffffffff1673ffffffffffffffffffffffffffffffffffffffff16815260200190815260200160002060000160019054906101000a900460ff1615611368576040517f08c379a000000000000000000000000000000000000000000000000000000000815260040161135f90614505565b60405180910390fd5b60006001826113779190614525565b905080600f60008673ffffffffffffffffffffffffffffffffffffffff1673ffffffffffffffffffffffffffffffffffffffff16815260200190815260200160002060000160006101000a81548160ff021916908360ff1602179055506001600f60008673ffffffffffffffffffffffffffffffffffffffff1673ffffffffffffffffffffffffffffffffffffffff16815260200190815260200160002060000160016101000a81548160ff02191690831515021790555033600f60008673ffffffffffffffffffffffffffffffffffffffff1673ffffffffffffffffffffffffffffffffffffffff16815260200190815260200160002060040160016101000a81548173ffffffffffffffffffffffffffffffffffffffff021916908373ffffffffffffffffffffffffffffffffffffffff1602179055506010849080600181540180825580915050600190039060005260206000200160009091909190916101000a81548173ffffffffffffffffffffffffffffffffffffffff021916908373ffffffffffffffffffffffffffffffffffffffff16021790555082600401601581819054906101000a900460ff16809291906115349061455a565b91906101000a81548160ff021916908360ff1602179055505060118160ff1660038110611564576115636143d2565b5b60020201600101600481819054906101000a900463ffffffff168092919061158b90614583565b91906101000a81548163ffffffff021916908363ffffffff160217905550508373ffffffffffffffffffffffffffffffffffffffff163373ffffffffffffffffffffffffffffffffffffffff167fc1bd3b064277f86e299b975b92b18d6e68cb6064cd8b2bde08d170e50026b994836040516116079190613ce3565b60405180910390a350505050565b7f000000000000000000000000000000000000000000000000000000000000000073ffffffffffffffffffffffffffffffffffffffff163373ffffffffffffffffffffffffffffffffffffffff16146116a3576040517f08c379a000000000000000000000000000000000000000000000000000000000815260040161169a90614004565b60405180910390fd5b6116ab6135c1565b60055442116116ef576040517f08c379a00000000000000000000000000000000000000000000000000000000081526004016116e690614621565b60405180910390fd5b6001600481111561170357611702613b92565b5b600160009054906101000a900460ff16600481111561172557611724613b92565b5b14806117645750600260048111156117405761173f613b92565b5b600160009054906101000a900460ff16600481111561176257611761613b92565b5b145b6117a3576040517f08c379a000000000000000000000000000000000000000000000000000000000815260040161179a906146b3565b60405180910390fd5b64e8d4a51000601754101561181b576004600160006101000a81548160ff021916908360048111156117d8576117d7613b92565b5b02179055507fbc3d8540adfcf6600ea8f790c6ed415a6aa7a1219d45ecefc5bdff014348a8b060175460405161180e9190613acc565b60405180910390a1611dee565b600a600f6501176592e00061183091906146d3565b61183a9190614744565b60175410611854576501a3185c5000601881905550611862565b6501176592e0006018819055505b6000620f4240670de0b6b3a764000060185461187e91906146d3565b6118889190614744565b9050807f000000000000000000000000000000000000000000000000000000000000000073ffffffffffffffffffffffffffffffffffffffff166370a08231306040518263ffffffff1660e01b81526004016118e49190613b77565b602060405180830381865afa158015611901573d6000803e3d6000fd5b505050506040513d601f19601f8201168201806040525081019061192591906141a3565b1015611966576040517f08c379a000000000000000000000000000000000000000000000000000000000815260040161195d906147e7565b60405180910390fd5b61196e613938565b611976613938565b6000805b600360ff168160ff161015611a445761271060068260ff16600381106119a3576119a26143d2565b5b6003020160000160009054906101000a900461ffff1661ffff166018546119ca91906146d3565b6119d49190614744565b848260ff16600381106119ea576119e96143d2565b5b60200201818152505060118160ff1660038110611a0a57611a096143d2565b5b6002020160000154838260ff1660038110611a2857611a276143d2565b5b6020020181815250508080611a3c9061455a565b91505061197a565b5060005b600360ff168160ff161015611c1d57838160ff1660038110611a6d57611a6c6143d2565b5b6020020151838260ff1660038110611a8857611a876143d2565b5b602002015111611c0a576000838260ff1660038110611aaa57611aa96143d2565b5b6020020151858360ff1660038110611ac557611ac46143d2565b5b6020020151611ad491906141ff565b905060008260ff1603611b6757601e63ffffffff166011600160038110611afe57611afd6143d2565b5b6002020160010160009054906101000a900463ffffffff1663ffffffff1610611b53578085600160038110611b3657611b356143d2565b5b60200201818151611b479190614807565b91508181525050611b62565b8083611b5f9190614807565b92505b611c08565b60018260ff1603611bf857603263ffffffff166011600260038110611b8f57611b8e6143d2565b5b6002020160010160009054906101000a900463ffffffff1663ffffffff1610611be4578085600260038110611bc757611bc66143d2565b5b60200201818151611bd89190614807565b91508181525050611bf3565b8083611bf09190614807565b92505b611c07565b8083611c049190614807565b92505b5b505b8080611c159061455a565b915050611a48565b5060008060005b600360ff168160ff161015611d6e57858160ff1660038110611c4957611c486143d2565b5b6020020151601b8260ff1660038110611c6557611c646143d2565b5b0181905550848160ff1660038110611c8057611c7f6143d2565b5b6020020151601e8260ff1660038110611c9c57611c9b6143d2565b5b01819055506000868260ff1660038110611cb957611cb86143d2565b5b6020020151868360ff1660038110611cd457611cd36143d2565b5b60200201511115611cff57868260ff1660038110611cf557611cf46143d2565b5b6020020151611d1b565b858260ff1660038110611d1557611d146143d2565b5b60200201515b90508084611d299190614807565b9350620f4240670de0b6b3a764000082611d4391906146d3565b611d4d9190614744565b83611d589190614807565b9250508080611d669061455a565b915050611c24565b5081601a81905550806019819055506003600160006101000a81548160ff02191690836004811115611da357611da2613b92565b5b02179055507f3247261fffac93019b3a34aa6692df18a5ddea75a12bf8ec4539903a608a6e4c601854838386604051611ddf949392919061483b565b60405180910390a15050505050505b611df6613610565b565b600381565b611e056135c1565b60036004811115611e1957611e18613b92565b5b600160009054906101000a900460ff166004811115611e3b57611e3a613b92565b5b14611e7b576040517f08c379a0000000000000000000000000000000000000000000000000000000008152600401611e7290613f98565b60405180910390fd5b6000600f60003373ffffffffffffffffffffffffffffffffffffffff1673ffffffffffffffffffffffffffffffffffffffff16815260200190815260200160002090506000816001015411611f05576040517f08c379a0000000000000000000000000000000000000000000000000000000008152600401611efc906148cc565b60405180910390fd5b8060040160009054906101000a900460ff1615611f57576040517f08c379a0000000000000000000000000000000000000000000000000000000008152600401611f4e90614938565b60405180910390fd5b6000806000611f7b84600101548560000160009054906101000a900460ff16613138565b92509250925060018460040160006101000a81548160ff0219169083151502179055508284600201819055508084600301819055508160216000828254611fc29190614807565b925050819055508260226000828254611fdb9190614807565b9250508190555060008311156120375761203633847f000000000000000000000000000000000000000000000000000000000000000073ffffffffffffffffffffffffffffffffffffffff1661353b9092919063ffffffff16565b5b600081111561208c5761208b33827f000000000000000000000000000000000000000000000000000000000000000073ffffffffffffffffffffffffffffffffffffffff1661353b9092919063ffffffff16565b5b3373ffffffffffffffffffffffffffffffffffffffff167f987d620f307ff6b94d58743cb7a7509f24071586a77759b77c2d4e29f75a2f9a84836040516120d4929190614958565b60405180910390a2505050506120e8613610565b565b7f000000000000000000000000000000000000000000000000000000000000000081565b60055481565b61211c6135c1565b60048081111561212f5761212e613b92565b5b600160009054906101000a900460ff16600481111561215157612150613b92565b5b14612191576040517f08c379a0000000000000000000000000000000000000000000000000000000008152600401612188906149cd565b60405180910390fd5b6000600f60003373ffffffffffffffffffffffffffffffffffffffff1673ffffffffffffffffffffffffffffffffffffffff1681526020019081526020016000209050600081600101541161221b576040517f08c379a0000000000000000000000000000000000000000000000000000000008152600401612212906148cc565b60405180910390fd5b8060040160009054906101000a900460ff161561226d576040517f08c379a000000000000000000000000000000000000000000000000000000000815260040161226490614a5f565b60405180910390fd5b60018160040160006101000a81548160ff0219169083151502179055506000816001015490506122de33827f000000000000000000000000000000000000000000000000000000000000000073ffffffffffffffffffffffffffffffffffffffff1661353b9092919063ffffffff16565b3373ffffffffffffffffffffffffffffffffffffffff167fd7dee2702d63ad89917b6a4da9981c90c4d24f8c2bdfd64c604ecae57d8d0651826040516123249190613acc565b60405180910390a25050612336613610565b565b601b816003811061234857600080fd5b016000915090505481565b7f000000000000000000000000000000000000000000000000000000000000000073ffffffffffffffffffffffffffffffffffffffff163373ffffffffffffffffffffffffffffffffffffffff16146123e1576040517f08c379a00000000000000000000000000000000000000000000000000000000081526004016123d890614004565b60405180910390fd5b600360048111156123f5576123f4613b92565b5b600160009054906101000a900460ff16600481111561241757612416613b92565b5b14612457576040517f08c379a000000000000000000000000000000000000000000000000000000000815260040161244e90613f98565b60405180910390fd5b600073ffffffffffffffffffffffffffffffffffffffff168173ffffffffffffffffffffffffffffffffffffffff16036124c6576040517f08c379a00000000000000000000000000000000000000000000000000000000081526004016124bd906140dc565b60405180910390fd5b60006023546021546124d891906141ff565b90506000811161251d576040517f08c379a000000000000000000000000000000000000000000000000000000000815260040161251490614acb565b60405180910390fd5b806023600082825461252f9190614807565b9250508190555061258182827f000000000000000000000000000000000000000000000000000000000000000073ffffffffffffffffffffffffffffffffffffffff1661353b9092919063ffffffff16565b8173ffffffffffffffffffffffffffffffffffffffff167f0f2fb75cc1977a496e94837f859e957f68e26e70dc1b75d9945ee92ae57969ba826040516125c79190613acc565b60405180910390a25050565b603281565b62093a8081565b6000806000600360ff168460ff161061262d576040517f08c379a000000000000000000000000000000000000000000000000000000000815260040161262490614b37565b60405180910390fd5b600060118560ff1660038110612646576126456143d2565b5b60020201905080600001548160010160009054906101000a900463ffffffff168260010160049054906101000a900463ffffffff16935093509350509193909250565b6006816003811061269957600080fd5b600302016000915090508060000160009054906101000a900461ffff16908060010154908060020160009054906101000a900460ff16905083565b602460009054906101000a900460ff1681565b600080600f60008473ffffffffffffffffffffffffffffffffffffffff1673ffffffffffffffffffffffffffffffffffffffff16815260200190815260200160002090508060000160019054906101000a900460ff1661274b5760009150506127d7565b600060068260000160009054906101000a900460ff1660ff1660038110612775576127746143d2565b5b6003020160020160009054906101000a900460ff1690508060ff168260040160159054906101000a900460ff1660ff16106127b5576000925050506127d7565b8160040160159054906101000a900460ff16816127d29190614331565b925050505b919050565b64e8d4a5100081565b7f000000000000000000000000000000000000000000000000000000000000000073ffffffffffffffffffffffffffffffffffffffff163373ffffffffffffffffffffffffffffffffffffffff1614612873576040517f08c379a000000000000000000000000000000000000000000000000000000000815260040161286a90614004565b60405180910390fd5b600080600481111561288857612887613b92565b5b600160009054906101000a900460ff1660048111156128aa576128a9613b92565b5b146128ea576040517f08c379a00000000000000000000000000000000000000000000000000000000081526004016128e190614070565b60405180910390fd5b60006011600060038110612901576129006143d2565b5b6002020160010160049054906101000a900463ffffffff1663ffffffff161161295f576040517f08c379a000000000000000000000000000000000000000000000000000000000815260040161295690614ba3565b60405180910390fd5b4260028190555062127500426129759190614807565b60038190555060035460048190555062093a806004546129959190614807565b60058190555060018060006101000a81548160ff021916908360048111156129c0576129bf613b92565b5b02179055507fd36d78651c5d726a06b55c86d5412f4608474acff5b43eae0f62e6806ac0b9476003546004546005546040516129fe93929190614bc3565b60405180910390a150565b601e81565b60225481565b6501176592e00081565b601a5481565b6212750081565b6000601080549050905090565b600160009054906101000a900460ff1681565b60045481565b620f424081565b7f000000000000000000000000000000000000000000000000000000000000000073ffffffffffffffffffffffffffffffffffffffff163373ffffffffffffffffffffffffffffffffffffffff1614612ae6576040517f08c379a0000000000000000000000000000000000000000000000000000000008152600401612add90614004565b60405180910390fd5b6000806004811115612afb57612afa613b92565b5b600160009054906101000a900460ff166004811115612b1d57612b1c613b92565b5b14612b5d576040517f08c379a0000000000000000000000000000000000000000000000000000000008152600401612b5490614070565b60405180910390fd5b60005b83839050811015612bae57612b9b848483818110612b8157612b806143d2565b5b9050602002016020810190612b9691906139c2565b613281565b8080612ba690614bfa565b915050612b60565b50505050565b60118160038110612bc457600080fd5b600202016000915090508060000154908060010160009054906101000a900463ffffffff16908060010160049054906101000a900463ffffffff16905083565b60215481565b600a600f6501176592e000612c1f91906146d3565b612c299190614744565b81565b60025481565b612c3a6135c1565b6004544210158015612c4e57506005544211155b612c8d576040517f08c379a0000000000000000000000000000000000000000000000000000000008152600401612c8490614cb4565b60405180910390fd5b6000600f60003373ffffffffffffffffffffffffffffffffffffffff1673ffffffffffffffffffffffffffffffffffffffff16815260200190815260200160002090508060000160019054906101000a900460ff16612d21576040517f08c379a0000000000000000000000000000000000000000000000000000000008152600401612d1890614311565b60405180910390fd5b60008211612d64576040517f08c379a0000000000000000000000000000000000000000000000000000000008152600401612d5b90614d20565b60405180910390fd5b60008160000160009054906101000a900460ff16905060068160ff1660038110612d9157612d906143d2565b5b6003020160010154838360010154612da99190614807565b1115612dea576040517f08c379a0000000000000000000000000000000000000000000000000000000008152600401612de190614d8c565b60405180910390fd5b600080836001015414905083836001016000828254612e099190614807565b925050819055508360118360ff1660038110612e2857612e276143d2565b5b600202016000016000828254612e3e9190614807565b925050819055508360176000828254612e579190614807565b925050819055508015612ec25760118260ff1660038110612e7b57612e7a6143d2565b5b60020201600101600081819054906101000a900463ffffffff1680929190612ea290614583565b91906101000a81548163ffffffff021916908363ffffffff160217905550505b612f0f3330867f000000000000000000000000000000000000000000000000000000000000000073ffffffffffffffffffffffffffffffffffffffff1661361a909392919063ffffffff16565b3373ffffffffffffffffffffffffffffffffffffffff167fdd5b200407aabda649c2fd820770dfa7ce2852c3f05de377001a33535005f02985856001015485604051612f5d93929190614dac565b60405180910390a2505050612f70613610565b50565b7f000000000000000000000000000000000000000000000000000000000000000081565b6000806000600f60008573ffffffffffffffffffffffffffffffffffffffff1673ffffffffffffffffffffffffffffffffffffffff168152602001908152602001600020905080600101548160000160009054906101000a900460ff169250925050915091565b6000806003600481111561301557613014613b92565b5b600160009054906101000a900460ff16600481111561303757613036613b92565b5b1480613075575060048081111561305157613050613b92565b5b600160009054906101000a900460ff16600481111561307357613072613b92565b5b145b6130b4576040517f08c379a00000000000000000000000000000000000000000000000000000000081526004016130ab90614e55565b60405180910390fd5b6000600f60008573ffffffffffffffffffffffffffffffffffffffff1673ffffffffffffffffffffffffffffffffffffffff16815260200190815260200160002090508060040160019054906101000a900473ffffffffffffffffffffffffffffffffffffffff168160000160009054906101000a900460ff169250925050915091565b600080600080850361315457600080600092509250925061327a565b601b8460ff166003811061316b5761316a6143d2565b5b0154601e8560ff1660038110613184576131836143d2565b5b0154116131b757849150620f4240670de0b6b3a7640000866131a691906146d3565b6131b09190614744565b925061326b565b601e8460ff16600381106131ce576131cd6143d2565b5b0154601b8560ff16600381106131e7576131e66143d2565b5b0154866131f491906146d3565b6131fe9190614744565b9150620f4240601e8560ff166003811061321b5761321a6143d2565b5b015461322791906146d3565b670de0b6b3a7640000601b8660ff1660038110613247576132466143d2565b5b01548761325491906146d3565b61325e91906146d3565b6132689190614744565b92505b818561327791906141ff565b90505b9250925092565b600073ffffffffffffffffffffffffffffffffffffffff168173ffffffffffffffffffffffffffffffffffffffff16036132f0576040517f08c379a00000000000000000000000000000000000000000000000000000000081526004016132e7906140dc565b60405180910390fd5b600f60008273ffffffffffffffffffffffffffffffffffffffff1673ffffffffffffffffffffffffffffffffffffffff16815260200190815260200160002060000160019054906101000a900460ff1615613380576040517f08c379a000000000000000000000000000000000000000000000000000000000815260040161337790614505565b60405180910390fd5b6000600f60008373ffffffffffffffffffffffffffffffffffffffff1673ffffffffffffffffffffffffffffffffffffffff16815260200190815260200160002060000160006101000a81548160ff021916908360ff1602179055506001600f60008373ffffffffffffffffffffffffffffffffffffffff1673ffffffffffffffffffffffffffffffffffffffff16815260200190815260200160002060000160016101000a81548160ff0219169083151502179055506010819080600181540180825580915050600190039060005260206000200160009091909190916101000a81548173ffffffffffffffffffffffffffffffffffffffff021916908373ffffffffffffffffffffffffffffffffffffffff16021790555060116000600381106134af576134ae6143d2565b5b60020201600101600481819054906101000a900463ffffffff16809291906134d690614583565b91906101000a81548163ffffffff021916908363ffffffff160217905550508073ffffffffffffffffffffffffffffffffffffffff167fae52fc87d766017692fb19da49110134dcc1bd3b87a0307a55c9c013301eedd660405160405180910390a250565b6135bc8363a9059cbb60e01b848460405160240161355a929190614e75565b604051602081830303815290604052907bffffffffffffffffffffffffffffffffffffffffffffffffffffffff19166020820180517bffffffffffffffffffffffffffffffffffffffffffffffffffffffff83818316178352505050506136a3565b505050565b600260005403613606576040517f08c379a00000000000000000000000000000000000000000000000000000000081526004016135fd90614eea565b60405180910390fd5b6002600081905550565b6001600081905550565b61369d846323b872dd60e01b85858560405160240161363b93929190614f0a565b604051602081830303815290604052907bffffffffffffffffffffffffffffffffffffffffffffffffffffffff19166020820180517bffffffffffffffffffffffffffffffffffffffffffffffffffffffff83818316178352505050506136a3565b50505050565b6000613705826040518060400160405280602081526020017f5361666545524332303a206c6f772d6c6576656c2063616c6c206661696c65648152508573ffffffffffffffffffffffffffffffffffffffff1661376b9092919063ffffffff16565b90506000815114806137275750808060200190518101906137269190614f6d565b5b613766576040517f08c379a000000000000000000000000000000000000000000000000000000000815260040161375d9061500c565b60405180910390fd5b505050565b606061377a8484600085613783565b90509392505050565b6060824710156137c8576040517f08c379a00000000000000000000000000000000000000000000000000000000081526004016137bf9061509e565b60405180910390fd5b6000808673ffffffffffffffffffffffffffffffffffffffff1685876040516137f1919061512f565b60006040518083038185875af1925050503d806000811461382e576040519150601f19603f3d011682016040523d82523d6000602084013e613833565b606091505b509150915061384487838387613850565b92505050949350505050565b606083156138b25760008351036138aa5761386a856138c5565b6138a9576040517f08c379a00000000000000000000000000000000000000000000000000000000081526004016138a090615192565b60405180910390fd5b5b8290506138bd565b6138bc83836138e8565b5b949350505050565b6000808273ffffffffffffffffffffffffffffffffffffffff163b119050919050565b6000825111156138fb5781518083602001fd5b806040517f08c379a000000000000000000000000000000000000000000000000000000000815260040161392f9190615207565b60405180910390fd5b6040518060600160405280600390602082028036833780820191505090505090565b600080fd5b600080fd5b600073ffffffffffffffffffffffffffffffffffffffff82169050919050565b600061398f82613964565b9050919050565b61399f81613984565b81146139aa57600080fd5b50565b6000813590506139bc81613996565b92915050565b6000602082840312156139d8576139d761395a565b5b60006139e6848285016139ad565b91505092915050565b600060ff82169050919050565b613a05816139ef565b82525050565b60008115159050919050565b613a2081613a0b565b82525050565b6000819050919050565b613a3981613a26565b82525050565b613a4881613984565b82525050565b600061010082019050613a64600083018b6139fc565b613a71602083018a613a17565b613a7e6040830189613a30565b613a8b6060830188613a30565b613a986080830187613a30565b613aa560a0830186613a17565b613ab260c0830185613a3f565b613abf60e08301846139fc565b9998505050505050505050565b6000602082019050613ae16000830184613a30565b92915050565b6000606082019050613afc6000830186613a30565b613b096020830185613a30565b613b166040830184613a17565b949350505050565b613b2781613a26565b8114613b3257600080fd5b50565b600081359050613b4481613b1e565b92915050565b600060208284031215613b6057613b5f61395a565b5b6000613b6e84828501613b35565b91505092915050565b6000602082019050613b8c6000830184613a3f565b92915050565b7f4e487b7100000000000000000000000000000000000000000000000000000000600052602160045260246000fd5b60058110613bd257613bd1613b92565b5b50565b6000819050613be382613bc1565b919050565b6000613bf382613bd5565b9050919050565b613c0381613be8565b82525050565b6000608082019050613c1e6000830187613a30565b613c2b6020830186613bfa565b613c386040830185613a30565b613c456060830184613a30565b95945050505050565b6000602082019050613c636000830184613a17565b92915050565b6000819050919050565b6000613c8e613c89613c8484613964565b613c69565b613964565b9050919050565b6000613ca082613c73565b9050919050565b6000613cb282613c95565b9050919050565b613cc281613ca7565b82525050565b6000602082019050613cdd6000830184613cb9565b92915050565b6000602082019050613cf860008301846139fc565b92915050565b600063ffffffff82169050919050565b613d1781613cfe565b82525050565b6000602082019050613d326000830184613d0e565b92915050565b613d41816139ef565b8114613d4c57600080fd5b50565b600081359050613d5e81613d38565b92915050565b600060208284031215613d7a57613d7961395a565b5b6000613d8884828501613d4f565b91505092915050565b6000606082019050613da66000830186613a30565b613db36020830185613d0e565b613dc06040830184613d0e565b949350505050565b600061ffff82169050919050565b613ddf81613dc8565b82525050565b6000606082019050613dfa6000830186613dd6565b613e076020830185613a30565b613e1460408301846139fc565b949350505050565b6000602082019050613e316000830184613bfa565b92915050565b600080fd5b600080fd5b600080fd5b60008083601f840112613e5c57613e5b613e37565b5b8235905067ffffffffffffffff811115613e7957613e78613e3c565b5b602083019150836020820283011115613e9557613e94613e41565b5b9250929050565b60008060208385031215613eb357613eb261395a565b5b600083013567ffffffffffffffff811115613ed157613ed061395f565b5b613edd85828601613e46565b92509250509250929050565b6000604082019050613efe6000830185613a30565b613f0b60208301846139fc565b9392505050565b6000604082019050613f276000830185613a3f565b613f3460208301846139fc565b9392505050565b600082825260208201905092915050565b7f41726d61646143726f776466756e643a206e6f742066696e616c697a65640000600082015250565b6000613f82601e83613f3b565b9150613f8d82613f4c565b602082019050919050565b60006020820190508181036000830152613fb181613f75565b9050919050565b7f41726d61646143726f776466756e643a206e6f742061646d696e000000000000600082015250565b6000613fee601a83613f3b565b9150613ff982613fb8565b602082019050919050565b6000602082019050818103600083015261401d81613fe1565b9050919050565b7f41726d61646143726f776466756e643a2077726f6e6720706861736500000000600082015250565b600061405a601c83613f3b565b915061406582614024565b602082019050919050565b600060208201905081810360008301526140898161404d565b9050919050565b7f41726d61646143726f776466756e643a207a65726f2061646472657373000000600082015250565b60006140c6601d83613f3b565b91506140d182614090565b602082019050919050565b600060208201905081810360008301526140f5816140b9565b9050919050565b7f41726d61646143726f776466756e643a20616c7265616479207769746864726160008201527f776e000000000000000000000000000000000000000000000000000000000000602082015250565b6000614158602283613f3b565b9150614163826140fc565b604082019050919050565b600060208201905081810360008301526141878161414b565b9050919050565b60008151905061419d81613b1e565b92915050565b6000602082840312156141b9576141b861395a565b5b60006141c78482850161418e565b91505092915050565b7f4e487b7100000000000000000000000000000000000000000000000000000000600052601160045260246000fd5b600061420a82613a26565b915061421583613a26565b925082820390508181111561422d5761422c6141d0565b5b92915050565b7f41726d61646143726f776466756e643a206e6f7420696e7669746174696f6e2060008201527f77696e646f770000000000000000000000000000000000000000000000000000602082015250565b600061428f602683613f3b565b915061429a82614233565b604082019050919050565b600060208201905081810360008301526142be81614282565b9050919050565b7f41726d61646143726f776466756e643a206e6f742077686974656c6973746564600082015250565b60006142fb602083613f3b565b9150614306826142c5565b602082019050919050565b6000602082019050818103600083015261432a816142ee565b9050919050565b600061433c826139ef565b9150614347836139ef565b9250828203905060ff8111156143605761435f6141d0565b5b92915050565b7f41726d61646143726f776466756e643a206d617820686f702072656163686564600082015250565b600061439c602083613f3b565b91506143a782614366565b602082019050919050565b600060208201905081810360008301526143cb8161438f565b9050919050565b7f4e487b7100000000000000000000000000000000000000000000000000000000600052603260045260246000fd5b7f41726d61646143726f776466756e643a20696e76697465206c696d697420726560008201527f6163686564000000000000000000000000000000000000000000000000000000602082015250565b600061445d602583613f3b565b915061446882614401565b604082019050919050565b6000602082019050818103600083015261448c81614450565b9050919050565b7f41726d61646143726f776466756e643a20616c72656164792077686974656c6960008201527f7374656400000000000000000000000000000000000000000000000000000000602082015250565b60006144ef602483613f3b565b91506144fa82614493565b604082019050919050565b6000602082019050818103600083015261451e816144e2565b9050919050565b6000614530826139ef565b915061453b836139ef565b9250828201905060ff811115614554576145536141d0565b5b92915050565b6000614565826139ef565b915060ff8203614578576145776141d0565b5b600182019050919050565b600061458e82613cfe565b915063ffffffff82036145a4576145a36141d0565b5b600182019050919050565b7f41726d61646143726f776466756e643a20636f6d6d69746d656e74206e6f742060008201527f656e646564000000000000000000000000000000000000000000000000000000602082015250565b600061460b602583613f3b565b9150614616826145af565b604082019050919050565b6000602082019050818103600083015261463a816145fe565b9050919050565b7f41726d61646143726f776466756e643a20616c72656164792066696e616c697a60008201527f6564000000000000000000000000000000000000000000000000000000000000602082015250565b600061469d602283613f3b565b91506146a882614641565b604082019050919050565b600060208201905081810360008301526146cc81614690565b9050919050565b60006146de82613a26565b91506146e983613a26565b92508282026146f781613a26565b9150828204841483151761470e5761470d6141d0565b5b5092915050565b7f4e487b7100000000000000000000000000000000000000000000000000000000600052601260045260246000fd5b600061474f82613a26565b915061475a83613a26565b92508261476a57614769614715565b5b828204905092915050565b7f41726d61646143726f776466756e643a20696e73756666696369656e7420415260008201527f4d00000000000000000000000000000000000000000000000000000000000000602082015250565b60006147d1602183613f3b565b91506147dc82614775565b604082019050919050565b60006020820190508181036000830152614800816147c4565b9050919050565b600061481282613a26565b915061481d83613a26565b9250828201905080821115614835576148346141d0565b5b92915050565b60006080820190506148506000830187613a30565b61485d6020830186613a30565b61486a6040830185613a30565b6148776060830184613a30565b95945050505050565b7f41726d61646143726f776466756e643a206e6f20636f6d6d69746d656e740000600082015250565b60006148b6601e83613f3b565b91506148c182614880565b602082019050919050565b600060208201905081810360008301526148e5816148a9565b9050919050565b7f41726d61646143726f776466756e643a20616c726561647920636c61696d6564600082015250565b6000614922602083613f3b565b915061492d826148ec565b602082019050919050565b6000602082019050818103600083015261495181614915565b9050919050565b600060408201905061496d6000830185613a30565b61497a6020830184613a30565b9392505050565b7f41726d61646143726f776466756e643a206e6f742063616e63656c6564000000600082015250565b60006149b7601d83613f3b565b91506149c282614981565b602082019050919050565b600060208201905081810360008301526149e6816149aa565b9050919050565b7f41726d61646143726f776466756e643a20616c726561647920726566756e646560008201527f6400000000000000000000000000000000000000000000000000000000000000602082015250565b6000614a49602183613f3b565b9150614a54826149ed565b604082019050919050565b60006020820190508181036000830152614a7881614a3c565b9050919050565b7f41726d61646143726f776466756e643a206e6f2070726f636565647300000000600082015250565b6000614ab5601c83613f3b565b9150614ac082614a7f565b602082019050919050565b60006020820190508181036000830152614ae481614aa8565b9050919050565b7f41726d61646143726f776466756e643a20696e76616c696420686f7000000000600082015250565b6000614b21601c83613f3b565b9150614b2c82614aeb565b602082019050919050565b60006020820190508181036000830152614b5081614b14565b9050919050565b7f41726d61646143726f776466756e643a206e6f20736565647300000000000000600082015250565b6000614b8d601983613f3b565b9150614b9882614b57565b602082019050919050565b60006020820190508181036000830152614bbc81614b80565b9050919050565b6000606082019050614bd86000830186613a30565b614be56020830185613a30565b614bf26040830184613a30565b949350505050565b6000614c0582613a26565b91507fffffffffffffffffffffffffffffffffffffffffffffffffffffffffffffffff8203614c3757614c366141d0565b5b600182019050919050565b7f41726d61646143726f776466756e643a206e6f7420636f6d6d69746d656e742060008201527f77696e646f770000000000000000000000000000000000000000000000000000602082015250565b6000614c9e602683613f3b565b9150614ca982614c42565b604082019050919050565b60006020820190508181036000830152614ccd81614c91565b9050919050565b7f41726d61646143726f776466756e643a207a65726f20616d6f756e7400000000600082015250565b6000614d0a601c83613f3b565b9150614d1582614cd4565b602082019050919050565b60006020820190508181036000830152614d3981614cfd565b9050919050565b7f41726d61646143726f776466756e643a206578636565647320686f7020636170600082015250565b6000614d76602083613f3b565b9150614d8182614d40565b602082019050919050565b60006020820190508181036000830152614da581614d69565b9050919050565b6000606082019050614dc16000830186613a30565b614dce6020830185613a30565b614ddb60408301846139fc565b949350505050565b7f41726d61646143726f776466756e643a2067726170682068696464656e20647560008201527f72696e672073616c650000000000000000000000000000000000000000000000602082015250565b6000614e3f602983613f3b565b9150614e4a82614de3565b604082019050919050565b60006020820190508181036000830152614e6e81614e32565b9050919050565b6000604082019050614e8a6000830185613a3f565b614e976020830184613a30565b9392505050565b7f5265656e7472616e637947756172643a207265656e7472616e742063616c6c00600082015250565b6000614ed4601f83613f3b565b9150614edf82614e9e565b602082019050919050565b60006020820190508181036000830152614f0381614ec7565b9050919050565b6000606082019050614f1f6000830186613a3f565b614f2c6020830185613a3f565b614f396040830184613a30565b949350505050565b614f4a81613a0b565b8114614f5557600080fd5b50565b600081519050614f6781614f41565b92915050565b600060208284031215614f8357614f8261395a565b5b6000614f9184828501614f58565b91505092915050565b7f5361666545524332303a204552433230206f7065726174696f6e20646964206e60008201527f6f74207375636365656400000000000000000000000000000000000000000000602082015250565b6000614ff6602a83613f3b565b915061500182614f9a565b604082019050919050565b6000602082019050818103600083015261502581614fe9565b9050919050565b7f416464726573733a20696e73756666696369656e742062616c616e636520666f60008201527f722063616c6c0000000000000000000000000000000000000000000000000000602082015250565b6000615088602683613f3b565b91506150938261502c565b604082019050919050565b600060208201905081810360008301526150b78161507b565b9050919050565b600081519050919050565b600081905092915050565b60005b838110156150f25780820151818401526020810190506150d7565b60008484015250505050565b6000615109826150be565b61511381856150c9565b93506151238185602086016150d4565b80840191505092915050565b600061513b82846150fe565b915081905092915050565b7f416464726573733a2063616c6c20746f206e6f6e2d636f6e7472616374000000600082015250565b600061517c601d83613f3b565b915061518782615146565b602082019050919050565b600060208201905081810360008301526151ab8161516f565b9050919050565b600081519050919050565b6000601f19601f8301169050919050565b60006151d9826151b2565b6151e38185613f3b565b93506151f38185602086016150d4565b6151fc816151bd565b840191505092915050565b6000602082019050818103600083015261522181846151ce565b90509291505056fea2646970667358221220f4f275cdd5ab03a6ec99e7a0e7a87b52642b6618a9666649bb8664c6d4b263ba64736f6c63430008110033","linkReferences":{}},"methodIdentifiers":{"ARM_PRICE()":"b9cfdad7","BASE_SALE()":"9a1c4e44","COMMITMENT_DURATION()":"63a7a211","ELASTIC_TRIGGER()":"eafa7766","HOP1_ROLLOVER_MIN()":"8cf37ea9","HOP2_ROLLOVER_MIN()":"633694e1","INVITATION_DURATION()":"a63f1aea","MAX_SALE()":"136f3cfc","MIN_SALE()":"842595d4","NUM_HOPS()":"4d7c4f5e","addSeed(address)":"10cb98a5","addSeeds(address[])":"cf0d61fc","admin()":"f851a440","armToken()":"54c98d8e","claim()":"4e71d92d","commit(uint256)":"f4f98ad5","commitmentEnd()":"56a67e88","commitmentStart()":"b5742c87","finalDemands(uint256)":"1abe0518","finalReserves(uint256)":"6022dcd5","finalize()":"4bb278f3","getAllocation(address)":"0e022923","getCommitment(address)":"fa1026dd","getHopStats(uint8)":"63cbdfb9","getInviteEdge(address)":"fc5167fc","getInvitesRemaining(address)":"826cb0ec","getParticipantCount()":"ad605729","getSaleStats()":"136ea674","hopConfigs(uint256)":"6f9c2f05","hopStats(uint256)":"d41afee0","invitationEnd()":"315cb2e2","invitationStart()":"ee872f1a","invite(address)":"4b77c468","isWhitelisted(address)":"3af32abf","participantList(uint256)":"0e6fdaa1","participants(address)":"09e69ede","phase()":"b1c9fe6e","proceedsWithdrawnAmount()":"0dfe56a1","refund()":"590e1ae3","saleSize()":"407d1417","startInvitations()":"8b02237c","totalAllocated()":"45f7f249","totalAllocatedUsdc()":"9fb5398b","totalArmClaimed()":"9662a488","totalCommitted()":"1d3231d4","totalProceedsAccrued()":"d9e163fe","unallocatedArmWithdrawn()":"70f50973","usdc()":"3e413bee","withdrawProceeds(address)":"62810c81","withdrawUnallocatedArm(address)":"32ee7f46"},"storageLayout":{"storage":[{"astId":62974,"contract":"contracts/crowdfund/ArmadaCrowdfund.sol:ArmadaCrowdfund","label":"_status","offset":0,"slot":"0","type":"t_uint256"},{"astId":3265,"contract":"contracts/crowdfund/ArmadaCrowdfund.sol:ArmadaCrowdfund","label":"phase","offset":0,"slot":"1","type":"t_enum(Phase)4832"},{"astId":3267,"contract":"contracts/crowdfund/ArmadaCrowdfund.sol:ArmadaCrowdfund","label":"invitationStart","offset":0,"slot":"2","type":"t_uint256"},{"astId":3269,"contract":"contracts/crowdfund/ArmadaCrowdfund.sol:ArmadaCrowdfund","label":"invitationEnd","offset":0,"slot":"3","type":"t_uint256"},{"astId":3271,"contract":"contracts/crowdfund/ArmadaCrowdfund.sol:ArmadaCrowdfund","label":"commitmentStart","offset":0,"slot":"4","type":"t_uint256"},{"astId":3273,"contract":"contracts/crowdfund/ArmadaCrowdfund.sol:ArmadaCrowdfund","label":"commitmentEnd","offset":0,"slot":"5","type":"t_uint256"},{"astId":3278,"contract":"contracts/crowdfund/ArmadaCrowdfund.sol:ArmadaCrowdfund","label":"hopConfigs","offset":0,"slot":"6","type":"t_array(t_struct(HopConfig)4839_storage)3_storage"},{"astId":3283,"contract":"contracts/crowdfund/ArmadaCrowdfund.sol:ArmadaCrowdfund","label":"participants","offset":0,"slot":"15","type":"t_mapping(t_address,t_struct(Participant)4856_storage)"},{"astId":3286,"contract":"contracts/crowdfund/ArmadaCrowdfund.sol:ArmadaCrowdfund","label":"participantList","offset":0,"slot":"16","type":"t_array(t_address)dyn_storage"},{"astId":3291,"contract":"contracts/crowdfund/ArmadaCrowdfund.sol:ArmadaCrowdfund","label":"hopStats","offset":0,"slot":"17","type":"t_array(t_struct(HopStats)4863_storage)3_storage"},{"astId":3293,"contract":"contracts/crowdfund/ArmadaCrowdfund.sol:ArmadaCrowdfund","label":"totalCommitted","offset":0,"slot":"23","type":"t_uint256"},{"astId":3295,"contract":"contracts/crowdfund/ArmadaCrowdfund.sol:ArmadaCrowdfund","label":"saleSize","offset":0,"slot":"24","type":"t_uint256"},{"astId":3297,"contract":"contracts/crowdfund/ArmadaCrowdfund.sol:ArmadaCrowdfund","label":"totalAllocated","offset":0,"slot":"25","type":"t_uint256"},{"astId":3299,"contract":"contracts/crowdfund/ArmadaCrowdfund.sol:ArmadaCrowdfund","label":"totalAllocatedUsdc","offset":0,"slot":"26","type":"t_uint256"},{"astId":3303,"contract":"contracts/crowdfund/ArmadaCrowdfund.sol:ArmadaCrowdfund","label":"finalReserves","offset":0,"slot":"27","type":"t_array(t_uint256)3_storage"},{"astId":3307,"contract":"contracts/crowdfund/ArmadaCrowdfund.sol:ArmadaCrowdfund","label":"finalDemands","offset":0,"slot":"30","type":"t_array(t_uint256)3_storage"},{"astId":3309,"contract":"contracts/crowdfund/ArmadaCrowdfund.sol:ArmadaCrowdfund","label":"totalProceedsAccrued","offset":0,"slot":"33","type":"t_uint256"},{"astId":3311,"contract":"contracts/crowdfund/ArmadaCrowdfund.sol:ArmadaCrowdfund","label":"totalArmClaimed","offset":0,"slot":"34","type":"t_uint256"},{"astId":3313,"contract":"contracts/crowdfund/ArmadaCrowdfund.sol:ArmadaCrowdfund","label":"proceedsWithdrawnAmount","offset":0,"slot":"35","type":"t_uint256"},{"astId":3315,"contract":"contracts/crowdfund/ArmadaCrowdfund.sol:ArmadaCrowdfund","label":"unallocatedArmWithdrawn","offset":0,"slot":"36","type":"t_bool"}],"types":{"t_address":{"encoding":"inplace","label":"address","numberOfBytes":"20"},"t_array(t_address)dyn_storage":{"encoding":"dynamic_array","label":"address[]","numberOfBytes":"32","base":"t_address"},"t_array(t_struct(HopConfig)4839_storage)3_storage":{"encoding":"inplace","label":"struct HopConfig[3]","numberOfBytes":"288","base":"t_struct(HopConfig)4839_storage"},"t_array(t_struct(HopStats)4863_storage)3_storage":{"encoding":"inplace","label":"struct HopStats[3]","numberOfBytes":"192","base":"t_struct(HopStats)4863_storage"},"t_array(t_uint256)3_storage":{"encoding":"inplace","label":"uint256[3]","numberOfBytes":"96","base":"t_uint256"},"t_bool":{"encoding":"inplace","label":"bool","numberOfBytes":"1"},"t_enum(Phase)4832":{"encoding":"inplace","label":"enum Phase","numberOfBytes":"1"},"t_mapping(t_address,t_struct(Participant)4856_storage)":{"encoding":"mapping","key":"t_address","label":"mapping(address => struct Participant)","numberOfBytes":"32","value":"t_struct(Participant)4856_storage"},"t_struct(HopConfig)4839_storage":{"encoding":"inplace","label":"struct HopConfig","numberOfBytes":"96","members":[{"astId":4834,"contract":"contracts/crowdfund/ArmadaCrowdfund.sol:ArmadaCrowdfund","label":"reserveBps","offset":0,"slot":"0","type":"t_uint16"},{"astId":4836,"contract":"contracts/crowdfund/ArmadaCrowdfund.sol:ArmadaCrowdfund","label":"capUsdc","offset":0,"slot":"1","type":"t_uint256"},{"astId":4838,"contract":"contracts/crowdfund/ArmadaCrowdfund.sol:ArmadaCrowdfund","label":"maxInvites","offset":0,"slot":"2","type":"t_uint8"}]},"t_struct(HopStats)4863_storage":{"encoding":"inplace","label":"struct HopStats","numberOfBytes":"64","members":[{"astId":4858,"contract":"contracts/crowdfund/ArmadaCrowdfund.sol:ArmadaCrowdfund","label":"totalCommitted","offset":0,"slot":"0","type":"t_uint256"},{"astId":4860,"contract":"contracts/crowdfund/ArmadaCrowdfund.sol:ArmadaCrowdfund","label":"uniqueCommitters","offset":0,"slot":"1","type":"t_uint32"},{"astId":4862,"contract":"contracts/crowdfund/ArmadaCrowdfund.sol:ArmadaCrowdfund","label":"whitelistCount","offset":4,"slot":"1","type":"t_uint32"}]},"t_struct(Participant)4856_storage":{"encoding":"inplace","label":"struct Participant","numberOfBytes":"160","members":[{"astId":4841,"contract":"contracts/crowdfund/ArmadaCrowdfund.sol:ArmadaCrowdfund","label":"hop","offset":0,"slot":"0","type":"t_uint8"},{"astId":4843,"contract":"contracts/crowdfund/ArmadaCrowdfund.sol:ArmadaCrowdfund","label":"isWhitelisted","offset":1,"slot":"0","type":"t_bool"},{"astId":4845,"contract":"contracts/crowdfund/ArmadaCrowdfund.sol:ArmadaCrowdfund","label":"committed","offset":0,"slot":"1","type":"t_uint256"},{"astId":4847,"contract":"contracts/crowdfund/ArmadaCrowdfund.sol:ArmadaCrowdfund","label":"allocation","offset":0,"slot":"2","type":"t_uint256"},{"astId":4849,"contract":"contracts/crowdfund/ArmadaCrowdfund.sol:ArmadaCrowdfund","label":"refund","offset":0,"slot":"3","type":"t_uint256"},{"astId":4851,"contract":"contracts/crowdfund/ArmadaCrowdfund.sol:ArmadaCrowdfund","label":"claimed","offset":0,"slot":"4","type":"t_bool"},{"astId":4853,"contract":"contracts/crowdfund/ArmadaCrowdfund.sol:ArmadaCrowdfund","label":"invitedBy","offset":1,"slot":"4","type":"t_address"},{"astId":4855,"contract":"contracts/crowdfund/ArmadaCrowdfund.sol:ArmadaCrowdfund","label":"invitesSent","offset":21,"slot":"4","type":"t_uint8"}]},"t_uint16":{"encoding":"inplace","label":"uint16","numberOfBytes":"2"},"t_uint256":{"encoding":"inplace","label":"uint256","numberOfBytes":"32"},"t_uint32":{"encoding":"inplace","label":"uint32","numberOfBytes":"4"},"t_uint8":{"encoding":"inplace","label":"uint8","numberOfBytes":"1"}}},"id":5}